{
  "_format": "hh-sol-artifact-1",
  "contractName": "AssetStore",
  "sourceName": "contracts/AssetStore.sol",
  "abi": [
    {
      "anonymous": false,
      "inputs": [
        {
          "indexed": false,
          "internalType": "address",
          "name": "from",
          "type": "address"
        },
        {
          "indexed": false,
          "internalType": "uint256",
          "name": "assetId",
          "type": "uint256"
        }
      ],
      "name": "AssetRegistered",
      "type": "event"
    },
    {
      "anonymous": false,
      "inputs": [
        {
          "indexed": false,
          "internalType": "string",
          "name": "group",
          "type": "string"
        },
        {
          "indexed": false,
          "internalType": "string",
          "name": "category",
          "type": "string"
        }
      ],
      "name": "CategoryAdded",
      "type": "event"
    },
    {
      "anonymous": false,
      "inputs": [
        {
          "indexed": false,
          "internalType": "string",
          "name": "group",
          "type": "string"
        }
      ],
      "name": "GroupAdded",
      "type": "event"
    },
    {
      "anonymous": false,
      "inputs": [
        {
          "indexed": true,
          "internalType": "address",
          "name": "previousOwner",
          "type": "address"
        },
        {
          "indexed": true,
          "internalType": "address",
          "name": "newOwner",
          "type": "address"
        }
      ],
      "name": "OwnershipTransferred",
      "type": "event"
    },
    {
      "inputs": [
        {
          "internalType": "uint256",
          "name": "_assetId",
          "type": "uint256"
        }
      ],
      "name": "generateSVG",
      "outputs": [
        {
          "internalType": "string",
          "name": "",
          "type": "string"
        }
      ],
      "stateMutability": "view",
      "type": "function"
    },
    {
      "inputs": [
        {
          "internalType": "uint256",
          "name": "_assetId",
          "type": "uint256"
        }
      ],
      "name": "generateSVGPart",
      "outputs": [
        {
          "internalType": "string",
          "name": "",
          "type": "string"
        }
      ],
      "stateMutability": "view",
      "type": "function"
    },
    {
      "inputs": [],
      "name": "getAssetCount",
      "outputs": [
        {
          "internalType": "uint256",
          "name": "",
          "type": "uint256"
        }
      ],
      "stateMutability": "view",
      "type": "function"
    },
    {
      "inputs": [
        {
          "internalType": "string",
          "name": "_group",
          "type": "string"
        },
        {
          "internalType": "string",
          "name": "_category",
          "type": "string"
        }
      ],
      "name": "getAssetCountInCategory",
      "outputs": [
        {
          "internalType": "uint32",
          "name": "",
          "type": "uint32"
        }
      ],
      "stateMutability": "view",
      "type": "function"
    },
    {
      "inputs": [
        {
          "internalType": "string",
          "name": "_group",
          "type": "string"
        },
        {
          "internalType": "string",
          "name": "_category",
          "type": "string"
        },
        {
          "internalType": "uint32",
          "name": "_assetIndex",
          "type": "uint32"
        }
      ],
      "name": "getAssetIdInCategory",
      "outputs": [
        {
          "internalType": "uint256",
          "name": "",
          "type": "uint256"
        }
      ],
      "stateMutability": "view",
      "type": "function"
    },
    {
      "inputs": [
        {
          "internalType": "string",
          "name": "_group",
          "type": "string"
        },
        {
          "internalType": "string",
          "name": "_category",
          "type": "string"
        },
        {
          "internalType": "string",
          "name": "_name",
          "type": "string"
        }
      ],
      "name": "getAssetIdWithName",
      "outputs": [
        {
          "internalType": "uint256",
          "name": "",
          "type": "uint256"
        }
      ],
      "stateMutability": "view",
      "type": "function"
    },
    {
      "inputs": [
        {
          "internalType": "uint256",
          "name": "_assetId",
          "type": "uint256"
        }
      ],
      "name": "getAttributes",
      "outputs": [
        {
          "components": [
            {
              "internalType": "string",
              "name": "group",
              "type": "string"
            },
            {
              "internalType": "string",
              "name": "category",
              "type": "string"
            },
            {
              "internalType": "string",
              "name": "name",
              "type": "string"
            },
            {
              "internalType": "string",
              "name": "tag",
              "type": "string"
            },
            {
              "internalType": "string",
              "name": "minter",
              "type": "string"
            },
            {
              "internalType": "address",
              "name": "soulbound",
              "type": "address"
            },
            {
              "internalType": "uint16",
              "name": "width",
              "type": "uint16"
            },
            {
              "internalType": "uint16",
              "name": "height",
              "type": "uint16"
            }
          ],
          "internalType": "struct IAssetStore.AssetAttributes",
          "name": "",
          "type": "tuple"
        }
      ],
      "stateMutability": "view",
      "type": "function"
    },
    {
      "inputs": [
        {
          "internalType": "string",
          "name": "_group",
          "type": "string"
        }
      ],
      "name": "getCategoryCount",
      "outputs": [
        {
          "internalType": "uint32",
          "name": "",
          "type": "uint32"
        }
      ],
      "stateMutability": "view",
      "type": "function"
    },
    {
      "inputs": [
        {
          "internalType": "string",
          "name": "_group",
          "type": "string"
        },
        {
          "internalType": "uint32",
          "name": "_categoryIndex",
          "type": "uint32"
        }
      ],
      "name": "getCategoryNameAtIndex",
      "outputs": [
        {
          "internalType": "string",
          "name": "",
          "type": "string"
        }
      ],
      "stateMutability": "view",
      "type": "function"
    },
    {
      "inputs": [],
      "name": "getGroupCount",
      "outputs": [
        {
          "internalType": "uint32",
          "name": "",
          "type": "uint32"
        }
      ],
      "stateMutability": "view",
      "type": "function"
    },
    {
      "inputs": [
        {
          "internalType": "uint32",
          "name": "_groupIndex",
          "type": "uint32"
        }
      ],
      "name": "getGroupNameAtIndex",
      "outputs": [
        {
          "internalType": "string",
          "name": "",
          "type": "string"
        }
      ],
      "stateMutability": "view",
      "type": "function"
    },
    {
      "inputs": [
        {
          "internalType": "uint256",
          "name": "_assetId",
          "type": "uint256"
        }
      ],
      "name": "getRawAsset",
      "outputs": [
        {
          "components": [
            {
              "internalType": "uint32",
              "name": "groupId",
              "type": "uint32"
            },
            {
              "internalType": "uint32",
              "name": "categoryId",
              "type": "uint32"
            },
            {
              "internalType": "string",
              "name": "name",
              "type": "string"
            },
            {
              "internalType": "string",
              "name": "minter",
              "type": "string"
            },
            {
              "internalType": "address",
              "name": "soulbound",
              "type": "address"
            },
            {
              "internalType": "uint256[]",
              "name": "partsIds",
              "type": "uint256[]"
            }
          ],
          "internalType": "struct AssetStoreCore.Asset",
          "name": "",
          "type": "tuple"
        }
      ],
      "stateMutability": "view",
      "type": "function"
    },
    {
      "inputs": [
        {
          "internalType": "uint256",
          "name": "_partId",
          "type": "uint256"
        }
      ],
      "name": "getRawPart",
      "outputs": [
        {
          "components": [
            {
              "internalType": "bytes",
              "name": "body",
              "type": "bytes"
            },
            {
              "internalType": "string",
              "name": "color",
              "type": "string"
            }
          ],
          "internalType": "struct IAssetStoreRegistry.Part",
          "name": "",
          "type": "tuple"
        }
      ],
      "stateMutability": "view",
      "type": "function"
    },
    {
      "inputs": [],
      "name": "owner",
      "outputs": [
        {
          "internalType": "address",
          "name": "",
          "type": "address"
        }
      ],
      "stateMutability": "view",
      "type": "function"
    },
    {
      "inputs": [
        {
          "components": [
            {
              "internalType": "string",
              "name": "group",
              "type": "string"
            },
            {
              "internalType": "string",
              "name": "category",
              "type": "string"
            },
            {
              "internalType": "string",
              "name": "name",
              "type": "string"
            },
            {
              "internalType": "string",
              "name": "minter",
              "type": "string"
            },
            {
              "internalType": "address",
              "name": "soulbound",
              "type": "address"
            },
            {
              "components": [
                {
                  "internalType": "bytes",
                  "name": "body",
                  "type": "bytes"
                },
                {
                  "internalType": "string",
                  "name": "color",
                  "type": "string"
                }
              ],
              "internalType": "struct IAssetStoreRegistry.Part[]",
              "name": "parts",
              "type": "tuple[]"
            }
          ],
          "internalType": "struct IAssetStoreRegistry.AssetInfo",
          "name": "_assetInfo",
          "type": "tuple"
        }
      ],
      "name": "registerAsset",
      "outputs": [
        {
          "internalType": "uint256",
          "name": "",
          "type": "uint256"
        }
      ],
      "stateMutability": "nonpayable",
      "type": "function"
    },
    {
      "inputs": [
        {
          "components": [
            {
              "internalType": "string",
              "name": "group",
              "type": "string"
            },
            {
              "internalType": "string",
              "name": "category",
              "type": "string"
            },
            {
              "internalType": "string",
              "name": "name",
              "type": "string"
            },
            {
              "internalType": "string",
              "name": "minter",
              "type": "string"
            },
            {
              "internalType": "address",
              "name": "soulbound",
              "type": "address"
            },
            {
              "components": [
                {
                  "internalType": "bytes",
                  "name": "body",
                  "type": "bytes"
                },
                {
                  "internalType": "string",
                  "name": "color",
                  "type": "string"
                }
              ],
              "internalType": "struct IAssetStoreRegistry.Part[]",
              "name": "parts",
              "type": "tuple[]"
            }
          ],
          "internalType": "struct IAssetStoreRegistry.AssetInfo[]",
          "name": "_assetInfos",
          "type": "tuple[]"
        }
      ],
      "name": "registerAssets",
      "outputs": [],
      "stateMutability": "nonpayable",
      "type": "function"
    },
    {
      "inputs": [],
      "name": "renounceOwnership",
      "outputs": [],
      "stateMutability": "nonpayable",
      "type": "function"
    },
    {
      "inputs": [
        {
          "internalType": "bool",
          "name": "_disable",
          "type": "bool"
        }
      ],
      "name": "setDisableWhitelist",
      "outputs": [],
      "stateMutability": "nonpayable",
      "type": "function"
    },
    {
      "inputs": [
        {
          "internalType": "uint256",
          "name": "_assetId",
          "type": "uint256"
        },
        {
          "internalType": "bool",
          "name": "_status",
          "type": "bool"
        }
      ],
      "name": "setDisabled",
      "outputs": [],
      "stateMutability": "nonpayable",
      "type": "function"
    },
    {
      "inputs": [
        {
          "internalType": "contract IPathDecoder",
          "name": "_decoder",
          "type": "address"
        }
      ],
      "name": "setPathDecoder",
      "outputs": [],
      "stateMutability": "nonpayable",
      "type": "function"
    },
    {
      "inputs": [
        {
          "internalType": "contract IStringValidator",
          "name": "_validator",
          "type": "address"
        }
      ],
      "name": "setValidator",
      "outputs": [],
      "stateMutability": "nonpayable",
      "type": "function"
    },
    {
      "inputs": [
        {
          "internalType": "address",
          "name": "_address",
          "type": "address"
        },
        {
          "internalType": "bool",
          "name": "_status",
          "type": "bool"
        }
      ],
      "name": "setWhitelistStatus",
      "outputs": [],
      "stateMutability": "nonpayable",
      "type": "function"
    },
    {
      "inputs": [
        {
          "internalType": "address",
          "name": "newOwner",
          "type": "address"
        }
      ],
      "name": "transferOwnership",
      "outputs": [],
      "stateMutability": "nonpayable",
      "type": "function"
    }
  ],
  "bytecode": "0x608060405260016004819055600655600d805460ff191690553480156200002557600080fd5b506200003133620000e9565b6040516200003f9062000139565b604051809103906000f0801580156200005c573d6000803e3d6000fd5b50600180546001600160a01b0319166001600160a01b03929092169190911790556040516200008b9062000147565b604051809103906000f080158015620000a8573d6000803e3d6000fd5b50600280546001600160a01b0319166001600160a01b0392909216919091179055336000908152600c60205260409020805460ff1916600117905562000155565b600080546001600160a01b038381166001600160a01b0319831681178455604051919092169283917f8be0079c531659141344cd1fd0a4f28419497f9722a3daafe3b4186f6b6457e09190a35050565b6104a9806200336683390190565b61082e806200380f83390190565b61320180620001656000396000f3fe608060405234801561001057600080fd5b506004361061018d5760003560e01c8063715018a6116100e3578063d4f056d41161008c578063eedf630911610066578063eedf630914610348578063ef47664214610368578063f2fde38b1461037b57600080fd5b8063d4f056d41461030f578063e0a0bb8914610322578063e3f24f021461033557600080fd5b8063a0aead4d116100bd578063a0aead4d146102d4578063abca1e63146102dc578063b688a0e2146102ef57600080fd5b8063715018a61461029e5780637805544c146102a65780638da5cb5b146102b957600080fd5b80634378a6e3116101455780635c73924c1161011f5780635c73924c146102585780636613845c146102785780636dcee4ca1461028b57600080fd5b80634378a6e314610204578063468823e214610224578063515f28cb1461024557600080fd5b80630c424284116101765780630c424284146101cb5780631327d3d8146101de57806315ea29be146101f157600080fd5b806306545a93146101925780630727ca4c146101b6575b600080fd5b60085463ffffffff165b60405163ffffffff90911681526020015b60405180910390f35b6101c96101c43660046126a4565b610393565b005b6101c96101d93660046125b3565b610405565b6101c96101ec366004612596565b61048a565b6101c96101ff366004612986565b610513565b61021761021236600461296d565b6105f8565b6040516101ad9190612d9a565b610237610232366004612876565b61075b565b6040519081526020016101ad565b61019c61025336600461278a565b610833565b61026b6102663660046129ab565b61089a565b6040516101ad9190612d62565b6101c9610286366004612596565b6108ad565b61026b61029936600461296d565b610936565b6101c96109de565b61026b6102b43660046128ea565b610a44565b6000546040516001600160a01b0390911681526020016101ad565b610237610a88565b6102376102ea366004612938565b610af2565b6103026102fd36600461296d565b610b95565b6040516101ad9190612f2e565b61019c61031d366004612755565b610c0c565b6101c96103303660046125ec565b610c46565b61026b61034336600461296d565b610d1d565b61035b61035636600461296d565b610d99565b6040516101ad9190612e75565b6102376103763660046127ee565b610e45565b6101c9610389366004612596565b610ecb565b905090565b6000546001600160a01b031633146103f25760405162461bcd60e51b815260206004820181905260248201527f4f776e61626c653a2063616c6c6572206973206e6f7420746865206f776e657260448201526064015b60405180910390fd5b600d805460ff1916911515919091179055565b6000546001600160a01b0316331461045f5760405162461bcd60e51b815260206004820181905260248201527f4f776e61626c653a2063616c6c6572206973206e6f7420746865206f776e657260448201526064016103e9565b6001600160a01b03919091166000908152600c60205260409020805460ff1916911515919091179055565b6000546001600160a01b031633146104e45760405162461bcd60e51b815260206004820181905260248201527f4f776e61626c653a2063616c6c6572206973206e6f7420746865206f776e657260448201526064016103e9565b6001805473ffffffffffffffffffffffffffffffffffffffff19166001600160a01b0392909216919091179055565b81600081118015610525575060045481105b61057d5760405162461bcd60e51b815260206004820152602360248201527f417373657453746f72653a2061737365744964206973206f7574206f662072616044820152626e676560e81b60648201526084016103e9565b6000546001600160a01b031633146105d75760405162461bcd60e51b815260206004820181905260248201527f4f776e61626c653a2063616c6c6572206973206e6f7420746865206f776e657260448201526064016103e9565b506000918252600e6020526040909120805460ff1916911515919091179055565b610651604051806101000160405280606081526020016060815260200160608152602001606081526020016060815260200160006001600160a01b03168152602001600061ffff168152602001600061ffff1681525090565b600061065c83610fad565b90506106b7604051806101000160405280606081526020016060815260200160608152602001606081526020016060815260200160006001600160a01b03168152602001600061ffff168152602001600061ffff1681525090565b604080830151908201526106ca8461121a565b6060808301919091526080808401516001600160a01b031660a0840152908301519082015281516107099061070190600190613073565b60079061124b565b815260208201516107409061072090600190613073565b835163ffffffff9081166000908152600a60205260409020919061124b16565b602082015261040060c0820181905260e08201529392505050565b600080610769600786611377565b63ffffffff8082166000908152600a60209081526040808320600b9092528220939450929091829061079f9085908a9061137716565b63ffffffff9081168252602082019290925260400160002060018101549092508116908616106108115760405162461bcd60e51b815260206004820152601e60248201527f546865206173736574496e646578206973206f7574206f662072616e6765000060448201526064016103e9565b63ffffffff851660009081526020919091526040902054925050509392505050565b600080610841600785611377565b63ffffffff8082166000908152600a60209081526040808320600b90925282209394509291610874908490889061137716565b63ffffffff90811682526020820192909252604001600020600101541695945050505050565b60606108a760078361124b565b92915050565b6000546001600160a01b031633146109075760405162461bcd60e51b815260206004820181905260248201527f4f776e61626c653a2063616c6c6572206973206e6f7420746865206f776e657260448201526064016103e9565b6002805473ffffffffffffffffffffffffffffffffffffffff19166001600160a01b0392909216919091179055565b6000818152600e6020526040902054606090829060ff161515600114156109a95760405162461bcd60e51b815260206004820152602160248201527f417373657453746f72653a207468697320617373657420697320646961626c656044820152601960fa1b60648201526084016103e9565b60006109b484611417565b6040516020016109c49190612baf565b60408051601f198184030181529190529250505b50919050565b6000546001600160a01b03163314610a385760405162461bcd60e51b815260206004820181905260248201527f4f776e61626c653a2063616c6c6572206973206e6f7420746865206f776e657260448201526064016103e9565b610a4260006115cb565b565b6060610a8182600a6000610a59600788611377565b63ffffffff1663ffffffff16815260200190815260200160002061124b90919063ffffffff16565b9392505050565b600080546001600160a01b03163314610ae35760405162461bcd60e51b815260206004820181905260248201527f4f776e61626c653a2063616c6c6572206973206e6f7420746865206f776e657260448201526064016103e9565b600160045461038e919061305c565b600d5460009060ff1680610b155750336000908152600c602052604090205460ff165b610b875760405162461bcd60e51b815260206004820152603160248201527f417373657453746f72653a205468652073656e646572206d757374206265206960448201527f6e20746865207768697465206c6973742e00000000000000000000000000000060648201526084016103e9565b6108a782611628565b919050565b60408051808201909152606080825260208201526000546001600160a01b03163314610c035760405162461bcd60e51b815260206004820181905260248201527f4f776e61626c653a2063616c6c6572206973206e6f7420746865206f776e657260448201526064016103e9565b6108a782611bc0565b60006108a7600a82610c1f600786611377565b63ffffffff1663ffffffff1681526020019081526020016000206001015463ffffffff1690565b600d5460ff1680610c665750336000908152600c602052604090205460ff165b610cd85760405162461bcd60e51b815260206004820152603160248201527f417373657453746f72653a205468652073656e646572206d757374206265206960448201527f6e20746865207768697465206c6973742e00000000000000000000000000000060648201526084016103e9565b60005b8151811015610d1957610d06828281518110610cf957610cf961317c565b6020026020010151611628565b5080610d11816130fd565b915050610cdb565b5050565b6000818152600e6020526040902054606090829060ff16151560011415610d905760405162461bcd60e51b815260206004820152602160248201527f417373657453746f72653a207468697320617373657420697320646961626c656044820152601960fa1b60648201526084016103e9565b610a8183611417565b6040805160c0810182526000808252602082018190526060928201839052828201839052608082015260a0810191909152336001600160a01b0316610de66000546001600160a01b031690565b6001600160a01b031614610e3c5760405162461bcd60e51b815260206004820181905260248201527f4f776e61626c653a2063616c6c6572206973206e6f7420746865206f776e657260448201526064016103e9565b6108a782610fad565b600080610e53600786611377565b63ffffffff8082166000908152600a60209081526040808320600b90925282209394509291610e86908490899061137716565b63ffffffff1663ffffffff16815260200190815260200160002060020184604051610eb19190612ad8565b908152602001604051809103902054925050509392505050565b6000546001600160a01b03163314610f255760405162461bcd60e51b815260206004820181905260248201527f4f776e61626c653a2063616c6c6572206973206e6f7420746865206f776e657260448201526064016103e9565b6001600160a01b038116610fa15760405162461bcd60e51b815260206004820152602660248201527f4f776e61626c653a206e6577206f776e657220697320746865207a65726f206160448201527f646472657373000000000000000000000000000000000000000000000000000060648201526084016103e9565b610faa816115cb565b50565b6040805160c0810182526000808252602082018190526060928201839052828201839052608082015260a081019190915281600081118015610ff0575060045481105b6110485760405162461bcd60e51b815260206004820152602360248201527f417373657453746f72653a2061737365744964206973206f7574206f662072616044820152626e676560e81b60648201526084016103e9565b600083815260036020908152604091829020825160c081018452815463ffffffff808216835264010000000090910416928101929092526001810180549293919291840191611096906130c8565b80601f01602080910402602001604051908101604052809291908181526020018280546110c2906130c8565b801561110f5780601f106110e45761010080835404028352916020019161110f565b820191906000526020600020905b8154815290600101906020018083116110f257829003601f168201915b50505050508152602001600282018054611128906130c8565b80601f0160208091040260200160405190810160405280929190818152602001828054611154906130c8565b80156111a15780601f10611176576101008083540402835291602001916111a1565b820191906000526020600020905b81548152906001019060200180831161118457829003601f168201915b505050918352505060038201546001600160a01b0316602080830191909152600483018054604080518285028101850182528281529401939283018282801561120957602002820191906000526020600020905b8154815260200190600101908083116111f5575b505050505081525050915050919050565b606061122582611d6c565b6040516020016112359190612b6a565b6040516020818303038152906040529050919050565b600182015460609063ffffffff908116908316106112d15760405162461bcd60e51b815260206004820152603060248201527f537472696e675365742e6e616d654174496e6465783a2054686520696e64657860448201527f206973206f7574206f662072616e67650000000000000000000000000000000060648201526084016103e9565b63ffffffff8216600090815260208490526040902080546112f1906130c8565b80601f016020809104026020016040519081016040528092919081815260200182805461131d906130c8565b801561136a5780601f1061133f5761010080835404028352916020019161136a565b820191906000526020600020905b81548152906001019060200180831161134d57829003601f168201915b5050505050905092915050565b600080836002018360405161138c9190612ad8565b9081526040519081900360200190205463ffffffff16905080610a815760405162461bcd60e51b815260206004820152602c60248201527f537472696e675365743a2074686520737065636966696564206e616d6520646f60448201527f6573206e6f74206578697374000000000000000000000000000000000000000060648201526084016103e9565b6060600061142483610fad565b60a081015190915060006114378561121a565b61144084611ea6565b604051602001611451929190612cb7565b604051602081830303815290604052905060005b82518110156115a05760006114928483815181106114855761148561317c565b6020026020010151611bc0565b90506060600082602001515111156114c9576020808301516040516114b79201612c67565b60405160208183030381529060405290505b60025482516040517fc25ddce000000000000000000000000000000000000000000000000000000000815286926001600160a01b03169163c25ddce0916115139190600401612d62565b60006040518083038186803b15801561152b57600080fd5b505afa15801561153f573d6000803e3d6000fd5b505050506040513d6000823e601f3d908101601f1916820160405261156791908101906126de565b8260405160200161157a939291906129f2565b604051602081830303815290604052935050508080611598906130fd565b915050611465565b816040516020016115b19190612a97565b60408051601f198184030181529190529695505050505050565b600080546001600160a01b0383811673ffffffffffffffffffffffffffffffffffffffff19831681178455604051919092169283917f8be0079c531659141344cd1fd0a4f28419497f9722a3daafe3b4186f6b6457e09190a35050565b60a0810151516000908290825b818110156117485760008360a0015182815181106116555761165561317c565b6020908102919091018101516001549181015160405163c16e50ef60e01b81529193506001600160a01b039092169163c16e50ef916116979190600401612d62565b602060405180830381600087803b1580156116b157600080fd5b505af11580156116c5573d6000803e3d6000fd5b505050506040513d601f19601f820116820180604052508101906116e991906126c1565b6117355760405162461bcd60e51b815260206004820152601760248201527f496e76616c69642041737365744461746120436f6c6f7200000000000000000060448201526064016103e9565b5080611740816130fd565b915050611635565b600154604080850151905163c16e50ef60e01b81526001600160a01b039092169163c16e50ef9161177b91600401612d62565b602060405180830381600087803b15801561179557600080fd5b505af11580156117a9573d6000803e3d6000fd5b505050506040513d601f19601f820116820180604052508101906117cd91906126c1565b6118195760405162461bcd60e51b815260206004820152601660248201527f496e76616c696420417373657444617461204e616d650000000000000000000060448201526064016103e9565b60006118288660000151611f23565b9050600061183f8760000151838960200151611f8d565b60a08801515190915060008167ffffffffffffffff81111561186357611863613192565b60405190808252806020026020018201604052801561188c578160200160208202803683370190505b50905060005b828110156118ef576118c08a60a0015182815181106118b3576118b361317c565b6020026020010151612016565b8282815181106118d2576118d261317c565b6020908102919091010152806118e7816130fd565b915050611892565b6004805460009182611900836130fd565b909155506040805160c0810182526000808252602082018190526060928201839052828201839052608082015260a08101919091529091506040808d01518282019081526080808f01516001600160a01b0316908401526060808f01519084015263ffffffff808a168452888116602080860191825260a086018990526000878152600382529490942085518154925184166401000000000267ffffffffffffffff199093169316929092171781559051805184936119c6926001850192910190612257565b50606082015180516119e2916002840191602090910190612257565b50608082015160038201805473ffffffffffffffffffffffffffffffffffffffff19166001600160a01b0390921691909117905560a08201518051611a319160048401916020909101906122db565b50505063ffffffff8088166000908152600b60209081526040808320938a1683529290528190208d820151915190916002830191611a6f9190612ad8565b908152602001604051809103902054600014611af35760405162461bcd60e51b815260206004820152603b60248201527f417373657420616c72656164792065786973747320776974682074686520736160448201527f6d652067726f75702c2063617465676f727920616e64206e616d65000000000060648201526084016103e9565b6001810180548491839160009163ffffffff9091169082611b1383613118565b91906101000a81548163ffffffff021916908363ffffffff16021790555063ffffffff1663ffffffff1681526020019081526020016000208190555082816002018e60400151604051611b669190612ad8565b9081526040805160209281900383018120939093553383529082018590527ffd64e3f1068245597a589d8b057edbd3d3c312207d5c6d0d770825f68604ff1a910160405180910390a150909b9a5050505050505050505050565b604080518082019091526060808252602082015281600081118015611be6575060065481105b611c325760405162461bcd60e51b815260206004820152601660248201527f706172744964206973206f7574206f662072616e67650000000000000000000060448201526064016103e9565b600083815260056020526040908190208151808301909252805482908290611c59906130c8565b80601f0160208091040260200160405190810160405280929190818152602001828054611c85906130c8565b8015611cd25780601f10611ca757610100808354040283529160200191611cd2565b820191906000526020600020905b815481529060010190602001808311611cb557829003601f168201915b50505050508152602001600182018054611ceb906130c8565b80601f0160208091040260200160405190810160405280929190818152602001828054611d17906130c8565b80156112095780601f10611d3957610100808354040283529160200191611209565b820191906000526020600020905b815481529060010190602001808311611d475750505091909252509195945050505050565b606081611dac57505060408051808201909152600181527f3000000000000000000000000000000000000000000000000000000000000000602082015290565b8160005b8115611dd65780611dc0816130fd565b9150611dcf9050600a83613048565b9150611db0565b60008167ffffffffffffffff811115611df157611df1613192565b6040519080825280601f01601f191660200182016040528015611e1b576020820181803683370190505b5090505b8415611e9e57611e3060018361305c565b9150611e3d600a8661313c565b611e48906030613030565b60f81b818381518110611e5d57611e5d61317c565b60200101907effffffffffffffffffffffffffffffffffffffffffffffffffffffffffffff1916908160001a905350611e97600a86613048565b9450611e1f565b949350505050565b60606000611ebe600184600001516107019190613073565b905080611ef560018560200151611ed59190613073565b855163ffffffff9081166000908152600a60205260409020919061124b16565b8460400151604051602001611f0c93929190612af4565b604051602081830303815290604052915050919050565b60015460009081908190611f449060079086906001600160a01b0316612085565b915091508015611f86577ff38f46310740c7f6f3e724364a429e671b125298f7a65e69fc18ff94a1e2d04784604051611f7d9190612d62565b60405180910390a15b5092915050565b63ffffffff8083166000908152600a602052604081206001549192909183918291611fc891859188916001600160a01b039091169061208516565b91509150801561200c577fcbc1b8c1fb300e15a9e99dc508aecdff1352f0fad4a5e4b7832d41e369635c038786604051612003929190612d75565b60405180910390a15b5095945050505050565b6000816005600060066000815480929190612030906130fd565b90915550815260208082019290925260400160002082518051919261205a92849290910190612257565b5060208281015180516120739260018501920190612257565b50506006546108a7915060019061305c565b6000806000856002018560405161209c9190612ad8565b9081526040519081900360200190205463ffffffff16905080156120c55791506000905061224f565b60405163c16e50ef60e01b81526001600160a01b0385169063c16e50ef906120f1908890600401612d62565b602060405180830381600087803b15801561210b57600080fd5b505af115801561211f573d6000803e3d6000fd5b505050506040513d601f19601f8201168201806040525081019061214391906126c1565b61218f5760405162461bcd60e51b815260206004820152601f60248201527f537472696e675365742e67657449643a20496e76616c696420537472696e670060448201526064016103e9565b6001860180548691889160009163ffffffff90911690826121af83613118565b91906101000a81548163ffffffff021916908363ffffffff16021790555063ffffffff1663ffffffff16815260200190815260200160002090805190602001906121fa929190612257565b5050600185015460405163ffffffff909116908190600288019061221f908890612ad8565b908152604051908190036020019020805463ffffffff9290921663ffffffff199092169190911790559150600190505b935093915050565b828054612263906130c8565b90600052602060002090601f01602090048101928261228557600085556122cb565b82601f1061229e57805160ff19168380011785556122cb565b828001600101855582156122cb579182015b828111156122cb5782518255916020019190600101906122b0565b506122d7929150612315565b5090565b8280548282559060005260206000209081019282156122cb57916020028201828111156122cb5782518255916020019190600101906122b0565b5b808211156122d75760008155600101612316565b600061233d61233884613008565b612fb3565b905082815283838301111561235157600080fd5b828260208301376000602084830101529392505050565b8035610b90816131a8565b600082601f83011261238457600080fd5b8135602061239461233883612fe4565b80838252828201915082860187848660051b89010111156123b457600080fd5b60005b8581101561246657813567ffffffffffffffff808211156123d757600080fd5b908901906040828c03601f19018113156123f057600080fd5b6123f8612f67565b888401358381111561240957600080fd5b8401603f81018e1361241a57600080fd5b61242a8e8b83013585840161232a565b82525090830135908282111561243f57600080fd5b61244d8d8a84870101612473565b818a0152875250505092840192908401906001016123b7565b5090979650505050505050565b600082601f83011261248457600080fd5b610a818383356020850161232a565b600060c082840312156124a557600080fd5b6124ad612f90565b9050813567ffffffffffffffff808211156124c757600080fd5b6124d385838601612473565b835260208401359150808211156124e957600080fd5b6124f585838601612473565b6020840152604084013591508082111561250e57600080fd5b61251a85838601612473565b6040840152606084013591508082111561253357600080fd5b61253f85838601612473565b606084015261255060808501612368565b608084015260a084013591508082111561256957600080fd5b5061257684828501612373565b60a08301525092915050565b803563ffffffff81168114610b9057600080fd5b6000602082840312156125a857600080fd5b8135610a81816131a8565b600080604083850312156125c657600080fd5b82356125d1816131a8565b915060208301356125e1816131bd565b809150509250929050565b600060208083850312156125ff57600080fd5b823567ffffffffffffffff8082111561261757600080fd5b818501915085601f83011261262b57600080fd5b813561263961233882612fe4565b80828252858201915085850189878560051b880101111561265957600080fd5b6000805b8581101561269457823587811115612673578283fd5b6126818d8b838c0101612493565b865250938801939188019160010161265d565b50919a9950505050505050505050565b6000602082840312156126b657600080fd5b8135610a81816131bd565b6000602082840312156126d357600080fd5b8151610a81816131bd565b6000602082840312156126f057600080fd5b815167ffffffffffffffff81111561270757600080fd5b8201601f8101841361271857600080fd5b805161272661233882613008565b81815285602083850101111561273b57600080fd5b61274c826020830160208601613098565b95945050505050565b60006020828403121561276757600080fd5b813567ffffffffffffffff81111561277e57600080fd5b611e9e84828501612473565b6000806040838503121561279d57600080fd5b823567ffffffffffffffff808211156127b557600080fd5b6127c186838701612473565b935060208501359150808211156127d757600080fd5b506127e485828601612473565b9150509250929050565b60008060006060848603121561280357600080fd5b833567ffffffffffffffff8082111561281b57600080fd5b61282787838801612473565b9450602086013591508082111561283d57600080fd5b61284987838801612473565b9350604086013591508082111561285f57600080fd5b5061286c86828701612473565b9150509250925092565b60008060006060848603121561288b57600080fd5b833567ffffffffffffffff808211156128a357600080fd5b6128af87838801612473565b945060208601359150808211156128c557600080fd5b506128d286828701612473565b9250506128e160408501612582565b90509250925092565b600080604083850312156128fd57600080fd5b823567ffffffffffffffff81111561291457600080fd5b61292085828601612473565b92505061292f60208401612582565b90509250929050565b60006020828403121561294a57600080fd5b813567ffffffffffffffff81111561296157600080fd5b611e9e84828501612493565b60006020828403121561297f57600080fd5b5035919050565b6000806040838503121561299957600080fd5b8235915060208301356125e1816131bd565b6000602082840312156129bd57600080fd5b610a8182612582565b600081518084526129de816020860160208601613098565b601f01601f19169290920160200192915050565b60008451612a04818460208901613098565b7f20203c7061746820643d220000000000000000000000000000000000000000009083019081528451612a3e81600b840160208901613098565b601160f91b600b92909101918201528351612a6081600c840160208801613098565b7f202f3e0a00000000000000000000000000000000000000000000000000000000600c929091019182015260100195945050505050565b60008251612aa9818460208701613098565b7f203c2f673e0a0000000000000000000000000000000000000000000000000000920191825250600601919050565b60008251612aea818460208701613098565b9190910192915050565b60008451612b06818460208901613098565b80830190507f2f000000000000000000000000000000000000000000000000000000000000008082528551612b42816001850160208a01613098565b60019201918201528351612b5d816002840160208801613098565b0160020195945050505050565b7f6173736574000000000000000000000000000000000000000000000000000000815260008251612ba2816005850160208701613098565b9190910160050192915050565b7f3c7376672076696577426f783d22302030203130323420313032342220786d6c81527f6e733d22687474703a2f2f7777772e77332e6f72672f323030302f737667223e60208201527f0a00000000000000000000000000000000000000000000000000000000000000604082015260008251612c33816041850160208701613098565b7f3c2f7376673e00000000000000000000000000000000000000000000000000006041939091019283015250604701919050565b7f2066696c6c3d2200000000000000000000000000000000000000000000000000815260008251612c9f816007850160208701613098565b601160f91b6007939091019283015250600801919050565b7f203c672069643d22000000000000000000000000000000000000000000000000815260008351612cef816008850160208801613098565b7f2220646573633d220000000000000000000000000000000000000000000000006008918401918201528351612d2c816010840160208801613098565b7f223e0a000000000000000000000000000000000000000000000000000000000060109290910191820152601301949350505050565b602081526000610a8160208301846129c6565b604081526000612d8860408301856129c6565b828103602084015261274c81856129c6565b6020815260008251610100806020850152612db96101208501836129c6565b91506020850151601f1980868503016040870152612dd784836129c6565b93506040870151915080868503016060870152612df484836129c6565b93506060870151915080868503016080870152612e1184836129c6565b935060808701519150808685030160a087015250612e2f83826129c6565b92505060a0850151612e4c60c08601826001600160a01b03169052565b5060c085015161ffff811660e08601525060e085015161ffff8116858301525090949350505050565b6000602080835263ffffffff8085511682850152808286015116604085015250604084015160c06060850152612eae60e08501826129c6565b90506060850151601f1980868403016080870152612ecc83836129c6565b60808801516001600160a01b031660a08881019190915288015187820390920160c088015281518082529185019350600092508401905b80831015612f235783518252928401926001929092019190840190612f03565b509695505050505050565b602081526000825160406020840152612f4a60608401826129c6565b90506020840151601f1984830301604085015261274c82826129c6565b6040805190810167ffffffffffffffff81118282101715612f8a57612f8a613192565b60405290565b60405160c0810167ffffffffffffffff81118282101715612f8a57612f8a613192565b604051601f8201601f1916810167ffffffffffffffff81118282101715612fdc57612fdc613192565b604052919050565b600067ffffffffffffffff821115612ffe57612ffe613192565b5060051b60200190565b600067ffffffffffffffff82111561302257613022613192565b50601f01601f191660200190565b6000821982111561304357613043613150565b500190565b60008261305757613057613166565b500490565b60008282101561306e5761306e613150565b500390565b600063ffffffff8381169083168181101561309057613090613150565b039392505050565b60005b838110156130b357818101518382015260200161309b565b838111156130c2576000848401525b50505050565b600181811c908216806130dc57607f821691505b602082108114156109d857634e487b7160e01b600052602260045260246000fd5b600060001982141561311157613111613150565b5060010190565b600063ffffffff8083168181141561313257613132613150565b6001019392505050565b60008261314b5761314b613166565b500690565b634e487b7160e01b600052601160045260246000fd5b634e487b7160e01b600052601260045260246000fd5b634e487b7160e01b600052603260045260246000fd5b634e487b7160e01b600052604160045260246000fd5b6001600160a01b0381168114610faa57600080fd5b8015158114610faa57600080fdfea264697066735822122015f994bdc9099ef78c2e3476cae7aa93d020c856b657b3cadee85fed651f0cc664736f6c63430008060033608060405234801561001057600080fd5b50610489806100206000396000f3fe608060405234801561001057600080fd5b506004361061002b5760003560e01c8063c16e50ef14610030575b600080fd5b61004361003e36600461034d565b610057565b604051901515815260200160405180910390f35b6000805b825181101561034457600083828151811061007857610078610427565b01602001516001600160f81b03191690507f300000000000000000000000000000000000000000000000000000000000000081108015906100e357507f39000000000000000000000000000000000000000000000000000000000000006001600160f81b0319821611155b8061014d57507f41000000000000000000000000000000000000000000000000000000000000006001600160f81b031982161080159061014d57507f5a000000000000000000000000000000000000000000000000000000000000006001600160f81b0319821611155b806101b757507f61000000000000000000000000000000000000000000000000000000000000006001600160f81b03198216108015906101b757507f7a000000000000000000000000000000000000000000000000000000000000006001600160f81b0319821611155b806101eb57507f20000000000000000000000000000000000000000000000000000000000000006001600160f81b03198216145b8061021f57507f23000000000000000000000000000000000000000000000000000000000000006001600160f81b03198216145b8061025357507f28000000000000000000000000000000000000000000000000000000000000006001600160f81b03198216145b8061028757507f29000000000000000000000000000000000000000000000000000000000000006001600160f81b03198216145b806102bb57507f2c000000000000000000000000000000000000000000000000000000000000006001600160f81b03198216145b806102ef57507f2d000000000000000000000000000000000000000000000000000000000000006001600160f81b03198216145b8061032357507f2e000000000000000000000000000000000000000000000000000000000000006001600160f81b03198216145b610331575060009392505050565b508061033c816103fe565b91505061005b565b50600192915050565b60006020828403121561035f57600080fd5b813567ffffffffffffffff8082111561037757600080fd5b818401915084601f83011261038b57600080fd5b81358181111561039d5761039d61043d565b604051601f8201601f19908116603f011681019083821181831017156103c5576103c561043d565b816040528281528760208487010111156103de57600080fd5b826020860160208301376000928101602001929092525095945050505050565b600060001982141561042057634e487b7160e01b600052601160045260246000fd5b5060010190565b634e487b7160e01b600052603260045260246000fd5b634e487b7160e01b600052604160045260246000fdfea2646970667358221220afea0309c73056a4d317ac35752842ef5c4546c8e13b6459b4685c4180172c9364736f6c63430008060033608060405234801561001057600080fd5b5061080e806100206000396000f3fe608060405234801561001057600080fd5b506004361061002b5760003560e01c8063c25ddce014610030575b600080fd5b61004361003e3660046103f4565b610059565b6040516100509190610590565b60405180910390f35b60608060008060038551600261006f9190610658565b6100799190610601565b9050600091505b8061ffff168261ffff1610156102b157600061009d600284610601565b6100a8906003610658565b90506000806100b8600286610729565b61ffff1661011b57878361ffff16815181106100d6576100d66107ac565b016020015160f81c91506010886100ee8560016105c3565b61ffff1681518110610102576101026107ac565b0160200151610114919060f81c61075e565b905061017c565b876101278460026105c3565b61ffff168151811061013b5761013b6107ac565b016020015160f81c91506010886101538560016105c3565b61ffff1681518110610167576101676107ac565b0160200151610179919060f81c610636565b90505b60ff81166101e95760418260ff161015801561019c5750605a8260ff1611155b806101ba575060618260ff16101580156101ba5750607a8260ff1611155b156101e45785826040516020016101d2929190610546565b60405160208183030381529060405295505b61029b565b60006101008360ff168360ff166101006102039190610658565b61020d91906105c3565b6102179190610682565b90506104008161ffff1610610266578661023f61023661040084610682565b61ffff166102ba565b6040516020016102509291906104a5565b6040516020818303038152906040529650610299565b8661027661023683610400610682565b6040516020016102879291906104e0565b60405160208183030381529060405296505b505b50505081806102a9906106ec565b925050610080565b50909392505050565b6060816102fa57505060408051808201909152600181527f3000000000000000000000000000000000000000000000000000000000000000602082015290565b8160005b8115610324578061030e8161070e565b915061031d9050600a83610622565b91506102fe565b60008167ffffffffffffffff81111561033f5761033f6107c2565b6040519080825280601f01601f191660200182016040528015610369576020820181803683370190505b5090505b84156103ec5761037e6001836106a5565b915061038b600a8661074a565b6103969060306105e9565b60f81b8183815181106103ab576103ab6107ac565b60200101907effffffffffffffffffffffffffffffffffffffffffffffffffffffffffffff1916908160001a9053506103e5600a86610622565b945061036d565b949350505050565b60006020828403121561040657600080fd5b813567ffffffffffffffff8082111561041e57600080fd5b818401915084601f83011261043257600080fd5b813581811115610444576104446107c2565b604051601f8201601f19908116603f0116810190838211818310171561046c5761046c6107c2565b8160405282815287602084870101111561048557600080fd5b826020860160208301376000928101602001929092525095945050505050565b600083516104b78184602088016106bc565b8351908301906104cb8183602088016106bc565b600160fd1b9101908152600101949350505050565b600083516104f28184602088016106bc565b7f2d00000000000000000000000000000000000000000000000000000000000000908301908152835161052c8160018401602088016106bc565b600160fd1b60019290910191820152600201949350505050565b600083516105588184602088016106bc565b60f89390931b7fff00000000000000000000000000000000000000000000000000000000000000169190920190815260010192915050565b60208152600082518060208401526105af8160408501602087016106bc565b601f01601f19169190910160400192915050565b600061ffff8083168185168083038211156105e0576105e0610780565b01949350505050565b600082198211156105fc576105fc610780565b500190565b600061ffff8084168061061657610616610796565b92169190910492915050565b60008261063157610631610796565b500490565b600060ff83168061064957610649610796565b8060ff84160491505092915050565b600061ffff8083168185168183048111821515161561067957610679610780565b02949350505050565b600061ffff8381169083168181101561069d5761069d610780565b039392505050565b6000828210156106b7576106b7610780565b500390565b60005b838110156106d75781810151838201526020016106bf565b838111156106e6576000848401525b50505050565b600061ffff8083168181141561070457610704610780565b6001019392505050565b600060001982141561072257610722610780565b5060010190565b600061ffff8084168061073e5761073e610796565b92169190910692915050565b60008261075957610759610796565b500690565b600060ff83168061077157610771610796565b8060ff84160691505092915050565b634e487b7160e01b600052601160045260246000fd5b634e487b7160e01b600052601260045260246000fd5b634e487b7160e01b600052603260045260246000fd5b634e487b7160e01b600052604160045260246000fdfea2646970667358221220038bd1c52f0e6583e742e3cf819d576aface40be80a5533beb30205cc733e91864736f6c63430008060033",
  "linkReferences": {},
  "deployedLinkReferences": {}
}