{
  "_format": "hh-sol-artifact-1",
  "contractName": "AssetStore",
  "sourceName": "contracts/AssetStore.sol",
  "abi": [
    {
      "anonymous": false,
      "inputs": [
        {
          "indexed": false,
          "internalType": "address",
          "name": "from",
          "type": "address"
        },
        {
          "indexed": false,
          "internalType": "uint256",
          "name": "assetId",
          "type": "uint256"
        }
      ],
      "name": "AssetRegistered",
      "type": "event"
    },
    {
      "anonymous": false,
      "inputs": [
        {
          "indexed": false,
          "internalType": "string",
          "name": "group",
          "type": "string"
        },
        {
          "indexed": false,
          "internalType": "string",
          "name": "category",
          "type": "string"
        }
      ],
      "name": "CategoryAdded",
      "type": "event"
    },
    {
      "anonymous": false,
      "inputs": [
        {
          "indexed": false,
          "internalType": "string",
          "name": "group",
          "type": "string"
        }
      ],
      "name": "GroupAdded",
      "type": "event"
    },
    {
      "anonymous": false,
      "inputs": [
        {
          "indexed": true,
          "internalType": "address",
          "name": "previousOwner",
          "type": "address"
        },
        {
          "indexed": true,
          "internalType": "address",
          "name": "newOwner",
          "type": "address"
        }
      ],
      "name": "OwnershipTransferred",
      "type": "event"
    },
    {
      "inputs": [],
      "name": "decoder",
      "outputs": [
        {
          "internalType": "contract IPathDecoder",
          "name": "",
          "type": "address"
        }
      ],
      "stateMutability": "view",
      "type": "function"
    },
    {
      "inputs": [
        {
          "internalType": "uint256",
          "name": "_assetId",
          "type": "uint256"
        }
      ],
      "name": "generateSVG",
      "outputs": [
        {
          "internalType": "string",
          "name": "",
          "type": "string"
        }
      ],
      "stateMutability": "view",
      "type": "function"
    },
    {
      "inputs": [
        {
          "internalType": "uint256",
          "name": "_assetId",
          "type": "uint256"
        }
      ],
      "name": "generateSVGPart",
      "outputs": [
        {
          "internalType": "string",
          "name": "",
          "type": "string"
        }
      ],
      "stateMutability": "view",
      "type": "function"
    },
    {
      "inputs": [],
      "name": "getAssetCount",
      "outputs": [
        {
          "internalType": "uint256",
          "name": "",
          "type": "uint256"
        }
      ],
      "stateMutability": "view",
      "type": "function"
    },
    {
      "inputs": [
        {
          "internalType": "string",
          "name": "_group",
          "type": "string"
        },
        {
          "internalType": "string",
          "name": "_category",
          "type": "string"
        }
      ],
      "name": "getAssetCountInCategory",
      "outputs": [
        {
          "internalType": "uint32",
          "name": "",
          "type": "uint32"
        }
      ],
      "stateMutability": "view",
      "type": "function"
    },
    {
      "inputs": [
        {
          "internalType": "string",
          "name": "_group",
          "type": "string"
        },
        {
          "internalType": "string",
          "name": "_category",
          "type": "string"
        },
        {
          "internalType": "uint32",
          "name": "_assetIndex",
          "type": "uint32"
        }
      ],
      "name": "getAssetIdInCategory",
      "outputs": [
        {
          "internalType": "uint256",
          "name": "",
          "type": "uint256"
        }
      ],
      "stateMutability": "view",
      "type": "function"
    },
    {
      "inputs": [
        {
          "internalType": "string",
          "name": "_group",
          "type": "string"
        },
        {
          "internalType": "string",
          "name": "_category",
          "type": "string"
        },
        {
          "internalType": "string",
          "name": "_name",
          "type": "string"
        }
      ],
      "name": "getAssetIdWithName",
      "outputs": [
        {
          "internalType": "uint256",
          "name": "",
          "type": "uint256"
        }
      ],
      "stateMutability": "view",
      "type": "function"
    },
    {
      "inputs": [
        {
          "internalType": "uint256",
          "name": "_assetId",
          "type": "uint256"
        }
      ],
      "name": "getAttributes",
      "outputs": [
        {
          "components": [
            {
              "internalType": "string",
              "name": "group",
              "type": "string"
            },
            {
              "internalType": "string",
              "name": "category",
              "type": "string"
            },
            {
              "internalType": "string",
              "name": "name",
              "type": "string"
            },
            {
              "internalType": "string",
              "name": "tag",
              "type": "string"
            },
            {
              "internalType": "string",
              "name": "minter",
              "type": "string"
            },
            {
              "internalType": "address",
              "name": "soulbound",
              "type": "address"
            },
            {
              "internalType": "uint16",
              "name": "width",
              "type": "uint16"
            },
            {
              "internalType": "uint16",
              "name": "height",
              "type": "uint16"
            }
          ],
          "internalType": "struct IAssetStore.AssetAttributes",
          "name": "",
          "type": "tuple"
        }
      ],
      "stateMutability": "view",
      "type": "function"
    },
    {
      "inputs": [
        {
          "internalType": "string",
          "name": "_group",
          "type": "string"
        }
      ],
      "name": "getCategoryCount",
      "outputs": [
        {
          "internalType": "uint32",
          "name": "",
          "type": "uint32"
        }
      ],
      "stateMutability": "view",
      "type": "function"
    },
    {
      "inputs": [
        {
          "internalType": "string",
          "name": "_group",
          "type": "string"
        },
        {
          "internalType": "uint32",
          "name": "_categoryIndex",
          "type": "uint32"
        }
      ],
      "name": "getCategoryNameAtIndex",
      "outputs": [
        {
          "internalType": "string",
          "name": "",
          "type": "string"
        }
      ],
      "stateMutability": "view",
      "type": "function"
    },
    {
      "inputs": [],
      "name": "getGroupCount",
      "outputs": [
        {
          "internalType": "uint32",
          "name": "",
          "type": "uint32"
        }
      ],
      "stateMutability": "view",
      "type": "function"
    },
    {
      "inputs": [
        {
          "internalType": "uint32",
          "name": "_groupIndex",
          "type": "uint32"
        }
      ],
      "name": "getGroupNameAtIndex",
      "outputs": [
        {
          "internalType": "string",
          "name": "",
          "type": "string"
        }
      ],
      "stateMutability": "view",
      "type": "function"
    },
    {
      "inputs": [
        {
          "internalType": "uint256",
          "name": "_assetId",
          "type": "uint256"
        }
      ],
      "name": "getRawAsset",
      "outputs": [
        {
          "components": [
            {
              "internalType": "uint32",
              "name": "groupId",
              "type": "uint32"
            },
            {
              "internalType": "uint32",
              "name": "categoryId",
              "type": "uint32"
            },
            {
              "internalType": "string",
              "name": "name",
              "type": "string"
            },
            {
              "internalType": "string",
              "name": "minter",
              "type": "string"
            },
            {
              "internalType": "bytes",
              "name": "metadata",
              "type": "bytes"
            },
            {
              "internalType": "address",
              "name": "soulbound",
              "type": "address"
            },
            {
              "internalType": "uint256[]",
              "name": "partsIds",
              "type": "uint256[]"
            }
          ],
          "internalType": "struct AssetStoreCore.Asset",
          "name": "",
          "type": "tuple"
        }
      ],
      "stateMutability": "view",
      "type": "function"
    },
    {
      "inputs": [
        {
          "internalType": "uint256",
          "name": "_partId",
          "type": "uint256"
        }
      ],
      "name": "getRawPart",
      "outputs": [
        {
          "components": [
            {
              "internalType": "bytes",
              "name": "body",
              "type": "bytes"
            },
            {
              "internalType": "string",
              "name": "color",
              "type": "string"
            }
          ],
          "internalType": "struct IAssetStoreRegistry.Part",
          "name": "",
          "type": "tuple"
        }
      ],
      "stateMutability": "view",
      "type": "function"
    },
    {
      "inputs": [],
      "name": "owner",
      "outputs": [
        {
          "internalType": "address",
          "name": "",
          "type": "address"
        }
      ],
      "stateMutability": "view",
      "type": "function"
    },
    {
      "inputs": [
        {
          "components": [
            {
              "internalType": "string",
              "name": "group",
              "type": "string"
            },
            {
              "internalType": "string",
              "name": "category",
              "type": "string"
            },
            {
              "internalType": "string",
              "name": "name",
              "type": "string"
            },
            {
              "internalType": "string",
              "name": "minter",
              "type": "string"
            },
            {
              "internalType": "address",
              "name": "soulbound",
              "type": "address"
            },
            {
              "internalType": "bytes",
              "name": "metadata",
              "type": "bytes"
            },
            {
              "components": [
                {
                  "internalType": "bytes",
                  "name": "body",
                  "type": "bytes"
                },
                {
                  "internalType": "string",
                  "name": "color",
                  "type": "string"
                }
              ],
              "internalType": "struct IAssetStoreRegistry.Part[]",
              "name": "parts",
              "type": "tuple[]"
            }
          ],
          "internalType": "struct IAssetStoreRegistry.AssetInfo",
          "name": "_assetInfo",
          "type": "tuple"
        }
      ],
      "name": "registerAsset",
      "outputs": [
        {
          "internalType": "uint256",
          "name": "",
          "type": "uint256"
        }
      ],
      "stateMutability": "nonpayable",
      "type": "function"
    },
    {
      "inputs": [
        {
          "components": [
            {
              "internalType": "string",
              "name": "group",
              "type": "string"
            },
            {
              "internalType": "string",
              "name": "category",
              "type": "string"
            },
            {
              "internalType": "string",
              "name": "name",
              "type": "string"
            },
            {
              "internalType": "string",
              "name": "minter",
              "type": "string"
            },
            {
              "internalType": "address",
              "name": "soulbound",
              "type": "address"
            },
            {
              "internalType": "bytes",
              "name": "metadata",
              "type": "bytes"
            },
            {
              "components": [
                {
                  "internalType": "bytes",
                  "name": "body",
                  "type": "bytes"
                },
                {
                  "internalType": "string",
                  "name": "color",
                  "type": "string"
                }
              ],
              "internalType": "struct IAssetStoreRegistry.Part[]",
              "name": "parts",
              "type": "tuple[]"
            }
          ],
          "internalType": "struct IAssetStoreRegistry.AssetInfo[]",
          "name": "_assetInfos",
          "type": "tuple[]"
        }
      ],
      "name": "registerAssets",
      "outputs": [],
      "stateMutability": "nonpayable",
      "type": "function"
    },
    {
      "inputs": [],
      "name": "renounceOwnership",
      "outputs": [],
      "stateMutability": "nonpayable",
      "type": "function"
    },
    {
      "inputs": [
        {
          "internalType": "bool",
          "name": "_disable",
          "type": "bool"
        }
      ],
      "name": "setDisableWhitelist",
      "outputs": [],
      "stateMutability": "nonpayable",
      "type": "function"
    },
    {
      "inputs": [
        {
          "internalType": "uint256",
          "name": "_assetId",
          "type": "uint256"
        },
        {
          "internalType": "bool",
          "name": "_status",
          "type": "bool"
        }
      ],
      "name": "setDisabled",
      "outputs": [],
      "stateMutability": "nonpayable",
      "type": "function"
    },
    {
      "inputs": [
        {
          "internalType": "contract IPathDecoder",
          "name": "_decoder",
          "type": "address"
        }
      ],
      "name": "setPathDecoder",
      "outputs": [],
      "stateMutability": "nonpayable",
      "type": "function"
    },
    {
      "inputs": [
        {
          "internalType": "contract IStringValidator",
          "name": "_validator",
          "type": "address"
        }
      ],
      "name": "setValidator",
      "outputs": [],
      "stateMutability": "nonpayable",
      "type": "function"
    },
    {
      "inputs": [
        {
          "internalType": "address",
          "name": "_address",
          "type": "address"
        },
        {
          "internalType": "bool",
          "name": "_status",
          "type": "bool"
        }
      ],
      "name": "setWhitelistStatus",
      "outputs": [],
      "stateMutability": "nonpayable",
      "type": "function"
    },
    {
      "inputs": [
        {
          "internalType": "address",
          "name": "newOwner",
          "type": "address"
        }
      ],
      "name": "transferOwnership",
      "outputs": [],
      "stateMutability": "nonpayable",
      "type": "function"
    },
    {
      "inputs": [],
      "name": "validator",
      "outputs": [
        {
          "internalType": "contract IStringValidator",
          "name": "",
          "type": "address"
        }
      ],
      "stateMutability": "view",
      "type": "function"
    }
  ],
  "bytecode": "0x608060405260016004819055600655600d805460ff191690553480156200002557600080fd5b506200003133620000e9565b6040516200003f9062000139565b604051809103906000f0801580156200005c573d6000803e3d6000fd5b50600180546001600160a01b0319166001600160a01b03929092169190911790556040516200008b9062000147565b604051809103906000f080158015620000a8573d6000803e3d6000fd5b50600280546001600160a01b0319166001600160a01b0392909216919091179055336000908152600c60205260409020805460ff1916600117905562000155565b600080546001600160a01b038381166001600160a01b0319831681178455604051919092169283917f8be0079c531659141344cd1fd0a4f28419497f9722a3daafe3b4186f6b6457e09190a35050565b6104a9806200349f83390190565b61082e806200394883390190565b61333a80620001656000396000f3fe608060405234801561001057600080fd5b50600436106101a35760003560e01c80636613845c116100ee578063a0aead4d11610097578063e3f24f0211610071578063e3f24f021461037f578063eedf630914610392578063ef476642146103b2578063f2fde38b146103c557600080fd5b8063a0aead4d14610344578063b688a0e21461034c578063d4f056d41461036c57600080fd5b80637805544c116100c85780637805544c1461030d5780638da5cb5b146103205780639cb330051461033157600080fd5b80636613845c146102df5780636dcee4ca146102f2578063715018a61461030557600080fd5b80634378a6e311610150578063587d62c21161012a578063587d62c2146102995780635b7eea86146102ac5780635c73924c146102bf57600080fd5b80634378a6e314610245578063468823e214610265578063515f28cb1461028657600080fd5b80631327d3d8116101815780631327d3d8146101f457806315ea29be146102075780633a5381b51461021a57600080fd5b806306545a93146101a85780630727ca4c146101cc5780630c424284146101e1575b600080fd5b60085463ffffffff165b60405163ffffffff90911681526020015b60405180910390f35b6101df6101da3660046127a1565b6103dd565b005b6101df6101ef3660046126b0565b61044f565b6101df610202366004612693565b6104d4565b6101df610215366004612a83565b61055d565b60015461022d906001600160a01b031681565b6040516001600160a01b0390911681526020016101c3565b610258610253366004612a6a565b610642565b6040516101c39190612ed2565b610278610273366004612973565b6107a4565b6040519081526020016101c3565b6101b2610294366004612887565b61087c565b6101df6102a73660046126e9565b6108e3565b6102786102ba366004612a35565b6109ba565b6102d26102cd366004612aa8565b610a60565b6040516101c39190612e9a565b6101df6102ed366004612693565b610a6d565b6102d2610300366004612a6a565b610af6565b6101df610b9e565b6102d261031b3660046129e7565b610c04565b6000546001600160a01b031661022d565b60025461022d906001600160a01b031681565b610278610c48565b61035f61035a366004612a6a565b610cb2565b6040516101c39190613067565b6101b261037a366004612852565b610d29565b6102d261038d366004612a6a565b610d63565b6103a56103a0366004612a6a565b610ddf565b6040516101c39190612fad565b6102786103c03660046128eb565b610e92565b6101df6103d3366004612693565b610f18565b905090565b6000546001600160a01b0316331461043c5760405162461bcd60e51b815260206004820181905260248201527f4f776e61626c653a2063616c6c6572206973206e6f7420746865206f776e657260448201526064015b60405180910390fd5b600d805460ff1916911515919091179055565b6000546001600160a01b031633146104a95760405162461bcd60e51b815260206004820181905260248201527f4f776e61626c653a2063616c6c6572206973206e6f7420746865206f776e65726044820152606401610433565b6001600160a01b03919091166000908152600c60205260409020805460ff1916911515919091179055565b6000546001600160a01b0316331461052e5760405162461bcd60e51b815260206004820181905260248201527f4f776e61626c653a2063616c6c6572206973206e6f7420746865206f776e65726044820152606401610433565b6001805473ffffffffffffffffffffffffffffffffffffffff19166001600160a01b0392909216919091179055565b8160008111801561056f575060045481105b6105c75760405162461bcd60e51b815260206004820152602360248201527f417373657453746f72653a2061737365744964206973206f7574206f662072616044820152626e676560e81b6064820152608401610433565b6000546001600160a01b031633146106215760405162461bcd60e51b815260206004820181905260248201527f4f776e61626c653a2063616c6c6572206973206e6f7420746865206f776e65726044820152606401610433565b506000918252600e6020526040909120805460ff1916911515919091179055565b61069b604051806101000160405280606081526020016060815260200160608152602001606081526020016060815260200160006001600160a01b03168152602001600061ffff168152602001600061ffff1681525090565b60006106a683610ffa565b9050610701604051806101000160405280606081526020016060815260200160608152602001606081526020016060815260200160006001600160a01b03168152602001600061ffff168152602001600061ffff1681525090565b6040808301519082015261071484611300565b60608083019190915260a0808401516001600160a01b031690830152820151608082015281516107529061074a906001906131ac565b600790611331565b8152602082015161078990610769906001906131ac565b835163ffffffff9081166000908152600a60205260409020919061133116565b602082015261040060c0820181905260e08201529392505050565b6000806107b260078661145d565b63ffffffff8082166000908152600a60209081526040808320600b909252822093945092909182906107e89085908a9061145d16565b63ffffffff90811682526020820192909252604001600020600181015490925081169086161061085a5760405162461bcd60e51b815260206004820152601e60248201527f546865206173736574496e646578206973206f7574206f662072616e676500006044820152606401610433565b63ffffffff851660009081526020919091526040902054925050509392505050565b60008061088a60078561145d565b63ffffffff8082166000908152600a60209081526040808320600b909252822093945092916108bd908490889061145d16565b63ffffffff90811682526020820192909252604001600020600101541695945050505050565b600d5460ff16806109035750336000908152600c602052604090205460ff165b6109755760405162461bcd60e51b815260206004820152603160248201527f417373657453746f72653a205468652073656e646572206d757374206265206960448201527f6e20746865207768697465206c6973742e0000000000000000000000000000006064820152608401610433565b60005b81518110156109b6576109a3828281518110610996576109966132b5565b60200260200101516114fd565b50806109ae81613236565b915050610978565b5050565b600d5460009060ff16806109dd5750336000908152600c602052604090205460ff165b610a4f5760405162461bcd60e51b815260206004820152603160248201527f417373657453746f72653a205468652073656e646572206d757374206265206960448201527f6e20746865207768697465206c6973742e0000000000000000000000000000006064820152608401610433565b610a58826114fd565b90505b919050565b6060610a58600783611331565b6000546001600160a01b03163314610ac75760405162461bcd60e51b815260206004820181905260248201527f4f776e61626c653a2063616c6c6572206973206e6f7420746865206f776e65726044820152606401610433565b6002805473ffffffffffffffffffffffffffffffffffffffff19166001600160a01b0392909216919091179055565b6000818152600e6020526040902054606090829060ff16151560011415610b695760405162461bcd60e51b815260206004820152602160248201527f417373657453746f72653a207468697320617373657420697320646961626c656044820152601960fa1b6064820152608401610433565b6000610b7484611aa2565b604051602001610b849190612ce7565b60408051601f198184030181529190529250505b50919050565b6000546001600160a01b03163314610bf85760405162461bcd60e51b815260206004820181905260248201527f4f776e61626c653a2063616c6c6572206973206e6f7420746865206f776e65726044820152606401610433565b610c026000611c56565b565b6060610c4182600a6000610c1960078861145d565b63ffffffff1663ffffffff16815260200190815260200160002061133190919063ffffffff16565b9392505050565b600080546001600160a01b03163314610ca35760405162461bcd60e51b815260206004820181905260248201527f4f776e61626c653a2063616c6c6572206973206e6f7420746865206f776e65726044820152606401610433565b60016004546103d89190613195565b60408051808201909152606080825260208201526000546001600160a01b03163314610d205760405162461bcd60e51b815260206004820181905260248201527f4f776e61626c653a2063616c6c6572206973206e6f7420746865206f776e65726044820152606401610433565b610a5882611cb3565b6000610a58600a82610d3c60078661145d565b63ffffffff1663ffffffff1681526020019081526020016000206001015463ffffffff1690565b6000818152600e6020526040902054606090829060ff16151560011415610dd65760405162461bcd60e51b815260206004820152602160248201527f417373657453746f72653a207468697320617373657420697320646961626c656044820152601960fa1b6064820152608401610433565b610c4183611aa2565b6040805160e08101825260008082526020820181905260609282018390528282018390526080820183905260a082015260c0810191909152336001600160a01b0316610e336000546001600160a01b031690565b6001600160a01b031614610e895760405162461bcd60e51b815260206004820181905260248201527f4f776e61626c653a2063616c6c6572206973206e6f7420746865206f776e65726044820152606401610433565b610a5882610ffa565b600080610ea060078661145d565b63ffffffff8082166000908152600a60209081526040808320600b90925282209394509291610ed3908490899061145d16565b63ffffffff1663ffffffff16815260200190815260200160002060020184604051610efe9190612c10565b908152602001604051809103902054925050509392505050565b6000546001600160a01b03163314610f725760405162461bcd60e51b815260206004820181905260248201527f4f776e61626c653a2063616c6c6572206973206e6f7420746865206f776e65726044820152606401610433565b6001600160a01b038116610fee5760405162461bcd60e51b815260206004820152602660248201527f4f776e61626c653a206e6577206f776e657220697320746865207a65726f206160448201527f64647265737300000000000000000000000000000000000000000000000000006064820152608401610433565b610ff781611c56565b50565b6040805160e08101825260008082526020820181905260609282018390528282018390526080820183905260a082015260c081019190915281600081118015611044575060045481105b61109c5760405162461bcd60e51b815260206004820152602360248201527f417373657453746f72653a2061737365744964206973206f7574206f662072616044820152626e676560e81b6064820152608401610433565b600083815260036020908152604091829020825160e081018452815463ffffffff8082168352640100000000909104169281019290925260018101805492939192918401916110ea90613201565b80601f016020809104026020016040519081016040528092919081815260200182805461111690613201565b80156111635780601f1061113857610100808354040283529160200191611163565b820191906000526020600020905b81548152906001019060200180831161114657829003601f168201915b5050505050815260200160028201805461117c90613201565b80601f01602080910402602001604051908101604052809291908181526020018280546111a890613201565b80156111f55780601f106111ca576101008083540402835291602001916111f5565b820191906000526020600020905b8154815290600101906020018083116111d857829003601f168201915b5050505050815260200160038201805461120e90613201565b80601f016020809104026020016040519081016040528092919081815260200182805461123a90613201565b80156112875780601f1061125c57610100808354040283529160200191611287565b820191906000526020600020905b81548152906001019060200180831161126a57829003601f168201915b505050918352505060048201546001600160a01b031660208083019190915260058301805460408051828502810185018252828152940193928301828280156112ef57602002820191906000526020600020905b8154815260200190600101908083116112db575b505050505081525050915050919050565b606061130b82611e5f565b60405160200161131b9190612ca2565b6040516020818303038152906040529050919050565b600182015460609063ffffffff908116908316106113b75760405162461bcd60e51b815260206004820152603060248201527f537472696e675365742e6e616d654174496e6465783a2054686520696e64657860448201527f206973206f7574206f662072616e6765000000000000000000000000000000006064820152608401610433565b63ffffffff8216600090815260208490526040902080546113d790613201565b80601f016020809104026020016040519081016040528092919081815260200182805461140390613201565b80156114505780601f1061142557610100808354040283529160200191611450565b820191906000526020600020905b81548152906001019060200180831161143357829003601f168201915b5050505050905092915050565b60008083600201836040516114729190612c10565b9081526040519081900360200190205463ffffffff16905080610c415760405162461bcd60e51b815260206004820152602c60248201527f537472696e675365743a2074686520737065636966696564206e616d6520646f60448201527f6573206e6f7420657869737400000000000000000000000000000000000000006064820152608401610433565b60c0810151516000908290825b8181101561161d5760008360c00151828151811061152a5761152a6132b5565b6020908102919091018101516001549181015160405163c16e50ef60e01b81529193506001600160a01b039092169163c16e50ef9161156c9190600401612e9a565b602060405180830381600087803b15801561158657600080fd5b505af115801561159a573d6000803e3d6000fd5b505050506040513d601f19601f820116820180604052508101906115be91906127be565b61160a5760405162461bcd60e51b815260206004820152601760248201527f496e76616c69642041737365744461746120436f6c6f720000000000000000006044820152606401610433565b508061161581613236565b91505061150a565b600154604080850151905163c16e50ef60e01b81526001600160a01b039092169163c16e50ef9161165091600401612e9a565b602060405180830381600087803b15801561166a57600080fd5b505af115801561167e573d6000803e3d6000fd5b505050506040513d601f19601f820116820180604052508101906116a291906127be565b6116ee5760405162461bcd60e51b815260206004820152601660248201527f496e76616c696420417373657444617461204e616d65000000000000000000006044820152606401610433565b60006116fd8660000151611f99565b905060006117148760000151838960200151612003565b60c08801515190915060008167ffffffffffffffff811115611738576117386132cb565b604051908082528060200260200182016040528015611761578160200160208202803683370190505b50905060005b828110156117c4576117958a60c001518281518110611788576117886132b5565b602002602001015161208c565b8282815181106117a7576117a76132b5565b6020908102919091010152806117bc81613236565b915050611767565b60048054600091826117d583613236565b90915550600081815260036020908152604091829020918e015180519394509192611806926001850192019061234a565b5060808c015160048201805473ffffffffffffffffffffffffffffffffffffffff19166001600160a01b0390921691909117905560608c01515180156118da5760208111156118bd5760405162461bcd60e51b815260206004820152603460248201527f417373657453676f72653a205f726567697374657241737365742c206d696e7460448201527f6572206e616d6520697320746f6f206c6f6e672e0000000000000000000000006064820152608401610433565b60608d015180516118d891600285019160209091019061234a565b505b815463ffffffff8881166401000000000267ffffffffffffffff19909216908a1617178255845161191490600584019060208801906123ce565b5063ffffffff8089166000908152600b60209081526040808320938b1683529290528190208e8201519151909160028301916119509190612c10565b9081526020016040518091039020546000146119d45760405162461bcd60e51b815260206004820152603b60248201527f417373657420616c72656164792065786973747320776974682074686520736160448201527f6d652067726f75702c2063617465676f727920616e64206e616d6500000000006064820152608401610433565b6001810180548591839160009163ffffffff90911690826119f483613251565b91906101000a81548163ffffffff021916908363ffffffff16021790555063ffffffff1663ffffffff1681526020019081526020016000208190555083816002018f60400151604051611a479190612c10565b9081526040805160209281900383018120939093553383529082018690527ffd64e3f1068245597a589d8b057edbd3d3c312207d5c6d0d770825f68604ff1a910160405180910390a150919c9b505050505050505050505050565b60606000611aaf83610ffa565b60c08101519091506000611ac285611300565b611acb846120fb565b604051602001611adc929190612def565b604051602081830303815290604052905060005b8251811015611c2b576000611b1d848381518110611b1057611b106132b5565b6020026020010151611cb3565b9050606060008260200151511115611b5457602080830151604051611b429201612d9f565b60405160208183030381529060405290505b60025482516040517fc25ddce000000000000000000000000000000000000000000000000000000000815286926001600160a01b03169163c25ddce091611b9e9190600401612e9a565b60006040518083038186803b158015611bb657600080fd5b505afa158015611bca573d6000803e3d6000fd5b505050506040513d6000823e601f3d908101601f19168201604052611bf291908101906127db565b82604051602001611c0593929190612b2a565b604051602081830303815290604052935050508080611c2390613236565b915050611af0565b81604051602001611c3c9190612bcf565b60408051601f198184030181529190529695505050505050565b600080546001600160a01b0383811673ffffffffffffffffffffffffffffffffffffffff19831681178455604051919092169283917f8be0079c531659141344cd1fd0a4f28419497f9722a3daafe3b4186f6b6457e09190a35050565b604080518082019091526060808252602082015281600081118015611cd9575060065481105b611d255760405162461bcd60e51b815260206004820152601660248201527f706172744964206973206f7574206f662072616e6765000000000000000000006044820152606401610433565b600083815260056020526040908190208151808301909252805482908290611d4c90613201565b80601f0160208091040260200160405190810160405280929190818152602001828054611d7890613201565b8015611dc55780601f10611d9a57610100808354040283529160200191611dc5565b820191906000526020600020905b815481529060010190602001808311611da857829003601f168201915b50505050508152602001600182018054611dde90613201565b80601f0160208091040260200160405190810160405280929190818152602001828054611e0a90613201565b80156112ef5780601f10611e2c576101008083540402835291602001916112ef565b820191906000526020600020905b815481529060010190602001808311611e3a5750505091909252509195945050505050565b606081611e9f57505060408051808201909152600181527f3000000000000000000000000000000000000000000000000000000000000000602082015290565b8160005b8115611ec95780611eb381613236565b9150611ec29050600a83613181565b9150611ea3565b60008167ffffffffffffffff811115611ee457611ee46132cb565b6040519080825280601f01601f191660200182016040528015611f0e576020820181803683370190505b5090505b8415611f9157611f23600183613195565b9150611f30600a86613275565b611f3b906030613169565b60f81b818381518110611f5057611f506132b5565b60200101907effffffffffffffffffffffffffffffffffffffffffffffffffffffffffffff1916908160001a905350611f8a600a86613181565b9450611f12565b949350505050565b60015460009081908190611fba9060079086906001600160a01b0316612178565b915091508015611ffc577ff38f46310740c7f6f3e724364a429e671b125298f7a65e69fc18ff94a1e2d04784604051611ff39190612e9a565b60405180910390a15b5092915050565b63ffffffff8083166000908152600a60205260408120600154919290918391829161203e91859188916001600160a01b039091169061217816565b915091508015612082577fcbc1b8c1fb300e15a9e99dc508aecdff1352f0fad4a5e4b7832d41e369635c038786604051612079929190612ead565b60405180910390a15b5095945050505050565b60008160056000600660008154809291906120a690613236565b9091555081526020808201929092526040016000208251805191926120d09284929091019061234a565b5060208281015180516120e9926001850192019061234a565b5050600654610a589150600190613195565b606060006121136001846000015161074a91906131ac565b90508061214a6001856020015161212a91906131ac565b855163ffffffff9081166000908152600a60205260409020919061133116565b846040015160405160200161216193929190612c2c565b604051602081830303815290604052915050919050565b6000806000856002018560405161218f9190612c10565b9081526040519081900360200190205463ffffffff16905080156121b857915060009050612342565b60405163c16e50ef60e01b81526001600160a01b0385169063c16e50ef906121e4908890600401612e9a565b602060405180830381600087803b1580156121fe57600080fd5b505af1158015612212573d6000803e3d6000fd5b505050506040513d601f19601f8201168201806040525081019061223691906127be565b6122825760405162461bcd60e51b815260206004820152601f60248201527f537472696e675365742e67657449643a20496e76616c696420537472696e67006044820152606401610433565b6001860180548691889160009163ffffffff90911690826122a283613251565b91906101000a81548163ffffffff021916908363ffffffff16021790555063ffffffff1663ffffffff16815260200190815260200160002090805190602001906122ed92919061234a565b5050600185015460405163ffffffff9091169081906002880190612312908890612c10565b908152604051908190036020019020805463ffffffff9290921663ffffffff199092169190911790559150600190505b935093915050565b82805461235690613201565b90600052602060002090601f01602090048101928261237857600085556123be565b82601f1061239157805160ff19168380011785556123be565b828001600101855582156123be579182015b828111156123be5782518255916020019190600101906123a3565b506123ca929150612408565b5090565b8280548282559060005260206000209081019282156123be57916020028201828111156123be5782518255916020019190600101906123a3565b5b808211156123ca5760008155600101612409565b8035610a5b816132e1565b600082601f83011261243957600080fd5b8135602061244e6124498361311d565b6130ec565b80838252828201915082860187848660051b890101111561246e57600080fd5b60005b8581101561250d57813567ffffffffffffffff8082111561249157600080fd5b908901906040828c03601f19018113156124aa57600080fd5b6124b26130a0565b88840135838111156124c357600080fd5b6124d18e8b8388010161251a565b8252509083013590828211156124e657600080fd5b6124f48d8a8487010161251a565b818a015287525050509284019290840190600101612471565b5090979650505050505050565b600082601f83011261252b57600080fd5b813561253961244982613141565b81815284602083860101111561254e57600080fd5b816020850160208301376000918101602001919091529392505050565b600060e0828403121561257d57600080fd5b6125856130c9565b9050813567ffffffffffffffff8082111561259f57600080fd5b6125ab8583860161251a565b835260208401359150808211156125c157600080fd5b6125cd8583860161251a565b602084015260408401359150808211156125e657600080fd5b6125f28583860161251a565b6040840152606084013591508082111561260b57600080fd5b6126178583860161251a565b60608401526126286080850161241d565b608084015260a084013591508082111561264157600080fd5b61264d8583860161251a565b60a084015260c084013591508082111561266657600080fd5b5061267384828501612428565b60c08301525092915050565b803563ffffffff81168114610a5b57600080fd5b6000602082840312156126a557600080fd5b8135610c41816132e1565b600080604083850312156126c357600080fd5b82356126ce816132e1565b915060208301356126de816132f6565b809150509250929050565b600060208083850312156126fc57600080fd5b823567ffffffffffffffff8082111561271457600080fd5b818501915085601f83011261272857600080fd5b81356127366124498261311d565b80828252858201915085850189878560051b880101111561275657600080fd5b6000805b8581101561279157823587811115612770578283fd5b61277e8d8b838c010161256b565b865250938801939188019160010161275a565b50919a9950505050505050505050565b6000602082840312156127b357600080fd5b8135610c41816132f6565b6000602082840312156127d057600080fd5b8151610c41816132f6565b6000602082840312156127ed57600080fd5b815167ffffffffffffffff81111561280457600080fd5b8201601f8101841361281557600080fd5b805161282361244982613141565b81815285602083850101111561283857600080fd5b6128498260208301602086016131d1565b95945050505050565b60006020828403121561286457600080fd5b813567ffffffffffffffff81111561287b57600080fd5b611f918482850161251a565b6000806040838503121561289a57600080fd5b823567ffffffffffffffff808211156128b257600080fd5b6128be8683870161251a565b935060208501359150808211156128d457600080fd5b506128e18582860161251a565b9150509250929050565b60008060006060848603121561290057600080fd5b833567ffffffffffffffff8082111561291857600080fd5b6129248783880161251a565b9450602086013591508082111561293a57600080fd5b6129468783880161251a565b9350604086013591508082111561295c57600080fd5b506129698682870161251a565b9150509250925092565b60008060006060848603121561298857600080fd5b833567ffffffffffffffff808211156129a057600080fd5b6129ac8783880161251a565b945060208601359150808211156129c257600080fd5b506129cf8682870161251a565b9250506129de6040850161267f565b90509250925092565b600080604083850312156129fa57600080fd5b823567ffffffffffffffff811115612a1157600080fd5b612a1d8582860161251a565b925050612a2c6020840161267f565b90509250929050565b600060208284031215612a4757600080fd5b813567ffffffffffffffff811115612a5e57600080fd5b611f918482850161256b565b600060208284031215612a7c57600080fd5b5035919050565b60008060408385031215612a9657600080fd5b8235915060208301356126de816132f6565b600060208284031215612aba57600080fd5b610c418261267f565b600081518084526020808501945080840160005b83811015612af357815187529582019590820190600101612ad7565b509495945050505050565b60008151808452612b168160208601602086016131d1565b601f01601f19169290920160200192915050565b60008451612b3c8184602089016131d1565b7f20203c7061746820643d220000000000000000000000000000000000000000009083019081528451612b7681600b8401602089016131d1565b601160f91b600b92909101918201528351612b9881600c8401602088016131d1565b7f202f3e0a00000000000000000000000000000000000000000000000000000000600c929091019182015260100195945050505050565b60008251612be18184602087016131d1565b7f203c2f673e0a0000000000000000000000000000000000000000000000000000920191825250600601919050565b60008251612c228184602087016131d1565b9190910192915050565b60008451612c3e8184602089016131d1565b80830190507f2f000000000000000000000000000000000000000000000000000000000000008082528551612c7a816001850160208a016131d1565b60019201918201528351612c958160028401602088016131d1565b0160020195945050505050565b7f6173736574000000000000000000000000000000000000000000000000000000815260008251612cda8160058501602087016131d1565b9190910160050192915050565b7f3c7376672076696577426f783d22302030203130323420313032342220786d6c81527f6e733d22687474703a2f2f7777772e77332e6f72672f323030302f737667223e60208201527f0a00000000000000000000000000000000000000000000000000000000000000604082015260008251612d6b8160418501602087016131d1565b7f3c2f7376673e00000000000000000000000000000000000000000000000000006041939091019283015250604701919050565b7f2066696c6c3d2200000000000000000000000000000000000000000000000000815260008251612dd78160078501602087016131d1565b601160f91b6007939091019283015250600801919050565b7f203c672069643d22000000000000000000000000000000000000000000000000815260008351612e278160088501602088016131d1565b7f2220646573633d220000000000000000000000000000000000000000000000006008918401918201528351612e648160108401602088016131d1565b7f223e0a000000000000000000000000000000000000000000000000000000000060109290910191820152601301949350505050565b602081526000610c416020830184612afe565b604081526000612ec06040830185612afe565b82810360208401526128498185612afe565b6020815260008251610100806020850152612ef1610120850183612afe565b91506020850151601f1980868503016040870152612f0f8483612afe565b93506040870151915080868503016060870152612f2c8483612afe565b93506060870151915080868503016080870152612f498483612afe565b935060808701519150808685030160a087015250612f678382612afe565b92505060a0850151612f8460c08601826001600160a01b03169052565b5060c085015161ffff811660e08601525060e085015161ffff8116858301525090949350505050565b6020815263ffffffff825116602082015260006020830151612fd7604084018263ffffffff169052565b50604083015160e06060840152612ff2610100840182612afe565b90506060840151601f19808584030160808601526130108383612afe565b925060808601519150808584030160a086015261302d8383612afe565b925060a0860151915061304b60c08601836001600160a01b03169052565b60c08601519150808584030160e0860152506128498282612ac3565b6020815260008251604060208401526130836060840182612afe565b90506020840151601f198483030160408501526128498282612afe565b6040805190810167ffffffffffffffff811182821017156130c3576130c36132cb565b60405290565b60405160e0810167ffffffffffffffff811182821017156130c3576130c36132cb565b604051601f8201601f1916810167ffffffffffffffff81118282101715613115576131156132cb565b604052919050565b600067ffffffffffffffff821115613137576131376132cb565b5060051b60200190565b600067ffffffffffffffff82111561315b5761315b6132cb565b50601f01601f191660200190565b6000821982111561317c5761317c613289565b500190565b6000826131905761319061329f565b500490565b6000828210156131a7576131a7613289565b500390565b600063ffffffff838116908316818110156131c9576131c9613289565b039392505050565b60005b838110156131ec5781810151838201526020016131d4565b838111156131fb576000848401525b50505050565b600181811c9082168061321557607f821691505b60208210811415610b9857634e487b7160e01b600052602260045260246000fd5b600060001982141561324a5761324a613289565b5060010190565b600063ffffffff8083168181141561326b5761326b613289565b6001019392505050565b6000826132845761328461329f565b500690565b634e487b7160e01b600052601160045260246000fd5b634e487b7160e01b600052601260045260246000fd5b634e487b7160e01b600052603260045260246000fd5b634e487b7160e01b600052604160045260246000fd5b6001600160a01b0381168114610ff757600080fd5b8015158114610ff757600080fdfea2646970667358221220813a96dfca5795de68d9f00abbcfcb8630d67ed52f48b0b7b6269d7002c1bc3964736f6c63430008060033608060405234801561001057600080fd5b50610489806100206000396000f3fe608060405234801561001057600080fd5b506004361061002b5760003560e01c8063c16e50ef14610030575b600080fd5b61004361003e36600461034d565b610057565b604051901515815260200160405180910390f35b6000805b825181101561034457600083828151811061007857610078610427565b01602001516001600160f81b03191690507f300000000000000000000000000000000000000000000000000000000000000081108015906100e357507f39000000000000000000000000000000000000000000000000000000000000006001600160f81b0319821611155b8061014d57507f41000000000000000000000000000000000000000000000000000000000000006001600160f81b031982161080159061014d57507f5a000000000000000000000000000000000000000000000000000000000000006001600160f81b0319821611155b806101b757507f61000000000000000000000000000000000000000000000000000000000000006001600160f81b03198216108015906101b757507f7a000000000000000000000000000000000000000000000000000000000000006001600160f81b0319821611155b806101eb57507f20000000000000000000000000000000000000000000000000000000000000006001600160f81b03198216145b8061021f57507f23000000000000000000000000000000000000000000000000000000000000006001600160f81b03198216145b8061025357507f28000000000000000000000000000000000000000000000000000000000000006001600160f81b03198216145b8061028757507f29000000000000000000000000000000000000000000000000000000000000006001600160f81b03198216145b806102bb57507f2c000000000000000000000000000000000000000000000000000000000000006001600160f81b03198216145b806102ef57507f2d000000000000000000000000000000000000000000000000000000000000006001600160f81b03198216145b8061032357507f2e000000000000000000000000000000000000000000000000000000000000006001600160f81b03198216145b610331575060009392505050565b508061033c816103fe565b91505061005b565b50600192915050565b60006020828403121561035f57600080fd5b813567ffffffffffffffff8082111561037757600080fd5b818401915084601f83011261038b57600080fd5b81358181111561039d5761039d61043d565b604051601f8201601f19908116603f011681019083821181831017156103c5576103c561043d565b816040528281528760208487010111156103de57600080fd5b826020860160208301376000928101602001929092525095945050505050565b600060001982141561042057634e487b7160e01b600052601160045260246000fd5b5060010190565b634e487b7160e01b600052603260045260246000fd5b634e487b7160e01b600052604160045260246000fdfea2646970667358221220afea0309c73056a4d317ac35752842ef5c4546c8e13b6459b4685c4180172c9364736f6c63430008060033608060405234801561001057600080fd5b5061080e806100206000396000f3fe608060405234801561001057600080fd5b506004361061002b5760003560e01c8063c25ddce014610030575b600080fd5b61004361003e3660046103f4565b610059565b6040516100509190610590565b60405180910390f35b60608060008060038551600261006f9190610658565b6100799190610601565b9050600091505b8061ffff168261ffff1610156102b157600061009d600284610601565b6100a8906003610658565b90506000806100b8600286610729565b61ffff1661011b57878361ffff16815181106100d6576100d66107ac565b016020015160f81c91506010886100ee8560016105c3565b61ffff1681518110610102576101026107ac565b0160200151610114919060f81c61075e565b905061017c565b876101278460026105c3565b61ffff168151811061013b5761013b6107ac565b016020015160f81c91506010886101538560016105c3565b61ffff1681518110610167576101676107ac565b0160200151610179919060f81c610636565b90505b60ff81166101e95760418260ff161015801561019c5750605a8260ff1611155b806101ba575060618260ff16101580156101ba5750607a8260ff1611155b156101e45785826040516020016101d2929190610546565b60405160208183030381529060405295505b61029b565b60006101008360ff168360ff166101006102039190610658565b61020d91906105c3565b6102179190610682565b90506104008161ffff1610610266578661023f61023661040084610682565b61ffff166102ba565b6040516020016102509291906104a5565b6040516020818303038152906040529650610299565b8661027661023683610400610682565b6040516020016102879291906104e0565b60405160208183030381529060405296505b505b50505081806102a9906106ec565b925050610080565b50909392505050565b6060816102fa57505060408051808201909152600181527f3000000000000000000000000000000000000000000000000000000000000000602082015290565b8160005b8115610324578061030e8161070e565b915061031d9050600a83610622565b91506102fe565b60008167ffffffffffffffff81111561033f5761033f6107c2565b6040519080825280601f01601f191660200182016040528015610369576020820181803683370190505b5090505b84156103ec5761037e6001836106a5565b915061038b600a8661074a565b6103969060306105e9565b60f81b8183815181106103ab576103ab6107ac565b60200101907effffffffffffffffffffffffffffffffffffffffffffffffffffffffffffff1916908160001a9053506103e5600a86610622565b945061036d565b949350505050565b60006020828403121561040657600080fd5b813567ffffffffffffffff8082111561041e57600080fd5b818401915084601f83011261043257600080fd5b813581811115610444576104446107c2565b604051601f8201601f19908116603f0116810190838211818310171561046c5761046c6107c2565b8160405282815287602084870101111561048557600080fd5b826020860160208301376000928101602001929092525095945050505050565b600083516104b78184602088016106bc565b8351908301906104cb8183602088016106bc565b600160fd1b9101908152600101949350505050565b600083516104f28184602088016106bc565b7f2d00000000000000000000000000000000000000000000000000000000000000908301908152835161052c8160018401602088016106bc565b600160fd1b60019290910191820152600201949350505050565b600083516105588184602088016106bc565b60f89390931b7fff00000000000000000000000000000000000000000000000000000000000000169190920190815260010192915050565b60208152600082518060208401526105af8160408501602087016106bc565b601f01601f19169190910160400192915050565b600061ffff8083168185168083038211156105e0576105e0610780565b01949350505050565b600082198211156105fc576105fc610780565b500190565b600061ffff8084168061061657610616610796565b92169190910492915050565b60008261063157610631610796565b500490565b600060ff83168061064957610649610796565b8060ff84160491505092915050565b600061ffff8083168185168183048111821515161561067957610679610780565b02949350505050565b600061ffff8381169083168181101561069d5761069d610780565b039392505050565b6000828210156106b7576106b7610780565b500390565b60005b838110156106d75781810151838201526020016106bf565b838111156106e6576000848401525b50505050565b600061ffff8083168181141561070457610704610780565b6001019392505050565b600060001982141561072257610722610780565b5060010190565b600061ffff8084168061073e5761073e610796565b92169190910692915050565b60008261075957610759610796565b500690565b600060ff83168061077157610771610796565b8060ff84160691505092915050565b634e487b7160e01b600052601160045260246000fd5b634e487b7160e01b600052601260045260246000fd5b634e487b7160e01b600052603260045260246000fd5b634e487b7160e01b600052604160045260246000fdfea2646970667358221220038bd1c52f0e6583e742e3cf819d576aface40be80a5533beb30205cc733e91864736f6c63430008060033",
  "linkReferences": {},
  "deployedLinkReferences": {}
}