{
  "_format": "hh-sol-artifact-1",
  "contractName": "AssetStoreProvider",
  "sourceName": "contracts/AssetStoreProvider.sol",
  "abi": [
    {
      "inputs": [
        {
          "internalType": "contract IAssetStoreEx",
          "name": "_assetStore",
          "type": "address"
        }
      ],
      "stateMutability": "nonpayable",
      "type": "constructor"
    },
    {
      "anonymous": false,
      "inputs": [
        {
          "indexed": true,
          "internalType": "address",
          "name": "previousOwner",
          "type": "address"
        },
        {
          "indexed": true,
          "internalType": "address",
          "name": "newOwner",
          "type": "address"
        }
      ],
      "name": "OwnershipTransferred",
      "type": "event"
    },
    {
      "anonymous": false,
      "inputs": [
        {
          "indexed": false,
          "internalType": "string",
          "name": "providerKey",
          "type": "string"
        },
        {
          "indexed": false,
          "internalType": "uint256",
          "name": "assetId",
          "type": "uint256"
        },
        {
          "indexed": false,
          "internalType": "address payable",
          "name": "to",
          "type": "address"
        },
        {
          "indexed": false,
          "internalType": "uint256",
          "name": "amount",
          "type": "uint256"
        }
      ],
      "name": "Payout",
      "type": "event"
    },
    {
      "inputs": [],
      "name": "assetStore",
      "outputs": [
        {
          "internalType": "contract IAssetStoreEx",
          "name": "",
          "type": "address"
        }
      ],
      "stateMutability": "view",
      "type": "function"
    },
    {
      "inputs": [
        {
          "internalType": "uint256",
          "name": "_assetId",
          "type": "uint256"
        }
      ],
      "name": "generateSVGPart",
      "outputs": [
        {
          "internalType": "string",
          "name": "svgPart",
          "type": "string"
        },
        {
          "internalType": "string",
          "name": "tag",
          "type": "string"
        }
      ],
      "stateMutability": "view",
      "type": "function"
    },
    {
      "inputs": [
        {
          "internalType": "string",
          "name": "_group",
          "type": "string"
        },
        {
          "internalType": "string",
          "name": "_category",
          "type": "string"
        }
      ],
      "name": "getAssetCountInCategory",
      "outputs": [
        {
          "internalType": "uint32",
          "name": "",
          "type": "uint32"
        }
      ],
      "stateMutability": "view",
      "type": "function"
    },
    {
      "inputs": [
        {
          "internalType": "string",
          "name": "_group",
          "type": "string"
        },
        {
          "internalType": "string",
          "name": "_category",
          "type": "string"
        },
        {
          "internalType": "uint32",
          "name": "_assetIndex",
          "type": "uint32"
        }
      ],
      "name": "getAssetIdInCategory",
      "outputs": [
        {
          "internalType": "uint256",
          "name": "",
          "type": "uint256"
        }
      ],
      "stateMutability": "view",
      "type": "function"
    },
    {
      "inputs": [
        {
          "internalType": "string",
          "name": "_group",
          "type": "string"
        }
      ],
      "name": "getCategoryCount",
      "outputs": [
        {
          "internalType": "uint32",
          "name": "",
          "type": "uint32"
        }
      ],
      "stateMutability": "view",
      "type": "function"
    },
    {
      "inputs": [
        {
          "internalType": "string",
          "name": "_group",
          "type": "string"
        },
        {
          "internalType": "uint32",
          "name": "_categoryIndex",
          "type": "uint32"
        }
      ],
      "name": "getCategoryNameAtIndex",
      "outputs": [
        {
          "internalType": "string",
          "name": "",
          "type": "string"
        }
      ],
      "stateMutability": "view",
      "type": "function"
    },
    {
      "inputs": [],
      "name": "getGroupCount",
      "outputs": [
        {
          "internalType": "uint32",
          "name": "",
          "type": "uint32"
        }
      ],
      "stateMutability": "view",
      "type": "function"
    },
    {
      "inputs": [
        {
          "internalType": "uint32",
          "name": "_groupIndex",
          "type": "uint32"
        }
      ],
      "name": "getGroupNameAtIndex",
      "outputs": [
        {
          "internalType": "string",
          "name": "",
          "type": "string"
        }
      ],
      "stateMutability": "view",
      "type": "function"
    },
    {
      "inputs": [],
      "name": "getOwner",
      "outputs": [
        {
          "internalType": "address",
          "name": "",
          "type": "address"
        }
      ],
      "stateMutability": "view",
      "type": "function"
    },
    {
      "inputs": [],
      "name": "getProviderInfo",
      "outputs": [
        {
          "components": [
            {
              "internalType": "string",
              "name": "key",
              "type": "string"
            },
            {
              "internalType": "string",
              "name": "name",
              "type": "string"
            },
            {
              "internalType": "contract IAssetProvider",
              "name": "provider",
              "type": "address"
            }
          ],
          "internalType": "struct IAssetProvider.ProviderInfo",
          "name": "",
          "type": "tuple"
        }
      ],
      "stateMutability": "view",
      "type": "function"
    },
    {
      "inputs": [],
      "name": "owner",
      "outputs": [
        {
          "internalType": "address",
          "name": "",
          "type": "address"
        }
      ],
      "stateMutability": "view",
      "type": "function"
    },
    {
      "inputs": [
        {
          "internalType": "uint256",
          "name": "_assetId",
          "type": "uint256"
        },
        {
          "internalType": "uint256",
          "name": "",
          "type": "uint256"
        }
      ],
      "name": "processPayout",
      "outputs": [],
      "stateMutability": "payable",
      "type": "function"
    },
    {
      "inputs": [],
      "name": "renounceOwnership",
      "outputs": [],
      "stateMutability": "nonpayable",
      "type": "function"
    },
    {
      "inputs": [
        {
          "internalType": "bytes4",
          "name": "interfaceId",
          "type": "bytes4"
        }
      ],
      "name": "supportsInterface",
      "outputs": [
        {
          "internalType": "bool",
          "name": "",
          "type": "bool"
        }
      ],
      "stateMutability": "view",
      "type": "function"
    },
    {
      "inputs": [],
      "name": "totalSupply",
      "outputs": [
        {
          "internalType": "uint256",
          "name": "",
          "type": "uint256"
        }
      ],
      "stateMutability": "view",
      "type": "function"
    },
    {
      "inputs": [
        {
          "internalType": "address",
          "name": "newOwner",
          "type": "address"
        }
      ],
      "name": "transferOwnership",
      "outputs": [],
      "stateMutability": "nonpayable",
      "type": "function"
    }
  ],
  "bytecode": "0x60a060405234801561001057600080fd5b5060405161162238038061162283398101604081905261002f9161009d565b6100383361004d565b60601b6001600160601b0319166080526100cd565b600080546001600160a01b038381166001600160a01b0319831681178455604051919092169283917f8be0079c531659141344cd1fd0a4f28419497f9722a3daafe3b4186f6b6457e09190a35050565b6000602082840312156100af57600080fd5b81516001600160a01b03811681146100c657600080fd5b9392505050565b60805160601c6114f1610131600039600081816101cc0152818161044a015281816104e2015281816105770152818161065a0152818161071f01528181610843015281816108da01528181610a4a01528181610ade0152610b9301526114f16000f3fe6080604052600436106100f35760003560e01c80637805544c1161008a5780638da5cb5b116100595780638da5cb5b1461026a578063d4f056d41461033b578063e3f24f021461035b578063f2fde38b1461038957600080fd5b80637805544c1461024a578063893d20e81461026a5780638c40188e146102885780638d07c0821461032857600080fd5b8063515f28cb116100c6578063515f28cb1461019a578063597a0e36146101ba5780635c73924c14610206578063715018a61461023357600080fd5b806301ffc9a7146100f857806306545a931461012d57806318160ddd14610157578063468823e21461017a575b600080fd5b34801561010457600080fd5b50610118610113366004610e61565b6103a9565b60405190151581526020015b60405180910390f35b34801561013957600080fd5b50610142610446565b60405163ffffffff9091168152602001610124565b34801561016357600080fd5b5061016c6104de565b604051908152602001610124565b34801561018657600080fd5b5061016c610195366004610f59565b610571565b3480156101a657600080fd5b506101426101b5366004610ef5565b610627565b3480156101c657600080fd5b506101ee7f000000000000000000000000000000000000000000000000000000000000000081565b6040516001600160a01b039091168152602001610124565b34801561021257600080fd5b506102266102213660046111d1565b6106e8565b6040516101249190611237565b34801561023f57600080fd5b506102486107a5565b005b34801561025657600080fd5b50610226610265366004610fd1565b610810565b34801561027657600080fd5b506000546001600160a01b03166101ee565b34801561029457600080fd5b5061031b60408051606080820183528082526020820152600091810191909152506040805160a08101825260056060820190815264185cdcd95d60da1b6080830152815281518083018352600b81527f41737365742053746f7265000000000000000000000000000000000000000000602082810191909152820152309181019190915290565b6040516101249190611314565b6102486103363660046111af565b6108ce565b34801561034757600080fd5b50610142610356366004610e8b565b610a17565b34801561036757600080fd5b5061037b61037636600461117d565b610acf565b60405161012492919061124a565b34801561039557600080fd5b506102486103a4366004610e44565b610c3d565b60006001600160e01b031982167f739eba3b00000000000000000000000000000000000000000000000000000000148061040c57506001600160e01b031982167fe105c16e00000000000000000000000000000000000000000000000000000000145b8061044057506001600160e01b031982167f01ffc9a700000000000000000000000000000000000000000000000000000000145b92915050565b60007f00000000000000000000000000000000000000000000000000000000000000006001600160a01b03166306545a936040518163ffffffff1660e01b815260040160206040518083038186803b1580156104a157600080fd5b505afa1580156104b5573d6000803e3d6000fd5b505050506040513d601f19601f820116820180604052508101906104d991906111ee565b905090565b60007f00000000000000000000000000000000000000000000000000000000000000006001600160a01b031663a0aead4d6040518163ffffffff1660e01b815260040160206040518083038186803b15801561053957600080fd5b505afa15801561054d573d6000803e3d6000fd5b505050506040513d601f19601f820116820180604052508101906104d99190611196565b600060017f00000000000000000000000000000000000000000000000000000000000000006001600160a01b031663468823e28686866040518463ffffffff1660e01b81526004016105c593929190611278565b60206040518083038186803b1580156105dd57600080fd5b505afa1580156105f1573d6000803e3d6000fd5b505050506040513d601f19601f820116820180604052508101906106159190611196565b61061f9190611421565b949350505050565b6040517f515f28cb0000000000000000000000000000000000000000000000000000000081526000906001600160a01b037f0000000000000000000000000000000000000000000000000000000000000000169063515f28cb90610691908690869060040161124a565b60206040518083038186803b1580156106a957600080fd5b505afa1580156106bd573d6000803e3d6000fd5b505050506040513d601f19601f820116820180604052508101906106e191906111ee565b9392505050565b6040517f5c73924c00000000000000000000000000000000000000000000000000000000815263ffffffff821660048201526060907f00000000000000000000000000000000000000000000000000000000000000006001600160a01b031690635c73924c9060240160006040518083038186803b15801561076957600080fd5b505afa15801561077d573d6000803e3d6000fd5b505050506040513d6000823e601f3d908101601f191682016040526104409190810190610ec0565b6000546001600160a01b031633146108045760405162461bcd60e51b815260206004820181905260248201527f4f776e61626c653a2063616c6c6572206973206e6f7420746865206f776e657260448201526064015b60405180910390fd5b61080e6000610d1f565b565b6040517f7805544c0000000000000000000000000000000000000000000000000000000081526060906001600160a01b037f00000000000000000000000000000000000000000000000000000000000000001690637805544c9061087a90869086906004016112ec565b60006040518083038186803b15801561089257600080fd5b505afa1580156108a6573d6000803e3d6000fd5b505050506040513d6000823e601f3d908101601f191682016040526106e19190810190610ec0565b60006001600160a01b037f000000000000000000000000000000000000000000000000000000000000000016634378a6e361090a856001611409565b6040518263ffffffff1660e01b815260040161092891815260200190565b60006040518083038186803b15801561094057600080fd5b505afa158015610954573d6000803e3d6000fd5b505050506040513d6000823e601f3d908101601f1916820160405261097c9190810190611023565b60a0810151604051919250906001600160a01b038216903480156108fc02916000818181858888f193505050501580156109ba573d6000803e3d6000fd5b506040805180820182526005815264185cdcd95d60da1b602082015290517fbb0eeee27936db25b1a46a81ab6d97326392a3e961efa7273d5d756d7a2e1cad91610a09918790859034906112b4565b60405180910390a150505050565b6040517fd4f056d40000000000000000000000000000000000000000000000000000000081526000906001600160a01b037f0000000000000000000000000000000000000000000000000000000000000000169063d4f056d490610a7f908590600401611237565b60206040518083038186803b158015610a9757600080fd5b505afa158015610aab573d6000803e3d6000fd5b505050506040513d601f19601f8201168201806040525081019061044091906111ee565b60608060006001600160a01b037f000000000000000000000000000000000000000000000000000000000000000016634378a6e3610b0e866001611409565b6040518263ffffffff1660e01b8152600401610b2c91815260200190565b60006040518083038186803b158015610b4457600080fd5b505afa158015610b58573d6000803e3d6000fd5b505050506040513d6000823e601f3d908101601f19168201604052610b809190810190611023565b6060810151925090506001600160a01b037f0000000000000000000000000000000000000000000000000000000000000000166334320bf1610bc3866001611409565b846040518363ffffffff1660e01b8152600401610be192919061136d565b60006040518083038186803b158015610bf957600080fd5b505afa158015610c0d573d6000803e3d6000fd5b505050506040513d6000823e601f3d908101601f19168201604052610c359190810190610ec0565b925050915091565b6000546001600160a01b03163314610c975760405162461bcd60e51b815260206004820181905260248201527f4f776e61626c653a2063616c6c6572206973206e6f7420746865206f776e657260448201526064016107fb565b6001600160a01b038116610d135760405162461bcd60e51b815260206004820152602660248201527f4f776e61626c653a206e6577206f776e657220697320746865207a65726f206160448201527f646472657373000000000000000000000000000000000000000000000000000060648201526084016107fb565b610d1c81610d1f565b50565b600080546001600160a01b038381167fffffffffffffffffffffffff0000000000000000000000000000000000000000831681178455604051919092169283917f8be0079c531659141344cd1fd0a4f28419497f9722a3daafe3b4186f6b6457e09190a35050565b8051610d9281611494565b919050565b600082601f830112610da857600080fd5b8151610dbb610db6826113e1565b6113b0565b818152846020838601011115610dd057600080fd5b61061f826020830160208701611438565b600082601f830112610df257600080fd5b8135610e00610db6826113e1565b818152846020838601011115610e1557600080fd5b816020850160208301376000918101602001919091529392505050565b805161ffff81168114610d9257600080fd5b600060208284031215610e5657600080fd5b81356106e181611494565b600060208284031215610e7357600080fd5b81356001600160e01b0319811681146106e157600080fd5b600060208284031215610e9d57600080fd5b813567ffffffffffffffff811115610eb457600080fd5b61061f84828501610de1565b600060208284031215610ed257600080fd5b815167ffffffffffffffff811115610ee957600080fd5b61061f84828501610d97565b60008060408385031215610f0857600080fd5b823567ffffffffffffffff80821115610f2057600080fd5b610f2c86838701610de1565b93506020850135915080821115610f4257600080fd5b50610f4f85828601610de1565b9150509250929050565b600080600060608486031215610f6e57600080fd5b833567ffffffffffffffff80821115610f8657600080fd5b610f9287838801610de1565b94506020860135915080821115610fa857600080fd5b50610fb586828701610de1565b9250506040840135610fc6816114a9565b809150509250925092565b60008060408385031215610fe457600080fd5b823567ffffffffffffffff811115610ffb57600080fd5b61100785828601610de1565b9250506020830135611018816114a9565b809150509250929050565b60006020828403121561103557600080fd5b815167ffffffffffffffff8082111561104d57600080fd5b90830190610120828603121561106257600080fd5b61106a611386565b82518281111561107957600080fd5b61108587828601610d97565b82525060208301518281111561109a57600080fd5b6110a687828601610d97565b6020830152506040830151828111156110be57600080fd5b6110ca87828601610d97565b6040830152506060830151828111156110e257600080fd5b6110ee87828601610d97565b60608301525060808301518281111561110657600080fd5b61111287828601610d97565b60808301525061112460a08401610d87565b60a082015260c08301518281111561113b57600080fd5b61114787828601610d97565b60c08301525061115960e08401610e32565b60e0820152610100915061116e828401610e32565b91810191909152949350505050565b60006020828403121561118f57600080fd5b5035919050565b6000602082840312156111a857600080fd5b5051919050565b600080604083850312156111c257600080fd5b50508035926020909101359150565b6000602082840312156111e357600080fd5b81356106e1816114a9565b60006020828403121561120057600080fd5b81516106e1816114a9565b60008151808452611223816020860160208601611438565b601f01601f19169290920160200192915050565b6020815260006106e1602083018461120b565b60408152600061125d604083018561120b565b828103602084015261126f818561120b565b95945050505050565b60608152600061128b606083018661120b565b828103602084015261129d818661120b565b91505063ffffffff83166040830152949350505050565b6080815260006112c7608083018761120b565b6020830195909552506001600160a01b03929092166040830152606090910152919050565b6040815260006112ff604083018561120b565b905063ffffffff831660208301529392505050565b602081526000825160606020840152611330608084018261120b565b90506020840151601f1984830301604085015261134d828261120b565b9150506001600160a01b0360408501511660608401528091505092915050565b82815260406020820152600061061f604083018461120b565b604051610120810167ffffffffffffffff811182821017156113aa576113aa61147e565b60405290565b604051601f8201601f1916810167ffffffffffffffff811182821017156113d9576113d961147e565b604052919050565b600067ffffffffffffffff8211156113fb576113fb61147e565b50601f01601f191660200190565b6000821982111561141c5761141c611468565b500190565b60008282101561143357611433611468565b500390565b60005b8381101561145357818101518382015260200161143b565b83811115611462576000848401525b50505050565b634e487b7160e01b600052601160045260246000fd5b634e487b7160e01b600052604160045260246000fd5b6001600160a01b0381168114610d1c57600080fd5b63ffffffff81168114610d1c57600080fdfea2646970667358221220c0b7a3239f3db179a0f11dceec976daf02cbfaae53fea0e0811df4e0035b66b764736f6c63430008060033",
  "linkReferences": {},
  "deployedLinkReferences": {}
}