{
  "_format": "hh-sol-artifact-1",
  "contractName": "AssetComposer",
  "sourceName": "contracts/AssetComposer.sol",
  "abi": [
    {
      "inputs": [
        {
          "internalType": "contract IAssetStoreEx",
          "name": "_assetStore",
          "type": "address"
        }
      ],
      "stateMutability": "nonpayable",
      "type": "constructor"
    },
    {
      "anonymous": false,
      "inputs": [
        {
          "indexed": false,
          "internalType": "address",
          "name": "from",
          "type": "address"
        },
        {
          "indexed": false,
          "internalType": "uint256",
          "name": "compositionId",
          "type": "uint256"
        }
      ],
      "name": "CompositionRegistered",
      "type": "event"
    },
    {
      "anonymous": false,
      "inputs": [
        {
          "indexed": true,
          "internalType": "address",
          "name": "previousOwner",
          "type": "address"
        },
        {
          "indexed": true,
          "internalType": "address",
          "name": "newOwner",
          "type": "address"
        }
      ],
      "name": "OwnershipTransferred",
      "type": "event"
    },
    {
      "anonymous": false,
      "inputs": [
        {
          "indexed": false,
          "internalType": "string",
          "name": "providerKey",
          "type": "string"
        },
        {
          "indexed": false,
          "internalType": "uint256",
          "name": "assetId",
          "type": "uint256"
        },
        {
          "indexed": false,
          "internalType": "address payable",
          "name": "to",
          "type": "address"
        },
        {
          "indexed": false,
          "internalType": "uint256",
          "name": "amount",
          "type": "uint256"
        }
      ],
      "name": "Payout",
      "type": "event"
    },
    {
      "anonymous": false,
      "inputs": [
        {
          "indexed": false,
          "internalType": "address",
          "name": "from",
          "type": "address"
        },
        {
          "indexed": false,
          "internalType": "uint256",
          "name": "_providerId",
          "type": "uint256"
        }
      ],
      "name": "ProviderRegistered",
      "type": "event"
    },
    {
      "anonymous": false,
      "inputs": [
        {
          "indexed": false,
          "internalType": "address",
          "name": "from",
          "type": "address"
        },
        {
          "indexed": false,
          "internalType": "uint256",
          "name": "_providerId",
          "type": "uint256"
        }
      ],
      "name": "ProviderUpdated",
      "type": "event"
    },
    {
      "inputs": [],
      "name": "admin",
      "outputs": [
        {
          "internalType": "address",
          "name": "",
          "type": "address"
        }
      ],
      "stateMutability": "view",
      "type": "function"
    },
    {
      "inputs": [],
      "name": "assetStore",
      "outputs": [
        {
          "internalType": "contract IAssetStoreEx",
          "name": "",
          "type": "address"
        }
      ],
      "stateMutability": "view",
      "type": "function"
    },
    {
      "inputs": [
        {
          "internalType": "uint256",
          "name": "_compositionId",
          "type": "uint256"
        }
      ],
      "name": "generateSVGPart",
      "outputs": [
        {
          "internalType": "string",
          "name": "",
          "type": "string"
        },
        {
          "internalType": "string",
          "name": "",
          "type": "string"
        }
      ],
      "stateMutability": "view",
      "type": "function"
    },
    {
      "inputs": [],
      "name": "getOwner",
      "outputs": [
        {
          "internalType": "address",
          "name": "",
          "type": "address"
        }
      ],
      "stateMutability": "view",
      "type": "function"
    },
    {
      "inputs": [
        {
          "internalType": "uint256",
          "name": "_providerId",
          "type": "uint256"
        }
      ],
      "name": "getProvider",
      "outputs": [
        {
          "components": [
            {
              "internalType": "string",
              "name": "key",
              "type": "string"
            },
            {
              "internalType": "string",
              "name": "name",
              "type": "string"
            },
            {
              "internalType": "contract IAssetProvider",
              "name": "provider",
              "type": "address"
            }
          ],
          "internalType": "struct IAssetProvider.ProviderInfo",
          "name": "",
          "type": "tuple"
        }
      ],
      "stateMutability": "view",
      "type": "function"
    },
    {
      "inputs": [
        {
          "internalType": "string",
          "name": "_key",
          "type": "string"
        }
      ],
      "name": "getProviderId",
      "outputs": [
        {
          "internalType": "uint256",
          "name": "",
          "type": "uint256"
        }
      ],
      "stateMutability": "view",
      "type": "function"
    },
    {
      "inputs": [],
      "name": "getProviderInfo",
      "outputs": [
        {
          "components": [
            {
              "internalType": "string",
              "name": "key",
              "type": "string"
            },
            {
              "internalType": "string",
              "name": "name",
              "type": "string"
            },
            {
              "internalType": "contract IAssetProvider",
              "name": "provider",
              "type": "address"
            }
          ],
          "internalType": "struct IAssetProvider.ProviderInfo",
          "name": "",
          "type": "tuple"
        }
      ],
      "stateMutability": "view",
      "type": "function"
    },
    {
      "inputs": [],
      "name": "nextCompositionId",
      "outputs": [
        {
          "internalType": "uint256",
          "name": "",
          "type": "uint256"
        }
      ],
      "stateMutability": "view",
      "type": "function"
    },
    {
      "inputs": [],
      "name": "owner",
      "outputs": [
        {
          "internalType": "address",
          "name": "",
          "type": "address"
        }
      ],
      "stateMutability": "view",
      "type": "function"
    },
    {
      "inputs": [
        {
          "internalType": "uint256",
          "name": "_compositionId",
          "type": "uint256"
        },
        {
          "internalType": "uint256",
          "name": "_skipIndex",
          "type": "uint256"
        }
      ],
      "name": "processPayout",
      "outputs": [],
      "stateMutability": "payable",
      "type": "function"
    },
    {
      "inputs": [],
      "name": "providerCount",
      "outputs": [
        {
          "internalType": "uint256",
          "name": "",
          "type": "uint256"
        }
      ],
      "stateMutability": "view",
      "type": "function"
    },
    {
      "inputs": [
        {
          "components": [
            {
              "internalType": "uint256",
              "name": "assetId",
              "type": "uint256"
            },
            {
              "internalType": "string",
              "name": "provider",
              "type": "string"
            },
            {
              "internalType": "string",
              "name": "fill",
              "type": "string"
            },
            {
              "internalType": "string",
              "name": "transform",
              "type": "string"
            }
          ],
          "internalType": "struct IAssetComposer.AssetLayer[]",
          "name": "_layers",
          "type": "tuple[]"
        }
      ],
      "name": "registerComposition",
      "outputs": [
        {
          "internalType": "uint256",
          "name": "compositionId",
          "type": "uint256"
        }
      ],
      "stateMutability": "nonpayable",
      "type": "function"
    },
    {
      "inputs": [
        {
          "internalType": "contract IAssetProvider",
          "name": "_provider",
          "type": "address"
        }
      ],
      "name": "registerProvider",
      "outputs": [
        {
          "internalType": "uint256",
          "name": "providerId",
          "type": "uint256"
        }
      ],
      "stateMutability": "nonpayable",
      "type": "function"
    },
    {
      "inputs": [],
      "name": "renounceOwnership",
      "outputs": [],
      "stateMutability": "nonpayable",
      "type": "function"
    },
    {
      "inputs": [
        {
          "internalType": "address",
          "name": "_admin",
          "type": "address"
        }
      ],
      "name": "setAdmin",
      "outputs": [],
      "stateMutability": "nonpayable",
      "type": "function"
    },
    {
      "inputs": [
        {
          "internalType": "uint256",
          "name": "_compositionId",
          "type": "uint256"
        },
        {
          "internalType": "bool",
          "name": "_status",
          "type": "bool"
        }
      ],
      "name": "setDisabled",
      "outputs": [],
      "stateMutability": "nonpayable",
      "type": "function"
    },
    {
      "inputs": [
        {
          "internalType": "bytes4",
          "name": "interfaceId",
          "type": "bytes4"
        }
      ],
      "name": "supportsInterface",
      "outputs": [
        {
          "internalType": "bool",
          "name": "",
          "type": "bool"
        }
      ],
      "stateMutability": "view",
      "type": "function"
    },
    {
      "inputs": [],
      "name": "totalSupply",
      "outputs": [
        {
          "internalType": "uint256",
          "name": "",
          "type": "uint256"
        }
      ],
      "stateMutability": "view",
      "type": "function"
    },
    {
      "inputs": [
        {
          "internalType": "address",
          "name": "newOwner",
          "type": "address"
        }
      ],
      "name": "transferOwnership",
      "outputs": [],
      "stateMutability": "nonpayable",
      "type": "function"
    }
  ],
  "bytecode": "0x60a06040523480156200001157600080fd5b50604051620024a9380380620024a98339810160408190526200003491620000ce565b606081901b6001600160601b0319166080528062000052336200007c565b5050600354600480546001600160a01b0319166001600160a01b0390921691909117905562000100565b600380546001600160a01b038381166001600160a01b0319831681179093556040519116919082907f8be0079c531659141344cd1fd0a4f28419497f9722a3daafe3b4186f6b6457e090600090a35050565b600060208284031215620000e157600080fd5b81516001600160a01b0381168114620000f957600080fd5b9392505050565b60805160601c612383620001266000396000818161023501526109e001526123836000f3fe6080604052600436106101445760003560e01c8063715018a6116100c05780638da5cb5b11610074578063ea575c6111610059578063ea575c61146103ec578063f2fde38b14610402578063f851a4401461042257600080fd5b80638da5cb5b146103a0578063e3f24f02146103be57600080fd5b8063893d20e8116100a5578063893d20e8146102e65780638c40188e146102fb5780638d07c0821461038d57600080fd5b8063715018a6146102bc57806374c83268146102d157600080fd5b8063434ebc5511610117578063597a0e36116100fc578063597a0e36146102235780635c42d0791461026f578063704b6c021461029c57600080fd5b8063434ebc55146101e35780634854078f1461020357600080fd5b806301ffc9a7146101495780630e2600161461017e57806315ea29be146101ac57806318160ddd146101ce575b600080fd5b34801561015557600080fd5b50610169610164366004611b9a565b610442565b60405190151581526020015b60405180910390f35b34801561018a57600080fd5b5061019e6101993660046119f3565b610513565b604051908152602001610175565b3480156101b857600080fd5b506101cc6101c7366004611d34565b610926565b005b3480156101da57600080fd5b5060065461019e565b3480156101ef57600080fd5b5061019e6101fe366004611a2d565b6109db565b34801561020f57600080fd5b5061019e61021e366004611bc4565b610d7d565b34801561022f57600080fd5b506102577f000000000000000000000000000000000000000000000000000000000000000081565b6040516001600160a01b039091168152602001610175565b34801561027b57600080fd5b5061028f61028a366004611d1b565b610df6565b6040516101759190612109565b3480156102a857600080fd5b506101cc6102b73660046119f3565b610eb4565b3480156102c857600080fd5b506101cc610f3d565b3480156102dd57600080fd5b5060005461019e565b3480156102f257600080fd5b50610257610fa3565b34801561030757600080fd5b5061028f60408051606080820183528082526020820152600091810191909152506040805160a081018252600460608201908152630636f6d760e41b6080830152815281518083018352600e81527f417373657420436f6d706f736572000000000000000000000000000000000000602082810191909152820152309181019190915290565b6101cc61039b366004611d64565b610fbc565b3480156103ac57600080fd5b506003546001600160a01b0316610257565b3480156103ca57600080fd5b506103de6103d9366004611d1b565b61112b565b6040516101759291906120db565b3480156103f857600080fd5b5061019e60065481565b34801561040e57600080fd5b506101cc61041d3660046119f3565b611644565b34801561042e57600080fd5b50600454610257906001600160a01b031681565b60006001600160e01b031982167f6ef8e5880000000000000000000000000000000000000000000000000000000014806104a557506001600160e01b031982167fa0bcf35700000000000000000000000000000000000000000000000000000000145b806104d957506001600160e01b031982167f739eba3b00000000000000000000000000000000000000000000000000000000145b8061050d57506001600160e01b031982167f01ffc9a700000000000000000000000000000000000000000000000000000000145b92915050565b600080826001600160a01b0316638c40188e6040518163ffffffff1660e01b815260040160006040518083038186803b15801561054f57600080fd5b505afa158015610563573d6000803e3d6000fd5b505050506040513d6000823e601f3d908101601f1916820160405261058b9190810190611c5d565b9050600181600001516040516105a19190612015565b9081526020016040518091039020549150816000146107d757816105c481612257565b6000818152600260209081526040918290205482517f893d20e800000000000000000000000000000000000000000000000000000000815292519396506001600160a01b03169350839263893d20e8926004808201939291829003018186803b15801561063057600080fd5b505afa158015610644573d6000803e3d6000fd5b505050506040513d601f19601f820116820180604052508101906106689190611a10565b6001600160a01b0316846001600160a01b031663893d20e86040518163ffffffff1660e01b815260040160206040518083038186803b1580156106aa57600080fd5b505afa1580156106be573d6000803e3d6000fd5b505050506040513d601f19601f820116820180604052508101906106e29190611a10565b6001600160a01b0316146107635760405162461bcd60e51b815260206004820152603260248201527f4173736574436f6d706f7365723a726567697374657250726f76696465722c2060448201527f616c72656164792072656769737465726564000000000000000000000000000060648201526084015b60405180910390fd5b600083815260026020908152604091829020805473ffffffffffffffffffffffffffffffffffffffff19166001600160a01b03881617905581513381529081018590527f4141f33bf490d9190a43ac8dc2fd923fdd3a01d78b82d1fa85f803a91f4bf4ae910160405180910390a150610920565b80604001516001600160a01b0316836001600160a01b0316146108625760405162461bcd60e51b815260206004820152603060248201527f4173736574436f6d706f7365723a726567697374657250726f76696465722c2060448201527f61646472657373206d69736d6174636800000000000000000000000000000000606482015260840161075a565b6000805484916002918180610876836122a3565b91905055815260200190815260200160002060006101000a8154816001600160a01b0302191690836001600160a01b03160217905550600054600182600001516040516108c39190612015565b908152604051908190036020019020556000546108e290600190612210565b60408051338152602081018390529193507f90c9734131c1e4fb36cde2d71e6feb93fb258f71be8a85411c173d25e1516e8091015b60405180910390a15b50919050565b6003546001600160a01b031633148061094957506004546001600160a01b031633145b6109bb5760405162461bcd60e51b815260206004820152602660248201527f4173736574436f6d706f7365723a2063616c6c6572206973206e6f742074686560448201527f2061646d696e0000000000000000000000000000000000000000000000000000606482015260840161075a565b600091825260056020526040909120805460ff1916911515919091179055565b6000807f00000000000000000000000000000000000000000000000000000000000000006001600160a01b031663a57cfb246040518163ffffffff1660e01b815260040160206040518083038186803b158015610a3757600080fd5b505afa158015610a4b573d6000803e3d6000fd5b505050506040513d601f19601f82011682018060405250810190610a6f9190611a10565b600680549192506000610a81836122a3565b9091555083516000828152600760205260408120919091559092505b8351811015610d46576000848281518110610aba57610aba6122fe565b602002602001015190506000816000015190506000610adc8360200151610d7d565b6040805180820182526fffffffffffffffffffffffffffffffff8084168252858116602080840191825260008c8152600882528581208b825290915293909320915192518116600160801b029216919091179055606084015180519192509015610c315760405163c16e50ef60e01b81526001600160a01b0387169063c16e50ef90610b6c9084906004016120c8565b60206040518083038186803b158015610b8457600080fd5b505afa158015610b98573d6000803e3d6000fd5b505050506040513d601f19601f82011682018060405250810190610bbc9190611b7d565b610c085760405162461bcd60e51b815260206004820152601b60248201527f72656769737465723a20496e76616c6964207472616e73666f726d0000000000604482015260640161075a565b600087815260096020908152604080832088845282529091208251610c2f928401906118bf565b505b6040840151805115610d2e5760405163c16e50ef60e01b81526001600160a01b0388169063c16e50ef90610c699084906004016120c8565b60206040518083038186803b158015610c8157600080fd5b505afa158015610c95573d6000803e3d6000fd5b505050506040513d601f19601f82011682018060405250810190610cb99190611b7d565b610d055760405162461bcd60e51b815260206004820152601660248201527f72656769737465723a20496e76616c69642066696c6c00000000000000000000604482015260640161075a565b6000888152600a6020908152604080832089845282529091208251610d2c928401906118bf565b505b50505050508080610d3e906122a3565b915050610a9d565b5060408051338152602081018490527fb6b49fb493aab716d37ffe3ad9f192adb9d7c116b0ca7423db8d0e56a1dc93b29101610917565b600080600183604051610d909190612015565b90815260200160405180910390205490506000811183604051602001610db69190612031565b60405160208183030381529060405290610de35760405162461bcd60e51b815260040161075a91906120c8565b50610def600182612210565b9392505050565b604080516060808201835280825260208201526000918101919091526000828152600260205260408082205481517f8c40188e00000000000000000000000000000000000000000000000000000000815291516001600160a01b03909116928392638c40188e9260048083019392829003018186803b158015610e7857600080fd5b505afa158015610e8c573d6000803e3d6000fd5b505050506040513d6000823e601f3d908101601f19168201604052610def9190810190611c5d565b6003546001600160a01b03163314610f0e5760405162461bcd60e51b815260206004820181905260248201527f4f776e61626c653a2063616c6c6572206973206e6f7420746865206f776e6572604482015260640161075a565b6004805473ffffffffffffffffffffffffffffffffffffffff19166001600160a01b0392909216919091179055565b6003546001600160a01b03163314610f975760405162461bcd60e51b815260206004820181905260248201527f4f776e61626c653a2063616c6c6572206973206e6f7420746865206f776e6572604482015260640161075a565b610fa16000611726565b565b6000610fb76003546001600160a01b031690565b905090565b60008281526007602052604090205480821015610fea57610fde600182612210565b905080610fea57505050565b6000610ff682346121fc565b9050806110035750505050565b60005b82811015611124578381141561101b57611112565b600085815260086020908152604080832084845282528083208151808301909252546fffffffffffffffffffffffffffffffff808216808452600160801b9092041692820192909252919061106f90610df6565b604080820151602085015191517f8d07c0820000000000000000000000000000000000000000000000000000000081526fffffffffffffffffffffffffffffffff90921660048301526402540be40060248301529192506001600160a01b0390911690638d07c0829086906044016000604051808303818588803b1580156110f657600080fd5b505af115801561110a573d6000803e3d6000fd5b505050505050505b8061111c816122a3565b915050611006565b5050505050565b6000818152600560205260409020546060908190839060ff161515600114156111bc5760405162461bcd60e51b815260206004820152602a60248201527f4173736574436f6d706f7365723a207468697320636f6d706f736974696f6e2060448201527f697320646961626c656400000000000000000000000000000000000000000000606482015260840161075a565b600084815260076020526040812054906060908190819081908567ffffffffffffffff8111156111ee576111ee612314565b604051908082528060200260200182016040528015611217578160200160208202803683370190505b50905060005b868110156115e45760008b815260086020908152604080832084845282528083208151808301909252546fffffffffffffffffffffffffffffffff808216808452600160801b9092041692820192909252919061127990610df6565b905080604001516001600160a01b031663e3f24f0283602001516fffffffffffffffffffffffffffffffff166040518263ffffffff1660e01b81526004016112c391815260200190565b60006040518083038186803b1580156112db57600080fd5b505afa1580156112ef573d6000803e3d6000fd5b505050506040513d6000823e601f3d908101601f191682016040526113179190810190611bf9565b6040519197509550600090611330908790602001612015565b60408051601f1981840301815291905280516020909101209050600160005b85811015611393578287828151811061136a5761136a6122fe565b602002602001015114156113815760009150611393565b8061138b816122a3565b91505061134f565b5080156113de5789886040516020016113ad929190611db2565b6040516020818303038152906040529950818686815181106113d1576113d16122fe565b6020026020010181815250505b505086856040516020016113f3929190611de1565b60408051601f1981840301815291815260008f81526009602090815282822087835290529081208054929950909161142a9061226e565b80601f01602080910402602001604051908101604052809291908181526020018280546114569061226e565b80156114a35780601f10611478576101008083540402835291602001916114a3565b820191906000526020600020905b81548152906001019060200180831161148657829003601f168201915b505050505090506000815111156114d95787816040516020016114c7929190611faf565b60405160208183030381529060405297505b60008e8152600a60209081526040808320878452909152902080546114fd9061226e565b80601f01602080910402602001604051908101604052809291908181526020018280546115299061226e565b80156115765780601f1061154b57610100808354040283529160200191611576565b820191906000526020600020905b81548152906001019060200180831161155957829003601f168201915b505050505090506000815111156115ac57878160405160200161159a929190611e88565b60405160208183030381529060405297505b876040516020016115bd9190611e47565b604051602081830303815290604052975050505080806115dc906122a3565b91505061121d565b506115ee8a611785565b6040516020016115fe919061209c565b604051602081830303815290604052915084828560405160200161162493929190611eee565b60408051601f198184030181529190529850909650505050505050915091565b6003546001600160a01b0316331461169e5760405162461bcd60e51b815260206004820181905260248201527f4f776e61626c653a2063616c6c6572206973206e6f7420746865206f776e6572604482015260640161075a565b6001600160a01b03811661171a5760405162461bcd60e51b815260206004820152602660248201527f4f776e61626c653a206e6577206f776e657220697320746865207a65726f206160448201527f6464726573730000000000000000000000000000000000000000000000000000606482015260840161075a565b61172381611726565b50565b600380546001600160a01b0383811673ffffffffffffffffffffffffffffffffffffffff19831681179093556040519116919082907f8be0079c531659141344cd1fd0a4f28419497f9722a3daafe3b4186f6b6457e090600090a35050565b6060816117c557505060408051808201909152600181527f3000000000000000000000000000000000000000000000000000000000000000602082015290565b8160005b81156117ef57806117d9816122a3565b91506117e89050600a836121fc565b91506117c9565b60008167ffffffffffffffff81111561180a5761180a612314565b6040519080825280601f01601f191660200182016040528015611834576020820181803683370190505b5090505b84156118b757611849600183612210565b9150611856600a866122be565b6118619060306121e4565b60f81b818381518110611876576118766122fe565b60200101907effffffffffffffffffffffffffffffffffffffffffffffffffffffffffffff1916908160001a9053506118b0600a866121fc565b9450611838565b949350505050565b8280546118cb9061226e565b90600052602060002090601f0160209004810192826118ed5760008555611933565b82601f1061190657805160ff1916838001178555611933565b82800160010185558215611933579182015b82811115611933578251825591602001919060010190611918565b5061193f929150611943565b5090565b5b8082111561193f5760008155600101611944565b600082601f83011261196957600080fd5b813561197c611977826121bc565b61218b565b81815284602083860101111561199157600080fd5b816020850160208301376000918101602001919091529392505050565b600082601f8301126119bf57600080fd5b81516119cd611977826121bc565b8181528460208386010111156119e257600080fd5b6118b7826020830160208701612227565b600060208284031215611a0557600080fd5b8135610def8161232a565b600060208284031215611a2257600080fd5b8151610def8161232a565b60006020808385031215611a4057600080fd5b823567ffffffffffffffff80821115611a5857600080fd5b818501915085601f830112611a6c57600080fd5b813581811115611a7e57611a7e612314565b8060051b611a8d85820161218b565b8281528581019085870183870188018b1015611aa857600080fd5b600093505b84841015611b6f57803586811115611ac457600080fd5b87016080818d03601f1901811315611adb57600080fd5b611ae3612162565b8a8301358152604083013589811115611afb57600080fd5b611b098f8d83870101611958565b8c83015250606083013589811115611b2057600080fd5b611b2e8f8d83870101611958565b604083015250908201359088821115611b4657600080fd5b611b548e8c84860101611958565b60608201528552505060019390930192918701918701611aad565b509998505050505050505050565b600060208284031215611b8f57600080fd5b8151610def8161233f565b600060208284031215611bac57600080fd5b81356001600160e01b031981168114610def57600080fd5b600060208284031215611bd657600080fd5b813567ffffffffffffffff811115611bed57600080fd5b6118b784828501611958565b60008060408385031215611c0c57600080fd5b825167ffffffffffffffff80821115611c2457600080fd5b611c30868387016119ae565b93506020850151915080821115611c4657600080fd5b50611c53858286016119ae565b9150509250929050565b600060208284031215611c6f57600080fd5b815167ffffffffffffffff80821115611c8757600080fd5b9083019060608286031215611c9b57600080fd5b604051606081018181108382111715611cb657611cb6612314565b604052825182811115611cc857600080fd5b611cd4878286016119ae565b825250602083015182811115611ce957600080fd5b611cf5878286016119ae565b60208301525060408301519250611d0b8361232a565b6040810192909252509392505050565b600060208284031215611d2d57600080fd5b5035919050565b60008060408385031215611d4757600080fd5b823591506020830135611d598161233f565b809150509250929050565b60008060408385031215611d7757600080fd5b50508035926020909101359150565b60008151808452611d9e816020860160208601612227565b601f01601f19169290920160200192915050565b60008351611dc4818460208801612227565b835190830190611dd8818360208801612227565b01949350505050565b60008351611df3818460208801612227565b7f203c75736520687265663d2223000000000000000000000000000000000000009083019081528351611e2d81600d840160208801612227565b601160f91b600d9290910191820152600e01949350505050565b60008251611e59818460208701612227565b7f202f3e0a00000000000000000000000000000000000000000000000000000000920191825250600401919050565b60008351611e9a818460208801612227565b7f2066696c6c3d22000000000000000000000000000000000000000000000000009083019081528351611ed4816007840160208801612227565b601160f91b60079290910191820152600801949350505050565b60008451611f00818460208901612227565b7f3c672069643d22000000000000000000000000000000000000000000000000009083019081528451611f3a816007840160208901612227565b7f22203e0a00000000000000000000000000000000000000000000000000000000600792909101918201528351611f7881600b840160208801612227565b7f3c2f673e0a000000000000000000000000000000000000000000000000000000600b929091019182015260100195945050505050565b60008351611fc1818460208801612227565b7f207472616e73666f726d3d2200000000000000000000000000000000000000009083019081528351611ffb81600c840160208801612227565b601160f91b600c9290910191820152600d01949350505050565b60008251612027818460208701612227565b9190910192915050565b7f417373657374436f6d706f7365723a67657450726f766964657249642c20746881527f652070726f766964657220646f6573206e6f742065786973743a00000000000060208201526000825161208f81603a850160208701612227565b91909101603a0192915050565b630636f6d760e41b8152600082516120bb816004850160208701612227565b9190910160040192915050565b602081526000610def6020830184611d86565b6040815260006120ee6040830185611d86565b82810360208401526121008185611d86565b95945050505050565b6020815260008251606060208401526121256080840182611d86565b90506020840151601f198483030160408501526121428282611d86565b9150506001600160a01b0360408501511660608401528091505092915050565b6040516080810167ffffffffffffffff8111828210171561218557612185612314565b60405290565b604051601f8201601f1916810167ffffffffffffffff811182821017156121b4576121b4612314565b604052919050565b600067ffffffffffffffff8211156121d6576121d6612314565b50601f01601f191660200190565b600082198211156121f7576121f76122d2565b500190565b60008261220b5761220b6122e8565b500490565b600082821015612222576122226122d2565b500390565b60005b8381101561224257818101518382015260200161222a565b83811115612251576000848401525b50505050565b600081612266576122666122d2565b506000190190565b600181811c9082168061228257607f821691505b6020821081141561092057634e487b7160e01b600052602260045260246000fd5b60006000198214156122b7576122b76122d2565b5060010190565b6000826122cd576122cd6122e8565b500690565b634e487b7160e01b600052601160045260246000fd5b634e487b7160e01b600052601260045260246000fd5b634e487b7160e01b600052603260045260246000fd5b634e487b7160e01b600052604160045260246000fd5b6001600160a01b038116811461172357600080fd5b801515811461172357600080fdfea2646970667358221220766626ac75c1ad7b3684cf1fde1ff92b40c2c2c126b27161ecfd848cab679dc864736f6c63430008060033",
  "linkReferences": {},
  "deployedLinkReferences": {}
}