{
  "_format": "hh-sol-artifact-1",
  "contractName": "AssetStoreProvider",
  "sourceName": "contracts/AssetStoreProvider.sol",
  "abi": [
    {
      "inputs": [
        {
          "internalType": "contract IAssetStoreEx",
          "name": "_assetStore",
          "type": "address"
        }
      ],
      "stateMutability": "nonpayable",
      "type": "constructor"
    },
    {
      "anonymous": false,
      "inputs": [
        {
          "indexed": true,
          "internalType": "address",
          "name": "previousOwner",
          "type": "address"
        },
        {
          "indexed": true,
          "internalType": "address",
          "name": "newOwner",
          "type": "address"
        }
      ],
      "name": "OwnershipTransferred",
      "type": "event"
    },
    {
      "inputs": [],
      "name": "assetStore",
      "outputs": [
        {
          "internalType": "contract IAssetStoreEx",
          "name": "",
          "type": "address"
        }
      ],
      "stateMutability": "view",
      "type": "function"
    },
    {
      "inputs": [
        {
          "internalType": "uint256",
          "name": "_assetId",
          "type": "uint256"
        }
      ],
      "name": "generateSVGPart",
      "outputs": [
        {
          "internalType": "string",
          "name": "svgPart",
          "type": "string"
        },
        {
          "internalType": "string",
          "name": "tag",
          "type": "string"
        }
      ],
      "stateMutability": "view",
      "type": "function"
    },
    {
      "inputs": [
        {
          "internalType": "string",
          "name": "_group",
          "type": "string"
        },
        {
          "internalType": "string",
          "name": "_category",
          "type": "string"
        }
      ],
      "name": "getAssetCountInCategory",
      "outputs": [
        {
          "internalType": "uint32",
          "name": "",
          "type": "uint32"
        }
      ],
      "stateMutability": "view",
      "type": "function"
    },
    {
      "inputs": [
        {
          "internalType": "string",
          "name": "_group",
          "type": "string"
        },
        {
          "internalType": "string",
          "name": "_category",
          "type": "string"
        },
        {
          "internalType": "uint32",
          "name": "_assetIndex",
          "type": "uint32"
        }
      ],
      "name": "getAssetIdInCategory",
      "outputs": [
        {
          "internalType": "uint256",
          "name": "",
          "type": "uint256"
        }
      ],
      "stateMutability": "view",
      "type": "function"
    },
    {
      "inputs": [
        {
          "internalType": "string",
          "name": "_group",
          "type": "string"
        }
      ],
      "name": "getCategoryCount",
      "outputs": [
        {
          "internalType": "uint32",
          "name": "",
          "type": "uint32"
        }
      ],
      "stateMutability": "view",
      "type": "function"
    },
    {
      "inputs": [
        {
          "internalType": "string",
          "name": "_group",
          "type": "string"
        },
        {
          "internalType": "uint32",
          "name": "_categoryIndex",
          "type": "uint32"
        }
      ],
      "name": "getCategoryNameAtIndex",
      "outputs": [
        {
          "internalType": "string",
          "name": "",
          "type": "string"
        }
      ],
      "stateMutability": "view",
      "type": "function"
    },
    {
      "inputs": [],
      "name": "getGroupCount",
      "outputs": [
        {
          "internalType": "uint32",
          "name": "",
          "type": "uint32"
        }
      ],
      "stateMutability": "view",
      "type": "function"
    },
    {
      "inputs": [
        {
          "internalType": "uint32",
          "name": "_groupIndex",
          "type": "uint32"
        }
      ],
      "name": "getGroupNameAtIndex",
      "outputs": [
        {
          "internalType": "string",
          "name": "",
          "type": "string"
        }
      ],
      "stateMutability": "view",
      "type": "function"
    },
    {
      "inputs": [],
      "name": "getInterfaceId",
      "outputs": [
        {
          "internalType": "bytes4",
          "name": "",
          "type": "bytes4"
        }
      ],
      "stateMutability": "view",
      "type": "function"
    },
    {
      "inputs": [],
      "name": "getOwner",
      "outputs": [
        {
          "internalType": "address",
          "name": "",
          "type": "address"
        }
      ],
      "stateMutability": "view",
      "type": "function"
    },
    {
      "inputs": [],
      "name": "getProviderInfo",
      "outputs": [
        {
          "components": [
            {
              "internalType": "string",
              "name": "key",
              "type": "string"
            },
            {
              "internalType": "string",
              "name": "name",
              "type": "string"
            },
            {
              "internalType": "contract IAssetProvider",
              "name": "provider",
              "type": "address"
            }
          ],
          "internalType": "struct IAssetProvider.ProviderInfo",
          "name": "",
          "type": "tuple"
        }
      ],
      "stateMutability": "view",
      "type": "function"
    },
    {
      "inputs": [],
      "name": "owner",
      "outputs": [
        {
          "internalType": "address",
          "name": "",
          "type": "address"
        }
      ],
      "stateMutability": "view",
      "type": "function"
    },
    {
      "inputs": [],
      "name": "renounceOwnership",
      "outputs": [],
      "stateMutability": "nonpayable",
      "type": "function"
    },
    {
      "inputs": [
        {
          "internalType": "bytes4",
          "name": "interfaceId",
          "type": "bytes4"
        }
      ],
      "name": "supportsInterface",
      "outputs": [
        {
          "internalType": "bool",
          "name": "",
          "type": "bool"
        }
      ],
      "stateMutability": "view",
      "type": "function"
    },
    {
      "inputs": [],
      "name": "totalSupply",
      "outputs": [
        {
          "internalType": "uint256",
          "name": "",
          "type": "uint256"
        }
      ],
      "stateMutability": "view",
      "type": "function"
    },
    {
      "inputs": [
        {
          "internalType": "address",
          "name": "newOwner",
          "type": "address"
        }
      ],
      "name": "transferOwnership",
      "outputs": [],
      "stateMutability": "nonpayable",
      "type": "function"
    }
  ],
  "bytecode": "0x60a060405234801561001057600080fd5b506040516113d03803806113d083398101604081905261002f9161009d565b6100383361004d565b60601b6001600160601b0319166080526100cd565b600080546001600160a01b038381166001600160a01b0319831681178455604051919092169283917f8be0079c531659141344cd1fd0a4f28419497f9722a3daafe3b4186f6b6457e09190a35050565b6000602082840312156100af57600080fd5b81516001600160a01b03811681146100c657600080fd5b9392505050565b60805160601c6112a661012a6000396000818161018b015281816103a20152818161043a015281816104cf015281816105b2015281816106770152818161079b01528181610859015281816108ed01526109a201526112a66000f3fe608060405234801561001057600080fd5b50600436106101005760003560e01c8063715018a6116100975780638da5cb5b116100665780638da5cb5b14610217578063d4f056d4146102d3578063e3f24f02146102e6578063f2fde38b1461030757600080fd5b8063715018a6146101fa5780637805544c14610204578063893d20e8146102175780638c40188e1461022857600080fd5b8063515f28cb116100d3578063515f28cb14610173578063597a0e36146101865780635c73924c146101c55780636b9241fc146101e557600080fd5b806301ffc9a71461010557806306545a931461012d57806318160ddd1461014a578063468823e214610160575b600080fd5b610118610113366004610c70565b61031a565b60405190151581526020015b60405180910390f35b61013561039e565b60405163ffffffff9091168152602001610124565b610152610436565b604051908152602001610124565b61015261016e366004610d68565b6104c9565b610135610181366004610d04565b61057f565b6101ad7f000000000000000000000000000000000000000000000000000000000000000081565b6040516001600160a01b039091168152602001610124565b6101d86101d3366004610fbe565b610640565b6040516101249190611024565b604051637082e0b760e11b8152602001610124565b6102026106fd565b005b6101d8610212366004610de0565b610768565b6000546001600160a01b03166101ad565b6102c660408051606080820183528082526020820152600091810191909152506040805160a0810182526005606082019081527f61737365740000000000000000000000000000000000000000000000000000006080830152815281518083018352600b81527f41737365742053746f7265000000000000000000000000000000000000000000602082810191909152820152309181019190915290565b60405161012491906110c9565b6101356102e1366004610c9a565b610826565b6102f96102f4366004610f8c565b6108de565b604051610124929190611037565b610202610315366004610c53565b610a4c565b60006001600160e01b031982167ffe997ab900000000000000000000000000000000000000000000000000000000148061036457506001600160e01b03198216637082e0b760e11b145b8061039857506001600160e01b031982167f01ffc9a700000000000000000000000000000000000000000000000000000000145b92915050565b60007f00000000000000000000000000000000000000000000000000000000000000006001600160a01b03166306545a936040518163ffffffff1660e01b815260040160206040518083038186803b1580156103f957600080fd5b505afa15801561040d573d6000803e3d6000fd5b505050506040513d601f19601f820116820180604052508101906104319190610fdb565b905090565b60007f00000000000000000000000000000000000000000000000000000000000000006001600160a01b031663a0aead4d6040518163ffffffff1660e01b815260040160206040518083038186803b15801561049157600080fd5b505afa1580156104a5573d6000803e3d6000fd5b505050506040513d601f19601f820116820180604052508101906104319190610fa5565b600060017f00000000000000000000000000000000000000000000000000000000000000006001600160a01b031663468823e28686866040518463ffffffff1660e01b815260040161051d93929190611065565b60206040518083038186803b15801561053557600080fd5b505afa158015610549573d6000803e3d6000fd5b505050506040513d601f19601f8201168201806040525081019061056d9190610fa5565b61057791906111d6565b949350505050565b6040517f515f28cb0000000000000000000000000000000000000000000000000000000081526000906001600160a01b037f0000000000000000000000000000000000000000000000000000000000000000169063515f28cb906105e99086908690600401611037565b60206040518083038186803b15801561060157600080fd5b505afa158015610615573d6000803e3d6000fd5b505050506040513d601f19601f820116820180604052508101906106399190610fdb565b9392505050565b6040517f5c73924c00000000000000000000000000000000000000000000000000000000815263ffffffff821660048201526060907f00000000000000000000000000000000000000000000000000000000000000006001600160a01b031690635c73924c9060240160006040518083038186803b1580156106c157600080fd5b505afa1580156106d5573d6000803e3d6000fd5b505050506040513d6000823e601f3d908101601f191682016040526103989190810190610ccf565b6000546001600160a01b0316331461075c5760405162461bcd60e51b815260206004820181905260248201527f4f776e61626c653a2063616c6c6572206973206e6f7420746865206f776e657260448201526064015b60405180910390fd5b6107666000610b2e565b565b6040517f7805544c0000000000000000000000000000000000000000000000000000000081526060906001600160a01b037f00000000000000000000000000000000000000000000000000000000000000001690637805544c906107d290869086906004016110a1565b60006040518083038186803b1580156107ea57600080fd5b505afa1580156107fe573d6000803e3d6000fd5b505050506040513d6000823e601f3d908101601f191682016040526106399190810190610ccf565b6040517fd4f056d40000000000000000000000000000000000000000000000000000000081526000906001600160a01b037f0000000000000000000000000000000000000000000000000000000000000000169063d4f056d49061088e908590600401611024565b60206040518083038186803b1580156108a657600080fd5b505afa1580156108ba573d6000803e3d6000fd5b505050506040513d601f19601f820116820180604052508101906103989190610fdb565b60608060006001600160a01b037f000000000000000000000000000000000000000000000000000000000000000016634378a6e361091d8660016111be565b6040518263ffffffff1660e01b815260040161093b91815260200190565b60006040518083038186803b15801561095357600080fd5b505afa158015610967573d6000803e3d6000fd5b505050506040513d6000823e601f3d908101601f1916820160405261098f9190810190610e32565b6060810151925090506001600160a01b037f0000000000000000000000000000000000000000000000000000000000000000166334320bf16109d28660016111be565b846040518363ffffffff1660e01b81526004016109f0929190611122565b60006040518083038186803b158015610a0857600080fd5b505afa158015610a1c573d6000803e3d6000fd5b505050506040513d6000823e601f3d908101601f19168201604052610a449190810190610ccf565b925050915091565b6000546001600160a01b03163314610aa65760405162461bcd60e51b815260206004820181905260248201527f4f776e61626c653a2063616c6c6572206973206e6f7420746865206f776e65726044820152606401610753565b6001600160a01b038116610b225760405162461bcd60e51b815260206004820152602660248201527f4f776e61626c653a206e6577206f776e657220697320746865207a65726f206160448201527f64647265737300000000000000000000000000000000000000000000000000006064820152608401610753565b610b2b81610b2e565b50565b600080546001600160a01b038381167fffffffffffffffffffffffff0000000000000000000000000000000000000000831681178455604051919092169283917f8be0079c531659141344cd1fd0a4f28419497f9722a3daafe3b4186f6b6457e09190a35050565b8051610ba181611249565b919050565b600082601f830112610bb757600080fd5b8151610bca610bc582611196565b611165565b818152846020838601011115610bdf57600080fd5b6105778260208301602087016111ed565b600082601f830112610c0157600080fd5b8135610c0f610bc582611196565b818152846020838601011115610c2457600080fd5b816020850160208301376000918101602001919091529392505050565b805161ffff81168114610ba157600080fd5b600060208284031215610c6557600080fd5b813561063981611249565b600060208284031215610c8257600080fd5b81356001600160e01b03198116811461063957600080fd5b600060208284031215610cac57600080fd5b813567ffffffffffffffff811115610cc357600080fd5b61057784828501610bf0565b600060208284031215610ce157600080fd5b815167ffffffffffffffff811115610cf857600080fd5b61057784828501610ba6565b60008060408385031215610d1757600080fd5b823567ffffffffffffffff80821115610d2f57600080fd5b610d3b86838701610bf0565b93506020850135915080821115610d5157600080fd5b50610d5e85828601610bf0565b9150509250929050565b600080600060608486031215610d7d57600080fd5b833567ffffffffffffffff80821115610d9557600080fd5b610da187838801610bf0565b94506020860135915080821115610db757600080fd5b50610dc486828701610bf0565b9250506040840135610dd58161125e565b809150509250925092565b60008060408385031215610df357600080fd5b823567ffffffffffffffff811115610e0a57600080fd5b610e1685828601610bf0565b9250506020830135610e278161125e565b809150509250929050565b600060208284031215610e4457600080fd5b815167ffffffffffffffff80821115610e5c57600080fd5b908301906101208286031215610e7157600080fd5b610e7961113b565b825182811115610e8857600080fd5b610e9487828601610ba6565b825250602083015182811115610ea957600080fd5b610eb587828601610ba6565b602083015250604083015182811115610ecd57600080fd5b610ed987828601610ba6565b604083015250606083015182811115610ef157600080fd5b610efd87828601610ba6565b606083015250608083015182811115610f1557600080fd5b610f2187828601610ba6565b608083015250610f3360a08401610b96565b60a082015260c083015182811115610f4a57600080fd5b610f5687828601610ba6565b60c083015250610f6860e08401610c41565b60e08201526101009150610f7d828401610c41565b91810191909152949350505050565b600060208284031215610f9e57600080fd5b5035919050565b600060208284031215610fb757600080fd5b5051919050565b600060208284031215610fd057600080fd5b81356106398161125e565b600060208284031215610fed57600080fd5b81516106398161125e565b600081518084526110108160208601602086016111ed565b601f01601f19169290920160200192915050565b6020815260006106396020830184610ff8565b60408152600061104a6040830185610ff8565b828103602084015261105c8185610ff8565b95945050505050565b6060815260006110786060830186610ff8565b828103602084015261108a8186610ff8565b91505063ffffffff83166040830152949350505050565b6040815260006110b46040830185610ff8565b905063ffffffff831660208301529392505050565b6020815260008251606060208401526110e56080840182610ff8565b90506020840151601f198483030160408501526111028282610ff8565b9150506001600160a01b0360408501511660608401528091505092915050565b8281526040602082015260006105776040830184610ff8565b604051610120810167ffffffffffffffff8111828210171561115f5761115f611233565b60405290565b604051601f8201601f1916810167ffffffffffffffff8111828210171561118e5761118e611233565b604052919050565b600067ffffffffffffffff8211156111b0576111b0611233565b50601f01601f191660200190565b600082198211156111d1576111d161121d565b500190565b6000828210156111e8576111e861121d565b500390565b60005b838110156112085781810151838201526020016111f0565b83811115611217576000848401525b50505050565b634e487b7160e01b600052601160045260246000fd5b634e487b7160e01b600052604160045260246000fd5b6001600160a01b0381168114610b2b57600080fd5b63ffffffff81168114610b2b57600080fdfea2646970667358221220998863f40e4fb9c704c684f011101a301fe89445df64db211509b228acbe392964736f6c63430008060033",
  "linkReferences": {},
  "deployedLinkReferences": {}
}