{
  "_format": "hh-sol-artifact-1",
  "contractName": "AssetStore",
  "sourceName": "contracts/AssetStore.sol",
  "abi": [
    {
      "anonymous": false,
      "inputs": [
        {
          "indexed": false,
          "internalType": "address",
          "name": "from",
          "type": "address"
        },
        {
          "indexed": false,
          "internalType": "uint256",
          "name": "assetId",
          "type": "uint256"
        }
      ],
      "name": "AssetRegistered",
      "type": "event"
    },
    {
      "anonymous": false,
      "inputs": [
        {
          "indexed": false,
          "internalType": "string",
          "name": "group",
          "type": "string"
        },
        {
          "indexed": false,
          "internalType": "string",
          "name": "category",
          "type": "string"
        }
      ],
      "name": "CategoryAdded",
      "type": "event"
    },
    {
      "anonymous": false,
      "inputs": [
        {
          "indexed": false,
          "internalType": "string",
          "name": "group",
          "type": "string"
        }
      ],
      "name": "GroupAdded",
      "type": "event"
    },
    {
      "anonymous": false,
      "inputs": [
        {
          "indexed": true,
          "internalType": "address",
          "name": "previousOwner",
          "type": "address"
        },
        {
          "indexed": true,
          "internalType": "address",
          "name": "newOwner",
          "type": "address"
        }
      ],
      "name": "OwnershipTransferred",
      "type": "event"
    },
    {
      "inputs": [],
      "name": "decoder",
      "outputs": [
        {
          "internalType": "contract IPathDecoder",
          "name": "",
          "type": "address"
        }
      ],
      "stateMutability": "view",
      "type": "function"
    },
    {
      "inputs": [
        {
          "internalType": "uint256",
          "name": "_assetId",
          "type": "uint256"
        }
      ],
      "name": "generateSVG",
      "outputs": [
        {
          "internalType": "string",
          "name": "",
          "type": "string"
        }
      ],
      "stateMutability": "view",
      "type": "function"
    },
    {
      "inputs": [
        {
          "internalType": "uint256",
          "name": "_assetId",
          "type": "uint256"
        }
      ],
      "name": "generateSVGPart",
      "outputs": [
        {
          "internalType": "string",
          "name": "",
          "type": "string"
        }
      ],
      "stateMutability": "view",
      "type": "function"
    },
    {
      "inputs": [],
      "name": "getAssetCount",
      "outputs": [
        {
          "internalType": "uint256",
          "name": "",
          "type": "uint256"
        }
      ],
      "stateMutability": "view",
      "type": "function"
    },
    {
      "inputs": [
        {
          "internalType": "string",
          "name": "_group",
          "type": "string"
        },
        {
          "internalType": "string",
          "name": "_category",
          "type": "string"
        }
      ],
      "name": "getAssetCountInCategory",
      "outputs": [
        {
          "internalType": "uint32",
          "name": "",
          "type": "uint32"
        }
      ],
      "stateMutability": "view",
      "type": "function"
    },
    {
      "inputs": [
        {
          "internalType": "string",
          "name": "_group",
          "type": "string"
        },
        {
          "internalType": "string",
          "name": "_category",
          "type": "string"
        },
        {
          "internalType": "uint32",
          "name": "_assetIndex",
          "type": "uint32"
        }
      ],
      "name": "getAssetIdInCategory",
      "outputs": [
        {
          "internalType": "uint256",
          "name": "",
          "type": "uint256"
        }
      ],
      "stateMutability": "view",
      "type": "function"
    },
    {
      "inputs": [
        {
          "internalType": "string",
          "name": "_group",
          "type": "string"
        },
        {
          "internalType": "string",
          "name": "_category",
          "type": "string"
        },
        {
          "internalType": "string",
          "name": "_name",
          "type": "string"
        }
      ],
      "name": "getAssetIdWithName",
      "outputs": [
        {
          "internalType": "uint256",
          "name": "",
          "type": "uint256"
        }
      ],
      "stateMutability": "view",
      "type": "function"
    },
    {
      "inputs": [
        {
          "internalType": "uint256",
          "name": "_assetId",
          "type": "uint256"
        }
      ],
      "name": "getAttributes",
      "outputs": [
        {
          "components": [
            {
              "internalType": "string",
              "name": "group",
              "type": "string"
            },
            {
              "internalType": "string",
              "name": "category",
              "type": "string"
            },
            {
              "internalType": "string",
              "name": "name",
              "type": "string"
            },
            {
              "internalType": "string",
              "name": "tag",
              "type": "string"
            },
            {
              "internalType": "string",
              "name": "minter",
              "type": "string"
            },
            {
              "internalType": "address",
              "name": "soulbound",
              "type": "address"
            },
            {
              "internalType": "uint16",
              "name": "width",
              "type": "uint16"
            },
            {
              "internalType": "uint16",
              "name": "height",
              "type": "uint16"
            }
          ],
          "internalType": "struct IAssetStore.AssetAttributes",
          "name": "",
          "type": "tuple"
        }
      ],
      "stateMutability": "view",
      "type": "function"
    },
    {
      "inputs": [
        {
          "internalType": "string",
          "name": "_group",
          "type": "string"
        }
      ],
      "name": "getCategoryCount",
      "outputs": [
        {
          "internalType": "uint32",
          "name": "",
          "type": "uint32"
        }
      ],
      "stateMutability": "view",
      "type": "function"
    },
    {
      "inputs": [
        {
          "internalType": "string",
          "name": "_group",
          "type": "string"
        },
        {
          "internalType": "uint32",
          "name": "_categoryIndex",
          "type": "uint32"
        }
      ],
      "name": "getCategoryNameAtIndex",
      "outputs": [
        {
          "internalType": "string",
          "name": "",
          "type": "string"
        }
      ],
      "stateMutability": "view",
      "type": "function"
    },
    {
      "inputs": [],
      "name": "getGroupCount",
      "outputs": [
        {
          "internalType": "uint32",
          "name": "",
          "type": "uint32"
        }
      ],
      "stateMutability": "view",
      "type": "function"
    },
    {
      "inputs": [
        {
          "internalType": "uint32",
          "name": "_groupIndex",
          "type": "uint32"
        }
      ],
      "name": "getGroupNameAtIndex",
      "outputs": [
        {
          "internalType": "string",
          "name": "",
          "type": "string"
        }
      ],
      "stateMutability": "view",
      "type": "function"
    },
    {
      "inputs": [
        {
          "internalType": "uint256",
          "name": "_assetId",
          "type": "uint256"
        }
      ],
      "name": "getRawAsset",
      "outputs": [
        {
          "components": [
            {
              "internalType": "uint32",
              "name": "groupId",
              "type": "uint32"
            },
            {
              "internalType": "uint32",
              "name": "categoryId",
              "type": "uint32"
            },
            {
              "internalType": "string",
              "name": "name",
              "type": "string"
            },
            {
              "internalType": "string",
              "name": "minter",
              "type": "string"
            },
            {
              "internalType": "address",
              "name": "soulbound",
              "type": "address"
            },
            {
              "internalType": "uint256[]",
              "name": "partsIds",
              "type": "uint256[]"
            }
          ],
          "internalType": "struct AssetStoreCore.Asset",
          "name": "",
          "type": "tuple"
        }
      ],
      "stateMutability": "view",
      "type": "function"
    },
    {
      "inputs": [
        {
          "internalType": "uint256",
          "name": "_partId",
          "type": "uint256"
        }
      ],
      "name": "getRawPart",
      "outputs": [
        {
          "components": [
            {
              "internalType": "bytes",
              "name": "body",
              "type": "bytes"
            },
            {
              "internalType": "string",
              "name": "color",
              "type": "string"
            }
          ],
          "internalType": "struct IAssetStoreRegistry.Part",
          "name": "",
          "type": "tuple"
        }
      ],
      "stateMutability": "view",
      "type": "function"
    },
    {
      "inputs": [],
      "name": "owner",
      "outputs": [
        {
          "internalType": "address",
          "name": "",
          "type": "address"
        }
      ],
      "stateMutability": "view",
      "type": "function"
    },
    {
      "inputs": [
        {
          "components": [
            {
              "internalType": "string",
              "name": "group",
              "type": "string"
            },
            {
              "internalType": "string",
              "name": "category",
              "type": "string"
            },
            {
              "internalType": "string",
              "name": "name",
              "type": "string"
            },
            {
              "internalType": "string",
              "name": "minter",
              "type": "string"
            },
            {
              "internalType": "address",
              "name": "soulbound",
              "type": "address"
            },
            {
              "components": [
                {
                  "internalType": "bytes",
                  "name": "body",
                  "type": "bytes"
                },
                {
                  "internalType": "string",
                  "name": "color",
                  "type": "string"
                }
              ],
              "internalType": "struct IAssetStoreRegistry.Part[]",
              "name": "parts",
              "type": "tuple[]"
            }
          ],
          "internalType": "struct IAssetStoreRegistry.AssetInfo",
          "name": "_assetInfo",
          "type": "tuple"
        }
      ],
      "name": "registerAsset",
      "outputs": [
        {
          "internalType": "uint256",
          "name": "",
          "type": "uint256"
        }
      ],
      "stateMutability": "nonpayable",
      "type": "function"
    },
    {
      "inputs": [
        {
          "components": [
            {
              "internalType": "string",
              "name": "group",
              "type": "string"
            },
            {
              "internalType": "string",
              "name": "category",
              "type": "string"
            },
            {
              "internalType": "string",
              "name": "name",
              "type": "string"
            },
            {
              "internalType": "string",
              "name": "minter",
              "type": "string"
            },
            {
              "internalType": "address",
              "name": "soulbound",
              "type": "address"
            },
            {
              "components": [
                {
                  "internalType": "bytes",
                  "name": "body",
                  "type": "bytes"
                },
                {
                  "internalType": "string",
                  "name": "color",
                  "type": "string"
                }
              ],
              "internalType": "struct IAssetStoreRegistry.Part[]",
              "name": "parts",
              "type": "tuple[]"
            }
          ],
          "internalType": "struct IAssetStoreRegistry.AssetInfo[]",
          "name": "_assetInfos",
          "type": "tuple[]"
        }
      ],
      "name": "registerAssets",
      "outputs": [],
      "stateMutability": "nonpayable",
      "type": "function"
    },
    {
      "inputs": [],
      "name": "renounceOwnership",
      "outputs": [],
      "stateMutability": "nonpayable",
      "type": "function"
    },
    {
      "inputs": [
        {
          "internalType": "bool",
          "name": "_disable",
          "type": "bool"
        }
      ],
      "name": "setDisableWhitelist",
      "outputs": [],
      "stateMutability": "nonpayable",
      "type": "function"
    },
    {
      "inputs": [
        {
          "internalType": "uint256",
          "name": "_assetId",
          "type": "uint256"
        },
        {
          "internalType": "bool",
          "name": "_status",
          "type": "bool"
        }
      ],
      "name": "setDisabled",
      "outputs": [],
      "stateMutability": "nonpayable",
      "type": "function"
    },
    {
      "inputs": [
        {
          "internalType": "contract IPathDecoder",
          "name": "_decoder",
          "type": "address"
        }
      ],
      "name": "setPathDecoder",
      "outputs": [],
      "stateMutability": "nonpayable",
      "type": "function"
    },
    {
      "inputs": [
        {
          "internalType": "contract IStringValidator",
          "name": "_validator",
          "type": "address"
        }
      ],
      "name": "setValidator",
      "outputs": [],
      "stateMutability": "nonpayable",
      "type": "function"
    },
    {
      "inputs": [
        {
          "internalType": "address",
          "name": "_address",
          "type": "address"
        },
        {
          "internalType": "bool",
          "name": "_status",
          "type": "bool"
        }
      ],
      "name": "setWhitelistStatus",
      "outputs": [],
      "stateMutability": "nonpayable",
      "type": "function"
    },
    {
      "inputs": [
        {
          "internalType": "address",
          "name": "newOwner",
          "type": "address"
        }
      ],
      "name": "transferOwnership",
      "outputs": [],
      "stateMutability": "nonpayable",
      "type": "function"
    },
    {
      "inputs": [],
      "name": "validator",
      "outputs": [
        {
          "internalType": "contract IStringValidator",
          "name": "",
          "type": "address"
        }
      ],
      "stateMutability": "view",
      "type": "function"
    }
  ],
  "bytecode": "0x608060405260016004819055600655600d805460ff191690553480156200002557600080fd5b506200003133620000e9565b6040516200003f9062000139565b604051809103906000f0801580156200005c573d6000803e3d6000fd5b50600180546001600160a01b0319166001600160a01b03929092169190911790556040516200008b9062000147565b604051809103906000f080158015620000a8573d6000803e3d6000fd5b50600280546001600160a01b0319166001600160a01b0392909216919091179055336000908152600c60205260409020805460ff1916600117905562000155565b600080546001600160a01b038381166001600160a01b0319831681178455604051919092169283917f8be0079c531659141344cd1fd0a4f28419497f9722a3daafe3b4186f6b6457e09190a35050565b6104a980620033b083390190565b61082e806200385983390190565b61324b80620001656000396000f3fe608060405234801561001057600080fd5b50600436106101a35760003560e01c8063715018a6116100ee578063b688a0e211610097578063e3f24f0211610071578063e3f24f021461037f578063eedf630914610392578063ef476642146103b2578063f2fde38b146103c557600080fd5b8063b688a0e214610339578063d4f056d414610359578063e0a0bb891461036c57600080fd5b80639cb33005116100c85780639cb330051461030b578063a0aead4d1461031e578063abca1e631461032657600080fd5b8063715018a6146102df5780637805544c146102e75780638da5cb5b146102fa57600080fd5b80634378a6e3116101505780635c73924c1161012a5780635c73924c146102995780636613845c146102b95780636dcee4ca146102cc57600080fd5b80634378a6e314610245578063468823e214610265578063515f28cb1461028657600080fd5b80631327d3d8116101815780631327d3d8146101f457806315ea29be146102075780633a5381b51461021a57600080fd5b806306545a93146101a85780630727ca4c146101cc5780630c424284146101e1575b600080fd5b60085463ffffffff165b60405163ffffffff90911681526020015b60405180910390f35b6101df6101da3660046126ee565b6103dd565b005b6101df6101ef3660046125fd565b61044f565b6101df6102023660046125e0565b6104d4565b6101df6102153660046129d0565b61055d565b60015461022d906001600160a01b031681565b6040516001600160a01b0390911681526020016101c3565b6102586102533660046129b7565b610642565b6040516101c39190612de4565b6102786102733660046128c0565b6107a5565b6040519081526020016101c3565b6101b26102943660046127d4565b61087d565b6102ac6102a73660046129f5565b6108e4565b6040516101c39190612dac565b6101df6102c73660046125e0565b6108f7565b6102ac6102da3660046129b7565b610980565b6101df610a28565b6102ac6102f5366004612934565b610a8e565b6000546001600160a01b031661022d565b60025461022d906001600160a01b031681565b610278610ad2565b610278610334366004612982565b610b3c565b61034c6103473660046129b7565b610bdf565b6040516101c39190612f78565b6101b261036736600461279f565b610c56565b6101df61037a366004612636565b610c90565b6102ac61038d3660046129b7565b610d67565b6103a56103a03660046129b7565b610de3565b6040516101c39190612ebf565b6102786103c0366004612838565b610e8f565b6101df6103d33660046125e0565b610f15565b905090565b6000546001600160a01b0316331461043c5760405162461bcd60e51b815260206004820181905260248201527f4f776e61626c653a2063616c6c6572206973206e6f7420746865206f776e657260448201526064015b60405180910390fd5b600d805460ff1916911515919091179055565b6000546001600160a01b031633146104a95760405162461bcd60e51b815260206004820181905260248201527f4f776e61626c653a2063616c6c6572206973206e6f7420746865206f776e65726044820152606401610433565b6001600160a01b03919091166000908152600c60205260409020805460ff1916911515919091179055565b6000546001600160a01b0316331461052e5760405162461bcd60e51b815260206004820181905260248201527f4f776e61626c653a2063616c6c6572206973206e6f7420746865206f776e65726044820152606401610433565b6001805473ffffffffffffffffffffffffffffffffffffffff19166001600160a01b0392909216919091179055565b8160008111801561056f575060045481105b6105c75760405162461bcd60e51b815260206004820152602360248201527f417373657453746f72653a2061737365744964206973206f7574206f662072616044820152626e676560e81b6064820152608401610433565b6000546001600160a01b031633146106215760405162461bcd60e51b815260206004820181905260248201527f4f776e61626c653a2063616c6c6572206973206e6f7420746865206f776e65726044820152606401610433565b506000918252600e6020526040909120805460ff1916911515919091179055565b61069b604051806101000160405280606081526020016060815260200160608152602001606081526020016060815260200160006001600160a01b03168152602001600061ffff168152602001600061ffff1681525090565b60006106a683610ff7565b9050610701604051806101000160405280606081526020016060815260200160608152602001606081526020016060815260200160006001600160a01b03168152602001600061ffff168152602001600061ffff1681525090565b6040808301519082015261071484611264565b6060808301919091526080808401516001600160a01b031660a0840152908301519082015281516107539061074b906001906130bd565b600790611295565b8152602082015161078a9061076a906001906130bd565b835163ffffffff9081166000908152600a60205260409020919061129516565b602082015261040060c0820181905260e08201529392505050565b6000806107b36007866113c1565b63ffffffff8082166000908152600a60209081526040808320600b909252822093945092909182906107e99085908a906113c116565b63ffffffff90811682526020820192909252604001600020600181015490925081169086161061085b5760405162461bcd60e51b815260206004820152601e60248201527f546865206173736574496e646578206973206f7574206f662072616e676500006044820152606401610433565b63ffffffff851660009081526020919091526040902054925050509392505050565b60008061088b6007856113c1565b63ffffffff8082166000908152600a60209081526040808320600b909252822093945092916108be90849088906113c116565b63ffffffff90811682526020820192909252604001600020600101541695945050505050565b60606108f1600783611295565b92915050565b6000546001600160a01b031633146109515760405162461bcd60e51b815260206004820181905260248201527f4f776e61626c653a2063616c6c6572206973206e6f7420746865206f776e65726044820152606401610433565b6002805473ffffffffffffffffffffffffffffffffffffffff19166001600160a01b0392909216919091179055565b6000818152600e6020526040902054606090829060ff161515600114156109f35760405162461bcd60e51b815260206004820152602160248201527f417373657453746f72653a207468697320617373657420697320646961626c656044820152601960fa1b6064820152608401610433565b60006109fe84611461565b604051602001610a0e9190612bf9565b60408051601f198184030181529190529250505b50919050565b6000546001600160a01b03163314610a825760405162461bcd60e51b815260206004820181905260248201527f4f776e61626c653a2063616c6c6572206973206e6f7420746865206f776e65726044820152606401610433565b610a8c6000611615565b565b6060610acb82600a6000610aa36007886113c1565b63ffffffff1663ffffffff16815260200190815260200160002061129590919063ffffffff16565b9392505050565b600080546001600160a01b03163314610b2d5760405162461bcd60e51b815260206004820181905260248201527f4f776e61626c653a2063616c6c6572206973206e6f7420746865206f776e65726044820152606401610433565b60016004546103d891906130a6565b600d5460009060ff1680610b5f5750336000908152600c602052604090205460ff165b610bd15760405162461bcd60e51b815260206004820152603160248201527f417373657453746f72653a205468652073656e646572206d757374206265206960448201527f6e20746865207768697465206c6973742e0000000000000000000000000000006064820152608401610433565b6108f182611672565b919050565b60408051808201909152606080825260208201526000546001600160a01b03163314610c4d5760405162461bcd60e51b815260206004820181905260248201527f4f776e61626c653a2063616c6c6572206973206e6f7420746865206f776e65726044820152606401610433565b6108f182611c0a565b60006108f1600a82610c696007866113c1565b63ffffffff1663ffffffff1681526020019081526020016000206001015463ffffffff1690565b600d5460ff1680610cb05750336000908152600c602052604090205460ff165b610d225760405162461bcd60e51b815260206004820152603160248201527f417373657453746f72653a205468652073656e646572206d757374206265206960448201527f6e20746865207768697465206c6973742e0000000000000000000000000000006064820152608401610433565b60005b8151811015610d6357610d50828281518110610d4357610d436131c6565b6020026020010151611672565b5080610d5b81613147565b915050610d25565b5050565b6000818152600e6020526040902054606090829060ff16151560011415610dda5760405162461bcd60e51b815260206004820152602160248201527f417373657453746f72653a207468697320617373657420697320646961626c656044820152601960fa1b6064820152608401610433565b610acb83611461565b6040805160c0810182526000808252602082018190526060928201839052828201839052608082015260a0810191909152336001600160a01b0316610e306000546001600160a01b031690565b6001600160a01b031614610e865760405162461bcd60e51b815260206004820181905260248201527f4f776e61626c653a2063616c6c6572206973206e6f7420746865206f776e65726044820152606401610433565b6108f182610ff7565b600080610e9d6007866113c1565b63ffffffff8082166000908152600a60209081526040808320600b90925282209394509291610ed090849089906113c116565b63ffffffff1663ffffffff16815260200190815260200160002060020184604051610efb9190612b22565b908152602001604051809103902054925050509392505050565b6000546001600160a01b03163314610f6f5760405162461bcd60e51b815260206004820181905260248201527f4f776e61626c653a2063616c6c6572206973206e6f7420746865206f776e65726044820152606401610433565b6001600160a01b038116610feb5760405162461bcd60e51b815260206004820152602660248201527f4f776e61626c653a206e6577206f776e657220697320746865207a65726f206160448201527f64647265737300000000000000000000000000000000000000000000000000006064820152608401610433565b610ff481611615565b50565b6040805160c0810182526000808252602082018190526060928201839052828201839052608082015260a08101919091528160008111801561103a575060045481105b6110925760405162461bcd60e51b815260206004820152602360248201527f417373657453746f72653a2061737365744964206973206f7574206f662072616044820152626e676560e81b6064820152608401610433565b600083815260036020908152604091829020825160c081018452815463ffffffff8082168352640100000000909104169281019290925260018101805492939192918401916110e090613112565b80601f016020809104026020016040519081016040528092919081815260200182805461110c90613112565b80156111595780601f1061112e57610100808354040283529160200191611159565b820191906000526020600020905b81548152906001019060200180831161113c57829003601f168201915b5050505050815260200160028201805461117290613112565b80601f016020809104026020016040519081016040528092919081815260200182805461119e90613112565b80156111eb5780601f106111c0576101008083540402835291602001916111eb565b820191906000526020600020905b8154815290600101906020018083116111ce57829003601f168201915b505050918352505060038201546001600160a01b0316602080830191909152600483018054604080518285028101850182528281529401939283018282801561125357602002820191906000526020600020905b81548152602001906001019080831161123f575b505050505081525050915050919050565b606061126f82611db6565b60405160200161127f9190612bb4565b6040516020818303038152906040529050919050565b600182015460609063ffffffff9081169083161061131b5760405162461bcd60e51b815260206004820152603060248201527f537472696e675365742e6e616d654174496e6465783a2054686520696e64657860448201527f206973206f7574206f662072616e6765000000000000000000000000000000006064820152608401610433565b63ffffffff82166000908152602084905260409020805461133b90613112565b80601f016020809104026020016040519081016040528092919081815260200182805461136790613112565b80156113b45780601f10611389576101008083540402835291602001916113b4565b820191906000526020600020905b81548152906001019060200180831161139757829003601f168201915b5050505050905092915050565b60008083600201836040516113d69190612b22565b9081526040519081900360200190205463ffffffff16905080610acb5760405162461bcd60e51b815260206004820152602c60248201527f537472696e675365743a2074686520737065636966696564206e616d6520646f60448201527f6573206e6f7420657869737400000000000000000000000000000000000000006064820152608401610433565b6060600061146e83610ff7565b60a0810151909150600061148185611264565b61148a84611ef0565b60405160200161149b929190612d01565b604051602081830303815290604052905060005b82518110156115ea5760006114dc8483815181106114cf576114cf6131c6565b6020026020010151611c0a565b9050606060008260200151511115611513576020808301516040516115019201612cb1565b60405160208183030381529060405290505b60025482516040517fc25ddce000000000000000000000000000000000000000000000000000000000815286926001600160a01b03169163c25ddce09161155d9190600401612dac565b60006040518083038186803b15801561157557600080fd5b505afa158015611589573d6000803e3d6000fd5b505050506040513d6000823e601f3d908101601f191682016040526115b19190810190612728565b826040516020016115c493929190612a3c565b6040516020818303038152906040529350505080806115e290613147565b9150506114af565b816040516020016115fb9190612ae1565b60408051601f198184030181529190529695505050505050565b600080546001600160a01b0383811673ffffffffffffffffffffffffffffffffffffffff19831681178455604051919092169283917f8be0079c531659141344cd1fd0a4f28419497f9722a3daafe3b4186f6b6457e09190a35050565b60a0810151516000908290825b818110156117925760008360a00151828151811061169f5761169f6131c6565b6020908102919091018101516001549181015160405163c16e50ef60e01b81529193506001600160a01b039092169163c16e50ef916116e19190600401612dac565b602060405180830381600087803b1580156116fb57600080fd5b505af115801561170f573d6000803e3d6000fd5b505050506040513d601f19601f82011682018060405250810190611733919061270b565b61177f5760405162461bcd60e51b815260206004820152601760248201527f496e76616c69642041737365744461746120436f6c6f720000000000000000006044820152606401610433565b508061178a81613147565b91505061167f565b600154604080850151905163c16e50ef60e01b81526001600160a01b039092169163c16e50ef916117c591600401612dac565b602060405180830381600087803b1580156117df57600080fd5b505af11580156117f3573d6000803e3d6000fd5b505050506040513d601f19601f82011682018060405250810190611817919061270b565b6118635760405162461bcd60e51b815260206004820152601660248201527f496e76616c696420417373657444617461204e616d65000000000000000000006044820152606401610433565b60006118728660000151611f6d565b905060006118898760000151838960200151611fd7565b60a08801515190915060008167ffffffffffffffff8111156118ad576118ad6131dc565b6040519080825280602002602001820160405280156118d6578160200160208202803683370190505b50905060005b828110156119395761190a8a60a0015182815181106118fd576118fd6131c6565b6020026020010151612060565b82828151811061191c5761191c6131c6565b60209081029190910101528061193181613147565b9150506118dc565b600480546000918261194a83613147565b909155506040805160c0810182526000808252602082018190526060928201839052828201839052608082015260a08101919091529091506040808d01518282019081526080808f01516001600160a01b0316908401526060808f01519084015263ffffffff808a168452888116602080860191825260a086018990526000878152600382529490942085518154925184166401000000000267ffffffffffffffff19909316931692909217178155905180518493611a109260018501929101906122a1565b5060608201518051611a2c9160028401916020909101906122a1565b50608082015160038201805473ffffffffffffffffffffffffffffffffffffffff19166001600160a01b0390921691909117905560a08201518051611a7b916004840191602090910190612325565b50505063ffffffff8088166000908152600b60209081526040808320938a1683529290528190208d820151915190916002830191611ab99190612b22565b908152602001604051809103902054600014611b3d5760405162461bcd60e51b815260206004820152603b60248201527f417373657420616c72656164792065786973747320776974682074686520736160448201527f6d652067726f75702c2063617465676f727920616e64206e616d6500000000006064820152608401610433565b6001810180548491839160009163ffffffff9091169082611b5d83613162565b91906101000a81548163ffffffff021916908363ffffffff16021790555063ffffffff1663ffffffff1681526020019081526020016000208190555082816002018e60400151604051611bb09190612b22565b9081526040805160209281900383018120939093553383529082018590527ffd64e3f1068245597a589d8b057edbd3d3c312207d5c6d0d770825f68604ff1a910160405180910390a150909b9a5050505050505050505050565b604080518082019091526060808252602082015281600081118015611c30575060065481105b611c7c5760405162461bcd60e51b815260206004820152601660248201527f706172744964206973206f7574206f662072616e6765000000000000000000006044820152606401610433565b600083815260056020526040908190208151808301909252805482908290611ca390613112565b80601f0160208091040260200160405190810160405280929190818152602001828054611ccf90613112565b8015611d1c5780601f10611cf157610100808354040283529160200191611d1c565b820191906000526020600020905b815481529060010190602001808311611cff57829003601f168201915b50505050508152602001600182018054611d3590613112565b80601f0160208091040260200160405190810160405280929190818152602001828054611d6190613112565b80156112535780601f10611d8357610100808354040283529160200191611253565b820191906000526020600020905b815481529060010190602001808311611d915750505091909252509195945050505050565b606081611df657505060408051808201909152600181527f3000000000000000000000000000000000000000000000000000000000000000602082015290565b8160005b8115611e205780611e0a81613147565b9150611e199050600a83613092565b9150611dfa565b60008167ffffffffffffffff811115611e3b57611e3b6131dc565b6040519080825280601f01601f191660200182016040528015611e65576020820181803683370190505b5090505b8415611ee857611e7a6001836130a6565b9150611e87600a86613186565b611e9290603061307a565b60f81b818381518110611ea757611ea76131c6565b60200101907effffffffffffffffffffffffffffffffffffffffffffffffffffffffffffff1916908160001a905350611ee1600a86613092565b9450611e69565b949350505050565b60606000611f086001846000015161074b91906130bd565b905080611f3f60018560200151611f1f91906130bd565b855163ffffffff9081166000908152600a60205260409020919061129516565b8460400151604051602001611f5693929190612b3e565b604051602081830303815290604052915050919050565b60015460009081908190611f8e9060079086906001600160a01b03166120cf565b915091508015611fd0577ff38f46310740c7f6f3e724364a429e671b125298f7a65e69fc18ff94a1e2d04784604051611fc79190612dac565b60405180910390a15b5092915050565b63ffffffff8083166000908152600a60205260408120600154919290918391829161201291859188916001600160a01b03909116906120cf16565b915091508015612056577fcbc1b8c1fb300e15a9e99dc508aecdff1352f0fad4a5e4b7832d41e369635c03878660405161204d929190612dbf565b60405180910390a15b5095945050505050565b600081600560006006600081548092919061207a90613147565b9091555081526020808201929092526040016000208251805191926120a4928492909101906122a1565b5060208281015180516120bd92600185019201906122a1565b50506006546108f191506001906130a6565b600080600085600201856040516120e69190612b22565b9081526040519081900360200190205463ffffffff169050801561210f57915060009050612299565b60405163c16e50ef60e01b81526001600160a01b0385169063c16e50ef9061213b908890600401612dac565b602060405180830381600087803b15801561215557600080fd5b505af1158015612169573d6000803e3d6000fd5b505050506040513d601f19601f8201168201806040525081019061218d919061270b565b6121d95760405162461bcd60e51b815260206004820152601f60248201527f537472696e675365742e67657449643a20496e76616c696420537472696e67006044820152606401610433565b6001860180548691889160009163ffffffff90911690826121f983613162565b91906101000a81548163ffffffff021916908363ffffffff16021790555063ffffffff1663ffffffff16815260200190815260200160002090805190602001906122449291906122a1565b5050600185015460405163ffffffff9091169081906002880190612269908890612b22565b908152604051908190036020019020805463ffffffff9290921663ffffffff199092169190911790559150600190505b935093915050565b8280546122ad90613112565b90600052602060002090601f0160209004810192826122cf5760008555612315565b82601f106122e857805160ff1916838001178555612315565b82800160010185558215612315579182015b828111156123155782518255916020019190600101906122fa565b5061232192915061235f565b5090565b82805482825590600052602060002090810192821561231557916020028201828111156123155782518255916020019190600101906122fa565b5b808211156123215760008155600101612360565b600061238761238284613052565b612ffd565b905082815283838301111561239b57600080fd5b828260208301376000602084830101529392505050565b8035610bda816131f2565b600082601f8301126123ce57600080fd5b813560206123de6123828361302e565b80838252828201915082860187848660051b89010111156123fe57600080fd5b60005b858110156124b057813567ffffffffffffffff8082111561242157600080fd5b908901906040828c03601f190181131561243a57600080fd5b612442612fb1565b888401358381111561245357600080fd5b8401603f81018e1361246457600080fd5b6124748e8b830135858401612374565b82525090830135908282111561248957600080fd5b6124978d8a848701016124bd565b818a015287525050509284019290840190600101612401565b5090979650505050505050565b600082601f8301126124ce57600080fd5b610acb83833560208501612374565b600060c082840312156124ef57600080fd5b6124f7612fda565b9050813567ffffffffffffffff8082111561251157600080fd5b61251d858386016124bd565b8352602084013591508082111561253357600080fd5b61253f858386016124bd565b6020840152604084013591508082111561255857600080fd5b612564858386016124bd565b6040840152606084013591508082111561257d57600080fd5b612589858386016124bd565b606084015261259a608085016123b2565b608084015260a08401359150808211156125b357600080fd5b506125c0848285016123bd565b60a08301525092915050565b803563ffffffff81168114610bda57600080fd5b6000602082840312156125f257600080fd5b8135610acb816131f2565b6000806040838503121561261057600080fd5b823561261b816131f2565b9150602083013561262b81613207565b809150509250929050565b6000602080838503121561264957600080fd5b823567ffffffffffffffff8082111561266157600080fd5b818501915085601f83011261267557600080fd5b81356126836123828261302e565b80828252858201915085850189878560051b88010111156126a357600080fd5b6000805b858110156126de578235878111156126bd578283fd5b6126cb8d8b838c01016124dd565b86525093880193918801916001016126a7565b50919a9950505050505050505050565b60006020828403121561270057600080fd5b8135610acb81613207565b60006020828403121561271d57600080fd5b8151610acb81613207565b60006020828403121561273a57600080fd5b815167ffffffffffffffff81111561275157600080fd5b8201601f8101841361276257600080fd5b805161277061238282613052565b81815285602083850101111561278557600080fd5b6127968260208301602086016130e2565b95945050505050565b6000602082840312156127b157600080fd5b813567ffffffffffffffff8111156127c857600080fd5b611ee8848285016124bd565b600080604083850312156127e757600080fd5b823567ffffffffffffffff808211156127ff57600080fd5b61280b868387016124bd565b9350602085013591508082111561282157600080fd5b5061282e858286016124bd565b9150509250929050565b60008060006060848603121561284d57600080fd5b833567ffffffffffffffff8082111561286557600080fd5b612871878388016124bd565b9450602086013591508082111561288757600080fd5b612893878388016124bd565b935060408601359150808211156128a957600080fd5b506128b6868287016124bd565b9150509250925092565b6000806000606084860312156128d557600080fd5b833567ffffffffffffffff808211156128ed57600080fd5b6128f9878388016124bd565b9450602086013591508082111561290f57600080fd5b5061291c868287016124bd565b92505061292b604085016125cc565b90509250925092565b6000806040838503121561294757600080fd5b823567ffffffffffffffff81111561295e57600080fd5b61296a858286016124bd565b925050612979602084016125cc565b90509250929050565b60006020828403121561299457600080fd5b813567ffffffffffffffff8111156129ab57600080fd5b611ee8848285016124dd565b6000602082840312156129c957600080fd5b5035919050565b600080604083850312156129e357600080fd5b82359150602083013561262b81613207565b600060208284031215612a0757600080fd5b610acb826125cc565b60008151808452612a288160208601602086016130e2565b601f01601f19169290920160200192915050565b60008451612a4e8184602089016130e2565b7f20203c7061746820643d220000000000000000000000000000000000000000009083019081528451612a8881600b8401602089016130e2565b601160f91b600b92909101918201528351612aaa81600c8401602088016130e2565b7f202f3e0a00000000000000000000000000000000000000000000000000000000600c929091019182015260100195945050505050565b60008251612af38184602087016130e2565b7f203c2f673e0a0000000000000000000000000000000000000000000000000000920191825250600601919050565b60008251612b348184602087016130e2565b9190910192915050565b60008451612b508184602089016130e2565b80830190507f2f000000000000000000000000000000000000000000000000000000000000008082528551612b8c816001850160208a016130e2565b60019201918201528351612ba78160028401602088016130e2565b0160020195945050505050565b7f6173736574000000000000000000000000000000000000000000000000000000815260008251612bec8160058501602087016130e2565b9190910160050192915050565b7f3c7376672076696577426f783d22302030203130323420313032342220786d6c81527f6e733d22687474703a2f2f7777772e77332e6f72672f323030302f737667223e60208201527f0a00000000000000000000000000000000000000000000000000000000000000604082015260008251612c7d8160418501602087016130e2565b7f3c2f7376673e00000000000000000000000000000000000000000000000000006041939091019283015250604701919050565b7f2066696c6c3d2200000000000000000000000000000000000000000000000000815260008251612ce98160078501602087016130e2565b601160f91b6007939091019283015250600801919050565b7f203c672069643d22000000000000000000000000000000000000000000000000815260008351612d398160088501602088016130e2565b7f2220646573633d220000000000000000000000000000000000000000000000006008918401918201528351612d768160108401602088016130e2565b7f223e0a000000000000000000000000000000000000000000000000000000000060109290910191820152601301949350505050565b602081526000610acb6020830184612a10565b604081526000612dd26040830185612a10565b82810360208401526127968185612a10565b6020815260008251610100806020850152612e03610120850183612a10565b91506020850151601f1980868503016040870152612e218483612a10565b93506040870151915080868503016060870152612e3e8483612a10565b93506060870151915080868503016080870152612e5b8483612a10565b935060808701519150808685030160a087015250612e798382612a10565b92505060a0850151612e9660c08601826001600160a01b03169052565b5060c085015161ffff811660e08601525060e085015161ffff8116858301525090949350505050565b6000602080835263ffffffff8085511682850152808286015116604085015250604084015160c06060850152612ef860e0850182612a10565b90506060850151601f1980868403016080870152612f168383612a10565b60808801516001600160a01b031660a08881019190915288015187820390920160c088015281518082529185019350600092508401905b80831015612f6d5783518252928401926001929092019190840190612f4d565b509695505050505050565b602081526000825160406020840152612f946060840182612a10565b90506020840151601f198483030160408501526127968282612a10565b6040805190810167ffffffffffffffff81118282101715612fd457612fd46131dc565b60405290565b60405160c0810167ffffffffffffffff81118282101715612fd457612fd46131dc565b604051601f8201601f1916810167ffffffffffffffff81118282101715613026576130266131dc565b604052919050565b600067ffffffffffffffff821115613048576130486131dc565b5060051b60200190565b600067ffffffffffffffff82111561306c5761306c6131dc565b50601f01601f191660200190565b6000821982111561308d5761308d61319a565b500190565b6000826130a1576130a16131b0565b500490565b6000828210156130b8576130b861319a565b500390565b600063ffffffff838116908316818110156130da576130da61319a565b039392505050565b60005b838110156130fd5781810151838201526020016130e5565b8381111561310c576000848401525b50505050565b600181811c9082168061312657607f821691505b60208210811415610a2257634e487b7160e01b600052602260045260246000fd5b600060001982141561315b5761315b61319a565b5060010190565b600063ffffffff8083168181141561317c5761317c61319a565b6001019392505050565b600082613195576131956131b0565b500690565b634e487b7160e01b600052601160045260246000fd5b634e487b7160e01b600052601260045260246000fd5b634e487b7160e01b600052603260045260246000fd5b634e487b7160e01b600052604160045260246000fd5b6001600160a01b0381168114610ff457600080fd5b8015158114610ff457600080fdfea264697066735822122099f18f8f5b421214f1c2e8876318084ef7d7d6add931f3c10f79e9b9288d4aae64736f6c63430008060033608060405234801561001057600080fd5b50610489806100206000396000f3fe608060405234801561001057600080fd5b506004361061002b5760003560e01c8063c16e50ef14610030575b600080fd5b61004361003e36600461034d565b610057565b604051901515815260200160405180910390f35b6000805b825181101561034457600083828151811061007857610078610427565b01602001516001600160f81b03191690507f300000000000000000000000000000000000000000000000000000000000000081108015906100e357507f39000000000000000000000000000000000000000000000000000000000000006001600160f81b0319821611155b8061014d57507f41000000000000000000000000000000000000000000000000000000000000006001600160f81b031982161080159061014d57507f5a000000000000000000000000000000000000000000000000000000000000006001600160f81b0319821611155b806101b757507f61000000000000000000000000000000000000000000000000000000000000006001600160f81b03198216108015906101b757507f7a000000000000000000000000000000000000000000000000000000000000006001600160f81b0319821611155b806101eb57507f20000000000000000000000000000000000000000000000000000000000000006001600160f81b03198216145b8061021f57507f23000000000000000000000000000000000000000000000000000000000000006001600160f81b03198216145b8061025357507f28000000000000000000000000000000000000000000000000000000000000006001600160f81b03198216145b8061028757507f29000000000000000000000000000000000000000000000000000000000000006001600160f81b03198216145b806102bb57507f2c000000000000000000000000000000000000000000000000000000000000006001600160f81b03198216145b806102ef57507f2d000000000000000000000000000000000000000000000000000000000000006001600160f81b03198216145b8061032357507f2e000000000000000000000000000000000000000000000000000000000000006001600160f81b03198216145b610331575060009392505050565b508061033c816103fe565b91505061005b565b50600192915050565b60006020828403121561035f57600080fd5b813567ffffffffffffffff8082111561037757600080fd5b818401915084601f83011261038b57600080fd5b81358181111561039d5761039d61043d565b604051601f8201601f19908116603f011681019083821181831017156103c5576103c561043d565b816040528281528760208487010111156103de57600080fd5b826020860160208301376000928101602001929092525095945050505050565b600060001982141561042057634e487b7160e01b600052601160045260246000fd5b5060010190565b634e487b7160e01b600052603260045260246000fd5b634e487b7160e01b600052604160045260246000fdfea2646970667358221220afea0309c73056a4d317ac35752842ef5c4546c8e13b6459b4685c4180172c9364736f6c63430008060033608060405234801561001057600080fd5b5061080e806100206000396000f3fe608060405234801561001057600080fd5b506004361061002b5760003560e01c8063c25ddce014610030575b600080fd5b61004361003e3660046103f4565b610059565b6040516100509190610590565b60405180910390f35b60608060008060038551600261006f9190610658565b6100799190610601565b9050600091505b8061ffff168261ffff1610156102b157600061009d600284610601565b6100a8906003610658565b90506000806100b8600286610729565b61ffff1661011b57878361ffff16815181106100d6576100d66107ac565b016020015160f81c91506010886100ee8560016105c3565b61ffff1681518110610102576101026107ac565b0160200151610114919060f81c61075e565b905061017c565b876101278460026105c3565b61ffff168151811061013b5761013b6107ac565b016020015160f81c91506010886101538560016105c3565b61ffff1681518110610167576101676107ac565b0160200151610179919060f81c610636565b90505b60ff81166101e95760418260ff161015801561019c5750605a8260ff1611155b806101ba575060618260ff16101580156101ba5750607a8260ff1611155b156101e45785826040516020016101d2929190610546565b60405160208183030381529060405295505b61029b565b60006101008360ff168360ff166101006102039190610658565b61020d91906105c3565b6102179190610682565b90506104008161ffff1610610266578661023f61023661040084610682565b61ffff166102ba565b6040516020016102509291906104a5565b6040516020818303038152906040529650610299565b8661027661023683610400610682565b6040516020016102879291906104e0565b60405160208183030381529060405296505b505b50505081806102a9906106ec565b925050610080565b50909392505050565b6060816102fa57505060408051808201909152600181527f3000000000000000000000000000000000000000000000000000000000000000602082015290565b8160005b8115610324578061030e8161070e565b915061031d9050600a83610622565b91506102fe565b60008167ffffffffffffffff81111561033f5761033f6107c2565b6040519080825280601f01601f191660200182016040528015610369576020820181803683370190505b5090505b84156103ec5761037e6001836106a5565b915061038b600a8661074a565b6103969060306105e9565b60f81b8183815181106103ab576103ab6107ac565b60200101907effffffffffffffffffffffffffffffffffffffffffffffffffffffffffffff1916908160001a9053506103e5600a86610622565b945061036d565b949350505050565b60006020828403121561040657600080fd5b813567ffffffffffffffff8082111561041e57600080fd5b818401915084601f83011261043257600080fd5b813581811115610444576104446107c2565b604051601f8201601f19908116603f0116810190838211818310171561046c5761046c6107c2565b8160405282815287602084870101111561048557600080fd5b826020860160208301376000928101602001929092525095945050505050565b600083516104b78184602088016106bc565b8351908301906104cb8183602088016106bc565b600160fd1b9101908152600101949350505050565b600083516104f28184602088016106bc565b7f2d00000000000000000000000000000000000000000000000000000000000000908301908152835161052c8160018401602088016106bc565b600160fd1b60019290910191820152600201949350505050565b600083516105588184602088016106bc565b60f89390931b7fff00000000000000000000000000000000000000000000000000000000000000169190920190815260010192915050565b60208152600082518060208401526105af8160408501602087016106bc565b601f01601f19169190910160400192915050565b600061ffff8083168185168083038211156105e0576105e0610780565b01949350505050565b600082198211156105fc576105fc610780565b500190565b600061ffff8084168061061657610616610796565b92169190910492915050565b60008261063157610631610796565b500490565b600060ff83168061064957610649610796565b8060ff84160491505092915050565b600061ffff8083168185168183048111821515161561067957610679610780565b02949350505050565b600061ffff8381169083168181101561069d5761069d610780565b039392505050565b6000828210156106b7576106b7610780565b500390565b60005b838110156106d75781810151838201526020016106bf565b838111156106e6576000848401525b50505050565b600061ffff8083168181141561070457610704610780565b6001019392505050565b600060001982141561072257610722610780565b5060010190565b600061ffff8084168061073e5761073e610796565b92169190910692915050565b60008261075957610759610796565b500690565b600060ff83168061077157610771610796565b8060ff84160691505092915050565b634e487b7160e01b600052601160045260246000fd5b634e487b7160e01b600052601260045260246000fd5b634e487b7160e01b600052603260045260246000fd5b634e487b7160e01b600052604160045260246000fdfea2646970667358221220038bd1c52f0e6583e742e3cf819d576aface40be80a5533beb30205cc733e91864736f6c63430008060033",
  "linkReferences": {},
  "deployedLinkReferences": {}
}