{
  "_format": "hh-sol-artifact-1",
  "contractName": "AssetStoreProvider",
  "sourceName": "contracts/AssetStoreProvider.sol",
  "abi": [
    {
      "inputs": [
        {
          "internalType": "contract IAssetStoreEx",
          "name": "_assetStore",
          "type": "address"
        }
      ],
      "stateMutability": "nonpayable",
      "type": "constructor"
    },
    {
      "anonymous": false,
      "inputs": [
        {
          "indexed": true,
          "internalType": "address",
          "name": "previousOwner",
          "type": "address"
        },
        {
          "indexed": true,
          "internalType": "address",
          "name": "newOwner",
          "type": "address"
        }
      ],
      "name": "OwnershipTransferred",
      "type": "event"
    },
    {
      "inputs": [],
      "name": "assetStore",
      "outputs": [
        {
          "internalType": "contract IAssetStoreEx",
          "name": "",
          "type": "address"
        }
      ],
      "stateMutability": "view",
      "type": "function"
    },
    {
      "inputs": [
        {
          "internalType": "uint256",
          "name": "_assetId",
          "type": "uint256"
        }
      ],
      "name": "generateSVGPart",
      "outputs": [
        {
          "internalType": "string",
          "name": "svgPart",
          "type": "string"
        },
        {
          "internalType": "string",
          "name": "tag",
          "type": "string"
        }
      ],
      "stateMutability": "view",
      "type": "function"
    },
    {
      "inputs": [
        {
          "internalType": "string",
          "name": "_group",
          "type": "string"
        },
        {
          "internalType": "string",
          "name": "_category",
          "type": "string"
        }
      ],
      "name": "getAssetCountInCategory",
      "outputs": [
        {
          "internalType": "uint32",
          "name": "",
          "type": "uint32"
        }
      ],
      "stateMutability": "view",
      "type": "function"
    },
    {
      "inputs": [
        {
          "internalType": "string",
          "name": "_group",
          "type": "string"
        },
        {
          "internalType": "string",
          "name": "_category",
          "type": "string"
        },
        {
          "internalType": "uint32",
          "name": "_assetIndex",
          "type": "uint32"
        }
      ],
      "name": "getAssetIdInCategory",
      "outputs": [
        {
          "internalType": "uint256",
          "name": "",
          "type": "uint256"
        }
      ],
      "stateMutability": "view",
      "type": "function"
    },
    {
      "inputs": [
        {
          "internalType": "string",
          "name": "_group",
          "type": "string"
        }
      ],
      "name": "getCategoryCount",
      "outputs": [
        {
          "internalType": "uint32",
          "name": "",
          "type": "uint32"
        }
      ],
      "stateMutability": "view",
      "type": "function"
    },
    {
      "inputs": [
        {
          "internalType": "string",
          "name": "_group",
          "type": "string"
        },
        {
          "internalType": "uint32",
          "name": "_categoryIndex",
          "type": "uint32"
        }
      ],
      "name": "getCategoryNameAtIndex",
      "outputs": [
        {
          "internalType": "string",
          "name": "",
          "type": "string"
        }
      ],
      "stateMutability": "view",
      "type": "function"
    },
    {
      "inputs": [],
      "name": "getGroupCount",
      "outputs": [
        {
          "internalType": "uint32",
          "name": "",
          "type": "uint32"
        }
      ],
      "stateMutability": "view",
      "type": "function"
    },
    {
      "inputs": [
        {
          "internalType": "uint32",
          "name": "_groupIndex",
          "type": "uint32"
        }
      ],
      "name": "getGroupNameAtIndex",
      "outputs": [
        {
          "internalType": "string",
          "name": "",
          "type": "string"
        }
      ],
      "stateMutability": "view",
      "type": "function"
    },
    {
      "inputs": [],
      "name": "getOwner",
      "outputs": [
        {
          "internalType": "address",
          "name": "",
          "type": "address"
        }
      ],
      "stateMutability": "view",
      "type": "function"
    },
    {
      "inputs": [],
      "name": "getProviderInfo",
      "outputs": [
        {
          "components": [
            {
              "internalType": "string",
              "name": "key",
              "type": "string"
            },
            {
              "internalType": "string",
              "name": "name",
              "type": "string"
            },
            {
              "internalType": "contract IAssetProvider",
              "name": "provider",
              "type": "address"
            }
          ],
          "internalType": "struct IAssetProvider.ProviderInfo",
          "name": "",
          "type": "tuple"
        }
      ],
      "stateMutability": "view",
      "type": "function"
    },
    {
      "inputs": [],
      "name": "owner",
      "outputs": [
        {
          "internalType": "address",
          "name": "",
          "type": "address"
        }
      ],
      "stateMutability": "view",
      "type": "function"
    },
    {
      "inputs": [],
      "name": "renounceOwnership",
      "outputs": [],
      "stateMutability": "nonpayable",
      "type": "function"
    },
    {
      "inputs": [
        {
          "internalType": "bytes4",
          "name": "interfaceId",
          "type": "bytes4"
        }
      ],
      "name": "supportsInterface",
      "outputs": [
        {
          "internalType": "bool",
          "name": "",
          "type": "bool"
        }
      ],
      "stateMutability": "view",
      "type": "function"
    },
    {
      "inputs": [],
      "name": "totalSupply",
      "outputs": [
        {
          "internalType": "uint256",
          "name": "",
          "type": "uint256"
        }
      ],
      "stateMutability": "view",
      "type": "function"
    },
    {
      "inputs": [
        {
          "internalType": "address",
          "name": "newOwner",
          "type": "address"
        }
      ],
      "name": "transferOwnership",
      "outputs": [],
      "stateMutability": "nonpayable",
      "type": "function"
    }
  ],
  "bytecode": "0x60a060405234801561001057600080fd5b506040516113c93803806113c983398101604081905261002f9161009d565b6100383361004d565b60601b6001600160601b0319166080526100cd565b600080546001600160a01b038381166001600160a01b0319831681178455604051919092169283917f8be0079c531659141344cd1fd0a4f28419497f9722a3daafe3b4186f6b6457e09190a35050565b6000602082840312156100af57600080fd5b81516001600160a01b03811681146100c657600080fd5b9392505050565b60805160601c61129f61012a600039600081816101800152818161039b01528181610433015281816104c8015281816105ab015281816106700152818161079401528181610852015281816108e6015261099b015261129f6000f3fe608060405234801561001057600080fd5b50600436106100f55760003560e01c8063715018a6116100975780638da5cb5b116100665780638da5cb5b146101f7578063d4f056d4146102b3578063e3f24f02146102c6578063f2fde38b146102e757600080fd5b8063715018a6146101da5780637805544c146101e4578063893d20e8146101f75780638c40188e1461020857600080fd5b8063468823e2116100d3578063468823e214610155578063515f28cb14610168578063597a0e361461017b5780635c73924c146101ba57600080fd5b806301ffc9a7146100fa57806306545a931461012257806318160ddd1461013f575b600080fd5b61010d610108366004610c69565b6102fa565b60405190151581526020015b60405180910390f35b61012a610397565b60405163ffffffff9091168152602001610119565b61014761042f565b604051908152602001610119565b610147610163366004610d61565b6104c2565b61012a610176366004610cfd565b610578565b6101a27f000000000000000000000000000000000000000000000000000000000000000081565b6040516001600160a01b039091168152602001610119565b6101cd6101c8366004610fb7565b610639565b604051610119919061101d565b6101e26106f6565b005b6101cd6101f2366004610dd9565b610761565b6000546001600160a01b03166101a2565b6102a660408051606080820183528082526020820152600091810191909152506040805160a0810182526005606082019081527f61737365740000000000000000000000000000000000000000000000000000006080830152815281518083018352600b81527f41737365742053746f7265000000000000000000000000000000000000000000602082810191909152820152309181019190915290565b60405161011991906110c2565b61012a6102c1366004610c93565b61081f565b6102d96102d4366004610f85565b6108d7565b604051610119929190611030565b6101e26102f5366004610c4c565b610a45565b60006001600160e01b031982167ffe997ab900000000000000000000000000000000000000000000000000000000148061035d57506001600160e01b031982167fe105c16e00000000000000000000000000000000000000000000000000000000145b8061039157506001600160e01b031982167f01ffc9a700000000000000000000000000000000000000000000000000000000145b92915050565b60007f00000000000000000000000000000000000000000000000000000000000000006001600160a01b03166306545a936040518163ffffffff1660e01b815260040160206040518083038186803b1580156103f257600080fd5b505afa158015610406573d6000803e3d6000fd5b505050506040513d601f19601f8201168201806040525081019061042a9190610fd4565b905090565b60007f00000000000000000000000000000000000000000000000000000000000000006001600160a01b031663a0aead4d6040518163ffffffff1660e01b815260040160206040518083038186803b15801561048a57600080fd5b505afa15801561049e573d6000803e3d6000fd5b505050506040513d601f19601f8201168201806040525081019061042a9190610f9e565b600060017f00000000000000000000000000000000000000000000000000000000000000006001600160a01b031663468823e28686866040518463ffffffff1660e01b81526004016105169392919061105e565b60206040518083038186803b15801561052e57600080fd5b505afa158015610542573d6000803e3d6000fd5b505050506040513d601f19601f820116820180604052508101906105669190610f9e565b61057091906111cf565b949350505050565b6040517f515f28cb0000000000000000000000000000000000000000000000000000000081526000906001600160a01b037f0000000000000000000000000000000000000000000000000000000000000000169063515f28cb906105e29086908690600401611030565b60206040518083038186803b1580156105fa57600080fd5b505afa15801561060e573d6000803e3d6000fd5b505050506040513d601f19601f820116820180604052508101906106329190610fd4565b9392505050565b6040517f5c73924c00000000000000000000000000000000000000000000000000000000815263ffffffff821660048201526060907f00000000000000000000000000000000000000000000000000000000000000006001600160a01b031690635c73924c9060240160006040518083038186803b1580156106ba57600080fd5b505afa1580156106ce573d6000803e3d6000fd5b505050506040513d6000823e601f3d908101601f191682016040526103919190810190610cc8565b6000546001600160a01b031633146107555760405162461bcd60e51b815260206004820181905260248201527f4f776e61626c653a2063616c6c6572206973206e6f7420746865206f776e657260448201526064015b60405180910390fd5b61075f6000610b27565b565b6040517f7805544c0000000000000000000000000000000000000000000000000000000081526060906001600160a01b037f00000000000000000000000000000000000000000000000000000000000000001690637805544c906107cb908690869060040161109a565b60006040518083038186803b1580156107e357600080fd5b505afa1580156107f7573d6000803e3d6000fd5b505050506040513d6000823e601f3d908101601f191682016040526106329190810190610cc8565b6040517fd4f056d40000000000000000000000000000000000000000000000000000000081526000906001600160a01b037f0000000000000000000000000000000000000000000000000000000000000000169063d4f056d49061088790859060040161101d565b60206040518083038186803b15801561089f57600080fd5b505afa1580156108b3573d6000803e3d6000fd5b505050506040513d601f19601f820116820180604052508101906103919190610fd4565b60608060006001600160a01b037f000000000000000000000000000000000000000000000000000000000000000016634378a6e36109168660016111b7565b6040518263ffffffff1660e01b815260040161093491815260200190565b60006040518083038186803b15801561094c57600080fd5b505afa158015610960573d6000803e3d6000fd5b505050506040513d6000823e601f3d908101601f191682016040526109889190810190610e2b565b6060810151925090506001600160a01b037f0000000000000000000000000000000000000000000000000000000000000000166334320bf16109cb8660016111b7565b846040518363ffffffff1660e01b81526004016109e992919061111b565b60006040518083038186803b158015610a0157600080fd5b505afa158015610a15573d6000803e3d6000fd5b505050506040513d6000823e601f3d908101601f19168201604052610a3d9190810190610cc8565b925050915091565b6000546001600160a01b03163314610a9f5760405162461bcd60e51b815260206004820181905260248201527f4f776e61626c653a2063616c6c6572206973206e6f7420746865206f776e6572604482015260640161074c565b6001600160a01b038116610b1b5760405162461bcd60e51b815260206004820152602660248201527f4f776e61626c653a206e6577206f776e657220697320746865207a65726f206160448201527f6464726573730000000000000000000000000000000000000000000000000000606482015260840161074c565b610b2481610b27565b50565b600080546001600160a01b038381167fffffffffffffffffffffffff0000000000000000000000000000000000000000831681178455604051919092169283917f8be0079c531659141344cd1fd0a4f28419497f9722a3daafe3b4186f6b6457e09190a35050565b8051610b9a81611242565b919050565b600082601f830112610bb057600080fd5b8151610bc3610bbe8261118f565b61115e565b818152846020838601011115610bd857600080fd5b6105708260208301602087016111e6565b600082601f830112610bfa57600080fd5b8135610c08610bbe8261118f565b818152846020838601011115610c1d57600080fd5b816020850160208301376000918101602001919091529392505050565b805161ffff81168114610b9a57600080fd5b600060208284031215610c5e57600080fd5b813561063281611242565b600060208284031215610c7b57600080fd5b81356001600160e01b03198116811461063257600080fd5b600060208284031215610ca557600080fd5b813567ffffffffffffffff811115610cbc57600080fd5b61057084828501610be9565b600060208284031215610cda57600080fd5b815167ffffffffffffffff811115610cf157600080fd5b61057084828501610b9f565b60008060408385031215610d1057600080fd5b823567ffffffffffffffff80821115610d2857600080fd5b610d3486838701610be9565b93506020850135915080821115610d4a57600080fd5b50610d5785828601610be9565b9150509250929050565b600080600060608486031215610d7657600080fd5b833567ffffffffffffffff80821115610d8e57600080fd5b610d9a87838801610be9565b94506020860135915080821115610db057600080fd5b50610dbd86828701610be9565b9250506040840135610dce81611257565b809150509250925092565b60008060408385031215610dec57600080fd5b823567ffffffffffffffff811115610e0357600080fd5b610e0f85828601610be9565b9250506020830135610e2081611257565b809150509250929050565b600060208284031215610e3d57600080fd5b815167ffffffffffffffff80821115610e5557600080fd5b908301906101208286031215610e6a57600080fd5b610e72611134565b825182811115610e8157600080fd5b610e8d87828601610b9f565b825250602083015182811115610ea257600080fd5b610eae87828601610b9f565b602083015250604083015182811115610ec657600080fd5b610ed287828601610b9f565b604083015250606083015182811115610eea57600080fd5b610ef687828601610b9f565b606083015250608083015182811115610f0e57600080fd5b610f1a87828601610b9f565b608083015250610f2c60a08401610b8f565b60a082015260c083015182811115610f4357600080fd5b610f4f87828601610b9f565b60c083015250610f6160e08401610c3a565b60e08201526101009150610f76828401610c3a565b91810191909152949350505050565b600060208284031215610f9757600080fd5b5035919050565b600060208284031215610fb057600080fd5b5051919050565b600060208284031215610fc957600080fd5b813561063281611257565b600060208284031215610fe657600080fd5b815161063281611257565b600081518084526110098160208601602086016111e6565b601f01601f19169290920160200192915050565b6020815260006106326020830184610ff1565b6040815260006110436040830185610ff1565b82810360208401526110558185610ff1565b95945050505050565b6060815260006110716060830186610ff1565b82810360208401526110838186610ff1565b91505063ffffffff83166040830152949350505050565b6040815260006110ad6040830185610ff1565b905063ffffffff831660208301529392505050565b6020815260008251606060208401526110de6080840182610ff1565b90506020840151601f198483030160408501526110fb8282610ff1565b9150506001600160a01b0360408501511660608401528091505092915050565b8281526040602082015260006105706040830184610ff1565b604051610120810167ffffffffffffffff811182821017156111585761115861122c565b60405290565b604051601f8201601f1916810167ffffffffffffffff811182821017156111875761118761122c565b604052919050565b600067ffffffffffffffff8211156111a9576111a961122c565b50601f01601f191660200190565b600082198211156111ca576111ca611216565b500190565b6000828210156111e1576111e1611216565b500390565b60005b838110156112015781810151838201526020016111e9565b83811115611210576000848401525b50505050565b634e487b7160e01b600052601160045260246000fd5b634e487b7160e01b600052604160045260246000fd5b6001600160a01b0381168114610b2457600080fd5b63ffffffff81168114610b2457600080fdfea26469706673582212208745691404831580a70e6f842f6c57dfcb4cfd34986a59fa73c03833349c5fea64736f6c63430008060033",
  "linkReferences": {},
  "deployedLinkReferences": {}
}