{
  "_format": "hh-sol-artifact-1",
  "contractName": "AssetComposer",
  "sourceName": "contracts/AssetComposer.sol",
  "abi": [
    {
      "inputs": [
        {
          "internalType": "contract IAssetStoreEx",
          "name": "_assetStore",
          "type": "address"
        }
      ],
      "stateMutability": "nonpayable",
      "type": "constructor"
    },
    {
      "anonymous": false,
      "inputs": [
        {
          "indexed": false,
          "internalType": "address",
          "name": "from",
          "type": "address"
        },
        {
          "indexed": false,
          "internalType": "uint256",
          "name": "compositionId",
          "type": "uint256"
        }
      ],
      "name": "CompositionRegistered",
      "type": "event"
    },
    {
      "anonymous": false,
      "inputs": [
        {
          "indexed": true,
          "internalType": "address",
          "name": "previousOwner",
          "type": "address"
        },
        {
          "indexed": true,
          "internalType": "address",
          "name": "newOwner",
          "type": "address"
        }
      ],
      "name": "OwnershipTransferred",
      "type": "event"
    },
    {
      "anonymous": false,
      "inputs": [
        {
          "indexed": false,
          "internalType": "address",
          "name": "from",
          "type": "address"
        },
        {
          "indexed": false,
          "internalType": "uint256",
          "name": "_providerId",
          "type": "uint256"
        }
      ],
      "name": "ProviderRegistered",
      "type": "event"
    },
    {
      "inputs": [],
      "name": "admin",
      "outputs": [
        {
          "internalType": "address",
          "name": "",
          "type": "address"
        }
      ],
      "stateMutability": "view",
      "type": "function"
    },
    {
      "inputs": [],
      "name": "assetStore",
      "outputs": [
        {
          "internalType": "contract IAssetStoreEx",
          "name": "",
          "type": "address"
        }
      ],
      "stateMutability": "view",
      "type": "function"
    },
    {
      "inputs": [
        {
          "internalType": "uint256",
          "name": "_compositionId",
          "type": "uint256"
        }
      ],
      "name": "generateSVGPart",
      "outputs": [
        {
          "internalType": "string",
          "name": "",
          "type": "string"
        },
        {
          "internalType": "string",
          "name": "",
          "type": "string"
        }
      ],
      "stateMutability": "view",
      "type": "function"
    },
    {
      "inputs": [
        {
          "internalType": "uint256",
          "name": "_providerId",
          "type": "uint256"
        }
      ],
      "name": "getProvider",
      "outputs": [
        {
          "components": [
            {
              "internalType": "string",
              "name": "name",
              "type": "string"
            },
            {
              "internalType": "contract IAssetProvider",
              "name": "provider",
              "type": "address"
            }
          ],
          "internalType": "struct IAssetProviderRegistry.ProviderInfo",
          "name": "",
          "type": "tuple"
        }
      ],
      "stateMutability": "view",
      "type": "function"
    },
    {
      "inputs": [
        {
          "internalType": "string",
          "name": "_name",
          "type": "string"
        }
      ],
      "name": "getProviderId",
      "outputs": [
        {
          "internalType": "uint256",
          "name": "",
          "type": "uint256"
        }
      ],
      "stateMutability": "view",
      "type": "function"
    },
    {
      "inputs": [],
      "name": "nextCompositionId",
      "outputs": [
        {
          "internalType": "uint256",
          "name": "",
          "type": "uint256"
        }
      ],
      "stateMutability": "view",
      "type": "function"
    },
    {
      "inputs": [],
      "name": "owner",
      "outputs": [
        {
          "internalType": "address",
          "name": "",
          "type": "address"
        }
      ],
      "stateMutability": "view",
      "type": "function"
    },
    {
      "inputs": [],
      "name": "providerCount",
      "outputs": [
        {
          "internalType": "uint256",
          "name": "",
          "type": "uint256"
        }
      ],
      "stateMutability": "view",
      "type": "function"
    },
    {
      "inputs": [
        {
          "components": [
            {
              "internalType": "uint256",
              "name": "assetId",
              "type": "uint256"
            },
            {
              "internalType": "string",
              "name": "provider",
              "type": "string"
            },
            {
              "internalType": "string",
              "name": "fill",
              "type": "string"
            },
            {
              "internalType": "string",
              "name": "transform",
              "type": "string"
            }
          ],
          "internalType": "struct IAssetComposer.AssetLayer[]",
          "name": "_layers",
          "type": "tuple[]"
        }
      ],
      "name": "registerComposition",
      "outputs": [
        {
          "internalType": "uint256",
          "name": "compositionId",
          "type": "uint256"
        }
      ],
      "stateMutability": "nonpayable",
      "type": "function"
    },
    {
      "inputs": [
        {
          "components": [
            {
              "internalType": "string",
              "name": "name",
              "type": "string"
            },
            {
              "internalType": "contract IAssetProvider",
              "name": "provider",
              "type": "address"
            }
          ],
          "internalType": "struct IAssetProviderRegistry.ProviderInfo",
          "name": "_providerInfo",
          "type": "tuple"
        }
      ],
      "name": "registerProvider",
      "outputs": [
        {
          "internalType": "uint256",
          "name": "providerId",
          "type": "uint256"
        }
      ],
      "stateMutability": "nonpayable",
      "type": "function"
    },
    {
      "inputs": [],
      "name": "renounceOwnership",
      "outputs": [],
      "stateMutability": "nonpayable",
      "type": "function"
    },
    {
      "inputs": [
        {
          "internalType": "address",
          "name": "_admin",
          "type": "address"
        }
      ],
      "name": "setAdmin",
      "outputs": [],
      "stateMutability": "nonpayable",
      "type": "function"
    },
    {
      "inputs": [
        {
          "internalType": "uint256",
          "name": "_compositionId",
          "type": "uint256"
        },
        {
          "internalType": "bool",
          "name": "_status",
          "type": "bool"
        }
      ],
      "name": "setDisabled",
      "outputs": [],
      "stateMutability": "nonpayable",
      "type": "function"
    },
    {
      "inputs": [],
      "name": "totalSupply",
      "outputs": [
        {
          "internalType": "uint256",
          "name": "",
          "type": "uint256"
        }
      ],
      "stateMutability": "view",
      "type": "function"
    },
    {
      "inputs": [
        {
          "internalType": "address",
          "name": "newOwner",
          "type": "address"
        }
      ],
      "name": "transferOwnership",
      "outputs": [],
      "stateMutability": "nonpayable",
      "type": "function"
    }
  ],
  "bytecode": "0x60a060405234801561001057600080fd5b5060405162001c5238038062001c52833981016040819052610031916100c8565b606081901b6001600160601b0319166080528061004d33610076565b5050600354600480546001600160a01b0319166001600160a01b039092169190911790556100f8565b600380546001600160a01b038381166001600160a01b0319831681179093556040519116919082907f8be0079c531659141344cd1fd0a4f28419497f9722a3daafe3b4186f6b6457e090600090a35050565b6000602082840312156100da57600080fd5b81516001600160a01b03811681146100f157600080fd5b9392505050565b60805160601c611b346200011e6000396000818161016401526104820152611b346000f3fe608060405234801561001057600080fd5b50600436106100f55760003560e01c8063704b6c0211610097578063e3f24f0211610066578063e3f24f02146101f2578063ea575c6114610213578063f2fde38b1461021c578063f851a4401461022f57600080fd5b8063704b6c02146101be578063715018a6146101d157806374c83268146101d95780638da5cb5b146101e157600080fd5b8063434ebc55116100d3578063434ebc55146101395780634854078f1461014c578063597a0e361461015f5780635c42d0791461019e57600080fd5b806315ea29be146100fa57806318160ddd1461010f57806321d4f97f14610126575b600080fd5b61010d610108366004611588565b610242565b005b6006545b6040519081526020015b60405180910390f35b6101136101343660046114d5565b6102fc565b6101136101473660046112b2565b61047d565b61011361015a36600461143c565b610835565b6101867f000000000000000000000000000000000000000000000000000000000000000081565b6040516001600160a01b03909116815260200161011d565b6101b16101ac36600461156f565b6108e1565b60405161011d91906118e9565b61010d6101cc366004611295565b6109ba565b61010d610a43565b600154610113565b6003546001600160a01b0316610186565b61020561020036600461156f565b610aa9565b60405161011d9291906118bb565b61011360065481565b61010d61022a366004611295565b610ee6565b600454610186906001600160a01b031681565b6003546001600160a01b031633148061026557506004546001600160a01b031633145b6102dc5760405162461bcd60e51b815260206004820152602660248201527f4173736574436f6d706f7365723a2063616c6c6572206973206e6f742074686560448201527f2061646d696e000000000000000000000000000000000000000000000000000060648201526084015b60405180910390fd5b600091825260056020526040909120805460ff1916911515919091179055565b60008082600001516040516103119190611847565b9081526020016040518091039020546000146103955760405162461bcd60e51b815260206004820152603360248201527f4173736574436f6d706f6f7365723a726567697374657250726f76696465722c60448201527f20616c726561647920726567697374657265640000000000000000000000000060648201526084016102d3565b600180548391600291600091826103ab83611a54565b9091555081526020808201929092526040016000208251805191926103d592849290910190611161565b50602091909101516001918201805473ffffffffffffffffffffffffffffffffffffffff19166001600160a01b0390921691909117905554825160405160009161041e91611847565b908152604051908190036020019020556001805461043c91906119d2565b60408051338152602081018390529192507f90c9734131c1e4fb36cde2d71e6feb93fb258f71be8a85411c173d25e1516e80910160405180910390a1919050565b6000807f00000000000000000000000000000000000000000000000000000000000000006001600160a01b031663a57cfb246040518163ffffffff1660e01b815260040160206040518083038186803b1580156104d957600080fd5b505afa1580156104ed573d6000803e3d6000fd5b505050506040513d601f19601f82011682018060405250810190610511919061141f565b60068054919250600061052383611a54565b9091555083516000828152600760205260408120919091559092505b83518110156107f557600084828151811061055c5761055c611aaf565b60200260200101519050600081600001519050600061057e8360200151610835565b6040805180820182526fffffffffffffffffffffffffffffffff8084168252858116602080840191825260008c8152600882528581208b8252909152939093209151925181167001000000000000000000000000000000000292169190911790556060840151805191925090156106e05760405163c16e50ef60e01b81526001600160a01b0387169063c16e50ef9061061b9084906004016118a8565b60206040518083038186803b15801561063357600080fd5b505afa158015610647573d6000803e3d6000fd5b505050506040513d601f19601f8201168201806040525081019061066b9190611402565b6106b75760405162461bcd60e51b815260206004820152601b60248201527f72656769737465723a20496e76616c6964207472616e73666f726d000000000060448201526064016102d3565b6000878152600960209081526040808320888452825290912082516106de92840190611161565b505b60408401518051156107dd5760405163c16e50ef60e01b81526001600160a01b0388169063c16e50ef906107189084906004016118a8565b60206040518083038186803b15801561073057600080fd5b505afa158015610744573d6000803e3d6000fd5b505050506040513d601f19601f820116820180604052508101906107689190611402565b6107b45760405162461bcd60e51b815260206004820152601660248201527f72656769737465723a20496e76616c69642066696c6c0000000000000000000060448201526064016102d3565b6000888152600a60209081526040808320898452825290912082516107db92840190611161565b505b505050505080806107ed90611a54565b91505061053f565b5060408051338152602081018490527fb6b49fb493aab716d37ffe3ad9f192adb9d7c116b0ca7423db8d0e56a1dc93b2910160405180910390a150919050565b6000806000836040516108489190611847565b9081526020016040518091039020549050600081116108cf5760405162461bcd60e51b815260206004820152603c60248201527f417373657374436f6d706f7365723a67657450726f7669646572496e6465782c60448201527f207468652070726f766964657220646f6573206e6f742065786973740000000060648201526084016102d3565b6108da6001826119d2565b9392505050565b60408051808201909152606081526000602082015260008281526002602052604090819020815180830190925280548290829061091d90611a19565b80601f016020809104026020016040519081016040528092919081815260200182805461094990611a19565b80156109965780601f1061096b57610100808354040283529160200191610996565b820191906000526020600020905b81548152906001019060200180831161097957829003601f168201915b5050509183525050600191909101546001600160a01b031660209091015292915050565b6003546001600160a01b03163314610a145760405162461bcd60e51b815260206004820181905260248201527f4f776e61626c653a2063616c6c6572206973206e6f7420746865206f776e657260448201526064016102d3565b6004805473ffffffffffffffffffffffffffffffffffffffff19166001600160a01b0392909216919091179055565b6003546001600160a01b03163314610a9d5760405162461bcd60e51b815260206004820181905260248201527f4f776e61626c653a2063616c6c6572206973206e6f7420746865206f776e657260448201526064016102d3565b610aa76000610fc8565b565b6000818152600560205260409020546060908190839060ff16151560011415610b3a5760405162461bcd60e51b815260206004820152602a60248201527f4173736574436f6d706f7365723a207468697320636f6d706f736974696f6e2060448201527f697320646961626c65640000000000000000000000000000000000000000000060648201526084016102d3565b600084815260076020526040812054906060908190819081905b85811015610e885760008a815260086020908152604080832084845282528083208151808301909252546fffffffffffffffffffffffffffffffff80821680845270010000000000000000000000000000000090920416928201929092529190610bbd906108e1565b905080602001516001600160a01b031663e3f24f0283602001516fffffffffffffffffffffffffffffffff166040518263ffffffff1660e01b8152600401610c0791815260200190565b60006040518083038186803b158015610c1f57600080fd5b505afa158015610c33573d6000803e3d6000fd5b505050506040513d6000823e601f3d908101601f19168201604052610c5b9190810190611471565b6040519196509450610c7390889087906020016115e4565b60405160208183030381529060405296508584604051602001610c97929190611613565b60408051601f1981840301815291815260008e815260096020908152828220878352905290812080549298509091610cce90611a19565b80601f0160208091040260200160405190810160405280929190818152602001828054610cfa90611a19565b8015610d475780601f10610d1c57610100808354040283529160200191610d47565b820191906000526020600020905b815481529060010190602001808311610d2a57829003601f168201915b50505050509050600081511115610d7d578681604051602001610d6b9291906117e1565b60405160208183030381529060405296505b60008d8152600a6020908152604080832087845290915290208054610da190611a19565b80601f0160208091040260200160405190810160405280929190818152602001828054610dcd90611a19565b8015610e1a5780601f10610def57610100808354040283529160200191610e1a565b820191906000526020600020905b815481529060010190602001808311610dfd57829003601f168201915b50505050509050600081511115610e50578681604051602001610e3e9291906116ba565b60405160208183030381529060405296505b86604051602001610e619190611679565b60405160208183030381529060405296505050508080610e8090611a54565b915050610b54565b50610e9289611027565b604051602001610ea29190611863565b6040516020818303038152906040529050838184604051602001610ec893929190611720565b60408051601f19818403018152919052975095505050505050915091565b6003546001600160a01b03163314610f405760405162461bcd60e51b815260206004820181905260248201527f4f776e61626c653a2063616c6c6572206973206e6f7420746865206f776e657260448201526064016102d3565b6001600160a01b038116610fbc5760405162461bcd60e51b815260206004820152602660248201527f4f776e61626c653a206e6577206f776e657220697320746865207a65726f206160448201527f646472657373000000000000000000000000000000000000000000000000000060648201526084016102d3565b610fc581610fc8565b50565b600380546001600160a01b0383811673ffffffffffffffffffffffffffffffffffffffff19831681179093556040519116919082907f8be0079c531659141344cd1fd0a4f28419497f9722a3daafe3b4186f6b6457e090600090a35050565b60608161106757505060408051808201909152600181527f3000000000000000000000000000000000000000000000000000000000000000602082015290565b8160005b8115611091578061107b81611a54565b915061108a9050600a836119be565b915061106b565b60008167ffffffffffffffff8111156110ac576110ac611ac5565b6040519080825280601f01601f1916602001820160405280156110d6576020820181803683370190505b5090505b8415611159576110eb6001836119d2565b91506110f8600a86611a6f565b6111039060306119a6565b60f81b81838151811061111857611118611aaf565b60200101907effffffffffffffffffffffffffffffffffffffffffffffffffffffffffffff1916908160001a905350611152600a866119be565b94506110da565b949350505050565b82805461116d90611a19565b90600052602060002090601f01602090048101928261118f57600085556111d5565b82601f106111a857805160ff19168380011785556111d5565b828001600101855582156111d5579182015b828111156111d55782518255916020019190600101906111ba565b506111e19291506111e5565b5090565b5b808211156111e157600081556001016111e6565b600082601f83011261120b57600080fd5b813561121e6112198261197e565b61194d565b81815284602083860101111561123357600080fd5b816020850160208301376000918101602001919091529392505050565b600082601f83011261126157600080fd5b815161126f6112198261197e565b81815284602083860101111561128457600080fd5b6111598260208301602087016119e9565b6000602082840312156112a757600080fd5b81356108da81611adb565b600060208083850312156112c557600080fd5b823567ffffffffffffffff808211156112dd57600080fd5b818501915085601f8301126112f157600080fd5b81358181111561130357611303611ac5565b8060051b61131285820161194d565b8281528581019085870183870188018b101561132d57600080fd5b600093505b848410156113f45780358681111561134957600080fd5b87016080818d03601f1901121561135f57600080fd5b611367611924565b8982013581526040808301358981111561138057600080fd5b61138e8f8d838701016111fa565b8c840152506060830135898111156113a557600080fd5b6113b38f8d838701016111fa565b8284015250506080820135888111156113cb57600080fd5b6113d98e8c838601016111fa565b60608301525084525060019390930192918701918701611332565b509998505050505050505050565b60006020828403121561141457600080fd5b81516108da81611af0565b60006020828403121561143157600080fd5b81516108da81611adb565b60006020828403121561144e57600080fd5b813567ffffffffffffffff81111561146557600080fd5b611159848285016111fa565b6000806040838503121561148457600080fd5b825167ffffffffffffffff8082111561149c57600080fd5b6114a886838701611250565b935060208501519150808211156114be57600080fd5b506114cb85828601611250565b9150509250929050565b6000602082840312156114e757600080fd5b813567ffffffffffffffff808211156114ff57600080fd5b908301906040828603121561151357600080fd5b60405160408101818110838211171561152e5761152e611ac5565b60405282358281111561154057600080fd5b61154c878286016111fa565b8252506020830135925061155f83611adb565b6020810192909252509392505050565b60006020828403121561158157600080fd5b5035919050565b6000806040838503121561159b57600080fd5b8235915060208301356115ad81611af0565b809150509250929050565b600081518084526115d08160208601602086016119e9565b601f01601f19169290920160200192915050565b600083516115f68184602088016119e9565b83519083019061160a8183602088016119e9565b01949350505050565b600083516116258184602088016119e9565b7f203c75736520687265663d222300000000000000000000000000000000000000908301908152835161165f81600d8401602088016119e9565b601160f91b600d9290910191820152600e01949350505050565b6000825161168b8184602087016119e9565b7f202f3e0a00000000000000000000000000000000000000000000000000000000920191825250600401919050565b600083516116cc8184602088016119e9565b7f2066696c6c3d220000000000000000000000000000000000000000000000000090830190815283516117068160078401602088016119e9565b601160f91b60079290910191820152600801949350505050565b600084516117328184602089016119e9565b7f3c672069643d2200000000000000000000000000000000000000000000000000908301908152845161176c8160078401602089016119e9565b7f22203e0a000000000000000000000000000000000000000000000000000000006007929091019182015283516117aa81600b8401602088016119e9565b7f3c2f673e0a000000000000000000000000000000000000000000000000000000600b929091019182015260100195945050505050565b600083516117f38184602088016119e9565b7f207472616e73666f726d3d220000000000000000000000000000000000000000908301908152835161182d81600c8401602088016119e9565b601160f91b600c9290910191820152600d01949350505050565b600082516118598184602087016119e9565b9190910192915050565b7f636f6d700000000000000000000000000000000000000000000000000000000081526000825161189b8160048501602087016119e9565b9190910160040192915050565b6020815260006108da60208301846115b8565b6040815260006118ce60408301856115b8565b82810360208401526118e081856115b8565b95945050505050565b60208152600082516040602084015261190560608401826115b8565b90506001600160a01b0360208501511660408401528091505092915050565b6040516080810167ffffffffffffffff8111828210171561194757611947611ac5565b60405290565b604051601f8201601f1916810167ffffffffffffffff8111828210171561197657611976611ac5565b604052919050565b600067ffffffffffffffff82111561199857611998611ac5565b50601f01601f191660200190565b600082198211156119b9576119b9611a83565b500190565b6000826119cd576119cd611a99565b500490565b6000828210156119e4576119e4611a83565b500390565b60005b83811015611a045781810151838201526020016119ec565b83811115611a13576000848401525b50505050565b600181811c90821680611a2d57607f821691505b60208210811415611a4e57634e487b7160e01b600052602260045260246000fd5b50919050565b6000600019821415611a6857611a68611a83565b5060010190565b600082611a7e57611a7e611a99565b500690565b634e487b7160e01b600052601160045260246000fd5b634e487b7160e01b600052601260045260246000fd5b634e487b7160e01b600052603260045260246000fd5b634e487b7160e01b600052604160045260246000fd5b6001600160a01b0381168114610fc557600080fd5b8015158114610fc557600080fdfea264697066735822122029574c022604004f25e1c92be61e7092e0c746b1458dbb4a57c3cd83efb7234a64736f6c63430008060033",
  "linkReferences": {},
  "deployedLinkReferences": {}
}