{
  "_format": "hh-sol-artifact-1",
  "contractName": "AssetStore",
  "sourceName": "contracts/AssetStore.sol",
  "abi": [
    {
      "anonymous": false,
      "inputs": [
        {
          "indexed": false,
          "internalType": "address",
          "name": "from",
          "type": "address"
        },
        {
          "indexed": false,
          "internalType": "uint256",
          "name": "assetId",
          "type": "uint256"
        }
      ],
      "name": "AssetRegistered",
      "type": "event"
    },
    {
      "anonymous": false,
      "inputs": [
        {
          "indexed": false,
          "internalType": "string",
          "name": "group",
          "type": "string"
        },
        {
          "indexed": false,
          "internalType": "string",
          "name": "category",
          "type": "string"
        }
      ],
      "name": "CategoryAdded",
      "type": "event"
    },
    {
      "anonymous": false,
      "inputs": [
        {
          "indexed": false,
          "internalType": "string",
          "name": "group",
          "type": "string"
        }
      ],
      "name": "GroupAdded",
      "type": "event"
    },
    {
      "anonymous": false,
      "inputs": [
        {
          "indexed": true,
          "internalType": "address",
          "name": "previousOwner",
          "type": "address"
        },
        {
          "indexed": true,
          "internalType": "address",
          "name": "newOwner",
          "type": "address"
        }
      ],
      "name": "OwnershipTransferred",
      "type": "event"
    },
    {
      "inputs": [],
      "name": "decoder",
      "outputs": [
        {
          "internalType": "contract IPathDecoder",
          "name": "",
          "type": "address"
        }
      ],
      "stateMutability": "view",
      "type": "function"
    },
    {
      "inputs": [
        {
          "internalType": "uint256",
          "name": "_assetId",
          "type": "uint256"
        }
      ],
      "name": "generateSVG",
      "outputs": [
        {
          "internalType": "string",
          "name": "",
          "type": "string"
        }
      ],
      "stateMutability": "view",
      "type": "function"
    },
    {
      "inputs": [
        {
          "internalType": "uint256",
          "name": "_assetId",
          "type": "uint256"
        },
        {
          "internalType": "string",
          "name": "_tag",
          "type": "string"
        }
      ],
      "name": "generateSVGPart",
      "outputs": [
        {
          "internalType": "string",
          "name": "",
          "type": "string"
        }
      ],
      "stateMutability": "view",
      "type": "function"
    },
    {
      "inputs": [],
      "name": "getAssetCount",
      "outputs": [
        {
          "internalType": "uint256",
          "name": "",
          "type": "uint256"
        }
      ],
      "stateMutability": "view",
      "type": "function"
    },
    {
      "inputs": [
        {
          "internalType": "string",
          "name": "_group",
          "type": "string"
        },
        {
          "internalType": "string",
          "name": "_category",
          "type": "string"
        }
      ],
      "name": "getAssetCountInCategory",
      "outputs": [
        {
          "internalType": "uint32",
          "name": "",
          "type": "uint32"
        }
      ],
      "stateMutability": "view",
      "type": "function"
    },
    {
      "inputs": [
        {
          "internalType": "string",
          "name": "_group",
          "type": "string"
        },
        {
          "internalType": "string",
          "name": "_category",
          "type": "string"
        },
        {
          "internalType": "uint32",
          "name": "_assetIndex",
          "type": "uint32"
        }
      ],
      "name": "getAssetIdInCategory",
      "outputs": [
        {
          "internalType": "uint256",
          "name": "",
          "type": "uint256"
        }
      ],
      "stateMutability": "view",
      "type": "function"
    },
    {
      "inputs": [
        {
          "internalType": "string",
          "name": "_group",
          "type": "string"
        },
        {
          "internalType": "string",
          "name": "_category",
          "type": "string"
        },
        {
          "internalType": "string",
          "name": "_name",
          "type": "string"
        }
      ],
      "name": "getAssetIdWithName",
      "outputs": [
        {
          "internalType": "uint256",
          "name": "",
          "type": "uint256"
        }
      ],
      "stateMutability": "view",
      "type": "function"
    },
    {
      "inputs": [
        {
          "internalType": "uint256",
          "name": "_assetId",
          "type": "uint256"
        }
      ],
      "name": "getAttributes",
      "outputs": [
        {
          "components": [
            {
              "internalType": "string",
              "name": "group",
              "type": "string"
            },
            {
              "internalType": "string",
              "name": "category",
              "type": "string"
            },
            {
              "internalType": "string",
              "name": "name",
              "type": "string"
            },
            {
              "internalType": "string",
              "name": "tag",
              "type": "string"
            },
            {
              "internalType": "string",
              "name": "minter",
              "type": "string"
            },
            {
              "internalType": "address",
              "name": "soulbound",
              "type": "address"
            },
            {
              "internalType": "bytes",
              "name": "metadata",
              "type": "bytes"
            },
            {
              "internalType": "uint16",
              "name": "width",
              "type": "uint16"
            },
            {
              "internalType": "uint16",
              "name": "height",
              "type": "uint16"
            }
          ],
          "internalType": "struct IAssetStore.AssetAttributes",
          "name": "",
          "type": "tuple"
        }
      ],
      "stateMutability": "view",
      "type": "function"
    },
    {
      "inputs": [
        {
          "internalType": "string",
          "name": "_group",
          "type": "string"
        }
      ],
      "name": "getCategoryCount",
      "outputs": [
        {
          "internalType": "uint32",
          "name": "",
          "type": "uint32"
        }
      ],
      "stateMutability": "view",
      "type": "function"
    },
    {
      "inputs": [
        {
          "internalType": "string",
          "name": "_group",
          "type": "string"
        },
        {
          "internalType": "uint32",
          "name": "_categoryIndex",
          "type": "uint32"
        }
      ],
      "name": "getCategoryNameAtIndex",
      "outputs": [
        {
          "internalType": "string",
          "name": "",
          "type": "string"
        }
      ],
      "stateMutability": "view",
      "type": "function"
    },
    {
      "inputs": [],
      "name": "getGroupCount",
      "outputs": [
        {
          "internalType": "uint32",
          "name": "",
          "type": "uint32"
        }
      ],
      "stateMutability": "view",
      "type": "function"
    },
    {
      "inputs": [
        {
          "internalType": "uint32",
          "name": "_groupIndex",
          "type": "uint32"
        }
      ],
      "name": "getGroupNameAtIndex",
      "outputs": [
        {
          "internalType": "string",
          "name": "",
          "type": "string"
        }
      ],
      "stateMutability": "view",
      "type": "function"
    },
    {
      "inputs": [
        {
          "internalType": "uint256",
          "name": "_assetId",
          "type": "uint256"
        }
      ],
      "name": "getRawAsset",
      "outputs": [
        {
          "components": [
            {
              "internalType": "uint32",
              "name": "groupId",
              "type": "uint32"
            },
            {
              "internalType": "uint32",
              "name": "categoryId",
              "type": "uint32"
            },
            {
              "internalType": "string",
              "name": "name",
              "type": "string"
            },
            {
              "internalType": "string",
              "name": "minter",
              "type": "string"
            },
            {
              "internalType": "bytes",
              "name": "metadata",
              "type": "bytes"
            },
            {
              "internalType": "address",
              "name": "soulbound",
              "type": "address"
            },
            {
              "internalType": "uint256[]",
              "name": "partsIds",
              "type": "uint256[]"
            }
          ],
          "internalType": "struct AssetStoreCore.Asset",
          "name": "",
          "type": "tuple"
        }
      ],
      "stateMutability": "view",
      "type": "function"
    },
    {
      "inputs": [
        {
          "internalType": "uint256",
          "name": "_partId",
          "type": "uint256"
        }
      ],
      "name": "getRawPart",
      "outputs": [
        {
          "components": [
            {
              "internalType": "bytes",
              "name": "body",
              "type": "bytes"
            },
            {
              "internalType": "string",
              "name": "color",
              "type": "string"
            }
          ],
          "internalType": "struct IAssetStoreRegistry.Part",
          "name": "",
          "type": "tuple"
        }
      ],
      "stateMutability": "view",
      "type": "function"
    },
    {
      "inputs": [],
      "name": "owner",
      "outputs": [
        {
          "internalType": "address",
          "name": "",
          "type": "address"
        }
      ],
      "stateMutability": "view",
      "type": "function"
    },
    {
      "inputs": [
        {
          "components": [
            {
              "internalType": "string",
              "name": "group",
              "type": "string"
            },
            {
              "internalType": "string",
              "name": "category",
              "type": "string"
            },
            {
              "internalType": "string",
              "name": "name",
              "type": "string"
            },
            {
              "internalType": "string",
              "name": "minter",
              "type": "string"
            },
            {
              "internalType": "address",
              "name": "soulbound",
              "type": "address"
            },
            {
              "internalType": "bytes",
              "name": "metadata",
              "type": "bytes"
            },
            {
              "components": [
                {
                  "internalType": "bytes",
                  "name": "body",
                  "type": "bytes"
                },
                {
                  "internalType": "string",
                  "name": "color",
                  "type": "string"
                }
              ],
              "internalType": "struct IAssetStoreRegistry.Part[]",
              "name": "parts",
              "type": "tuple[]"
            }
          ],
          "internalType": "struct IAssetStoreRegistry.AssetInfo",
          "name": "_assetInfo",
          "type": "tuple"
        }
      ],
      "name": "registerAsset",
      "outputs": [
        {
          "internalType": "uint256",
          "name": "",
          "type": "uint256"
        }
      ],
      "stateMutability": "nonpayable",
      "type": "function"
    },
    {
      "inputs": [
        {
          "components": [
            {
              "internalType": "string",
              "name": "group",
              "type": "string"
            },
            {
              "internalType": "string",
              "name": "category",
              "type": "string"
            },
            {
              "internalType": "string",
              "name": "name",
              "type": "string"
            },
            {
              "internalType": "string",
              "name": "minter",
              "type": "string"
            },
            {
              "internalType": "address",
              "name": "soulbound",
              "type": "address"
            },
            {
              "internalType": "bytes",
              "name": "metadata",
              "type": "bytes"
            },
            {
              "components": [
                {
                  "internalType": "bytes",
                  "name": "body",
                  "type": "bytes"
                },
                {
                  "internalType": "string",
                  "name": "color",
                  "type": "string"
                }
              ],
              "internalType": "struct IAssetStoreRegistry.Part[]",
              "name": "parts",
              "type": "tuple[]"
            }
          ],
          "internalType": "struct IAssetStoreRegistry.AssetInfo[]",
          "name": "_assetInfos",
          "type": "tuple[]"
        }
      ],
      "name": "registerAssets",
      "outputs": [],
      "stateMutability": "nonpayable",
      "type": "function"
    },
    {
      "inputs": [],
      "name": "renounceOwnership",
      "outputs": [],
      "stateMutability": "nonpayable",
      "type": "function"
    },
    {
      "inputs": [
        {
          "internalType": "bool",
          "name": "_disable",
          "type": "bool"
        }
      ],
      "name": "setDisableWhitelist",
      "outputs": [],
      "stateMutability": "nonpayable",
      "type": "function"
    },
    {
      "inputs": [
        {
          "internalType": "uint256",
          "name": "_assetId",
          "type": "uint256"
        },
        {
          "internalType": "bool",
          "name": "_status",
          "type": "bool"
        }
      ],
      "name": "setDisabled",
      "outputs": [],
      "stateMutability": "nonpayable",
      "type": "function"
    },
    {
      "inputs": [
        {
          "internalType": "contract IPathDecoder",
          "name": "_decoder",
          "type": "address"
        }
      ],
      "name": "setPathDecoder",
      "outputs": [],
      "stateMutability": "nonpayable",
      "type": "function"
    },
    {
      "inputs": [
        {
          "internalType": "contract IStringValidator",
          "name": "_validator",
          "type": "address"
        }
      ],
      "name": "setValidator",
      "outputs": [],
      "stateMutability": "nonpayable",
      "type": "function"
    },
    {
      "inputs": [
        {
          "internalType": "address",
          "name": "_address",
          "type": "address"
        },
        {
          "internalType": "bool",
          "name": "_status",
          "type": "bool"
        }
      ],
      "name": "setWhitelistStatus",
      "outputs": [],
      "stateMutability": "nonpayable",
      "type": "function"
    },
    {
      "inputs": [
        {
          "internalType": "address",
          "name": "newOwner",
          "type": "address"
        }
      ],
      "name": "transferOwnership",
      "outputs": [],
      "stateMutability": "nonpayable",
      "type": "function"
    },
    {
      "inputs": [],
      "name": "validator",
      "outputs": [
        {
          "internalType": "contract IStringValidator",
          "name": "",
          "type": "address"
        }
      ],
      "stateMutability": "view",
      "type": "function"
    }
  ],
  "bytecode": "0x608060405260016004819055600655600d805460ff191690553480156200002557600080fd5b506200003133620000e9565b6040516200003f9062000139565b604051809103906000f0801580156200005c573d6000803e3d6000fd5b50600180546001600160a01b0319166001600160a01b03929092169190911790556040516200008b9062000147565b604051809103906000f080158015620000a8573d6000803e3d6000fd5b50600280546001600160a01b0319166001600160a01b0392909216919091179055336000908152600c60205260409020805460ff1916600117905562000155565b600080546001600160a01b038381166001600160a01b0319831681178455604051919092169283917f8be0079c531659141344cd1fd0a4f28419497f9722a3daafe3b4186f6b6457e09190a35050565b6104a9806200354383390190565b61082e80620039ec83390190565b6133de80620001656000396000f3fe608060405234801561001057600080fd5b50600436106101a35760003560e01c80635c73924c116100ee5780639cb3300511610097578063d4f056d411610071578063d4f056d41461037f578063eedf630914610392578063ef476642146103b2578063f2fde38b146103c557600080fd5b80639cb3300514610344578063a0aead4d14610357578063b688a0e21461035f57600080fd5b8063715018a6116100c8578063715018a6146103185780637805544c146103205780638da5cb5b1461033357600080fd5b80635c73924c146102df5780636613845c146102f25780636dcee4ca1461030557600080fd5b80633a5381b511610150578063515f28cb1161012a578063515f28cb146102a6578063587d62c2146102b95780635b7eea86146102cc57600080fd5b80633a5381b51461023a5780634378a6e314610265578063468823e21461028557600080fd5b80631327d3d8116101815780631327d3d8146101f457806315ea29be1461020757806334320bf11461021a57600080fd5b806306545a93146101a85780630727ca4c146101cc5780630c424284146101e1575b600080fd5b60085463ffffffff165b60405163ffffffff90911681526020015b60405180910390f35b6101df6101da3660046127e7565b6103dd565b005b6101df6101ef3660046126f6565b61044f565b6101df6102023660046126d9565b6104d4565b6101df610215366004612ac9565b61055d565b61022d610228366004612aee565b610642565b6040516101c39190612f1d565b60015461024d906001600160a01b031681565b6040516001600160a01b0390911681526020016101c3565b610278610273366004612ab0565b6106c7565b6040516101c39190612f55565b6102986102933660046129b9565b610844565b6040519081526020016101c3565b6101b26102b43660046128cd565b61091c565b6101df6102c736600461272f565b610983565b6102986102da366004612a7b565b610a5a565b61022d6102ed366004612b2b565b610b00565b6101df6103003660046126d9565b610b0d565b61022d610313366004612ab0565b610b96565b6101df610c47565b61022d61032e366004612a2d565b610cad565b6000546001600160a01b031661024d565b60025461024d906001600160a01b031681565b610298610cf1565b61037261036d366004612ab0565b610d5b565b6040516101c3919061310b565b6101b261038d366004612898565b610dd2565b6103a56103a0366004612ab0565b610e0c565b6040516101c39190613051565b6102986103c0366004612931565b610ebf565b6101df6103d33660046126d9565b610f45565b905090565b6000546001600160a01b0316331461043c5760405162461bcd60e51b815260206004820181905260248201527f4f776e61626c653a2063616c6c6572206973206e6f7420746865206f776e657260448201526064015b60405180910390fd5b600d805460ff1916911515919091179055565b6000546001600160a01b031633146104a95760405162461bcd60e51b815260206004820181905260248201527f4f776e61626c653a2063616c6c6572206973206e6f7420746865206f776e65726044820152606401610433565b6001600160a01b03919091166000908152600c60205260409020805460ff1916911515919091179055565b6000546001600160a01b0316331461052e5760405162461bcd60e51b815260206004820181905260248201527f4f776e61626c653a2063616c6c6572206973206e6f7420746865206f776e65726044820152606401610433565b6001805473ffffffffffffffffffffffffffffffffffffffff19166001600160a01b0392909216919091179055565b8160008111801561056f575060045481105b6105c75760405162461bcd60e51b815260206004820152602360248201527f417373657453746f72653a2061737365744964206973206f7574206f662072616044820152626e676560e81b6064820152608401610433565b6000546001600160a01b031633146106215760405162461bcd60e51b815260206004820181905260248201527f4f776e61626c653a2063616c6c6572206973206e6f7420746865206f776e65726044820152606401610433565b506000918252600e6020526040909120805460ff1916911515919091179055565b6000828152600e6020526040902054606090839060ff161515600114156106b55760405162461bcd60e51b815260206004820152602160248201527f417373657453746f72653a207468697320617373657420697320646961626c656044820152601960fa1b6064820152608401610433565b6106bf8484611027565b949350505050565b610727604051806101200160405280606081526020016060815260200160608152602001606081526020016060815260200160006001600160a01b0316815260200160608152602001600061ffff168152602001600061ffff1681525090565b6000610732836111d4565b9050610794604051806101200160405280606081526020016060815260200160608152602001606081526020016060815260200160006001600160a01b0316815260200160608152602001600061ffff168152602001600061ffff1681525090565b604080830151908201526107a7846114da565b60608083019190915260a0808401516001600160a01b03169083015282015160808083019190915282015160c082015281516107f1906107e990600190613250565b60079061150b565b815260208201516108289061080890600190613250565b835163ffffffff9081166000908152600a60205260409020919061150b16565b602082015261040060e082018190526101008201529392505050565b600080610852600786611637565b63ffffffff8082166000908152600a60209081526040808320600b909252822093945092909182906108889085908a9061163716565b63ffffffff9081168252602082019290925260400160002060018101549092508116908616106108fa5760405162461bcd60e51b815260206004820152601e60248201527f546865206173736574496e646578206973206f7574206f662072616e676500006044820152606401610433565b63ffffffff851660009081526020919091526040902054925050509392505050565b60008061092a600785611637565b63ffffffff8082166000908152600a60209081526040808320600b9092528220939450929161095d908490889061163716565b63ffffffff90811682526020820192909252604001600020600101541695945050505050565b600d5460ff16806109a35750336000908152600c602052604090205460ff165b610a155760405162461bcd60e51b815260206004820152603160248201527f417373657453746f72653a205468652073656e646572206d757374206265206960448201527f6e20746865207768697465206c6973742e0000000000000000000000000000006064820152608401610433565b60005b8151811015610a5657610a43828281518110610a3657610a36613359565b60200260200101516116d7565b5080610a4e816132da565b915050610a18565b5050565b600d5460009060ff1680610a7d5750336000908152600c602052604090205460ff165b610aef5760405162461bcd60e51b815260206004820152603160248201527f417373657453746f72653a205468652073656e646572206d757374206265206960448201527f6e20746865207768697465206c6973742e0000000000000000000000000000006064820152608401610433565b610af8826116d7565b90505b919050565b6060610af860078361150b565b6000546001600160a01b03163314610b675760405162461bcd60e51b815260206004820181905260248201527f4f776e61626c653a2063616c6c6572206973206e6f7420746865206f776e65726044820152606401610433565b6002805473ffffffffffffffffffffffffffffffffffffffff19166001600160a01b0392909216919091179055565b6000818152600e6020526040902054606090829060ff16151560011415610c095760405162461bcd60e51b815260206004820152602160248201527f417373657453746f72653a207468697320617373657420697320646961626c656044820152601960fa1b6064820152608401610433565b6000610c1d84610c18866114da565b611027565b604051602001610c2d9190612d6a565b60408051601f198184030181529190529250505b50919050565b6000546001600160a01b03163314610ca15760405162461bcd60e51b815260206004820181905260248201527f4f776e61626c653a2063616c6c6572206973206e6f7420746865206f776e65726044820152606401610433565b610cab6000611ca4565b565b6060610cea82600a6000610cc2600788611637565b63ffffffff1663ffffffff16815260200190815260200160002061150b90919063ffffffff16565b9392505050565b600080546001600160a01b03163314610d4c5760405162461bcd60e51b815260206004820181905260248201527f4f776e61626c653a2063616c6c6572206973206e6f7420746865206f776e65726044820152606401610433565b60016004546103d89190613239565b60408051808201909152606080825260208201526000546001600160a01b03163314610dc95760405162461bcd60e51b815260206004820181905260248201527f4f776e61626c653a2063616c6c6572206973206e6f7420746865206f776e65726044820152606401610433565b610af882611d01565b6000610af8600a82610de5600786611637565b63ffffffff1663ffffffff1681526020019081526020016000206001015463ffffffff1690565b6040805160e08101825260008082526020820181905260609282018390528282018390526080820183905260a082015260c0810191909152336001600160a01b0316610e606000546001600160a01b031690565b6001600160a01b031614610eb65760405162461bcd60e51b815260206004820181905260248201527f4f776e61626c653a2063616c6c6572206973206e6f7420746865206f776e65726044820152606401610433565b610af8826111d4565b600080610ecd600786611637565b63ffffffff8082166000908152600a60209081526040808320600b90925282209394509291610f00908490899061163716565b63ffffffff1663ffffffff16815260200190815260200160002060020184604051610f2b9190612c93565b908152602001604051809103902054925050509392505050565b6000546001600160a01b03163314610f9f5760405162461bcd60e51b815260206004820181905260248201527f4f776e61626c653a2063616c6c6572206973206e6f7420746865206f776e65726044820152606401610433565b6001600160a01b03811661101b5760405162461bcd60e51b815260206004820152602660248201527f4f776e61626c653a206e6577206f776e657220697320746865207a65726f206160448201527f64647265737300000000000000000000000000000000000000000000000000006064820152608401610433565b61102481611ca4565b50565b60606000611034846111d4565b60c081015190915060008461104884611ead565b604051602001611059929190612e72565b604051602081830303815290604052905060005b82518110156111a857600061109a84838151811061108d5761108d613359565b6020026020010151611d01565b90506060600082602001515111156110d1576020808301516040516110bf9201612e22565b60405160208183030381529060405290505b60025482516040517fc25ddce000000000000000000000000000000000000000000000000000000000815286926001600160a01b03169163c25ddce09161111b9190600401612f1d565b60006040518083038186803b15801561113357600080fd5b505afa158015611147573d6000803e3d6000fd5b505050506040513d6000823e601f3d908101601f1916820160405261116f9190810190612821565b8260405160200161118293929190612bad565b6040516020818303038152906040529350505080806111a0906132da565b91505061106d565b816040516020016111b99190612c52565b60408051808303601f19018152919052979650505050505050565b6040805160e08101825260008082526020820181905260609282018390528282018390526080820183905260a082015260c08101919091528160008111801561121e575060045481105b6112765760405162461bcd60e51b815260206004820152602360248201527f417373657453746f72653a2061737365744964206973206f7574206f662072616044820152626e676560e81b6064820152608401610433565b600083815260036020908152604091829020825160e081018452815463ffffffff8082168352640100000000909104169281019290925260018101805492939192918401916112c4906132a5565b80601f01602080910402602001604051908101604052809291908181526020018280546112f0906132a5565b801561133d5780601f106113125761010080835404028352916020019161133d565b820191906000526020600020905b81548152906001019060200180831161132057829003601f168201915b50505050508152602001600282018054611356906132a5565b80601f0160208091040260200160405190810160405280929190818152602001828054611382906132a5565b80156113cf5780601f106113a4576101008083540402835291602001916113cf565b820191906000526020600020905b8154815290600101906020018083116113b257829003601f168201915b505050505081526020016003820180546113e8906132a5565b80601f0160208091040260200160405190810160405280929190818152602001828054611414906132a5565b80156114615780601f1061143657610100808354040283529160200191611461565b820191906000526020600020905b81548152906001019060200180831161144457829003601f168201915b505050918352505060048201546001600160a01b031660208083019190915260058301805460408051828502810185018252828152940193928301828280156114c957602002820191906000526020600020905b8154815260200190600101908083116114b5575b505050505081525050915050919050565b60606114e582611f2a565b6040516020016114f59190612d25565b6040516020818303038152906040529050919050565b600182015460609063ffffffff908116908316106115915760405162461bcd60e51b815260206004820152603060248201527f537472696e675365742e6e616d654174496e6465783a2054686520696e64657860448201527f206973206f7574206f662072616e6765000000000000000000000000000000006064820152608401610433565b63ffffffff8216600090815260208490526040902080546115b1906132a5565b80601f01602080910402602001604051908101604052809291908181526020018280546115dd906132a5565b801561162a5780601f106115ff5761010080835404028352916020019161162a565b820191906000526020600020905b81548152906001019060200180831161160d57829003601f168201915b5050505050905092915050565b600080836002018360405161164c9190612c93565b9081526040519081900360200190205463ffffffff16905080610cea5760405162461bcd60e51b815260206004820152602c60248201527f537472696e675365743a2074686520737065636966696564206e616d6520646f60448201527f6573206e6f7420657869737400000000000000000000000000000000000000006064820152608401610433565b60c0810151516000908290825b818110156117f75760008360c00151828151811061170457611704613359565b6020908102919091018101516001549181015160405163c16e50ef60e01b81529193506001600160a01b039092169163c16e50ef916117469190600401612f1d565b602060405180830381600087803b15801561176057600080fd5b505af1158015611774573d6000803e3d6000fd5b505050506040513d601f19601f820116820180604052508101906117989190612804565b6117e45760405162461bcd60e51b815260206004820152601760248201527f496e76616c69642041737365744461746120436f6c6f720000000000000000006044820152606401610433565b50806117ef816132da565b9150506116e4565b600154604080850151905163c16e50ef60e01b81526001600160a01b039092169163c16e50ef9161182a91600401612f1d565b602060405180830381600087803b15801561184457600080fd5b505af1158015611858573d6000803e3d6000fd5b505050506040513d601f19601f8201168201806040525081019061187c9190612804565b6118c85760405162461bcd60e51b815260206004820152601660248201527f496e76616c696420417373657444617461204e616d65000000000000000000006044820152606401610433565b60006118d7866000015161205c565b905060006118ee87600001518389602001516120c6565b60c08801515190915060008167ffffffffffffffff8111156119125761191261336f565b60405190808252806020026020018201604052801561193b578160200160208202803683370190505b50905060005b8281101561199e5761196f8a60c00151828151811061196257611962613359565b602002602001015161214f565b82828151811061198157611981613359565b602090810291909101015280611996816132da565b915050611941565b60048054600091826119af836132da565b90915550600081815260036020908152604091829020918e0151805193945091926119e09260018501920190612390565b5060808c015160048201805473ffffffffffffffffffffffffffffffffffffffff19166001600160a01b0390921691909117905560608c0151518015611ab4576020811115611a975760405162461bcd60e51b815260206004820152603460248201527f417373657453676f72653a205f726567697374657241737365742c206d696e7460448201527f6572206e616d6520697320746f6f206c6f6e672e0000000000000000000000006064820152608401610433565b60608d01518051611ab2916002850191602090910190612390565b505b60a08d01515115611adc5760a08d01518051611ada916003850191602090910190612390565b505b815463ffffffff8881166401000000000267ffffffffffffffff19909216908a16171782558451611b169060058401906020880190612414565b5063ffffffff8089166000908152600b60209081526040808320938b1683529290528190208e820151915190916002830191611b529190612c93565b908152602001604051809103902054600014611bd65760405162461bcd60e51b815260206004820152603b60248201527f417373657420616c72656164792065786973747320776974682074686520736160448201527f6d652067726f75702c2063617465676f727920616e64206e616d6500000000006064820152608401610433565b6001810180548591839160009163ffffffff9091169082611bf6836132f5565b91906101000a81548163ffffffff021916908363ffffffff16021790555063ffffffff1663ffffffff1681526020019081526020016000208190555083816002018f60400151604051611c499190612c93565b9081526040805160209281900383018120939093553383529082018690527ffd64e3f1068245597a589d8b057edbd3d3c312207d5c6d0d770825f68604ff1a910160405180910390a150919c9b505050505050505050505050565b600080546001600160a01b0383811673ffffffffffffffffffffffffffffffffffffffff19831681178455604051919092169283917f8be0079c531659141344cd1fd0a4f28419497f9722a3daafe3b4186f6b6457e09190a35050565b604080518082019091526060808252602082015281600081118015611d27575060065481105b611d735760405162461bcd60e51b815260206004820152601660248201527f706172744964206973206f7574206f662072616e6765000000000000000000006044820152606401610433565b600083815260056020526040908190208151808301909252805482908290611d9a906132a5565b80601f0160208091040260200160405190810160405280929190818152602001828054611dc6906132a5565b8015611e135780601f10611de857610100808354040283529160200191611e13565b820191906000526020600020905b815481529060010190602001808311611df657829003601f168201915b50505050508152602001600182018054611e2c906132a5565b80601f0160208091040260200160405190810160405280929190818152602001828054611e58906132a5565b80156114c95780601f10611e7a576101008083540402835291602001916114c9565b820191906000526020600020905b815481529060010190602001808311611e885750505091909252509195945050505050565b60606000611ec5600184600001516107e99190613250565b905080611efc60018560200151611edc9190613250565b855163ffffffff9081166000908152600a60205260409020919061150b16565b8460400151604051602001611f1393929190612caf565b604051602081830303815290604052915050919050565b606081611f6a57505060408051808201909152600181527f3000000000000000000000000000000000000000000000000000000000000000602082015290565b8160005b8115611f945780611f7e816132da565b9150611f8d9050600a83613225565b9150611f6e565b60008167ffffffffffffffff811115611faf57611faf61336f565b6040519080825280601f01601f191660200182016040528015611fd9576020820181803683370190505b5090505b84156106bf57611fee600183613239565b9150611ffb600a86613319565b61200690603061320d565b60f81b81838151811061201b5761201b613359565b60200101907effffffffffffffffffffffffffffffffffffffffffffffffffffffffffffff1916908160001a905350612055600a86613225565b9450611fdd565b6001546000908190819061207d9060079086906001600160a01b03166121be565b9150915080156120bf577ff38f46310740c7f6f3e724364a429e671b125298f7a65e69fc18ff94a1e2d047846040516120b69190612f1d565b60405180910390a15b5092915050565b63ffffffff8083166000908152600a60205260408120600154919290918391829161210191859188916001600160a01b03909116906121be16565b915091508015612145577fcbc1b8c1fb300e15a9e99dc508aecdff1352f0fad4a5e4b7832d41e369635c03878660405161213c929190612f30565b60405180910390a15b5095945050505050565b6000816005600060066000815480929190612169906132da565b90915550815260208082019290925260400160002082518051919261219392849290910190612390565b5060208281015180516121ac9260018501920190612390565b5050600654610af89150600190613239565b600080600085600201856040516121d59190612c93565b9081526040519081900360200190205463ffffffff16905080156121fe57915060009050612388565b60405163c16e50ef60e01b81526001600160a01b0385169063c16e50ef9061222a908890600401612f1d565b602060405180830381600087803b15801561224457600080fd5b505af1158015612258573d6000803e3d6000fd5b505050506040513d601f19601f8201168201806040525081019061227c9190612804565b6122c85760405162461bcd60e51b815260206004820152601f60248201527f537472696e675365742e67657449643a20496e76616c696420537472696e67006044820152606401610433565b6001860180548691889160009163ffffffff90911690826122e8836132f5565b91906101000a81548163ffffffff021916908363ffffffff16021790555063ffffffff1663ffffffff1681526020019081526020016000209080519060200190612333929190612390565b5050600185015460405163ffffffff9091169081906002880190612358908890612c93565b908152604051908190036020019020805463ffffffff9290921663ffffffff199092169190911790559150600190505b935093915050565b82805461239c906132a5565b90600052602060002090601f0160209004810192826123be5760008555612404565b82601f106123d757805160ff1916838001178555612404565b82800160010185558215612404579182015b828111156124045782518255916020019190600101906123e9565b5061241092915061244e565b5090565b82805482825590600052602060002090810192821561240457916020028201828111156124045782518255916020019190600101906123e9565b5b80821115612410576000815560010161244f565b8035610afb81613385565b600082601f83011261247f57600080fd5b8135602061249461248f836131c1565b613190565b80838252828201915082860187848660051b89010111156124b457600080fd5b60005b8581101561255357813567ffffffffffffffff808211156124d757600080fd5b908901906040828c03601f19018113156124f057600080fd5b6124f8613144565b888401358381111561250957600080fd5b6125178e8b83880101612560565b82525090830135908282111561252c57600080fd5b61253a8d8a84870101612560565b818a0152875250505092840192908401906001016124b7565b5090979650505050505050565b600082601f83011261257157600080fd5b813561257f61248f826131e5565b81815284602083860101111561259457600080fd5b816020850160208301376000918101602001919091529392505050565b600060e082840312156125c357600080fd5b6125cb61316d565b9050813567ffffffffffffffff808211156125e557600080fd5b6125f185838601612560565b8352602084013591508082111561260757600080fd5b61261385838601612560565b6020840152604084013591508082111561262c57600080fd5b61263885838601612560565b6040840152606084013591508082111561265157600080fd5b61265d85838601612560565b606084015261266e60808501612463565b608084015260a084013591508082111561268757600080fd5b61269385838601612560565b60a084015260c08401359150808211156126ac57600080fd5b506126b98482850161246e565b60c08301525092915050565b803563ffffffff81168114610afb57600080fd5b6000602082840312156126eb57600080fd5b8135610cea81613385565b6000806040838503121561270957600080fd5b823561271481613385565b915060208301356127248161339a565b809150509250929050565b6000602080838503121561274257600080fd5b823567ffffffffffffffff8082111561275a57600080fd5b818501915085601f83011261276e57600080fd5b813561277c61248f826131c1565b80828252858201915085850189878560051b880101111561279c57600080fd5b6000805b858110156127d7578235878111156127b6578283fd5b6127c48d8b838c01016125b1565b86525093880193918801916001016127a0565b50919a9950505050505050505050565b6000602082840312156127f957600080fd5b8135610cea8161339a565b60006020828403121561281657600080fd5b8151610cea8161339a565b60006020828403121561283357600080fd5b815167ffffffffffffffff81111561284a57600080fd5b8201601f8101841361285b57600080fd5b805161286961248f826131e5565b81815285602083850101111561287e57600080fd5b61288f826020830160208601613275565b95945050505050565b6000602082840312156128aa57600080fd5b813567ffffffffffffffff8111156128c157600080fd5b6106bf84828501612560565b600080604083850312156128e057600080fd5b823567ffffffffffffffff808211156128f857600080fd5b61290486838701612560565b9350602085013591508082111561291a57600080fd5b5061292785828601612560565b9150509250929050565b60008060006060848603121561294657600080fd5b833567ffffffffffffffff8082111561295e57600080fd5b61296a87838801612560565b9450602086013591508082111561298057600080fd5b61298c87838801612560565b935060408601359150808211156129a257600080fd5b506129af86828701612560565b9150509250925092565b6000806000606084860312156129ce57600080fd5b833567ffffffffffffffff808211156129e657600080fd5b6129f287838801612560565b94506020860135915080821115612a0857600080fd5b50612a1586828701612560565b925050612a24604085016126c5565b90509250925092565b60008060408385031215612a4057600080fd5b823567ffffffffffffffff811115612a5757600080fd5b612a6385828601612560565b925050612a72602084016126c5565b90509250929050565b600060208284031215612a8d57600080fd5b813567ffffffffffffffff811115612aa457600080fd5b6106bf848285016125b1565b600060208284031215612ac257600080fd5b5035919050565b60008060408385031215612adc57600080fd5b8235915060208301356127248161339a565b60008060408385031215612b0157600080fd5b82359150602083013567ffffffffffffffff811115612b1f57600080fd5b61292785828601612560565b600060208284031215612b3d57600080fd5b610cea826126c5565b600081518084526020808501945080840160005b83811015612b7657815187529582019590820190600101612b5a565b509495945050505050565b60008151808452612b99816020860160208601613275565b601f01601f19169290920160200192915050565b60008451612bbf818460208901613275565b7f20203c7061746820643d220000000000000000000000000000000000000000009083019081528451612bf981600b840160208901613275565b601160f91b600b92909101918201528351612c1b81600c840160208801613275565b7f202f3e0a00000000000000000000000000000000000000000000000000000000600c929091019182015260100195945050505050565b60008251612c64818460208701613275565b7f203c2f673e0a0000000000000000000000000000000000000000000000000000920191825250600601919050565b60008251612ca5818460208701613275565b9190910192915050565b60008451612cc1818460208901613275565b80830190507f2f000000000000000000000000000000000000000000000000000000000000008082528551612cfd816001850160208a01613275565b60019201918201528351612d18816002840160208801613275565b0160020195945050505050565b7f6173736574000000000000000000000000000000000000000000000000000000815260008251612d5d816005850160208701613275565b9190910160050192915050565b7f3c7376672076696577426f783d22302030203130323420313032342220786d6c81527f6e733d22687474703a2f2f7777772e77332e6f72672f323030302f737667223e60208201527f0a00000000000000000000000000000000000000000000000000000000000000604082015260008251612dee816041850160208701613275565b7f3c2f7376673e00000000000000000000000000000000000000000000000000006041939091019283015250604701919050565b7f2066696c6c3d2200000000000000000000000000000000000000000000000000815260008251612e5a816007850160208701613275565b601160f91b6007939091019283015250600801919050565b7f203c672069643d22000000000000000000000000000000000000000000000000815260008351612eaa816008850160208801613275565b7f2220646573633d220000000000000000000000000000000000000000000000006008918401918201528351612ee7816010840160208801613275565b7f223e0a000000000000000000000000000000000000000000000000000000000060109290910191820152601301949350505050565b602081526000610cea6020830184612b81565b604081526000612f436040830185612b81565b828103602084015261288f8185612b81565b6020815260008251610120806020850152612f74610140850183612b81565b91506020850151601f1980868503016040870152612f928483612b81565b93506040870151915080868503016060870152612faf8483612b81565b93506060870151915080868503016080870152612fcc8483612b81565b935060808701519150808685030160a0870152612fe98483612b81565b935060a0870151915061300760c08701836001600160a01b03169052565b60c08701519150808685030160e0870152506130238382612b81565b92505060e085015161010061303d8187018361ffff169052565b9095015161ffff1693019290925250919050565b6020815263ffffffff82511660208201526000602083015161307b604084018263ffffffff169052565b50604083015160e06060840152613096610100840182612b81565b90506060840151601f19808584030160808601526130b48383612b81565b925060808601519150808584030160a08601526130d18383612b81565b925060a086015191506130ef60c08601836001600160a01b03169052565b60c08601519150808584030160e08601525061288f8282612b46565b6020815260008251604060208401526131276060840182612b81565b90506020840151601f1984830301604085015261288f8282612b81565b6040805190810167ffffffffffffffff811182821017156131675761316761336f565b60405290565b60405160e0810167ffffffffffffffff811182821017156131675761316761336f565b604051601f8201601f1916810167ffffffffffffffff811182821017156131b9576131b961336f565b604052919050565b600067ffffffffffffffff8211156131db576131db61336f565b5060051b60200190565b600067ffffffffffffffff8211156131ff576131ff61336f565b50601f01601f191660200190565b600082198211156132205761322061332d565b500190565b60008261323457613234613343565b500490565b60008282101561324b5761324b61332d565b500390565b600063ffffffff8381169083168181101561326d5761326d61332d565b039392505050565b60005b83811015613290578181015183820152602001613278565b8381111561329f576000848401525b50505050565b600181811c908216806132b957607f821691505b60208210811415610c4157634e487b7160e01b600052602260045260246000fd5b60006000198214156132ee576132ee61332d565b5060010190565b600063ffffffff8083168181141561330f5761330f61332d565b6001019392505050565b60008261332857613328613343565b500690565b634e487b7160e01b600052601160045260246000fd5b634e487b7160e01b600052601260045260246000fd5b634e487b7160e01b600052603260045260246000fd5b634e487b7160e01b600052604160045260246000fd5b6001600160a01b038116811461102457600080fd5b801515811461102457600080fdfea26469706673582212208d2cf6fcfedc335164499ec775370678949efdf677170b4188c7fa96eae3cf8364736f6c63430008060033608060405234801561001057600080fd5b50610489806100206000396000f3fe608060405234801561001057600080fd5b506004361061002b5760003560e01c8063c16e50ef14610030575b600080fd5b61004361003e36600461034d565b610057565b604051901515815260200160405180910390f35b6000805b825181101561034457600083828151811061007857610078610427565b01602001516001600160f81b03191690507f300000000000000000000000000000000000000000000000000000000000000081108015906100e357507f39000000000000000000000000000000000000000000000000000000000000006001600160f81b0319821611155b8061014d57507f41000000000000000000000000000000000000000000000000000000000000006001600160f81b031982161080159061014d57507f5a000000000000000000000000000000000000000000000000000000000000006001600160f81b0319821611155b806101b757507f61000000000000000000000000000000000000000000000000000000000000006001600160f81b03198216108015906101b757507f7a000000000000000000000000000000000000000000000000000000000000006001600160f81b0319821611155b806101eb57507f20000000000000000000000000000000000000000000000000000000000000006001600160f81b03198216145b8061021f57507f23000000000000000000000000000000000000000000000000000000000000006001600160f81b03198216145b8061025357507f28000000000000000000000000000000000000000000000000000000000000006001600160f81b03198216145b8061028757507f29000000000000000000000000000000000000000000000000000000000000006001600160f81b03198216145b806102bb57507f2c000000000000000000000000000000000000000000000000000000000000006001600160f81b03198216145b806102ef57507f2d000000000000000000000000000000000000000000000000000000000000006001600160f81b03198216145b8061032357507f2e000000000000000000000000000000000000000000000000000000000000006001600160f81b03198216145b610331575060009392505050565b508061033c816103fe565b91505061005b565b50600192915050565b60006020828403121561035f57600080fd5b813567ffffffffffffffff8082111561037757600080fd5b818401915084601f83011261038b57600080fd5b81358181111561039d5761039d61043d565b604051601f8201601f19908116603f011681019083821181831017156103c5576103c561043d565b816040528281528760208487010111156103de57600080fd5b826020860160208301376000928101602001929092525095945050505050565b600060001982141561042057634e487b7160e01b600052601160045260246000fd5b5060010190565b634e487b7160e01b600052603260045260246000fd5b634e487b7160e01b600052604160045260246000fdfea2646970667358221220afea0309c73056a4d317ac35752842ef5c4546c8e13b6459b4685c4180172c9364736f6c63430008060033608060405234801561001057600080fd5b5061080e806100206000396000f3fe608060405234801561001057600080fd5b506004361061002b5760003560e01c8063c25ddce014610030575b600080fd5b61004361003e3660046103f4565b610059565b6040516100509190610590565b60405180910390f35b60608060008060038551600261006f9190610658565b6100799190610601565b9050600091505b8061ffff168261ffff1610156102b157600061009d600284610601565b6100a8906003610658565b90506000806100b8600286610729565b61ffff1661011b57878361ffff16815181106100d6576100d66107ac565b016020015160f81c91506010886100ee8560016105c3565b61ffff1681518110610102576101026107ac565b0160200151610114919060f81c61075e565b905061017c565b876101278460026105c3565b61ffff168151811061013b5761013b6107ac565b016020015160f81c91506010886101538560016105c3565b61ffff1681518110610167576101676107ac565b0160200151610179919060f81c610636565b90505b60ff81166101e95760418260ff161015801561019c5750605a8260ff1611155b806101ba575060618260ff16101580156101ba5750607a8260ff1611155b156101e45785826040516020016101d2929190610546565b60405160208183030381529060405295505b61029b565b60006101008360ff168360ff166101006102039190610658565b61020d91906105c3565b6102179190610682565b90506104008161ffff1610610266578661023f61023661040084610682565b61ffff166102ba565b6040516020016102509291906104a5565b6040516020818303038152906040529650610299565b8661027661023683610400610682565b6040516020016102879291906104e0565b60405160208183030381529060405296505b505b50505081806102a9906106ec565b925050610080565b50909392505050565b6060816102fa57505060408051808201909152600181527f3000000000000000000000000000000000000000000000000000000000000000602082015290565b8160005b8115610324578061030e8161070e565b915061031d9050600a83610622565b91506102fe565b60008167ffffffffffffffff81111561033f5761033f6107c2565b6040519080825280601f01601f191660200182016040528015610369576020820181803683370190505b5090505b84156103ec5761037e6001836106a5565b915061038b600a8661074a565b6103969060306105e9565b60f81b8183815181106103ab576103ab6107ac565b60200101907effffffffffffffffffffffffffffffffffffffffffffffffffffffffffffff1916908160001a9053506103e5600a86610622565b945061036d565b949350505050565b60006020828403121561040657600080fd5b813567ffffffffffffffff8082111561041e57600080fd5b818401915084601f83011261043257600080fd5b813581811115610444576104446107c2565b604051601f8201601f19908116603f0116810190838211818310171561046c5761046c6107c2565b8160405282815287602084870101111561048557600080fd5b826020860160208301376000928101602001929092525095945050505050565b600083516104b78184602088016106bc565b8351908301906104cb8183602088016106bc565b600160fd1b9101908152600101949350505050565b600083516104f28184602088016106bc565b7f2d00000000000000000000000000000000000000000000000000000000000000908301908152835161052c8160018401602088016106bc565b600160fd1b60019290910191820152600201949350505050565b600083516105588184602088016106bc565b60f89390931b7fff00000000000000000000000000000000000000000000000000000000000000169190920190815260010192915050565b60208152600082518060208401526105af8160408501602087016106bc565b601f01601f19169190910160400192915050565b600061ffff8083168185168083038211156105e0576105e0610780565b01949350505050565b600082198211156105fc576105fc610780565b500190565b600061ffff8084168061061657610616610796565b92169190910492915050565b60008261063157610631610796565b500490565b600060ff83168061064957610649610796565b8060ff84160491505092915050565b600061ffff8083168185168183048111821515161561067957610679610780565b02949350505050565b600061ffff8381169083168181101561069d5761069d610780565b039392505050565b6000828210156106b7576106b7610780565b500390565b60005b838110156106d75781810151838201526020016106bf565b838111156106e6576000848401525b50505050565b600061ffff8083168181141561070457610704610780565b6001019392505050565b600060001982141561072257610722610780565b5060010190565b600061ffff8084168061073e5761073e610796565b92169190910692915050565b60008261075957610759610796565b500690565b600060ff83168061077157610771610796565b8060ff84160691505092915050565b634e487b7160e01b600052601160045260246000fd5b634e487b7160e01b600052601260045260246000fd5b634e487b7160e01b600052603260045260246000fd5b634e487b7160e01b600052604160045260246000fdfea2646970667358221220038bd1c52f0e6583e742e3cf819d576aface40be80a5533beb30205cc733e91864736f6c63430008060033",
  "linkReferences": {},
  "deployedLinkReferences": {}
}