{
  "_format": "hh-sol-artifact-1",
  "contractName": "AssetStoreProvider",
  "sourceName": "contracts/AssetStoreProvider.sol",
  "abi": [
    {
      "inputs": [
        {
          "internalType": "contract IAssetStoreEx",
          "name": "_assetStore",
          "type": "address"
        }
      ],
      "stateMutability": "nonpayable",
      "type": "constructor"
    },
    {
      "anonymous": false,
      "inputs": [
        {
          "indexed": true,
          "internalType": "address",
          "name": "previousOwner",
          "type": "address"
        },
        {
          "indexed": true,
          "internalType": "address",
          "name": "newOwner",
          "type": "address"
        }
      ],
      "name": "OwnershipTransferred",
      "type": "event"
    },
    {
      "anonymous": false,
      "inputs": [
        {
          "indexed": false,
          "internalType": "string",
          "name": "providerKey",
          "type": "string"
        },
        {
          "indexed": false,
          "internalType": "uint256",
          "name": "assetId",
          "type": "uint256"
        },
        {
          "indexed": false,
          "internalType": "address payable",
          "name": "to",
          "type": "address"
        },
        {
          "indexed": false,
          "internalType": "uint256",
          "name": "amount",
          "type": "uint256"
        }
      ],
      "name": "Payout",
      "type": "event"
    },
    {
      "inputs": [],
      "name": "assetStore",
      "outputs": [
        {
          "internalType": "contract IAssetStoreEx",
          "name": "",
          "type": "address"
        }
      ],
      "stateMutability": "view",
      "type": "function"
    },
    {
      "inputs": [
        {
          "internalType": "uint256",
          "name": "_assetId",
          "type": "uint256"
        }
      ],
      "name": "generateSVGPart",
      "outputs": [
        {
          "internalType": "string",
          "name": "svgPart",
          "type": "string"
        },
        {
          "internalType": "string",
          "name": "tag",
          "type": "string"
        }
      ],
      "stateMutability": "view",
      "type": "function"
    },
    {
      "inputs": [
        {
          "internalType": "string",
          "name": "_group",
          "type": "string"
        },
        {
          "internalType": "string",
          "name": "_category",
          "type": "string"
        }
      ],
      "name": "getAssetCountInCategory",
      "outputs": [
        {
          "internalType": "uint32",
          "name": "",
          "type": "uint32"
        }
      ],
      "stateMutability": "view",
      "type": "function"
    },
    {
      "inputs": [
        {
          "internalType": "string",
          "name": "_group",
          "type": "string"
        },
        {
          "internalType": "string",
          "name": "_category",
          "type": "string"
        },
        {
          "internalType": "uint32",
          "name": "_assetIndex",
          "type": "uint32"
        }
      ],
      "name": "getAssetIdInCategory",
      "outputs": [
        {
          "internalType": "uint256",
          "name": "",
          "type": "uint256"
        }
      ],
      "stateMutability": "view",
      "type": "function"
    },
    {
      "inputs": [
        {
          "internalType": "string",
          "name": "_group",
          "type": "string"
        }
      ],
      "name": "getCategoryCount",
      "outputs": [
        {
          "internalType": "uint32",
          "name": "",
          "type": "uint32"
        }
      ],
      "stateMutability": "view",
      "type": "function"
    },
    {
      "inputs": [
        {
          "internalType": "string",
          "name": "_group",
          "type": "string"
        },
        {
          "internalType": "uint32",
          "name": "_categoryIndex",
          "type": "uint32"
        }
      ],
      "name": "getCategoryNameAtIndex",
      "outputs": [
        {
          "internalType": "string",
          "name": "",
          "type": "string"
        }
      ],
      "stateMutability": "view",
      "type": "function"
    },
    {
      "inputs": [],
      "name": "getGroupCount",
      "outputs": [
        {
          "internalType": "uint32",
          "name": "",
          "type": "uint32"
        }
      ],
      "stateMutability": "view",
      "type": "function"
    },
    {
      "inputs": [
        {
          "internalType": "uint32",
          "name": "_groupIndex",
          "type": "uint32"
        }
      ],
      "name": "getGroupNameAtIndex",
      "outputs": [
        {
          "internalType": "string",
          "name": "",
          "type": "string"
        }
      ],
      "stateMutability": "view",
      "type": "function"
    },
    {
      "inputs": [],
      "name": "getOwner",
      "outputs": [
        {
          "internalType": "address",
          "name": "",
          "type": "address"
        }
      ],
      "stateMutability": "view",
      "type": "function"
    },
    {
      "inputs": [],
      "name": "getProviderInfo",
      "outputs": [
        {
          "components": [
            {
              "internalType": "string",
              "name": "key",
              "type": "string"
            },
            {
              "internalType": "string",
              "name": "name",
              "type": "string"
            },
            {
              "internalType": "contract IAssetProvider",
              "name": "provider",
              "type": "address"
            }
          ],
          "internalType": "struct IAssetProvider.ProviderInfo",
          "name": "",
          "type": "tuple"
        }
      ],
      "stateMutability": "view",
      "type": "function"
    },
    {
      "inputs": [],
      "name": "owner",
      "outputs": [
        {
          "internalType": "address",
          "name": "",
          "type": "address"
        }
      ],
      "stateMutability": "view",
      "type": "function"
    },
    {
      "inputs": [
        {
          "internalType": "uint256",
          "name": "_assetId",
          "type": "uint256"
        },
        {
          "internalType": "uint256",
          "name": "",
          "type": "uint256"
        }
      ],
      "name": "processPayout",
      "outputs": [],
      "stateMutability": "payable",
      "type": "function"
    },
    {
      "inputs": [],
      "name": "renounceOwnership",
      "outputs": [],
      "stateMutability": "nonpayable",
      "type": "function"
    },
    {
      "inputs": [
        {
          "internalType": "bytes4",
          "name": "interfaceId",
          "type": "bytes4"
        }
      ],
      "name": "supportsInterface",
      "outputs": [
        {
          "internalType": "bool",
          "name": "",
          "type": "bool"
        }
      ],
      "stateMutability": "view",
      "type": "function"
    },
    {
      "inputs": [
        {
          "internalType": "uint256",
          "name": "",
          "type": "uint256"
        }
      ],
      "name": "totalEarned",
      "outputs": [
        {
          "internalType": "uint256",
          "name": "",
          "type": "uint256"
        }
      ],
      "stateMutability": "view",
      "type": "function"
    },
    {
      "inputs": [],
      "name": "totalSupply",
      "outputs": [
        {
          "internalType": "uint256",
          "name": "",
          "type": "uint256"
        }
      ],
      "stateMutability": "view",
      "type": "function"
    },
    {
      "inputs": [
        {
          "internalType": "address",
          "name": "newOwner",
          "type": "address"
        }
      ],
      "name": "transferOwnership",
      "outputs": [],
      "stateMutability": "nonpayable",
      "type": "function"
    }
  ],
  "bytecode": "0x60a060405234801561001057600080fd5b5060405161168d38038061168d83398101604081905261002f9161009d565b6100383361004d565b60601b6001600160601b0319166080526100cd565b600080546001600160a01b038381166001600160a01b0319831681178455604051919092169283917f8be0079c531659141344cd1fd0a4f28419497f9722a3daafe3b4186f6b6457e09190a35050565b6000602082840312156100af57600080fd5b81516001600160a01b03811681146100c657600080fd5b9392505050565b60805160601c61155c610131600039600081816101e7015281816104920152818161052a015281816105bf015281816106a2015281816107670152818161088b0152818161092201528181610ab501528181610b490152610bfe015261155c6000f3fe60806040526004361061010e5760003560e01c80637805544c116100a55780638da5cb5b11610074578063d4f056d411610059578063d4f056d414610383578063e3f24f02146103a3578063f2fde38b146103d157600080fd5b80638da5cb5b14610285578063a9fc0f731461035657600080fd5b80637805544c14610265578063893d20e8146102855780638c40188e146102a35780638d07c0821461034357600080fd5b8063515f28cb116100e1578063515f28cb146101b5578063597a0e36146101d55780635c73924c14610221578063715018a61461024e57600080fd5b806301ffc9a71461011357806306545a931461014857806318160ddd14610172578063468823e214610195575b600080fd5b34801561011f57600080fd5b5061013361012e366004610ecc565b6103f1565b60405190151581526020015b60405180910390f35b34801561015457600080fd5b5061015d61048e565b60405163ffffffff909116815260200161013f565b34801561017e57600080fd5b50610187610526565b60405190815260200161013f565b3480156101a157600080fd5b506101876101b0366004610fc4565b6105b9565b3480156101c157600080fd5b5061015d6101d0366004610f60565b61066f565b3480156101e157600080fd5b506102097f000000000000000000000000000000000000000000000000000000000000000081565b6040516001600160a01b03909116815260200161013f565b34801561022d57600080fd5b5061024161023c36600461123c565b610730565b60405161013f91906112a2565b34801561025a57600080fd5b506102636107ed565b005b34801561027157600080fd5b5061024161028036600461103c565b610858565b34801561029157600080fd5b506000546001600160a01b0316610209565b3480156102af57600080fd5b5061033660408051606080820183528082526020820152600091810191909152506040805160a08101825260056060820190815264185cdcd95d60da1b6080830152815281518083018352600b81527f41737365742053746f7265000000000000000000000000000000000000000000602082810191909152820152309181019190915290565b60405161013f919061137f565b61026361035136600461121a565b610916565b34801561036257600080fd5b506101876103713660046111e8565b60016020526000908152604090205481565b34801561038f57600080fd5b5061015d61039e366004610ef6565b610a82565b3480156103af57600080fd5b506103c36103be3660046111e8565b610b3a565b60405161013f9291906112b5565b3480156103dd57600080fd5b506102636103ec366004610eaf565b610ca8565b60006001600160e01b031982167f739eba3b00000000000000000000000000000000000000000000000000000000148061045457506001600160e01b031982167fe105c16e00000000000000000000000000000000000000000000000000000000145b8061048857506001600160e01b031982167f01ffc9a700000000000000000000000000000000000000000000000000000000145b92915050565b60007f00000000000000000000000000000000000000000000000000000000000000006001600160a01b03166306545a936040518163ffffffff1660e01b815260040160206040518083038186803b1580156104e957600080fd5b505afa1580156104fd573d6000803e3d6000fd5b505050506040513d601f19601f820116820180604052508101906105219190611259565b905090565b60007f00000000000000000000000000000000000000000000000000000000000000006001600160a01b031663a0aead4d6040518163ffffffff1660e01b815260040160206040518083038186803b15801561058157600080fd5b505afa158015610595573d6000803e3d6000fd5b505050506040513d601f19601f820116820180604052508101906105219190611201565b600060017f00000000000000000000000000000000000000000000000000000000000000006001600160a01b031663468823e28686866040518463ffffffff1660e01b815260040161060d939291906112e3565b60206040518083038186803b15801561062557600080fd5b505afa158015610639573d6000803e3d6000fd5b505050506040513d601f19601f8201168201806040525081019061065d9190611201565b610667919061148c565b949350505050565b6040517f515f28cb0000000000000000000000000000000000000000000000000000000081526000906001600160a01b037f0000000000000000000000000000000000000000000000000000000000000000169063515f28cb906106d990869086906004016112b5565b60206040518083038186803b1580156106f157600080fd5b505afa158015610705573d6000803e3d6000fd5b505050506040513d601f19601f820116820180604052508101906107299190611259565b9392505050565b6040517f5c73924c00000000000000000000000000000000000000000000000000000000815263ffffffff821660048201526060907f00000000000000000000000000000000000000000000000000000000000000006001600160a01b031690635c73924c9060240160006040518083038186803b1580156107b157600080fd5b505afa1580156107c5573d6000803e3d6000fd5b505050506040513d6000823e601f3d908101601f191682016040526104889190810190610f2b565b6000546001600160a01b0316331461084c5760405162461bcd60e51b815260206004820181905260248201527f4f776e61626c653a2063616c6c6572206973206e6f7420746865206f776e657260448201526064015b60405180910390fd5b6108566000610d8a565b565b6040517f7805544c0000000000000000000000000000000000000000000000000000000081526060906001600160a01b037f00000000000000000000000000000000000000000000000000000000000000001690637805544c906108c29086908690600401611357565b60006040518083038186803b1580156108da57600080fd5b505afa1580156108ee573d6000803e3d6000fd5b505050506040513d6000823e601f3d908101601f191682016040526107299190810190610f2b565b60006001600160a01b037f000000000000000000000000000000000000000000000000000000000000000016634378a6e3610952856001611474565b6040518263ffffffff1660e01b815260040161097091815260200190565b60006040518083038186803b15801561098857600080fd5b505afa15801561099c573d6000803e3d6000fd5b505050506040513d6000823e601f3d908101601f191682016040526109c4919081019061108e565b60a0810151604051919250906001600160a01b038216903480156108fc02916000818181858888f19350505050158015610a02573d6000803e3d6000fd5b5060008481526001602052604081208054349290610a21908490611474565b90915550506040805180820182526005815264185cdcd95d60da1b602082015290517fbb0eeee27936db25b1a46a81ab6d97326392a3e961efa7273d5d756d7a2e1cad91610a749187908590349061131f565b60405180910390a150505050565b6040517fd4f056d40000000000000000000000000000000000000000000000000000000081526000906001600160a01b037f0000000000000000000000000000000000000000000000000000000000000000169063d4f056d490610aea9085906004016112a2565b60206040518083038186803b158015610b0257600080fd5b505afa158015610b16573d6000803e3d6000fd5b505050506040513d601f19601f820116820180604052508101906104889190611259565b60608060006001600160a01b037f000000000000000000000000000000000000000000000000000000000000000016634378a6e3610b79866001611474565b6040518263ffffffff1660e01b8152600401610b9791815260200190565b60006040518083038186803b158015610baf57600080fd5b505afa158015610bc3573d6000803e3d6000fd5b505050506040513d6000823e601f3d908101601f19168201604052610beb919081019061108e565b6060810151925090506001600160a01b037f0000000000000000000000000000000000000000000000000000000000000000166334320bf1610c2e866001611474565b846040518363ffffffff1660e01b8152600401610c4c9291906113d8565b60006040518083038186803b158015610c6457600080fd5b505afa158015610c78573d6000803e3d6000fd5b505050506040513d6000823e601f3d908101601f19168201604052610ca09190810190610f2b565b925050915091565b6000546001600160a01b03163314610d025760405162461bcd60e51b815260206004820181905260248201527f4f776e61626c653a2063616c6c6572206973206e6f7420746865206f776e65726044820152606401610843565b6001600160a01b038116610d7e5760405162461bcd60e51b815260206004820152602660248201527f4f776e61626c653a206e6577206f776e657220697320746865207a65726f206160448201527f64647265737300000000000000000000000000000000000000000000000000006064820152608401610843565b610d8781610d8a565b50565b600080546001600160a01b038381167fffffffffffffffffffffffff0000000000000000000000000000000000000000831681178455604051919092169283917f8be0079c531659141344cd1fd0a4f28419497f9722a3daafe3b4186f6b6457e09190a35050565b8051610dfd816114ff565b919050565b600082601f830112610e1357600080fd5b8151610e26610e218261144c565b61141b565b818152846020838601011115610e3b57600080fd5b6106678260208301602087016114a3565b600082601f830112610e5d57600080fd5b8135610e6b610e218261144c565b818152846020838601011115610e8057600080fd5b816020850160208301376000918101602001919091529392505050565b805161ffff81168114610dfd57600080fd5b600060208284031215610ec157600080fd5b8135610729816114ff565b600060208284031215610ede57600080fd5b81356001600160e01b03198116811461072957600080fd5b600060208284031215610f0857600080fd5b813567ffffffffffffffff811115610f1f57600080fd5b61066784828501610e4c565b600060208284031215610f3d57600080fd5b815167ffffffffffffffff811115610f5457600080fd5b61066784828501610e02565b60008060408385031215610f7357600080fd5b823567ffffffffffffffff80821115610f8b57600080fd5b610f9786838701610e4c565b93506020850135915080821115610fad57600080fd5b50610fba85828601610e4c565b9150509250929050565b600080600060608486031215610fd957600080fd5b833567ffffffffffffffff80821115610ff157600080fd5b610ffd87838801610e4c565b9450602086013591508082111561101357600080fd5b5061102086828701610e4c565b925050604084013561103181611514565b809150509250925092565b6000806040838503121561104f57600080fd5b823567ffffffffffffffff81111561106657600080fd5b61107285828601610e4c565b925050602083013561108381611514565b809150509250929050565b6000602082840312156110a057600080fd5b815167ffffffffffffffff808211156110b857600080fd5b9083019061012082860312156110cd57600080fd5b6110d56113f1565b8251828111156110e457600080fd5b6110f087828601610e02565b82525060208301518281111561110557600080fd5b61111187828601610e02565b60208301525060408301518281111561112957600080fd5b61113587828601610e02565b60408301525060608301518281111561114d57600080fd5b61115987828601610e02565b60608301525060808301518281111561117157600080fd5b61117d87828601610e02565b60808301525061118f60a08401610df2565b60a082015260c0830151828111156111a657600080fd5b6111b287828601610e02565b60c0830152506111c460e08401610e9d565b60e082015261010091506111d9828401610e9d565b91810191909152949350505050565b6000602082840312156111fa57600080fd5b5035919050565b60006020828403121561121357600080fd5b5051919050565b6000806040838503121561122d57600080fd5b50508035926020909101359150565b60006020828403121561124e57600080fd5b813561072981611514565b60006020828403121561126b57600080fd5b815161072981611514565b6000815180845261128e8160208601602086016114a3565b601f01601f19169290920160200192915050565b6020815260006107296020830184611276565b6040815260006112c86040830185611276565b82810360208401526112da8185611276565b95945050505050565b6060815260006112f66060830186611276565b82810360208401526113088186611276565b91505063ffffffff83166040830152949350505050565b6080815260006113326080830187611276565b6020830195909552506001600160a01b03929092166040830152606090910152919050565b60408152600061136a6040830185611276565b905063ffffffff831660208301529392505050565b60208152600082516060602084015261139b6080840182611276565b90506020840151601f198483030160408501526113b88282611276565b9150506001600160a01b0360408501511660608401528091505092915050565b8281526040602082015260006106676040830184611276565b604051610120810167ffffffffffffffff81118282101715611415576114156114e9565b60405290565b604051601f8201601f1916810167ffffffffffffffff81118282101715611444576114446114e9565b604052919050565b600067ffffffffffffffff821115611466576114666114e9565b50601f01601f191660200190565b60008219821115611487576114876114d3565b500190565b60008282101561149e5761149e6114d3565b500390565b60005b838110156114be5781810151838201526020016114a6565b838111156114cd576000848401525b50505050565b634e487b7160e01b600052601160045260246000fd5b634e487b7160e01b600052604160045260246000fd5b6001600160a01b0381168114610d8757600080fd5b63ffffffff81168114610d8757600080fdfea26469706673582212203986cf4448a20589b6c65ec7be9662d593d170eb0e78dbe9d35367d10b23121a64736f6c63430008060033",
  "linkReferences": {},
  "deployedLinkReferences": {}
}