{
  "_format": "hh-sol-artifact-1",
  "contractName": "AssetComposer",
  "sourceName": "contracts/AssetComposer.sol",
  "abi": [
    {
      "inputs": [
        {
          "internalType": "contract IAssetStoreEx",
          "name": "_assetStore",
          "type": "address"
        }
      ],
      "stateMutability": "nonpayable",
      "type": "constructor"
    },
    {
      "anonymous": false,
      "inputs": [
        {
          "indexed": false,
          "internalType": "address",
          "name": "from",
          "type": "address"
        },
        {
          "indexed": false,
          "internalType": "uint256",
          "name": "compositionId",
          "type": "uint256"
        }
      ],
      "name": "CompositionRegistered",
      "type": "event"
    },
    {
      "anonymous": false,
      "inputs": [
        {
          "indexed": true,
          "internalType": "address",
          "name": "previousOwner",
          "type": "address"
        },
        {
          "indexed": true,
          "internalType": "address",
          "name": "newOwner",
          "type": "address"
        }
      ],
      "name": "OwnershipTransferred",
      "type": "event"
    },
    {
      "anonymous": false,
      "inputs": [
        {
          "indexed": false,
          "internalType": "address",
          "name": "from",
          "type": "address"
        },
        {
          "indexed": false,
          "internalType": "uint256",
          "name": "_providerId",
          "type": "uint256"
        }
      ],
      "name": "ProviderRegistered",
      "type": "event"
    },
    {
      "inputs": [],
      "name": "admin",
      "outputs": [
        {
          "internalType": "address",
          "name": "",
          "type": "address"
        }
      ],
      "stateMutability": "view",
      "type": "function"
    },
    {
      "inputs": [],
      "name": "assetStore",
      "outputs": [
        {
          "internalType": "contract IAssetStoreEx",
          "name": "",
          "type": "address"
        }
      ],
      "stateMutability": "view",
      "type": "function"
    },
    {
      "inputs": [
        {
          "internalType": "uint256",
          "name": "_compositionId",
          "type": "uint256"
        }
      ],
      "name": "generateSVGPart",
      "outputs": [
        {
          "internalType": "string",
          "name": "",
          "type": "string"
        },
        {
          "internalType": "string",
          "name": "",
          "type": "string"
        }
      ],
      "stateMutability": "view",
      "type": "function"
    },
    {
      "inputs": [
        {
          "internalType": "uint256",
          "name": "_providerId",
          "type": "uint256"
        }
      ],
      "name": "getProvider",
      "outputs": [
        {
          "components": [
            {
              "internalType": "string",
              "name": "key",
              "type": "string"
            },
            {
              "internalType": "string",
              "name": "name",
              "type": "string"
            },
            {
              "internalType": "contract IAssetProvider",
              "name": "provider",
              "type": "address"
            }
          ],
          "internalType": "struct IAssetProvider.ProviderInfo",
          "name": "",
          "type": "tuple"
        }
      ],
      "stateMutability": "view",
      "type": "function"
    },
    {
      "inputs": [
        {
          "internalType": "string",
          "name": "_key",
          "type": "string"
        }
      ],
      "name": "getProviderId",
      "outputs": [
        {
          "internalType": "uint256",
          "name": "",
          "type": "uint256"
        }
      ],
      "stateMutability": "view",
      "type": "function"
    },
    {
      "inputs": [],
      "name": "getProviderInfo",
      "outputs": [
        {
          "components": [
            {
              "internalType": "string",
              "name": "key",
              "type": "string"
            },
            {
              "internalType": "string",
              "name": "name",
              "type": "string"
            },
            {
              "internalType": "contract IAssetProvider",
              "name": "provider",
              "type": "address"
            }
          ],
          "internalType": "struct IAssetProvider.ProviderInfo",
          "name": "",
          "type": "tuple"
        }
      ],
      "stateMutability": "view",
      "type": "function"
    },
    {
      "inputs": [],
      "name": "nextCompositionId",
      "outputs": [
        {
          "internalType": "uint256",
          "name": "",
          "type": "uint256"
        }
      ],
      "stateMutability": "view",
      "type": "function"
    },
    {
      "inputs": [],
      "name": "owner",
      "outputs": [
        {
          "internalType": "address",
          "name": "",
          "type": "address"
        }
      ],
      "stateMutability": "view",
      "type": "function"
    },
    {
      "inputs": [],
      "name": "providerCount",
      "outputs": [
        {
          "internalType": "uint256",
          "name": "",
          "type": "uint256"
        }
      ],
      "stateMutability": "view",
      "type": "function"
    },
    {
      "inputs": [
        {
          "components": [
            {
              "internalType": "uint256",
              "name": "assetId",
              "type": "uint256"
            },
            {
              "internalType": "string",
              "name": "provider",
              "type": "string"
            },
            {
              "internalType": "string",
              "name": "fill",
              "type": "string"
            },
            {
              "internalType": "string",
              "name": "transform",
              "type": "string"
            }
          ],
          "internalType": "struct IAssetComposer.AssetLayer[]",
          "name": "_layers",
          "type": "tuple[]"
        }
      ],
      "name": "registerComposition",
      "outputs": [
        {
          "internalType": "uint256",
          "name": "compositionId",
          "type": "uint256"
        }
      ],
      "stateMutability": "nonpayable",
      "type": "function"
    },
    {
      "inputs": [
        {
          "internalType": "contract IAssetProvider",
          "name": "_provider",
          "type": "address"
        }
      ],
      "name": "registerProvider",
      "outputs": [
        {
          "internalType": "uint256",
          "name": "providerId",
          "type": "uint256"
        }
      ],
      "stateMutability": "nonpayable",
      "type": "function"
    },
    {
      "inputs": [],
      "name": "renounceOwnership",
      "outputs": [],
      "stateMutability": "nonpayable",
      "type": "function"
    },
    {
      "inputs": [
        {
          "internalType": "address",
          "name": "_admin",
          "type": "address"
        }
      ],
      "name": "setAdmin",
      "outputs": [],
      "stateMutability": "nonpayable",
      "type": "function"
    },
    {
      "inputs": [
        {
          "internalType": "uint256",
          "name": "_compositionId",
          "type": "uint256"
        },
        {
          "internalType": "bool",
          "name": "_status",
          "type": "bool"
        }
      ],
      "name": "setDisabled",
      "outputs": [],
      "stateMutability": "nonpayable",
      "type": "function"
    },
    {
      "inputs": [
        {
          "internalType": "bytes4",
          "name": "interfaceId",
          "type": "bytes4"
        }
      ],
      "name": "supportsInterface",
      "outputs": [
        {
          "internalType": "bool",
          "name": "",
          "type": "bool"
        }
      ],
      "stateMutability": "view",
      "type": "function"
    },
    {
      "inputs": [],
      "name": "totalSupply",
      "outputs": [
        {
          "internalType": "uint256",
          "name": "",
          "type": "uint256"
        }
      ],
      "stateMutability": "view",
      "type": "function"
    },
    {
      "inputs": [
        {
          "internalType": "address",
          "name": "newOwner",
          "type": "address"
        }
      ],
      "name": "transferOwnership",
      "outputs": [],
      "stateMutability": "nonpayable",
      "type": "function"
    }
  ],
  "bytecode": "0x60a06040523480156200001157600080fd5b5060405162001f4338038062001f438339810160408190526200003491620000ce565b606081901b6001600160601b0319166080528062000052336200007c565b5050600354600480546001600160a01b0319166001600160a01b0390921691909117905562000100565b600380546001600160a01b038381166001600160a01b0319831681179093556040519116919082907f8be0079c531659141344cd1fd0a4f28419497f9722a3daafe3b4186f6b6457e090600090a35050565b600060208284031215620000e157600080fd5b81516001600160a01b0381168114620000f957600080fd5b9392505050565b60805160601c611e1d62000126600039600081816101b101526107040152611e1d6000f3fe608060405234801561001057600080fd5b506004361061011b5760003560e01c8063704b6c02116100b25780638da5cb5b11610081578063ea575c6111610066578063ea575c61146102e5578063f2fde38b146102ee578063f851a4401461030157600080fd5b80638da5cb5b146102b3578063e3f24f02146102c457600080fd5b8063704b6c021461020b578063715018a61461021e57806374c83268146102265780638c40188e1461022e57600080fd5b8063434ebc55116100ee578063434ebc55146101865780634854078f14610199578063597a0e36146101ac5780635c42d079146101eb57600080fd5b806301ffc9a7146101205780630e2600161461014857806315ea29be1461016957806318160ddd1461017e575b600080fd5b61013361012e36600461164a565b610314565b60405190151581526020015b60405180910390f35b61015b6101563660046114c0565b6103e5565b60405190815260200161013f565b61017c610177366004611801565b61064a565b005b60065461015b565b61015b6101943660046114dd565b6106ff565b61015b6101a7366004611691565b610aae565b6101d37f000000000000000000000000000000000000000000000000000000000000000081565b6040516001600160a01b03909116815260200161013f565b6101fe6101f93660046117e8565b610b27565b60405161013f9190611bb4565b61017c6102193660046114c0565b610be5565b61017c610c6e565b60005461015b565b6101fe60408051606080820183528082526020820152600091810191909152506040805160a081018252600460608201908152630636f6d760e41b6080830152815281518083018352600d81527f4173736574436f6d706f73657200000000000000000000000000000000000000602082810191909152820152309181019190915290565b6003546001600160a01b03166101d3565b6102d76102d23660046117e8565b610cd4565b60405161013f929190611b86565b61015b60065481565b61017c6102fc3660046114c0565b611111565b6004546101d3906001600160a01b031681565b60006001600160e01b031982167f6ef8e58800000000000000000000000000000000000000000000000000000000148061037757506001600160e01b031982167fa0bcf35700000000000000000000000000000000000000000000000000000000145b806103ab57506001600160e01b031982167f77a45a5100000000000000000000000000000000000000000000000000000000145b806103df57506001600160e01b031982167f01ffc9a700000000000000000000000000000000000000000000000000000000145b92915050565b600080826001600160a01b0316638c40188e6040518163ffffffff1660e01b815260040160006040518083038186803b15801561042157600080fd5b505afa158015610435573d6000803e3d6000fd5b505050506040513d6000823e601f3d908101601f1916820160405261045d919081019061172a565b9050600181600001516040516104739190611ac0565b9081526020016040518091039020546000146104fc5760405162461bcd60e51b815260206004820152603360248201527f4173736574436f6d706f6f7365723a726567697374657250726f76696465722c60448201527f20616c726561647920726567697374657265640000000000000000000000000060648201526084015b60405180910390fd5b80604001516001600160a01b0316836001600160a01b0316146105875760405162461bcd60e51b815260206004820152603160248201527f4173736574436f6d706f6f7365723a726567697374657250726f76696465722c60448201527f2061646472657373206d69736d6174636800000000000000000000000000000060648201526084016104f3565b600080548491600291818061059b83611d3d565b91905055815260200190815260200160002060006101000a8154816001600160a01b0302191690836001600160a01b03160217905550600054600182600001516040516105e89190611ac0565b9081526040519081900360200190205560005461060790600190611cbb565b60408051338152602081018390529193507f90c9734131c1e4fb36cde2d71e6feb93fb258f71be8a85411c173d25e1516e8091015b60405180910390a150919050565b6003546001600160a01b031633148061066d57506004546001600160a01b031633145b6106df5760405162461bcd60e51b815260206004820152602660248201527f4173736574436f6d706f7365723a2063616c6c6572206973206e6f742074686560448201527f2061646d696e000000000000000000000000000000000000000000000000000060648201526084016104f3565b600091825260056020526040909120805460ff1916911515919091179055565b6000807f00000000000000000000000000000000000000000000000000000000000000006001600160a01b031663a57cfb246040518163ffffffff1660e01b815260040160206040518083038186803b15801561075b57600080fd5b505afa15801561076f573d6000803e3d6000fd5b505050506040513d601f19601f820116820180604052508101906107939190611674565b6006805491925060006107a583611d3d565b9091555083516000828152600760205260408120919091559092505b8351811015610a775760008482815181106107de576107de611d98565b6020026020010151905060008160000151905060006108008360200151610aae565b6040805180820182526fffffffffffffffffffffffffffffffff8084168252858116602080840191825260008c8152600882528581208b8252909152939093209151925181167001000000000000000000000000000000000292169190911790556060840151805191925090156109625760405163c16e50ef60e01b81526001600160a01b0387169063c16e50ef9061089d908490600401611b73565b60206040518083038186803b1580156108b557600080fd5b505afa1580156108c9573d6000803e3d6000fd5b505050506040513d601f19601f820116820180604052508101906108ed919061162d565b6109395760405162461bcd60e51b815260206004820152601b60248201527f72656769737465723a20496e76616c6964207472616e73666f726d000000000060448201526064016104f3565b6000878152600960209081526040808320888452825290912082516109609284019061138c565b505b6040840151805115610a5f5760405163c16e50ef60e01b81526001600160a01b0388169063c16e50ef9061099a908490600401611b73565b60206040518083038186803b1580156109b257600080fd5b505afa1580156109c6573d6000803e3d6000fd5b505050506040513d601f19601f820116820180604052508101906109ea919061162d565b610a365760405162461bcd60e51b815260206004820152601660248201527f72656769737465723a20496e76616c69642066696c6c0000000000000000000060448201526064016104f3565b6000888152600a6020908152604080832089845282529091208251610a5d9284019061138c565b505b50505050508080610a6f90611d3d565b9150506107c1565b5060408051338152602081018490527fb6b49fb493aab716d37ffe3ad9f192adb9d7c116b0ca7423db8d0e56a1dc93b2910161063c565b600080600183604051610ac19190611ac0565b90815260200160405180910390205490506000811183604051602001610ae79190611adc565b60405160208183030381529060405290610b145760405162461bcd60e51b81526004016104f39190611b73565b50610b20600182611cbb565b9392505050565b604080516060808201835280825260208201526000918101919091526000828152600260205260408082205481517f8c40188e00000000000000000000000000000000000000000000000000000000815291516001600160a01b03909116928392638c40188e9260048083019392829003018186803b158015610ba957600080fd5b505afa158015610bbd573d6000803e3d6000fd5b505050506040513d6000823e601f3d908101601f19168201604052610b20919081019061172a565b6003546001600160a01b03163314610c3f5760405162461bcd60e51b815260206004820181905260248201527f4f776e61626c653a2063616c6c6572206973206e6f7420746865206f776e657260448201526064016104f3565b6004805473ffffffffffffffffffffffffffffffffffffffff19166001600160a01b0392909216919091179055565b6003546001600160a01b03163314610cc85760405162461bcd60e51b815260206004820181905260248201527f4f776e61626c653a2063616c6c6572206973206e6f7420746865206f776e657260448201526064016104f3565b610cd260006111f3565b565b6000818152600560205260409020546060908190839060ff16151560011415610d655760405162461bcd60e51b815260206004820152602a60248201527f4173736574436f6d706f7365723a207468697320636f6d706f736974696f6e2060448201527f697320646961626c65640000000000000000000000000000000000000000000060648201526084016104f3565b600084815260076020526040812054906060908190819081905b858110156110b35760008a815260086020908152604080832084845282528083208151808301909252546fffffffffffffffffffffffffffffffff80821680845270010000000000000000000000000000000090920416928201929092529190610de890610b27565b905080604001516001600160a01b031663e3f24f0283602001516fffffffffffffffffffffffffffffffff166040518263ffffffff1660e01b8152600401610e3291815260200190565b60006040518083038186803b158015610e4a57600080fd5b505afa158015610e5e573d6000803e3d6000fd5b505050506040513d6000823e601f3d908101601f19168201604052610e8691908101906116c6565b6040519196509450610e9e908890879060200161185d565b60405160208183030381529060405296508584604051602001610ec292919061188c565b60408051601f1981840301815291815260008e815260096020908152828220878352905290812080549298509091610ef990611d02565b80601f0160208091040260200160405190810160405280929190818152602001828054610f2590611d02565b8015610f725780601f10610f4757610100808354040283529160200191610f72565b820191906000526020600020905b815481529060010190602001808311610f5557829003601f168201915b50505050509050600081511115610fa8578681604051602001610f96929190611a5a565b60405160208183030381529060405296505b60008d8152600a6020908152604080832087845290915290208054610fcc90611d02565b80601f0160208091040260200160405190810160405280929190818152602001828054610ff890611d02565b80156110455780601f1061101a57610100808354040283529160200191611045565b820191906000526020600020905b81548152906001019060200180831161102857829003601f168201915b5050505050905060008151111561107b578681604051602001611069929190611933565b60405160208183030381529060405296505b8660405160200161108c91906118f2565b604051602081830303815290604052965050505080806110ab90611d3d565b915050610d7f565b506110bd89611252565b6040516020016110cd9190611b47565b60405160208183030381529060405290508381846040516020016110f393929190611999565b60408051601f19818403018152919052975095505050505050915091565b6003546001600160a01b0316331461116b5760405162461bcd60e51b815260206004820181905260248201527f4f776e61626c653a2063616c6c6572206973206e6f7420746865206f776e657260448201526064016104f3565b6001600160a01b0381166111e75760405162461bcd60e51b815260206004820152602660248201527f4f776e61626c653a206e6577206f776e657220697320746865207a65726f206160448201527f646472657373000000000000000000000000000000000000000000000000000060648201526084016104f3565b6111f0816111f3565b50565b600380546001600160a01b0383811673ffffffffffffffffffffffffffffffffffffffff19831681179093556040519116919082907f8be0079c531659141344cd1fd0a4f28419497f9722a3daafe3b4186f6b6457e090600090a35050565b60608161129257505060408051808201909152600181527f3000000000000000000000000000000000000000000000000000000000000000602082015290565b8160005b81156112bc57806112a681611d3d565b91506112b59050600a83611ca7565b9150611296565b60008167ffffffffffffffff8111156112d7576112d7611dae565b6040519080825280601f01601f191660200182016040528015611301576020820181803683370190505b5090505b841561138457611316600183611cbb565b9150611323600a86611d58565b61132e906030611c8f565b60f81b81838151811061134357611343611d98565b60200101907effffffffffffffffffffffffffffffffffffffffffffffffffffffffffffff1916908160001a90535061137d600a86611ca7565b9450611305565b949350505050565b82805461139890611d02565b90600052602060002090601f0160209004810192826113ba5760008555611400565b82601f106113d357805160ff1916838001178555611400565b82800160010185558215611400579182015b828111156114005782518255916020019190600101906113e5565b5061140c929150611410565b5090565b5b8082111561140c5760008155600101611411565b600082601f83011261143657600080fd5b813561144961144482611c67565b611c36565b81815284602083860101111561145e57600080fd5b816020850160208301376000918101602001919091529392505050565b600082601f83011261148c57600080fd5b815161149a61144482611c67565b8181528460208386010111156114af57600080fd5b611384826020830160208701611cd2565b6000602082840312156114d257600080fd5b8135610b2081611dc4565b600060208083850312156114f057600080fd5b823567ffffffffffffffff8082111561150857600080fd5b818501915085601f83011261151c57600080fd5b81358181111561152e5761152e611dae565b8060051b61153d858201611c36565b8281528581019085870183870188018b101561155857600080fd5b600093505b8484101561161f5780358681111561157457600080fd5b87016080818d03601f190181131561158b57600080fd5b611593611c0d565b8a83013581526040830135898111156115ab57600080fd5b6115b98f8d83870101611425565b8c830152506060830135898111156115d057600080fd5b6115de8f8d83870101611425565b6040830152509082013590888211156115f657600080fd5b6116048e8c84860101611425565b6060820152855250506001939093019291870191870161155d565b509998505050505050505050565b60006020828403121561163f57600080fd5b8151610b2081611dd9565b60006020828403121561165c57600080fd5b81356001600160e01b031981168114610b2057600080fd5b60006020828403121561168657600080fd5b8151610b2081611dc4565b6000602082840312156116a357600080fd5b813567ffffffffffffffff8111156116ba57600080fd5b61138484828501611425565b600080604083850312156116d957600080fd5b825167ffffffffffffffff808211156116f157600080fd5b6116fd8683870161147b565b9350602085015191508082111561171357600080fd5b506117208582860161147b565b9150509250929050565b60006020828403121561173c57600080fd5b815167ffffffffffffffff8082111561175457600080fd5b908301906060828603121561176857600080fd5b60405160608101818110838211171561178357611783611dae565b60405282518281111561179557600080fd5b6117a18782860161147b565b8252506020830151828111156117b657600080fd5b6117c28782860161147b565b602083015250604083015192506117d883611dc4565b6040810192909252509392505050565b6000602082840312156117fa57600080fd5b5035919050565b6000806040838503121561181457600080fd5b82359150602083013561182681611dd9565b809150509250929050565b60008151808452611849816020860160208601611cd2565b601f01601f19169290920160200192915050565b6000835161186f818460208801611cd2565b835190830190611883818360208801611cd2565b01949350505050565b6000835161189e818460208801611cd2565b7f203c75736520687265663d22230000000000000000000000000000000000000090830190815283516118d881600d840160208801611cd2565b601160f91b600d9290910191820152600e01949350505050565b60008251611904818460208701611cd2565b7f202f3e0a00000000000000000000000000000000000000000000000000000000920191825250600401919050565b60008351611945818460208801611cd2565b7f2066696c6c3d2200000000000000000000000000000000000000000000000000908301908152835161197f816007840160208801611cd2565b601160f91b60079290910191820152600801949350505050565b600084516119ab818460208901611cd2565b7f3c672069643d220000000000000000000000000000000000000000000000000090830190815284516119e5816007840160208901611cd2565b7f22203e0a00000000000000000000000000000000000000000000000000000000600792909101918201528351611a2381600b840160208801611cd2565b7f3c2f673e0a000000000000000000000000000000000000000000000000000000600b929091019182015260100195945050505050565b60008351611a6c818460208801611cd2565b7f207472616e73666f726d3d2200000000000000000000000000000000000000009083019081528351611aa681600c840160208801611cd2565b601160f91b600c9290910191820152600d01949350505050565b60008251611ad2818460208701611cd2565b9190910192915050565b7f417373657374436f6d706f7365723a67657450726f766964657249642c20746881527f652070726f766964657220646f6573206e6f742065786973743a000000000000602082015260008251611b3a81603a850160208701611cd2565b91909101603a0192915050565b630636f6d760e41b815260008251611b66816004850160208701611cd2565b9190910160040192915050565b602081526000610b206020830184611831565b604081526000611b996040830185611831565b8281036020840152611bab8185611831565b95945050505050565b602081526000825160606020840152611bd06080840182611831565b90506020840151601f19848303016040850152611bed8282611831565b9150506001600160a01b0360408501511660608401528091505092915050565b6040516080810167ffffffffffffffff81118282101715611c3057611c30611dae565b60405290565b604051601f8201601f1916810167ffffffffffffffff81118282101715611c5f57611c5f611dae565b604052919050565b600067ffffffffffffffff821115611c8157611c81611dae565b50601f01601f191660200190565b60008219821115611ca257611ca2611d6c565b500190565b600082611cb657611cb6611d82565b500490565b600082821015611ccd57611ccd611d6c565b500390565b60005b83811015611ced578181015183820152602001611cd5565b83811115611cfc576000848401525b50505050565b600181811c90821680611d1657607f821691505b60208210811415611d3757634e487b7160e01b600052602260045260246000fd5b50919050565b6000600019821415611d5157611d51611d6c565b5060010190565b600082611d6757611d67611d82565b500690565b634e487b7160e01b600052601160045260246000fd5b634e487b7160e01b600052601260045260246000fd5b634e487b7160e01b600052603260045260246000fd5b634e487b7160e01b600052604160045260246000fd5b6001600160a01b03811681146111f057600080fd5b80151581146111f057600080fdfea2646970667358221220a5f424eefe58e0de7caf32c680b4b03cd0c106087c98ae7743997957b5d4a53364736f6c63430008060033",
  "linkReferences": {},
  "deployedLinkReferences": {}
}