{
  "_format": "hh-sol-artifact-1",
  "contractName": "AssetStore",
  "sourceName": "contracts/AssetStore.sol",
  "abi": [
    {
      "anonymous": false,
      "inputs": [
        {
          "indexed": false,
          "internalType": "address",
          "name": "from",
          "type": "address"
        },
        {
          "indexed": false,
          "internalType": "uint256",
          "name": "assetId",
          "type": "uint256"
        }
      ],
      "name": "AssetRegistered",
      "type": "event"
    },
    {
      "anonymous": false,
      "inputs": [
        {
          "indexed": false,
          "internalType": "string",
          "name": "group",
          "type": "string"
        },
        {
          "indexed": false,
          "internalType": "string",
          "name": "category",
          "type": "string"
        }
      ],
      "name": "CategoryAdded",
      "type": "event"
    },
    {
      "anonymous": false,
      "inputs": [
        {
          "indexed": false,
          "internalType": "string",
          "name": "group",
          "type": "string"
        }
      ],
      "name": "GroupAdded",
      "type": "event"
    },
    {
      "anonymous": false,
      "inputs": [
        {
          "indexed": true,
          "internalType": "address",
          "name": "previousOwner",
          "type": "address"
        },
        {
          "indexed": true,
          "internalType": "address",
          "name": "newOwner",
          "type": "address"
        }
      ],
      "name": "OwnershipTransferred",
      "type": "event"
    },
    {
      "inputs": [
        {
          "internalType": "uint256",
          "name": "_assetId",
          "type": "uint256"
        }
      ],
      "name": "generateSVG",
      "outputs": [
        {
          "internalType": "string",
          "name": "",
          "type": "string"
        }
      ],
      "stateMutability": "view",
      "type": "function"
    },
    {
      "inputs": [
        {
          "internalType": "uint256",
          "name": "_assetId",
          "type": "uint256"
        }
      ],
      "name": "generateSVGPart",
      "outputs": [
        {
          "internalType": "string",
          "name": "",
          "type": "string"
        }
      ],
      "stateMutability": "view",
      "type": "function"
    },
    {
      "inputs": [],
      "name": "getAssetCount",
      "outputs": [
        {
          "internalType": "uint256",
          "name": "",
          "type": "uint256"
        }
      ],
      "stateMutability": "view",
      "type": "function"
    },
    {
      "inputs": [
        {
          "internalType": "string",
          "name": "_group",
          "type": "string"
        },
        {
          "internalType": "string",
          "name": "_category",
          "type": "string"
        }
      ],
      "name": "getAssetCountInCategory",
      "outputs": [
        {
          "internalType": "uint32",
          "name": "",
          "type": "uint32"
        }
      ],
      "stateMutability": "view",
      "type": "function"
    },
    {
      "inputs": [
        {
          "internalType": "string",
          "name": "_group",
          "type": "string"
        },
        {
          "internalType": "string",
          "name": "_category",
          "type": "string"
        },
        {
          "internalType": "uint32",
          "name": "_assetIndex",
          "type": "uint32"
        }
      ],
      "name": "getAssetIdInCategory",
      "outputs": [
        {
          "internalType": "uint256",
          "name": "",
          "type": "uint256"
        }
      ],
      "stateMutability": "view",
      "type": "function"
    },
    {
      "inputs": [
        {
          "internalType": "string",
          "name": "_group",
          "type": "string"
        },
        {
          "internalType": "string",
          "name": "_category",
          "type": "string"
        },
        {
          "internalType": "string",
          "name": "_name",
          "type": "string"
        }
      ],
      "name": "getAssetIdWithName",
      "outputs": [
        {
          "internalType": "uint256",
          "name": "",
          "type": "uint256"
        }
      ],
      "stateMutability": "view",
      "type": "function"
    },
    {
      "inputs": [
        {
          "internalType": "uint256",
          "name": "_assetId",
          "type": "uint256"
        }
      ],
      "name": "getAttributes",
      "outputs": [
        {
          "components": [
            {
              "internalType": "string",
              "name": "group",
              "type": "string"
            },
            {
              "internalType": "string",
              "name": "category",
              "type": "string"
            },
            {
              "internalType": "string",
              "name": "name",
              "type": "string"
            },
            {
              "internalType": "string",
              "name": "tag",
              "type": "string"
            },
            {
              "internalType": "string",
              "name": "minter",
              "type": "string"
            },
            {
              "internalType": "address",
              "name": "soulbound",
              "type": "address"
            },
            {
              "internalType": "uint16",
              "name": "width",
              "type": "uint16"
            },
            {
              "internalType": "uint16",
              "name": "height",
              "type": "uint16"
            }
          ],
          "internalType": "struct IAssetStore.AssetAttributes",
          "name": "",
          "type": "tuple"
        }
      ],
      "stateMutability": "view",
      "type": "function"
    },
    {
      "inputs": [
        {
          "internalType": "string",
          "name": "group",
          "type": "string"
        }
      ],
      "name": "getCategoryCount",
      "outputs": [
        {
          "internalType": "uint32",
          "name": "",
          "type": "uint32"
        }
      ],
      "stateMutability": "view",
      "type": "function"
    },
    {
      "inputs": [
        {
          "internalType": "string",
          "name": "_group",
          "type": "string"
        },
        {
          "internalType": "uint32",
          "name": "_categoryIndex",
          "type": "uint32"
        }
      ],
      "name": "getCategoryNameAtIndex",
      "outputs": [
        {
          "internalType": "string",
          "name": "",
          "type": "string"
        }
      ],
      "stateMutability": "view",
      "type": "function"
    },
    {
      "inputs": [],
      "name": "getGroupCount",
      "outputs": [
        {
          "internalType": "uint32",
          "name": "",
          "type": "uint32"
        }
      ],
      "stateMutability": "view",
      "type": "function"
    },
    {
      "inputs": [
        {
          "internalType": "uint32",
          "name": "_groupIndex",
          "type": "uint32"
        }
      ],
      "name": "getGroupNameAtIndex",
      "outputs": [
        {
          "internalType": "string",
          "name": "",
          "type": "string"
        }
      ],
      "stateMutability": "view",
      "type": "function"
    },
    {
      "inputs": [
        {
          "internalType": "uint256",
          "name": "_assetId",
          "type": "uint256"
        }
      ],
      "name": "getRawAsset",
      "outputs": [
        {
          "components": [
            {
              "internalType": "uint32",
              "name": "groupId",
              "type": "uint32"
            },
            {
              "internalType": "uint32",
              "name": "categoryId",
              "type": "uint32"
            },
            {
              "internalType": "string",
              "name": "name",
              "type": "string"
            },
            {
              "internalType": "string",
              "name": "minter",
              "type": "string"
            },
            {
              "internalType": "address",
              "name": "soulbound",
              "type": "address"
            },
            {
              "internalType": "uint256[]",
              "name": "partsIds",
              "type": "uint256[]"
            }
          ],
          "internalType": "struct AssetStoreCore.Asset",
          "name": "",
          "type": "tuple"
        }
      ],
      "stateMutability": "view",
      "type": "function"
    },
    {
      "inputs": [
        {
          "internalType": "uint256",
          "name": "_partId",
          "type": "uint256"
        }
      ],
      "name": "getRawPart",
      "outputs": [
        {
          "components": [
            {
              "internalType": "bytes",
              "name": "body",
              "type": "bytes"
            },
            {
              "internalType": "string",
              "name": "color",
              "type": "string"
            }
          ],
          "internalType": "struct IAssetStoreRegistry.Part",
          "name": "",
          "type": "tuple"
        }
      ],
      "stateMutability": "view",
      "type": "function"
    },
    {
      "inputs": [],
      "name": "owner",
      "outputs": [
        {
          "internalType": "address",
          "name": "",
          "type": "address"
        }
      ],
      "stateMutability": "view",
      "type": "function"
    },
    {
      "inputs": [
        {
          "components": [
            {
              "internalType": "string",
              "name": "group",
              "type": "string"
            },
            {
              "internalType": "string",
              "name": "category",
              "type": "string"
            },
            {
              "internalType": "string",
              "name": "name",
              "type": "string"
            },
            {
              "internalType": "string",
              "name": "minter",
              "type": "string"
            },
            {
              "internalType": "address",
              "name": "soulbound",
              "type": "address"
            },
            {
              "components": [
                {
                  "internalType": "bytes",
                  "name": "body",
                  "type": "bytes"
                },
                {
                  "internalType": "string",
                  "name": "color",
                  "type": "string"
                }
              ],
              "internalType": "struct IAssetStoreRegistry.Part[]",
              "name": "parts",
              "type": "tuple[]"
            }
          ],
          "internalType": "struct IAssetStoreRegistry.AssetInfo",
          "name": "_assetInfo",
          "type": "tuple"
        }
      ],
      "name": "registerAsset",
      "outputs": [
        {
          "internalType": "uint256",
          "name": "",
          "type": "uint256"
        }
      ],
      "stateMutability": "nonpayable",
      "type": "function"
    },
    {
      "inputs": [
        {
          "components": [
            {
              "internalType": "string",
              "name": "group",
              "type": "string"
            },
            {
              "internalType": "string",
              "name": "category",
              "type": "string"
            },
            {
              "internalType": "string",
              "name": "name",
              "type": "string"
            },
            {
              "internalType": "string",
              "name": "minter",
              "type": "string"
            },
            {
              "internalType": "address",
              "name": "soulbound",
              "type": "address"
            },
            {
              "components": [
                {
                  "internalType": "bytes",
                  "name": "body",
                  "type": "bytes"
                },
                {
                  "internalType": "string",
                  "name": "color",
                  "type": "string"
                }
              ],
              "internalType": "struct IAssetStoreRegistry.Part[]",
              "name": "parts",
              "type": "tuple[]"
            }
          ],
          "internalType": "struct IAssetStoreRegistry.AssetInfo[]",
          "name": "_assetInfos",
          "type": "tuple[]"
        }
      ],
      "name": "registerAssets",
      "outputs": [],
      "stateMutability": "nonpayable",
      "type": "function"
    },
    {
      "inputs": [],
      "name": "renounceOwnership",
      "outputs": [],
      "stateMutability": "nonpayable",
      "type": "function"
    },
    {
      "inputs": [
        {
          "internalType": "bool",
          "name": "_disable",
          "type": "bool"
        }
      ],
      "name": "setDisableWhitelist",
      "outputs": [],
      "stateMutability": "nonpayable",
      "type": "function"
    },
    {
      "inputs": [
        {
          "internalType": "uint256",
          "name": "_assetId",
          "type": "uint256"
        },
        {
          "internalType": "bool",
          "name": "_status",
          "type": "bool"
        }
      ],
      "name": "setDisabled",
      "outputs": [],
      "stateMutability": "nonpayable",
      "type": "function"
    },
    {
      "inputs": [
        {
          "internalType": "contract IPathDecoder",
          "name": "_decoder",
          "type": "address"
        }
      ],
      "name": "setPathDecoder",
      "outputs": [],
      "stateMutability": "nonpayable",
      "type": "function"
    },
    {
      "inputs": [
        {
          "internalType": "contract IStringValidator",
          "name": "_validator",
          "type": "address"
        }
      ],
      "name": "setValidator",
      "outputs": [],
      "stateMutability": "nonpayable",
      "type": "function"
    },
    {
      "inputs": [
        {
          "internalType": "address",
          "name": "_address",
          "type": "address"
        },
        {
          "internalType": "bool",
          "name": "_status",
          "type": "bool"
        }
      ],
      "name": "setWhitelistStatus",
      "outputs": [],
      "stateMutability": "nonpayable",
      "type": "function"
    },
    {
      "inputs": [
        {
          "internalType": "address",
          "name": "newOwner",
          "type": "address"
        }
      ],
      "name": "transferOwnership",
      "outputs": [],
      "stateMutability": "nonpayable",
      "type": "function"
    }
  ],
  "bytecode": "0x608060405260016004819055600655600f805460ff191690553480156200002557600080fd5b506200003133620000e9565b6040516200003f9062000139565b604051809103906000f0801580156200005c573d6000803e3d6000fd5b50600180546001600160a01b0319166001600160a01b03929092169190911790556040516200008b9062000147565b604051809103906000f080158015620000a8573d6000803e3d6000fd5b50600280546001600160a01b0319166001600160a01b0392909216919091179055336000908152600e60205260409020805460ff1916600117905562000155565b600080546001600160a01b038381166001600160a01b0319831681178455604051919092169283917f8be0079c531659141344cd1fd0a4f28419497f9722a3daafe3b4186f6b6457e09190a35050565b6104a980620034bc83390190565b61082e806200396583390190565b61335780620001656000396000f3fe608060405234801561001057600080fd5b506004361061018d5760003560e01c8063715018a6116100e3578063d4f056d41161008c578063eedf630911610066578063eedf630914610348578063ef47664214610368578063f2fde38b1461037b57600080fd5b8063d4f056d41461030f578063e0a0bb8914610322578063e3f24f021461033557600080fd5b8063a0aead4d116100bd578063a0aead4d146102d4578063abca1e63146102dc578063b688a0e2146102ef57600080fd5b8063715018a61461029e5780637805544c146102a65780638da5cb5b146102b957600080fd5b80634378a6e3116101455780635c73924c1161011f5780635c73924c146102585780636613845c146102785780636dcee4ca1461028b57600080fd5b80634378a6e314610204578063468823e214610224578063515f28cb1461024557600080fd5b80630c424284116101765780630c424284146101cb5780631327d3d8146101de57806315ea29be146101f157600080fd5b806306545a93146101925780630727ca4c146101b6575b600080fd5b60085463ffffffff165b60405163ffffffff90911681526020015b60405180910390f35b6101c96101c43660046127fa565b610393565b005b6101c96101d9366004612709565b610405565b6101c96101ec3660046126ec565b61048a565b6101c96101ff366004612adc565b610513565b610217610212366004612ac3565b6105f8565b6040516101ad9190612ef0565b6102376102323660046129cc565b610761565b6040519081526020016101ad565b61019c6102533660046128e0565b610850565b61026b610266366004612b01565b61089c565b6040516101ad9190612eb8565b6101c96102863660046126ec565b6108af565b61026b610299366004612ac3565b610938565b6101c96109e0565b61026b6102b4366004612a40565b610a46565b6000546040516001600160a01b0390911681526020016101ad565b610237610a63565b6102376102ea366004612a8e565b610acd565b6103026102fd366004612ac3565b610b70565b6040516101ad9190613084565b61019c61031d3660046128ab565b610be7565b6101c9610330366004612742565b610c17565b61026b610343366004612ac3565b610cee565b61035b610356366004612ac3565b610d6a565b6040516101ad9190612fcb565b610237610376366004612944565b610e16565b6101c96103893660046126ec565b610e78565b905090565b6000546001600160a01b031633146103f25760405162461bcd60e51b815260206004820181905260248201527f4f776e61626c653a2063616c6c6572206973206e6f7420746865206f776e657260448201526064015b60405180910390fd5b600f805460ff1916911515919091179055565b6000546001600160a01b0316331461045f5760405162461bcd60e51b815260206004820181905260248201527f4f776e61626c653a2063616c6c6572206973206e6f7420746865206f776e657260448201526064016103e9565b6001600160a01b03919091166000908152600e60205260409020805460ff1916911515919091179055565b6000546001600160a01b031633146104e45760405162461bcd60e51b815260206004820181905260248201527f4f776e61626c653a2063616c6c6572206973206e6f7420746865206f776e657260448201526064016103e9565b6001805473ffffffffffffffffffffffffffffffffffffffff19166001600160a01b0392909216919091179055565b81600081118015610525575060045481105b61057d5760405162461bcd60e51b815260206004820152602360248201527f417373657453746f72653a2061737365744964206973206f7574206f662072616044820152626e676560e81b60648201526084016103e9565b6000546001600160a01b031633146105d75760405162461bcd60e51b815260206004820181905260248201527f4f776e61626c653a2063616c6c6572206973206e6f7420746865206f776e657260448201526064016103e9565b50600091825260106020526040909120805460ff1916911515919091179055565b610651604051806101000160405280606081526020016060815260200160608152602001606081526020016060815260200160006001600160a01b03168152602001600061ffff168152602001600061ffff1681525090565b600061065c83610f5a565b90506106b7604051806101000160405280606081526020016060815260200160608152602001606081526020016060815260200160006001600160a01b03168152602001600061ffff168152602001600061ffff1681525090565b604080830151908201526106ca846111c7565b6060808301919091526080808401516001600160a01b031660a08401529083015190820152815161070990610701906001906131c9565b6007906111f8565b8152602082015161074690610720906001906131c9565b8251604051600a9161073191612c2e565b908152604051908190036020019020906111f8565b602082015261040060c0820181905260e08201529392505050565b6000600c846040516107739190612c2e565b90815260200160405180910390208360405161078f9190612c2e565b9081526040519081900360200190205463ffffffff908116908316106107f75760405162461bcd60e51b815260206004820152601e60248201527f546865206173736574496e646578206973206f7574206f662072616e6765000060448201526064016103e9565b600b846040516108079190612c2e565b9081526020016040518091039020836040516108239190612c2e565b9081526040805191829003602090810190922063ffffffff85166000908152925290205490509392505050565b6000600c836040516108629190612c2e565b90815260200160405180910390208260405161087e9190612c2e565b9081526040519081900360200190205463ffffffff16905092915050565b60606108a96007836111f8565b92915050565b6000546001600160a01b031633146109095760405162461bcd60e51b815260206004820181905260248201527f4f776e61626c653a2063616c6c6572206973206e6f7420746865206f776e657260448201526064016103e9565b6002805473ffffffffffffffffffffffffffffffffffffffff19166001600160a01b0392909216919091179055565b600081815260106020526040902054606090829060ff161515600114156109ab5760405162461bcd60e51b815260206004820152602160248201527f417373657453746f72653a207468697320617373657420697320646961626c656044820152601960fa1b60648201526084016103e9565b60006109b684611324565b6040516020016109c69190612d05565b60408051601f198184030181529190529250505b50919050565b6000546001600160a01b03163314610a3a5760405162461bcd60e51b815260206004820181905260248201527f4f776e61626c653a2063616c6c6572206973206e6f7420746865206f776e657260448201526064016103e9565b610a4460006114d8565b565b6060610a5c82600a856040516107319190612c2e565b9392505050565b600080546001600160a01b03163314610abe5760405162461bcd60e51b815260206004820181905260248201527f4f776e61626c653a2063616c6c6572206973206e6f7420746865206f776e657260448201526064016103e9565b600160045461038e91906131b2565b600f5460009060ff1680610af05750336000908152600e602052604090205460ff165b610b625760405162461bcd60e51b815260206004820152603260248201527f417373657453746f72653a20546a68652073656e646572206d7573742062652060448201527f696e20746865207768697465206c6973742e000000000000000000000000000060648201526084016103e9565b6108a982611535565b919050565b60408051808201909152606080825260208201526000546001600160a01b03163314610bde5760405162461bcd60e51b815260206004820181905260248201527f4f776e61626c653a2063616c6c6572206973206e6f7420746865206f776e657260448201526064016103e9565b6108a982611b93565b60006108a9600a83604051610bfc9190612c2e565b90815260200160405180910390206001015463ffffffff1690565b600f5460ff1680610c375750336000908152600e602052604090205460ff165b610ca95760405162461bcd60e51b815260206004820152603260248201527f417373657453746f72653a20546a68652073656e646572206d7573742062652060448201527f696e20746865207768697465206c6973742e000000000000000000000000000060648201526084016103e9565b60005b8151811015610cea57610cd7828281518110610cca57610cca6132d2565b6020026020010151611535565b5080610ce281613253565b915050610cac565b5050565b600081815260106020526040902054606090829060ff16151560011415610d615760405162461bcd60e51b815260206004820152602160248201527f417373657453746f72653a207468697320617373657420697320646961626c656044820152601960fa1b60648201526084016103e9565b610a5c83611324565b6040805160c0810182526000808252602082018190526060928201839052828201839052608082015260a0810191909152336001600160a01b0316610db76000546001600160a01b031690565b6001600160a01b031614610e0d5760405162461bcd60e51b815260206004820181905260248201527f4f776e61626c653a2063616c6c6572206973206e6f7420746865206f776e657260448201526064016103e9565b6108a982610f5a565b6000600d84604051610e289190612c2e565b908152602001604051809103902083604051610e449190612c2e565b908152602001604051809103902082604051610e609190612c2e565b90815260200160405180910390205490509392505050565b6000546001600160a01b03163314610ed25760405162461bcd60e51b815260206004820181905260248201527f4f776e61626c653a2063616c6c6572206973206e6f7420746865206f776e657260448201526064016103e9565b6001600160a01b038116610f4e5760405162461bcd60e51b815260206004820152602660248201527f4f776e61626c653a206e6577206f776e657220697320746865207a65726f206160448201527f646472657373000000000000000000000000000000000000000000000000000060648201526084016103e9565b610f57816114d8565b50565b6040805160c0810182526000808252602082018190526060928201839052828201839052608082015260a081019190915281600081118015610f9d575060045481105b610ff55760405162461bcd60e51b815260206004820152602360248201527f417373657453746f72653a2061737365744964206973206f7574206f662072616044820152626e676560e81b60648201526084016103e9565b600083815260036020908152604091829020825160c081018452815463ffffffff8082168352640100000000909104169281019290925260018101805492939192918401916110439061321e565b80601f016020809104026020016040519081016040528092919081815260200182805461106f9061321e565b80156110bc5780601f10611091576101008083540402835291602001916110bc565b820191906000526020600020905b81548152906001019060200180831161109f57829003601f168201915b505050505081526020016002820180546110d59061321e565b80601f01602080910402602001604051908101604052809291908181526020018280546111019061321e565b801561114e5780601f106111235761010080835404028352916020019161114e565b820191906000526020600020905b81548152906001019060200180831161113157829003601f168201915b505050918352505060038201546001600160a01b031660208083019190915260048301805460408051828502810185018252828152940193928301828280156111b657602002820191906000526020600020905b8154815260200190600101908083116111a2575b505050505081525050915050919050565b60606111d282611d3f565b6040516020016111e29190612cc0565b6040516020818303038152906040529050919050565b600182015460609063ffffffff9081169083161061127e5760405162461bcd60e51b815260206004820152603060248201527f537472696e675365742e6e616d654174496e6465783a2054686520696e64657860448201527f206973206f7574206f662072616e67650000000000000000000000000000000060648201526084016103e9565b63ffffffff82166000908152602084905260409020805461129e9061321e565b80601f01602080910402602001604051908101604052809291908181526020018280546112ca9061321e565b80156113175780601f106112ec57610100808354040283529160200191611317565b820191906000526020600020905b8154815290600101906020018083116112fa57829003601f168201915b5050505050905092915050565b6060600061133183610f5a565b60a08101519091506000611344856111c7565b61134d84611e79565b60405160200161135e929190612e0d565b604051602081830303815290604052905060005b82518110156114ad57600061139f848381518110611392576113926132d2565b6020026020010151611b93565b90506060600082602001515111156113d6576020808301516040516113c49201612dbd565b60405160208183030381529060405290505b60025482516040517fc25ddce000000000000000000000000000000000000000000000000000000000815286926001600160a01b03169163c25ddce0916114209190600401612eb8565b60006040518083038186803b15801561143857600080fd5b505afa15801561144c573d6000803e3d6000fd5b505050506040513d6000823e601f3d908101601f191682016040526114749190810190612834565b8260405160200161148793929190612b48565b6040516020818303038152906040529350505080806114a590613253565b915050611372565b816040516020016114be9190612bed565b60408051601f198184030181529190529695505050505050565b600080546001600160a01b0383811673ffffffffffffffffffffffffffffffffffffffff19831681178455604051919092169283917f8be0079c531659141344cd1fd0a4f28419497f9722a3daafe3b4186f6b6457e09190a35050565b60a0810151516000908290825b818110156116555760008360a001518281518110611562576115626132d2565b6020908102919091018101516001549181015160405163c16e50ef60e01b81529193506001600160a01b039092169163c16e50ef916115a49190600401612eb8565b602060405180830381600087803b1580156115be57600080fd5b505af11580156115d2573d6000803e3d6000fd5b505050506040513d601f19601f820116820180604052508101906115f69190612817565b6116425760405162461bcd60e51b815260206004820152601760248201527f496e76616c69642041737365744461746120436f6c6f7200000000000000000060448201526064016103e9565b508061164d81613253565b915050611542565b600154604080850151905163c16e50ef60e01b81526001600160a01b039092169163c16e50ef9161168891600401612eb8565b602060405180830381600087803b1580156116a257600080fd5b505af11580156116b6573d6000803e3d6000fd5b505050506040513d601f19601f820116820180604052508101906116da9190612817565b6117265760405162461bcd60e51b815260206004820152601660248201527f496e76616c696420417373657444617461204e616d650000000000000000000060448201526064016103e9565b8451604051600d9161173791612c2e565b908152602001604051809103902085602001516040516117579190612c2e565b908152602001604051809103902085604001516040516117779190612c2e565b9081526020016040518091039020546000146117fb5760405162461bcd60e51b815260206004820152603b60248201527f417373657420616c72656164792065786973747320776974682074686520736160448201527f6d652067726f75702c2063617465676f727920616e64206e616d65000000000060648201526084016103e9565b60a08501515160008167ffffffffffffffff81111561181c5761181c6132e8565b604051908082528060200260200182016040528015611845578160200160208202803683370190505b50905060005b828110156118a8576118798860a00151828151811061186c5761186c6132d2565b6020026020010151611ee6565b82828151811061188b5761188b6132d2565b6020908102919091010152806118a081613253565b91505061184b565b60048054600091826118b983613253565b909155506040805160c0810182526000808252602082018190526060928201839052828201839052608082015260a08101919091529091506040808b0151908201526080808b01516001600160a01b0316908201526060808b015190820152895161192390611f55565b63ffffffff168152895160208b015161193c919061216c565b63ffffffff908116602080840191825260a0840187905260008581526003825260409081902085518154945186166401000000000267ffffffffffffffff199095169516949094179290921783559083015180518493926119a49260018501929101906123ad565b50606082015180516119c09160028401916020909101906123ad565b50608082015160038201805473ffffffffffffffffffffffffffffffffffffffff19166001600160a01b0390921691909117905560a08201518051611a0f916004840191602090910190612431565b50508a51604051849250600b91611a2591612c2e565b90815260200160405180910390208b60200151604051611a459190612c2e565b90815260200160405180910390206000600c8d60000151604051611a699190612c2e565b90815260200160405180910390208d60200151604051611a899190612c2e565b908152604051908190036020019020805463ffffffff16906000611aac8361326e565b91906101000a81548163ffffffff021916908363ffffffff16021790555063ffffffff1663ffffffff1681526020019081526020016000208190555081600d8b60000151604051611afd9190612c2e565b90815260200160405180910390208b60200151604051611b1d9190612c2e565b90815260200160405180910390208b60400151604051611b3d9190612c2e565b9081526040805160209281900383018120939093553383529082018490527ffd64e3f1068245597a589d8b057edbd3d3c312207d5c6d0d770825f68604ff1a910160405180910390a15098975050505050505050565b604080518082019091526060808252602082015281600081118015611bb9575060065481105b611c055760405162461bcd60e51b815260206004820152601660248201527f706172744964206973206f7574206f662072616e67650000000000000000000060448201526064016103e9565b600083815260056020526040908190208151808301909252805482908290611c2c9061321e565b80601f0160208091040260200160405190810160405280929190818152602001828054611c589061321e565b8015611ca55780601f10611c7a57610100808354040283529160200191611ca5565b820191906000526020600020905b815481529060010190602001808311611c8857829003601f168201915b50505050508152602001600182018054611cbe9061321e565b80601f0160208091040260200160405190810160405280929190818152602001828054611cea9061321e565b80156111b65780601f10611d0c576101008083540402835291602001916111b6565b820191906000526020600020905b815481529060010190602001808311611d1a5750505091909252509195945050505050565b606081611d7f57505060408051808201909152600181527f3000000000000000000000000000000000000000000000000000000000000000602082015290565b8160005b8115611da95780611d9381613253565b9150611da29050600a8361319e565b9150611d83565b60008167ffffffffffffffff811115611dc457611dc46132e8565b6040519080825280601f01601f191660200182016040528015611dee576020820181803683370190505b5090505b8415611e7157611e036001836131b2565b9150611e10600a86613292565b611e1b906030613186565b60f81b818381518110611e3057611e306132d2565b60200101907effffffffffffffffffffffffffffffffffffffffffffffffffffffffffffff1916908160001a905350611e6a600a8661319e565b9450611df2565b949350505050565b60606000611e916001846000015161070191906131c9565b905080611eb860018560200151611ea891906131c9565b600a846040516107319190612c2e565b8460400151604051602001611ecf93929190612c4a565b604051602081830303815290604052915050919050565b6000816005600060066000815480929190611f0090613253565b909155508152602080820192909252604001600020825180519192611f2a928492909101906123ad565b506020828101518051611f4392600185019201906123ad565b50506006546108a991506001906131b2565b600080600760020183604051611f6b9190612c2e565b9081526040519081900360200190205463ffffffff169050806108a95760015460405163c16e50ef60e01b81526001600160a01b039091169063c16e50ef90611fb8908690600401612eb8565b602060405180830381600087803b158015611fd257600080fd5b505af1158015611fe6573d6000803e3d6000fd5b505050506040513d601f19601f8201168201806040525081019061200a9190612817565b61207c5760405162461bcd60e51b815260206004820152602660248201527f417373657453746f72652e5f67657447726f757049643a20496e76616c69642060448201527f537472696e67000000000000000000000000000000000000000000000000000060648201526084016103e9565b60088054849160079160009163ffffffff909116908261209b8361326e565b91906101000a81548163ffffffff021916908363ffffffff16021790555063ffffffff1663ffffffff16815260200190815260200160002090805190602001906120e69291906123ad565b505060085460405163ffffffff909116908190600990612107908690612c2e565b908152604051908190036020018120805463ffffffff9390931663ffffffff19909316929092179091557ff38f46310740c7f6f3e724364a429e671b125298f7a65e69fc18ff94a1e2d0479061215e908590612eb8565b60405180910390a192915050565b600080600a8460405161217f9190612c2e565b90815260200160405180910390209050600081600201846040516121a39190612c2e565b9081526040519081900360200190205463ffffffff16905080611e715760015460405163c16e50ef60e01b81526001600160a01b039091169063c16e50ef906121f0908790600401612eb8565b602060405180830381600087803b15801561220a57600080fd5b505af115801561221e573d6000803e3d6000fd5b505050506040513d601f19601f820116820180604052508101906122429190612817565b6122b45760405162461bcd60e51b815260206004820152602960248201527f417373657453746f72652e5f67657443617465676f727949643a20496e76616c60448201527f696420537472696e67000000000000000000000000000000000000000000000060648201526084016103e9565b6001820180548591849160009163ffffffff90911690826122d48361326e565b91906101000a81548163ffffffff021916908363ffffffff16021790555063ffffffff1663ffffffff168152602001908152602001600020908051906020019061231f9291906123ad565b5050600181015460405163ffffffff9091169081906002840190612344908790612c2e565b908152604051908190036020018120805463ffffffff9390931663ffffffff19909316929092179091557fcbc1b8c1fb300e15a9e99dc508aecdff1352f0fad4a5e4b7832d41e369635c039061239d9087908790612ecb565b60405180910390a1949350505050565b8280546123b99061321e565b90600052602060002090601f0160209004810192826123db5760008555612421565b82601f106123f457805160ff1916838001178555612421565b82800160010185558215612421579182015b82811115612421578251825591602001919060010190612406565b5061242d92915061246b565b5090565b8280548282559060005260206000209081019282156124215791602002820182811115612421578251825591602001919060010190612406565b5b8082111561242d576000815560010161246c565b600061249361248e8461315e565b613109565b90508281528383830111156124a757600080fd5b828260208301376000602084830101529392505050565b8035610b6b816132fe565b600082601f8301126124da57600080fd5b813560206124ea61248e8361313a565b80838252828201915082860187848660051b890101111561250a57600080fd5b60005b858110156125bc57813567ffffffffffffffff8082111561252d57600080fd5b908901906040828c03601f190181131561254657600080fd5b61254e6130bd565b888401358381111561255f57600080fd5b8401603f81018e1361257057600080fd5b6125808e8b830135858401612480565b82525090830135908282111561259557600080fd5b6125a38d8a848701016125c9565b818a01528752505050928401929084019060010161250d565b5090979650505050505050565b600082601f8301126125da57600080fd5b610a5c83833560208501612480565b600060c082840312156125fb57600080fd5b6126036130e6565b9050813567ffffffffffffffff8082111561261d57600080fd5b612629858386016125c9565b8352602084013591508082111561263f57600080fd5b61264b858386016125c9565b6020840152604084013591508082111561266457600080fd5b612670858386016125c9565b6040840152606084013591508082111561268957600080fd5b612695858386016125c9565b60608401526126a6608085016124be565b608084015260a08401359150808211156126bf57600080fd5b506126cc848285016124c9565b60a08301525092915050565b803563ffffffff81168114610b6b57600080fd5b6000602082840312156126fe57600080fd5b8135610a5c816132fe565b6000806040838503121561271c57600080fd5b8235612727816132fe565b9150602083013561273781613313565b809150509250929050565b6000602080838503121561275557600080fd5b823567ffffffffffffffff8082111561276d57600080fd5b818501915085601f83011261278157600080fd5b813561278f61248e8261313a565b80828252858201915085850189878560051b88010111156127af57600080fd5b6000805b858110156127ea578235878111156127c9578283fd5b6127d78d8b838c01016125e9565b86525093880193918801916001016127b3565b50919a9950505050505050505050565b60006020828403121561280c57600080fd5b8135610a5c81613313565b60006020828403121561282957600080fd5b8151610a5c81613313565b60006020828403121561284657600080fd5b815167ffffffffffffffff81111561285d57600080fd5b8201601f8101841361286e57600080fd5b805161287c61248e8261315e565b81815285602083850101111561289157600080fd5b6128a28260208301602086016131ee565b95945050505050565b6000602082840312156128bd57600080fd5b813567ffffffffffffffff8111156128d457600080fd5b611e71848285016125c9565b600080604083850312156128f357600080fd5b823567ffffffffffffffff8082111561290b57600080fd5b612917868387016125c9565b9350602085013591508082111561292d57600080fd5b5061293a858286016125c9565b9150509250929050565b60008060006060848603121561295957600080fd5b833567ffffffffffffffff8082111561297157600080fd5b61297d878388016125c9565b9450602086013591508082111561299357600080fd5b61299f878388016125c9565b935060408601359150808211156129b557600080fd5b506129c2868287016125c9565b9150509250925092565b6000806000606084860312156129e157600080fd5b833567ffffffffffffffff808211156129f957600080fd5b612a05878388016125c9565b94506020860135915080821115612a1b57600080fd5b50612a28868287016125c9565b925050612a37604085016126d8565b90509250925092565b60008060408385031215612a5357600080fd5b823567ffffffffffffffff811115612a6a57600080fd5b612a76858286016125c9565b925050612a85602084016126d8565b90509250929050565b600060208284031215612aa057600080fd5b813567ffffffffffffffff811115612ab757600080fd5b611e71848285016125e9565b600060208284031215612ad557600080fd5b5035919050565b60008060408385031215612aef57600080fd5b82359150602083013561273781613313565b600060208284031215612b1357600080fd5b610a5c826126d8565b60008151808452612b348160208601602086016131ee565b601f01601f19169290920160200192915050565b60008451612b5a8184602089016131ee565b7f20203c7061746820643d220000000000000000000000000000000000000000009083019081528451612b9481600b8401602089016131ee565b601160f91b600b92909101918201528351612bb681600c8401602088016131ee565b7f202f3e0a00000000000000000000000000000000000000000000000000000000600c929091019182015260100195945050505050565b60008251612bff8184602087016131ee565b7f203c2f673e0a0000000000000000000000000000000000000000000000000000920191825250600601919050565b60008251612c408184602087016131ee565b9190910192915050565b60008451612c5c8184602089016131ee565b80830190507f2f000000000000000000000000000000000000000000000000000000000000008082528551612c98816001850160208a016131ee565b60019201918201528351612cb38160028401602088016131ee565b0160020195945050505050565b7f6173736574000000000000000000000000000000000000000000000000000000815260008251612cf88160058501602087016131ee565b9190910160050192915050565b7f3c7376672076696577426f783d22302030203130323420313032342220786d6c81527f6e733d22687474703a2f2f7777772e77332e6f72672f323030302f737667223e60208201527f0a00000000000000000000000000000000000000000000000000000000000000604082015260008251612d898160418501602087016131ee565b7f3c2f7376673e00000000000000000000000000000000000000000000000000006041939091019283015250604701919050565b7f2066696c6c3d2200000000000000000000000000000000000000000000000000815260008251612df58160078501602087016131ee565b601160f91b6007939091019283015250600801919050565b7f203c672069643d22000000000000000000000000000000000000000000000000815260008351612e458160088501602088016131ee565b7f2220646573633d220000000000000000000000000000000000000000000000006008918401918201528351612e828160108401602088016131ee565b7f223e0a000000000000000000000000000000000000000000000000000000000060109290910191820152601301949350505050565b602081526000610a5c6020830184612b1c565b604081526000612ede6040830185612b1c565b82810360208401526128a28185612b1c565b6020815260008251610100806020850152612f0f610120850183612b1c565b91506020850151601f1980868503016040870152612f2d8483612b1c565b93506040870151915080868503016060870152612f4a8483612b1c565b93506060870151915080868503016080870152612f678483612b1c565b935060808701519150808685030160a087015250612f858382612b1c565b92505060a0850151612fa260c08601826001600160a01b03169052565b5060c085015161ffff811660e08601525060e085015161ffff8116858301525090949350505050565b6000602080835263ffffffff8085511682850152808286015116604085015250604084015160c0606085015261300460e0850182612b1c565b90506060850151601f19808684030160808701526130228383612b1c565b60808801516001600160a01b031660a08881019190915288015187820390920160c088015281518082529185019350600092508401905b808310156130795783518252928401926001929092019190840190613059565b509695505050505050565b6020815260008251604060208401526130a06060840182612b1c565b90506020840151601f198483030160408501526128a28282612b1c565b6040805190810167ffffffffffffffff811182821017156130e0576130e06132e8565b60405290565b60405160c0810167ffffffffffffffff811182821017156130e0576130e06132e8565b604051601f8201601f1916810167ffffffffffffffff81118282101715613132576131326132e8565b604052919050565b600067ffffffffffffffff821115613154576131546132e8565b5060051b60200190565b600067ffffffffffffffff821115613178576131786132e8565b50601f01601f191660200190565b60008219821115613199576131996132a6565b500190565b6000826131ad576131ad6132bc565b500490565b6000828210156131c4576131c46132a6565b500390565b600063ffffffff838116908316818110156131e6576131e66132a6565b039392505050565b60005b838110156132095781810151838201526020016131f1565b83811115613218576000848401525b50505050565b600181811c9082168061323257607f821691505b602082108114156109da57634e487b7160e01b600052602260045260246000fd5b6000600019821415613267576132676132a6565b5060010190565b600063ffffffff80831681811415613288576132886132a6565b6001019392505050565b6000826132a1576132a16132bc565b500690565b634e487b7160e01b600052601160045260246000fd5b634e487b7160e01b600052601260045260246000fd5b634e487b7160e01b600052603260045260246000fd5b634e487b7160e01b600052604160045260246000fd5b6001600160a01b0381168114610f5757600080fd5b8015158114610f5757600080fdfea264697066735822122041410d343e0fa9e1d8df5dc6e6edb55622847de8771d49fe52e9a62df711090164736f6c63430008060033608060405234801561001057600080fd5b50610489806100206000396000f3fe608060405234801561001057600080fd5b506004361061002b5760003560e01c8063c16e50ef14610030575b600080fd5b61004361003e36600461034d565b610057565b604051901515815260200160405180910390f35b6000805b825181101561034457600083828151811061007857610078610427565b01602001516001600160f81b03191690507f300000000000000000000000000000000000000000000000000000000000000081108015906100e357507f39000000000000000000000000000000000000000000000000000000000000006001600160f81b0319821611155b8061014d57507f41000000000000000000000000000000000000000000000000000000000000006001600160f81b031982161080159061014d57507f5a000000000000000000000000000000000000000000000000000000000000006001600160f81b0319821611155b806101b757507f61000000000000000000000000000000000000000000000000000000000000006001600160f81b03198216108015906101b757507f7a000000000000000000000000000000000000000000000000000000000000006001600160f81b0319821611155b806101eb57507f20000000000000000000000000000000000000000000000000000000000000006001600160f81b03198216145b8061021f57507f23000000000000000000000000000000000000000000000000000000000000006001600160f81b03198216145b8061025357507f28000000000000000000000000000000000000000000000000000000000000006001600160f81b03198216145b8061028757507f29000000000000000000000000000000000000000000000000000000000000006001600160f81b03198216145b806102bb57507f2c000000000000000000000000000000000000000000000000000000000000006001600160f81b03198216145b806102ef57507f2d000000000000000000000000000000000000000000000000000000000000006001600160f81b03198216145b8061032357507f2e000000000000000000000000000000000000000000000000000000000000006001600160f81b03198216145b610331575060009392505050565b508061033c816103fe565b91505061005b565b50600192915050565b60006020828403121561035f57600080fd5b813567ffffffffffffffff8082111561037757600080fd5b818401915084601f83011261038b57600080fd5b81358181111561039d5761039d61043d565b604051601f8201601f19908116603f011681019083821181831017156103c5576103c561043d565b816040528281528760208487010111156103de57600080fd5b826020860160208301376000928101602001929092525095945050505050565b600060001982141561042057634e487b7160e01b600052601160045260246000fd5b5060010190565b634e487b7160e01b600052603260045260246000fd5b634e487b7160e01b600052604160045260246000fdfea2646970667358221220afea0309c73056a4d317ac35752842ef5c4546c8e13b6459b4685c4180172c9364736f6c63430008060033608060405234801561001057600080fd5b5061080e806100206000396000f3fe608060405234801561001057600080fd5b506004361061002b5760003560e01c8063c25ddce014610030575b600080fd5b61004361003e3660046103f4565b610059565b6040516100509190610590565b60405180910390f35b60608060008060038551600261006f9190610658565b6100799190610601565b9050600091505b8061ffff168261ffff1610156102b157600061009d600284610601565b6100a8906003610658565b90506000806100b8600286610729565b61ffff1661011b57878361ffff16815181106100d6576100d66107ac565b016020015160f81c91506010886100ee8560016105c3565b61ffff1681518110610102576101026107ac565b0160200151610114919060f81c61075e565b905061017c565b876101278460026105c3565b61ffff168151811061013b5761013b6107ac565b016020015160f81c91506010886101538560016105c3565b61ffff1681518110610167576101676107ac565b0160200151610179919060f81c610636565b90505b60ff81166101e95760418260ff161015801561019c5750605a8260ff1611155b806101ba575060618260ff16101580156101ba5750607a8260ff1611155b156101e45785826040516020016101d2929190610546565b60405160208183030381529060405295505b61029b565b60006101008360ff168360ff166101006102039190610658565b61020d91906105c3565b6102179190610682565b90506104008161ffff1610610266578661023f61023661040084610682565b61ffff166102ba565b6040516020016102509291906104a5565b6040516020818303038152906040529650610299565b8661027661023683610400610682565b6040516020016102879291906104e0565b60405160208183030381529060405296505b505b50505081806102a9906106ec565b925050610080565b50909392505050565b6060816102fa57505060408051808201909152600181527f3000000000000000000000000000000000000000000000000000000000000000602082015290565b8160005b8115610324578061030e8161070e565b915061031d9050600a83610622565b91506102fe565b60008167ffffffffffffffff81111561033f5761033f6107c2565b6040519080825280601f01601f191660200182016040528015610369576020820181803683370190505b5090505b84156103ec5761037e6001836106a5565b915061038b600a8661074a565b6103969060306105e9565b60f81b8183815181106103ab576103ab6107ac565b60200101907effffffffffffffffffffffffffffffffffffffffffffffffffffffffffffff1916908160001a9053506103e5600a86610622565b945061036d565b949350505050565b60006020828403121561040657600080fd5b813567ffffffffffffffff8082111561041e57600080fd5b818401915084601f83011261043257600080fd5b813581811115610444576104446107c2565b604051601f8201601f19908116603f0116810190838211818310171561046c5761046c6107c2565b8160405282815287602084870101111561048557600080fd5b826020860160208301376000928101602001929092525095945050505050565b600083516104b78184602088016106bc565b8351908301906104cb8183602088016106bc565b600160fd1b9101908152600101949350505050565b600083516104f28184602088016106bc565b7f2d00000000000000000000000000000000000000000000000000000000000000908301908152835161052c8160018401602088016106bc565b600160fd1b60019290910191820152600201949350505050565b600083516105588184602088016106bc565b60f89390931b7fff00000000000000000000000000000000000000000000000000000000000000169190920190815260010192915050565b60208152600082518060208401526105af8160408501602087016106bc565b601f01601f19169190910160400192915050565b600061ffff8083168185168083038211156105e0576105e0610780565b01949350505050565b600082198211156105fc576105fc610780565b500190565b600061ffff8084168061061657610616610796565b92169190910492915050565b60008261063157610631610796565b500490565b600060ff83168061064957610649610796565b8060ff84160491505092915050565b600061ffff8083168185168183048111821515161561067957610679610780565b02949350505050565b600061ffff8381169083168181101561069d5761069d610780565b039392505050565b6000828210156106b7576106b7610780565b500390565b60005b838110156106d75781810151838201526020016106bf565b838111156106e6576000848401525b50505050565b600061ffff8083168181141561070457610704610780565b6001019392505050565b600060001982141561072257610722610780565b5060010190565b600061ffff8084168061073e5761073e610796565b92169190910692915050565b60008261075957610759610796565b500690565b600060ff83168061077157610771610796565b8060ff84160691505092915050565b634e487b7160e01b600052601160045260246000fd5b634e487b7160e01b600052601260045260246000fd5b634e487b7160e01b600052603260045260246000fd5b634e487b7160e01b600052604160045260246000fdfea2646970667358221220038bd1c52f0e6583e742e3cf819d576aface40be80a5533beb30205cc733e91864736f6c63430008060033",
  "linkReferences": {},
  "deployedLinkReferences": {}
}