{
  "_format": "hh-sol-artifact-1",
  "contractName": "AssetComposer",
  "sourceName": "contracts/AssetComposer.sol",
  "abi": [
    {
      "inputs": [
        {
          "internalType": "contract IAssetStoreEx",
          "name": "_assetStore",
          "type": "address"
        }
      ],
      "stateMutability": "nonpayable",
      "type": "constructor"
    },
    {
      "anonymous": false,
      "inputs": [
        {
          "indexed": false,
          "internalType": "address",
          "name": "from",
          "type": "address"
        },
        {
          "indexed": false,
          "internalType": "uint256",
          "name": "compositionId",
          "type": "uint256"
        }
      ],
      "name": "CompositionRegistered",
      "type": "event"
    },
    {
      "anonymous": false,
      "inputs": [
        {
          "indexed": true,
          "internalType": "address",
          "name": "previousOwner",
          "type": "address"
        },
        {
          "indexed": true,
          "internalType": "address",
          "name": "newOwner",
          "type": "address"
        }
      ],
      "name": "OwnershipTransferred",
      "type": "event"
    },
    {
      "anonymous": false,
      "inputs": [
        {
          "indexed": false,
          "internalType": "string",
          "name": "providerKey",
          "type": "string"
        },
        {
          "indexed": false,
          "internalType": "uint256",
          "name": "assetId",
          "type": "uint256"
        },
        {
          "indexed": false,
          "internalType": "address payable",
          "name": "to",
          "type": "address"
        },
        {
          "indexed": false,
          "internalType": "uint256",
          "name": "amount",
          "type": "uint256"
        }
      ],
      "name": "Payout",
      "type": "event"
    },
    {
      "anonymous": false,
      "inputs": [
        {
          "indexed": false,
          "internalType": "address",
          "name": "from",
          "type": "address"
        },
        {
          "indexed": false,
          "internalType": "uint256",
          "name": "_providerId",
          "type": "uint256"
        }
      ],
      "name": "ProviderRegistered",
      "type": "event"
    },
    {
      "anonymous": false,
      "inputs": [
        {
          "indexed": false,
          "internalType": "address",
          "name": "from",
          "type": "address"
        },
        {
          "indexed": false,
          "internalType": "uint256",
          "name": "_providerId",
          "type": "uint256"
        }
      ],
      "name": "ProviderUpdated",
      "type": "event"
    },
    {
      "inputs": [],
      "name": "admin",
      "outputs": [
        {
          "internalType": "address",
          "name": "",
          "type": "address"
        }
      ],
      "stateMutability": "view",
      "type": "function"
    },
    {
      "inputs": [],
      "name": "assetStore",
      "outputs": [
        {
          "internalType": "contract IAssetStoreEx",
          "name": "",
          "type": "address"
        }
      ],
      "stateMutability": "view",
      "type": "function"
    },
    {
      "inputs": [
        {
          "internalType": "uint256",
          "name": "_compositionId",
          "type": "uint256"
        }
      ],
      "name": "generateSVGPart",
      "outputs": [
        {
          "internalType": "string",
          "name": "",
          "type": "string"
        },
        {
          "internalType": "string",
          "name": "",
          "type": "string"
        }
      ],
      "stateMutability": "view",
      "type": "function"
    },
    {
      "inputs": [],
      "name": "getOwner",
      "outputs": [
        {
          "internalType": "address",
          "name": "",
          "type": "address"
        }
      ],
      "stateMutability": "view",
      "type": "function"
    },
    {
      "inputs": [
        {
          "internalType": "uint256",
          "name": "_providerId",
          "type": "uint256"
        }
      ],
      "name": "getProvider",
      "outputs": [
        {
          "components": [
            {
              "internalType": "string",
              "name": "key",
              "type": "string"
            },
            {
              "internalType": "string",
              "name": "name",
              "type": "string"
            },
            {
              "internalType": "contract IAssetProvider",
              "name": "provider",
              "type": "address"
            }
          ],
          "internalType": "struct IAssetProvider.ProviderInfo",
          "name": "",
          "type": "tuple"
        }
      ],
      "stateMutability": "view",
      "type": "function"
    },
    {
      "inputs": [
        {
          "internalType": "string",
          "name": "_key",
          "type": "string"
        }
      ],
      "name": "getProviderId",
      "outputs": [
        {
          "internalType": "uint256",
          "name": "",
          "type": "uint256"
        }
      ],
      "stateMutability": "view",
      "type": "function"
    },
    {
      "inputs": [],
      "name": "getProviderInfo",
      "outputs": [
        {
          "components": [
            {
              "internalType": "string",
              "name": "key",
              "type": "string"
            },
            {
              "internalType": "string",
              "name": "name",
              "type": "string"
            },
            {
              "internalType": "contract IAssetProvider",
              "name": "provider",
              "type": "address"
            }
          ],
          "internalType": "struct IAssetProvider.ProviderInfo",
          "name": "",
          "type": "tuple"
        }
      ],
      "stateMutability": "view",
      "type": "function"
    },
    {
      "inputs": [],
      "name": "nextCompositionId",
      "outputs": [
        {
          "internalType": "uint256",
          "name": "",
          "type": "uint256"
        }
      ],
      "stateMutability": "view",
      "type": "function"
    },
    {
      "inputs": [],
      "name": "owner",
      "outputs": [
        {
          "internalType": "address",
          "name": "",
          "type": "address"
        }
      ],
      "stateMutability": "view",
      "type": "function"
    },
    {
      "inputs": [
        {
          "internalType": "uint256",
          "name": "_compositionId",
          "type": "uint256"
        },
        {
          "internalType": "uint256",
          "name": "_skipIndex",
          "type": "uint256"
        }
      ],
      "name": "processPayout",
      "outputs": [],
      "stateMutability": "payable",
      "type": "function"
    },
    {
      "inputs": [],
      "name": "providerCount",
      "outputs": [
        {
          "internalType": "uint256",
          "name": "",
          "type": "uint256"
        }
      ],
      "stateMutability": "view",
      "type": "function"
    },
    {
      "inputs": [
        {
          "components": [
            {
              "internalType": "uint256",
              "name": "assetId",
              "type": "uint256"
            },
            {
              "internalType": "string",
              "name": "provider",
              "type": "string"
            },
            {
              "internalType": "string",
              "name": "fill",
              "type": "string"
            },
            {
              "internalType": "string",
              "name": "transform",
              "type": "string"
            },
            {
              "internalType": "uint256",
              "name": "stroke",
              "type": "uint256"
            }
          ],
          "internalType": "struct IAssetComposer.AssetLayer[]",
          "name": "_layers",
          "type": "tuple[]"
        }
      ],
      "name": "registerComposition",
      "outputs": [
        {
          "internalType": "uint256",
          "name": "compositionId",
          "type": "uint256"
        }
      ],
      "stateMutability": "nonpayable",
      "type": "function"
    },
    {
      "inputs": [
        {
          "internalType": "contract IAssetProvider",
          "name": "_provider",
          "type": "address"
        }
      ],
      "name": "registerProvider",
      "outputs": [
        {
          "internalType": "uint256",
          "name": "providerId",
          "type": "uint256"
        }
      ],
      "stateMutability": "nonpayable",
      "type": "function"
    },
    {
      "inputs": [],
      "name": "renounceOwnership",
      "outputs": [],
      "stateMutability": "nonpayable",
      "type": "function"
    },
    {
      "inputs": [
        {
          "internalType": "address",
          "name": "_admin",
          "type": "address"
        }
      ],
      "name": "setAdmin",
      "outputs": [],
      "stateMutability": "nonpayable",
      "type": "function"
    },
    {
      "inputs": [
        {
          "internalType": "uint256",
          "name": "_compositionId",
          "type": "uint256"
        },
        {
          "internalType": "bool",
          "name": "_status",
          "type": "bool"
        }
      ],
      "name": "setDisabled",
      "outputs": [],
      "stateMutability": "nonpayable",
      "type": "function"
    },
    {
      "inputs": [
        {
          "internalType": "bytes4",
          "name": "interfaceId",
          "type": "bytes4"
        }
      ],
      "name": "supportsInterface",
      "outputs": [
        {
          "internalType": "bool",
          "name": "",
          "type": "bool"
        }
      ],
      "stateMutability": "view",
      "type": "function"
    },
    {
      "inputs": [],
      "name": "totalSupply",
      "outputs": [
        {
          "internalType": "uint256",
          "name": "",
          "type": "uint256"
        }
      ],
      "stateMutability": "view",
      "type": "function"
    },
    {
      "inputs": [
        {
          "internalType": "address",
          "name": "newOwner",
          "type": "address"
        }
      ],
      "name": "transferOwnership",
      "outputs": [],
      "stateMutability": "nonpayable",
      "type": "function"
    }
  ],
  "bytecode": "0x60a06040523480156200001157600080fd5b50604051620025e6380380620025e68339810160408190526200003491620000ce565b606081901b6001600160601b0319166080528062000052336200007c565b5050600354600480546001600160a01b0319166001600160a01b0390921691909117905562000100565b600380546001600160a01b038381166001600160a01b0319831681179093556040519116919082907f8be0079c531659141344cd1fd0a4f28419497f9722a3daafe3b4186f6b6457e090600090a35050565b600060208284031215620000e157600080fd5b81516001600160a01b0381168114620000f957600080fd5b9392505050565b60805160601c6124c06200012660003960008181610215015261130401526124c06000f3fe6080604052600436106101445760003560e01c806374c83268116100c0578063e3f24f0211610074578063f2c593ee11610059578063f2c593ee146103e2578063f2fde38b14610402578063f851a4401461042257600080fd5b8063e3f24f021461039e578063ea575c61146103cc57600080fd5b80638c40188e116100a55780638c40188e146102db5780638d07c0821461036d5780638da5cb5b1461038057600080fd5b806374c83268146102b1578063893d20e8146102c657600080fd5b80634854078f116101175780635c42d079116100fc5780635c42d0791461024f578063704b6c021461027c578063715018a61461029c57600080fd5b80634854078f146101e3578063597a0e361461020357600080fd5b806301ffc9a7146101495780630e2600161461017e57806315ea29be146101ac57806318160ddd146101ce575b600080fd5b34801561015557600080fd5b50610169610164366004611c2e565b610442565b60405190151581526020015b60405180910390f35b34801561018a57600080fd5b5061019e610199366004611a7a565b610513565b604051908152602001610175565b3480156101b857600080fd5b506101cc6101c7366004611dc8565b610926565b005b3480156101da57600080fd5b5060065461019e565b3480156101ef57600080fd5b5061019e6101fe366004611c58565b6109db565b34801561020f57600080fd5b506102377f000000000000000000000000000000000000000000000000000000000000000081565b6040516001600160a01b039091168152602001610175565b34801561025b57600080fd5b5061026f61026a366004611daf565b610a54565b6040516101759190612246565b34801561028857600080fd5b506101cc610297366004611a7a565b610b12565b3480156102a857600080fd5b506101cc610b9b565b3480156102bd57600080fd5b5060005461019e565b3480156102d257600080fd5b50610237610c01565b3480156102e757600080fd5b5061026f60408051606080820183528082526020820152600091810191909152506040805160a081018252600460608201908152630636f6d760e41b6080830152815281518083018352600e81527f417373657420436f6d706f736572000000000000000000000000000000000000602082810191909152820152309181019190915290565b6101cc61037b366004611df8565b610c1a565b34801561038c57600080fd5b506003546001600160a01b0316610237565b3480156103aa57600080fd5b506103be6103b9366004611daf565b610d95565b604051610175929190612218565b3480156103d857600080fd5b5061019e60065481565b3480156103ee57600080fd5b5061019e6103fd366004611ab4565b6112ff565b34801561040e57600080fd5b506101cc61041d366004611a7a565b6116cb565b34801561042e57600080fd5b50600454610237906001600160a01b031681565b60006001600160e01b031982167f6ef8e5880000000000000000000000000000000000000000000000000000000014806104a557506001600160e01b031982167f1137dcec00000000000000000000000000000000000000000000000000000000145b806104d957506001600160e01b031982167f739eba3b00000000000000000000000000000000000000000000000000000000145b8061050d57506001600160e01b031982167f01ffc9a700000000000000000000000000000000000000000000000000000000145b92915050565b600080826001600160a01b0316638c40188e6040518163ffffffff1660e01b815260040160006040518083038186803b15801561054f57600080fd5b505afa158015610563573d6000803e3d6000fd5b505050506040513d6000823e601f3d908101601f1916820160405261058b9190810190611cf1565b9050600181600001516040516105a19190612152565b9081526020016040518091039020549150816000146107d757816105c481612394565b6000818152600260209081526040918290205482517f893d20e800000000000000000000000000000000000000000000000000000000815292519396506001600160a01b03169350839263893d20e8926004808201939291829003018186803b15801561063057600080fd5b505afa158015610644573d6000803e3d6000fd5b505050506040513d601f19601f820116820180604052508101906106689190611a97565b6001600160a01b0316846001600160a01b031663893d20e86040518163ffffffff1660e01b815260040160206040518083038186803b1580156106aa57600080fd5b505afa1580156106be573d6000803e3d6000fd5b505050506040513d601f19601f820116820180604052508101906106e29190611a97565b6001600160a01b0316146107635760405162461bcd60e51b815260206004820152603260248201527f4173736574436f6d706f7365723a726567697374657250726f76696465722c2060448201527f616c72656164792072656769737465726564000000000000000000000000000060648201526084015b60405180910390fd5b600083815260026020908152604091829020805473ffffffffffffffffffffffffffffffffffffffff19166001600160a01b03881617905581513381529081018590527f4141f33bf490d9190a43ac8dc2fd923fdd3a01d78b82d1fa85f803a91f4bf4ae910160405180910390a150610920565b80604001516001600160a01b0316836001600160a01b0316146108625760405162461bcd60e51b815260206004820152603060248201527f4173736574436f6d706f7365723a726567697374657250726f76696465722c2060448201527f61646472657373206d69736d6174636800000000000000000000000000000000606482015260840161075a565b6000805484916002918180610876836123e0565b91905055815260200190815260200160002060006101000a8154816001600160a01b0302191690836001600160a01b03160217905550600054600182600001516040516108c39190612152565b908152604051908190036020019020556000546108e29060019061234d565b60408051338152602081018390529193507f90c9734131c1e4fb36cde2d71e6feb93fb258f71be8a85411c173d25e1516e8091015b60405180910390a15b50919050565b6003546001600160a01b031633148061094957506004546001600160a01b031633145b6109bb5760405162461bcd60e51b815260206004820152602660248201527f4173736574436f6d706f7365723a2063616c6c6572206973206e6f742074686560448201527f2061646d696e0000000000000000000000000000000000000000000000000000606482015260840161075a565b600091825260056020526040909120805460ff1916911515919091179055565b6000806001836040516109ee9190612152565b90815260200160405180910390205490506000811183604051602001610a14919061216e565b60405160208183030381529060405290610a415760405162461bcd60e51b815260040161075a9190612205565b50610a4d60018261234d565b9392505050565b604080516060808201835280825260208201526000918101919091526000828152600260205260408082205481517f8c40188e00000000000000000000000000000000000000000000000000000000815291516001600160a01b03909116928392638c40188e9260048083019392829003018186803b158015610ad657600080fd5b505afa158015610aea573d6000803e3d6000fd5b505050506040513d6000823e601f3d908101601f19168201604052610a4d9190810190611cf1565b6003546001600160a01b03163314610b6c5760405162461bcd60e51b815260206004820181905260248201527f4f776e61626c653a2063616c6c6572206973206e6f7420746865206f776e6572604482015260640161075a565b6004805473ffffffffffffffffffffffffffffffffffffffff19166001600160a01b0392909216919091179055565b6003546001600160a01b03163314610bf55760405162461bcd60e51b815260206004820181905260248201527f4f776e61626c653a2063616c6c6572206973206e6f7420746865206f776e6572604482015260640161075a565b610bff60006117ad565b565b6000610c156003546001600160a01b031690565b905090565b60008281526007602052604081205490610c348234612339565b90508183108015610c455750600182115b15610c6257610c5560018361234d565b610c5f9034612339565b90505b80610c6d5750505050565b60005b82811015610d8e5783811415610c8557610d7c565b600085815260086020908152604080832084845282528083208151808301909252546fffffffffffffffffffffffffffffffff808216808452600160801b90920416928201929092529190610cd990610a54565b604080820151602085015191517f8d07c0820000000000000000000000000000000000000000000000000000000081526fffffffffffffffffffffffffffffffff90921660048301526402540be40060248301529192506001600160a01b0390911690638d07c0829086906044016000604051808303818588803b158015610d6057600080fd5b505af1158015610d74573d6000803e3d6000fd5b505050505050505b80610d86816123e0565b915050610c70565b5050505050565b6000818152600560205260409020546060908190839060ff16151560011415610e265760405162461bcd60e51b815260206004820152602a60248201527f4173736574436f6d706f7365723a207468697320636f6d706f736974696f6e2060448201527f697320646961626c656400000000000000000000000000000000000000000000606482015260840161075a565b600084815260076020526040812054906060908190819081908567ffffffffffffffff811115610e5857610e58612451565b604051908082528060200260200182016040528015610e81578160200160208202803683370190505b50905060005b8681101561129f5760008b815260086020908152604080832084845282528083208151808301909252546fffffffffffffffffffffffffffffffff808216808452600160801b90920416928201929092529190610ee390610a54565b905080604001516001600160a01b031663e3f24f0283602001516fffffffffffffffffffffffffffffffff166040518263ffffffff1660e01b8152600401610f2d91815260200190565b60006040518083038186803b158015610f4557600080fd5b505afa158015610f59573d6000803e3d6000fd5b505050506040513d6000823e601f3d908101601f19168201604052610f819190810190611c8d565b6040519197509550600090610f9a908790602001612152565b60408051601f1981840301815291905280516020909101209050600160005b85811015610ffd5782878281518110610fd457610fd461243b565b60200260200101511415610feb5760009150610ffd565b80610ff5816123e0565b915050610fb9565b508015611048578988604051602001611017929190611e46565b60405160208183030381529060405299508186868151811061103b5761103b61243b565b6020026020010181815250505b5050868560405160200161105d929190611e75565b60408051601f1981840301815291815260008f815260096020908152828220878352905290812080549299509091611094906123ab565b80601f01602080910402602001604051908101604052809291908181526020018280546110c0906123ab565b801561110d5780601f106110e25761010080835404028352916020019161110d565b820191906000526020600020905b8154815290600101906020018083116110f057829003601f168201915b50505050509050600081511115611143578781604051602001611131929190612043565b60405160208183030381529060405297505b60008e8152600a6020908152604080832087845290915290208054611167906123ab565b80601f0160208091040260200160405190810160405280929190818152602001828054611193906123ab565b80156111e05780601f106111b5576101008083540402835291602001916111e0565b820191906000526020600020905b8154815290600101906020018083116111c357829003601f168201915b50505050509050600081511115611216578781604051602001611204929190611f1c565b60405160208183030381529060405297505b5060008d8152600b60209081526040808320868452909152902054801561126757876112448260ff1661180c565b6040516020016112559291906120a9565b60405160208183030381529060405297505b50866040516020016112799190611edb565b604051602081830303815290604052965050508080611297906123e0565b915050610e87565b506112a98a61180c565b6040516020016112b991906121d9565b60405160208183030381529060405291508482856040516020016112df93929190611f82565b60408051601f198184030181529190529850909650505050505050915091565b6000807f00000000000000000000000000000000000000000000000000000000000000006001600160a01b031663a57cfb246040518163ffffffff1660e01b815260040160206040518083038186803b15801561135b57600080fd5b505afa15801561136f573d6000803e3d6000fd5b505050506040513d601f19601f820116820180604052508101906113939190611a97565b6006805491925060006113a5836123e0565b9091555083516000828152600760205260408120919091559092505b83518110156116945760008482815181106113de576113de61243b565b60200260200101519050600081600001519050600061140083602001516109db565b6040805180820182526fffffffffffffffffffffffffffffffff8084168252858116602080840191825260008c8152600882528581208b825290915293909320915192518116600160801b0292169190911790556060840151805191925090156115555760405163c16e50ef60e01b81526001600160a01b0387169063c16e50ef90611490908490600401612205565b60206040518083038186803b1580156114a857600080fd5b505afa1580156114bc573d6000803e3d6000fd5b505050506040513d601f19601f820116820180604052508101906114e09190611c11565b61152c5760405162461bcd60e51b815260206004820152601b60248201527f72656769737465723a20496e76616c6964207472616e73666f726d0000000000604482015260640161075a565b60008781526009602090815260408083208884528252909120825161155392840190611946565b505b60408401518051156116525760405163c16e50ef60e01b81526001600160a01b0388169063c16e50ef9061158d908490600401612205565b60206040518083038186803b1580156115a557600080fd5b505afa1580156115b9573d6000803e3d6000fd5b505050506040513d601f19601f820116820180604052508101906115dd9190611c11565b6116295760405162461bcd60e51b815260206004820152601660248201527f72656769737465723a20496e76616c69642066696c6c00000000000000000000604482015260640161075a565b6000888152600a602090815260408083208984528252909120825161165092840190611946565b505b60808501511561167c5760808501516000898152600b602090815260408083208a84529091529020555b5050505050808061168c906123e0565b9150506113c1565b5060408051338152602081018490527fb6b49fb493aab716d37ffe3ad9f192adb9d7c116b0ca7423db8d0e56a1dc93b29101610917565b6003546001600160a01b031633146117255760405162461bcd60e51b815260206004820181905260248201527f4f776e61626c653a2063616c6c6572206973206e6f7420746865206f776e6572604482015260640161075a565b6001600160a01b0381166117a15760405162461bcd60e51b815260206004820152602660248201527f4f776e61626c653a206e6577206f776e657220697320746865207a65726f206160448201527f6464726573730000000000000000000000000000000000000000000000000000606482015260840161075a565b6117aa816117ad565b50565b600380546001600160a01b0383811673ffffffffffffffffffffffffffffffffffffffff19831681179093556040519116919082907f8be0079c531659141344cd1fd0a4f28419497f9722a3daafe3b4186f6b6457e090600090a35050565b60608161184c57505060408051808201909152600181527f3000000000000000000000000000000000000000000000000000000000000000602082015290565b8160005b81156118765780611860816123e0565b915061186f9050600a83612339565b9150611850565b60008167ffffffffffffffff81111561189157611891612451565b6040519080825280601f01601f1916602001820160405280156118bb576020820181803683370190505b5090505b841561193e576118d060018361234d565b91506118dd600a866123fb565b6118e8906030612321565b60f81b8183815181106118fd576118fd61243b565b60200101907effffffffffffffffffffffffffffffffffffffffffffffffffffffffffffff1916908160001a905350611937600a86612339565b94506118bf565b949350505050565b828054611952906123ab565b90600052602060002090601f01602090048101928261197457600085556119ba565b82601f1061198d57805160ff19168380011785556119ba565b828001600101855582156119ba579182015b828111156119ba57825182559160200191906001019061199f565b506119c69291506119ca565b5090565b5b808211156119c657600081556001016119cb565b600082601f8301126119f057600080fd5b8135611a036119fe826122f9565b6122c8565b818152846020838601011115611a1857600080fd5b816020850160208301376000918101602001919091529392505050565b600082601f830112611a4657600080fd5b8151611a546119fe826122f9565b818152846020838601011115611a6957600080fd5b61193e826020830160208701612364565b600060208284031215611a8c57600080fd5b8135610a4d81612467565b600060208284031215611aa957600080fd5b8151610a4d81612467565b60006020808385031215611ac757600080fd5b823567ffffffffffffffff80821115611adf57600080fd5b818501915085601f830112611af357600080fd5b813581811115611b0557611b05612451565b8060051b611b148582016122c8565b8281528581019085870183870188018b1015611b2f57600080fd5b600093505b84841015611c0357803586811115611b4b57600080fd5b870160a0818d03601f19011215611b6157600080fd5b611b6961229f565b898201358152604082013588811115611b8157600080fd5b611b8f8e8c838601016119df565b8b83015250606082013588811115611ba657600080fd5b611bb48e8c838601016119df565b60408301525060808083013589811115611bcd57600080fd5b611bdb8f8d838701016119df565b60608401525060a0929092013591810191909152835260019390930192918701918701611b34565b509998505050505050505050565b600060208284031215611c2357600080fd5b8151610a4d8161247c565b600060208284031215611c4057600080fd5b81356001600160e01b031981168114610a4d57600080fd5b600060208284031215611c6a57600080fd5b813567ffffffffffffffff811115611c8157600080fd5b61193e848285016119df565b60008060408385031215611ca057600080fd5b825167ffffffffffffffff80821115611cb857600080fd5b611cc486838701611a35565b93506020850151915080821115611cda57600080fd5b50611ce785828601611a35565b9150509250929050565b600060208284031215611d0357600080fd5b815167ffffffffffffffff80821115611d1b57600080fd5b9083019060608286031215611d2f57600080fd5b604051606081018181108382111715611d4a57611d4a612451565b604052825182811115611d5c57600080fd5b611d6887828601611a35565b825250602083015182811115611d7d57600080fd5b611d8987828601611a35565b60208301525060408301519250611d9f83612467565b6040810192909252509392505050565b600060208284031215611dc157600080fd5b5035919050565b60008060408385031215611ddb57600080fd5b823591506020830135611ded8161247c565b809150509250929050565b60008060408385031215611e0b57600080fd5b50508035926020909101359150565b60008151808452611e32816020860160208601612364565b601f01601f19169290920160200192915050565b60008351611e58818460208801612364565b835190830190611e6c818360208801612364565b01949350505050565b60008351611e87818460208801612364565b7f203c75736520687265663d2223000000000000000000000000000000000000009083019081528351611ec181600d840160208801612364565b601160f91b600d9290910191820152600e01949350505050565b60008251611eed818460208701612364565b7f202f3e0a00000000000000000000000000000000000000000000000000000000920191825250600401919050565b60008351611f2e818460208801612364565b7f2066696c6c3d22000000000000000000000000000000000000000000000000009083019081528351611f68816007840160208801612364565b601160f91b60079290910191820152600801949350505050565b60008451611f94818460208901612364565b7f3c672069643d22000000000000000000000000000000000000000000000000009083019081528451611fce816007840160208901612364565b7f22203e0a0000000000000000000000000000000000000000000000000000000060079290910191820152835161200c81600b840160208801612364565b7f3c2f673e0a000000000000000000000000000000000000000000000000000000600b929091019182015260100195945050505050565b60008351612055818460208801612364565b7f207472616e73666f726d3d220000000000000000000000000000000000000000908301908152835161208f81600c840160208801612364565b601160f91b600c9290910191820152600d01949350505050565b600083516120bb818460208801612364565b80830190507f207374726f6b653d22626c61636b22207374726f6b652d6c696e656361703d2281527f726f756e6422207374726f6b652d7769647468000000000000000000000000006020820152835161211c816033840160208801612364565b7f707822000000000000000000000000000000000000000000000000000000000060339290910191820152603601949350505050565b60008251612164818460208701612364565b9190910192915050565b7f417373657374436f6d706f7365723a67657450726f766964657249642c20746881527f652070726f766964657220646f6573206e6f742065786973743a0000000000006020820152600082516121cc81603a850160208701612364565b91909101603a0192915050565b630636f6d760e41b8152600082516121f8816004850160208701612364565b9190910160040192915050565b602081526000610a4d6020830184611e1a565b60408152600061222b6040830185611e1a565b828103602084015261223d8185611e1a565b95945050505050565b6020815260008251606060208401526122626080840182611e1a565b90506020840151601f1984830301604085015261227f8282611e1a565b9150506001600160a01b0360408501511660608401528091505092915050565b60405160a0810167ffffffffffffffff811182821017156122c2576122c2612451565b60405290565b604051601f8201601f1916810167ffffffffffffffff811182821017156122f1576122f1612451565b604052919050565b600067ffffffffffffffff82111561231357612313612451565b50601f01601f191660200190565b600082198211156123345761233461240f565b500190565b60008261234857612348612425565b500490565b60008282101561235f5761235f61240f565b500390565b60005b8381101561237f578181015183820152602001612367565b8381111561238e576000848401525b50505050565b6000816123a3576123a361240f565b506000190190565b600181811c908216806123bf57607f821691505b6020821081141561092057634e487b7160e01b600052602260045260246000fd5b60006000198214156123f4576123f461240f565b5060010190565b60008261240a5761240a612425565b500690565b634e487b7160e01b600052601160045260246000fd5b634e487b7160e01b600052601260045260246000fd5b634e487b7160e01b600052603260045260246000fd5b634e487b7160e01b600052604160045260246000fd5b6001600160a01b03811681146117aa57600080fd5b80151581146117aa57600080fdfea264697066735822122044d90fc9710062f35a1015243ba5fda774666fbd0f9ac1687e0174360ecf7fe964736f6c63430008060033",
  "linkReferences": {},
  "deployedLinkReferences": {}
}