{
  "_format": "hh-sol-artifact-1",
  "contractName": "AssetComposer",
  "sourceName": "contracts/AssetComposer.sol",
  "abi": [
    {
      "inputs": [
        {
          "internalType": "contract IAssetStoreEx",
          "name": "_assetStore",
          "type": "address"
        },
        {
          "internalType": "contract IAssetProviderRegistry",
          "name": "_registry",
          "type": "address"
        }
      ],
      "stateMutability": "nonpayable",
      "type": "constructor"
    },
    {
      "anonymous": false,
      "inputs": [
        {
          "indexed": false,
          "internalType": "address",
          "name": "from",
          "type": "address"
        },
        {
          "indexed": false,
          "internalType": "uint256",
          "name": "compositionId",
          "type": "uint256"
        }
      ],
      "name": "CompositionRegistered",
      "type": "event"
    },
    {
      "anonymous": false,
      "inputs": [
        {
          "indexed": true,
          "internalType": "address",
          "name": "previousOwner",
          "type": "address"
        },
        {
          "indexed": true,
          "internalType": "address",
          "name": "newOwner",
          "type": "address"
        }
      ],
      "name": "OwnershipTransferred",
      "type": "event"
    },
    {
      "anonymous": false,
      "inputs": [
        {
          "indexed": false,
          "internalType": "string",
          "name": "providerKey",
          "type": "string"
        },
        {
          "indexed": false,
          "internalType": "uint256",
          "name": "assetId",
          "type": "uint256"
        },
        {
          "indexed": false,
          "internalType": "address payable",
          "name": "to",
          "type": "address"
        },
        {
          "indexed": false,
          "internalType": "uint256",
          "name": "amount",
          "type": "uint256"
        }
      ],
      "name": "Payout",
      "type": "event"
    },
    {
      "inputs": [],
      "name": "admin",
      "outputs": [
        {
          "internalType": "address",
          "name": "",
          "type": "address"
        }
      ],
      "stateMutability": "view",
      "type": "function"
    },
    {
      "inputs": [],
      "name": "assetStore",
      "outputs": [
        {
          "internalType": "contract IAssetStoreEx",
          "name": "",
          "type": "address"
        }
      ],
      "stateMutability": "view",
      "type": "function"
    },
    {
      "inputs": [
        {
          "internalType": "uint256",
          "name": "",
          "type": "uint256"
        }
      ],
      "name": "disabledComposition",
      "outputs": [
        {
          "internalType": "bool",
          "name": "",
          "type": "bool"
        }
      ],
      "stateMutability": "view",
      "type": "function"
    },
    {
      "inputs": [
        {
          "internalType": "uint256",
          "name": "_compositionId",
          "type": "uint256"
        }
      ],
      "name": "generateSVGPart",
      "outputs": [
        {
          "internalType": "string",
          "name": "",
          "type": "string"
        },
        {
          "internalType": "string",
          "name": "",
          "type": "string"
        }
      ],
      "stateMutability": "view",
      "type": "function"
    },
    {
      "inputs": [],
      "name": "getOwner",
      "outputs": [
        {
          "internalType": "address",
          "name": "",
          "type": "address"
        }
      ],
      "stateMutability": "view",
      "type": "function"
    },
    {
      "inputs": [],
      "name": "getProviderInfo",
      "outputs": [
        {
          "components": [
            {
              "internalType": "string",
              "name": "key",
              "type": "string"
            },
            {
              "internalType": "string",
              "name": "name",
              "type": "string"
            },
            {
              "internalType": "contract IAssetProvider",
              "name": "provider",
              "type": "address"
            }
          ],
          "internalType": "struct IAssetProvider.ProviderInfo",
          "name": "",
          "type": "tuple"
        }
      ],
      "stateMutability": "view",
      "type": "function"
    },
    {
      "inputs": [],
      "name": "nextCompositionId",
      "outputs": [
        {
          "internalType": "uint256",
          "name": "",
          "type": "uint256"
        }
      ],
      "stateMutability": "view",
      "type": "function"
    },
    {
      "inputs": [],
      "name": "owner",
      "outputs": [
        {
          "internalType": "address",
          "name": "",
          "type": "address"
        }
      ],
      "stateMutability": "view",
      "type": "function"
    },
    {
      "inputs": [
        {
          "internalType": "uint256",
          "name": "_assetId",
          "type": "uint256"
        }
      ],
      "name": "processPayout",
      "outputs": [],
      "stateMutability": "payable",
      "type": "function"
    },
    {
      "inputs": [
        {
          "internalType": "uint256",
          "name": "_compositionId",
          "type": "uint256"
        },
        {
          "internalType": "uint256",
          "name": "_skipIndex",
          "type": "uint256"
        }
      ],
      "name": "processPayoutWithSkipIndex",
      "outputs": [],
      "stateMutability": "payable",
      "type": "function"
    },
    {
      "inputs": [
        {
          "components": [
            {
              "internalType": "uint256",
              "name": "assetId",
              "type": "uint256"
            },
            {
              "internalType": "string",
              "name": "provider",
              "type": "string"
            },
            {
              "internalType": "string",
              "name": "fill",
              "type": "string"
            },
            {
              "internalType": "string",
              "name": "transform",
              "type": "string"
            },
            {
              "internalType": "uint256",
              "name": "stroke",
              "type": "uint256"
            }
          ],
          "internalType": "struct IAssetComposer.AssetLayer[]",
          "name": "_layers",
          "type": "tuple[]"
        }
      ],
      "name": "registerComposition",
      "outputs": [
        {
          "internalType": "uint256",
          "name": "compositionId",
          "type": "uint256"
        }
      ],
      "stateMutability": "nonpayable",
      "type": "function"
    },
    {
      "inputs": [],
      "name": "registry",
      "outputs": [
        {
          "internalType": "contract IAssetProviderRegistry",
          "name": "",
          "type": "address"
        }
      ],
      "stateMutability": "view",
      "type": "function"
    },
    {
      "inputs": [],
      "name": "renounceOwnership",
      "outputs": [],
      "stateMutability": "nonpayable",
      "type": "function"
    },
    {
      "inputs": [
        {
          "internalType": "address",
          "name": "_admin",
          "type": "address"
        }
      ],
      "name": "setAdmin",
      "outputs": [],
      "stateMutability": "nonpayable",
      "type": "function"
    },
    {
      "inputs": [
        {
          "internalType": "uint256",
          "name": "_compositionId",
          "type": "uint256"
        },
        {
          "internalType": "bool",
          "name": "_status",
          "type": "bool"
        }
      ],
      "name": "setDisabledComposition",
      "outputs": [],
      "stateMutability": "nonpayable",
      "type": "function"
    },
    {
      "inputs": [
        {
          "internalType": "bytes4",
          "name": "interfaceId",
          "type": "bytes4"
        }
      ],
      "name": "supportsInterface",
      "outputs": [
        {
          "internalType": "bool",
          "name": "",
          "type": "bool"
        }
      ],
      "stateMutability": "view",
      "type": "function"
    },
    {
      "inputs": [],
      "name": "totalSupply",
      "outputs": [
        {
          "internalType": "uint256",
          "name": "",
          "type": "uint256"
        }
      ],
      "stateMutability": "view",
      "type": "function"
    },
    {
      "inputs": [
        {
          "internalType": "address",
          "name": "newOwner",
          "type": "address"
        }
      ],
      "name": "transferOwnership",
      "outputs": [],
      "stateMutability": "nonpayable",
      "type": "function"
    },
    {
      "inputs": [],
      "name": "withdraw",
      "outputs": [],
      "stateMutability": "nonpayable",
      "type": "function"
    }
  ],
  "bytecode": "0x60c06040523480156200001157600080fd5b5060405162002288380380620022888339810160408190526200003491620000d5565b8181620000413362000085565b600054600180546001600160a01b0319166001600160a01b039092169190911790556001600160601b0319606092831b8116608052911b1660a052506200012d9050565b600080546001600160a01b038381166001600160a01b0319831681178455604051919092169283917f8be0079c531659141344cd1fd0a4f28419497f9722a3daafe3b4186f6b6457e09190a35050565b60008060408385031215620000e957600080fd5b8251620000f68162000114565b6020840151909250620001098162000114565b809150509250929050565b6001600160a01b03811681146200012a57600080fd5b50565b60805160601c60a05160601c61211362000175600039600081816102770152818161086501528181610e1601526110440152600081816101c60152610f5301526121136000f3fe6080604052600436106101445760003560e01c806389ee68bf116100c0578063e893d6f911610074578063f2c593ee11610059578063f2c593ee146103e0578063f2fde38b14610400578063f851a4401461042057600080fd5b8063e893d6f9146103b7578063ea575c61146103ca57600080fd5b80638da5cb5b116100a55780638da5cb5b14610299578063c6f7509c14610369578063e3f24f021461038957600080fd5b806389ee68bf146102b75780638c40188e146102ca57600080fd5b8063704b6c021161011757806379363801116100fc57806379363801146102355780637b10399914610265578063893d20e81461029957600080fd5b8063704b6c0214610200578063715018a61461022057600080fd5b806301ffc9a71461014957806318160ddd1461017e5780633ccfd60b1461019d578063597a0e36146101b4575b600080fd5b34801561015557600080fd5b5061016961016436600461190a565b610440565b60405190151581526020015b60405180910390f35b34801561018a57600080fd5b506003545b604051908152602001610175565b3480156101a957600080fd5b506101b2610511565b005b3480156101c057600080fd5b506101e87f000000000000000000000000000000000000000000000000000000000000000081565b6040516001600160a01b039091168152602001610175565b34801561020c57600080fd5b506101b261021b36600461176c565b6105b9565b34801561022c57600080fd5b506101b2610642565b34801561024157600080fd5b50610169610250366004611a6e565b60026020526000908152604090205460ff1681565b34801561027157600080fd5b506101e87f000000000000000000000000000000000000000000000000000000000000000081565b3480156102a557600080fd5b506000546001600160a01b03166101e8565b6101b26102c5366004611a6e565b6106a8565b3480156102d657600080fd5b5061035c60408051606080820183528082526020820152600091810191909152506040805160a081018252600460608201908152630636f6d760e41b6080830152815281518083018352600e81527f417373657420436f6d706f736572000000000000000000000000000000000000602082810191909152820152309181019190915290565b6040516101759190611e87565b34801561037557600080fd5b506101b2610384366004611aa0565b6106ba565b34801561039557600080fd5b506103a96103a4366004611a6e565b61077e565b604051610175929190611e59565b6101b26103c5366004611ad0565b610d4a565b3480156103d657600080fd5b5061018f60035481565b3480156103ec57600080fd5b5061018f6103fb366004611790565b610f4e565b34801561040c57600080fd5b506101b261041b36600461176c565b6113b6565b34801561042c57600080fd5b506001546101e8906001600160a01b031681565b60006001600160e01b031982167f6ef8e5880000000000000000000000000000000000000000000000000000000014806104a357506001600160e01b031982167ff2c593ee00000000000000000000000000000000000000000000000000000000145b806104d757506001600160e01b031982167f7777120600000000000000000000000000000000000000000000000000000000145b8061050b57506001600160e01b031982167f01ffc9a700000000000000000000000000000000000000000000000000000000145b92915050565b6000546001600160a01b031633146105705760405162461bcd60e51b815260206004820181905260248201527f4f776e61626c653a2063616c6c6572206973206e6f7420746865206f776e657260448201526064015b60405180910390fd5b600080546001600160a01b03166040519091506001600160a01b038216904780156108fc02916000818181858888f193505050501580156105b5573d6000803e3d6000fd5b5050565b6000546001600160a01b031633146106135760405162461bcd60e51b815260206004820181905260248201527f4f776e61626c653a2063616c6c6572206973206e6f7420746865206f776e65726044820152606401610567565b6001805473ffffffffffffffffffffffffffffffffffffffff19166001600160a01b0392909216919091179055565b6000546001600160a01b0316331461069c5760405162461bcd60e51b815260206004820181905260248201527f4f776e61626c653a2063616c6c6572206973206e6f7420746865206f776e65726044820152606401610567565b6106a66000611491565b565b6106b7816402540be400610d4a565b50565b336106cd6000546001600160a01b031690565b6001600160a01b031614806106ec57506001546001600160a01b031633145b61075e5760405162461bcd60e51b815260206004820152602660248201527f4173736574436f6d706f7365723a2063616c6c6572206973206e6f742074686560448201527f2061646d696e00000000000000000000000000000000000000000000000000006064820152608401610567565b600091825260026020526040909120805460ff1916911515919091179055565b60008181526004602052604081205460609182919082908190819081908567ffffffffffffffff8111156107b4576107b46120a4565b6040519080825280602002602001820160405280156107dd578160200160208202803683370190505b5060008a81526002602052604090205490915060ff16610cce5760005b86811015610ccc5760008a815260056020908152604080832084845282528083208151808301835290546fffffffffffffffffffffffffffffffff808216808452600160801b90920416938201939093529051635c42d07960e01b81526004810192909252919081907f00000000000000000000000000000000000000000000000000000000000000006001600160a01b031690635c42d0799060240160006040518083038186803b1580156108af57600080fd5b505afa1580156108c3573d6000803e3d6000fd5b505050506040513d6000823e601f3d908101601f191682016040526108eb91908101906119b5565b9150915080156108fd57505050610cba565b604080830151602085015191517fe3f24f020000000000000000000000000000000000000000000000000000000081526fffffffffffffffffffffffffffffffff90921660048301526001600160a01b03169063e3f24f029060240160006040518083038186803b15801561097157600080fd5b505afa158015610985573d6000803e3d6000fd5b505050506040513d6000823e601f3d908101601f191682016040526109ad9190810190611951565b60405191985096506000906109c6908890602001611e2a565b60408051601f1981840301815291905280516020909101209050600160005b86811015610a295782888281518110610a0057610a0061208e565b60200260200101511415610a175760009150610a29565b80610a2181612033565b9150506109e5565b508015610a74578a89604051602001610a43929190611b1e565b6040516020818303038152906040529a5081878781518110610a6757610a6761208e565b6020026020010181815250505b50508786604051602001610a89929190611b4d565b60408051601f1981840301815291815260008f81526006602090815282822088835290529081208054929a509091610ac090611ff8565b80601f0160208091040260200160405190810160405280929190818152602001828054610aec90611ff8565b8015610b395780601f10610b0e57610100808354040283529160200191610b39565b820191906000526020600020905b815481529060010190602001808311610b1c57829003601f168201915b50505050509050600081511115610b6f578881604051602001610b5d929190611dc4565b60405160208183030381529060405298505b60008e815260076020908152604080832088845290915290208054610b9390611ff8565b80601f0160208091040260200160405190810160405280929190818152602001828054610bbf90611ff8565b8015610c0c5780601f10610be157610100808354040283529160200191610c0c565b820191906000526020600020905b815481529060010190602001808311610bef57829003601f168201915b50505050509050600081511115610c42578881604051602001610c30929190611c9d565b60405160208183030381529060405298505b5060008d81526008602090815260408083208784529091529020548015610c935788610c708260ff166114ee565b604051602001610c81929190611bb3565b60405160208183030381529060405298505b5087604051602001610ca59190611c5c565b60405160208183030381529060405297505050505b80610cc481612033565b9150506107fa565b505b604051806040016040528060048152602001630636f6d760e41b815250610cf48a6114ee565b604051602001610d05929190611b1e565b6040516020818303038152906040529150848285604051602001610d2b93929190611d03565b60408051601f1981840301815291905299919850909650505050505050565b60008281526004602052604081205490610d648234611f9d565b90508183108015610d755750600182115b15610d9257610d85600183611fb1565b610d8f9034611f9d565b90505b80610d9d5750505050565b60005b82811015610f475783811415610db557610f35565b600085815260056020908152604080832084845282528083208151808301835290546fffffffffffffffffffffffffffffffff808216808452600160801b90920416938201939093529051635c42d07960e01b8152600481019290925291907f00000000000000000000000000000000000000000000000000000000000000006001600160a01b031690635c42d0799060240160006040518083038186803b158015610e6057600080fd5b505afa158015610e74573d6000803e3d6000fd5b505050506040513d6000823e601f3d908101601f19168201604052610e9c91908101906119b5565b50604080820151602085015191517f89ee68bf0000000000000000000000000000000000000000000000000000000081526fffffffffffffffffffffffffffffffff90921660048301529192506001600160a01b03909116906389ee68bf9086906024016000604051808303818588803b158015610f1957600080fd5b505af1158015610f2d573d6000803e3d6000fd5b505050505050505b80610f3f81612033565b915050610da0565b5050505050565b6000807f00000000000000000000000000000000000000000000000000000000000000006001600160a01b031663a57cfb246040518163ffffffff1660e01b815260040160206040518083038186803b158015610faa57600080fd5b505afa158015610fbe573d6000803e3d6000fd5b505050506040513d601f19601f82011682018060405250810190610fe29190611934565b600380549192506000610ff483612033565b9091555083516000828152600460205260408120919091559092505b835181101561137657600084828151811061102d5761102d61208e565b6020026020010151905060008160000151905060007f00000000000000000000000000000000000000000000000000000000000000006001600160a01b0316634854078f84602001516040518263ffffffff1660e01b81526004016110929190611e46565b60206040518083038186803b1580156110aa57600080fd5b505afa1580156110be573d6000803e3d6000fd5b505050506040513d601f19601f820116820180604052508101906110e29190611a87565b6040805180820182526fffffffffffffffffffffffffffffffff8084168252858116602080840191825260008c8152600582528581208b825290915293909320915192518116600160801b0292169190911790556060840151805191925090156112375760405163c16e50ef60e01b81526001600160a01b0387169063c16e50ef90611172908490600401611e46565b60206040518083038186803b15801561118a57600080fd5b505afa15801561119e573d6000803e3d6000fd5b505050506040513d601f19601f820116820180604052508101906111c291906118ed565b61120e5760405162461bcd60e51b815260206004820152601b60248201527f72656769737465723a20496e76616c6964207472616e73666f726d00000000006044820152606401610567565b60008781526006602090815260408083208884528252909120825161123592840190611628565b505b60408401518051156113345760405163c16e50ef60e01b81526001600160a01b0388169063c16e50ef9061126f908490600401611e46565b60206040518083038186803b15801561128757600080fd5b505afa15801561129b573d6000803e3d6000fd5b505050506040513d601f19601f820116820180604052508101906112bf91906118ed565b61130b5760405162461bcd60e51b815260206004820152601660248201527f72656769737465723a20496e76616c69642066696c6c000000000000000000006044820152606401610567565b60008881526007602090815260408083208984528252909120825161133292840190611628565b505b60808501511561135e57608085015160008981526008602090815260408083208a84529091529020555b5050505050808061136e90612033565b915050611010565b5060408051338152602081018490527fb6b49fb493aab716d37ffe3ad9f192adb9d7c116b0ca7423db8d0e56a1dc93b2910160405180910390a150919050565b6000546001600160a01b031633146114105760405162461bcd60e51b815260206004820181905260248201527f4f776e61626c653a2063616c6c6572206973206e6f7420746865206f776e65726044820152606401610567565b6001600160a01b03811661148c5760405162461bcd60e51b815260206004820152602660248201527f4f776e61626c653a206e6577206f776e657220697320746865207a65726f206160448201527f64647265737300000000000000000000000000000000000000000000000000006064820152608401610567565b6106b7815b600080546001600160a01b0383811673ffffffffffffffffffffffffffffffffffffffff19831681178455604051919092169283917f8be0079c531659141344cd1fd0a4f28419497f9722a3daafe3b4186f6b6457e09190a35050565b60608161152e57505060408051808201909152600181527f3000000000000000000000000000000000000000000000000000000000000000602082015290565b8160005b8115611558578061154281612033565b91506115519050600a83611f9d565b9150611532565b60008167ffffffffffffffff811115611573576115736120a4565b6040519080825280601f01601f19166020018201604052801561159d576020820181803683370190505b5090505b8415611620576115b2600183611fb1565b91506115bf600a8661204e565b6115ca906030611f85565b60f81b8183815181106115df576115df61208e565b60200101907effffffffffffffffffffffffffffffffffffffffffffffffffffffffffffff1916908160001a905350611619600a86611f9d565b94506115a1565b949350505050565b82805461163490611ff8565b90600052602060002090601f016020900481019282611656576000855561169c565b82601f1061166f57805160ff191683800117855561169c565b8280016001018555821561169c579182015b8281111561169c578251825591602001919060010190611681565b506116a89291506116ac565b5090565b5b808211156116a857600081556001016116ad565b80516116cc816120cf565b919050565b600082601f8301126116e257600080fd5b81356116f56116f082611f5d565b611f2c565b81815284602083860101111561170a57600080fd5b816020850160208301376000918101602001919091529392505050565b600082601f83011261173857600080fd5b81516117466116f082611f5d565b81815284602083860101111561175b57600080fd5b611620826020830160208701611fc8565b60006020828403121561177e57600080fd5b8135611789816120ba565b9392505050565b600060208083850312156117a357600080fd5b823567ffffffffffffffff808211156117bb57600080fd5b818501915085601f8301126117cf57600080fd5b8135818111156117e1576117e16120a4565b8060051b6117f0858201611f2c565b8281528581019085870183870188018b101561180b57600080fd5b600093505b848410156118df5780358681111561182757600080fd5b870160a0818d03601f1901121561183d57600080fd5b611845611ee0565b89820135815260408201358881111561185d57600080fd5b61186b8e8c838601016116d1565b8b8301525060608201358881111561188257600080fd5b6118908e8c838601016116d1565b604083015250608080830135898111156118a957600080fd5b6118b78f8d838701016116d1565b60608401525060a0929092013591810191909152835260019390930192918701918701611810565b509998505050505050505050565b6000602082840312156118ff57600080fd5b8151611789816120cf565b60006020828403121561191c57600080fd5b81356001600160e01b03198116811461178957600080fd5b60006020828403121561194657600080fd5b8151611789816120ba565b6000806040838503121561196457600080fd5b825167ffffffffffffffff8082111561197c57600080fd5b61198886838701611727565b9350602085015191508082111561199e57600080fd5b506119ab85828601611727565b9150509250929050565b600080604083850312156119c857600080fd5b825167ffffffffffffffff808211156119e057600080fd5b90840190606082870312156119f457600080fd5b6119fc611f09565b825182811115611a0b57600080fd5b611a1788828601611727565b825250602083015182811115611a2c57600080fd5b611a3888828601611727565b60208301525060408301519250611a4e836120ba565b6040810192909252509150611a65602084016116c1565b90509250929050565b600060208284031215611a8057600080fd5b5035919050565b600060208284031215611a9957600080fd5b5051919050565b60008060408385031215611ab357600080fd5b823591506020830135611ac5816120cf565b809150509250929050565b60008060408385031215611ae357600080fd5b50508035926020909101359150565b60008151808452611b0a816020860160208601611fc8565b601f01601f19169290920160200192915050565b60008351611b30818460208801611fc8565b835190830190611b44818360208801611fc8565b01949350505050565b60008351611b5f818460208801611fc8565b7f203c75736520687265663d2223000000000000000000000000000000000000009083019081528351611b9981600d840160208801611fc8565b601160f91b600d9290910191820152600e01949350505050565b60008351611bc5818460208801611fc8565b80830190507f207374726f6b653d22626c61636b22207374726f6b652d6c696e656361703d2281527f726f756e6422207374726f6b652d77696474683d22000000000000000000000060208201528351611c26816035840160208801611fc8565b7f707822000000000000000000000000000000000000000000000000000000000060359290910191820152603801949350505050565b60008251611c6e818460208701611fc8565b7f202f3e0a00000000000000000000000000000000000000000000000000000000920191825250600401919050565b60008351611caf818460208801611fc8565b7f2066696c6c3d22000000000000000000000000000000000000000000000000009083019081528351611ce9816007840160208801611fc8565b601160f91b60079290910191820152600801949350505050565b60008451611d15818460208901611fc8565b7f3c672069643d22000000000000000000000000000000000000000000000000009083019081528451611d4f816007840160208901611fc8565b7f22203e0a00000000000000000000000000000000000000000000000000000000600792909101918201528351611d8d81600b840160208801611fc8565b7f3c2f673e0a000000000000000000000000000000000000000000000000000000600b929091019182015260100195945050505050565b60008351611dd6818460208801611fc8565b7f207472616e73666f726d3d2200000000000000000000000000000000000000009083019081528351611e1081600c840160208801611fc8565b601160f91b600c9290910191820152600d01949350505050565b60008251611e3c818460208701611fc8565b9190910192915050565b6020815260006117896020830184611af2565b604081526000611e6c6040830185611af2565b8281036020840152611e7e8185611af2565b95945050505050565b602081526000825160606020840152611ea36080840182611af2565b90506020840151601f19848303016040850152611ec08282611af2565b9150506001600160a01b0360408501511660608401528091505092915050565b60405160a0810167ffffffffffffffff81118282101715611f0357611f036120a4565b60405290565b6040516060810167ffffffffffffffff81118282101715611f0357611f036120a4565b604051601f8201601f1916810167ffffffffffffffff81118282101715611f5557611f556120a4565b604052919050565b600067ffffffffffffffff821115611f7757611f776120a4565b50601f01601f191660200190565b60008219821115611f9857611f98612062565b500190565b600082611fac57611fac612078565b500490565b600082821015611fc357611fc3612062565b500390565b60005b83811015611fe3578181015183820152602001611fcb565b83811115611ff2576000848401525b50505050565b600181811c9082168061200c57607f821691505b6020821081141561202d57634e487b7160e01b600052602260045260246000fd5b50919050565b600060001982141561204757612047612062565b5060010190565b60008261205d5761205d612078565b500690565b634e487b7160e01b600052601160045260246000fd5b634e487b7160e01b600052601260045260246000fd5b634e487b7160e01b600052603260045260246000fd5b634e487b7160e01b600052604160045260246000fd5b6001600160a01b03811681146106b757600080fd5b80151581146106b757600080fdfea264697066735822122075834d6a9bc7f0552867c9fc4ab6f188cf1eab2c016e16e96fb7e82e7b3af12064736f6c63430008060033",
  "linkReferences": {},
  "deployedLinkReferences": {}
}