{
  "_format": "hh-sol-artifact-1",
  "contractName": "DrawYourOwn",
  "sourceName": "contracts/DrawYourOwn.sol",
  "abi": [
    {
      "inputs": [
        {
          "internalType": "contract IAssetStoreRegistry",
          "name": "_registry",
          "type": "address"
        },
        {
          "internalType": "contract IAssetStore",
          "name": "_assetStore",
          "type": "address"
        },
        {
          "internalType": "address",
          "name": "_developer",
          "type": "address"
        },
        {
          "internalType": "contract IProxyRegistry",
          "name": "_proxyRegistry",
          "type": "address"
        }
      ],
      "stateMutability": "nonpayable",
      "type": "constructor"
    },
    {
      "inputs": [],
      "name": "ApprovalCallerNotOwnerNorApproved",
      "type": "error"
    },
    {
      "inputs": [],
      "name": "ApprovalQueryForNonexistentToken",
      "type": "error"
    },
    {
      "inputs": [],
      "name": "ApproveToCaller",
      "type": "error"
    },
    {
      "inputs": [],
      "name": "BalanceQueryForZeroAddress",
      "type": "error"
    },
    {
      "inputs": [],
      "name": "MintERC2309QuantityExceedsLimit",
      "type": "error"
    },
    {
      "inputs": [],
      "name": "MintToZeroAddress",
      "type": "error"
    },
    {
      "inputs": [],
      "name": "MintZeroQuantity",
      "type": "error"
    },
    {
      "inputs": [],
      "name": "OwnerQueryForNonexistentToken",
      "type": "error"
    },
    {
      "inputs": [],
      "name": "OwnershipNotInitializedForExtraData",
      "type": "error"
    },
    {
      "inputs": [],
      "name": "TransferCallerNotOwnerNorApproved",
      "type": "error"
    },
    {
      "inputs": [],
      "name": "TransferFromIncorrectOwner",
      "type": "error"
    },
    {
      "inputs": [],
      "name": "TransferToNonERC721ReceiverImplementer",
      "type": "error"
    },
    {
      "inputs": [],
      "name": "TransferToZeroAddress",
      "type": "error"
    },
    {
      "inputs": [],
      "name": "URIQueryForNonexistentToken",
      "type": "error"
    },
    {
      "anonymous": false,
      "inputs": [
        {
          "indexed": true,
          "internalType": "address",
          "name": "owner",
          "type": "address"
        },
        {
          "indexed": true,
          "internalType": "address",
          "name": "approved",
          "type": "address"
        },
        {
          "indexed": true,
          "internalType": "uint256",
          "name": "tokenId",
          "type": "uint256"
        }
      ],
      "name": "Approval",
      "type": "event"
    },
    {
      "anonymous": false,
      "inputs": [
        {
          "indexed": true,
          "internalType": "address",
          "name": "owner",
          "type": "address"
        },
        {
          "indexed": true,
          "internalType": "address",
          "name": "operator",
          "type": "address"
        },
        {
          "indexed": false,
          "internalType": "bool",
          "name": "approved",
          "type": "bool"
        }
      ],
      "name": "ApprovalForAll",
      "type": "event"
    },
    {
      "anonymous": false,
      "inputs": [
        {
          "indexed": true,
          "internalType": "uint256",
          "name": "fromTokenId",
          "type": "uint256"
        },
        {
          "indexed": false,
          "internalType": "uint256",
          "name": "toTokenId",
          "type": "uint256"
        },
        {
          "indexed": true,
          "internalType": "address",
          "name": "from",
          "type": "address"
        },
        {
          "indexed": true,
          "internalType": "address",
          "name": "to",
          "type": "address"
        }
      ],
      "name": "ConsecutiveTransfer",
      "type": "event"
    },
    {
      "anonymous": false,
      "inputs": [
        {
          "indexed": true,
          "internalType": "address",
          "name": "previousOwner",
          "type": "address"
        },
        {
          "indexed": true,
          "internalType": "address",
          "name": "newOwner",
          "type": "address"
        }
      ],
      "name": "OwnershipTransferred",
      "type": "event"
    },
    {
      "anonymous": false,
      "inputs": [
        {
          "indexed": true,
          "internalType": "address",
          "name": "from",
          "type": "address"
        },
        {
          "indexed": true,
          "internalType": "address",
          "name": "to",
          "type": "address"
        },
        {
          "indexed": true,
          "internalType": "uint256",
          "name": "tokenId",
          "type": "uint256"
        }
      ],
      "name": "Transfer",
      "type": "event"
    },
    {
      "inputs": [
        {
          "internalType": "address",
          "name": "to",
          "type": "address"
        },
        {
          "internalType": "uint256",
          "name": "tokenId",
          "type": "uint256"
        }
      ],
      "name": "approve",
      "outputs": [],
      "stateMutability": "nonpayable",
      "type": "function"
    },
    {
      "inputs": [],
      "name": "assetComposer",
      "outputs": [
        {
          "internalType": "contract IAssetComposer",
          "name": "",
          "type": "address"
        }
      ],
      "stateMutability": "view",
      "type": "function"
    },
    {
      "inputs": [
        {
          "internalType": "uint256",
          "name": "_tokenId",
          "type": "uint256"
        }
      ],
      "name": "assetIdOfToken",
      "outputs": [
        {
          "internalType": "uint256",
          "name": "",
          "type": "uint256"
        }
      ],
      "stateMutability": "view",
      "type": "function"
    },
    {
      "inputs": [],
      "name": "assetStore",
      "outputs": [
        {
          "internalType": "contract IAssetStore",
          "name": "",
          "type": "address"
        }
      ],
      "stateMutability": "view",
      "type": "function"
    },
    {
      "inputs": [
        {
          "internalType": "address",
          "name": "owner",
          "type": "address"
        }
      ],
      "name": "balanceOf",
      "outputs": [
        {
          "internalType": "uint256",
          "name": "",
          "type": "uint256"
        }
      ],
      "stateMutability": "view",
      "type": "function"
    },
    {
      "inputs": [],
      "name": "description",
      "outputs": [
        {
          "internalType": "string",
          "name": "",
          "type": "string"
        }
      ],
      "stateMutability": "view",
      "type": "function"
    },
    {
      "inputs": [],
      "name": "developer",
      "outputs": [
        {
          "internalType": "address",
          "name": "",
          "type": "address"
        }
      ],
      "stateMutability": "view",
      "type": "function"
    },
    {
      "inputs": [
        {
          "internalType": "string",
          "name": "_svgPart",
          "type": "string"
        },
        {
          "internalType": "uint256",
          "name": "_style",
          "type": "uint256"
        },
        {
          "internalType": "string",
          "name": "_tag",
          "type": "string"
        }
      ],
      "name": "generateSVG",
      "outputs": [
        {
          "internalType": "string",
          "name": "",
          "type": "string"
        }
      ],
      "stateMutability": "pure",
      "type": "function"
    },
    {
      "inputs": [
        {
          "internalType": "uint256",
          "name": "_tokenId",
          "type": "uint256"
        }
      ],
      "name": "generateSVGPart",
      "outputs": [
        {
          "internalType": "string",
          "name": "",
          "type": "string"
        },
        {
          "internalType": "string",
          "name": "",
          "type": "string"
        }
      ],
      "stateMutability": "view",
      "type": "function"
    },
    {
      "inputs": [
        {
          "internalType": "uint256",
          "name": "tokenId",
          "type": "uint256"
        }
      ],
      "name": "getApproved",
      "outputs": [
        {
          "internalType": "address",
          "name": "",
          "type": "address"
        }
      ],
      "stateMutability": "view",
      "type": "function"
    },
    {
      "inputs": [],
      "name": "getCurrentToken",
      "outputs": [
        {
          "internalType": "uint256",
          "name": "",
          "type": "uint256"
        }
      ],
      "stateMutability": "view",
      "type": "function"
    },
    {
      "inputs": [
        {
          "internalType": "address",
          "name": "owner",
          "type": "address"
        },
        {
          "internalType": "address",
          "name": "operator",
          "type": "address"
        }
      ],
      "name": "isApprovedForAll",
      "outputs": [
        {
          "internalType": "bool",
          "name": "",
          "type": "bool"
        }
      ],
      "stateMutability": "view",
      "type": "function"
    },
    {
      "inputs": [
        {
          "components": [
            {
              "internalType": "string",
              "name": "group",
              "type": "string"
            },
            {
              "internalType": "string",
              "name": "category",
              "type": "string"
            },
            {
              "internalType": "string",
              "name": "name",
              "type": "string"
            },
            {
              "internalType": "string",
              "name": "minter",
              "type": "string"
            },
            {
              "internalType": "address",
              "name": "soulbound",
              "type": "address"
            },
            {
              "internalType": "bytes",
              "name": "metadata",
              "type": "bytes"
            },
            {
              "components": [
                {
                  "internalType": "bytes",
                  "name": "body",
                  "type": "bytes"
                },
                {
                  "internalType": "string",
                  "name": "color",
                  "type": "string"
                }
              ],
              "internalType": "struct IAssetStoreRegistry.Part[]",
              "name": "parts",
              "type": "tuple[]"
            }
          ],
          "internalType": "struct IAssetStoreRegistry.AssetInfo",
          "name": "_assetInfo",
          "type": "tuple"
        },
        {
          "internalType": "uint256",
          "name": "_remixId",
          "type": "uint256"
        },
        {
          "internalType": "string",
          "name": "_color",
          "type": "string"
        },
        {
          "internalType": "string",
          "name": "_transform",
          "type": "string"
        },
        {
          "components": [
            {
              "internalType": "uint256",
              "name": "assetId",
              "type": "uint256"
            },
            {
              "internalType": "bool",
              "name": "isComposition",
              "type": "bool"
            },
            {
              "internalType": "string",
              "name": "fill",
              "type": "string"
            },
            {
              "internalType": "string",
              "name": "transform",
              "type": "string"
            }
          ],
          "internalType": "struct IAssetComposer.LayerInfo[]",
          "name": "overlays",
          "type": "tuple[]"
        }
      ],
      "name": "mintWithAsset",
      "outputs": [],
      "stateMutability": "nonpayable",
      "type": "function"
    },
    {
      "inputs": [],
      "name": "name",
      "outputs": [
        {
          "internalType": "string",
          "name": "",
          "type": "string"
        }
      ],
      "stateMutability": "view",
      "type": "function"
    },
    {
      "inputs": [],
      "name": "owner",
      "outputs": [
        {
          "internalType": "address",
          "name": "",
          "type": "address"
        }
      ],
      "stateMutability": "view",
      "type": "function"
    },
    {
      "inputs": [
        {
          "internalType": "uint256",
          "name": "tokenId",
          "type": "uint256"
        }
      ],
      "name": "ownerOf",
      "outputs": [
        {
          "internalType": "address",
          "name": "",
          "type": "address"
        }
      ],
      "stateMutability": "view",
      "type": "function"
    },
    {
      "inputs": [],
      "name": "proxyRegistry",
      "outputs": [
        {
          "internalType": "contract IProxyRegistry",
          "name": "",
          "type": "address"
        }
      ],
      "stateMutability": "view",
      "type": "function"
    },
    {
      "inputs": [],
      "name": "registry",
      "outputs": [
        {
          "internalType": "contract IAssetStoreRegistry",
          "name": "",
          "type": "address"
        }
      ],
      "stateMutability": "view",
      "type": "function"
    },
    {
      "inputs": [],
      "name": "renounceOwnership",
      "outputs": [],
      "stateMutability": "nonpayable",
      "type": "function"
    },
    {
      "inputs": [
        {
          "internalType": "address",
          "name": "from",
          "type": "address"
        },
        {
          "internalType": "address",
          "name": "to",
          "type": "address"
        },
        {
          "internalType": "uint256",
          "name": "tokenId",
          "type": "uint256"
        }
      ],
      "name": "safeTransferFrom",
      "outputs": [],
      "stateMutability": "nonpayable",
      "type": "function"
    },
    {
      "inputs": [
        {
          "internalType": "address",
          "name": "from",
          "type": "address"
        },
        {
          "internalType": "address",
          "name": "to",
          "type": "address"
        },
        {
          "internalType": "uint256",
          "name": "tokenId",
          "type": "uint256"
        },
        {
          "internalType": "bytes",
          "name": "_data",
          "type": "bytes"
        }
      ],
      "name": "safeTransferFrom",
      "outputs": [],
      "stateMutability": "nonpayable",
      "type": "function"
    },
    {
      "inputs": [
        {
          "internalType": "address",
          "name": "operator",
          "type": "address"
        },
        {
          "internalType": "bool",
          "name": "approved",
          "type": "bool"
        }
      ],
      "name": "setApprovalForAll",
      "outputs": [],
      "stateMutability": "nonpayable",
      "type": "function"
    },
    {
      "inputs": [
        {
          "internalType": "string",
          "name": "_description",
          "type": "string"
        }
      ],
      "name": "setDescription",
      "outputs": [],
      "stateMutability": "nonpayable",
      "type": "function"
    },
    {
      "inputs": [],
      "name": "styles",
      "outputs": [
        {
          "internalType": "uint256",
          "name": "",
          "type": "uint256"
        }
      ],
      "stateMutability": "pure",
      "type": "function"
    },
    {
      "inputs": [
        {
          "internalType": "bytes4",
          "name": "interfaceId",
          "type": "bytes4"
        }
      ],
      "name": "supportsInterface",
      "outputs": [
        {
          "internalType": "bool",
          "name": "",
          "type": "bool"
        }
      ],
      "stateMutability": "view",
      "type": "function"
    },
    {
      "inputs": [],
      "name": "symbol",
      "outputs": [
        {
          "internalType": "string",
          "name": "",
          "type": "string"
        }
      ],
      "stateMutability": "view",
      "type": "function"
    },
    {
      "inputs": [
        {
          "internalType": "uint256",
          "name": "_tokenId",
          "type": "uint256"
        }
      ],
      "name": "tokenURI",
      "outputs": [
        {
          "internalType": "string",
          "name": "",
          "type": "string"
        }
      ],
      "stateMutability": "view",
      "type": "function"
    },
    {
      "inputs": [],
      "name": "tokensPerAsset",
      "outputs": [
        {
          "internalType": "uint256",
          "name": "",
          "type": "uint256"
        }
      ],
      "stateMutability": "pure",
      "type": "function"
    },
    {
      "inputs": [],
      "name": "totalSupply",
      "outputs": [
        {
          "internalType": "uint256",
          "name": "",
          "type": "uint256"
        }
      ],
      "stateMutability": "view",
      "type": "function"
    },
    {
      "inputs": [
        {
          "internalType": "address",
          "name": "from",
          "type": "address"
        },
        {
          "internalType": "address",
          "name": "to",
          "type": "address"
        },
        {
          "internalType": "uint256",
          "name": "tokenId",
          "type": "uint256"
        }
      ],
      "name": "transferFrom",
      "outputs": [],
      "stateMutability": "nonpayable",
      "type": "function"
    },
    {
      "inputs": [
        {
          "internalType": "address",
          "name": "newOwner",
          "type": "address"
        }
      ],
      "name": "transferOwnership",
      "outputs": [],
      "stateMutability": "nonpayable",
      "type": "function"
    }
  ],
  "bytecode": "0x610180604052605461010081815290620054446101203980516200002c91600b91602090910190620001e0565b503480156200003a57600080fd5b5060405162005498380380620054988339810160408190526200005d9162000294565b60405180604001604052806011815260200170111c985dc8165bdd5c8813dddb88139195607a1b81525060405180604001604052806007815260200166111c985dd3919560ca1b815250620000c1620000bb6200018c60201b60201c565b62000190565b8151620000d6906003906020850190620001e0565b508051620000ec906004906020840190620001e0565b50600060015550506001600160601b0319606085811b821660805284811b821660a052600c80546001600160a01b0386166001600160a01b031990911617905582901b1660c052604051839062000143906200026f565b6001600160a01b039091168152602001604051809103906000f08015801562000170573d6000803e3d6000fd5b5060601b6001600160601b03191660e052506200035292505050565b3390565b600080546001600160a01b038381166001600160a01b0319831681178455604051919092169283917f8be0079c531659141344cd1fd0a4f28419497f9722a3daafe3b4186f6b6457e09190a35050565b828054620001ee90620002fc565b90600052602060002090601f0160209004810192826200021257600085556200025d565b82601f106200022d57805160ff19168380011785556200025d565b828001600101855582156200025d579182015b828111156200025d57825182559160200191906001019062000240565b506200026b9291506200027d565b5090565b6117ae8062003c9683390190565b5b808211156200026b57600081556001016200027e565b60008060008060808587031215620002ab57600080fd5b8451620002b88162000339565b6020860151909450620002cb8162000339565b6040860151909350620002de8162000339565b6060860151909250620002f18162000339565b939692955090935050565b600181811c908216806200031157607f821691505b602082108114156200033357634e487b7160e01b600052602260045260246000fd5b50919050565b6001600160a01b03811681146200034f57600080fd5b50565b60805160601c60a05160601c60c05160601c60e05160601c6138c6620003d06000396000818161044201528181611313015261148501526000818161039b01526116e50152600081816102d801528181610f0f0152818161153d015281816115ed0152611cbd01526000818161033501526110c801526138c66000f3fe608060405234801561001057600080fd5b50600436106101e45760003560e01c8063786f94c61161010f578063c87b56dd116100a2578063e985e9c511610071578063e985e9c51461042a578063ec1718b91461043d578063ef2d174614610464578063f2fde38b1461046c57600080fd5b8063c87b56dd146103d0578063ca4b208b146103e3578063d4ad38c3146103f6578063e3f24f021461040957600080fd5b806395d89b41116100de57806395d89b411461037b578063a22cb46514610383578063b50cbd9f14610396578063b88d4fde146103bd57600080fd5b8063786f94c6146102cc5780637b103999146103305780638da5cb5b1461035757806390c3f38f1461036857600080fd5b80632ab72d2f116101875780636352211e116101565780636352211e146102fa57806370a082311461030d578063715018a6146103205780637284e4161461032857600080fd5b80632ab72d2f146102a657806342842e0e146102b95780634b00371f146102cc578063597a0e36146102d357600080fd5b8063081812fc116101c3578063081812fc1461023d578063095ea7b31461026857806318160ddd1461027d57806323b872dd1461029357600080fd5b80626e59e9146101e957806301ffc9a71461021257806306fdde0314610235575b600080fd5b6101fc6101f736600461269d565b61047f565b6040516102099190613456565b60405180910390f35b610225610220366004612595565b61066d565b6040519015158152602001610209565b6101fc61070a565b61025061024b366004612a0e565b61079c565b6040516001600160a01b039091168152602001610209565b61027b610276366004612569565b6107f9565b005b600254600154035b604051908152602001610209565b61027b6102a1366004612487565b6108bf565b6102856102b4366004612a0e565b610a9c565b61027b6102c7366004612487565b610b43565b6004610285565b6102507f000000000000000000000000000000000000000000000000000000000000000081565b610250610308366004612a0e565b610b63565b61028561031b366004612414565b610b6e565b61027b610bd6565b6101fc610c3c565b6102507f000000000000000000000000000000000000000000000000000000000000000081565b6000546001600160a01b0316610250565b61027b610376366004612604565b610cca565b6101fc610d3b565b61027b610391366004612534565b610d4a565b6102507f000000000000000000000000000000000000000000000000000000000000000081565b61027b6103cb3660046124c8565b610df9565b6101fc6103de366004612a0e565b610e43565b600c54610250906001600160a01b031681565b61027b610404366004612864565b611024565b61041c610417366004612a0e565b61145c565b604051610209929190613469565b61022561043836600461244e565b6116a6565b6102507f000000000000000000000000000000000000000000000000000000000000000081565b6102856117a7565b61027b61047a366004612414565b6117b7565b6040805160c0810182526005608082019081527f776869746500000000000000000000000000000000000000000000000000000060a0830152815281518083018352600c81527f75726c282373696c7665722900000000000000000000000000000000000000006020828101919091528083019190915282518084018452600a81527f75726c2823676f6c64290000000000000000000000000000000000000000000081830152828401528251808401909352600983527f75726c2823736b79290000000000000000000000000000000000000000000000908301526060818101929092526000610571600486613770565b9050600060405180608001604052806049815260200161384860499139876040516020016105a0929190612fcd565b604051602081830303815290604052905081600114156105e157806040516020016105cb9190612c28565b6040516020818303038152906040529050610627565b81600214156105fb57806040516020016105cb9190612b03565b816003141561062757806040516020016106159190612d4d565b60405160208183030381529060405290505b8083836004811061063a5761063a6137b0565b60200201518660405160200161065293929190612ee5565b60408051808303601f19018152919052979650505050505050565b60007f01ffc9a7000000000000000000000000000000000000000000000000000000006001600160e01b0319831614806106d057507f80ac58cd000000000000000000000000000000000000000000000000000000006001600160e01b03198316145b8061070457507f5b5e139f000000000000000000000000000000000000000000000000000000006001600160e01b03198316145b92915050565b6060600380546107199061371a565b80601f01602080910402602001604051908101604052809291908181526020018280546107459061371a565b80156107925780601f1061076757610100808354040283529160200191610792565b820191906000526020600020905b81548152906001019060200180831161077557829003601f168201915b5050505050905090565b60006107a782611899565b6107dd576040517fcf4700e400000000000000000000000000000000000000000000000000000000815260040160405180910390fd5b506000908152600760205260409020546001600160a01b031690565b600061080482610b63565b9050336001600160a01b038216146108565761082081336116a6565b610856576040517fcfb3b94200000000000000000000000000000000000000000000000000000000815260040160405180910390fd5b600082815260076020526040808220805473ffffffffffffffffffffffffffffffffffffffff19166001600160a01b0387811691821790925591518593918516917f8c5be1e5ebec7d5bd14f71427d1e84f3dd0314c0f7b2291e5b200ac8c7c3b92591a4505050565b60006108ca826118c1565b9050836001600160a01b0316816001600160a01b031614610917576040517fa114810000000000000000000000000000000000000000000000000000000000815260040160405180910390fd5b60008281526007602052604090208054338082146001600160a01b0388169091141761097d5761094786336116a6565b61097d576040517f59c896be00000000000000000000000000000000000000000000000000000000815260040160405180910390fd5b6001600160a01b0385166109bd576040517fea553b3400000000000000000000000000000000000000000000000000000000815260040160405180910390fd5b80156109c857600082555b6001600160a01b038681166000908152600660205260408082208054600019019055918716808252919020805460010190554260a01b17600160e11b17600085815260056020526040902055600160e11b8316610a535760018401600081815260056020526040902054610a51576001548114610a515760008181526005602052604090208490555b505b83856001600160a01b0316876001600160a01b03167fddf252ad1be2c89b69c2b068fc378daa952ba7f163c4a11628f55a4df523b3ef60405160405180910390a4505050505050565b6000610aa782611899565b610b1e5760405162461bcd60e51b815260206004820152602d60248201527f437573746f6d546f6b656e2e617373657449644f66546f6b656e3a206e6f6e6560448201527f78697374656e7420746f6b656e0000000000000000000000000000000000000060648201526084015b60405180910390fd5b60096000610b2d6004856136a4565b8152602001908152602001600020549050919050565b610b5e83838360405180602001604052806000815250610df9565b505050565b6000610704826118c1565b60006001600160a01b038216610bb0576040517f8f4eb60400000000000000000000000000000000000000000000000000000000815260040160405180910390fd5b506001600160a01b031660009081526006602052604090205467ffffffffffffffff1690565b6000546001600160a01b03163314610c305760405162461bcd60e51b815260206004820181905260248201527f4f776e61626c653a2063616c6c6572206973206e6f7420746865206f776e65726044820152606401610b15565b610c3a600061193b565b565b600b8054610c499061371a565b80601f0160208091040260200160405190810160405280929190818152602001828054610c759061371a565b8015610cc25780601f10610c9757610100808354040283529160200191610cc2565b820191906000526020600020905b815481529060010190602001808311610ca557829003601f168201915b505050505081565b6000546001600160a01b03163314610d245760405162461bcd60e51b815260206004820181905260248201527f4f776e61626c653a2063616c6c6572206973206e6f7420746865206f776e65726044820152606401610b15565b8051610d3790600b9060208401906120b9565b5050565b6060600480546107199061371a565b6001600160a01b038216331415610d8d576040517fb06307db00000000000000000000000000000000000000000000000000000000815260040160405180910390fd5b3360008181526008602090815260408083206001600160a01b03871680855290835292819020805460ff191686151590811790915590519081529192917f17307eab39ab6107e8899845ad3d59bd9653f200f220920489ca2b5937696c31910160405180910390a35050565b610e048484846108bf565b6001600160a01b0383163b15610e3d57610e2084848484611998565b610e3d576040516368d2bf6b60e11b815260040160405180910390fd5b50505050565b6060610e4e82611899565b610ec05760405162461bcd60e51b815260206004820152602760248201527f437573746f6d546f6b656e2e746f6b656e5552493a206e6f6e6578697374656e60448201527f7420746f6b656e000000000000000000000000000000000000000000000000006064820152608401610b15565b600080610ecc8461145c565b90925090506000610ee883610ee2600488613770565b8461047f565b90506000600a81610efa6004896136a4565b815260200190815260200160002054905060007f00000000000000000000000000000000000000000000000000000000000000006001600160a01b0316634378a6e3836040518263ffffffff1660e01b8152600401610f5b91815260200190565b60006040518083038186803b158015610f7357600080fd5b505afa158015610f87573d6000803e3d6000fd5b505050506040513d6000823e601f3d908101601f19168201604052610faf919081019061270a565b9050610ff9610fbd88611a90565b600b610fc98a85611bc2565b610fd287611df8565b604051602001610fe59493929190613041565b604051602081830303815290604052611df8565b60405160200161100991906131ed565b60405160208183030381529060405295505050505050919050565b600061102f60015490565b60408051808201909152600d81527f4472617720596f7572204f776e0000000000000000000000000000000000000060208201528752905061107081611a90565b6040516020016110809190612ffc565b60408051601f1981840301815291815287810191909152517f5b7eea860000000000000000000000000000000000000000000000000000000081526000906001600160a01b037f00000000000000000000000000000000000000000000000000000000000000001690635b7eea86906110fd908a90600401613497565b602060405180830381600087803b15801561111757600080fd5b505af115801561112b573d6000803e3d6000fd5b505050506040513d601f19601f8201168201806040525081019061114f9190612a27565b905080600a60006111616004866136a4565b8152602081019190915260400160002055856111b2576111828160026136b8565b61118d90600161368c565b6009600061119c6004866136a4565b81526020810191909152604001600020556113cb565b60408051600280825260608201909252600091816020015b6111f760405180608001604052806000815260200160001515815260200160608152602001606081525090565b8152602001906001900390816111ca579050509050600061121788610a9c565b90506112246002826136a4565b82600081518110611237576112376137b0565b60209081029190910101515261124e600282613770565b60001482600081518110611264576112646137b0565b60200260200101516020019015159081151581525050868260008151811061128e5761128e6137b0565b60200260200101516040018190525085826000815181106112b1576112b16137b0565b60200260200101516060018190525082826001815181106112d4576112d46137b0565b6020908102919091010151526040517fb67e18160000000000000000000000000000000000000000000000000000000081526000906001600160a01b037f0000000000000000000000000000000000000000000000000000000000000000169063b67e1816906113489086906004016133b8565b602060405180830381600087803b15801561136257600080fd5b505af1158015611376573d6000803e3d6000fd5b505050506040513d601f19601f8201168201806040525081019061139a9190612a27565b90506113a78160026136b8565b600960006113b66004896136a4565b81526020810191909152604001600020555050505b6113e0336113db600160046136d7565b611f95565b851561140d576114086114016113f7600489613770565b61030890896136d7565b6001611f95565b611453565b600461141981846136a4565b6114239190613770565b61143e57600c54611408906001600160a01b03166001611f95565b6114536114016000546001600160a01b031690565b50505050505050565b606080600061146a84610a9c565b9050611477600282613770565b611531576001600160a01b037f00000000000000000000000000000000000000000000000000000000000000001663e3f24f026114b56002846136a4565b6040518263ffffffff1660e01b81526004016114d391815260200190565b60006040518083038186803b1580156114eb57600080fd5b505afa1580156114ff573d6000803e3d6000fd5b505050506040513d6000823e601f3d908101601f191682016040526115279190810190612639565b9250925050915091565b60006001600160a01b037f000000000000000000000000000000000000000000000000000000000000000016634378a6e361156d6002856136a4565b6040518263ffffffff1660e01b815260040161158b91815260200190565b60006040518083038186803b1580156115a357600080fd5b505afa1580156115b7573d6000803e3d6000fd5b505050506040513d6000823e601f3d908101601f191682016040526115df919081019061270a565b905060006001600160a01b037f0000000000000000000000000000000000000000000000000000000000000000166334320bf161161d6002866136a4565b84606001516040518363ffffffff1660e01b815260040161163f929190613563565b60006040518083038186803b15801561165757600080fd5b505afa15801561166b573d6000803e3d6000fd5b505050506040513d6000823e601f3d908101601f1916820160405261169391908101906125cf565b6060909201519196919550909350505050565b6040517fc45527910000000000000000000000000000000000000000000000000000000081526001600160a01b038381166004830152600091818416917f0000000000000000000000000000000000000000000000000000000000000000169063c45527919060240160206040518083038186803b15801561172757600080fd5b505afa15801561173b573d6000803e3d6000fd5b505050506040513d601f19601f8201168201806040525081019061175f9190612431565b6001600160a01b0316141561177657506001610704565b6001600160a01b0380841660009081526008602090815260408083209386168352929052205460ff165b9392505050565b60006117b260015490565b905090565b6000546001600160a01b031633146118115760405162461bcd60e51b815260206004820181905260248201527f4f776e61626c653a2063616c6c6572206973206e6f7420746865206f776e65726044820152606401610b15565b6001600160a01b03811661188d5760405162461bcd60e51b815260206004820152602660248201527f4f776e61626c653a206e6577206f776e657220697320746865207a65726f206160448201527f64647265737300000000000000000000000000000000000000000000000000006064820152608401610b15565b6118968161193b565b50565b600060015482108015610704575050600090815260056020526040902054600160e01b161590565b60008160015481101561190957600081815260056020526040902054600160e01b8116611907575b806117a05750600019016000818152600560205260409020546118e9565b505b6040517fdf2d9b4200000000000000000000000000000000000000000000000000000000815260040160405180910390fd5b600080546001600160a01b0383811673ffffffffffffffffffffffffffffffffffffffff19831681178455604051919092169283917f8be0079c531659141344cd1fd0a4f28419497f9722a3daafe3b4186f6b6457e09190a35050565b604051630a85bd0160e11b81526000906001600160a01b0385169063150b7a02906119cd90339089908890889060040161337c565b602060405180830381600087803b1580156119e757600080fd5b505af1925050508015611a17575060408051601f3d908101601f19168201909252611a14918101906125b2565b60015b611a72573d808015611a45576040519150601f19603f3d011682016040523d82523d6000602084013e611a4a565b606091505b508051611a6a576040516368d2bf6b60e11b815260040160405180910390fd5b805181602001fd5b6001600160e01b031916630a85bd0160e11b1490505b949350505050565b606081611ad057505060408051808201909152600181527f3000000000000000000000000000000000000000000000000000000000000000602082015290565b8160005b8115611afa5780611ae481613755565b9150611af39050600a836136a4565b9150611ad4565b60008167ffffffffffffffff811115611b1557611b156137c6565b6040519080825280601f01601f191660200182016040528015611b3f576020820181803683370190505b5090505b8415611a8857611b546001836136d7565b9150611b61600a86613770565b611b6c90603061368c565b60f81b818381518110611b8157611b816137b0565b60200101907effffffffffffffffffffffffffffffffffffffffffffffffffffffffffffff1916908160001a905350611bbb600a866136a4565b9450611b43565b60606000611bcf846120a5565b611c0e576040518060400160405280600281526020017f4e6f000000000000000000000000000000000000000000000000000000000000815250611c45565b6040518060400160405280600381526020017f59657300000000000000000000000000000000000000000000000000000000008152505b83516020808601516040808801519051611c6195949301613232565b604051602081830303815290604052905080600084608001515111611cbb576040518060400160405280600b81526020017f28616e6f6e796d6f757329000000000000000000000000000000000000000000815250611dcf565b7f00000000000000000000000000000000000000000000000000000000000000006001600160a01b031663a57cfb246040518163ffffffff1660e01b815260040160206040518083038186803b158015611d1457600080fd5b505afa158015611d28573d6000803e3d6000fd5b505050506040513d601f19601f82011682018060405250810190611d4c9190612431565b6001600160a01b031663841b9d9785608001516040518263ffffffff1660e01b8152600401611d7b9190613456565b60006040518083038186803b158015611d9357600080fd5b505afa158015611da7573d6000803e3d6000fd5b505050506040513d6000823e601f3d908101601f19168201604052611dcf91908101906125cf565b604051602001611de0929190612e72565b60408051808303601f19018152919052949350505050565b6060815160001415611e1857505060408051602081019091526000815290565b60006040518060600160405280604081526020016138086040913990506000600384516002611e47919061368c565b611e5191906136a4565b611e5c9060046136b8565b90506000611e6b82602061368c565b67ffffffffffffffff811115611e8357611e836137c6565b6040519080825280601f01601f191660200182016040528015611ead576020820181803683370190505b509050818152600183018586518101602084015b81831015611f19576003830192508251603f8160121c168501518253600182019150603f81600c1c168501518253600182019150603f8160061c168501518253600182019150603f8116850151825350600101611ec1565b600389510660018114611f335760028114611f5f57611f87565b7f3d3d000000000000000000000000000000000000000000000000000000000000600119830152611f87565b7f3d000000000000000000000000000000000000000000000000000000000000006000198301525b509398975050505050505050565b6001546001600160a01b038316611fd8576040517f2e07630000000000000000000000000000000000000000000000000000000000815260040160405180910390fd5b8161200f576040517fb562e8dd00000000000000000000000000000000000000000000000000000000815260040160405180910390fd5b6001600160a01b038316600081815260066020526040902080546801000000000000000185020190554260a01b6001841460e11b1717600082815260056020526040902055808281015b6040516001830192906001600160a01b038716906000907fddf252ad1be2c89b69c2b068fc378daa952ba7f163c4a11628f55a4df523b3ef908290a48082106120595760015550505050565b60006120b2600483613770565b1592915050565b8280546120c59061371a565b90600052602060002090601f0160209004810192826120e7576000855561212d565b82601f1061210057805160ff191683800117855561212d565b8280016001018555821561212d579182015b8281111561212d578251825591602001919060010190612112565b5061213992915061213d565b5090565b5b80821115612139576000815560010161213e565b803561215d816137dc565b919050565b805161215d816137dc565b600082601f83011261217e57600080fd5b8135602061219361218e83613640565b61360f565b80838252828201915082860187848660051b89010111156121b357600080fd5b60005b8581101561226f57813567ffffffffffffffff808211156121d657600080fd5b908901906080828c03601f19018113156121ef57600080fd5b6121f761357c565b888401358152604061220a81860161235c565b8a83015260608501358481111561222057600080fd5b61222e8f8c8389010161236c565b8284015250508184013591508282111561224757600080fd5b6122558d8a8487010161236c565b6060820152875250505092840192908401906001016121b6565b5090979650505050505050565b600082601f83011261228d57600080fd5b8135602061229d61218e83613640565b80838252828201915082860187848660051b89010111156122bd57600080fd5b60005b8581101561226f57813567ffffffffffffffff808211156122e057600080fd5b908901906040828c03601f19018113156122f957600080fd5b6123016135a5565b888401358381111561231257600080fd5b6123208e8b8388010161236c565b82525090830135908282111561233557600080fd5b6123438d8a8487010161236c565b818a0152875250505092840192908401906001016122c0565b8035801515811461215d57600080fd5b600082601f83011261237d57600080fd5b813561238b61218e82613664565b8181528460208386010111156123a057600080fd5b816020850160208301376000918101602001919091529392505050565b600082601f8301126123ce57600080fd5b81516123dc61218e82613664565b8181528460208386010111156123f157600080fd5b611a888260208301602087016136ee565b805161ffff8116811461215d57600080fd5b60006020828403121561242657600080fd5b81356117a0816137dc565b60006020828403121561244357600080fd5b81516117a0816137dc565b6000806040838503121561246157600080fd5b823561246c816137dc565b9150602083013561247c816137dc565b809150509250929050565b60008060006060848603121561249c57600080fd5b83356124a7816137dc565b925060208401356124b7816137dc565b929592945050506040919091013590565b600080600080608085870312156124de57600080fd5b84356124e9816137dc565b935060208501356124f9816137dc565b925060408501359150606085013567ffffffffffffffff81111561251c57600080fd5b6125288782880161236c565b91505092959194509250565b6000806040838503121561254757600080fd5b8235612552816137dc565b91506125606020840161235c565b90509250929050565b6000806040838503121561257c57600080fd5b8235612587816137dc565b946020939093013593505050565b6000602082840312156125a757600080fd5b81356117a0816137f1565b6000602082840312156125c457600080fd5b81516117a0816137f1565b6000602082840312156125e157600080fd5b815167ffffffffffffffff8111156125f857600080fd5b611a88848285016123bd565b60006020828403121561261657600080fd5b813567ffffffffffffffff81111561262d57600080fd5b611a888482850161236c565b6000806040838503121561264c57600080fd5b825167ffffffffffffffff8082111561266457600080fd5b612670868387016123bd565b9350602085015191508082111561268657600080fd5b50612693858286016123bd565b9150509250929050565b6000806000606084860312156126b257600080fd5b833567ffffffffffffffff808211156126ca57600080fd5b6126d68783880161236c565b94506020860135935060408601359150808211156126f357600080fd5b506127008682870161236c565b9150509250925092565b60006020828403121561271c57600080fd5b815167ffffffffffffffff8082111561273457600080fd5b90830190610120828603121561274957600080fd5b6127516135c8565b82518281111561276057600080fd5b61276c878286016123bd565b82525060208301518281111561278157600080fd5b61278d878286016123bd565b6020830152506040830151828111156127a557600080fd5b6127b1878286016123bd565b6040830152506060830151828111156127c957600080fd5b6127d5878286016123bd565b6060830152506080830151828111156127ed57600080fd5b6127f9878286016123bd565b60808301525061280b60a08401612162565b60a082015260c08301518281111561282257600080fd5b61282e878286016123bd565b60c08301525061284060e08401612402565b60e08201526101009150612855828401612402565b91810191909152949350505050565b600080600080600060a0868803121561287c57600080fd5b853567ffffffffffffffff8082111561289457600080fd5b9087019060e0828a0312156128a857600080fd5b6128b06135ec565b8235828111156128bf57600080fd5b6128cb8b82860161236c565b8252506020830135828111156128e057600080fd5b6128ec8b82860161236c565b60208301525060408301358281111561290457600080fd5b6129108b82860161236c565b60408301525060608301358281111561292857600080fd5b6129348b82860161236c565b60608301525061294660808401612152565b608082015260a08301358281111561295d57600080fd5b6129698b82860161236c565b60a08301525060c08301358281111561298157600080fd5b61298d8b82860161227c565b60c08301525096506020880135955060408801359150808211156129b057600080fd5b6129bc89838a0161236c565b945060608801359150808211156129d257600080fd5b6129de89838a0161236c565b935060808801359150808211156129f457600080fd5b50612a018882890161216d565b9150509295509295909350565b600060208284031215612a2057600080fd5b5035919050565b600060208284031215612a3957600080fd5b5051919050565b600081518084526020808501808196508360051b8101915082860160005b85811015612aae578284038952815160408151818752612a8082880182612abb565b91505086820151915085810387870152612a9a8183612abb565b9a87019a9550505090840190600101612a5e565b5091979650505050505050565b60008151808452612ad38160208601602086016136ee565b601f01601f19169290920160200192915050565b60008151612af98185602086016136ee565b9290920192915050565b60008251612b158184602087016136ee565b7f3c6c696e6561724772616469656e742069643d22676f6c64222078313d22302e9201918252507f32222078323d2230222079313d2230222079323d2231223e0a20203c73746f7060208201527f206f66667365743d223025222073746f702d636f6c6f723d222343434142303960408201527f222f3e0a203c73746f70206f66667365743d22353025222073746f702d636f6c60608201527f6f723d222346464631383622202f3e0a203c73746f70206f66667365743d223160808201527f303025222073746f702d636f6c6f723d2223434341423039222f3e0a3c2f6c6960a08201527f6e6561724772616469656e743e0a00000000000000000000000000000000000060c082015260ce01919050565b60008251612c3a8184602087016136ee565b7f3c6c696e6561724772616469656e742069643d2273696c766572222078313d229201918252507f302e32222078323d2230222079313d2230222079323d2231223e0a20203c737460208201527f6f70206f66667365743d223025222073746f702d636f6c6f723d22233830383060408201527f3746222f3e0a203c73746f70206f66667365743d22353025222073746f702d6360608201527f6f6c6f723d222345454630463222202f3e0a203c73746f70206f66667365743d60808201527f2231303025222073746f702d636f6c6f723d2223383038303746222f3e0a3c2f60a08201527f6c696e6561724772616469656e743e0a0000000000000000000000000000000060c082015260d001919050565b60008251612d5f8184602087016136ee565b7f3c72616469616c4772616469656e742069643d22736b79222063783d22302e389201918252507f222063793d22302e3333223e0a20203c73746f70206f66667365743d2230252260208201527f2073746f702d636f6c6f723d2223464646464646222f3e0a203c73746f70206f60408201527f66667365743d22323025222073746f702d636f6c6f723d22234646464646462260608201527f202f3e0a203c73746f70206f66667365743d2231303025222073746f702d636f60808201527f6c6f723d2223303042354532222f3e0a3c2f72616469616c4772616469656e7460a08201527f3e0a00000000000000000000000000000000000000000000000000000000000060c082015260c201919050565b60008351612e848184602088016136ee565b80830190507f7d2c7b2274726169745f74797065223a224d696e746572222c2276616c7565228152611d1160f11b60208201528351612eca8160228401602088016136ee565b61227d60f01b60229290910191820152602401949350505050565b60008451612ef78184602089016136ee565b80830190507f3c2f646566733e0a203c7265637420783d22302220793d22302220776964746881527f3d223130302522206865696768743d2231303025222066696c6c3d220000000060208201528451612f5881603c8401602089016136ee565b7f22202f3e0a203c75736520687265663d22230000000000000000000000000000603c92909101918201528351612f9681604e8401602088016136ee565b7f22202f3e0a3c2f7376673e0a0000000000000000000000000000000000000000604e9290910191820152605a0195945050505050565b60008351612fdf8184602088016136ee565b835190830190612ff38183602088016136ee565b01949350505050565b7f44726177696e67200000000000000000000000000000000000000000000000008152600082516130348160088501602087016136ee565b9190910160080192915050565b7f7b226e616d65223a2244726177696e6720000000000000000000000000000000815260008551602061307a8260118601838b016136ee565b7f222c226465736372697074696f6e223a220000000000000000000000000000006011928501928301528654602290600090600181811c90808316806130c157607f831692505b8683108114156130de57634e487b7160e01b855285600452602485fd5b8080156130f2576001811461310757613138565b60ff1985168988015283890187019550613138565b60008e81526020902060005b8581101561312e5781548b82018a0152908401908901613113565b505086848a010195505b50505050506131df6131d16131cb61317c613176857f222c2261747472696275746573223a5b00000000000000000000000000000000815260100190565b8c612ae7565b7f5d2c22696d616765223a22646174613a696d6167652f7376672b786d6c3b626181527f736536342c000000000000000000000000000000000000000000000000000000602082015260250190565b89612ae7565b61227d60f01b815260020190565b9a9950505050505050505050565b7f646174613a6170706c69636174696f6e2f6a736f6e3b6261736536342c00000081526000825161322581601d8501602087016136ee565b91909101601d0192915050565b7f7b2274726169745f74797065223a225072696d617279222c2276616c7565223a81526000601160f91b8060208401528651613275816021860160208b016136ee565b7f227d2c7b2274726169745f74797065223a2247726f7570222c2276616c756522602191850191820152611d1160f11b604182015286516132bd816043840160208b016136ee565b7f227d2c7b2274726169745f74797065223a2243617465676f7279222c2276616c604392909101918201527f7565223a2200000000000000000000000000000000000000000000000000000060638201528551613321816068840160208a016136ee565b8082019150507f227d2c7b2274726169745f74797065223a224e616d65222c2276616c7565223a60688201528160888201526133706133636089830187612ae7565b601160f91b815260010190565b98975050505050505050565b60006001600160a01b038087168352808616602084015250836040830152608060608301526133ae6080830184612abb565b9695505050505050565b60006020808301818452808551808352604092508286019150828160051b87010184880160005b8381101561344857603f1989840301855281516080815185528882015115158986015287820151818987015261341782870182612abb565b915050606080830151925085820381870152506134348183612abb565b9689019694505050908601906001016133df565b509098975050505050505050565b6020815260006117a06020830184612abb565b60408152600061347c6040830185612abb565b828103602084015261348e8185612abb565b95945050505050565b602081526000825160e060208401526134b4610100840182612abb565b90506020840151601f19808584030160408601526134d28383612abb565b925060408601519150808584030160608601526134ef8383612abb565b9250606086015191508085840301608086015261350c8383612abb565b92506080860151915061352a60a08601836001600160a01b03169052565b60a08601519150808584030160c08601526135458383612abb565b925060c08601519150808584030160e08601525061348e8282612a40565b828152604060208201526000611a886040830184612abb565b6040516080810167ffffffffffffffff8111828210171561359f5761359f6137c6565b60405290565b6040805190810167ffffffffffffffff8111828210171561359f5761359f6137c6565b604051610120810167ffffffffffffffff8111828210171561359f5761359f6137c6565b60405160e0810167ffffffffffffffff8111828210171561359f5761359f6137c6565b604051601f8201601f1916810167ffffffffffffffff81118282101715613638576136386137c6565b604052919050565b600067ffffffffffffffff82111561365a5761365a6137c6565b5060051b60200190565b600067ffffffffffffffff82111561367e5761367e6137c6565b50601f01601f191660200190565b6000821982111561369f5761369f613784565b500190565b6000826136b3576136b361379a565b500490565b60008160001904831182151516156136d2576136d2613784565b500290565b6000828210156136e9576136e9613784565b500390565b60005b838110156137095781810151838201526020016136f1565b83811115610e3d5750506000910152565b600181811c9082168061372e57607f821691505b6020821081141561374f57634e487b7160e01b600052602260045260246000fd5b50919050565b600060001982141561376957613769613784565b5060010190565b60008261377f5761377f61379a565b500690565b634e487b7160e01b600052601160045260246000fd5b634e487b7160e01b600052601260045260246000fd5b634e487b7160e01b600052603260045260246000fd5b634e487b7160e01b600052604160045260246000fd5b6001600160a01b038116811461189657600080fd5b6001600160e01b03198116811461189657600080fdfe4142434445464748494a4b4c4d4e4f505152535455565758595a6162636465666768696a6b6c6d6e6f707172737475767778797a303132333435363738392b2f3c7376672076696577426f783d2230203020313032342031303234222020786d6c6e733d22687474703a2f2f7777772e77332e6f72672f323030302f737667223e0a3c646566733e0aa26469706673582212209c13ff5add391cb365051b48d435fa693ca62c2919d553a5f7ad96371ad0a2c964736f6c6343000806003360a060405234801561001057600080fd5b506040516117ae3803806117ae83398101604081905261002f9161009d565b6100383361004d565b60601b6001600160601b0319166080526100cd565b600080546001600160a01b038381166001600160a01b0319831681178455604051919092169283917f8be0079c531659141344cd1fd0a4f28419497f9722a3daafe3b4186f6b6457e09190a35050565b6000602082840312156100af57600080fd5b81516001600160a01b03811681146100c657600080fd5b9392505050565b60805160601c6116af6100ff6000396000818160a9015281816101be0152818161063101526106e601526116af6000f3fe608060405234801561001057600080fd5b50600436106100885760003560e01c80638da5cb5b1161005b5780638da5cb5b146100f6578063b67e181614610107578063e3f24f021461011a578063f2fde38b1461013b57600080fd5b806356e617361461008d578063597a0e36146100a457806361b8ce8c146100e3578063715018a6146100ec575b600080fd5b6001545b6040519081526020015b60405180910390f35b6100cb7f000000000000000000000000000000000000000000000000000000000000000081565b6040516001600160a01b03909116815260200161009b565b61009160015481565b6100f461014e565b005b6000546001600160a01b03166100cb565b610091610115366004610e0f565b6101b9565b61012d610128366004611115565b61055f565b60405161009b929190611415565b6100f4610149366004610deb565b610a11565b6000546001600160a01b031633146101ad5760405162461bcd60e51b815260206004820181905260248201527f4f776e61626c653a2063616c6c6572206973206e6f7420746865206f776e657260448201526064015b60405180910390fd5b6101b76000610af3565b565b6000807f00000000000000000000000000000000000000000000000000000000000000006001600160a01b031663a57cfb246040518163ffffffff1660e01b815260040160206040518083038186803b15801561021557600080fd5b505afa158015610229573d6000803e3d6000fd5b505050506040513d601f19601f8201168201806040525081019061024d9190610f69565b600180549192506000919082610262836115cf565b909155506000818152600260205260408120919250905b85518210156105555760008683815181106102965761029661162a565b602002602001015190506000816000015190508160200151156103165760015481106103045760405162461bcd60e51b815260206004820152601f60248201527f72656769737465723a20496e76616c696420636f6d706f736974696f6e49640060448201526064016101a4565b61030f60028261152e565b905061032f565b61032181600261152e565b61032c906001611502565b90505b82546001810184556000848152602090200181905560608201518051156104415760405163c16e50ef60e01b81526001600160a01b0388169063c16e50ef9061037c908490600401611402565b60206040518083038186803b15801561039457600080fd5b505afa1580156103a8573d6000803e3d6000fd5b505050506040513d601f19601f820116820180604052508101906103cc9190610f4c565b6104185760405162461bcd60e51b815260206004820152601b60248201527f72656769737465723a20496e76616c6964207472616e73666f726d000000000060448201526064016101a4565b60008681526003602090815260408083208584528252909120825161043f92840190610c95565b505b604083015180511561053e5760405163c16e50ef60e01b81526001600160a01b0389169063c16e50ef90610479908490600401611402565b60206040518083038186803b15801561049157600080fd5b505afa1580156104a5573d6000803e3d6000fd5b505050506040513d601f19601f820116820180604052508101906104c99190610f4c565b6105155760405162461bcd60e51b815260206004820152601660248201527f72656769737465723a20496e76616c69642066696c6c0000000000000000000060448201526064016101a4565b60008781526004602090815260408083208684528252909120825161053c92840190610c95565b505b50505050818061054d906115cf565b925050610279565b5090949350505050565b6060806000600260008581526020019081526020016000208054806020026020016040519081016040528092919081815260200182805480156105c157602002820191906000526020600020905b8154815260200190600101908083116105ad575b505050505090506000606080606080600094505b85518510156109b45760008686815181106105f2576105f261162a565b6020026020010151905060028161060991906115ea565b6106255761061b61012860028361151a565b909350915061078c565b60006001600160a01b037f000000000000000000000000000000000000000000000000000000000000000016634378a6e361066160028561151a565b6040518263ffffffff1660e01b815260040161067f91815260200190565b60006040518083038186803b15801561069757600080fd5b505afa1580156106ab573d6000803e3d6000fd5b505050506040513d6000823e601f3d908101601f191682016040526106d39190810190610fbb565b6060810151935090506001600160a01b037f0000000000000000000000000000000000000000000000000000000000000000166334320bf161071660028561151a565b856040518363ffffffff1660e01b8152600401610734929190611443565b60006040518083038186803b15801561074c57600080fd5b505afa158015610760573d6000803e3d6000fd5b505050506040513d6000823e601f3d908101601f191682016040526107889190810190610f86565b9350505b848360405160200161079f92919061115a565b604051602081830303815290604052945083826040516020016107c3929190611189565b60408051601f1981840301815291815260008c8152600360209081528282208583529052908120805492965090916107fa90611594565b80601f016020809104026020016040519081016040528092919081815260200182805461082690611594565b80156108735780601f1061084857610100808354040283529160200191610873565b820191906000526020600020905b81548152906001019060200180831161085657829003601f168201915b505050505090506000815111156108a9578481604051602001610897929190611357565b60405160208183030381529060405294505b60008b8152600460209081526040808320858452909152812080546108cd90611594565b80601f01602080910402602001604051908101604052809291908181526020018280546108f990611594565b80156109465780601f1061091b57610100808354040283529160200191610946565b820191906000526020600020905b81548152906001019060200180831161092957829003601f168201915b5050505050905060008151111561097c57858160405160200161096a929190611230565b60405160208183030381529060405295505b8560405160200161098d91906111ef565b604051602081830303815290604052955050505084806109ac906115cf565b9550506105d5565b6109bd89610b5b565b6040516020016109cd91906113bd565b60405160208183030381529060405290508381846040516020016109f393929190611296565b60408051601f19818403018152919052999098509650505050505050565b6000546001600160a01b03163314610a6b5760405162461bcd60e51b815260206004820181905260248201527f4f776e61626c653a2063616c6c6572206973206e6f7420746865206f776e657260448201526064016101a4565b6001600160a01b038116610ae75760405162461bcd60e51b815260206004820152602660248201527f4f776e61626c653a206e6577206f776e657220697320746865207a65726f206160448201527f646472657373000000000000000000000000000000000000000000000000000060648201526084016101a4565b610af081610af3565b50565b600080546001600160a01b038381167fffffffffffffffffffffffff0000000000000000000000000000000000000000831681178455604051919092169283917f8be0079c531659141344cd1fd0a4f28419497f9722a3daafe3b4186f6b6457e09190a35050565b606081610b9b57505060408051808201909152600181527f3000000000000000000000000000000000000000000000000000000000000000602082015290565b8160005b8115610bc55780610baf816115cf565b9150610bbe9050600a8361151a565b9150610b9f565b60008167ffffffffffffffff811115610be057610be0611640565b6040519080825280601f01601f191660200182016040528015610c0a576020820181803683370190505b5090505b8415610c8d57610c1f60018361154d565b9150610c2c600a866115ea565b610c37906030611502565b60f81b818381518110610c4c57610c4c61162a565b60200101907effffffffffffffffffffffffffffffffffffffffffffffffffffffffffffff1916908160001a905350610c86600a8661151a565b9450610c0e565b949350505050565b828054610ca190611594565b90600052602060002090601f016020900481019282610cc35760008555610d09565b82601f10610cdc57805160ff1916838001178555610d09565b82800160010185558215610d09579182015b82811115610d09578251825591602001919060010190610cee565b50610d15929150610d19565b5090565b5b80821115610d155760008155600101610d1a565b8051610d3981611656565b919050565b600082601f830112610d4f57600080fd5b8151610d62610d5d826114da565b6114a9565b818152846020838601011115610d7757600080fd5b610c8d826020830160208701611564565b600082601f830112610d9957600080fd5b8135610da7610d5d826114da565b818152846020838601011115610dbc57600080fd5b816020850160208301376000918101602001919091529392505050565b805161ffff81168114610d3957600080fd5b600060208284031215610dfd57600080fd5b8135610e0881611656565b9392505050565b60006020808385031215610e2257600080fd5b823567ffffffffffffffff80821115610e3a57600080fd5b818501915085601f830112610e4e57600080fd5b813581811115610e6057610e60611640565b8060051b610e6f8582016114a9565b8281528581019085870183870188018b1015610e8a57600080fd5b600093505b84841015610f3e57803586811115610ea657600080fd5b87016080818d03601f1901811315610ebd57600080fd5b610ec561145c565b8a83013581526040830135610ed98161166b565b818c0152606083013589811115610eef57600080fd5b610efd8f8d83870101610d88565b604083015250908201359088821115610f1557600080fd5b610f238e8c84860101610d88565b60608201528552505060019390930192918701918701610e8f565b509998505050505050505050565b600060208284031215610f5e57600080fd5b8151610e088161166b565b600060208284031215610f7b57600080fd5b8151610e0881611656565b600060208284031215610f9857600080fd5b815167ffffffffffffffff811115610faf57600080fd5b610c8d84828501610d3e565b600060208284031215610fcd57600080fd5b815167ffffffffffffffff80821115610fe557600080fd5b908301906101208286031215610ffa57600080fd5b611002611485565b82518281111561101157600080fd5b61101d87828601610d3e565b82525060208301518281111561103257600080fd5b61103e87828601610d3e565b60208301525060408301518281111561105657600080fd5b61106287828601610d3e565b60408301525060608301518281111561107a57600080fd5b61108687828601610d3e565b60608301525060808301518281111561109e57600080fd5b6110aa87828601610d3e565b6080830152506110bc60a08401610d2e565b60a082015260c0830151828111156110d357600080fd5b6110df87828601610d3e565b60c0830152506110f160e08401610dd9565b60e08201526101009150611106828401610dd9565b91810191909152949350505050565b60006020828403121561112757600080fd5b5035919050565b60008151808452611146816020860160208601611564565b601f01601f19169290920160200192915050565b6000835161116c818460208801611564565b835190830190611180818360208801611564565b01949350505050565b6000835161119b818460208801611564565b7f203c75736520687265663d22230000000000000000000000000000000000000090830190815283516111d581600d840160208801611564565b601160f91b600d9290910191820152600e01949350505050565b60008251611201818460208701611564565b7f202f3e0a00000000000000000000000000000000000000000000000000000000920191825250600401919050565b60008351611242818460208801611564565b7f2066696c6c3d2200000000000000000000000000000000000000000000000000908301908152835161127c816007840160208801611564565b601160f91b60079290910191820152600801949350505050565b600084516112a8818460208901611564565b7f3c672069643d220000000000000000000000000000000000000000000000000090830190815284516112e2816007840160208901611564565b7f22203e0a0000000000000000000000000000000000000000000000000000000060079290910191820152835161132081600b840160208801611564565b7f3c2f673e0a000000000000000000000000000000000000000000000000000000600b929091019182015260100195945050505050565b60008351611369818460208801611564565b7f207472616e73666f726d3d22000000000000000000000000000000000000000090830190815283516113a381600c840160208801611564565b601160f91b600c9290910191820152600d01949350505050565b7f636f6d70000000000000000000000000000000000000000000000000000000008152600082516113f5816004850160208701611564565b9190910160040192915050565b602081526000610e08602083018461112e565b604081526000611428604083018561112e565b828103602084015261143a818561112e565b95945050505050565b828152604060208201526000610c8d604083018461112e565b6040516080810167ffffffffffffffff8111828210171561147f5761147f611640565b60405290565b604051610120810167ffffffffffffffff8111828210171561147f5761147f611640565b604051601f8201601f1916810167ffffffffffffffff811182821017156114d2576114d2611640565b604052919050565b600067ffffffffffffffff8211156114f4576114f4611640565b50601f01601f191660200190565b60008219821115611515576115156115fe565b500190565b60008261152957611529611614565b500490565b6000816000190483118215151615611548576115486115fe565b500290565b60008282101561155f5761155f6115fe565b500390565b60005b8381101561157f578181015183820152602001611567565b8381111561158e576000848401525b50505050565b600181811c908216806115a857607f821691505b602082108114156115c957634e487b7160e01b600052602260045260246000fd5b50919050565b60006000198214156115e3576115e36115fe565b5060010190565b6000826115f9576115f9611614565b500690565b634e487b7160e01b600052601160045260246000fd5b634e487b7160e01b600052601260045260246000fd5b634e487b7160e01b600052603260045260246000fd5b634e487b7160e01b600052604160045260246000fd5b6001600160a01b0381168114610af057600080fd5b8015158114610af057600080fdfea2646970667358221220df2044dd62cec030e306245a62d3a56550a34b1886ecc5a3f8ea67436724f42564736f6c6343000806003354686973206973206f6e65206f6620656666747320746f2063726561746520284f6e2d436861696e2041737365742053746f7265295b68747470733a2f2f617373657473746f72652e7774662f647261775d2e20",
  "linkReferences": {},
  "deployedLinkReferences": {}
}