{
  "_format": "hh-sol-artifact-1",
  "contractName": "DrawYourOwn",
  "sourceName": "contracts/DrawYourOwn.sol",
  "abi": [
    {
      "inputs": [
        {
          "internalType": "contract IAssetStoreRegistry",
          "name": "_registry",
          "type": "address"
        },
        {
          "internalType": "contract IAssetStoreEx",
          "name": "_assetStore",
          "type": "address"
        },
        {
          "internalType": "address",
          "name": "_developer",
          "type": "address"
        },
        {
          "internalType": "contract IProxyRegistry",
          "name": "_proxyRegistry",
          "type": "address"
        }
      ],
      "stateMutability": "nonpayable",
      "type": "constructor"
    },
    {
      "inputs": [],
      "name": "ApprovalCallerNotOwnerNorApproved",
      "type": "error"
    },
    {
      "inputs": [],
      "name": "ApprovalQueryForNonexistentToken",
      "type": "error"
    },
    {
      "inputs": [],
      "name": "ApproveToCaller",
      "type": "error"
    },
    {
      "inputs": [],
      "name": "BalanceQueryForZeroAddress",
      "type": "error"
    },
    {
      "inputs": [],
      "name": "MintERC2309QuantityExceedsLimit",
      "type": "error"
    },
    {
      "inputs": [],
      "name": "MintToZeroAddress",
      "type": "error"
    },
    {
      "inputs": [],
      "name": "MintZeroQuantity",
      "type": "error"
    },
    {
      "inputs": [],
      "name": "OwnerQueryForNonexistentToken",
      "type": "error"
    },
    {
      "inputs": [],
      "name": "OwnershipNotInitializedForExtraData",
      "type": "error"
    },
    {
      "inputs": [],
      "name": "TransferCallerNotOwnerNorApproved",
      "type": "error"
    },
    {
      "inputs": [],
      "name": "TransferFromIncorrectOwner",
      "type": "error"
    },
    {
      "inputs": [],
      "name": "TransferToNonERC721ReceiverImplementer",
      "type": "error"
    },
    {
      "inputs": [],
      "name": "TransferToZeroAddress",
      "type": "error"
    },
    {
      "inputs": [],
      "name": "URIQueryForNonexistentToken",
      "type": "error"
    },
    {
      "anonymous": false,
      "inputs": [
        {
          "indexed": true,
          "internalType": "address",
          "name": "owner",
          "type": "address"
        },
        {
          "indexed": true,
          "internalType": "address",
          "name": "approved",
          "type": "address"
        },
        {
          "indexed": true,
          "internalType": "uint256",
          "name": "tokenId",
          "type": "uint256"
        }
      ],
      "name": "Approval",
      "type": "event"
    },
    {
      "anonymous": false,
      "inputs": [
        {
          "indexed": true,
          "internalType": "address",
          "name": "owner",
          "type": "address"
        },
        {
          "indexed": true,
          "internalType": "address",
          "name": "operator",
          "type": "address"
        },
        {
          "indexed": false,
          "internalType": "bool",
          "name": "approved",
          "type": "bool"
        }
      ],
      "name": "ApprovalForAll",
      "type": "event"
    },
    {
      "anonymous": false,
      "inputs": [
        {
          "indexed": true,
          "internalType": "uint256",
          "name": "fromTokenId",
          "type": "uint256"
        },
        {
          "indexed": false,
          "internalType": "uint256",
          "name": "toTokenId",
          "type": "uint256"
        },
        {
          "indexed": true,
          "internalType": "address",
          "name": "from",
          "type": "address"
        },
        {
          "indexed": true,
          "internalType": "address",
          "name": "to",
          "type": "address"
        }
      ],
      "name": "ConsecutiveTransfer",
      "type": "event"
    },
    {
      "anonymous": false,
      "inputs": [
        {
          "indexed": true,
          "internalType": "address",
          "name": "previousOwner",
          "type": "address"
        },
        {
          "indexed": true,
          "internalType": "address",
          "name": "newOwner",
          "type": "address"
        }
      ],
      "name": "OwnershipTransferred",
      "type": "event"
    },
    {
      "anonymous": false,
      "inputs": [
        {
          "indexed": false,
          "internalType": "address payable",
          "name": "to",
          "type": "address"
        },
        {
          "indexed": false,
          "internalType": "uint256",
          "name": "tokenId",
          "type": "uint256"
        },
        {
          "indexed": false,
          "internalType": "uint256",
          "name": "amount",
          "type": "uint256"
        }
      ],
      "name": "PayedOut",
      "type": "event"
    },
    {
      "anonymous": false,
      "inputs": [
        {
          "indexed": true,
          "internalType": "address",
          "name": "from",
          "type": "address"
        },
        {
          "indexed": true,
          "internalType": "address",
          "name": "to",
          "type": "address"
        },
        {
          "indexed": true,
          "internalType": "uint256",
          "name": "tokenId",
          "type": "uint256"
        }
      ],
      "name": "Transfer",
      "type": "event"
    },
    {
      "inputs": [
        {
          "internalType": "address",
          "name": "to",
          "type": "address"
        },
        {
          "internalType": "uint256",
          "name": "tokenId",
          "type": "uint256"
        }
      ],
      "name": "approve",
      "outputs": [],
      "stateMutability": "nonpayable",
      "type": "function"
    },
    {
      "inputs": [],
      "name": "assetComposer",
      "outputs": [
        {
          "internalType": "contract AssetComposer",
          "name": "",
          "type": "address"
        }
      ],
      "stateMutability": "view",
      "type": "function"
    },
    {
      "inputs": [
        {
          "internalType": "uint256",
          "name": "_tokenId",
          "type": "uint256"
        }
      ],
      "name": "assetIdOfToken",
      "outputs": [
        {
          "internalType": "uint256",
          "name": "",
          "type": "uint256"
        }
      ],
      "stateMutability": "view",
      "type": "function"
    },
    {
      "inputs": [],
      "name": "assetStore",
      "outputs": [
        {
          "internalType": "contract IAssetStoreEx",
          "name": "",
          "type": "address"
        }
      ],
      "stateMutability": "view",
      "type": "function"
    },
    {
      "inputs": [
        {
          "internalType": "address",
          "name": "owner",
          "type": "address"
        }
      ],
      "name": "balanceOf",
      "outputs": [
        {
          "internalType": "uint256",
          "name": "",
          "type": "uint256"
        }
      ],
      "stateMutability": "view",
      "type": "function"
    },
    {
      "inputs": [],
      "name": "description",
      "outputs": [
        {
          "internalType": "string",
          "name": "",
          "type": "string"
        }
      ],
      "stateMutability": "view",
      "type": "function"
    },
    {
      "inputs": [],
      "name": "developer",
      "outputs": [
        {
          "internalType": "address",
          "name": "",
          "type": "address"
        }
      ],
      "stateMutability": "view",
      "type": "function"
    },
    {
      "inputs": [
        {
          "internalType": "string",
          "name": "_svgPart",
          "type": "string"
        },
        {
          "internalType": "uint256",
          "name": "_style",
          "type": "uint256"
        },
        {
          "internalType": "string",
          "name": "_tag",
          "type": "string"
        }
      ],
      "name": "generateSVG",
      "outputs": [
        {
          "internalType": "string",
          "name": "",
          "type": "string"
        }
      ],
      "stateMutability": "pure",
      "type": "function"
    },
    {
      "inputs": [
        {
          "internalType": "uint256",
          "name": "_tokenId",
          "type": "uint256"
        }
      ],
      "name": "generateSVGPart",
      "outputs": [
        {
          "internalType": "string",
          "name": "",
          "type": "string"
        },
        {
          "internalType": "string",
          "name": "",
          "type": "string"
        }
      ],
      "stateMutability": "view",
      "type": "function"
    },
    {
      "inputs": [
        {
          "internalType": "uint256",
          "name": "tokenId",
          "type": "uint256"
        }
      ],
      "name": "getApproved",
      "outputs": [
        {
          "internalType": "address",
          "name": "",
          "type": "address"
        }
      ],
      "stateMutability": "view",
      "type": "function"
    },
    {
      "inputs": [],
      "name": "getCurrentToken",
      "outputs": [
        {
          "internalType": "uint256",
          "name": "",
          "type": "uint256"
        }
      ],
      "stateMutability": "view",
      "type": "function"
    },
    {
      "inputs": [
        {
          "internalType": "address",
          "name": "owner",
          "type": "address"
        },
        {
          "internalType": "address",
          "name": "operator",
          "type": "address"
        }
      ],
      "name": "isApprovedForAll",
      "outputs": [
        {
          "internalType": "bool",
          "name": "",
          "type": "bool"
        }
      ],
      "stateMutability": "view",
      "type": "function"
    },
    {
      "inputs": [],
      "name": "mintPrice",
      "outputs": [
        {
          "internalType": "uint256",
          "name": "",
          "type": "uint256"
        }
      ],
      "stateMutability": "view",
      "type": "function"
    },
    {
      "inputs": [
        {
          "components": [
            {
              "internalType": "string",
              "name": "group",
              "type": "string"
            },
            {
              "internalType": "string",
              "name": "category",
              "type": "string"
            },
            {
              "internalType": "string",
              "name": "name",
              "type": "string"
            },
            {
              "internalType": "string",
              "name": "minter",
              "type": "string"
            },
            {
              "internalType": "address",
              "name": "soulbound",
              "type": "address"
            },
            {
              "internalType": "bytes",
              "name": "metadata",
              "type": "bytes"
            },
            {
              "components": [
                {
                  "internalType": "bytes",
                  "name": "body",
                  "type": "bytes"
                },
                {
                  "internalType": "string",
                  "name": "color",
                  "type": "string"
                }
              ],
              "internalType": "struct IAssetStoreRegistry.Part[]",
              "name": "parts",
              "type": "tuple[]"
            }
          ],
          "internalType": "struct IAssetStoreRegistry.AssetInfo",
          "name": "_assetInfo",
          "type": "tuple"
        },
        {
          "internalType": "uint256",
          "name": "_affiliate",
          "type": "uint256"
        },
        {
          "components": [
            {
              "internalType": "uint256",
              "name": "tokenId",
              "type": "uint256"
            },
            {
              "internalType": "string",
              "name": "fill",
              "type": "string"
            },
            {
              "internalType": "string",
              "name": "transform",
              "type": "string"
            }
          ],
          "internalType": "struct DrawYourOwn.RemixInfo[]",
          "name": "_remixes",
          "type": "tuple[]"
        },
        {
          "components": [
            {
              "internalType": "uint256",
              "name": "assetId",
              "type": "uint256"
            },
            {
              "internalType": "string",
              "name": "provider",
              "type": "string"
            },
            {
              "internalType": "string",
              "name": "fill",
              "type": "string"
            },
            {
              "internalType": "string",
              "name": "transform",
              "type": "string"
            }
          ],
          "internalType": "struct IAssetComposer.AssetLayer[]",
          "name": "_overlays",
          "type": "tuple[]"
        }
      ],
      "name": "mintWithAsset",
      "outputs": [],
      "stateMutability": "payable",
      "type": "function"
    },
    {
      "inputs": [],
      "name": "name",
      "outputs": [
        {
          "internalType": "string",
          "name": "",
          "type": "string"
        }
      ],
      "stateMutability": "view",
      "type": "function"
    },
    {
      "inputs": [],
      "name": "owner",
      "outputs": [
        {
          "internalType": "address",
          "name": "",
          "type": "address"
        }
      ],
      "stateMutability": "view",
      "type": "function"
    },
    {
      "inputs": [
        {
          "internalType": "uint256",
          "name": "tokenId",
          "type": "uint256"
        }
      ],
      "name": "ownerOf",
      "outputs": [
        {
          "internalType": "address",
          "name": "",
          "type": "address"
        }
      ],
      "stateMutability": "view",
      "type": "function"
    },
    {
      "inputs": [],
      "name": "proxyRegistry",
      "outputs": [
        {
          "internalType": "contract IProxyRegistry",
          "name": "",
          "type": "address"
        }
      ],
      "stateMutability": "view",
      "type": "function"
    },
    {
      "inputs": [],
      "name": "registry",
      "outputs": [
        {
          "internalType": "contract IAssetStoreRegistry",
          "name": "",
          "type": "address"
        }
      ],
      "stateMutability": "view",
      "type": "function"
    },
    {
      "inputs": [
        {
          "internalType": "uint256",
          "name": "",
          "type": "uint256"
        }
      ],
      "name": "remixBase",
      "outputs": [
        {
          "internalType": "uint256",
          "name": "",
          "type": "uint256"
        }
      ],
      "stateMutability": "view",
      "type": "function"
    },
    {
      "inputs": [],
      "name": "renounceOwnership",
      "outputs": [],
      "stateMutability": "nonpayable",
      "type": "function"
    },
    {
      "inputs": [
        {
          "internalType": "address",
          "name": "from",
          "type": "address"
        },
        {
          "internalType": "address",
          "name": "to",
          "type": "address"
        },
        {
          "internalType": "uint256",
          "name": "tokenId",
          "type": "uint256"
        }
      ],
      "name": "safeTransferFrom",
      "outputs": [],
      "stateMutability": "nonpayable",
      "type": "function"
    },
    {
      "inputs": [
        {
          "internalType": "address",
          "name": "from",
          "type": "address"
        },
        {
          "internalType": "address",
          "name": "to",
          "type": "address"
        },
        {
          "internalType": "uint256",
          "name": "tokenId",
          "type": "uint256"
        },
        {
          "internalType": "bytes",
          "name": "_data",
          "type": "bytes"
        }
      ],
      "name": "safeTransferFrom",
      "outputs": [],
      "stateMutability": "nonpayable",
      "type": "function"
    },
    {
      "inputs": [
        {
          "internalType": "address",
          "name": "operator",
          "type": "address"
        },
        {
          "internalType": "bool",
          "name": "approved",
          "type": "bool"
        }
      ],
      "name": "setApprovalForAll",
      "outputs": [],
      "stateMutability": "nonpayable",
      "type": "function"
    },
    {
      "inputs": [
        {
          "internalType": "string",
          "name": "_description",
          "type": "string"
        }
      ],
      "name": "setDescription",
      "outputs": [],
      "stateMutability": "nonpayable",
      "type": "function"
    },
    {
      "inputs": [],
      "name": "styles",
      "outputs": [
        {
          "internalType": "uint256",
          "name": "",
          "type": "uint256"
        }
      ],
      "stateMutability": "pure",
      "type": "function"
    },
    {
      "inputs": [
        {
          "internalType": "bytes4",
          "name": "interfaceId",
          "type": "bytes4"
        }
      ],
      "name": "supportsInterface",
      "outputs": [
        {
          "internalType": "bool",
          "name": "",
          "type": "bool"
        }
      ],
      "stateMutability": "view",
      "type": "function"
    },
    {
      "inputs": [],
      "name": "symbol",
      "outputs": [
        {
          "internalType": "string",
          "name": "",
          "type": "string"
        }
      ],
      "stateMutability": "view",
      "type": "function"
    },
    {
      "inputs": [
        {
          "internalType": "uint256",
          "name": "_tokenId",
          "type": "uint256"
        }
      ],
      "name": "tokenURI",
      "outputs": [
        {
          "internalType": "string",
          "name": "",
          "type": "string"
        }
      ],
      "stateMutability": "view",
      "type": "function"
    },
    {
      "inputs": [],
      "name": "tokensPerAsset",
      "outputs": [
        {
          "internalType": "uint256",
          "name": "",
          "type": "uint256"
        }
      ],
      "stateMutability": "pure",
      "type": "function"
    },
    {
      "inputs": [
        {
          "internalType": "uint256",
          "name": "",
          "type": "uint256"
        }
      ],
      "name": "totalEarned",
      "outputs": [
        {
          "internalType": "uint256",
          "name": "",
          "type": "uint256"
        }
      ],
      "stateMutability": "view",
      "type": "function"
    },
    {
      "inputs": [],
      "name": "totalSupply",
      "outputs": [
        {
          "internalType": "uint256",
          "name": "",
          "type": "uint256"
        }
      ],
      "stateMutability": "view",
      "type": "function"
    },
    {
      "inputs": [
        {
          "internalType": "address",
          "name": "from",
          "type": "address"
        },
        {
          "internalType": "address",
          "name": "to",
          "type": "address"
        },
        {
          "internalType": "uint256",
          "name": "tokenId",
          "type": "uint256"
        }
      ],
      "name": "transferFrom",
      "outputs": [],
      "stateMutability": "nonpayable",
      "type": "function"
    },
    {
      "inputs": [
        {
          "internalType": "address",
          "name": "newOwner",
          "type": "address"
        }
      ],
      "name": "transferOwnership",
      "outputs": [],
      "stateMutability": "nonpayable",
      "type": "function"
    }
  ],
  "bytecode": "0x66b1a2bc2ec50000600955610180604052605461010081815290620075c26101203980516200003791600e916020909101906200038f565b503480156200004557600080fd5b506040516200761638038062007616833981016040819052620000689162000451565b60405180604001604052806011815260200170111c985dc8165bdd5c8813dddb88139195607a1b81525060405180604001604052806007815260200166111c985dd3919560ca1b815250620000cc620000c66200033b60201b60201c565b6200033f565b8151620000e19060039060208501906200038f565b508051620000f79060049060208401906200038f565b50600060015550506001600160601b0319606085811b821660805284811b821660a052600f80546001600160a01b0386166001600160a01b031990911617905582901b1660c052604051600090849062000151906200041e565b6001600160a01b039091168152602001604051809103906000f0801580156200017e573d6000803e3d6000fd5b5060405163f2fde38b60e01b81523360048201529091506001600160a01b0382169063f2fde38b90602401600060405180830381600087803b158015620001c457600080fd5b505af1158015620001d9573d6000803e3d6000fd5b50505050600084604051620001ee906200042c565b6001600160a01b039091168152602001604051809103906000f0801580156200021b573d6000803e3d6000fd5b50604051630713000b60e11b81526001600160a01b03808316600483015291925090831690630e26001690602401602060405180830381600087803b1580156200026457600080fd5b505af115801562000279573d6000803e3d6000fd5b505050506040513d601f19601f820116820180604052508101906200029f9190620004b9565b50604051630713000b60e11b81526001600160a01b0383166004820181905290630e26001690602401602060405180830381600087803b158015620002e357600080fd5b505af1158015620002f8573d6000803e3d6000fd5b505050506040513d601f19601f820116820180604052508101906200031e9190620004b9565b505060601b6001600160601b03191660e052506200052992505050565b3390565b600080546001600160a01b038381166001600160a01b0319831681178455604051919092169283917f8be0079c531659141344cd1fd0a4f28419497f9722a3daafe3b4186f6b6457e09190a35050565b8280546200039d90620004d3565b90600052602060002090601f016020900481019282620003c157600085556200040c565b82601f10620003dc57805160ff19168380011785556200040c565b828001600101855582156200040c579182015b828111156200040c578251825591602001919060010190620003ef565b506200041a9291506200043a565b5090565b61213e806200488c83390190565b610bf880620069ca83390190565b5b808211156200041a57600081556001016200043b565b600080600080608085870312156200046857600080fd5b8451620004758162000510565b6020860151909450620004888162000510565b60408601519093506200049b8162000510565b6060860151909250620004ae8162000510565b939692955090935050565b600060208284031215620004cc57600080fd5b5051919050565b600181811c90821680620004e857607f821691505b602082108114156200050a57634e487b7160e01b600052602260045260246000fd5b50919050565b6001600160a01b03811681146200052657600080fd5b50565b60805160601c60a05160601c60c05160601c60e05160601c6142e5620005a7600039600081816106450152818161137001526119dd0152600081816105630152611c3d0152600081816103db0152818161189f01528181611a9501528181611b4501526123b701526000818161048f0152610e7101526142e56000f3fe6080604052600436106102185760003560e01c80637284e4161161011d578063b50cbd9f116100b0578063e3f24f021161007f578063ec1718b911610064578063ec1718b914610633578063ef2d174614610667578063f2fde38b1461067c57600080fd5b8063e3f24f02146105e5578063e985e9c51461061357600080fd5b8063b50cbd9f14610551578063b88d4fde14610585578063c87b56dd146105a5578063ca4b208b146105c557600080fd5b806390c3f38f116100ec57806390c3f38f146104cf57806395d89b41146104ef578063a22cb46514610504578063a9fc0f731461052457600080fd5b80637284e41614610468578063786f94c6146103b55780637b1039991461047d5780638da5cb5b146104b157600080fd5b80632b7e2f59116101b0578063597a0e361161017f5780636817c76c116101645780636817c76c1461041d57806370a0823114610433578063715018a61461045357600080fd5b8063597a0e36146103c95780636352211e146103fd57600080fd5b80632b7e2f5914610355578063406fbed91461036857806342842e0e146103955780634b00371f146103b557600080fd5b8063095ea7b3116101ec578063095ea7b3146102d057806318160ddd146102f257806323b872dd146103155780632ab72d2f1461033557600080fd5b80626e59e91461021d57806301ffc9a71461025357806306fdde0314610283578063081812fc14610298575b600080fd5b34801561022957600080fd5b5061023d610238366004612e9f565b61069c565b60405161024a9190613e52565b60405180910390f35b34801561025f57600080fd5b5061027361026e366004612d97565b6108f6565b604051901515815260200161024a565b34801561028f57600080fd5b5061023d610993565b3480156102a457600080fd5b506102b86102b33660046131df565b610a25565b6040516001600160a01b03909116815260200161024a565b3480156102dc57600080fd5b506102f06102eb366004612d6b565b610a82565b005b3480156102fe57600080fd5b50600254600154035b60405190815260200161024a565b34801561032157600080fd5b506102f0610330366004612c8b565b610b48565b34801561034157600080fd5b506103076103503660046131df565b610d26565b6102f0610363366004613066565b610dcd565b34801561037457600080fd5b506103076103833660046131df565b600a6020526000908152604090205481565b3480156103a157600080fd5b506102f06103b0366004612c8b565b6114d3565b3480156103c157600080fd5b506004610307565b3480156103d557600080fd5b506102b87f000000000000000000000000000000000000000000000000000000000000000081565b34801561040957600080fd5b506102b86104183660046131df565b6114f3565b34801561042957600080fd5b5061030760095481565b34801561043f57600080fd5b5061030761044e366004612c18565b6114fe565b34801561045f57600080fd5b506102f0611566565b34801561047457600080fd5b5061023d6115cc565b34801561048957600080fd5b506102b87f000000000000000000000000000000000000000000000000000000000000000081565b3480156104bd57600080fd5b506000546001600160a01b03166102b8565b3480156104db57600080fd5b506102f06104ea366004612e06565b61165a565b3480156104fb57600080fd5b5061023d6116cb565b34801561051057600080fd5b506102f061051f366004612d38565b6116da565b34801561053057600080fd5b5061030761053f3660046131df565b600b6020526000908152604090205481565b34801561055d57600080fd5b506102b87f000000000000000000000000000000000000000000000000000000000000000081565b34801561059157600080fd5b506102f06105a0366004612ccc565b611789565b3480156105b157600080fd5b5061023d6105c03660046131df565b6117d3565b3480156105d157600080fd5b50600f546102b8906001600160a01b031681565b3480156105f157600080fd5b506106056106003660046131df565b6119b4565b60405161024a929190613e65565b34801561061f57600080fd5b5061027361062e366004612c52565b611bfe565b34801561063f57600080fd5b506102b87f000000000000000000000000000000000000000000000000000000000000000081565b34801561067357600080fd5b50610307611cff565b34801561068857600080fd5b506102f0610697366004612c18565b611d0f565b6040805160a081018252600060808201818152825282518084018452600c81527f75726c282373696c7665722900000000000000000000000000000000000000006020828101919091528084019190915283518085018552600a81527f75726c2823676f6c6429000000000000000000000000000000000000000000008183015283850152835190810190935280835260608281019390935261074060048661418f565b90506000604051806080016040528060498152602001614267604991398760405160200161076f9291906139a0565b604051602081830303815290604052905081600114156107b0578060405160200161079a91906134d5565b60405160208183030381529060405290506107f6565b81600214156107ca578060405160200161079a91906133b0565b81600314156107f657806040516020016107e4919061382d565b60405160208183030381529060405290505b80604051602001610807919061332e565b6040516020818303038152906040529050600083836004811061082c5761082c6141cf565b6020020151511115610873578083836004811061084b5761084b6141cf565b602002015160405160200161086192919061379c565b60405160208183030381529060405290505b81600314156108a557808560405160200161088f9291906135fa565b60405160208183030381529060405290506108ca565b80856040516020016108b89291906132c4565b60405160208183030381529060405290505b806040516020016108db919061336f565b60408051808303601f19018152919052979650505050505050565b60007f01ffc9a7000000000000000000000000000000000000000000000000000000006001600160e01b03198316148061095957507f80ac58cd000000000000000000000000000000000000000000000000000000006001600160e01b03198316145b8061098d57507f5b5e139f000000000000000000000000000000000000000000000000000000006001600160e01b03198316145b92915050565b6060600380546109a290614139565b80601f01602080910402602001604051908101604052809291908181526020018280546109ce90614139565b8015610a1b5780601f106109f057610100808354040283529160200191610a1b565b820191906000526020600020905b8154815290600101906020018083116109fe57829003601f168201915b5050505050905090565b6000610a3082611df1565b610a66576040517fcf4700e400000000000000000000000000000000000000000000000000000000815260040160405180910390fd5b506000908152600760205260409020546001600160a01b031690565b6000610a8d826114f3565b9050336001600160a01b03821614610adf57610aa98133611bfe565b610adf576040517fcfb3b94200000000000000000000000000000000000000000000000000000000815260040160405180910390fd5b600082815260076020526040808220805473ffffffffffffffffffffffffffffffffffffffff19166001600160a01b0387811691821790925591518593918516917f8c5be1e5ebec7d5bd14f71427d1e84f3dd0314c0f7b2291e5b200ac8c7c3b92591a4505050565b6000610b5382611e19565b9050836001600160a01b0316816001600160a01b031614610ba0576040517fa114810000000000000000000000000000000000000000000000000000000000815260040160405180910390fd5b60008281526007602052604090208054338082146001600160a01b03881690911417610c0657610bd08633611bfe565b610c06576040517f59c896be00000000000000000000000000000000000000000000000000000000815260040160405180910390fd5b6001600160a01b038516610c46576040517fea553b3400000000000000000000000000000000000000000000000000000000815260040160405180910390fd5b8015610c5157600082555b6001600160a01b038681166000908152600660205260408082208054600019019055918716808252919020805460010190554260a01b17600160e11b17600085815260056020526040902055600160e11b8316610cdc5760018401600081815260056020526040902054610cda576001548114610cda5760008181526005602052604090208490555b505b83856001600160a01b0316876001600160a01b03167fddf252ad1be2c89b69c2b068fc378daa952ba7f163c4a11628f55a4df523b3ef60405160405180910390a45b505050505050565b6000610d3182611df1565b610da85760405162461bcd60e51b815260206004820152602d60248201527f437573746f6d546f6b656e2e617373657449644f66546f6b656e3a206e6f6e6560448201527f78697374656e7420746f6b656e0000000000000000000000000000000000000060648201526084015b60405180910390fd5b600c6000610db76004856140c3565b8152602001908152602001600020549050919050565b6000610dd860015490565b60408051808201909152600d81527f4472617720596f7572204f776e00000000000000000000000000000000000000602082015286529050610e1981611e93565b604051602001610e2991906139cf565b60408051601f1981840301815291815286810191909152517f5b7eea860000000000000000000000000000000000000000000000000000000081526000906001600160a01b037f00000000000000000000000000000000000000000000000000000000000000001690635b7eea8690610ea6908990600401613e93565b602060405180830381600087803b158015610ec057600080fd5b505af1158015610ed4573d6000803e3d6000fd5b505050506040513d601f19601f82011682018060405250810190610ef891906131f8565b905080600d6000610f0a6004866140c3565b81526020810191909152604001600020558351158015610f2957508251155b15610f6957610f398160026140d7565b610f449060016140ab565b600c6000610f536004866140c3565b815260208101919091526040016000205561142a565b600080600086511115610ff057600954341015610fc85760405162461bcd60e51b815260206004820152601f60248201527f4d7573742073656e64206174206c656173742063757272656e745072696365006044820152606401610d9f565b85516103e8610fd9346103cf6140d7565b610fe391906140c3565b610fed91906140c3565b90505b855185516000906110028360016140ab565b61100c91906140ab565b67ffffffffffffffff811115611024576110246141e5565b60405190808252806020026020018201604052801561108057816020015b61106d6040518060800160405280600081526020016060815260200160608152602001606081525090565b8152602001906001900390816110425790505b509050600093505b87518410156112625760008885815181106110a5576110a56141cf565b602002602001015190506110bd816000015185611fcd565b846110df5780516110cf9060016140ab565b6000888152600a60205260409020555b60006110ee8260000151610d26565b90506110fb60028261418f565b6111885761110a6002826140c3565b83878151811061111c5761111c6141cf565b602002602001015160000181815250506040518060400160405280600481526020017f636f6d7000000000000000000000000000000000000000000000000000000000815250838781518110611174576111746141cf565b602002602001015160200181905250611201565b60016111956002836140c3565b61119f91906140f6565b8387815181106111b1576111b16141cf565b6020026020010151600001818152505060405180604001604052806005815260200164185cdcd95d60da1b8152508387815181106111f1576111f16141cf565b6020026020010151602001819052505b8160200151838781518110611218576112186141cf565b602002602001015160400181905250816040015183878151811061123e5761123e6141cf565b6020026020010151606001819052505050838061125a90614174565b945050611088565b61126d6001866140f6565b81838151811061127f5761127f6141cf565b6020026020010151600001818152505060405180604001604052806005815260200164185cdcd95d60da1b8152508183815181106112bf576112bf6141cf565b602002602001015160200181905250600093505b865184101561133d578684815181106112ee576112ee6141cf565b6020026020010151818584600161130591906140ab565b61130f91906140ab565b8151811061131f5761131f6141cf565b6020026020010181905250838061133590614174565b9450506112d3565b6040517f434ebc550000000000000000000000000000000000000000000000000000000081526000906001600160a01b037f0000000000000000000000000000000000000000000000000000000000000000169063434ebc55906113a5908590600401613da6565b602060405180830381600087803b1580156113bf57600080fd5b505af11580156113d3573d6000803e3d6000fd5b505050506040513d601f19601f820116820180604052508101906113f791906131f8565b90506114048160026140d7565b600c600061141360048b6140c3565b815260208101919091526040016000205550505050505b61143f3361143a600160046140f6565b612044565b600085118015611453575061145385612154565b8015611470575033611464866114f3565b6001600160a01b031614155b1561148d57611488611481866114f3565b6001612044565b610d1e565b600461149981846140c3565b6114a3919061418f565b6114be57600f54611488906001600160a01b03166001612044565b610d1e6114816000546001600160a01b031690565b6114ee83838360405180602001604052806000815250611789565b505050565b600061098d82611e19565b60006001600160a01b038216611540576040517f8f4eb60400000000000000000000000000000000000000000000000000000000815260040160405180910390fd5b506001600160a01b031660009081526006602052604090205467ffffffffffffffff1690565b6000546001600160a01b031633146115c05760405162461bcd60e51b815260206004820181905260248201527f4f776e61626c653a2063616c6c6572206973206e6f7420746865206f776e65726044820152606401610d9f565b6115ca6000612168565b565b600e80546115d990614139565b80601f016020809104026020016040519081016040528092919081815260200182805461160590614139565b80156116525780601f1061162757610100808354040283529160200191611652565b820191906000526020600020905b81548152906001019060200180831161163557829003601f168201915b505050505081565b6000546001600160a01b031633146116b45760405162461bcd60e51b815260206004820181905260248201527f4f776e61626c653a2063616c6c6572206973206e6f7420746865206f776e65726044820152606401610d9f565b80516116c790600e9060208401906127ce565b5050565b6060600480546109a290614139565b6001600160a01b03821633141561171d576040517fb06307db00000000000000000000000000000000000000000000000000000000815260040160405180910390fd5b3360008181526008602090815260408083206001600160a01b03871680855290835292819020805460ff191686151590811790915590519081529192917f17307eab39ab6107e8899845ad3d59bd9653f200f220920489ca2b5937696c31910160405180910390a35050565b611794848484610b48565b6001600160a01b0383163b156117cd576117b0848484846121c5565b6117cd576040516368d2bf6b60e11b815260040160405180910390fd5b50505050565b60606117de82611df1565b6118505760405162461bcd60e51b815260206004820152602760248201527f437573746f6d546f6b656e2e746f6b656e5552493a206e6f6e6578697374656e60448201527f7420746f6b656e000000000000000000000000000000000000000000000000006064820152608401610d9f565b60008061185c846119b4565b909250905060006118788361187260048861418f565b8461069c565b90506000600d8161188a6004896140c3565b815260200190815260200160002054905060007f00000000000000000000000000000000000000000000000000000000000000006001600160a01b0316634378a6e3836040518263ffffffff1660e01b81526004016118eb91815260200190565b60006040518083038186803b15801561190357600080fd5b505afa158015611917573d6000803e3d6000fd5b505050506040513d6000823e601f3d908101601f1916820160405261193f9190810190612f0c565b905061198961194d88611e93565b600e6119598a856122bc565b61196287612588565b6040516020016119759493929190613a14565b604051602081830303815290604052612588565b6040516020016119999190613bdb565b60405160208183030381529060405295505050505050919050565b60608060006119c284610d26565b90506119cf60028261418f565b611a89576001600160a01b037f00000000000000000000000000000000000000000000000000000000000000001663e3f24f02611a0d6002846140c3565b6040518263ffffffff1660e01b8152600401611a2b91815260200190565b60006040518083038186803b158015611a4357600080fd5b505afa158015611a57573d6000803e3d6000fd5b505050506040513d6000823e601f3d908101601f19168201604052611a7f9190810190612e3b565b9250925050915091565b60006001600160a01b037f000000000000000000000000000000000000000000000000000000000000000016634378a6e3611ac56002856140c3565b6040518263ffffffff1660e01b8152600401611ae391815260200190565b60006040518083038186803b158015611afb57600080fd5b505afa158015611b0f573d6000803e3d6000fd5b505050506040513d6000823e601f3d908101601f19168201604052611b379190810190612f0c565b905060006001600160a01b037f0000000000000000000000000000000000000000000000000000000000000000166334320bf1611b756002866140c3565b84606001516040518363ffffffff1660e01b8152600401611b97929190613f5f565b60006040518083038186803b158015611baf57600080fd5b505afa158015611bc3573d6000803e3d6000fd5b505050506040513d6000823e601f3d908101601f19168201604052611beb9190810190612dd1565b6060909201519196919550909350505050565b6040517fc45527910000000000000000000000000000000000000000000000000000000081526001600160a01b038381166004830152600091818416917f0000000000000000000000000000000000000000000000000000000000000000169063c45527919060240160206040518083038186803b158015611c7f57600080fd5b505afa158015611c93573d6000803e3d6000fd5b505050506040513d601f19601f82011682018060405250810190611cb79190612c35565b6001600160a01b03161415611cce5750600161098d565b6001600160a01b0380841660009081526008602090815260408083209386168352929052205460ff165b9392505050565b6000611d0a60015490565b905090565b6000546001600160a01b03163314611d695760405162461bcd60e51b815260206004820181905260248201527f4f776e61626c653a2063616c6c6572206973206e6f7420746865206f776e65726044820152606401610d9f565b6001600160a01b038116611de55760405162461bcd60e51b815260206004820152602660248201527f4f776e61626c653a206e6577206f776e657220697320746865207a65726f206160448201527f64647265737300000000000000000000000000000000000000000000000000006064820152608401610d9f565b611dee81612168565b50565b60006001548210801561098d575050600090815260056020526040902054600160e01b161590565b600081600154811015611e6157600081815260056020526040902054600160e01b8116611e5f575b80611cf8575060001901600081815260056020526040902054611e41565b505b6040517fdf2d9b4200000000000000000000000000000000000000000000000000000000815260040160405180910390fd5b606081611ed357505060408051808201909152600181527f3000000000000000000000000000000000000000000000000000000000000000602082015290565b8160005b8115611efd5780611ee781614174565b9150611ef69050600a836140c3565b9150611ed7565b60008167ffffffffffffffff811115611f1857611f186141e5565b6040519080825280601f01601f191660200182016040528015611f42576020820181803683370190505b5090505b8415611fc557611f576001836140f6565b9150611f64600a8661418f565b611f6f9060306140ab565b60f81b818381518110611f8457611f846141cf565b60200101907effffffffffffffffffffffffffffffffffffffffffffffffffffffffffffff1916908160001a905350611fbe600a866140c3565b9450611f46565b949350505050565b6000611fd8836114f3565b6000848152600a602052604090205490915080156120395760006064611fff8560146140d7565b61200991906140c3565b9050612016838683612725565b6120336120246001846140f6565b61202e83876140f6565b611fcd565b506117cd565b6117cd828585612725565b6001546001600160a01b038316612087576040517f2e07630000000000000000000000000000000000000000000000000000000000815260040160405180910390fd5b816120be576040517fb562e8dd00000000000000000000000000000000000000000000000000000000815260040160405180910390fd5b6001600160a01b038316600081815260066020526040902080546801000000000000000185020190554260a01b6001841460e11b1717600082815260056020526040902055808281015b6040516001830192906001600160a01b038716906000907fddf252ad1be2c89b69c2b068fc378daa952ba7f163c4a11628f55a4df523b3ef908290a48082106121085760015550505050565b600061216160048361418f565b1592915050565b600080546001600160a01b0383811673ffffffffffffffffffffffffffffffffffffffff19831681178455604051919092169283917f8be0079c531659141344cd1fd0a4f28419497f9722a3daafe3b4186f6b6457e09190a35050565b604051630a85bd0160e11b81526000906001600160a01b0385169063150b7a02906121fa903390899088908890600401613d6a565b602060405180830381600087803b15801561221457600080fd5b505af1925050508015612244575060408051601f3d908101601f1916820190925261224191810190612db4565b60015b61229f573d808015612272576040519150601f19603f3d011682016040523d82523d6000602084013e612277565b606091505b508051612297576040516368d2bf6b60e11b815260040160405180910390fd5b805181602001fd5b6001600160e01b031916630a85bd0160e11b149050949350505050565b606060006122c984612154565b612308576040518060400160405280600281526020017f4e6f00000000000000000000000000000000000000000000000000000000000081525061233f565b6040518060400160405280600381526020017f59657300000000000000000000000000000000000000000000000000000000008152505b8351602080860151604080880151905161235b95949301613c20565b6040516020818303038152906040529050806000846080015151116123b5576040518060400160405280600b81526020017f28616e6f6e796d6f7573290000000000000000000000000000000000000000008152506124c9565b7f00000000000000000000000000000000000000000000000000000000000000006001600160a01b031663a57cfb246040518163ffffffff1660e01b815260040160206040518083038186803b15801561240e57600080fd5b505afa158015612422573d6000803e3d6000fd5b505050506040513d601f19601f820116820180604052508101906124469190612c35565b6001600160a01b031663841b9d9785608001516040518263ffffffff1660e01b81526004016124759190613e52565b60006040518083038186803b15801561248d57600080fd5b505afa1580156124a1573d6000803e3d6000fd5b505050506040513d6000823e601f3d908101601f191682016040526124c99190810190612dd1565b6000868152600a6020526040902054612517576040518060400160405280600681526020017f286e6f6e6529000000000000000000000000000000000000000000000000000081525061253b565b6000868152600a602052604090205461253b90612536906001906140f6565b611e93565b6000878152600b602052604090205461255d9061253690633b9aca00906140c3565b6040516020016125709493929190613664565b60408051808303601f19018152919052949350505050565b60608151600014156125a857505060408051602081019091526000815290565b600060405180606001604052806040815260200161422760409139905060006003845160026125d791906140ab565b6125e191906140c3565b6125ec9060046140d7565b905060006125fb8260206140ab565b67ffffffffffffffff811115612613576126136141e5565b6040519080825280601f01601f19166020018201604052801561263d576020820181803683370190505b509050818152600183018586518101602084015b818310156126a9576003830192508251603f8160121c168501518253600182019150603f81600c1c168501518253600182019150603f8160061c168501518253600182019150603f8116850151825350600101612651565b6003895106600181146126c357600281146126ef57612717565b7f3d3d000000000000000000000000000000000000000000000000000000000000600119830152612717565b7f3d000000000000000000000000000000000000000000000000000000000000006000198301525b509398975050505050505050565b6040516001600160a01b0384169082156108fc029083906000818181858888f1935050505015801561275b573d6000803e3d6000fd5b506000828152600b60205260408120805483929061277a9084906140ab565b9091555050604080516001600160a01b0385168152602081018490529081018290527f926f9f343b04c4673ce4d7e75309d190dc94a23444eb88083be638c7e85d43259060600160405180910390a1505050565b8280546127da90614139565b90600052602060002090601f0160209004810192826127fc5760008555612842565b82601f1061281557805160ff1916838001178555612842565b82800160010185558215612842579182015b82811115612842578251825591602001919060010190612827565b5061284e929150612852565b5090565b5b8082111561284e5760008155600101612853565b8035612872816141fb565b919050565b8051612872816141fb565b600082601f83011261289357600080fd5b813560206128a86128a38361405f565b61402e565b80838252828201915082860187848660051b89010111156128c857600080fd5b60005b8581101561299957813567ffffffffffffffff808211156128eb57600080fd5b908901906080828c03601f190181131561290457600080fd5b61290c613f78565b8884013581526040808501358481111561292557600080fd5b6129338f8c83890101612b70565b8b8401525060608501358481111561294a57600080fd5b6129588f8c83890101612b70565b8284015250508184013591508282111561297157600080fd5b61297f8d8a84870101612b70565b6060820152875250505092840192908401906001016128cb565b5090979650505050505050565b600082601f8301126129b757600080fd5b813560206129c76128a38361405f565b80838252828201915082860187848660051b89010111156129e757600080fd5b60005b8581101561299957813567ffffffffffffffff80821115612a0a57600080fd5b908901906040828c03601f1901811315612a2357600080fd5b612a2b613fa1565b8884013583811115612a3c57600080fd5b612a4a8e8b83880101612b70565b825250908301359082821115612a5f57600080fd5b612a6d8d8a84870101612b70565b818a0152875250505092840192908401906001016129ea565b600082601f830112612a9757600080fd5b81356020612aa76128a38361405f565b80838252828201915082860187848660051b8901011115612ac757600080fd5b60005b8581101561299957813567ffffffffffffffff80821115612aea57600080fd5b908901906060828c03601f1901811315612b0357600080fd5b612b0b613fc4565b88840135815260408085013584811115612b2457600080fd5b612b328f8c83890101612b70565b838c015250918401359183831115612b4957600080fd5b612b578e8b85880101612b70565b9082015287525050509284019290840190600101612aca565b600082601f830112612b8157600080fd5b8135612b8f6128a382614083565b818152846020838601011115612ba457600080fd5b816020850160208301376000918101602001919091529392505050565b600082601f830112612bd257600080fd5b8151612be06128a382614083565b818152846020838601011115612bf557600080fd5b611fc582602083016020870161410d565b805161ffff8116811461287257600080fd5b600060208284031215612c2a57600080fd5b8135611cf8816141fb565b600060208284031215612c4757600080fd5b8151611cf8816141fb565b60008060408385031215612c6557600080fd5b8235612c70816141fb565b91506020830135612c80816141fb565b809150509250929050565b600080600060608486031215612ca057600080fd5b8335612cab816141fb565b92506020840135612cbb816141fb565b929592945050506040919091013590565b60008060008060808587031215612ce257600080fd5b8435612ced816141fb565b93506020850135612cfd816141fb565b925060408501359150606085013567ffffffffffffffff811115612d2057600080fd5b612d2c87828801612b70565b91505092959194509250565b60008060408385031215612d4b57600080fd5b8235612d56816141fb565b915060208301358015158114612c8057600080fd5b60008060408385031215612d7e57600080fd5b8235612d89816141fb565b946020939093013593505050565b600060208284031215612da957600080fd5b8135611cf881614210565b600060208284031215612dc657600080fd5b8151611cf881614210565b600060208284031215612de357600080fd5b815167ffffffffffffffff811115612dfa57600080fd5b611fc584828501612bc1565b600060208284031215612e1857600080fd5b813567ffffffffffffffff811115612e2f57600080fd5b611fc584828501612b70565b60008060408385031215612e4e57600080fd5b825167ffffffffffffffff80821115612e6657600080fd5b612e7286838701612bc1565b93506020850151915080821115612e8857600080fd5b50612e9585828601612bc1565b9150509250929050565b600080600060608486031215612eb457600080fd5b833567ffffffffffffffff80821115612ecc57600080fd5b612ed887838801612b70565b9450602086013593506040860135915080821115612ef557600080fd5b50612f0286828701612b70565b9150509250925092565b600060208284031215612f1e57600080fd5b815167ffffffffffffffff80821115612f3657600080fd5b908301906101208286031215612f4b57600080fd5b612f53613fe7565b825182811115612f6257600080fd5b612f6e87828601612bc1565b825250602083015182811115612f8357600080fd5b612f8f87828601612bc1565b602083015250604083015182811115612fa757600080fd5b612fb387828601612bc1565b604083015250606083015182811115612fcb57600080fd5b612fd787828601612bc1565b606083015250608083015182811115612fef57600080fd5b612ffb87828601612bc1565b60808301525061300d60a08401612877565b60a082015260c08301518281111561302457600080fd5b61303087828601612bc1565b60c08301525061304260e08401612c06565b60e08201526101009150613057828401612c06565b91810191909152949350505050565b6000806000806080858703121561307c57600080fd5b843567ffffffffffffffff8082111561309457600080fd5b9086019060e082890312156130a857600080fd5b6130b061400b565b8235828111156130bf57600080fd5b6130cb8a828601612b70565b8252506020830135828111156130e057600080fd5b6130ec8a828601612b70565b60208301525060408301358281111561310457600080fd5b6131108a828601612b70565b60408301525060608301358281111561312857600080fd5b6131348a828601612b70565b60608301525061314660808401612867565b608082015260a08301358281111561315d57600080fd5b6131698a828601612b70565b60a08301525060c08301358281111561318157600080fd5b61318d8a8286016129a6565b60c08301525095506020870135945060408701359150808211156131b057600080fd5b6131bc88838901612a86565b935060608701359150808211156131d257600080fd5b50612d2c87828801612882565b6000602082840312156131f157600080fd5b5035919050565b60006020828403121561320a57600080fd5b5051919050565b6000815180845260208085019450848260051b860182860160005b8581101561299957838303895281516040815181865261324e8287018261327c565b91505086820151915084810387860152613268818361327c565b9a87019a945050509084019060010161322c565b6000815180845261329481602086016020860161410d565b601f01601f19169290920160200192915050565b600081516132ba81856020860161410d565b9290920192915050565b600083516132d681846020880161410d565b7f203c75736520687265663d222300000000000000000000000000000000000000908301908152835161331081600d84016020880161410d565b641110179f0560d91b600d9290910191820152601201949350505050565b6000825161334081846020870161410d565b7f3c2f646566733e0a000000000000000000000000000000000000000000000000920191825250600801919050565b6000825161338181846020870161410d565b7f3c2f7376673e0a00000000000000000000000000000000000000000000000000920191825250600701919050565b600082516133c281846020870161410d565b7f3c6c696e6561724772616469656e742069643d22676f6c64222078313d22302e9201918252507f32222078323d2230222079313d2230222079323d2231223e0a20203c73746f7060208201527f206f66667365743d223025222073746f702d636f6c6f723d222343434142303960408201527f222f3e0a203c73746f70206f66667365743d22353025222073746f702d636f6c60608201527f6f723d222346464631383622202f3e0a203c73746f70206f66667365743d223160808201527f303025222073746f702d636f6c6f723d2223434341423039222f3e0a3c2f6c6960a08201527f6e6561724772616469656e743e0a00000000000000000000000000000000000060c082015260ce01919050565b600082516134e781846020870161410d565b7f3c6c696e6561724772616469656e742069643d2273696c766572222078313d229201918252507f302e32222078323d2230222079313d2230222079323d2231223e0a20203c737460208201527f6f70206f66667365743d223025222073746f702d636f6c6f723d22233830383060408201527f3746222f3e0a203c73746f70206f66667365743d22353025222073746f702d6360608201527f6f6c6f723d222345454630463222202f3e0a203c73746f70206f66667365743d60808201527f2231303025222073746f702d636f6c6f723d2223383038303746222f3e0a3c2f60a08201527f6c696e6561724772616469656e743e0a0000000000000000000000000000000060c082015260d001919050565b6000835161360c81846020880161410d565b7f203c7573652066696c7465723d2275726c28236631292220687265663d222300908301908152835161364681601f84016020880161410d565b641110179f0560d91b601f9290910191820152602401949350505050565b60008551613676818460208a0161410d565b80830190507f7d2c7b2274726169745f74797065223a224d696e746572222c2276616c7565228152611d1160f11b80602083015286516136bd816022850160208b0161410d565b7f227d2c7b2274726169745f74797065223a2252656d6978222c2276616c756522602293909101928301526042820152845161370081604484016020890161410d565b7f227d2c7b2274726169745f74797065223a224561726e6564222c2276616c7565604492909101918201527f223a2200000000000000000000000000000000000000000000000000000000006064820152835161376481606784016020880161410d565b7f47776569227d000000000000000000000000000000000000000000000000000060679290910191820152606d019695505050505050565b600083516137ae81846020880161410d565b80830190507f203c7265637420783d22302220793d2230222077696474683d2231303025222081527f6865696768743d2231303025222066696c6c3d220000000000000000000000006020820152835161380f81603484016020880161410d565b641110179f0560d91b60349290910191820152603901949350505050565b6000825161383f81846020870161410d565b7f203c66696c7465722069643d2266312220783d22302220793d223022207769649201918252507f74683d223230302522206865696768743d2232303025223e0a20203c66654f6660208201527f6673657420726573756c743d226f66664f75742220696e3d22536f757263654160408201527f6c706861222064783d223234222064793d22333222202f3e0a20203c6665476160608201527f75737369616e426c757220726573756c743d22626c75724f75742220696e3d2260808201527f6f66664f75742220737464446576696174696f6e3d22313622202f3e0a20203c60a08201527f6665426c656e6420696e3d22536f75726365477261706869632220696e323d2260c08201527f626c75724f757422206d6f64653d226e6f726d616c22202f3e0a203c2f66696c60e08201527f7465723e0a00000000000000000000000000000000000000000000000000000061010082015261010501919050565b600083516139b281846020880161410d565b8351908301906139c681836020880161410d565b01949350505050565b7f44726177696e6720000000000000000000000000000000000000000000000000815260008251613a0781600885016020870161410d565b9190910160080192915050565b7f7b226e616d65223a2244726177696e67200000000000000000000000000000008152600085516020613a4d8260118601838b0161410d565b7f222c226465736372697074696f6e223a220000000000000000000000000000006011928501928301528654602290600090600181811c9080831680613a9457607f831692505b868310811415613ab157634e487b7160e01b855285600452602485fd5b808015613ac55760018114613ada57613b0b565b60ff1985168988015283890187019550613b0b565b60008e81526020902060005b85811015613b015781548b82018a0152908401908901613ae6565b505086848a010195505b5050505050613bcd613ba4613b9e613b4f613b49857f222c2261747472696275746573223a5b00000000000000000000000000000000815260100190565b8c6132a8565b7f5d2c22696d616765223a22646174613a696d6167652f7376672b786d6c3b626181527f736536342c000000000000000000000000000000000000000000000000000000602082015260250190565b896132a8565b7f227d000000000000000000000000000000000000000000000000000000000000815260020190565b9a9950505050505050505050565b7f646174613a6170706c69636174696f6e2f6a736f6e3b6261736536342c000000815260008251613c1381601d85016020870161410d565b91909101601d0192915050565b7f7b2274726169745f74797065223a225072696d617279222c2276616c7565223a81526000601160f91b8060208401528651613c63816021860160208b0161410d565b7f227d2c7b2274726169745f74797065223a2247726f7570222c2276616c756522602191850191820152611d1160f11b60418201528651613cab816043840160208b0161410d565b7f227d2c7b2274726169745f74797065223a2243617465676f7279222c2276616c604392909101918201527f7565223a2200000000000000000000000000000000000000000000000000000060638201528551613d0f816068840160208a0161410d565b8082019150507f227d2c7b2274726169745f74797065223a224e616d65222c2276616c7565223a6068820152816088820152613d5e613d5160898301876132a8565b601160f91b815260010190565b98975050505050505050565b60006001600160a01b03808716835280861660208401525083604083015260806060830152613d9c608083018461327c565b9695505050505050565b60006020808301818452808551808352604092508286019150828160051b87010184880160005b83811015613e4457603f19898403018552815160808151855288820151818a870152613dfb8287018261327c565b9150508782015185820389870152613e13828261327c565b91505060608083015192508582038187015250613e30818361327c565b968901969450505090860190600101613dcd565b509098975050505050505050565b602081526000611cf8602083018461327c565b604081526000613e78604083018561327c565b8281036020840152613e8a818561327c565b95945050505050565b602081526000825160e06020840152613eb061010084018261327c565b90506020840151601f1980858403016040860152613ece838361327c565b92506040860151915080858403016060860152613eeb838361327c565b92506060860151915080858403016080860152613f08838361327c565b925060808601519150613f2660a08601836001600160a01b03169052565b60a08601519150808584030160c0860152613f41838361327c565b925060c08601519150808584030160e086015250613e8a8282613211565b828152604060208201526000611fc5604083018461327c565b6040516080810167ffffffffffffffff81118282101715613f9b57613f9b6141e5565b60405290565b6040805190810167ffffffffffffffff81118282101715613f9b57613f9b6141e5565b6040516060810167ffffffffffffffff81118282101715613f9b57613f9b6141e5565b604051610120810167ffffffffffffffff81118282101715613f9b57613f9b6141e5565b60405160e0810167ffffffffffffffff81118282101715613f9b57613f9b6141e5565b604051601f8201601f1916810167ffffffffffffffff81118282101715614057576140576141e5565b604052919050565b600067ffffffffffffffff821115614079576140796141e5565b5060051b60200190565b600067ffffffffffffffff82111561409d5761409d6141e5565b50601f01601f191660200190565b600082198211156140be576140be6141a3565b500190565b6000826140d2576140d26141b9565b500490565b60008160001904831182151516156140f1576140f16141a3565b500290565b600082821015614108576141086141a3565b500390565b60005b83811015614128578181015183820152602001614110565b838111156117cd5750506000910152565b600181811c9082168061414d57607f821691505b6020821081141561416e57634e487b7160e01b600052602260045260246000fd5b50919050565b6000600019821415614188576141886141a3565b5060010190565b60008261419e5761419e6141b9565b500690565b634e487b7160e01b600052601160045260246000fd5b634e487b7160e01b600052601260045260246000fd5b634e487b7160e01b600052603260045260246000fd5b634e487b7160e01b600052604160045260246000fd5b6001600160a01b0381168114611dee57600080fd5b6001600160e01b031981168114611dee57600080fdfe4142434445464748494a4b4c4d4e4f505152535455565758595a6162636465666768696a6b6c6d6e6f707172737475767778797a303132333435363738392b2f3c7376672076696577426f783d2230203020313032342031303234222020786d6c6e733d22687474703a2f2f7777772e77332e6f72672f323030302f737667223e0a3c646566733e0aa2646970667358221220ec869e39fb329ea17eb96307939e15fa4a48f32f22324009e6aa1c40225e676664736f6c6343000806003360a06040523480156200001157600080fd5b506040516200213e3803806200213e8339810160408190526200003491620000ce565b606081901b6001600160601b0319166080528062000052336200007c565b5050600354600480546001600160a01b0319166001600160a01b0390921691909117905562000100565b600380546001600160a01b038381166001600160a01b0319831681179093556040519116919082907f8be0079c531659141344cd1fd0a4f28419497f9722a3daafe3b4186f6b6457e090600090a35050565b600060208284031215620000e157600080fd5b81516001600160a01b0381168114620000f957600080fd5b9392505050565b60805160601c61201862000126600039600081816101cc01526108d501526120186000f3fe608060405234801561001057600080fd5b50600436106101365760003560e01c8063715018a6116100b25780638da5cb5b11610081578063ea575c6111610066578063ea575c6114610308578063f2fde38b14610311578063f851a4401461032457600080fd5b80638da5cb5b146102d6578063e3f24f02146102e757600080fd5b8063715018a61461023957806374c8326814610241578063893d20e8146102495780638c40188e1461025157600080fd5b8063434ebc5511610109578063597a0e36116100ee578063597a0e36146101c75780635c42d07914610206578063704b6c021461022657600080fd5b8063434ebc55146101a15780634854078f146101b457600080fd5b806301ffc9a71461013b5780630e2600161461016357806315ea29be1461018457806318160ddd14610199575b600080fd5b61014e610149366004611851565b610337565b60405190151581526020015b60405180910390f35b6101766101713660046116aa565b610408565b60405190815260200161015a565b6101976101923660046119eb565b61081b565b005b600654610176565b6101766101af3660046116e4565b6108d0565b6101766101c236600461187b565b610c7f565b6101ee7f000000000000000000000000000000000000000000000000000000000000000081565b6040516001600160a01b03909116815260200161015a565b6102196102143660046119d2565b610cf8565b60405161015a9190611d9e565b6101976102343660046116aa565b610db6565b610197610e3f565b600054610176565b6101ee610ea5565b61021960408051606080820183528082526020820152600091810191909152506040805160a081018252600460608201908152630636f6d760e41b6080830152815281518083018352600e81527f417373657420436f6d706f736572000000000000000000000000000000000000602082810191909152820152309181019190915290565b6003546001600160a01b03166101ee565b6102fa6102f53660046119d2565b610ebe565b60405161015a929190611d70565b61017660065481565b61019761031f3660046116aa565b6112fb565b6004546101ee906001600160a01b031681565b60006001600160e01b031982167f6ef8e58800000000000000000000000000000000000000000000000000000000148061039a57506001600160e01b031982167fa0bcf35700000000000000000000000000000000000000000000000000000000145b806103ce57506001600160e01b031982167ffe997ab900000000000000000000000000000000000000000000000000000000145b8061040257506001600160e01b031982167f01ffc9a700000000000000000000000000000000000000000000000000000000145b92915050565b600080826001600160a01b0316638c40188e6040518163ffffffff1660e01b815260040160006040518083038186803b15801561044457600080fd5b505afa158015610458573d6000803e3d6000fd5b505050506040513d6000823e601f3d908101601f191682016040526104809190810190611914565b9050600181600001516040516104969190611caa565b9081526020016040518091039020549150816000146106cc57816104b981611eec565b6000818152600260209081526040918290205482517f893d20e800000000000000000000000000000000000000000000000000000000815292519396506001600160a01b03169350839263893d20e8926004808201939291829003018186803b15801561052557600080fd5b505afa158015610539573d6000803e3d6000fd5b505050506040513d601f19601f8201168201806040525081019061055d91906116c7565b6001600160a01b0316846001600160a01b031663893d20e86040518163ffffffff1660e01b815260040160206040518083038186803b15801561059f57600080fd5b505afa1580156105b3573d6000803e3d6000fd5b505050506040513d601f19601f820116820180604052508101906105d791906116c7565b6001600160a01b0316146106585760405162461bcd60e51b815260206004820152603260248201527f4173736574436f6d706f7365723a726567697374657250726f76696465722c2060448201527f616c72656164792072656769737465726564000000000000000000000000000060648201526084015b60405180910390fd5b600083815260026020908152604091829020805473ffffffffffffffffffffffffffffffffffffffff19166001600160a01b03881617905581513381529081018590527f4141f33bf490d9190a43ac8dc2fd923fdd3a01d78b82d1fa85f803a91f4bf4ae910160405180910390a150610815565b80604001516001600160a01b0316836001600160a01b0316146107575760405162461bcd60e51b815260206004820152603060248201527f4173736574436f6d706f7365723a726567697374657250726f76696465722c2060448201527f61646472657373206d69736d6174636800000000000000000000000000000000606482015260840161064f565b600080548491600291818061076b83611f38565b91905055815260200190815260200160002060006101000a8154816001600160a01b0302191690836001600160a01b03160217905550600054600182600001516040516107b89190611caa565b908152604051908190036020019020556000546107d790600190611ea5565b60408051338152602081018390529193507f90c9734131c1e4fb36cde2d71e6feb93fb258f71be8a85411c173d25e1516e8091015b60405180910390a15b50919050565b6003546001600160a01b031633148061083e57506004546001600160a01b031633145b6108b05760405162461bcd60e51b815260206004820152602660248201527f4173736574436f6d706f7365723a2063616c6c6572206973206e6f742074686560448201527f2061646d696e0000000000000000000000000000000000000000000000000000606482015260840161064f565b600091825260056020526040909120805460ff1916911515919091179055565b6000807f00000000000000000000000000000000000000000000000000000000000000006001600160a01b031663a57cfb246040518163ffffffff1660e01b815260040160206040518083038186803b15801561092c57600080fd5b505afa158015610940573d6000803e3d6000fd5b505050506040513d601f19601f8201168201806040525081019061096491906116c7565b60068054919250600061097683611f38565b9091555083516000828152600760205260408120919091559092505b8351811015610c485760008482815181106109af576109af611f93565b6020026020010151905060008160000151905060006109d18360200151610c7f565b6040805180820182526fffffffffffffffffffffffffffffffff8084168252858116602080840191825260008c8152600882528581208b825290915293909320915192518116700100000000000000000000000000000000029216919091179055606084015180519192509015610b335760405163c16e50ef60e01b81526001600160a01b0387169063c16e50ef90610a6e908490600401611d5d565b60206040518083038186803b158015610a8657600080fd5b505afa158015610a9a573d6000803e3d6000fd5b505050506040513d601f19601f82011682018060405250810190610abe9190611834565b610b0a5760405162461bcd60e51b815260206004820152601b60248201527f72656769737465723a20496e76616c6964207472616e73666f726d0000000000604482015260640161064f565b600087815260096020908152604080832088845282529091208251610b3192840190611576565b505b6040840151805115610c305760405163c16e50ef60e01b81526001600160a01b0388169063c16e50ef90610b6b908490600401611d5d565b60206040518083038186803b158015610b8357600080fd5b505afa158015610b97573d6000803e3d6000fd5b505050506040513d601f19601f82011682018060405250810190610bbb9190611834565b610c075760405162461bcd60e51b815260206004820152601660248201527f72656769737465723a20496e76616c69642066696c6c00000000000000000000604482015260640161064f565b6000888152600a6020908152604080832089845282529091208251610c2e92840190611576565b505b50505050508080610c4090611f38565b915050610992565b5060408051338152602081018490527fb6b49fb493aab716d37ffe3ad9f192adb9d7c116b0ca7423db8d0e56a1dc93b2910161080c565b600080600183604051610c929190611caa565b90815260200160405180910390205490506000811183604051602001610cb89190611cc6565b60405160208183030381529060405290610ce55760405162461bcd60e51b815260040161064f9190611d5d565b50610cf1600182611ea5565b9392505050565b604080516060808201835280825260208201526000918101919091526000828152600260205260408082205481517f8c40188e00000000000000000000000000000000000000000000000000000000815291516001600160a01b03909116928392638c40188e9260048083019392829003018186803b158015610d7a57600080fd5b505afa158015610d8e573d6000803e3d6000fd5b505050506040513d6000823e601f3d908101601f19168201604052610cf19190810190611914565b6003546001600160a01b03163314610e105760405162461bcd60e51b815260206004820181905260248201527f4f776e61626c653a2063616c6c6572206973206e6f7420746865206f776e6572604482015260640161064f565b6004805473ffffffffffffffffffffffffffffffffffffffff19166001600160a01b0392909216919091179055565b6003546001600160a01b03163314610e995760405162461bcd60e51b815260206004820181905260248201527f4f776e61626c653a2063616c6c6572206973206e6f7420746865206f776e6572604482015260640161064f565b610ea360006113dd565b565b6000610eb96003546001600160a01b031690565b905090565b6000818152600560205260409020546060908190839060ff16151560011415610f4f5760405162461bcd60e51b815260206004820152602a60248201527f4173736574436f6d706f7365723a207468697320636f6d706f736974696f6e2060448201527f697320646961626c656400000000000000000000000000000000000000000000606482015260840161064f565b600084815260076020526040812054906060908190819081905b8581101561129d5760008a815260086020908152604080832084845282528083208151808301909252546fffffffffffffffffffffffffffffffff80821680845270010000000000000000000000000000000090920416928201929092529190610fd290610cf8565b905080604001516001600160a01b031663e3f24f0283602001516fffffffffffffffffffffffffffffffff166040518263ffffffff1660e01b815260040161101c91815260200190565b60006040518083038186803b15801561103457600080fd5b505afa158015611048573d6000803e3d6000fd5b505050506040513d6000823e601f3d908101601f1916820160405261107091908101906118b0565b60405191965094506110889088908790602001611a47565b604051602081830303815290604052965085846040516020016110ac929190611a76565b60408051601f1981840301815291815260008e8152600960209081528282208783529052908120805492985090916110e390611f03565b80601f016020809104026020016040519081016040528092919081815260200182805461110f90611f03565b801561115c5780601f106111315761010080835404028352916020019161115c565b820191906000526020600020905b81548152906001019060200180831161113f57829003601f168201915b50505050509050600081511115611192578681604051602001611180929190611c44565b60405160208183030381529060405296505b60008d8152600a60209081526040808320878452909152902080546111b690611f03565b80601f01602080910402602001604051908101604052809291908181526020018280546111e290611f03565b801561122f5780601f106112045761010080835404028352916020019161122f565b820191906000526020600020905b81548152906001019060200180831161121257829003601f168201915b50505050509050600081511115611265578681604051602001611253929190611b1d565b60405160208183030381529060405296505b866040516020016112769190611adc565b6040516020818303038152906040529650505050808061129590611f38565b915050610f69565b506112a78961143c565b6040516020016112b79190611d31565b60405160208183030381529060405290508381846040516020016112dd93929190611b83565b60408051601f19818403018152919052975095505050505050915091565b6003546001600160a01b031633146113555760405162461bcd60e51b815260206004820181905260248201527f4f776e61626c653a2063616c6c6572206973206e6f7420746865206f776e6572604482015260640161064f565b6001600160a01b0381166113d15760405162461bcd60e51b815260206004820152602660248201527f4f776e61626c653a206e6577206f776e657220697320746865207a65726f206160448201527f6464726573730000000000000000000000000000000000000000000000000000606482015260840161064f565b6113da816113dd565b50565b600380546001600160a01b0383811673ffffffffffffffffffffffffffffffffffffffff19831681179093556040519116919082907f8be0079c531659141344cd1fd0a4f28419497f9722a3daafe3b4186f6b6457e090600090a35050565b60608161147c57505060408051808201909152600181527f3000000000000000000000000000000000000000000000000000000000000000602082015290565b8160005b81156114a6578061149081611f38565b915061149f9050600a83611e91565b9150611480565b60008167ffffffffffffffff8111156114c1576114c1611fa9565b6040519080825280601f01601f1916602001820160405280156114eb576020820181803683370190505b5090505b841561156e57611500600183611ea5565b915061150d600a86611f53565b611518906030611e79565b60f81b81838151811061152d5761152d611f93565b60200101907effffffffffffffffffffffffffffffffffffffffffffffffffffffffffffff1916908160001a905350611567600a86611e91565b94506114ef565b949350505050565b82805461158290611f03565b90600052602060002090601f0160209004810192826115a457600085556115ea565b82601f106115bd57805160ff19168380011785556115ea565b828001600101855582156115ea579182015b828111156115ea5782518255916020019190600101906115cf565b506115f69291506115fa565b5090565b5b808211156115f657600081556001016115fb565b600082601f83011261162057600080fd5b813561163361162e82611e51565b611e20565b81815284602083860101111561164857600080fd5b816020850160208301376000918101602001919091529392505050565b600082601f83011261167657600080fd5b815161168461162e82611e51565b81815284602083860101111561169957600080fd5b61156e826020830160208701611ebc565b6000602082840312156116bc57600080fd5b8135610cf181611fbf565b6000602082840312156116d957600080fd5b8151610cf181611fbf565b600060208083850312156116f757600080fd5b823567ffffffffffffffff8082111561170f57600080fd5b818501915085601f83011261172357600080fd5b81358181111561173557611735611fa9565b8060051b611744858201611e20565b8281528581019085870183870188018b101561175f57600080fd5b600093505b848410156118265780358681111561177b57600080fd5b87016080818d03601f1901121561179157600080fd5b611799611df7565b898201358152604080830135898111156117b257600080fd5b6117c08f8d8387010161160f565b8c840152506060830135898111156117d757600080fd5b6117e58f8d8387010161160f565b8284015250506080820135888111156117fd57600080fd5b61180b8e8c8386010161160f565b60608301525084525060019390930192918701918701611764565b509998505050505050505050565b60006020828403121561184657600080fd5b8151610cf181611fd4565b60006020828403121561186357600080fd5b81356001600160e01b031981168114610cf157600080fd5b60006020828403121561188d57600080fd5b813567ffffffffffffffff8111156118a457600080fd5b61156e8482850161160f565b600080604083850312156118c357600080fd5b825167ffffffffffffffff808211156118db57600080fd5b6118e786838701611665565b935060208501519150808211156118fd57600080fd5b5061190a85828601611665565b9150509250929050565b60006020828403121561192657600080fd5b815167ffffffffffffffff8082111561193e57600080fd5b908301906060828603121561195257600080fd5b60405160608101818110838211171561196d5761196d611fa9565b60405282518281111561197f57600080fd5b61198b87828601611665565b8252506020830151828111156119a057600080fd5b6119ac87828601611665565b602083015250604083015192506119c283611fbf565b6040810192909252509392505050565b6000602082840312156119e457600080fd5b5035919050565b600080604083850312156119fe57600080fd5b823591506020830135611a1081611fd4565b809150509250929050565b60008151808452611a33816020860160208601611ebc565b601f01601f19169290920160200192915050565b60008351611a59818460208801611ebc565b835190830190611a6d818360208801611ebc565b01949350505050565b60008351611a88818460208801611ebc565b7f203c75736520687265663d2223000000000000000000000000000000000000009083019081528351611ac281600d840160208801611ebc565b601160f91b600d9290910191820152600e01949350505050565b60008251611aee818460208701611ebc565b7f202f3e0a00000000000000000000000000000000000000000000000000000000920191825250600401919050565b60008351611b2f818460208801611ebc565b7f2066696c6c3d22000000000000000000000000000000000000000000000000009083019081528351611b69816007840160208801611ebc565b601160f91b60079290910191820152600801949350505050565b60008451611b95818460208901611ebc565b7f3c672069643d22000000000000000000000000000000000000000000000000009083019081528451611bcf816007840160208901611ebc565b7f22203e0a00000000000000000000000000000000000000000000000000000000600792909101918201528351611c0d81600b840160208801611ebc565b7f3c2f673e0a000000000000000000000000000000000000000000000000000000600b929091019182015260100195945050505050565b60008351611c56818460208801611ebc565b7f207472616e73666f726d3d2200000000000000000000000000000000000000009083019081528351611c9081600c840160208801611ebc565b601160f91b600c9290910191820152600d01949350505050565b60008251611cbc818460208701611ebc565b9190910192915050565b7f417373657374436f6d706f7365723a67657450726f766964657249642c20746881527f652070726f766964657220646f6573206e6f742065786973743a000000000000602082015260008251611d2481603a850160208701611ebc565b91909101603a0192915050565b630636f6d760e41b815260008251611d50816004850160208701611ebc565b9190910160040192915050565b602081526000610cf16020830184611a1b565b604081526000611d836040830185611a1b565b8281036020840152611d958185611a1b565b95945050505050565b602081526000825160606020840152611dba6080840182611a1b565b90506020840151601f19848303016040850152611dd78282611a1b565b9150506001600160a01b0360408501511660608401528091505092915050565b6040516080810167ffffffffffffffff81118282101715611e1a57611e1a611fa9565b60405290565b604051601f8201601f1916810167ffffffffffffffff81118282101715611e4957611e49611fa9565b604052919050565b600067ffffffffffffffff821115611e6b57611e6b611fa9565b50601f01601f191660200190565b60008219821115611e8c57611e8c611f67565b500190565b600082611ea057611ea0611f7d565b500490565b600082821015611eb757611eb7611f67565b500390565b60005b83811015611ed7578181015183820152602001611ebf565b83811115611ee6576000848401525b50505050565b600081611efb57611efb611f67565b506000190190565b600181811c90821680611f1757607f821691505b6020821081141561081557634e487b7160e01b600052602260045260246000fd5b6000600019821415611f4c57611f4c611f67565b5060010190565b600082611f6257611f62611f7d565b500690565b634e487b7160e01b600052601160045260246000fd5b634e487b7160e01b600052601260045260246000fd5b634e487b7160e01b600052603260045260246000fd5b634e487b7160e01b600052604160045260246000fd5b6001600160a01b03811681146113da57600080fd5b80151581146113da57600080fdfea26469706673582212203ddb39feed40771b31ef9ff48a4851a8ad03677b39516295fb55b1a235a0e65264736f6c6343000806003360a060405234801561001057600080fd5b50604051610bf8380380610bf883398101604081905261002f9161009d565b6100383361004d565b60601b6001600160601b0319166080526100cd565b600080546001600160a01b038381166001600160a01b0319831681178455604051919092169283917f8be0079c531659141344cd1fd0a4f28419497f9722a3daafe3b4186f6b6457e09190a35050565b6000602082840312156100af57600080fd5b81516001600160a01b03811681146100c657600080fd5b9392505050565b60805160601c610af96100ff6000396000818160eb015281816102bc015281816103ca015261047f0152610af96000f3fe608060405234801561001057600080fd5b50600436106100a35760003560e01c8063893d20e8116100765780638da5cb5b1161005b5780638da5cb5b1461012f578063e3f24f02146101eb578063f2fde38b1461020c57600080fd5b8063893d20e81461012f5780638c40188e1461014057600080fd5b806301ffc9a7146100a857806318160ddd146100d0578063597a0e36146100e6578063715018a614610125575b600080fd5b6100bb6100b6366004610741565b61021f565b60405190151581526020015b60405180910390f35b6100d86102b8565b6040519081526020016100c7565b61010d7f000000000000000000000000000000000000000000000000000000000000000081565b6040516001600160a01b0390911681526020016100c7565b61012d610350565b005b6000546001600160a01b031661010d565b6101de60408051606080820183528082526020820152600091810191909152506040805160a0810182526005606082019081527f61737365740000000000000000000000000000000000000000000000000000006080830152815281518083018352600b81527f41737365742053746f7265000000000000000000000000000000000000000000602082810191909152820152309181019190915290565b6040516100c791906109a6565b6101fe6101f936600461091a565b6103bb565b6040516100c7929190610978565b61012d61021a36600461071d565b610529565b60007fffffffff0000000000000000000000000000000000000000000000000000000082167ffe997ab90000000000000000000000000000000000000000000000000000000014806102b257507fffffffff0000000000000000000000000000000000000000000000000000000082167f01ffc9a700000000000000000000000000000000000000000000000000000000145b92915050565b60007f00000000000000000000000000000000000000000000000000000000000000006001600160a01b031663a0aead4d6040518163ffffffff1660e01b815260040160206040518083038186803b15801561031357600080fd5b505afa158015610327573d6000803e3d6000fd5b505050506040513d601f19601f8201168201806040525081019061034b9190610933565b905090565b6000546001600160a01b031633146103af5760405162461bcd60e51b815260206004820181905260248201527f4f776e61626c653a2063616c6c6572206973206e6f7420746865206f776e657260448201526064015b60405180910390fd5b6103b9600061060b565b565b60608060006001600160a01b037f000000000000000000000000000000000000000000000000000000000000000016634378a6e36103fa866001610a42565b6040518263ffffffff1660e01b815260040161041891815260200190565b60006040518083038186803b15801561043057600080fd5b505afa158015610444573d6000803e3d6000fd5b505050506040513d6000823e601f3d908101601f1916820160405261046c91908101906107c0565b6060810151925090506001600160a01b037f0000000000000000000000000000000000000000000000000000000000000000166334320bf16104af866001610a42565b846040518363ffffffff1660e01b81526004016104cd9291906109ff565b60006040518083038186803b1580156104e557600080fd5b505afa1580156104f9573d6000803e3d6000fd5b505050506040513d6000823e601f3d908101601f191682016040526105219190810190610783565b925050915091565b6000546001600160a01b031633146105835760405162461bcd60e51b815260206004820181905260248201527f4f776e61626c653a2063616c6c6572206973206e6f7420746865206f776e657260448201526064016103a6565b6001600160a01b0381166105ff5760405162461bcd60e51b815260206004820152602660248201527f4f776e61626c653a206e6577206f776e657220697320746865207a65726f206160448201527f646472657373000000000000000000000000000000000000000000000000000060648201526084016103a6565b6106088161060b565b50565b600080546001600160a01b038381167fffffffffffffffffffffffff0000000000000000000000000000000000000000831681178455604051919092169283917f8be0079c531659141344cd1fd0a4f28419497f9722a3daafe3b4186f6b6457e09190a35050565b805161067e81610aae565b919050565b600082601f83011261069457600080fd5b815167ffffffffffffffff808211156106af576106af610a98565b604051601f8301601f19908116603f011681019082821181831017156106d7576106d7610a98565b816040528381528660208588010111156106f057600080fd5b610701846020830160208901610a68565b9695505050505050565b805161ffff8116811461067e57600080fd5b60006020828403121561072f57600080fd5b813561073a81610aae565b9392505050565b60006020828403121561075357600080fd5b81357fffffffff000000000000000000000000000000000000000000000000000000008116811461073a57600080fd5b60006020828403121561079557600080fd5b815167ffffffffffffffff8111156107ac57600080fd5b6107b884828501610683565b949350505050565b6000602082840312156107d257600080fd5b815167ffffffffffffffff808211156107ea57600080fd5b9083019061012082860312156107ff57600080fd5b610807610a18565b82518281111561081657600080fd5b61082287828601610683565b82525060208301518281111561083757600080fd5b61084387828601610683565b60208301525060408301518281111561085b57600080fd5b61086787828601610683565b60408301525060608301518281111561087f57600080fd5b61088b87828601610683565b6060830152506080830151828111156108a357600080fd5b6108af87828601610683565b6080830152506108c160a08401610673565b60a082015260c0830151828111156108d857600080fd5b6108e487828601610683565b60c0830152506108f660e0840161070b565b60e0820152610100915061090b82840161070b565b91810191909152949350505050565b60006020828403121561092c57600080fd5b5035919050565b60006020828403121561094557600080fd5b5051919050565b60008151808452610964816020860160208601610a68565b601f01601f19169290920160200192915050565b60408152600061098b604083018561094c565b828103602084015261099d818561094c565b95945050505050565b6020815260008251606060208401526109c2608084018261094c565b90506020840151601f198483030160408501526109df828261094c565b9150506001600160a01b0360408501511660608401528091505092915050565b8281526040602082015260006107b8604083018461094c565b604051610120810167ffffffffffffffff81118282101715610a3c57610a3c610a98565b60405290565b60008219821115610a6357634e487b7160e01b600052601160045260246000fd5b500190565b60005b83811015610a83578181015183820152602001610a6b565b83811115610a92576000848401525b50505050565b634e487b7160e01b600052604160045260246000fd5b6001600160a01b038116811461060857600080fdfea264697066735822122097dcbe7b4e46051a9cd783e510445d7d55fbd0c2d96a87e1945842639b2c06f564736f6c6343000806003354686973206973206f6e65206f6620656666747320746f2063726561746520284f6e2d436861696e2041737365742053746f7265295b68747470733a2f2f617373657473746f72652e7774662f647261775d2e20",
  "linkReferences": {},
  "deployedLinkReferences": {}
}