{
  "_format": "hh-sol-artifact-1",
  "contractName": "DrawYourOwn",
  "sourceName": "contracts/DrawYourOwn.sol",
  "abi": [
    {
      "inputs": [
        {
          "internalType": "contract IAssetStoreRegistry",
          "name": "_registry",
          "type": "address"
        },
        {
          "internalType": "contract IAssetStore",
          "name": "_assetStore",
          "type": "address"
        },
        {
          "internalType": "address",
          "name": "_developer",
          "type": "address"
        },
        {
          "internalType": "contract IProxyRegistry",
          "name": "_proxyRegistry",
          "type": "address"
        }
      ],
      "stateMutability": "nonpayable",
      "type": "constructor"
    },
    {
      "inputs": [],
      "name": "ApprovalCallerNotOwnerNorApproved",
      "type": "error"
    },
    {
      "inputs": [],
      "name": "ApprovalQueryForNonexistentToken",
      "type": "error"
    },
    {
      "inputs": [],
      "name": "ApproveToCaller",
      "type": "error"
    },
    {
      "inputs": [],
      "name": "BalanceQueryForZeroAddress",
      "type": "error"
    },
    {
      "inputs": [],
      "name": "MintERC2309QuantityExceedsLimit",
      "type": "error"
    },
    {
      "inputs": [],
      "name": "MintToZeroAddress",
      "type": "error"
    },
    {
      "inputs": [],
      "name": "MintZeroQuantity",
      "type": "error"
    },
    {
      "inputs": [],
      "name": "OwnerQueryForNonexistentToken",
      "type": "error"
    },
    {
      "inputs": [],
      "name": "OwnershipNotInitializedForExtraData",
      "type": "error"
    },
    {
      "inputs": [],
      "name": "TransferCallerNotOwnerNorApproved",
      "type": "error"
    },
    {
      "inputs": [],
      "name": "TransferFromIncorrectOwner",
      "type": "error"
    },
    {
      "inputs": [],
      "name": "TransferToNonERC721ReceiverImplementer",
      "type": "error"
    },
    {
      "inputs": [],
      "name": "TransferToZeroAddress",
      "type": "error"
    },
    {
      "inputs": [],
      "name": "URIQueryForNonexistentToken",
      "type": "error"
    },
    {
      "anonymous": false,
      "inputs": [
        {
          "indexed": true,
          "internalType": "address",
          "name": "owner",
          "type": "address"
        },
        {
          "indexed": true,
          "internalType": "address",
          "name": "approved",
          "type": "address"
        },
        {
          "indexed": true,
          "internalType": "uint256",
          "name": "tokenId",
          "type": "uint256"
        }
      ],
      "name": "Approval",
      "type": "event"
    },
    {
      "anonymous": false,
      "inputs": [
        {
          "indexed": true,
          "internalType": "address",
          "name": "owner",
          "type": "address"
        },
        {
          "indexed": true,
          "internalType": "address",
          "name": "operator",
          "type": "address"
        },
        {
          "indexed": false,
          "internalType": "bool",
          "name": "approved",
          "type": "bool"
        }
      ],
      "name": "ApprovalForAll",
      "type": "event"
    },
    {
      "anonymous": false,
      "inputs": [
        {
          "indexed": true,
          "internalType": "uint256",
          "name": "fromTokenId",
          "type": "uint256"
        },
        {
          "indexed": false,
          "internalType": "uint256",
          "name": "toTokenId",
          "type": "uint256"
        },
        {
          "indexed": true,
          "internalType": "address",
          "name": "from",
          "type": "address"
        },
        {
          "indexed": true,
          "internalType": "address",
          "name": "to",
          "type": "address"
        }
      ],
      "name": "ConsecutiveTransfer",
      "type": "event"
    },
    {
      "anonymous": false,
      "inputs": [
        {
          "indexed": true,
          "internalType": "address",
          "name": "previousOwner",
          "type": "address"
        },
        {
          "indexed": true,
          "internalType": "address",
          "name": "newOwner",
          "type": "address"
        }
      ],
      "name": "OwnershipTransferred",
      "type": "event"
    },
    {
      "anonymous": false,
      "inputs": [
        {
          "indexed": true,
          "internalType": "address",
          "name": "from",
          "type": "address"
        },
        {
          "indexed": true,
          "internalType": "address",
          "name": "to",
          "type": "address"
        },
        {
          "indexed": true,
          "internalType": "uint256",
          "name": "tokenId",
          "type": "uint256"
        }
      ],
      "name": "Transfer",
      "type": "event"
    },
    {
      "inputs": [
        {
          "internalType": "address",
          "name": "to",
          "type": "address"
        },
        {
          "internalType": "uint256",
          "name": "tokenId",
          "type": "uint256"
        }
      ],
      "name": "approve",
      "outputs": [],
      "stateMutability": "nonpayable",
      "type": "function"
    },
    {
      "inputs": [
        {
          "internalType": "uint256",
          "name": "_tokenId",
          "type": "uint256"
        }
      ],
      "name": "assetIdOfToken",
      "outputs": [
        {
          "internalType": "uint256",
          "name": "",
          "type": "uint256"
        }
      ],
      "stateMutability": "view",
      "type": "function"
    },
    {
      "inputs": [],
      "name": "assetStore",
      "outputs": [
        {
          "internalType": "contract IAssetStore",
          "name": "",
          "type": "address"
        }
      ],
      "stateMutability": "view",
      "type": "function"
    },
    {
      "inputs": [
        {
          "internalType": "address",
          "name": "owner",
          "type": "address"
        }
      ],
      "name": "balanceOf",
      "outputs": [
        {
          "internalType": "uint256",
          "name": "",
          "type": "uint256"
        }
      ],
      "stateMutability": "view",
      "type": "function"
    },
    {
      "inputs": [],
      "name": "description",
      "outputs": [
        {
          "internalType": "string",
          "name": "",
          "type": "string"
        }
      ],
      "stateMutability": "view",
      "type": "function"
    },
    {
      "inputs": [],
      "name": "developer",
      "outputs": [
        {
          "internalType": "address",
          "name": "",
          "type": "address"
        }
      ],
      "stateMutability": "view",
      "type": "function"
    },
    {
      "inputs": [
        {
          "internalType": "string",
          "name": "_svgPart",
          "type": "string"
        },
        {
          "internalType": "uint256",
          "name": "_style",
          "type": "uint256"
        },
        {
          "internalType": "string",
          "name": "_tag",
          "type": "string"
        }
      ],
      "name": "generateSVG",
      "outputs": [
        {
          "internalType": "string",
          "name": "",
          "type": "string"
        }
      ],
      "stateMutability": "pure",
      "type": "function"
    },
    {
      "inputs": [
        {
          "internalType": "uint256",
          "name": "_tokenId",
          "type": "uint256"
        }
      ],
      "name": "generateSVGPart",
      "outputs": [
        {
          "internalType": "string",
          "name": "",
          "type": "string"
        },
        {
          "internalType": "string",
          "name": "",
          "type": "string"
        }
      ],
      "stateMutability": "view",
      "type": "function"
    },
    {
      "inputs": [
        {
          "internalType": "uint256",
          "name": "tokenId",
          "type": "uint256"
        }
      ],
      "name": "getApproved",
      "outputs": [
        {
          "internalType": "address",
          "name": "",
          "type": "address"
        }
      ],
      "stateMutability": "view",
      "type": "function"
    },
    {
      "inputs": [],
      "name": "getCurrentToken",
      "outputs": [
        {
          "internalType": "uint256",
          "name": "",
          "type": "uint256"
        }
      ],
      "stateMutability": "view",
      "type": "function"
    },
    {
      "inputs": [
        {
          "internalType": "address",
          "name": "owner",
          "type": "address"
        },
        {
          "internalType": "address",
          "name": "operator",
          "type": "address"
        }
      ],
      "name": "isApprovedForAll",
      "outputs": [
        {
          "internalType": "bool",
          "name": "",
          "type": "bool"
        }
      ],
      "stateMutability": "view",
      "type": "function"
    },
    {
      "inputs": [
        {
          "components": [
            {
              "internalType": "string",
              "name": "group",
              "type": "string"
            },
            {
              "internalType": "string",
              "name": "category",
              "type": "string"
            },
            {
              "internalType": "string",
              "name": "name",
              "type": "string"
            },
            {
              "internalType": "string",
              "name": "minter",
              "type": "string"
            },
            {
              "internalType": "address",
              "name": "soulbound",
              "type": "address"
            },
            {
              "internalType": "bytes",
              "name": "metadata",
              "type": "bytes"
            },
            {
              "components": [
                {
                  "internalType": "bytes",
                  "name": "body",
                  "type": "bytes"
                },
                {
                  "internalType": "string",
                  "name": "color",
                  "type": "string"
                }
              ],
              "internalType": "struct IAssetStoreRegistry.Part[]",
              "name": "parts",
              "type": "tuple[]"
            }
          ],
          "internalType": "struct IAssetStoreRegistry.AssetInfo",
          "name": "_assetInfo",
          "type": "tuple"
        },
        {
          "internalType": "uint256",
          "name": "_remixId",
          "type": "uint256"
        },
        {
          "internalType": "string",
          "name": "_color",
          "type": "string"
        },
        {
          "internalType": "uint256",
          "name": "_affiliate",
          "type": "uint256"
        }
      ],
      "name": "mintWithAsset",
      "outputs": [],
      "stateMutability": "nonpayable",
      "type": "function"
    },
    {
      "inputs": [],
      "name": "name",
      "outputs": [
        {
          "internalType": "string",
          "name": "",
          "type": "string"
        }
      ],
      "stateMutability": "view",
      "type": "function"
    },
    {
      "inputs": [],
      "name": "owner",
      "outputs": [
        {
          "internalType": "address",
          "name": "",
          "type": "address"
        }
      ],
      "stateMutability": "view",
      "type": "function"
    },
    {
      "inputs": [
        {
          "internalType": "uint256",
          "name": "tokenId",
          "type": "uint256"
        }
      ],
      "name": "ownerOf",
      "outputs": [
        {
          "internalType": "address",
          "name": "",
          "type": "address"
        }
      ],
      "stateMutability": "view",
      "type": "function"
    },
    {
      "inputs": [],
      "name": "proxyRegistry",
      "outputs": [
        {
          "internalType": "contract IProxyRegistry",
          "name": "",
          "type": "address"
        }
      ],
      "stateMutability": "view",
      "type": "function"
    },
    {
      "inputs": [],
      "name": "registry",
      "outputs": [
        {
          "internalType": "contract IAssetStoreRegistry",
          "name": "",
          "type": "address"
        }
      ],
      "stateMutability": "view",
      "type": "function"
    },
    {
      "inputs": [],
      "name": "renounceOwnership",
      "outputs": [],
      "stateMutability": "nonpayable",
      "type": "function"
    },
    {
      "inputs": [
        {
          "internalType": "address",
          "name": "from",
          "type": "address"
        },
        {
          "internalType": "address",
          "name": "to",
          "type": "address"
        },
        {
          "internalType": "uint256",
          "name": "tokenId",
          "type": "uint256"
        }
      ],
      "name": "safeTransferFrom",
      "outputs": [],
      "stateMutability": "nonpayable",
      "type": "function"
    },
    {
      "inputs": [
        {
          "internalType": "address",
          "name": "from",
          "type": "address"
        },
        {
          "internalType": "address",
          "name": "to",
          "type": "address"
        },
        {
          "internalType": "uint256",
          "name": "tokenId",
          "type": "uint256"
        },
        {
          "internalType": "bytes",
          "name": "_data",
          "type": "bytes"
        }
      ],
      "name": "safeTransferFrom",
      "outputs": [],
      "stateMutability": "nonpayable",
      "type": "function"
    },
    {
      "inputs": [
        {
          "internalType": "address",
          "name": "operator",
          "type": "address"
        },
        {
          "internalType": "bool",
          "name": "approved",
          "type": "bool"
        }
      ],
      "name": "setApprovalForAll",
      "outputs": [],
      "stateMutability": "nonpayable",
      "type": "function"
    },
    {
      "inputs": [
        {
          "internalType": "string",
          "name": "_description",
          "type": "string"
        }
      ],
      "name": "setDescription",
      "outputs": [],
      "stateMutability": "nonpayable",
      "type": "function"
    },
    {
      "inputs": [],
      "name": "styles",
      "outputs": [
        {
          "internalType": "uint256",
          "name": "",
          "type": "uint256"
        }
      ],
      "stateMutability": "pure",
      "type": "function"
    },
    {
      "inputs": [
        {
          "internalType": "bytes4",
          "name": "interfaceId",
          "type": "bytes4"
        }
      ],
      "name": "supportsInterface",
      "outputs": [
        {
          "internalType": "bool",
          "name": "",
          "type": "bool"
        }
      ],
      "stateMutability": "view",
      "type": "function"
    },
    {
      "inputs": [],
      "name": "symbol",
      "outputs": [
        {
          "internalType": "string",
          "name": "",
          "type": "string"
        }
      ],
      "stateMutability": "view",
      "type": "function"
    },
    {
      "inputs": [
        {
          "internalType": "uint256",
          "name": "_tokenId",
          "type": "uint256"
        }
      ],
      "name": "tokenURI",
      "outputs": [
        {
          "internalType": "string",
          "name": "",
          "type": "string"
        }
      ],
      "stateMutability": "view",
      "type": "function"
    },
    {
      "inputs": [],
      "name": "tokensPerAsset",
      "outputs": [
        {
          "internalType": "uint256",
          "name": "",
          "type": "uint256"
        }
      ],
      "stateMutability": "pure",
      "type": "function"
    },
    {
      "inputs": [],
      "name": "totalSupply",
      "outputs": [
        {
          "internalType": "uint256",
          "name": "",
          "type": "uint256"
        }
      ],
      "stateMutability": "view",
      "type": "function"
    },
    {
      "inputs": [
        {
          "internalType": "address",
          "name": "from",
          "type": "address"
        },
        {
          "internalType": "address",
          "name": "to",
          "type": "address"
        },
        {
          "internalType": "uint256",
          "name": "tokenId",
          "type": "uint256"
        }
      ],
      "name": "transferFrom",
      "outputs": [],
      "stateMutability": "nonpayable",
      "type": "function"
    },
    {
      "inputs": [
        {
          "internalType": "address",
          "name": "newOwner",
          "type": "address"
        }
      ],
      "name": "transferOwnership",
      "outputs": [],
      "stateMutability": "nonpayable",
      "type": "function"
    }
  ],
  "bytecode": "0x610160604052605460e08181529062003be46101003980516200002b91600a9160209091019062000191565b503480156200003957600080fd5b5060405162003c3838038062003c388339810160408190526200005c9162000237565b60405180604001604052806011815260200170111c985dc8165bdd5c8813dddb88139195607a1b81525060405180604001604052806007815260200166111c985dd3919560ca1b815250620000c0620000ba6200013d60201b60201c565b62000141565b8151620000d590600390602085019062000191565b508051620000eb90600490602084019062000191565b5060006001555050606093841b6001600160601b031990811660805292841b831660a052600b80546001600160a01b0319166001600160a01b03939093169290921790915590911b1660c052620002f5565b3390565b600080546001600160a01b038381166001600160a01b0319831681178455604051919092169283917f8be0079c531659141344cd1fd0a4f28419497f9722a3daafe3b4186f6b6457e09190a35050565b8280546200019f906200029f565b90600052602060002090601f016020900481019282620001c357600085556200020e565b82601f10620001de57805160ff19168380011785556200020e565b828001600101855582156200020e579182015b828111156200020e578251825591602001919060010190620001f1565b506200021c92915062000220565b5090565b5b808211156200021c576000815560010162000221565b600080600080608085870312156200024e57600080fd5b84516200025b81620002dc565b60208601519094506200026e81620002dc565b60408601519093506200028181620002dc565b60608601519092506200029481620002dc565b939692955090935050565b600181811c90821680620002b457607f821691505b60208210811415620002d657634e487b7160e01b600052602260045260246000fd5b50919050565b6001600160a01b0381168114620002f257600080fd5b50565b60805160601c60a05160601c60c05160601c6138856200035f600039600081816103a301526116f70152600081816102e001528181610ca90152818161129c015281816113e7015281816114a00152611c9a01526000818161033d0152610ba301526138856000f3fe608060405234801561001057600080fd5b50600436106101d95760003560e01c80637284e41611610104578063b50cbd9f116100a2578063e3f24f0211610071578063e3f24f02146103fe578063e985e9c51461041f578063ef2d174614610432578063f2fde38b1461043a57600080fd5b8063b50cbd9f1461039e578063b88d4fde146103c5578063c87b56dd146103d8578063ca4b208b146103eb57600080fd5b80638da5cb5b116100de5780638da5cb5b1461035f57806390c3f38f1461037057806395d89b4114610383578063a22cb4651461038b57600080fd5b80637284e41614610330578063786f94c6146102c15780637b1039991461033857600080fd5b80632ab72d2f1161017c578063597a0e361161014b578063597a0e36146102db5780636352211e1461030257806370a0823114610315578063715018a61461032857600080fd5b80632ab72d2f1461029b57806342842e0e146102ae5780634b00371f146102c15780634be4ce67146102c857600080fd5b8063081812fc116101b8578063081812fc14610232578063095ea7b31461025d57806318160ddd1461027257806323b872dd1461028857600080fd5b80626e59e9146101de57806301ffc9a71461020757806306fdde031461022a575b600080fd5b6101f16101ec36600461253e565b61044d565b6040516101fe919061342b565b60405180910390f35b61021a61021536600461249a565b61065e565b60405190151581526020016101fe565b6101f16106fb565b61024561024036600461286d565b61078d565b6040516001600160a01b0390911681526020016101fe565b61027061026b366004612451565b6107ea565b005b600254600154035b6040519081526020016101fe565b610270610296366004612376565b6108b0565b61027a6102a936600461286d565b610a8e565b6102706102bc366004612376565b610b35565b600461027a565b6102706102d6366004612705565b610b55565b6102457f000000000000000000000000000000000000000000000000000000000000000081565b61024561031036600461286d565b610f10565b61027a610323366004612303565b610f1b565b610270610f83565b6101f1610fe9565b6102457f000000000000000000000000000000000000000000000000000000000000000081565b6000546001600160a01b0316610245565b61027061037e366004612509565b611077565b6101f16110e8565b610270610399366004612423565b6110f7565b6102457f000000000000000000000000000000000000000000000000000000000000000081565b6102706103d33660046123b7565b6111a6565b6101f16103e636600461286d565b6111f0565b600b54610245906001600160a01b031681565b61041161040c36600461286d565b6113b5565b6040516101fe92919061343e565b61021a61042d36600461233d565b6116b8565b61027a6117b9565b610270610448366004612303565b6117c9565b6040805160c0810182526005608082019081527f776869746500000000000000000000000000000000000000000000000000000060a0830152815281518083018352600c81527f75726c282373696c7665722900000000000000000000000000000000000000006020828101919091528083019190915282518084018452600a81527f75726c2823676f6c642900000000000000000000000000000000000000000000818301528284015282518084018452600981527f75726c2823736b792900000000000000000000000000000000000000000000008183015260608381019190915292516000916105429186910161309c565b60408051601f19818403018152919052905060006105616004876136fe565b905060006040518060800160405280604981526020016138076049913988604051602001610590929190612e60565b604051602081830303815290604052905081600114156105d157806040516020016105bb9190612b2e565b6040516020818303038152906040529050610617565b81600214156105eb57806040516020016105bb91906129c8565b816003141561061757806040516020016106059190612c53565b60405160208183030381529060405290505b8084836004811061062a5761062a61373e565b60200201518460405160200161064293929190612d78565b60408051808303601f1901815291905298975050505050505050565b60007f01ffc9a7000000000000000000000000000000000000000000000000000000006001600160e01b0319831614806106c157507f80ac58cd000000000000000000000000000000000000000000000000000000006001600160e01b03198316145b806106f557507f5b5e139f000000000000000000000000000000000000000000000000000000006001600160e01b03198316145b92915050565b60606003805461070a906136a8565b80601f0160208091040260200160405190810160405280929190818152602001828054610736906136a8565b80156107835780601f1061075857610100808354040283529160200191610783565b820191906000526020600020905b81548152906001019060200180831161076657829003601f168201915b5050505050905090565b6000610798826118ab565b6107ce576040517fcf4700e400000000000000000000000000000000000000000000000000000000815260040160405180910390fd5b506000908152600760205260409020546001600160a01b031690565b60006107f582610f10565b9050336001600160a01b038216146108475761081181336116b8565b610847576040517fcfb3b94200000000000000000000000000000000000000000000000000000000815260040160405180910390fd5b600082815260076020526040808220805473ffffffffffffffffffffffffffffffffffffffff19166001600160a01b0387811691821790925591518593918516917f8c5be1e5ebec7d5bd14f71427d1e84f3dd0314c0f7b2291e5b200ac8c7c3b92591a4505050565b60006108bb826118d3565b9050836001600160a01b0316816001600160a01b031614610908576040517fa114810000000000000000000000000000000000000000000000000000000000815260040160405180910390fd5b60008281526007602052604090208054338082146001600160a01b0388169091141761096e5761093886336116b8565b61096e576040517f59c896be00000000000000000000000000000000000000000000000000000000815260040160405180910390fd5b6001600160a01b0385166109ae576040517fea553b3400000000000000000000000000000000000000000000000000000000815260040160405180910390fd5b80156109b957600082555b6001600160a01b038681166000908152600660205260408082208054600019019055918716808252919020805460010190554260a01b17600160e11b17600085815260056020526040902055600160e11b8316610a445760018401600081815260056020526040902054610a42576001548114610a425760008181526005602052604090208490555b505b83856001600160a01b0316876001600160a01b03167fddf252ad1be2c89b69c2b068fc378daa952ba7f163c4a11628f55a4df523b3ef60405160405180910390a45b505050505050565b6000610a99826118ab565b610b105760405162461bcd60e51b815260206004820152602d60248201527f437573746f6d546f6b656e2e617373657449644f66546f6b656e3a206e6f6e6560448201527f78697374656e7420746f6b656e0000000000000000000000000000000000000060648201526084015b60405180910390fd5b60096000610b1f600485613632565b8152602001908152602001600020549050919050565b610b50838383604051806020016040528060008152506111a6565b505050565b6040518060600160405280602381526020016137e46023913984526040517f5b7eea860000000000000000000000000000000000000000000000000000000081526000906001600160a01b037f00000000000000000000000000000000000000000000000000000000000000001690635b7eea8690610bd890889060040161346c565b602060405180830381600087803b158015610bf257600080fd5b505af1158015610c06573d6000803e3d6000fd5b505050506040513d601f19601f82011682018060405250810190610c2a9190612886565b90506000610c3760015490565b90508415610ca057808510610c8e5760405162461bcd60e51b815260206004820152601f60248201527f6d696e745769746841737365743a20496e76616c6964205f72656d69644964006044820152606401610b07565b6000828152600c602052604090208590555b835115610e46577f00000000000000000000000000000000000000000000000000000000000000006001600160a01b031663a57cfb246040518163ffffffff1660e01b815260040160206040518083038186803b158015610d0057600080fd5b505afa158015610d14573d6000803e3d6000fd5b505050506040513d601f19601f82011682018060405250810190610d389190612320565b6001600160a01b031663c16e50ef856040518263ffffffff1660e01b8152600401610d63919061342b565b60206040518083038186803b158015610d7b57600080fd5b505afa158015610d8f573d6000803e3d6000fd5b505050506040513d601f19601f82011682018060405250810190610db3919061247d565b610e255760405162461bcd60e51b815260206004820152602760248201527f44726177596f75724f776e3a6d696e7457697468417373657420496e76616c6960448201527f6420436f6c6f72000000000000000000000000000000000000000000000000006064820152608401610b07565b6000828152600d602090815260409091208551610e44928701906120a6565b505b8160096000610e56600485613632565b8152602081019190915260400160002055610e7c33610e7760016004613665565b61194d565b600083118015610e905750610e9083611a5d565b8015610ead575033610ea184610f10565b6001600160a01b031614155b15610eca57610ec5610ebe84610f10565b600161194d565b610a86565b6004610ed68183613632565b610ee091906136fe565b610efb57600b54610ec5906001600160a01b0316600161194d565b610a86610ebe6000546001600160a01b031690565b60006106f5826118d3565b60006001600160a01b038216610f5d576040517f8f4eb60400000000000000000000000000000000000000000000000000000000815260040160405180910390fd5b506001600160a01b031660009081526006602052604090205467ffffffffffffffff1690565b6000546001600160a01b03163314610fdd5760405162461bcd60e51b815260206004820181905260248201527f4f776e61626c653a2063616c6c6572206973206e6f7420746865206f776e65726044820152606401610b07565b610fe76000611a71565b565b600a8054610ff6906136a8565b80601f0160208091040260200160405190810160405280929190818152602001828054611022906136a8565b801561106f5780601f106110445761010080835404028352916020019161106f565b820191906000526020600020905b81548152906001019060200180831161105257829003601f168201915b505050505081565b6000546001600160a01b031633146110d15760405162461bcd60e51b815260206004820181905260248201527f4f776e61626c653a2063616c6c6572206973206e6f7420746865206f776e65726044820152606401610b07565b80516110e490600a9060208401906120a6565b5050565b60606004805461070a906136a8565b6001600160a01b03821633141561113a576040517fb06307db00000000000000000000000000000000000000000000000000000000815260040160405180910390fd5b3360008181526008602090815260408083206001600160a01b03871680855290835292819020805460ff191686151590811790915590519081529192917f17307eab39ab6107e8899845ad3d59bd9653f200f220920489ca2b5937696c31910160405180910390a35050565b6111b18484846108b0565b6001600160a01b0383163b156111ea576111cd84848484611ace565b6111ea576040516368d2bf6b60e11b815260040160405180910390fd5b50505050565b60606111fb826118ab565b61126d5760405162461bcd60e51b815260206004820152602760248201527f437573746f6d546f6b656e2e746f6b656e5552493a206e6f6e6578697374656e60448201527f7420746f6b656e000000000000000000000000000000000000000000000000006064820152608401610b07565b600061127883610a8e565b604051634378a6e360e01b8152600481018290529091506000906001600160a01b037f00000000000000000000000000000000000000000000000000000000000000001690634378a6e39060240160006040518083038186803b1580156112de57600080fd5b505afa1580156112f2573d6000803e3d6000fd5b505050506040513d6000823e601f3d908101601f1916820160405261131a91908101906125ab565b90506000611327856113b5565b50905060006113458261133b6004896136fe565b856060015161044d565b905061138b8360400151600a61135b8987611bc6565b61136485611dd7565b6040516020016113779493929190612e8f565b604051602081830303815290604052611dd7565b60405160200161139b91906131f6565b604051602081830303815290604052945050505050919050565b60608060006113c384610a8e565b604051634378a6e360e01b8152600481018290529091506000906001600160a01b037f00000000000000000000000000000000000000000000000000000000000000001690634378a6e39060240160006040518083038186803b15801561142957600080fd5b505afa15801561143d573d6000803e3d6000fd5b505050506040513d6000823e601f3d908101601f1916820160405261146591908101906125ab565b60608101516040517f34320bf10000000000000000000000000000000000000000000000000000000081529192506000916001600160a01b037f000000000000000000000000000000000000000000000000000000000000000016916334320bf1916114d5918791600401613538565b60006040518083038186803b1580156114ed57600080fd5b505afa158015611501573d6000803e3d6000fd5b505050506040513d6000823e601f3d908101601f1916820160405261152991908101906124d4565b6000848152600c6020908152604080832054600d909252822080549394509092611552906136a8565b80601f016020809104026020016040519081016040528092919081815260200182805461157e906136a8565b80156115cb5780601f106115a0576101008083540402835291602001916115cb565b820191906000526020600020905b8154815290600101906020018083116115ae57829003601f168201915b5050505050905081600014156115ee575050606090910151909590945092505050565b6000806115fa846113b5565b9150915060006116098b611f74565b6040516020016116199190613057565b60405160208183030381529060405290506000868483858c6040516020016116459594939291906130e1565b6040516020818303038152906040529050600085511115611685578085604051602001611673929190612962565b60405160208183030381529060405290505b806040516020016116969190612aed565b60408051601f198184030181529190529c919b50909950505050505050505050565b6040517fc45527910000000000000000000000000000000000000000000000000000000081526001600160a01b038381166004830152600091818416917f0000000000000000000000000000000000000000000000000000000000000000169063c45527919060240160206040518083038186803b15801561173957600080fd5b505afa15801561174d573d6000803e3d6000fd5b505050506040513d601f19601f820116820180604052508101906117719190612320565b6001600160a01b03161415611788575060016106f5565b6001600160a01b0380841660009081526008602090815260408083209386168352929052205460ff165b9392505050565b60006117c460015490565b905090565b6000546001600160a01b031633146118235760405162461bcd60e51b815260206004820181905260248201527f4f776e61626c653a2063616c6c6572206973206e6f7420746865206f776e65726044820152606401610b07565b6001600160a01b03811661189f5760405162461bcd60e51b815260206004820152602660248201527f4f776e61626c653a206e6577206f776e657220697320746865207a65726f206160448201527f64647265737300000000000000000000000000000000000000000000000000006064820152608401610b07565b6118a881611a71565b50565b6000600154821080156106f5575050600090815260056020526040902054600160e01b161590565b60008160015481101561191b57600081815260056020526040902054600160e01b8116611919575b806117b25750600019016000818152600560205260409020546118fb565b505b6040517fdf2d9b4200000000000000000000000000000000000000000000000000000000815260040160405180910390fd5b6001546001600160a01b038316611990576040517f2e07630000000000000000000000000000000000000000000000000000000000815260040160405180910390fd5b816119c7576040517fb562e8dd00000000000000000000000000000000000000000000000000000000815260040160405180910390fd5b6001600160a01b038316600081815260066020526040902080546801000000000000000185020190554260a01b6001841460e11b1717600082815260056020526040902055808281015b6040516001830192906001600160a01b038716906000907fddf252ad1be2c89b69c2b068fc378daa952ba7f163c4a11628f55a4df523b3ef908290a4808210611a115760015550505050565b6000611a6a6004836136fe565b1592915050565b600080546001600160a01b0383811673ffffffffffffffffffffffffffffffffffffffff19831681178455604051919092169283917f8be0079c531659141344cd1fd0a4f28419497f9722a3daafe3b4186f6b6457e09190a35050565b604051630a85bd0160e11b81526000906001600160a01b0385169063150b7a0290611b039033908990889088906004016133ef565b602060405180830381600087803b158015611b1d57600080fd5b505af1925050508015611b4d575060408051601f3d908101601f19168201909252611b4a918101906124b7565b60015b611ba8573d808015611b7b576040519150601f19603f3d011682016040523d82523d6000602084013e611b80565b606091505b508051611ba0576040516368d2bf6b60e11b815260040160405180910390fd5b805181602001fd5b6001600160e01b031916630a85bd0160e11b1490505b949350505050565b6060611bd183611a5d565b611c10576040518060400160405280600281526020017f4e6f000000000000000000000000000000000000000000000000000000000000815250611c47565b6040518060400160405280600381526020017f59657300000000000000000000000000000000000000000000000000000000008152505b825160208401516040850151608086015151611c98576040518060400160405280600b81526020017f28616e6f6e796d6f757329000000000000000000000000000000000000000000815250611dac565b7f00000000000000000000000000000000000000000000000000000000000000006001600160a01b031663a57cfb246040518163ffffffff1660e01b815260040160206040518083038186803b158015611cf157600080fd5b505afa158015611d05573d6000803e3d6000fd5b505050506040513d601f19601f82011682018060405250810190611d299190612320565b6001600160a01b031663841b9d9787608001516040518263ffffffff1660e01b8152600401611d58919061342b565b60006040518083038186803b158015611d7057600080fd5b505afa158015611d84573d6000803e3d6000fd5b505050506040513d6000823e601f3d908101601f19168201604052611dac91908101906124d4565b604051602001611dc095949392919061323b565b604051602081830303815290604052905092915050565b6060815160001415611df757505060408051602081019091526000815290565b60006040518060600160405280604081526020016137a46040913990506000600384516002611e26919061361a565b611e309190613632565b611e3b906004613646565b90506000611e4a82602061361a565b67ffffffffffffffff811115611e6257611e62613754565b6040519080825280601f01601f191660200182016040528015611e8c576020820181803683370190505b509050818152600183018586518101602084015b81831015611ef8576003830192508251603f8160121c168501518253600182019150603f81600c1c168501518253600182019150603f8160061c168501518253600182019150603f8116850151825350600101611ea0565b600389510660018114611f125760028114611f3e57611f66565b7f3d3d000000000000000000000000000000000000000000000000000000000000600119830152611f66565b7f3d000000000000000000000000000000000000000000000000000000000000006000198301525b509398975050505050505050565b606081611fb457505060408051808201909152600181527f3000000000000000000000000000000000000000000000000000000000000000602082015290565b8160005b8115611fde5780611fc8816136e3565b9150611fd79050600a83613632565b9150611fb8565b60008167ffffffffffffffff811115611ff957611ff9613754565b6040519080825280601f01601f191660200182016040528015612023576020820181803683370190505b5090505b8415611bbe57612038600183613665565b9150612045600a866136fe565b61205090603061361a565b60f81b8183815181106120655761206561373e565b60200101907effffffffffffffffffffffffffffffffffffffffffffffffffffffffffffff1916908160001a90535061209f600a86613632565b9450612027565b8280546120b2906136a8565b90600052602060002090601f0160209004810192826120d4576000855561211a565b82601f106120ed57805160ff191683800117855561211a565b8280016001018555821561211a579182015b8281111561211a5782518255916020019190600101906120ff565b5061212692915061212a565b5090565b5b80821115612126576000815560010161212b565b803561214a8161376a565b919050565b805161214a8161376a565b600082601f83011261216b57600080fd5b8135602067ffffffffffffffff8083111561218857612188613754565b8260051b6121978382016135c1565b8481528381019087850183890186018a10156121b257600080fd5b600093505b86841015612249578035858111156121ce57600080fd5b89016040818c03601f19018113156121e557600080fd5b6121ed613551565b88830135888111156121fe57600080fd5b61220c8e8b83870101612256565b82525090820135908782111561222157600080fd5b61222f8d8a84860101612256565b818a015285525050600193909301929185019185016121b7565b5098975050505050505050565b600082601f83011261226757600080fd5b813561227a612275826135f2565b6135c1565b81815284602083860101111561228f57600080fd5b816020850160208301376000918101602001919091529392505050565b600082601f8301126122bd57600080fd5b81516122cb612275826135f2565b8181528460208386010111156122e057600080fd5b611bbe82602083016020870161367c565b805161ffff8116811461214a57600080fd5b60006020828403121561231557600080fd5b81356117b28161376a565b60006020828403121561233257600080fd5b81516117b28161376a565b6000806040838503121561235057600080fd5b823561235b8161376a565b9150602083013561236b8161376a565b809150509250929050565b60008060006060848603121561238b57600080fd5b83356123968161376a565b925060208401356123a68161376a565b929592945050506040919091013590565b600080600080608085870312156123cd57600080fd5b84356123d88161376a565b935060208501356123e88161376a565b925060408501359150606085013567ffffffffffffffff81111561240b57600080fd5b61241787828801612256565b91505092959194509250565b6000806040838503121561243657600080fd5b82356124418161376a565b9150602083013561236b8161377f565b6000806040838503121561246457600080fd5b823561246f8161376a565b946020939093013593505050565b60006020828403121561248f57600080fd5b81516117b28161377f565b6000602082840312156124ac57600080fd5b81356117b28161378d565b6000602082840312156124c957600080fd5b81516117b28161378d565b6000602082840312156124e657600080fd5b815167ffffffffffffffff8111156124fd57600080fd5b611bbe848285016122ac565b60006020828403121561251b57600080fd5b813567ffffffffffffffff81111561253257600080fd5b611bbe84828501612256565b60008060006060848603121561255357600080fd5b833567ffffffffffffffff8082111561256b57600080fd5b61257787838801612256565b945060208601359350604086013591508082111561259457600080fd5b506125a186828701612256565b9150509250925092565b6000602082840312156125bd57600080fd5b815167ffffffffffffffff808211156125d557600080fd5b9083019061012082860312156125ea57600080fd5b6125f261357a565b82518281111561260157600080fd5b61260d878286016122ac565b82525060208301518281111561262257600080fd5b61262e878286016122ac565b60208301525060408301518281111561264657600080fd5b612652878286016122ac565b60408301525060608301518281111561266a57600080fd5b612676878286016122ac565b60608301525060808301518281111561268e57600080fd5b61269a878286016122ac565b6080830152506126ac60a0840161214f565b60a082015260c0830151828111156126c357600080fd5b6126cf878286016122ac565b60c0830152506126e160e084016122f1565b60e082015261010091506126f68284016122f1565b91810191909152949350505050565b6000806000806080858703121561271b57600080fd5b843567ffffffffffffffff8082111561273357600080fd5b9086019060e0828903121561274757600080fd5b61274f61359e565b82358281111561275e57600080fd5b61276a8a828601612256565b82525060208301358281111561277f57600080fd5b61278b8a828601612256565b6020830152506040830135828111156127a357600080fd5b6127af8a828601612256565b6040830152506060830135828111156127c757600080fd5b6127d38a828601612256565b6060830152506127e56080840161213f565b608082015260a0830135828111156127fc57600080fd5b6128088a828601612256565b60a08301525060c08301358281111561282057600080fd5b61282c8a82860161215a565b60c083015250955060208701359450604087013591508082111561284f57600080fd5b5061285c87828801612256565b949793965093946060013593505050565b60006020828403121561287f57600080fd5b5035919050565b60006020828403121561289857600080fd5b5051919050565b600081518084526020808501808196508360051b8101915082860160005b8581101561290d5782840389528151604081518187526128df8288018261291a565b915050868201519150858103878701526128f9818361291a565b9a87019a95505050908401906001016128bd565b5091979650505050505050565b6000815180845261293281602086016020860161367c565b601f01601f19169290920160200192915050565b6000815161295881856020860161367c565b9290920192915050565b6000835161297481846020880161367c565b7f2066696c6c3d220000000000000000000000000000000000000000000000000090830190815283516129ae81600784016020880161367c565b601160f91b60079290910191820152600801949350505050565b600082516129da81846020870161367c565b7f3c6c696e6561724772616469656e742069643d22676f6c64222078313d22302e9201918252507f32222078323d2230222079313d2230222079323d2231223e0a20203c73746f7060208201527f206f66667365743d223025222073746f702d636f6c6f723d222343434142303960408201527f222f3e0a203c73746f70206f66667365743d22353025222073746f702d636f6c60608201527f6f723d222346464631383622202f3e0a203c73746f70206f66667365743d223160808201527f303025222073746f702d636f6c6f723d2223434341423039222f3e0a3c2f6c6960a08201527f6e6561724772616469656e743e0a00000000000000000000000000000000000060c082015260ce01919050565b60008251612aff81846020870161367c565b7f202f3e0a3c2f673e0a0000000000000000000000000000000000000000000000920191825250600901919050565b60008251612b4081846020870161367c565b7f3c6c696e6561724772616469656e742069643d2273696c766572222078313d229201918252507f302e32222078323d2230222079313d2230222079323d2231223e0a20203c737460208201527f6f70206f66667365743d223025222073746f702d636f6c6f723d22233830383060408201527f3746222f3e0a203c73746f70206f66667365743d22353025222073746f702d6360608201527f6f6c6f723d222345454630463222202f3e0a203c73746f70206f66667365743d60808201527f2231303025222073746f702d636f6c6f723d2223383038303746222f3e0a3c2f60a08201527f6c696e6561724772616469656e743e0a0000000000000000000000000000000060c082015260d001919050565b60008251612c6581846020870161367c565b7f3c72616469616c4772616469656e742069643d22736b79222063783d22302e389201918252507f222063793d22302e3333223e0a20203c73746f70206f66667365743d2230252260208201527f2073746f702d636f6c6f723d2223464646464646222f3e0a203c73746f70206f60408201527f66667365743d22323025222073746f702d636f6c6f723d22234646464646462260608201527f202f3e0a203c73746f70206f66667365743d2231303025222073746f702d636f60808201527f6c6f723d2223303042354532222f3e0a3c2f72616469616c4772616469656e7460a08201527f3e0a00000000000000000000000000000000000000000000000000000000000060c082015260c201919050565b60008451612d8a81846020890161367c565b80830190507f3c2f646566733e0a203c7265637420783d22302220793d22302220776964746881527f3d223130302522206865696768743d2231303025222066696c6c3d220000000060208201528451612deb81603c84016020890161367c565b7f22202f3e0a203c75736520687265663d22000000000000000000000000000000603c92909101918201528351612e2981604d84016020880161367c565b7f22202f3e0a3c2f7376673e0a0000000000000000000000000000000000000000604d929091019182015260590195945050505050565b60008351612e7281846020880161367c565b835190830190612e8681836020880161367c565b01949350505050565b7f7b226e616d65223a2200000000000000000000000000000000000000000000008152600085516020612ec88260098601838b0161367c565b7f222c226465736372697074696f6e223a220000000000000000000000000000006009928501928301528654601a90600090600181811c9080831680612f0f57607f831692505b868310811415612f2d57634e487b7160e01b85526022600452602485fd5b808015612f415760018114612f5657612f87565b60ff1985168988015283890187019550612f87565b60008e81526020902060005b85811015612f7d5781548b82018a0152908401908901612f62565b505086848a010195505b505050505061304961302061301a612fcb612fc5857f222c2261747472696275746573223a5b00000000000000000000000000000000815260100190565b8c612946565b7f5d2c22696d616765223a22646174613a696d6167652f7376672b786d6c3b626181527f736536342c000000000000000000000000000000000000000000000000000000602082015260250190565b89612946565b7f227d000000000000000000000000000000000000000000000000000000000000815260020190565b9a9950505050505050505050565b7f746f6b656e00000000000000000000000000000000000000000000000000000081526000825161308f81600585016020870161367c565b9190910160050192915050565b7f23000000000000000000000000000000000000000000000000000000000000008152600082516130d481600185016020870161367c565b9190910160010192915050565b7f3c646566733e0a00000000000000000000000000000000000000000000000000815260008651613119816007850160208b0161367c565b865190830190613130816007840160208b0161367c565b7f3c2f646566733e0a3c672069643d00000000000000000000000000000000000060079290910191820152855161316e816015840160208a0161367c565b7f2f3e0a203c75736520687265663d2200000000000000000000000000000000006015929091019182015284516131ac81602484016020890161367c565b7f22202f3e0a203c75736520687265663d220000000000000000000000000000006024929091019182015260358101939093525050601160f91b6055820152605601949350505050565b7f646174613a6170706c69636174696f6e2f6a736f6e3b6261736536342c00000081526000825161322e81601d85016020870161367c565b91909101601d0192915050565b7f7b2274726169745f74797065223a225072696d617279222c2276616c7565223a81526000601160f91b806020840152875161327e816021860160208c0161367c565b7f227d2c7b2274726169745f74797065223a2247726f7570222c2276616c7565226021918501918201527f3a22000000000000000000000000000000000000000000000000000000000000604182015287516132e1816043840160208c0161367c565b7f227d2c7b2274726169745f74797065223a2243617465676f7279222c2276616c604392909101918201527f7565223a2200000000000000000000000000000000000000000000000000000060638201528651613345816068840160208b0161367c565b8082019150507f227d2c7b2274726169745f74797065223a224e616d65222c2276616c7565223a60688201528160888201526133e26130206133dc61338d608985018a612946565b7f227d2c7b2274726169745f74797065223a224d696e746572222c2276616c756581527f223a220000000000000000000000000000000000000000000000000000000000602082015260230190565b87612946565b9998505050505050505050565b60006001600160a01b03808716835280861660208401525083604083015260806060830152613421608083018461291a565b9695505050505050565b6020815260006117b2602083018461291a565b604081526000613451604083018561291a565b8281036020840152613463818561291a565b95945050505050565b602081526000825160e0602084015261348961010084018261291a565b90506020840151601f19808584030160408601526134a7838361291a565b925060408601519150808584030160608601526134c4838361291a565b925060608601519150808584030160808601526134e1838361291a565b9250608086015191506134ff60a08601836001600160a01b03169052565b60a08601519150808584030160c086015261351a838361291a565b925060c08601519150808584030160e086015250613463828261289f565b828152604060208201526000611bbe604083018461291a565b6040805190810167ffffffffffffffff8111828210171561357457613574613754565b60405290565b604051610120810167ffffffffffffffff8111828210171561357457613574613754565b60405160e0810167ffffffffffffffff8111828210171561357457613574613754565b604051601f8201601f1916810167ffffffffffffffff811182821017156135ea576135ea613754565b604052919050565b600067ffffffffffffffff82111561360c5761360c613754565b50601f01601f191660200190565b6000821982111561362d5761362d613712565b500190565b60008261364157613641613728565b500490565b600081600019048311821515161561366057613660613712565b500290565b60008282101561367757613677613712565b500390565b60005b8381101561369757818101518382015260200161367f565b838111156111ea5750506000910152565b600181811c908216806136bc57607f821691505b602082108114156136dd57634e487b7160e01b600052602260045260246000fd5b50919050565b60006000198214156136f7576136f7613712565b5060010190565b60008261370d5761370d613728565b500690565b634e487b7160e01b600052601160045260246000fd5b634e487b7160e01b600052601260045260246000fd5b634e487b7160e01b600052603260045260246000fd5b634e487b7160e01b600052604160045260246000fd5b6001600160a01b03811681146118a857600080fd5b80151581146118a857600080fd5b6001600160e01b0319811681146118a857600080fdfe4142434445464748494a4b4c4d4e4f505152535455565758595a6162636465666768696a6b6c6d6e6f707172737475767778797a303132333435363738392b2f4472617720596f7572204f776e2028434330206f722043432042592d534120342e30293c7376672076696577426f783d2230203020313032342031303234222020786d6c6e733d22687474703a2f2f7777772e77332e6f72672f323030302f737667223e0a3c646566733e0aa2646970667358221220eddb486c108e9f52ce184809d81d2223cf523a4c876fd7e0a41073273a030f7564736f6c6343000806003354686973206973206f6e65206f6620656666747320746f2063726561746520284f6e2d436861696e2041737365742053746f7265295b68747470733a2f2f617373657473746f72652e7774662f647261775d2e20",
  "linkReferences": {},
  "deployedLinkReferences": {}
}