{
  "_format": "hh-sol-artifact-1",
  "contractName": "DrawYourOwn",
  "sourceName": "contracts/DrawYourOwn.sol",
  "abi": [
    {
      "inputs": [
        {
          "internalType": "contract IAssetStoreRegistry",
          "name": "_registry",
          "type": "address"
        },
        {
          "internalType": "contract IAssetStore",
          "name": "_assetStore",
          "type": "address"
        },
        {
          "internalType": "address",
          "name": "_developer",
          "type": "address"
        },
        {
          "internalType": "contract IProxyRegistry",
          "name": "_proxyRegistry",
          "type": "address"
        }
      ],
      "stateMutability": "nonpayable",
      "type": "constructor"
    },
    {
      "inputs": [],
      "name": "ApprovalCallerNotOwnerNorApproved",
      "type": "error"
    },
    {
      "inputs": [],
      "name": "ApprovalQueryForNonexistentToken",
      "type": "error"
    },
    {
      "inputs": [],
      "name": "ApproveToCaller",
      "type": "error"
    },
    {
      "inputs": [],
      "name": "BalanceQueryForZeroAddress",
      "type": "error"
    },
    {
      "inputs": [],
      "name": "MintERC2309QuantityExceedsLimit",
      "type": "error"
    },
    {
      "inputs": [],
      "name": "MintToZeroAddress",
      "type": "error"
    },
    {
      "inputs": [],
      "name": "MintZeroQuantity",
      "type": "error"
    },
    {
      "inputs": [],
      "name": "OwnerQueryForNonexistentToken",
      "type": "error"
    },
    {
      "inputs": [],
      "name": "OwnershipNotInitializedForExtraData",
      "type": "error"
    },
    {
      "inputs": [],
      "name": "TransferCallerNotOwnerNorApproved",
      "type": "error"
    },
    {
      "inputs": [],
      "name": "TransferFromIncorrectOwner",
      "type": "error"
    },
    {
      "inputs": [],
      "name": "TransferToNonERC721ReceiverImplementer",
      "type": "error"
    },
    {
      "inputs": [],
      "name": "TransferToZeroAddress",
      "type": "error"
    },
    {
      "inputs": [],
      "name": "URIQueryForNonexistentToken",
      "type": "error"
    },
    {
      "anonymous": false,
      "inputs": [
        {
          "indexed": true,
          "internalType": "address",
          "name": "owner",
          "type": "address"
        },
        {
          "indexed": true,
          "internalType": "address",
          "name": "approved",
          "type": "address"
        },
        {
          "indexed": true,
          "internalType": "uint256",
          "name": "tokenId",
          "type": "uint256"
        }
      ],
      "name": "Approval",
      "type": "event"
    },
    {
      "anonymous": false,
      "inputs": [
        {
          "indexed": true,
          "internalType": "address",
          "name": "owner",
          "type": "address"
        },
        {
          "indexed": true,
          "internalType": "address",
          "name": "operator",
          "type": "address"
        },
        {
          "indexed": false,
          "internalType": "bool",
          "name": "approved",
          "type": "bool"
        }
      ],
      "name": "ApprovalForAll",
      "type": "event"
    },
    {
      "anonymous": false,
      "inputs": [
        {
          "indexed": true,
          "internalType": "uint256",
          "name": "fromTokenId",
          "type": "uint256"
        },
        {
          "indexed": false,
          "internalType": "uint256",
          "name": "toTokenId",
          "type": "uint256"
        },
        {
          "indexed": true,
          "internalType": "address",
          "name": "from",
          "type": "address"
        },
        {
          "indexed": true,
          "internalType": "address",
          "name": "to",
          "type": "address"
        }
      ],
      "name": "ConsecutiveTransfer",
      "type": "event"
    },
    {
      "anonymous": false,
      "inputs": [
        {
          "indexed": true,
          "internalType": "address",
          "name": "previousOwner",
          "type": "address"
        },
        {
          "indexed": true,
          "internalType": "address",
          "name": "newOwner",
          "type": "address"
        }
      ],
      "name": "OwnershipTransferred",
      "type": "event"
    },
    {
      "anonymous": false,
      "inputs": [
        {
          "indexed": true,
          "internalType": "address",
          "name": "from",
          "type": "address"
        },
        {
          "indexed": true,
          "internalType": "address",
          "name": "to",
          "type": "address"
        },
        {
          "indexed": true,
          "internalType": "uint256",
          "name": "tokenId",
          "type": "uint256"
        }
      ],
      "name": "Transfer",
      "type": "event"
    },
    {
      "inputs": [
        {
          "internalType": "address",
          "name": "to",
          "type": "address"
        },
        {
          "internalType": "uint256",
          "name": "tokenId",
          "type": "uint256"
        }
      ],
      "name": "approve",
      "outputs": [],
      "stateMutability": "nonpayable",
      "type": "function"
    },
    {
      "inputs": [
        {
          "internalType": "uint256",
          "name": "_tokenId",
          "type": "uint256"
        }
      ],
      "name": "assetIdOfToken",
      "outputs": [
        {
          "internalType": "uint256",
          "name": "",
          "type": "uint256"
        }
      ],
      "stateMutability": "view",
      "type": "function"
    },
    {
      "inputs": [],
      "name": "assetStore",
      "outputs": [
        {
          "internalType": "contract IAssetStore",
          "name": "",
          "type": "address"
        }
      ],
      "stateMutability": "view",
      "type": "function"
    },
    {
      "inputs": [
        {
          "internalType": "address",
          "name": "owner",
          "type": "address"
        }
      ],
      "name": "balanceOf",
      "outputs": [
        {
          "internalType": "uint256",
          "name": "",
          "type": "uint256"
        }
      ],
      "stateMutability": "view",
      "type": "function"
    },
    {
      "inputs": [],
      "name": "description",
      "outputs": [
        {
          "internalType": "string",
          "name": "",
          "type": "string"
        }
      ],
      "stateMutability": "view",
      "type": "function"
    },
    {
      "inputs": [],
      "name": "developer",
      "outputs": [
        {
          "internalType": "address",
          "name": "",
          "type": "address"
        }
      ],
      "stateMutability": "view",
      "type": "function"
    },
    {
      "inputs": [
        {
          "internalType": "string",
          "name": "_svgPart",
          "type": "string"
        },
        {
          "internalType": "uint256",
          "name": "_style",
          "type": "uint256"
        },
        {
          "internalType": "string",
          "name": "_tag",
          "type": "string"
        }
      ],
      "name": "generateSVG",
      "outputs": [
        {
          "internalType": "string",
          "name": "",
          "type": "string"
        }
      ],
      "stateMutability": "pure",
      "type": "function"
    },
    {
      "inputs": [
        {
          "internalType": "uint256",
          "name": "_tokenId",
          "type": "uint256"
        }
      ],
      "name": "generateSVGPart",
      "outputs": [
        {
          "internalType": "string",
          "name": "",
          "type": "string"
        },
        {
          "internalType": "string",
          "name": "",
          "type": "string"
        }
      ],
      "stateMutability": "view",
      "type": "function"
    },
    {
      "inputs": [
        {
          "internalType": "uint256",
          "name": "tokenId",
          "type": "uint256"
        }
      ],
      "name": "getApproved",
      "outputs": [
        {
          "internalType": "address",
          "name": "",
          "type": "address"
        }
      ],
      "stateMutability": "view",
      "type": "function"
    },
    {
      "inputs": [],
      "name": "getCurrentToken",
      "outputs": [
        {
          "internalType": "uint256",
          "name": "",
          "type": "uint256"
        }
      ],
      "stateMutability": "view",
      "type": "function"
    },
    {
      "inputs": [
        {
          "internalType": "address",
          "name": "owner",
          "type": "address"
        },
        {
          "internalType": "address",
          "name": "operator",
          "type": "address"
        }
      ],
      "name": "isApprovedForAll",
      "outputs": [
        {
          "internalType": "bool",
          "name": "",
          "type": "bool"
        }
      ],
      "stateMutability": "view",
      "type": "function"
    },
    {
      "inputs": [
        {
          "components": [
            {
              "internalType": "string",
              "name": "group",
              "type": "string"
            },
            {
              "internalType": "string",
              "name": "category",
              "type": "string"
            },
            {
              "internalType": "string",
              "name": "name",
              "type": "string"
            },
            {
              "internalType": "string",
              "name": "minter",
              "type": "string"
            },
            {
              "internalType": "address",
              "name": "soulbound",
              "type": "address"
            },
            {
              "internalType": "bytes",
              "name": "metadata",
              "type": "bytes"
            },
            {
              "components": [
                {
                  "internalType": "bytes",
                  "name": "body",
                  "type": "bytes"
                },
                {
                  "internalType": "string",
                  "name": "color",
                  "type": "string"
                }
              ],
              "internalType": "struct IAssetStoreRegistry.Part[]",
              "name": "parts",
              "type": "tuple[]"
            }
          ],
          "internalType": "struct IAssetStoreRegistry.AssetInfo",
          "name": "_assetInfo",
          "type": "tuple"
        },
        {
          "internalType": "uint256",
          "name": "_remixId",
          "type": "uint256"
        },
        {
          "internalType": "string",
          "name": "_color",
          "type": "string"
        },
        {
          "internalType": "uint256",
          "name": "_affiliate",
          "type": "uint256"
        }
      ],
      "name": "mintWithAsset",
      "outputs": [],
      "stateMutability": "nonpayable",
      "type": "function"
    },
    {
      "inputs": [],
      "name": "name",
      "outputs": [
        {
          "internalType": "string",
          "name": "",
          "type": "string"
        }
      ],
      "stateMutability": "view",
      "type": "function"
    },
    {
      "inputs": [],
      "name": "owner",
      "outputs": [
        {
          "internalType": "address",
          "name": "",
          "type": "address"
        }
      ],
      "stateMutability": "view",
      "type": "function"
    },
    {
      "inputs": [
        {
          "internalType": "uint256",
          "name": "tokenId",
          "type": "uint256"
        }
      ],
      "name": "ownerOf",
      "outputs": [
        {
          "internalType": "address",
          "name": "",
          "type": "address"
        }
      ],
      "stateMutability": "view",
      "type": "function"
    },
    {
      "inputs": [],
      "name": "proxyRegistry",
      "outputs": [
        {
          "internalType": "contract IProxyRegistry",
          "name": "",
          "type": "address"
        }
      ],
      "stateMutability": "view",
      "type": "function"
    },
    {
      "inputs": [],
      "name": "registry",
      "outputs": [
        {
          "internalType": "contract IAssetStoreRegistry",
          "name": "",
          "type": "address"
        }
      ],
      "stateMutability": "view",
      "type": "function"
    },
    {
      "inputs": [],
      "name": "renounceOwnership",
      "outputs": [],
      "stateMutability": "nonpayable",
      "type": "function"
    },
    {
      "inputs": [
        {
          "internalType": "address",
          "name": "from",
          "type": "address"
        },
        {
          "internalType": "address",
          "name": "to",
          "type": "address"
        },
        {
          "internalType": "uint256",
          "name": "tokenId",
          "type": "uint256"
        }
      ],
      "name": "safeTransferFrom",
      "outputs": [],
      "stateMutability": "nonpayable",
      "type": "function"
    },
    {
      "inputs": [
        {
          "internalType": "address",
          "name": "from",
          "type": "address"
        },
        {
          "internalType": "address",
          "name": "to",
          "type": "address"
        },
        {
          "internalType": "uint256",
          "name": "tokenId",
          "type": "uint256"
        },
        {
          "internalType": "bytes",
          "name": "_data",
          "type": "bytes"
        }
      ],
      "name": "safeTransferFrom",
      "outputs": [],
      "stateMutability": "nonpayable",
      "type": "function"
    },
    {
      "inputs": [
        {
          "internalType": "address",
          "name": "operator",
          "type": "address"
        },
        {
          "internalType": "bool",
          "name": "approved",
          "type": "bool"
        }
      ],
      "name": "setApprovalForAll",
      "outputs": [],
      "stateMutability": "nonpayable",
      "type": "function"
    },
    {
      "inputs": [
        {
          "internalType": "string",
          "name": "_description",
          "type": "string"
        }
      ],
      "name": "setDescription",
      "outputs": [],
      "stateMutability": "nonpayable",
      "type": "function"
    },
    {
      "inputs": [],
      "name": "styles",
      "outputs": [
        {
          "internalType": "uint256",
          "name": "",
          "type": "uint256"
        }
      ],
      "stateMutability": "pure",
      "type": "function"
    },
    {
      "inputs": [
        {
          "internalType": "bytes4",
          "name": "interfaceId",
          "type": "bytes4"
        }
      ],
      "name": "supportsInterface",
      "outputs": [
        {
          "internalType": "bool",
          "name": "",
          "type": "bool"
        }
      ],
      "stateMutability": "view",
      "type": "function"
    },
    {
      "inputs": [],
      "name": "symbol",
      "outputs": [
        {
          "internalType": "string",
          "name": "",
          "type": "string"
        }
      ],
      "stateMutability": "view",
      "type": "function"
    },
    {
      "inputs": [
        {
          "internalType": "uint256",
          "name": "_tokenId",
          "type": "uint256"
        }
      ],
      "name": "tokenURI",
      "outputs": [
        {
          "internalType": "string",
          "name": "",
          "type": "string"
        }
      ],
      "stateMutability": "view",
      "type": "function"
    },
    {
      "inputs": [],
      "name": "tokensPerAsset",
      "outputs": [
        {
          "internalType": "uint256",
          "name": "",
          "type": "uint256"
        }
      ],
      "stateMutability": "pure",
      "type": "function"
    },
    {
      "inputs": [],
      "name": "totalSupply",
      "outputs": [
        {
          "internalType": "uint256",
          "name": "",
          "type": "uint256"
        }
      ],
      "stateMutability": "view",
      "type": "function"
    },
    {
      "inputs": [
        {
          "internalType": "address",
          "name": "from",
          "type": "address"
        },
        {
          "internalType": "address",
          "name": "to",
          "type": "address"
        },
        {
          "internalType": "uint256",
          "name": "tokenId",
          "type": "uint256"
        }
      ],
      "name": "transferFrom",
      "outputs": [],
      "stateMutability": "nonpayable",
      "type": "function"
    },
    {
      "inputs": [
        {
          "internalType": "address",
          "name": "newOwner",
          "type": "address"
        }
      ],
      "name": "transferOwnership",
      "outputs": [],
      "stateMutability": "nonpayable",
      "type": "function"
    }
  ],
  "bytecode": "0x610160604052605460e08181529062003b636101003980516200002b91600a9160209091019062000191565b503480156200003957600080fd5b5060405162003bb738038062003bb78339810160408190526200005c9162000237565b60405180604001604052806011815260200170111c985dc8165bdd5c8813dddb88139195607a1b81525060405180604001604052806007815260200166111c985dd3919560ca1b815250620000c0620000ba6200013d60201b60201c565b62000141565b8151620000d590600390602085019062000191565b508051620000eb90600490602084019062000191565b5060006001555050606093841b6001600160601b031990811660805292841b831660a052600b80546001600160a01b0319166001600160a01b03939093169290921790915590911b1660c052620002f5565b3390565b600080546001600160a01b038381166001600160a01b0319831681178455604051919092169283917f8be0079c531659141344cd1fd0a4f28419497f9722a3daafe3b4186f6b6457e09190a35050565b8280546200019f906200029f565b90600052602060002090601f016020900481019282620001c357600085556200020e565b82601f10620001de57805160ff19168380011785556200020e565b828001600101855582156200020e579182015b828111156200020e578251825591602001919060010190620001f1565b506200021c92915062000220565b5090565b5b808211156200021c576000815560010162000221565b600080600080608085870312156200024e57600080fd5b84516200025b81620002dc565b60208601519094506200026e81620002dc565b60408601519093506200028181620002dc565b60608601519092506200029481620002dc565b939692955090935050565b600181811c90821680620002b457607f821691505b60208210811415620002d657634e487b7160e01b600052602260045260246000fd5b50919050565b6001600160a01b0381168114620002f257600080fd5b50565b60805160601c60a05160601c60c05160601c6138046200035f600039600081816103a301526116d80152600081816102e001528181610c8601528181611279015281816113c40152818161147d0152611c7b01526000818161033d0152610b8001526138046000f3fe608060405234801561001057600080fd5b50600436106101d95760003560e01c80637284e41611610104578063b50cbd9f116100a2578063e3f24f0211610071578063e3f24f02146103fe578063e985e9c51461041f578063ef2d174614610432578063f2fde38b1461043a57600080fd5b8063b50cbd9f1461039e578063b88d4fde146103c5578063c87b56dd146103d8578063ca4b208b146103eb57600080fd5b80638da5cb5b116100de5780638da5cb5b1461035f57806390c3f38f1461037057806395d89b4114610383578063a22cb4651461038b57600080fd5b80637284e41614610330578063786f94c6146102c15780637b1039991461033857600080fd5b80632ab72d2f1161017c578063597a0e361161014b578063597a0e36146102db5780636352211e1461030257806370a0823114610315578063715018a61461032857600080fd5b80632ab72d2f1461029b57806342842e0e146102ae5780634b00371f146102c15780634be4ce67146102c857600080fd5b8063081812fc116101b8578063081812fc14610232578063095ea7b31461025d57806318160ddd1461027257806323b872dd1461028857600080fd5b80626e59e9146101de57806301ffc9a71461020757806306fdde031461022a575b600080fd5b6101f16101ec36600461251f565b61044d565b6040516101fe91906133aa565b60405180910390f35b61021a61021536600461247b565b61063b565b60405190151581526020016101fe565b6101f16106d8565b61024561024036600461284e565b61076a565b6040516001600160a01b0390911681526020016101fe565b61027061026b366004612432565b6107c7565b005b600254600154035b6040519081526020016101fe565b610270610296366004612357565b61088d565b61027a6102a936600461284e565b610a6b565b6102706102bc366004612357565b610b12565b600461027a565b6102706102d63660046126e6565b610b32565b6102457f000000000000000000000000000000000000000000000000000000000000000081565b61024561031036600461284e565b610eed565b61027a6103233660046122e4565b610ef8565b610270610f60565b6101f1610fc6565b6102457f000000000000000000000000000000000000000000000000000000000000000081565b6000546001600160a01b0316610245565b61027061037e3660046124ea565b611054565b6101f16110c5565b610270610399366004612404565b6110d4565b6102457f000000000000000000000000000000000000000000000000000000000000000081565b6102706103d3366004612398565b611183565b6101f16103e636600461284e565b6111cd565b600b54610245906001600160a01b031681565b61041161040c36600461284e565b611392565b6040516101fe9291906133bd565b61021a61042d36600461231e565b611699565b61027a61179a565b6102706104483660046122e4565b6117aa565b6040805160c0810182526005608082019081527f776869746500000000000000000000000000000000000000000000000000000060a0830152815281518083018352600c81527f75726c282373696c7665722900000000000000000000000000000000000000006020828101919091528083019190915282518084018452600a81527f75726c2823676f6c64290000000000000000000000000000000000000000000081830152828401528251808401909352600983527f75726c2823736b7929000000000000000000000000000000000000000000000090830152606081810192909252600061053f60048661367d565b90506000604051806080016040528060498152602001613786604991398760405160200161056e929190612e41565b604051602081830303815290604052905081600114156105af57806040516020016105999190612b0f565b60405160208183030381529060405290506105f5565b81600214156105c9578060405160200161059991906129a9565b81600314156105f557806040516020016105e39190612c34565b60405160208183030381529060405290505b80838360048110610608576106086136bd565b60200201518660405160200161062093929190612d59565b60408051808303601f19018152919052979650505050505050565b60007f01ffc9a7000000000000000000000000000000000000000000000000000000006001600160e01b03198316148061069e57507f80ac58cd000000000000000000000000000000000000000000000000000000006001600160e01b03198316145b806106d257507f5b5e139f000000000000000000000000000000000000000000000000000000006001600160e01b03198316145b92915050565b6060600380546106e790613627565b80601f016020809104026020016040519081016040528092919081815260200182805461071390613627565b80156107605780601f1061073557610100808354040283529160200191610760565b820191906000526020600020905b81548152906001019060200180831161074357829003601f168201915b5050505050905090565b60006107758261188c565b6107ab576040517fcf4700e400000000000000000000000000000000000000000000000000000000815260040160405180910390fd5b506000908152600760205260409020546001600160a01b031690565b60006107d282610eed565b9050336001600160a01b03821614610824576107ee8133611699565b610824576040517fcfb3b94200000000000000000000000000000000000000000000000000000000815260040160405180910390fd5b600082815260076020526040808220805473ffffffffffffffffffffffffffffffffffffffff19166001600160a01b0387811691821790925591518593918516917f8c5be1e5ebec7d5bd14f71427d1e84f3dd0314c0f7b2291e5b200ac8c7c3b92591a4505050565b6000610898826118b4565b9050836001600160a01b0316816001600160a01b0316146108e5576040517fa114810000000000000000000000000000000000000000000000000000000000815260040160405180910390fd5b60008281526007602052604090208054338082146001600160a01b0388169091141761094b576109158633611699565b61094b576040517f59c896be00000000000000000000000000000000000000000000000000000000815260040160405180910390fd5b6001600160a01b03851661098b576040517fea553b3400000000000000000000000000000000000000000000000000000000815260040160405180910390fd5b801561099657600082555b6001600160a01b038681166000908152600660205260408082208054600019019055918716808252919020805460010190554260a01b17600160e11b17600085815260056020526040902055600160e11b8316610a215760018401600081815260056020526040902054610a1f576001548114610a1f5760008181526005602052604090208490555b505b83856001600160a01b0316876001600160a01b03167fddf252ad1be2c89b69c2b068fc378daa952ba7f163c4a11628f55a4df523b3ef60405160405180910390a45b505050505050565b6000610a768261188c565b610aed5760405162461bcd60e51b815260206004820152602d60248201527f437573746f6d546f6b656e2e617373657449644f66546f6b656e3a206e6f6e6560448201527f78697374656e7420746f6b656e0000000000000000000000000000000000000060648201526084015b60405180910390fd5b60096000610afc6004856135b1565b8152602001908152602001600020549050919050565b610b2d83838360405180602001604052806000815250611183565b505050565b6040518060600160405280602381526020016137636023913984526040517f5b7eea860000000000000000000000000000000000000000000000000000000081526000906001600160a01b037f00000000000000000000000000000000000000000000000000000000000000001690635b7eea8690610bb59088906004016133eb565b602060405180830381600087803b158015610bcf57600080fd5b505af1158015610be3573d6000803e3d6000fd5b505050506040513d601f19601f82011682018060405250810190610c079190612867565b90506000610c1460015490565b90508415610c7d57808510610c6b5760405162461bcd60e51b815260206004820152601f60248201527f6d696e745769746841737365743a20496e76616c6964205f72656d69784964006044820152606401610ae4565b6000828152600c602052604090208590555b835115610e23577f00000000000000000000000000000000000000000000000000000000000000006001600160a01b031663a57cfb246040518163ffffffff1660e01b815260040160206040518083038186803b158015610cdd57600080fd5b505afa158015610cf1573d6000803e3d6000fd5b505050506040513d601f19601f82011682018060405250810190610d159190612301565b6001600160a01b031663c16e50ef856040518263ffffffff1660e01b8152600401610d4091906133aa565b60206040518083038186803b158015610d5857600080fd5b505afa158015610d6c573d6000803e3d6000fd5b505050506040513d601f19601f82011682018060405250810190610d90919061245e565b610e025760405162461bcd60e51b815260206004820152602760248201527f44726177596f75724f776e3a6d696e7457697468417373657420496e76616c6960448201527f6420436f6c6f72000000000000000000000000000000000000000000000000006064820152608401610ae4565b6000828152600d602090815260409091208551610e2192870190612087565b505b8160096000610e336004856135b1565b8152602081019190915260400160002055610e5933610e54600160046135e4565b61192e565b600083118015610e6d5750610e6d83611a3e565b8015610e8a575033610e7e84610eed565b6001600160a01b031614155b15610ea757610ea2610e9b84610eed565b600161192e565b610a63565b6004610eb381836135b1565b610ebd919061367d565b610ed857600b54610ea2906001600160a01b0316600161192e565b610a63610e9b6000546001600160a01b031690565b60006106d2826118b4565b60006001600160a01b038216610f3a576040517f8f4eb60400000000000000000000000000000000000000000000000000000000815260040160405180910390fd5b506001600160a01b031660009081526006602052604090205467ffffffffffffffff1690565b6000546001600160a01b03163314610fba5760405162461bcd60e51b815260206004820181905260248201527f4f776e61626c653a2063616c6c6572206973206e6f7420746865206f776e65726044820152606401610ae4565b610fc46000611a52565b565b600a8054610fd390613627565b80601f0160208091040260200160405190810160405280929190818152602001828054610fff90613627565b801561104c5780601f106110215761010080835404028352916020019161104c565b820191906000526020600020905b81548152906001019060200180831161102f57829003601f168201915b505050505081565b6000546001600160a01b031633146110ae5760405162461bcd60e51b815260206004820181905260248201527f4f776e61626c653a2063616c6c6572206973206e6f7420746865206f776e65726044820152606401610ae4565b80516110c190600a906020840190612087565b5050565b6060600480546106e790613627565b6001600160a01b038216331415611117576040517fb06307db00000000000000000000000000000000000000000000000000000000815260040160405180910390fd5b3360008181526008602090815260408083206001600160a01b03871680855290835292819020805460ff191686151590811790915590519081529192917f17307eab39ab6107e8899845ad3d59bd9653f200f220920489ca2b5937696c31910160405180910390a35050565b61118e84848461088d565b6001600160a01b0383163b156111c7576111aa84848484611aaf565b6111c7576040516368d2bf6b60e11b815260040160405180910390fd5b50505050565b60606111d88261188c565b61124a5760405162461bcd60e51b815260206004820152602760248201527f437573746f6d546f6b656e2e746f6b656e5552493a206e6f6e6578697374656e60448201527f7420746f6b656e000000000000000000000000000000000000000000000000006064820152608401610ae4565b600061125583610a6b565b604051634378a6e360e01b8152600481018290529091506000906001600160a01b037f00000000000000000000000000000000000000000000000000000000000000001690634378a6e39060240160006040518083038186803b1580156112bb57600080fd5b505afa1580156112cf573d6000803e3d6000fd5b505050506040513d6000823e601f3d908101601f191682016040526112f7919081019061258c565b905060008061130586611392565b909250905060006113218361131b60048a61367d565b8461044d565b90506113678460400151600a6113378a88611ba7565b61134085611db8565b6040516020016113539493929190612f68565b604051602081830303815290604052611db8565b6040516020016113779190613175565b60405160208183030381529060405295505050505050919050565b60608060006113a084610a6b565b604051634378a6e360e01b8152600481018290529091506000906001600160a01b037f00000000000000000000000000000000000000000000000000000000000000001690634378a6e39060240160006040518083038186803b15801561140657600080fd5b505afa15801561141a573d6000803e3d6000fd5b505050506040513d6000823e601f3d908101601f19168201604052611442919081019061258c565b60608101516040517f34320bf10000000000000000000000000000000000000000000000000000000081529192506000916001600160a01b037f000000000000000000000000000000000000000000000000000000000000000016916334320bf1916114b29187916004016134b7565b60006040518083038186803b1580156114ca57600080fd5b505afa1580156114de573d6000803e3d6000fd5b505050506040513d6000823e601f3d908101601f1916820160405261150691908101906124b5565b6000848152600c6020908152604080832054600d90925282208054939450909261152f90613627565b80601f016020809104026020016040519081016040528092919081815260200182805461155b90613627565b80156115a85780601f1061157d576101008083540402835291602001916115a8565b820191906000526020600020905b81548152906001019060200180831161158b57829003601f168201915b5050505050905081600014156115cb575050606090910151909590945092505050565b6000806115d784611392565b9150915060006115e68b611f55565b6040516020016115f69190613130565b60405160208183030381529060405290506000868483858b60600151604051602001611626959493929190612e70565b6040516020818303038152906040529050600085511115611666578085604051602001611654929190612943565b60405160208183030381529060405290505b806040516020016116779190612ace565b60408051601f198184030181529190529c919b50909950505050505050505050565b6040517fc45527910000000000000000000000000000000000000000000000000000000081526001600160a01b038381166004830152600091818416917f0000000000000000000000000000000000000000000000000000000000000000169063c45527919060240160206040518083038186803b15801561171a57600080fd5b505afa15801561172e573d6000803e3d6000fd5b505050506040513d601f19601f820116820180604052508101906117529190612301565b6001600160a01b03161415611769575060016106d2565b6001600160a01b0380841660009081526008602090815260408083209386168352929052205460ff165b9392505050565b60006117a560015490565b905090565b6000546001600160a01b031633146118045760405162461bcd60e51b815260206004820181905260248201527f4f776e61626c653a2063616c6c6572206973206e6f7420746865206f776e65726044820152606401610ae4565b6001600160a01b0381166118805760405162461bcd60e51b815260206004820152602660248201527f4f776e61626c653a206e6577206f776e657220697320746865207a65726f206160448201527f64647265737300000000000000000000000000000000000000000000000000006064820152608401610ae4565b61188981611a52565b50565b6000600154821080156106d2575050600090815260056020526040902054600160e01b161590565b6000816001548110156118fc57600081815260056020526040902054600160e01b81166118fa575b806117935750600019016000818152600560205260409020546118dc565b505b6040517fdf2d9b4200000000000000000000000000000000000000000000000000000000815260040160405180910390fd5b6001546001600160a01b038316611971576040517f2e07630000000000000000000000000000000000000000000000000000000000815260040160405180910390fd5b816119a8576040517fb562e8dd00000000000000000000000000000000000000000000000000000000815260040160405180910390fd5b6001600160a01b038316600081815260066020526040902080546801000000000000000185020190554260a01b6001841460e11b1717600082815260056020526040902055808281015b6040516001830192906001600160a01b038716906000907fddf252ad1be2c89b69c2b068fc378daa952ba7f163c4a11628f55a4df523b3ef908290a48082106119f25760015550505050565b6000611a4b60048361367d565b1592915050565b600080546001600160a01b0383811673ffffffffffffffffffffffffffffffffffffffff19831681178455604051919092169283917f8be0079c531659141344cd1fd0a4f28419497f9722a3daafe3b4186f6b6457e09190a35050565b604051630a85bd0160e11b81526000906001600160a01b0385169063150b7a0290611ae490339089908890889060040161336e565b602060405180830381600087803b158015611afe57600080fd5b505af1925050508015611b2e575060408051601f3d908101601f19168201909252611b2b91810190612498565b60015b611b89573d808015611b5c576040519150601f19603f3d011682016040523d82523d6000602084013e611b61565b606091505b508051611b81576040516368d2bf6b60e11b815260040160405180910390fd5b805181602001fd5b6001600160e01b031916630a85bd0160e11b1490505b949350505050565b6060611bb283611a3e565b611bf1576040518060400160405280600281526020017f4e6f000000000000000000000000000000000000000000000000000000000000815250611c28565b6040518060400160405280600381526020017f59657300000000000000000000000000000000000000000000000000000000008152505b825160208401516040850151608086015151611c79576040518060400160405280600b81526020017f28616e6f6e796d6f757329000000000000000000000000000000000000000000815250611d8d565b7f00000000000000000000000000000000000000000000000000000000000000006001600160a01b031663a57cfb246040518163ffffffff1660e01b815260040160206040518083038186803b158015611cd257600080fd5b505afa158015611ce6573d6000803e3d6000fd5b505050506040513d601f19601f82011682018060405250810190611d0a9190612301565b6001600160a01b031663841b9d9787608001516040518263ffffffff1660e01b8152600401611d3991906133aa565b60006040518083038186803b158015611d5157600080fd5b505afa158015611d65573d6000803e3d6000fd5b505050506040513d6000823e601f3d908101601f19168201604052611d8d91908101906124b5565b604051602001611da19594939291906131ba565b604051602081830303815290604052905092915050565b6060815160001415611dd857505060408051602081019091526000815290565b60006040518060600160405280604081526020016137236040913990506000600384516002611e079190613599565b611e1191906135b1565b611e1c9060046135c5565b90506000611e2b826020613599565b67ffffffffffffffff811115611e4357611e436136d3565b6040519080825280601f01601f191660200182016040528015611e6d576020820181803683370190505b509050818152600183018586518101602084015b81831015611ed9576003830192508251603f8160121c168501518253600182019150603f81600c1c168501518253600182019150603f8160061c168501518253600182019150603f8116850151825350600101611e81565b600389510660018114611ef35760028114611f1f57611f47565b7f3d3d000000000000000000000000000000000000000000000000000000000000600119830152611f47565b7f3d000000000000000000000000000000000000000000000000000000000000006000198301525b509398975050505050505050565b606081611f9557505060408051808201909152600181527f3000000000000000000000000000000000000000000000000000000000000000602082015290565b8160005b8115611fbf5780611fa981613662565b9150611fb89050600a836135b1565b9150611f99565b60008167ffffffffffffffff811115611fda57611fda6136d3565b6040519080825280601f01601f191660200182016040528015612004576020820181803683370190505b5090505b8415611b9f576120196001836135e4565b9150612026600a8661367d565b612031906030613599565b60f81b818381518110612046576120466136bd565b60200101907effffffffffffffffffffffffffffffffffffffffffffffffffffffffffffff1916908160001a905350612080600a866135b1565b9450612008565b82805461209390613627565b90600052602060002090601f0160209004810192826120b557600085556120fb565b82601f106120ce57805160ff19168380011785556120fb565b828001600101855582156120fb579182015b828111156120fb5782518255916020019190600101906120e0565b5061210792915061210b565b5090565b5b80821115612107576000815560010161210c565b803561212b816136e9565b919050565b805161212b816136e9565b600082601f83011261214c57600080fd5b8135602067ffffffffffffffff80831115612169576121696136d3565b8260051b612178838201613540565b8481528381019087850183890186018a101561219357600080fd5b600093505b8684101561222a578035858111156121af57600080fd5b89016040818c03601f19018113156121c657600080fd5b6121ce6134d0565b88830135888111156121df57600080fd5b6121ed8e8b83870101612237565b82525090820135908782111561220257600080fd5b6122108d8a84860101612237565b818a01528552505060019390930192918501918501612198565b5098975050505050505050565b600082601f83011261224857600080fd5b813561225b61225682613571565b613540565b81815284602083860101111561227057600080fd5b816020850160208301376000918101602001919091529392505050565b600082601f83011261229e57600080fd5b81516122ac61225682613571565b8181528460208386010111156122c157600080fd5b611b9f8260208301602087016135fb565b805161ffff8116811461212b57600080fd5b6000602082840312156122f657600080fd5b8135611793816136e9565b60006020828403121561231357600080fd5b8151611793816136e9565b6000806040838503121561233157600080fd5b823561233c816136e9565b9150602083013561234c816136e9565b809150509250929050565b60008060006060848603121561236c57600080fd5b8335612377816136e9565b92506020840135612387816136e9565b929592945050506040919091013590565b600080600080608085870312156123ae57600080fd5b84356123b9816136e9565b935060208501356123c9816136e9565b925060408501359150606085013567ffffffffffffffff8111156123ec57600080fd5b6123f887828801612237565b91505092959194509250565b6000806040838503121561241757600080fd5b8235612422816136e9565b9150602083013561234c816136fe565b6000806040838503121561244557600080fd5b8235612450816136e9565b946020939093013593505050565b60006020828403121561247057600080fd5b8151611793816136fe565b60006020828403121561248d57600080fd5b81356117938161370c565b6000602082840312156124aa57600080fd5b81516117938161370c565b6000602082840312156124c757600080fd5b815167ffffffffffffffff8111156124de57600080fd5b611b9f8482850161228d565b6000602082840312156124fc57600080fd5b813567ffffffffffffffff81111561251357600080fd5b611b9f84828501612237565b60008060006060848603121561253457600080fd5b833567ffffffffffffffff8082111561254c57600080fd5b61255887838801612237565b945060208601359350604086013591508082111561257557600080fd5b5061258286828701612237565b9150509250925092565b60006020828403121561259e57600080fd5b815167ffffffffffffffff808211156125b657600080fd5b9083019061012082860312156125cb57600080fd5b6125d36134f9565b8251828111156125e257600080fd5b6125ee8782860161228d565b82525060208301518281111561260357600080fd5b61260f8782860161228d565b60208301525060408301518281111561262757600080fd5b6126338782860161228d565b60408301525060608301518281111561264b57600080fd5b6126578782860161228d565b60608301525060808301518281111561266f57600080fd5b61267b8782860161228d565b60808301525061268d60a08401612130565b60a082015260c0830151828111156126a457600080fd5b6126b08782860161228d565b60c0830152506126c260e084016122d2565b60e082015261010091506126d78284016122d2565b91810191909152949350505050565b600080600080608085870312156126fc57600080fd5b843567ffffffffffffffff8082111561271457600080fd5b9086019060e0828903121561272857600080fd5b61273061351d565b82358281111561273f57600080fd5b61274b8a828601612237565b82525060208301358281111561276057600080fd5b61276c8a828601612237565b60208301525060408301358281111561278457600080fd5b6127908a828601612237565b6040830152506060830135828111156127a857600080fd5b6127b48a828601612237565b6060830152506127c660808401612120565b608082015260a0830135828111156127dd57600080fd5b6127e98a828601612237565b60a08301525060c08301358281111561280157600080fd5b61280d8a82860161213b565b60c083015250955060208701359450604087013591508082111561283057600080fd5b5061283d87828801612237565b949793965093946060013593505050565b60006020828403121561286057600080fd5b5035919050565b60006020828403121561287957600080fd5b5051919050565b600081518084526020808501808196508360051b8101915082860160005b858110156128ee5782840389528151604081518187526128c0828801826128fb565b915050868201519150858103878701526128da81836128fb565b9a87019a955050509084019060010161289e565b5091979650505050505050565b600081518084526129138160208601602086016135fb565b601f01601f19169290920160200192915050565b600081516129398185602086016135fb565b9290920192915050565b600083516129558184602088016135fb565b7f2066696c6c3d2200000000000000000000000000000000000000000000000000908301908152835161298f8160078401602088016135fb565b601160f91b60079290910191820152600801949350505050565b600082516129bb8184602087016135fb565b7f3c6c696e6561724772616469656e742069643d22676f6c64222078313d22302e9201918252507f32222078323d2230222079313d2230222079323d2231223e0a20203c73746f7060208201527f206f66667365743d223025222073746f702d636f6c6f723d222343434142303960408201527f222f3e0a203c73746f70206f66667365743d22353025222073746f702d636f6c60608201527f6f723d222346464631383622202f3e0a203c73746f70206f66667365743d223160808201527f303025222073746f702d636f6c6f723d2223434341423039222f3e0a3c2f6c6960a08201527f6e6561724772616469656e743e0a00000000000000000000000000000000000060c082015260ce01919050565b60008251612ae08184602087016135fb565b7f202f3e0a3c2f673e0a0000000000000000000000000000000000000000000000920191825250600901919050565b60008251612b218184602087016135fb565b7f3c6c696e6561724772616469656e742069643d2273696c766572222078313d229201918252507f302e32222078323d2230222079313d2230222079323d2231223e0a20203c737460208201527f6f70206f66667365743d223025222073746f702d636f6c6f723d22233830383060408201527f3746222f3e0a203c73746f70206f66667365743d22353025222073746f702d6360608201527f6f6c6f723d222345454630463222202f3e0a203c73746f70206f66667365743d60808201527f2231303025222073746f702d636f6c6f723d2223383038303746222f3e0a3c2f60a08201527f6c696e6561724772616469656e743e0a0000000000000000000000000000000060c082015260d001919050565b60008251612c468184602087016135fb565b7f3c72616469616c4772616469656e742069643d22736b79222063783d22302e389201918252507f222063793d22302e3333223e0a20203c73746f70206f66667365743d2230252260208201527f2073746f702d636f6c6f723d2223464646464646222f3e0a203c73746f70206f60408201527f66667365743d22323025222073746f702d636f6c6f723d22234646464646462260608201527f202f3e0a203c73746f70206f66667365743d2231303025222073746f702d636f60808201527f6c6f723d2223303042354532222f3e0a3c2f72616469616c4772616469656e7460a08201527f3e0a00000000000000000000000000000000000000000000000000000000000060c082015260c201919050565b60008451612d6b8184602089016135fb565b80830190507f3c2f646566733e0a203c7265637420783d22302220793d22302220776964746881527f3d223130302522206865696768743d2231303025222066696c6c3d220000000060208201528451612dcc81603c8401602089016135fb565b7f22202f3e0a203c75736520687265663d22230000000000000000000000000000603c92909101918201528351612e0a81604e8401602088016135fb565b7f22202f3e0a3c2f7376673e0a0000000000000000000000000000000000000000604e9290910191820152605a0195945050505050565b60008351612e538184602088016135fb565b835190830190612e678183602088016135fb565b01949350505050565b60008651612e82818460208b016135fb565b865190830190612e96818360208b016135fb565b7f3c672069643d220000000000000000000000000000000000000000000000000091019081528551612ecf816007840160208a016135fb565b7f22203e0a203c75736520687265663d2223000000000000000000000000000000600792909101918201528451612f0d8160188401602089016135fb565b7f22202f3e0a203c75736520687265663d22230000000000000000000000000000601892909101918201528351612f4b81602a8401602088016135fb565b601160f91b602a9290910191820152602b01979650505050505050565b7f7b226e616d65223a2200000000000000000000000000000000000000000000008152600085516020612fa18260098601838b016135fb565b7f222c226465736372697074696f6e223a220000000000000000000000000000006009928501928301528654601a90600090600181811c9080831680612fe857607f831692505b86831081141561300657634e487b7160e01b85526022600452602485fd5b80801561301a576001811461302f57613060565b60ff1985168988015283890187019550613060565b60008e81526020902060005b858110156130565781548b82018a015290840190890161303b565b505086848a010195505b50505050506131226130f96130f36130a461309e857f222c2261747472696275746573223a5b00000000000000000000000000000000815260100190565b8c612927565b7f5d2c22696d616765223a22646174613a696d6167652f7376672b786d6c3b626181527f736536342c000000000000000000000000000000000000000000000000000000602082015260250190565b89612927565b7f227d000000000000000000000000000000000000000000000000000000000000815260020190565b9a9950505050505050505050565b7f746f6b656e0000000000000000000000000000000000000000000000000000008152600082516131688160058501602087016135fb565b9190910160050192915050565b7f646174613a6170706c69636174696f6e2f6a736f6e3b6261736536342c0000008152600082516131ad81601d8501602087016135fb565b91909101601d0192915050565b7f7b2274726169745f74797065223a225072696d617279222c2276616c7565223a81526000601160f91b80602084015287516131fd816021860160208c016135fb565b7f227d2c7b2274726169745f74797065223a2247726f7570222c2276616c7565226021918501918201527f3a2200000000000000000000000000000000000000000000000000000000000060418201528751613260816043840160208c016135fb565b7f227d2c7b2274726169745f74797065223a2243617465676f7279222c2276616c604392909101918201527f7565223a22000000000000000000000000000000000000000000000000000000606382015286516132c4816068840160208b016135fb565b8082019150507f227d2c7b2274726169745f74797065223a224e616d65222c2276616c7565223a60688201528160888201526133616130f961335b61330c608985018a612927565b7f227d2c7b2274726169745f74797065223a224d696e746572222c2276616c756581527f223a220000000000000000000000000000000000000000000000000000000000602082015260230190565b87612927565b9998505050505050505050565b60006001600160a01b038087168352808616602084015250836040830152608060608301526133a060808301846128fb565b9695505050505050565b60208152600061179360208301846128fb565b6040815260006133d060408301856128fb565b82810360208401526133e281856128fb565b95945050505050565b602081526000825160e060208401526134086101008401826128fb565b90506020840151601f198085840301604086015261342683836128fb565b9250604086015191508085840301606086015261344383836128fb565b9250606086015191508085840301608086015261346083836128fb565b92506080860151915061347e60a08601836001600160a01b03169052565b60a08601519150808584030160c086015261349983836128fb565b925060c08601519150808584030160e0860152506133e28282612880565b828152604060208201526000611b9f60408301846128fb565b6040805190810167ffffffffffffffff811182821017156134f3576134f36136d3565b60405290565b604051610120810167ffffffffffffffff811182821017156134f3576134f36136d3565b60405160e0810167ffffffffffffffff811182821017156134f3576134f36136d3565b604051601f8201601f1916810167ffffffffffffffff81118282101715613569576135696136d3565b604052919050565b600067ffffffffffffffff82111561358b5761358b6136d3565b50601f01601f191660200190565b600082198211156135ac576135ac613691565b500190565b6000826135c0576135c06136a7565b500490565b60008160001904831182151516156135df576135df613691565b500290565b6000828210156135f6576135f6613691565b500390565b60005b838110156136165781810151838201526020016135fe565b838111156111c75750506000910152565b600181811c9082168061363b57607f821691505b6020821081141561365c57634e487b7160e01b600052602260045260246000fd5b50919050565b600060001982141561367657613676613691565b5060010190565b60008261368c5761368c6136a7565b500690565b634e487b7160e01b600052601160045260246000fd5b634e487b7160e01b600052601260045260246000fd5b634e487b7160e01b600052603260045260246000fd5b634e487b7160e01b600052604160045260246000fd5b6001600160a01b038116811461188957600080fd5b801515811461188957600080fd5b6001600160e01b03198116811461188957600080fdfe4142434445464748494a4b4c4d4e4f505152535455565758595a6162636465666768696a6b6c6d6e6f707172737475767778797a303132333435363738392b2f4472617720596f7572204f776e2028434330206f722043432042592d534120342e30293c7376672076696577426f783d2230203020313032342031303234222020786d6c6e733d22687474703a2f2f7777772e77332e6f72672f323030302f737667223e0a3c646566733e0aa26469706673582212208c376eec08b7c838c7314495bbfc61ab1c4b2cf0af49dc45c84754c37b0ef5e064736f6c6343000806003354686973206973206f6e65206f6620656666747320746f2063726561746520284f6e2d436861696e2041737365742053746f7265295b68747470733a2f2f617373657473746f72652e7774662f647261775d2e20",
  "linkReferences": {},
  "deployedLinkReferences": {}
}