{
  "_format": "hh-sol-artifact-1",
  "contractName": "DrawYourOwn",
  "sourceName": "contracts/DrawYourOwn.sol",
  "abi": [
    {
      "inputs": [
        {
          "internalType": "contract IAssetStoreRegistry",
          "name": "_registry",
          "type": "address"
        },
        {
          "internalType": "contract IAssetStoreEx",
          "name": "_assetStore",
          "type": "address"
        },
        {
          "internalType": "address",
          "name": "_developer",
          "type": "address"
        },
        {
          "internalType": "contract IProxyRegistry",
          "name": "_proxyRegistry",
          "type": "address"
        }
      ],
      "stateMutability": "nonpayable",
      "type": "constructor"
    },
    {
      "inputs": [],
      "name": "ApprovalCallerNotOwnerNorApproved",
      "type": "error"
    },
    {
      "inputs": [],
      "name": "ApprovalQueryForNonexistentToken",
      "type": "error"
    },
    {
      "inputs": [],
      "name": "ApproveToCaller",
      "type": "error"
    },
    {
      "inputs": [],
      "name": "BalanceQueryForZeroAddress",
      "type": "error"
    },
    {
      "inputs": [],
      "name": "MintERC2309QuantityExceedsLimit",
      "type": "error"
    },
    {
      "inputs": [],
      "name": "MintToZeroAddress",
      "type": "error"
    },
    {
      "inputs": [],
      "name": "MintZeroQuantity",
      "type": "error"
    },
    {
      "inputs": [],
      "name": "OwnerQueryForNonexistentToken",
      "type": "error"
    },
    {
      "inputs": [],
      "name": "OwnershipNotInitializedForExtraData",
      "type": "error"
    },
    {
      "inputs": [],
      "name": "TransferCallerNotOwnerNorApproved",
      "type": "error"
    },
    {
      "inputs": [],
      "name": "TransferFromIncorrectOwner",
      "type": "error"
    },
    {
      "inputs": [],
      "name": "TransferToNonERC721ReceiverImplementer",
      "type": "error"
    },
    {
      "inputs": [],
      "name": "TransferToZeroAddress",
      "type": "error"
    },
    {
      "inputs": [],
      "name": "URIQueryForNonexistentToken",
      "type": "error"
    },
    {
      "anonymous": false,
      "inputs": [
        {
          "indexed": true,
          "internalType": "address",
          "name": "owner",
          "type": "address"
        },
        {
          "indexed": true,
          "internalType": "address",
          "name": "approved",
          "type": "address"
        },
        {
          "indexed": true,
          "internalType": "uint256",
          "name": "tokenId",
          "type": "uint256"
        }
      ],
      "name": "Approval",
      "type": "event"
    },
    {
      "anonymous": false,
      "inputs": [
        {
          "indexed": true,
          "internalType": "address",
          "name": "owner",
          "type": "address"
        },
        {
          "indexed": true,
          "internalType": "address",
          "name": "operator",
          "type": "address"
        },
        {
          "indexed": false,
          "internalType": "bool",
          "name": "approved",
          "type": "bool"
        }
      ],
      "name": "ApprovalForAll",
      "type": "event"
    },
    {
      "anonymous": false,
      "inputs": [
        {
          "indexed": true,
          "internalType": "uint256",
          "name": "fromTokenId",
          "type": "uint256"
        },
        {
          "indexed": false,
          "internalType": "uint256",
          "name": "toTokenId",
          "type": "uint256"
        },
        {
          "indexed": true,
          "internalType": "address",
          "name": "from",
          "type": "address"
        },
        {
          "indexed": true,
          "internalType": "address",
          "name": "to",
          "type": "address"
        }
      ],
      "name": "ConsecutiveTransfer",
      "type": "event"
    },
    {
      "anonymous": false,
      "inputs": [
        {
          "indexed": true,
          "internalType": "address",
          "name": "previousOwner",
          "type": "address"
        },
        {
          "indexed": true,
          "internalType": "address",
          "name": "newOwner",
          "type": "address"
        }
      ],
      "name": "OwnershipTransferred",
      "type": "event"
    },
    {
      "anonymous": false,
      "inputs": [
        {
          "indexed": true,
          "internalType": "address",
          "name": "from",
          "type": "address"
        },
        {
          "indexed": true,
          "internalType": "address",
          "name": "to",
          "type": "address"
        },
        {
          "indexed": true,
          "internalType": "uint256",
          "name": "tokenId",
          "type": "uint256"
        }
      ],
      "name": "Transfer",
      "type": "event"
    },
    {
      "inputs": [
        {
          "internalType": "address",
          "name": "to",
          "type": "address"
        },
        {
          "internalType": "uint256",
          "name": "tokenId",
          "type": "uint256"
        }
      ],
      "name": "approve",
      "outputs": [],
      "stateMutability": "nonpayable",
      "type": "function"
    },
    {
      "inputs": [],
      "name": "assetComposer",
      "outputs": [
        {
          "internalType": "contract AssetComposer",
          "name": "",
          "type": "address"
        }
      ],
      "stateMutability": "view",
      "type": "function"
    },
    {
      "inputs": [
        {
          "internalType": "uint256",
          "name": "_tokenId",
          "type": "uint256"
        }
      ],
      "name": "assetIdOfToken",
      "outputs": [
        {
          "internalType": "uint256",
          "name": "",
          "type": "uint256"
        }
      ],
      "stateMutability": "view",
      "type": "function"
    },
    {
      "inputs": [],
      "name": "assetStore",
      "outputs": [
        {
          "internalType": "contract IAssetStoreEx",
          "name": "",
          "type": "address"
        }
      ],
      "stateMutability": "view",
      "type": "function"
    },
    {
      "inputs": [
        {
          "internalType": "address",
          "name": "owner",
          "type": "address"
        }
      ],
      "name": "balanceOf",
      "outputs": [
        {
          "internalType": "uint256",
          "name": "",
          "type": "uint256"
        }
      ],
      "stateMutability": "view",
      "type": "function"
    },
    {
      "inputs": [],
      "name": "description",
      "outputs": [
        {
          "internalType": "string",
          "name": "",
          "type": "string"
        }
      ],
      "stateMutability": "view",
      "type": "function"
    },
    {
      "inputs": [],
      "name": "developer",
      "outputs": [
        {
          "internalType": "address",
          "name": "",
          "type": "address"
        }
      ],
      "stateMutability": "view",
      "type": "function"
    },
    {
      "inputs": [
        {
          "internalType": "string",
          "name": "_svgPart",
          "type": "string"
        },
        {
          "internalType": "uint256",
          "name": "_style",
          "type": "uint256"
        },
        {
          "internalType": "string",
          "name": "_tag",
          "type": "string"
        }
      ],
      "name": "generateSVG",
      "outputs": [
        {
          "internalType": "string",
          "name": "",
          "type": "string"
        }
      ],
      "stateMutability": "pure",
      "type": "function"
    },
    {
      "inputs": [
        {
          "internalType": "uint256",
          "name": "_tokenId",
          "type": "uint256"
        }
      ],
      "name": "generateSVGPart",
      "outputs": [
        {
          "internalType": "string",
          "name": "",
          "type": "string"
        },
        {
          "internalType": "string",
          "name": "",
          "type": "string"
        }
      ],
      "stateMutability": "view",
      "type": "function"
    },
    {
      "inputs": [
        {
          "internalType": "uint256",
          "name": "tokenId",
          "type": "uint256"
        }
      ],
      "name": "getApproved",
      "outputs": [
        {
          "internalType": "address",
          "name": "",
          "type": "address"
        }
      ],
      "stateMutability": "view",
      "type": "function"
    },
    {
      "inputs": [],
      "name": "getCurrentToken",
      "outputs": [
        {
          "internalType": "uint256",
          "name": "",
          "type": "uint256"
        }
      ],
      "stateMutability": "view",
      "type": "function"
    },
    {
      "inputs": [
        {
          "internalType": "address",
          "name": "owner",
          "type": "address"
        },
        {
          "internalType": "address",
          "name": "operator",
          "type": "address"
        }
      ],
      "name": "isApprovedForAll",
      "outputs": [
        {
          "internalType": "bool",
          "name": "",
          "type": "bool"
        }
      ],
      "stateMutability": "view",
      "type": "function"
    },
    {
      "inputs": [],
      "name": "mintPrice",
      "outputs": [
        {
          "internalType": "uint256",
          "name": "",
          "type": "uint256"
        }
      ],
      "stateMutability": "view",
      "type": "function"
    },
    {
      "inputs": [
        {
          "components": [
            {
              "internalType": "string",
              "name": "group",
              "type": "string"
            },
            {
              "internalType": "string",
              "name": "category",
              "type": "string"
            },
            {
              "internalType": "string",
              "name": "name",
              "type": "string"
            },
            {
              "internalType": "string",
              "name": "minter",
              "type": "string"
            },
            {
              "internalType": "address",
              "name": "soulbound",
              "type": "address"
            },
            {
              "internalType": "bytes",
              "name": "metadata",
              "type": "bytes"
            },
            {
              "components": [
                {
                  "internalType": "bytes",
                  "name": "body",
                  "type": "bytes"
                },
                {
                  "internalType": "string",
                  "name": "color",
                  "type": "string"
                }
              ],
              "internalType": "struct IAssetStoreRegistry.Part[]",
              "name": "parts",
              "type": "tuple[]"
            }
          ],
          "internalType": "struct IAssetStoreRegistry.AssetInfo",
          "name": "_assetInfo",
          "type": "tuple"
        },
        {
          "internalType": "uint256",
          "name": "_affiliate",
          "type": "uint256"
        },
        {
          "internalType": "uint256",
          "name": "_strokeWidth",
          "type": "uint256"
        },
        {
          "components": [
            {
              "internalType": "uint256",
              "name": "tokenId",
              "type": "uint256"
            },
            {
              "internalType": "string",
              "name": "fill",
              "type": "string"
            },
            {
              "internalType": "string",
              "name": "transform",
              "type": "string"
            },
            {
              "internalType": "uint256",
              "name": "stroke",
              "type": "uint256"
            }
          ],
          "internalType": "struct DrawYourOwn.RemixInfo[]",
          "name": "_remixes",
          "type": "tuple[]"
        },
        {
          "components": [
            {
              "internalType": "uint256",
              "name": "assetId",
              "type": "uint256"
            },
            {
              "internalType": "string",
              "name": "provider",
              "type": "string"
            },
            {
              "internalType": "string",
              "name": "fill",
              "type": "string"
            },
            {
              "internalType": "string",
              "name": "transform",
              "type": "string"
            },
            {
              "internalType": "uint256",
              "name": "stroke",
              "type": "uint256"
            }
          ],
          "internalType": "struct IAssetComposer.AssetLayer[]",
          "name": "_overlays",
          "type": "tuple[]"
        }
      ],
      "name": "mintWithAsset",
      "outputs": [],
      "stateMutability": "payable",
      "type": "function"
    },
    {
      "inputs": [],
      "name": "name",
      "outputs": [
        {
          "internalType": "string",
          "name": "",
          "type": "string"
        }
      ],
      "stateMutability": "view",
      "type": "function"
    },
    {
      "inputs": [],
      "name": "owner",
      "outputs": [
        {
          "internalType": "address",
          "name": "",
          "type": "address"
        }
      ],
      "stateMutability": "view",
      "type": "function"
    },
    {
      "inputs": [
        {
          "internalType": "uint256",
          "name": "tokenId",
          "type": "uint256"
        }
      ],
      "name": "ownerOf",
      "outputs": [
        {
          "internalType": "address",
          "name": "",
          "type": "address"
        }
      ],
      "stateMutability": "view",
      "type": "function"
    },
    {
      "inputs": [],
      "name": "proxyRegistry",
      "outputs": [
        {
          "internalType": "contract IProxyRegistry",
          "name": "",
          "type": "address"
        }
      ],
      "stateMutability": "view",
      "type": "function"
    },
    {
      "inputs": [],
      "name": "registry",
      "outputs": [
        {
          "internalType": "contract IAssetStoreRegistry",
          "name": "",
          "type": "address"
        }
      ],
      "stateMutability": "view",
      "type": "function"
    },
    {
      "inputs": [
        {
          "internalType": "uint256",
          "name": "",
          "type": "uint256"
        }
      ],
      "name": "remixBase",
      "outputs": [
        {
          "internalType": "uint256",
          "name": "",
          "type": "uint256"
        }
      ],
      "stateMutability": "view",
      "type": "function"
    },
    {
      "inputs": [],
      "name": "renounceOwnership",
      "outputs": [],
      "stateMutability": "nonpayable",
      "type": "function"
    },
    {
      "inputs": [
        {
          "internalType": "address",
          "name": "from",
          "type": "address"
        },
        {
          "internalType": "address",
          "name": "to",
          "type": "address"
        },
        {
          "internalType": "uint256",
          "name": "tokenId",
          "type": "uint256"
        }
      ],
      "name": "safeTransferFrom",
      "outputs": [],
      "stateMutability": "nonpayable",
      "type": "function"
    },
    {
      "inputs": [
        {
          "internalType": "address",
          "name": "from",
          "type": "address"
        },
        {
          "internalType": "address",
          "name": "to",
          "type": "address"
        },
        {
          "internalType": "uint256",
          "name": "tokenId",
          "type": "uint256"
        },
        {
          "internalType": "bytes",
          "name": "_data",
          "type": "bytes"
        }
      ],
      "name": "safeTransferFrom",
      "outputs": [],
      "stateMutability": "nonpayable",
      "type": "function"
    },
    {
      "inputs": [
        {
          "internalType": "address",
          "name": "operator",
          "type": "address"
        },
        {
          "internalType": "bool",
          "name": "approved",
          "type": "bool"
        }
      ],
      "name": "setApprovalForAll",
      "outputs": [],
      "stateMutability": "nonpayable",
      "type": "function"
    },
    {
      "inputs": [
        {
          "internalType": "string",
          "name": "_description",
          "type": "string"
        }
      ],
      "name": "setDescription",
      "outputs": [],
      "stateMutability": "nonpayable",
      "type": "function"
    },
    {
      "inputs": [
        {
          "internalType": "uint256",
          "name": "_price",
          "type": "uint256"
        }
      ],
      "name": "setMintPrice",
      "outputs": [],
      "stateMutability": "nonpayable",
      "type": "function"
    },
    {
      "inputs": [],
      "name": "styles",
      "outputs": [
        {
          "internalType": "uint256",
          "name": "",
          "type": "uint256"
        }
      ],
      "stateMutability": "pure",
      "type": "function"
    },
    {
      "inputs": [
        {
          "internalType": "bytes4",
          "name": "interfaceId",
          "type": "bytes4"
        }
      ],
      "name": "supportsInterface",
      "outputs": [
        {
          "internalType": "bool",
          "name": "",
          "type": "bool"
        }
      ],
      "stateMutability": "view",
      "type": "function"
    },
    {
      "inputs": [],
      "name": "symbol",
      "outputs": [
        {
          "internalType": "string",
          "name": "",
          "type": "string"
        }
      ],
      "stateMutability": "view",
      "type": "function"
    },
    {
      "inputs": [
        {
          "internalType": "uint256",
          "name": "_tokenId",
          "type": "uint256"
        }
      ],
      "name": "tokenURI",
      "outputs": [
        {
          "internalType": "string",
          "name": "",
          "type": "string"
        }
      ],
      "stateMutability": "view",
      "type": "function"
    },
    {
      "inputs": [],
      "name": "tokensPerAsset",
      "outputs": [
        {
          "internalType": "uint256",
          "name": "",
          "type": "uint256"
        }
      ],
      "stateMutability": "pure",
      "type": "function"
    },
    {
      "inputs": [],
      "name": "totalSupply",
      "outputs": [
        {
          "internalType": "uint256",
          "name": "",
          "type": "uint256"
        }
      ],
      "stateMutability": "view",
      "type": "function"
    },
    {
      "inputs": [
        {
          "internalType": "address",
          "name": "from",
          "type": "address"
        },
        {
          "internalType": "address",
          "name": "to",
          "type": "address"
        },
        {
          "internalType": "uint256",
          "name": "tokenId",
          "type": "uint256"
        }
      ],
      "name": "transferFrom",
      "outputs": [],
      "stateMutability": "nonpayable",
      "type": "function"
    },
    {
      "inputs": [
        {
          "internalType": "address",
          "name": "newOwner",
          "type": "address"
        }
      ],
      "name": "transferOwnership",
      "outputs": [],
      "stateMutability": "nonpayable",
      "type": "function"
    },
    {
      "inputs": [],
      "name": "withdraw",
      "outputs": [],
      "stateMutability": "nonpayable",
      "type": "function"
    }
  ],
  "bytecode": "0x610180604052605461010081815290620084ad6101203980516200002c91600b9160209091019062000397565b5066470de4df820000600e553480156200004557600080fd5b506040516200850138038062008501833981016040819052620000689162000459565b8383838360405180604001604052806011815260200170111c985dc8165bdd5c8813dddb88139195607a1b81525060405180604001604052806007815260200166111c985dd3919560ca1b8152508160029080519060200190620000ce92919062000397565b508051620000e490600390602084019062000397565b5060008081556001600160601b0319606088811b821660805287811b821660a052600c80546001600160a01b0389166001600160a01b031990911617905585901b1660c0526040519092508591506200013d9062000426565b6001600160a01b039091168152602001604051809103906000f0801580156200016a573d6000803e3d6000fd5b5060405163f2fde38b60e01b81523360048201529091506001600160a01b0382169063f2fde38b90602401600060405180830381600087803b158015620001b057600080fd5b505af1158015620001c5573d6000803e3d6000fd5b50505050600084604051620001da9062000434565b6001600160a01b039091168152602001604051809103906000f08015801562000207573d6000803e3d6000fd5b50604051630713000b60e11b81526001600160a01b03808316600483015291925090831690630e26001690602401602060405180830381600087803b1580156200025057600080fd5b505af115801562000265573d6000803e3d6000fd5b505050506040513d601f19601f820116820180604052508101906200028b9190620004c1565b50604051630713000b60e11b81526001600160a01b0383166004820181905290630e26001690602401602060405180830381600087803b158015620002cf57600080fd5b505af1158015620002e4573d6000803e3d6000fd5b505050506040513d601f19601f820116820180604052508101906200030a9190620004c1565b505060601b6001600160601b03191660e05250620003379250620003319150620003419050565b62000345565b5050505062000531565b3390565b600d80546001600160a01b038381166001600160a01b0319831681179093556040519116919082907f8be0079c531659141344cd1fd0a4f28419497f9722a3daafe3b4186f6b6457e090600090a35050565b828054620003a590620004db565b90600052602060002090601f016020900481019282620003c9576000855562000414565b82601f10620003e457805160ff191683800117855562000414565b8280016001018555821562000414579182015b8281111562000414578251825591602001919060010190620003f7565b506200042292915062000442565b5090565b6125e680620048a583390190565b6116228062006e8b83390190565b5b8082111562000422576000815560010162000443565b600080600080608085870312156200047057600080fd5b84516200047d8162000518565b6020860151909450620004908162000518565b6040860151909350620004a38162000518565b6060860151909250620004b68162000518565b939692955090935050565b600060208284031215620004d457600080fd5b5051919050565b600181811c90821680620004f057607f821691505b602082108114156200051257634e487b7160e01b600052602260045260246000fd5b50919050565b6001600160a01b03811681146200052e57600080fd5b50565b60805160601c60a05160601c60c05160601c60e05160601c6142ef620005b6600039600081816106350152818161139f01528181611c700152611d0301526000818161055301526115ff0152600081816103f801528181611261015281816114570152818161150701526123e20152600081816104ac015261173d01526142ef6000f3fe6080604052600436106102335760003560e01c80637284e41611610138578063c87b56dd116100b0578063ec1718b91161007f578063ef2d174611610064578063ef2d17461461066a578063f2fde38b1461067f578063f4a0a5281461069f57600080fd5b8063ec1718b914610623578063ec3308241461065757600080fd5b8063c87b56dd14610595578063ca4b208b146105b5578063e3f24f02146105d5578063e985e9c51461060357600080fd5b806390c3f38f11610107578063a22cb465116100ec578063a22cb46514610521578063b50cbd9f14610541578063b88d4fde1461057557600080fd5b806390c3f38f146104ec57806395d89b411461050c57600080fd5b80637284e41614610485578063786f94c6146103d25780637b1039991461049a5780638da5cb5b146104ce57600080fd5b80633ccfd60b116101cb578063597a0e361161019a5780636817c76c1161017f5780636817c76c1461043a57806370a0823114610450578063715018a61461047057600080fd5b8063597a0e36146103e65780636352211e1461041a57600080fd5b80633ccfd60b14610370578063406fbed91461038557806342842e0e146103b25780634b00371f146103d257600080fd5b8063095ea7b311610207578063095ea7b3146102eb57806318160ddd1461030d57806323b872dd146103305780632ab72d2f1461035057600080fd5b80626e59e91461023857806301ffc9a71461026e57806306fdde031461029e578063081812fc146102b3575b600080fd5b34801561024457600080fd5b50610258610253366004612f3b565b6106bf565b6040516102659190613e5c565b60405180910390f35b34801561027a57600080fd5b5061028e610289366004612e33565b610919565b6040519015158152602001610265565b3480156102aa57600080fd5b506102586109b6565b3480156102bf57600080fd5b506102d36102ce366004613291565b610a48565b6040516001600160a01b039091168152602001610265565b3480156102f757600080fd5b5061030b610306366004612e07565b610aa5565b005b34801561031957600080fd5b50600154600054035b604051908152602001610265565b34801561033c57600080fd5b5061030b61034b366004612d27565b610b6b565b34801561035c57600080fd5b5061032261036b366004613291565b610d48565b34801561037c57600080fd5b5061030b610def565b34801561039157600080fd5b506103226103a0366004613291565b60086020526000908152604090205481565b3480156103be57600080fd5b5061030b6103cd366004612d27565b610e99565b3480156103de57600080fd5b506004610322565b3480156103f257600080fd5b506102d37f000000000000000000000000000000000000000000000000000000000000000081565b34801561042657600080fd5b506102d3610435366004613291565b610eb9565b34801561044657600080fd5b50610322600e5481565b34801561045c57600080fd5b5061032261046b366004612cb4565b610ec4565b34801561047c57600080fd5b5061030b610f2c565b34801561049157600080fd5b50610258610f92565b3480156104a657600080fd5b506102d37f000000000000000000000000000000000000000000000000000000000000000081565b3480156104da57600080fd5b50600d546001600160a01b03166102d3565b3480156104f857600080fd5b5061030b610507366004612ea2565b611020565b34801561051857600080fd5b5061025861108d565b34801561052d57600080fd5b5061030b61053c366004612dd4565b61109c565b34801561054d57600080fd5b506102d37f000000000000000000000000000000000000000000000000000000000000000081565b34801561058157600080fd5b5061030b610590366004612d68565b61114b565b3480156105a157600080fd5b506102586105b0366004613291565b611195565b3480156105c157600080fd5b50600c546102d3906001600160a01b031681565b3480156105e157600080fd5b506105f56105f0366004613291565b611376565b604051610265929190613e6f565b34801561060f57600080fd5b5061028e61061e366004612cee565b6115c0565b34801561062f57600080fd5b506102d37f000000000000000000000000000000000000000000000000000000000000000081565b61030b610665366004613102565b6116c1565b34801561067657600080fd5b50600054610322565b34801561068b57600080fd5b5061030b61069a366004612cb4565b611e7c565b3480156106ab57600080fd5b5061030b6106ba366004613291565b611f5e565b6040805160a081018252600060808201818152825282518084018452600c81527f75726c282373696c7665722900000000000000000000000000000000000000006020828101919091528084019190915283518085018552600a81527f75726c2823676f6c64290000000000000000000000000000000000000000000081830152838501528351908101909352808352606082810193909352610763600486614199565b9050600060405180608001604052806049815260200161427160499139876040516020016107929291906139e2565b604051602081830303815290604052905081600114156107d357806040516020016107bd9190613597565b6040516020818303038152906040529050610819565b81600214156107ed57806040516020016107bd9190613472565b81600314156108195780604051602001610807919061386f565b60405160208183030381529060405290505b8060405160200161082a91906133f0565b6040516020818303038152906040529050600083836004811061084f5761084f6141d9565b6020020151511115610896578083836004811061086e5761086e6141d9565b60200201516040516020016108849291906137de565b60405160208183030381529060405290505b81600314156108c85780856040516020016108b29291906136bc565b60405160208183030381529060405290506108ed565b80856040516020016108db929190613386565b60405160208183030381529060405290505b806040516020016108fe9190613431565b60408051808303601f19018152919052979650505050505050565b60007f01ffc9a7000000000000000000000000000000000000000000000000000000006001600160e01b03198316148061097c57507f80ac58cd000000000000000000000000000000000000000000000000000000006001600160e01b03198316145b806109b057507f5b5e139f000000000000000000000000000000000000000000000000000000006001600160e01b03198316145b92915050565b6060600280546109c590614143565b80601f01602080910402602001604051908101604052809291908181526020018280546109f190614143565b8015610a3e5780601f10610a1357610100808354040283529160200191610a3e565b820191906000526020600020905b815481529060010190602001808311610a2157829003601f168201915b5050505050905090565b6000610a5382611fbd565b610a89576040517fcf4700e400000000000000000000000000000000000000000000000000000000815260040160405180910390fd5b506000908152600660205260409020546001600160a01b031690565b6000610ab082610eb9565b9050336001600160a01b03821614610b0257610acc81336115c0565b610b02576040517fcfb3b94200000000000000000000000000000000000000000000000000000000815260040160405180910390fd5b600082815260066020526040808220805473ffffffffffffffffffffffffffffffffffffffff19166001600160a01b0387811691821790925591518593918516917f8c5be1e5ebec7d5bd14f71427d1e84f3dd0314c0f7b2291e5b200ac8c7c3b92591a4505050565b6000610b7682611fe4565b9050836001600160a01b0316816001600160a01b031614610bc3576040517fa114810000000000000000000000000000000000000000000000000000000000815260040160405180910390fd5b60008281526006602052604090208054338082146001600160a01b03881690911417610c2957610bf386336115c0565b610c29576040517f59c896be00000000000000000000000000000000000000000000000000000000815260040160405180910390fd5b6001600160a01b038516610c69576040517fea553b3400000000000000000000000000000000000000000000000000000000815260040160405180910390fd5b8015610c7457600082555b6001600160a01b038681166000908152600560205260408082208054600019019055918716808252919020805460010190554260a01b17600160e11b17600085815260046020526040902055600160e11b8316610cff5760018401600081815260046020526040902054610cfd576000548114610cfd5760008181526004602052604090208490555b505b83856001600160a01b0316876001600160a01b03167fddf252ad1be2c89b69c2b068fc378daa952ba7f163c4a11628f55a4df523b3ef60405160405180910390a4505050505050565b6000610d5382611fbd565b610dca5760405162461bcd60e51b815260206004820152602d60248201527f437573746f6d546f6b656e2e617373657449644f66546f6b656e3a206e6f6e6560448201527f78697374656e7420746f6b656e0000000000000000000000000000000000000060648201526084015b60405180910390fd5b60096000610dd96004856140cd565b8152602001908152602001600020549050919050565b600d546001600160a01b03163314610e495760405162461bcd60e51b815260206004820181905260248201527f4f776e61626c653a2063616c6c6572206973206e6f7420746865206f776e65726044820152606401610dc1565b6000610e5d600d546001600160a01b031690565b6040519091506001600160a01b038216904780156108fc02916000818181858888f19350505050158015610e95573d6000803e3d6000fd5b5050565b610eb48383836040518060200160405280600081525061114b565b505050565b60006109b082611fe4565b60006001600160a01b038216610f06576040517f8f4eb60400000000000000000000000000000000000000000000000000000000815260040160405180910390fd5b506001600160a01b031660009081526005602052604090205467ffffffffffffffff1690565b600d546001600160a01b03163314610f865760405162461bcd60e51b815260206004820181905260248201527f4f776e61626c653a2063616c6c6572206973206e6f7420746865206f776e65726044820152606401610dc1565b610f90600061205e565b565b600b8054610f9f90614143565b80601f0160208091040260200160405190810160405280929190818152602001828054610fcb90614143565b80156110185780601f10610fed57610100808354040283529160200191611018565b820191906000526020600020905b815481529060010190602001808311610ffb57829003601f168201915b505050505081565b600d546001600160a01b0316331461107a5760405162461bcd60e51b815260206004820181905260248201527f4f776e61626c653a2063616c6c6572206973206e6f7420746865206f776e65726044820152606401610dc1565b8051610e9590600b906020840190612851565b6060600380546109c590614143565b6001600160a01b0382163314156110df576040517fb06307db00000000000000000000000000000000000000000000000000000000815260040160405180910390fd5b3360008181526007602090815260408083206001600160a01b03871680855290835292819020805460ff191686151590811790915590519081529192917f17307eab39ab6107e8899845ad3d59bd9653f200f220920489ca2b5937696c31910160405180910390a35050565b611156848484610b6b565b6001600160a01b0383163b1561118f57611172848484846120bd565b61118f576040516368d2bf6b60e11b815260040160405180910390fd5b50505050565b60606111a082611fbd565b6112125760405162461bcd60e51b815260206004820152602760248201527f437573746f6d546f6b656e2e746f6b656e5552493a206e6f6e6578697374656e60448201527f7420746f6b656e000000000000000000000000000000000000000000000000006064820152608401610dc1565b60008061121e84611376565b9092509050600061123a83611234600488614199565b846106bf565b90506000600a8161124c6004896140cd565b815260200190815260200160002054905060007f00000000000000000000000000000000000000000000000000000000000000006001600160a01b0316634378a6e3836040518263ffffffff1660e01b81526004016112ad91815260200190565b60006040518083038186803b1580156112c557600080fd5b505afa1580156112d9573d6000803e3d6000fd5b505050506040513d6000823e601f3d908101601f191682016040526113019190810190612fa8565b905061134b61130f886121b5565b600b61131b8a856122e7565b61132487612590565b6040516020016113379493929190613a11565b604051602081830303815290604052612590565b60405160200161135b9190613bbd565b60405160208183030381529060405295505050505050919050565b606080600061138484610d48565b9050611391600282614199565b61144b576001600160a01b037f00000000000000000000000000000000000000000000000000000000000000001663e3f24f026113cf6002846140cd565b6040518263ffffffff1660e01b81526004016113ed91815260200190565b60006040518083038186803b15801561140557600080fd5b505afa158015611419573d6000803e3d6000fd5b505050506040513d6000823e601f3d908101601f191682016040526114419190810190612ed7565b9250925050915091565b60006001600160a01b037f000000000000000000000000000000000000000000000000000000000000000016634378a6e36114876002856140cd565b6040518263ffffffff1660e01b81526004016114a591815260200190565b60006040518083038186803b1580156114bd57600080fd5b505afa1580156114d1573d6000803e3d6000fd5b505050506040513d6000823e601f3d908101601f191682016040526114f99190810190612fa8565b905060006001600160a01b037f0000000000000000000000000000000000000000000000000000000000000000166334320bf16115376002866140cd565b84606001516040518363ffffffff1660e01b8152600401611559929190613f69565b60006040518083038186803b15801561157157600080fd5b505afa158015611585573d6000803e3d6000fd5b505050506040513d6000823e601f3d908101601f191682016040526115ad9190810190612e6d565b6060909201519196919550909350505050565b6040517fc45527910000000000000000000000000000000000000000000000000000000081526001600160a01b038381166004830152600091818416917f0000000000000000000000000000000000000000000000000000000000000000169063c45527919060240160206040518083038186803b15801561164157600080fd5b505afa158015611655573d6000803e3d6000fd5b505050506040513d601f19601f820116820180604052508101906116799190612cd1565b6001600160a01b03161415611690575060016109b0565b6001600160a01b0380841660009081526007602090815260408083209386168352929052205460ff165b9392505050565b60005460408051808201909152600d81527f4472617720596f7572204f776e0000000000000000000000000000000000000060208201528652611703816121b5565b604080880191909152517f5b7eea860000000000000000000000000000000000000000000000000000000081526000906001600160a01b037f00000000000000000000000000000000000000000000000000000000000000001690635b7eea8690611772908a90600401613e9d565b602060405180830381600087803b15801561178c57600080fd5b505af11580156117a0573d6000803e3d6000fd5b505050506040513d601f19601f820116820180604052508101906117c491906132aa565b905080600a60006117d66004866140cd565b815260208101919091526040016000205583511580156117f557508251155b80156117ff575084155b1561183f5761180f8160026140e1565b61181a9060016140b5565b600960006118296004866140cd565b8152602081019190915260400160002055611dca565b8351835160009190829061185390836140b5565b11156118ab57600e543410156118ab5760405162461bcd60e51b815260206004820152601860248201527f4d7573742073656e6420746865206d696e7420707269636500000000000000006044820152606401610dc1565b84516000906118bb8360016140b5565b6118c591906140b5565b67ffffffffffffffff8111156118dd576118dd6141ef565b60405190808252806020026020018201604052801561194057816020015b61192d6040518060a0016040528060008152602001606081526020016060815260200160608152602001600081525090565b8152602001906001900390816118fb5790505b509050600092505b8651831015611b3f576000878481518110611965576119656141d9565b6020026020010151905083600014156119955780516119859060016140b5565b6000878152600860205260409020555b60006119a48260000151610d48565b90506119b1600282614199565b611a3e576119c06002826140cd565b8386815181106119d2576119d26141d9565b602002602001015160000181815250506040518060400160405280600481526020017f636f6d7000000000000000000000000000000000000000000000000000000000815250838681518110611a2a57611a2a6141d9565b602002602001015160200181905250611ab7565b6001611a4b6002836140cd565b611a559190614100565b838681518110611a6757611a676141d9565b6020026020010151600001818152505060405180604001604052806005815260200164185cdcd95d60da1b815250838681518110611aa757611aa76141d9565b6020026020010151602001819052505b8160200151838681518110611ace57611ace6141d9565b6020026020010151604001819052508160400151838681518110611af457611af46141d9565b6020026020010151606001819052508160600151838681518110611b1a57611b1a6141d9565b6020026020010151608001818152505050508280611b379061417e565b935050611948565b611b4a600185614100565b818381518110611b5c57611b5c6141d9565b6020026020010151600001818152505060405180604001604052806005815260200164185cdcd95d60da1b815250818381518110611b9c57611b9c6141d9565b60200260200101516020018190525087818381518110611bbe57611bbe6141d9565b60200260200101516080018181525050600092505b8551831015611c3d57858381518110611bee57611bee6141d9565b60200260200101518184846001611c0591906140b5565b611c0f91906140b5565b81518110611c1f57611c1f6141d9565b60200260200101819052508280611c359061417e565b935050611bd3565b6040517ff2c593ee0000000000000000000000000000000000000000000000000000000081526000906001600160a01b037f0000000000000000000000000000000000000000000000000000000000000000169063f2c593ee90611ca5908590600401613da5565b602060405180830381600087803b158015611cbf57600080fd5b505af1158015611cd3573d6000803e3d6000fd5b505050506040513d601f19601f82011682018060405250810190611cf791906132aa565b90506001600160a01b037f000000000000000000000000000000000000000000000000000000000000000016638d07c0826103e8611d37346103cf6140e1565b611d4191906140cd565b6040516001600160e01b031960e084901b16815260048101859052602481018790526044016000604051808303818588803b158015611d7f57600080fd5b505af1158015611d93573d6000803e3d6000fd5b5050505050806002611da591906140e1565b60096000611db460048a6140cd565b8152602081019190915260400160002055505050505b611ddf33611dda60016004614100565b61272d565b600086118015611df35750611df38661283d565b8015611e10575033611e0487610eb9565b6001600160a01b031614155b15611e2d57611e28611e2187610eb9565b600161272d565b611e73565b6004611e3981846140cd565b611e439190614199565b611e5e57600c54611e28906001600160a01b0316600161272d565b611e73611e21600d546001600160a01b031690565b50505050505050565b600d546001600160a01b03163314611ed65760405162461bcd60e51b815260206004820181905260248201527f4f776e61626c653a2063616c6c6572206973206e6f7420746865206f776e65726044820152606401610dc1565b6001600160a01b038116611f525760405162461bcd60e51b815260206004820152602660248201527f4f776e61626c653a206e6577206f776e657220697320746865207a65726f206160448201527f64647265737300000000000000000000000000000000000000000000000000006064820152608401610dc1565b611f5b8161205e565b50565b600d546001600160a01b03163314611fb85760405162461bcd60e51b815260206004820181905260248201527f4f776e61626c653a2063616c6c6572206973206e6f7420746865206f776e65726044820152606401610dc1565b600e55565b60008054821080156109b0575050600090815260046020526040902054600160e01b161590565b60008160005481101561202c57600081815260046020526040902054600160e01b811661202a575b806116ba57506000190160008181526004602052604090205461200c565b505b6040517fdf2d9b4200000000000000000000000000000000000000000000000000000000815260040160405180910390fd5b600d80546001600160a01b0383811673ffffffffffffffffffffffffffffffffffffffff19831681179093556040519116919082907f8be0079c531659141344cd1fd0a4f28419497f9722a3daafe3b4186f6b6457e090600090a35050565b604051630a85bd0160e11b81526000906001600160a01b0385169063150b7a02906120f2903390899088908890600401613d69565b602060405180830381600087803b15801561210c57600080fd5b505af192505050801561213c575060408051601f3d908101601f1916820190925261213991810190612e50565b60015b612197573d80801561216a576040519150601f19603f3d011682016040523d82523d6000602084013e61216f565b606091505b50805161218f576040516368d2bf6b60e11b815260040160405180910390fd5b805181602001fd5b6001600160e01b031916630a85bd0160e11b1490505b949350505050565b6060816121f557505060408051808201909152600181527f3000000000000000000000000000000000000000000000000000000000000000602082015290565b8160005b811561221f57806122098161417e565b91506122189050600a836140cd565b91506121f9565b60008167ffffffffffffffff81111561223a5761223a6141ef565b6040519080825280601f01601f191660200182016040528015612264576020820181803683370190505b5090505b84156121ad57612279600183614100565b9150612286600a86614199565b6122919060306140b5565b60f81b8183815181106122a6576122a66141d9565b60200101907effffffffffffffffffffffffffffffffffffffffffffffffffffffffffffff1916908160001a9053506122e0600a866140cd565b9450612268565b606060006122f48461283d565b612333576040518060400160405280600281526020017f4e6f00000000000000000000000000000000000000000000000000000000000081525061236a565b6040518060400160405280600381526020017f59657300000000000000000000000000000000000000000000000000000000008152505b8351602080860151604080880151905161238695949301613c02565b6040516020818303038152906040529050806000846080015151116123e0576040518060400160405280600b81526020017f28616e6f6e796d6f7573290000000000000000000000000000000000000000008152506124f4565b7f00000000000000000000000000000000000000000000000000000000000000006001600160a01b031663a57cfb246040518163ffffffff1660e01b815260040160206040518083038186803b15801561243957600080fd5b505afa15801561244d573d6000803e3d6000fd5b505050506040513d601f19601f820116820180604052508101906124719190612cd1565b6001600160a01b031663841b9d9785608001516040518263ffffffff1660e01b81526004016124a09190613e5c565b60006040518083038186803b1580156124b857600080fd5b505afa1580156124cc573d6000803e3d6000fd5b505050506040513d6000823e601f3d908101601f191682016040526124f49190810190612e6d565b600086815260086020526040902054612542576040518060400160405280600681526020017f286e6f6e65290000000000000000000000000000000000000000000000000000815250612566565b6000868152600860205260409020546125669061256190600190614100565b6121b5565b60405160200161257893929190613726565b60408051808303601f19018152919052949350505050565b60608151600014156125b057505060408051602081019091526000815290565b600060405180606001604052806040815260200161423160409139905060006003845160026125df91906140b5565b6125e991906140cd565b6125f49060046140e1565b905060006126038260206140b5565b67ffffffffffffffff81111561261b5761261b6141ef565b6040519080825280601f01601f191660200182016040528015612645576020820181803683370190505b509050818152600183018586518101602084015b818310156126b1576003830192508251603f8160121c168501518253600182019150603f81600c1c168501518253600182019150603f8160061c168501518253600182019150603f8116850151825350600101612659565b6003895106600181146126cb57600281146126f75761271f565b7f3d3d00000000000000000000000000000000000000000000000000000000000060011983015261271f565b7f3d000000000000000000000000000000000000000000000000000000000000006000198301525b509398975050505050505050565b6000546001600160a01b038316612770576040517f2e07630000000000000000000000000000000000000000000000000000000000815260040160405180910390fd5b816127a7576040517fb562e8dd00000000000000000000000000000000000000000000000000000000815260040160405180910390fd5b6001600160a01b038316600081815260056020526040902080546801000000000000000185020190554260a01b6001841460e11b1717600082815260046020526040902055808281015b6040516001830192906001600160a01b038716906000907fddf252ad1be2c89b69c2b068fc378daa952ba7f163c4a11628f55a4df523b3ef908290a48082106127f15760005550505050565b600061284a600483614199565b1592915050565b82805461285d90614143565b90600052602060002090601f01602090048101928261287f57600085556128c5565b82601f1061289857805160ff19168380011785556128c5565b828001600101855582156128c5579182015b828111156128c55782518255916020019190600101906128aa565b506128d19291506128d5565b5090565b5b808211156128d157600081556001016128d6565b80356128f581614205565b919050565b80516128f581614205565b600082601f83011261291657600080fd5b8135602061292b61292683614069565b614038565b80838252828201915082860187848660051b890101111561294b57600080fd5b60005b85811015612a2c57813567ffffffffffffffff8082111561296e57600080fd5b9089019060a0828c03601f1901121561298657600080fd5b61298e613f82565b878301358152604080840135838111156129a757600080fd5b6129b58e8b83880101612c0c565b8a84015250606080850135848111156129cd57600080fd5b6129db8f8c83890101612c0c565b83850152506080915081850135848111156129f557600080fd5b612a038f8c83890101612c0c565b918401919091525060a0939093013592810192909252508452928401929084019060010161294e565b5090979650505050505050565b600082601f830112612a4a57600080fd5b81356020612a5a61292683614069565b80838252828201915082860187848660051b8901011115612a7a57600080fd5b60005b85811015612a2c57813567ffffffffffffffff80821115612a9d57600080fd5b908901906040828c03601f1901811315612ab657600080fd5b612abe613fab565b8884013583811115612acf57600080fd5b612add8e8b83880101612c0c565b825250908301359082821115612af257600080fd5b612b008d8a84870101612c0c565b818a015287525050509284019290840190600101612a7d565b600082601f830112612b2a57600080fd5b81356020612b3a61292683614069565b80838252828201915082860187848660051b8901011115612b5a57600080fd5b60005b85811015612a2c57813567ffffffffffffffff80821115612b7d57600080fd5b908901906080828c03601f1901811315612b9657600080fd5b612b9e613fce565b888401358152604084013583811115612bb657600080fd5b612bc48e8b83880101612c0c565b8a8301525060608085013584811115612bdc57600080fd5b612bea8f8c83890101612c0c565b6040840152509190930135908301525084529284019290840190600101612b5d565b600082601f830112612c1d57600080fd5b8135612c2b6129268261408d565b818152846020838601011115612c4057600080fd5b816020850160208301376000918101602001919091529392505050565b600082601f830112612c6e57600080fd5b8151612c7c6129268261408d565b818152846020838601011115612c9157600080fd5b6121ad826020830160208701614117565b805161ffff811681146128f557600080fd5b600060208284031215612cc657600080fd5b81356116ba81614205565b600060208284031215612ce357600080fd5b81516116ba81614205565b60008060408385031215612d0157600080fd5b8235612d0c81614205565b91506020830135612d1c81614205565b809150509250929050565b600080600060608486031215612d3c57600080fd5b8335612d4781614205565b92506020840135612d5781614205565b929592945050506040919091013590565b60008060008060808587031215612d7e57600080fd5b8435612d8981614205565b93506020850135612d9981614205565b925060408501359150606085013567ffffffffffffffff811115612dbc57600080fd5b612dc887828801612c0c565b91505092959194509250565b60008060408385031215612de757600080fd5b8235612df281614205565b915060208301358015158114612d1c57600080fd5b60008060408385031215612e1a57600080fd5b8235612e2581614205565b946020939093013593505050565b600060208284031215612e4557600080fd5b81356116ba8161421a565b600060208284031215612e6257600080fd5b81516116ba8161421a565b600060208284031215612e7f57600080fd5b815167ffffffffffffffff811115612e9657600080fd5b6121ad84828501612c5d565b600060208284031215612eb457600080fd5b813567ffffffffffffffff811115612ecb57600080fd5b6121ad84828501612c0c565b60008060408385031215612eea57600080fd5b825167ffffffffffffffff80821115612f0257600080fd5b612f0e86838701612c5d565b93506020850151915080821115612f2457600080fd5b50612f3185828601612c5d565b9150509250929050565b600080600060608486031215612f5057600080fd5b833567ffffffffffffffff80821115612f6857600080fd5b612f7487838801612c0c565b9450602086013593506040860135915080821115612f9157600080fd5b50612f9e86828701612c0c565b9150509250925092565b600060208284031215612fba57600080fd5b815167ffffffffffffffff80821115612fd257600080fd5b908301906101208286031215612fe757600080fd5b612fef613ff1565b825182811115612ffe57600080fd5b61300a87828601612c5d565b82525060208301518281111561301f57600080fd5b61302b87828601612c5d565b60208301525060408301518281111561304357600080fd5b61304f87828601612c5d565b60408301525060608301518281111561306757600080fd5b61307387828601612c5d565b60608301525060808301518281111561308b57600080fd5b61309787828601612c5d565b6080830152506130a960a084016128fa565b60a082015260c0830151828111156130c057600080fd5b6130cc87828601612c5d565b60c0830152506130de60e08401612ca2565b60e082015261010091506130f3828401612ca2565b91810191909152949350505050565b600080600080600060a0868803121561311a57600080fd5b853567ffffffffffffffff8082111561313257600080fd5b9087019060e0828a03121561314657600080fd5b61314e614015565b82358281111561315d57600080fd5b6131698b828601612c0c565b82525060208301358281111561317e57600080fd5b61318a8b828601612c0c565b6020830152506040830135828111156131a257600080fd5b6131ae8b828601612c0c565b6040830152506060830135828111156131c657600080fd5b6131d28b828601612c0c565b6060830152506131e4608084016128ea565b608082015260a0830135828111156131fb57600080fd5b6132078b828601612c0c565b60a08301525060c08301358281111561321f57600080fd5b61322b8b828601612a39565b60c08301525096506020880135955060408801359450606088013591508082111561325557600080fd5b61326189838a01612b19565b9350608088013591508082111561327757600080fd5b5061328488828901612905565b9150509295509295909350565b6000602082840312156132a357600080fd5b5035919050565b6000602082840312156132bc57600080fd5b5051919050565b600081518084526020808501808196508360051b8101915082860160005b858110156133315782840389528151604081518187526133038288018261333e565b9150508682015191508581038787015261331d818361333e565b9a87019a95505050908401906001016132e1565b5091979650505050505050565b60008151808452613356816020860160208601614117565b601f01601f19169290920160200192915050565b6000815161337c818560208601614117565b9290920192915050565b60008351613398818460208801614117565b7f203c75736520687265663d22230000000000000000000000000000000000000090830190815283516133d281600d840160208801614117565b641110179f0560d91b600d9290910191820152601201949350505050565b60008251613402818460208701614117565b7f3c2f646566733e0a000000000000000000000000000000000000000000000000920191825250600801919050565b60008251613443818460208701614117565b7f3c2f7376673e0a00000000000000000000000000000000000000000000000000920191825250600701919050565b60008251613484818460208701614117565b7f3c6c696e6561724772616469656e742069643d22676f6c64222078313d22302e9201918252507f32222078323d2230222079313d2230222079323d2231223e0a20203c73746f7060208201527f206f66667365743d223025222073746f702d636f6c6f723d222343434142303960408201527f222f3e0a203c73746f70206f66667365743d22353025222073746f702d636f6c60608201527f6f723d222346464631383622202f3e0a203c73746f70206f66667365743d223160808201527f303025222073746f702d636f6c6f723d2223434341423039222f3e0a3c2f6c6960a08201527f6e6561724772616469656e743e0a00000000000000000000000000000000000060c082015260ce01919050565b600082516135a9818460208701614117565b7f3c6c696e6561724772616469656e742069643d2273696c766572222078313d229201918252507f302e32222078323d2230222079313d2230222079323d2231223e0a20203c737460208201527f6f70206f66667365743d223025222073746f702d636f6c6f723d22233830383060408201527f3746222f3e0a203c73746f70206f66667365743d22353025222073746f702d6360608201527f6f6c6f723d222345454630463222202f3e0a203c73746f70206f66667365743d60808201527f2231303025222073746f702d636f6c6f723d2223383038303746222f3e0a3c2f60a08201527f6c696e6561724772616469656e743e0a0000000000000000000000000000000060c082015260d001919050565b600083516136ce818460208801614117565b7f203c7573652066696c7465723d2275726c28236631292220687265663d222300908301908152835161370881601f840160208801614117565b641110179f0560d91b601f9290910191820152602401949350505050565b60008451613738818460208901614117565b80830190507f7d2c7b2274726169745f74797065223a224d696e746572222c2276616c7565228152611d1160f11b806020830152855161377f816022850160208a01614117565b7f227d2c7b2274726169745f74797065223a2252656d6978222c2276616c75652260229390910192830152604282015283516137c2816044840160208801614117565b61227d60f01b6044929091019182015260460195945050505050565b600083516137f0818460208801614117565b80830190507f203c7265637420783d22302220793d2230222077696474683d2231303025222081527f6865696768743d2231303025222066696c6c3d2200000000000000000000000060208201528351613851816034840160208801614117565b641110179f0560d91b60349290910191820152603901949350505050565b60008251613881818460208701614117565b7f203c66696c7465722069643d2266312220783d22302220793d223022207769649201918252507f74683d223230302522206865696768743d2232303025223e0a20203c66654f6660208201527f6673657420726573756c743d226f66664f75742220696e3d22536f757263654160408201527f6c706861222064783d223234222064793d22333222202f3e0a20203c6665476160608201527f75737369616e426c757220726573756c743d22626c75724f75742220696e3d2260808201527f6f66664f75742220737464446576696174696f6e3d22313622202f3e0a20203c60a08201527f6665426c656e6420696e3d22536f75726365477261706869632220696e323d2260c08201527f626c75724f757422206d6f64653d226e6f726d616c22202f3e0a203c2f66696c60e08201527f7465723e0a00000000000000000000000000000000000000000000000000000061010082015261010501919050565b600083516139f4818460208801614117565b835190830190613a08818360208801614117565b01949350505050565b7f7b226e616d65223a2244726177696e67200000000000000000000000000000008152600085516020613a4a8260118601838b01614117565b7f222c226465736372697074696f6e223a220000000000000000000000000000006011928501928301528654602290600090600181811c9080831680613a9157607f831692505b868310811415613aae57634e487b7160e01b855285600452602485fd5b808015613ac25760018114613ad757613b08565b60ff1985168988015283890187019550613b08565b60008e81526020902060005b85811015613afe5781548b82018a0152908401908901613ae3565b505086848a010195505b5050505050613baf613ba1613b9b613b4c613b46857f222c2261747472696275746573223a5b00000000000000000000000000000000815260100190565b8c61336a565b7f5d2c22696d616765223a22646174613a696d6167652f7376672b786d6c3b626181527f736536342c000000000000000000000000000000000000000000000000000000602082015260250190565b8961336a565b61227d60f01b815260020190565b9a9950505050505050505050565b7f646174613a6170706c69636174696f6e2f6a736f6e3b6261736536342c000000815260008251613bf581601d850160208701614117565b91909101601d0192915050565b7f7b2274726169745f74797065223a225072696d617279222c2276616c7565223a8152601160f91b602082015260008551613c44816021850160208a01614117565b7f227d2c7b2274726169745f74797065223a2247726f7570222c2276616c756522602191840191820152611d1160f11b60418201528551613c8c816043840160208a01614117565b7f227d2c7b2274726169745f74797065223a2243617465676f7279222c2276616c604392909101918201527f7565223a2200000000000000000000000000000000000000000000000000000060638201528451613cf0816068840160208901614117565b7f227d2c7b2274726169745f74797065223a2244726177696e67204964222c2276606892909101918201527f616c7565223a22000000000000000000000000000000000000000000000000006088820152613d5e613d51608f83018661336a565b601160f91b815260010190565b979650505050505050565b60006001600160a01b03808716835280861660208401525083604083015260806060830152613d9b608083018461333e565b9695505050505050565b60006020808301818452808551808352604092508286019150828160051b87010184880160005b83811015613e4e57603f19898403018552815160a08151855288820151818a870152613dfa8287018261333e565b9150508782015185820389870152613e12828261333e565b91505060608083015186830382880152613e2c838261333e565b6080948501519790940196909652505094870194925090860190600101613dcc565b509098975050505050505050565b6020815260006116ba602083018461333e565b604081526000613e82604083018561333e565b8281036020840152613e94818561333e565b95945050505050565b602081526000825160e06020840152613eba61010084018261333e565b90506020840151601f1980858403016040860152613ed8838361333e565b92506040860151915080858403016060860152613ef5838361333e565b92506060860151915080858403016080860152613f12838361333e565b925060808601519150613f3060a08601836001600160a01b03169052565b60a08601519150808584030160c0860152613f4b838361333e565b925060c08601519150808584030160e086015250613e9482826132c3565b8281526040602082015260006121ad604083018461333e565b60405160a0810167ffffffffffffffff81118282101715613fa557613fa56141ef565b60405290565b6040805190810167ffffffffffffffff81118282101715613fa557613fa56141ef565b6040516080810167ffffffffffffffff81118282101715613fa557613fa56141ef565b604051610120810167ffffffffffffffff81118282101715613fa557613fa56141ef565b60405160e0810167ffffffffffffffff81118282101715613fa557613fa56141ef565b604051601f8201601f1916810167ffffffffffffffff81118282101715614061576140616141ef565b604052919050565b600067ffffffffffffffff821115614083576140836141ef565b5060051b60200190565b600067ffffffffffffffff8211156140a7576140a76141ef565b50601f01601f191660200190565b600082198211156140c8576140c86141ad565b500190565b6000826140dc576140dc6141c3565b500490565b60008160001904831182151516156140fb576140fb6141ad565b500290565b600082821015614112576141126141ad565b500390565b60005b8381101561413257818101518382015260200161411a565b8381111561118f5750506000910152565b600181811c9082168061415757607f821691505b6020821081141561417857634e487b7160e01b600052602260045260246000fd5b50919050565b6000600019821415614192576141926141ad565b5060010190565b6000826141a8576141a86141c3565b500690565b634e487b7160e01b600052601160045260246000fd5b634e487b7160e01b600052601260045260246000fd5b634e487b7160e01b600052603260045260246000fd5b634e487b7160e01b600052604160045260246000fd5b6001600160a01b0381168114611f5b57600080fd5b6001600160e01b031981168114611f5b57600080fdfe4142434445464748494a4b4c4d4e4f505152535455565758595a6162636465666768696a6b6c6d6e6f707172737475767778797a303132333435363738392b2f3c7376672076696577426f783d2230203020313032342031303234222020786d6c6e733d22687474703a2f2f7777772e77332e6f72672f323030302f737667223e0a3c646566733e0aa26469706673582212206b0ca5b3ce70d0e3551e1d6eb5d21f32ca465c272754c4a45b4790f3c51c976564736f6c6343000806003360a06040523480156200001157600080fd5b50604051620025e6380380620025e68339810160408190526200003491620000ce565b606081901b6001600160601b0319166080528062000052336200007c565b5050600354600480546001600160a01b0319166001600160a01b0390921691909117905562000100565b600380546001600160a01b038381166001600160a01b0319831681179093556040519116919082907f8be0079c531659141344cd1fd0a4f28419497f9722a3daafe3b4186f6b6457e090600090a35050565b600060208284031215620000e157600080fd5b81516001600160a01b0381168114620000f957600080fd5b9392505050565b60805160601c6124c06200012660003960008181610215015261130401526124c06000f3fe6080604052600436106101445760003560e01c806374c83268116100c0578063e3f24f0211610074578063f2c593ee11610059578063f2c593ee146103e2578063f2fde38b14610402578063f851a4401461042257600080fd5b8063e3f24f021461039e578063ea575c61146103cc57600080fd5b80638c40188e116100a55780638c40188e146102db5780638d07c0821461036d5780638da5cb5b1461038057600080fd5b806374c83268146102b1578063893d20e8146102c657600080fd5b80634854078f116101175780635c42d079116100fc5780635c42d0791461024f578063704b6c021461027c578063715018a61461029c57600080fd5b80634854078f146101e3578063597a0e361461020357600080fd5b806301ffc9a7146101495780630e2600161461017e57806315ea29be146101ac57806318160ddd146101ce575b600080fd5b34801561015557600080fd5b50610169610164366004611c2e565b610442565b60405190151581526020015b60405180910390f35b34801561018a57600080fd5b5061019e610199366004611a7a565b610513565b604051908152602001610175565b3480156101b857600080fd5b506101cc6101c7366004611dc8565b610926565b005b3480156101da57600080fd5b5060065461019e565b3480156101ef57600080fd5b5061019e6101fe366004611c58565b6109db565b34801561020f57600080fd5b506102377f000000000000000000000000000000000000000000000000000000000000000081565b6040516001600160a01b039091168152602001610175565b34801561025b57600080fd5b5061026f61026a366004611daf565b610a54565b6040516101759190612246565b34801561028857600080fd5b506101cc610297366004611a7a565b610b12565b3480156102a857600080fd5b506101cc610b9b565b3480156102bd57600080fd5b5060005461019e565b3480156102d257600080fd5b50610237610c01565b3480156102e757600080fd5b5061026f60408051606080820183528082526020820152600091810191909152506040805160a081018252600460608201908152630636f6d760e41b6080830152815281518083018352600e81527f417373657420436f6d706f736572000000000000000000000000000000000000602082810191909152820152309181019190915290565b6101cc61037b366004611df8565b610c1a565b34801561038c57600080fd5b506003546001600160a01b0316610237565b3480156103aa57600080fd5b506103be6103b9366004611daf565b610d95565b604051610175929190612218565b3480156103d857600080fd5b5061019e60065481565b3480156103ee57600080fd5b5061019e6103fd366004611ab4565b6112ff565b34801561040e57600080fd5b506101cc61041d366004611a7a565b6116cb565b34801561042e57600080fd5b50600454610237906001600160a01b031681565b60006001600160e01b031982167f6ef8e5880000000000000000000000000000000000000000000000000000000014806104a557506001600160e01b031982167f1137dcec00000000000000000000000000000000000000000000000000000000145b806104d957506001600160e01b031982167f739eba3b00000000000000000000000000000000000000000000000000000000145b8061050d57506001600160e01b031982167f01ffc9a700000000000000000000000000000000000000000000000000000000145b92915050565b600080826001600160a01b0316638c40188e6040518163ffffffff1660e01b815260040160006040518083038186803b15801561054f57600080fd5b505afa158015610563573d6000803e3d6000fd5b505050506040513d6000823e601f3d908101601f1916820160405261058b9190810190611cf1565b9050600181600001516040516105a19190612152565b9081526020016040518091039020549150816000146107d757816105c481612394565b6000818152600260209081526040918290205482517f893d20e800000000000000000000000000000000000000000000000000000000815292519396506001600160a01b03169350839263893d20e8926004808201939291829003018186803b15801561063057600080fd5b505afa158015610644573d6000803e3d6000fd5b505050506040513d601f19601f820116820180604052508101906106689190611a97565b6001600160a01b0316846001600160a01b031663893d20e86040518163ffffffff1660e01b815260040160206040518083038186803b1580156106aa57600080fd5b505afa1580156106be573d6000803e3d6000fd5b505050506040513d601f19601f820116820180604052508101906106e29190611a97565b6001600160a01b0316146107635760405162461bcd60e51b815260206004820152603260248201527f4173736574436f6d706f7365723a726567697374657250726f76696465722c2060448201527f616c72656164792072656769737465726564000000000000000000000000000060648201526084015b60405180910390fd5b600083815260026020908152604091829020805473ffffffffffffffffffffffffffffffffffffffff19166001600160a01b03881617905581513381529081018590527f4141f33bf490d9190a43ac8dc2fd923fdd3a01d78b82d1fa85f803a91f4bf4ae910160405180910390a150610920565b80604001516001600160a01b0316836001600160a01b0316146108625760405162461bcd60e51b815260206004820152603060248201527f4173736574436f6d706f7365723a726567697374657250726f76696465722c2060448201527f61646472657373206d69736d6174636800000000000000000000000000000000606482015260840161075a565b6000805484916002918180610876836123e0565b91905055815260200190815260200160002060006101000a8154816001600160a01b0302191690836001600160a01b03160217905550600054600182600001516040516108c39190612152565b908152604051908190036020019020556000546108e29060019061234d565b60408051338152602081018390529193507f90c9734131c1e4fb36cde2d71e6feb93fb258f71be8a85411c173d25e1516e8091015b60405180910390a15b50919050565b6003546001600160a01b031633148061094957506004546001600160a01b031633145b6109bb5760405162461bcd60e51b815260206004820152602660248201527f4173736574436f6d706f7365723a2063616c6c6572206973206e6f742074686560448201527f2061646d696e0000000000000000000000000000000000000000000000000000606482015260840161075a565b600091825260056020526040909120805460ff1916911515919091179055565b6000806001836040516109ee9190612152565b90815260200160405180910390205490506000811183604051602001610a14919061216e565b60405160208183030381529060405290610a415760405162461bcd60e51b815260040161075a9190612205565b50610a4d60018261234d565b9392505050565b604080516060808201835280825260208201526000918101919091526000828152600260205260408082205481517f8c40188e00000000000000000000000000000000000000000000000000000000815291516001600160a01b03909116928392638c40188e9260048083019392829003018186803b158015610ad657600080fd5b505afa158015610aea573d6000803e3d6000fd5b505050506040513d6000823e601f3d908101601f19168201604052610a4d9190810190611cf1565b6003546001600160a01b03163314610b6c5760405162461bcd60e51b815260206004820181905260248201527f4f776e61626c653a2063616c6c6572206973206e6f7420746865206f776e6572604482015260640161075a565b6004805473ffffffffffffffffffffffffffffffffffffffff19166001600160a01b0392909216919091179055565b6003546001600160a01b03163314610bf55760405162461bcd60e51b815260206004820181905260248201527f4f776e61626c653a2063616c6c6572206973206e6f7420746865206f776e6572604482015260640161075a565b610bff60006117ad565b565b6000610c156003546001600160a01b031690565b905090565b60008281526007602052604081205490610c348234612339565b90508183108015610c455750600182115b15610c6257610c5560018361234d565b610c5f9034612339565b90505b80610c6d5750505050565b60005b82811015610d8e5783811415610c8557610d7c565b600085815260086020908152604080832084845282528083208151808301909252546fffffffffffffffffffffffffffffffff808216808452600160801b90920416928201929092529190610cd990610a54565b604080820151602085015191517f8d07c0820000000000000000000000000000000000000000000000000000000081526fffffffffffffffffffffffffffffffff90921660048301526402540be40060248301529192506001600160a01b0390911690638d07c0829086906044016000604051808303818588803b158015610d6057600080fd5b505af1158015610d74573d6000803e3d6000fd5b505050505050505b80610d86816123e0565b915050610c70565b5050505050565b6000818152600560205260409020546060908190839060ff16151560011415610e265760405162461bcd60e51b815260206004820152602a60248201527f4173736574436f6d706f7365723a207468697320636f6d706f736974696f6e2060448201527f697320646961626c656400000000000000000000000000000000000000000000606482015260840161075a565b600084815260076020526040812054906060908190819081908567ffffffffffffffff811115610e5857610e58612451565b604051908082528060200260200182016040528015610e81578160200160208202803683370190505b50905060005b8681101561129f5760008b815260086020908152604080832084845282528083208151808301909252546fffffffffffffffffffffffffffffffff808216808452600160801b90920416928201929092529190610ee390610a54565b905080604001516001600160a01b031663e3f24f0283602001516fffffffffffffffffffffffffffffffff166040518263ffffffff1660e01b8152600401610f2d91815260200190565b60006040518083038186803b158015610f4557600080fd5b505afa158015610f59573d6000803e3d6000fd5b505050506040513d6000823e601f3d908101601f19168201604052610f819190810190611c8d565b6040519197509550600090610f9a908790602001612152565b60408051601f1981840301815291905280516020909101209050600160005b85811015610ffd5782878281518110610fd457610fd461243b565b60200260200101511415610feb5760009150610ffd565b80610ff5816123e0565b915050610fb9565b508015611048578988604051602001611017929190611e46565b60405160208183030381529060405299508186868151811061103b5761103b61243b565b6020026020010181815250505b5050868560405160200161105d929190611e75565b60408051601f1981840301815291815260008f815260096020908152828220878352905290812080549299509091611094906123ab565b80601f01602080910402602001604051908101604052809291908181526020018280546110c0906123ab565b801561110d5780601f106110e25761010080835404028352916020019161110d565b820191906000526020600020905b8154815290600101906020018083116110f057829003601f168201915b505050505090506000815111156111435787816040516020016111319291906120ec565b60405160208183030381529060405297505b60008e8152600a6020908152604080832087845290915290208054611167906123ab565b80601f0160208091040260200160405190810160405280929190818152602001828054611193906123ab565b80156111e05780601f106111b5576101008083540402835291602001916111e0565b820191906000526020600020905b8154815290600101906020018083116111c357829003601f168201915b50505050509050600081511115611216578781604051602001611204929190611fc5565b60405160208183030381529060405297505b5060008d8152600b60209081526040808320868452909152902054801561126757876112448260ff1661180c565b604051602001611255929190611edb565b60405160208183030381529060405297505b50866040516020016112799190611f84565b604051602081830303815290604052965050508080611297906123e0565b915050610e87565b506112a98a61180c565b6040516020016112b991906121d9565b60405160208183030381529060405291508482856040516020016112df9392919061202b565b60408051601f198184030181529190529850909650505050505050915091565b6000807f00000000000000000000000000000000000000000000000000000000000000006001600160a01b031663a57cfb246040518163ffffffff1660e01b815260040160206040518083038186803b15801561135b57600080fd5b505afa15801561136f573d6000803e3d6000fd5b505050506040513d601f19601f820116820180604052508101906113939190611a97565b6006805491925060006113a5836123e0565b9091555083516000828152600760205260408120919091559092505b83518110156116945760008482815181106113de576113de61243b565b60200260200101519050600081600001519050600061140083602001516109db565b6040805180820182526fffffffffffffffffffffffffffffffff8084168252858116602080840191825260008c8152600882528581208b825290915293909320915192518116600160801b0292169190911790556060840151805191925090156115555760405163c16e50ef60e01b81526001600160a01b0387169063c16e50ef90611490908490600401612205565b60206040518083038186803b1580156114a857600080fd5b505afa1580156114bc573d6000803e3d6000fd5b505050506040513d601f19601f820116820180604052508101906114e09190611c11565b61152c5760405162461bcd60e51b815260206004820152601b60248201527f72656769737465723a20496e76616c6964207472616e73666f726d0000000000604482015260640161075a565b60008781526009602090815260408083208884528252909120825161155392840190611946565b505b60408401518051156116525760405163c16e50ef60e01b81526001600160a01b0388169063c16e50ef9061158d908490600401612205565b60206040518083038186803b1580156115a557600080fd5b505afa1580156115b9573d6000803e3d6000fd5b505050506040513d601f19601f820116820180604052508101906115dd9190611c11565b6116295760405162461bcd60e51b815260206004820152601660248201527f72656769737465723a20496e76616c69642066696c6c00000000000000000000604482015260640161075a565b6000888152600a602090815260408083208984528252909120825161165092840190611946565b505b60808501511561167c5760808501516000898152600b602090815260408083208a84529091529020555b5050505050808061168c906123e0565b9150506113c1565b5060408051338152602081018490527fb6b49fb493aab716d37ffe3ad9f192adb9d7c116b0ca7423db8d0e56a1dc93b29101610917565b6003546001600160a01b031633146117255760405162461bcd60e51b815260206004820181905260248201527f4f776e61626c653a2063616c6c6572206973206e6f7420746865206f776e6572604482015260640161075a565b6001600160a01b0381166117a15760405162461bcd60e51b815260206004820152602660248201527f4f776e61626c653a206e6577206f776e657220697320746865207a65726f206160448201527f6464726573730000000000000000000000000000000000000000000000000000606482015260840161075a565b6117aa816117ad565b50565b600380546001600160a01b0383811673ffffffffffffffffffffffffffffffffffffffff19831681179093556040519116919082907f8be0079c531659141344cd1fd0a4f28419497f9722a3daafe3b4186f6b6457e090600090a35050565b60608161184c57505060408051808201909152600181527f3000000000000000000000000000000000000000000000000000000000000000602082015290565b8160005b81156118765780611860816123e0565b915061186f9050600a83612339565b9150611850565b60008167ffffffffffffffff81111561189157611891612451565b6040519080825280601f01601f1916602001820160405280156118bb576020820181803683370190505b5090505b841561193e576118d060018361234d565b91506118dd600a866123fb565b6118e8906030612321565b60f81b8183815181106118fd576118fd61243b565b60200101907effffffffffffffffffffffffffffffffffffffffffffffffffffffffffffff1916908160001a905350611937600a86612339565b94506118bf565b949350505050565b828054611952906123ab565b90600052602060002090601f01602090048101928261197457600085556119ba565b82601f1061198d57805160ff19168380011785556119ba565b828001600101855582156119ba579182015b828111156119ba57825182559160200191906001019061199f565b506119c69291506119ca565b5090565b5b808211156119c657600081556001016119cb565b600082601f8301126119f057600080fd5b8135611a036119fe826122f9565b6122c8565b818152846020838601011115611a1857600080fd5b816020850160208301376000918101602001919091529392505050565b600082601f830112611a4657600080fd5b8151611a546119fe826122f9565b818152846020838601011115611a6957600080fd5b61193e826020830160208701612364565b600060208284031215611a8c57600080fd5b8135610a4d81612467565b600060208284031215611aa957600080fd5b8151610a4d81612467565b60006020808385031215611ac757600080fd5b823567ffffffffffffffff80821115611adf57600080fd5b818501915085601f830112611af357600080fd5b813581811115611b0557611b05612451565b8060051b611b148582016122c8565b8281528581019085870183870188018b1015611b2f57600080fd5b600093505b84841015611c0357803586811115611b4b57600080fd5b870160a0818d03601f19011215611b6157600080fd5b611b6961229f565b898201358152604082013588811115611b8157600080fd5b611b8f8e8c838601016119df565b8b83015250606082013588811115611ba657600080fd5b611bb48e8c838601016119df565b60408301525060808083013589811115611bcd57600080fd5b611bdb8f8d838701016119df565b60608401525060a0929092013591810191909152835260019390930192918701918701611b34565b509998505050505050505050565b600060208284031215611c2357600080fd5b8151610a4d8161247c565b600060208284031215611c4057600080fd5b81356001600160e01b031981168114610a4d57600080fd5b600060208284031215611c6a57600080fd5b813567ffffffffffffffff811115611c8157600080fd5b61193e848285016119df565b60008060408385031215611ca057600080fd5b825167ffffffffffffffff80821115611cb857600080fd5b611cc486838701611a35565b93506020850151915080821115611cda57600080fd5b50611ce785828601611a35565b9150509250929050565b600060208284031215611d0357600080fd5b815167ffffffffffffffff80821115611d1b57600080fd5b9083019060608286031215611d2f57600080fd5b604051606081018181108382111715611d4a57611d4a612451565b604052825182811115611d5c57600080fd5b611d6887828601611a35565b825250602083015182811115611d7d57600080fd5b611d8987828601611a35565b60208301525060408301519250611d9f83612467565b6040810192909252509392505050565b600060208284031215611dc157600080fd5b5035919050565b60008060408385031215611ddb57600080fd5b823591506020830135611ded8161247c565b809150509250929050565b60008060408385031215611e0b57600080fd5b50508035926020909101359150565b60008151808452611e32816020860160208601612364565b601f01601f19169290920160200192915050565b60008351611e58818460208801612364565b835190830190611e6c818360208801612364565b01949350505050565b60008351611e87818460208801612364565b7f203c75736520687265663d2223000000000000000000000000000000000000009083019081528351611ec181600d840160208801612364565b601160f91b600d9290910191820152600e01949350505050565b60008351611eed818460208801612364565b80830190507f207374726f6b653d22626c61636b22207374726f6b652d6c696e656361703d2281527f726f756e6422207374726f6b652d77696474683d22000000000000000000000060208201528351611f4e816035840160208801612364565b7f707822000000000000000000000000000000000000000000000000000000000060359290910191820152603801949350505050565b60008251611f96818460208701612364565b7f202f3e0a00000000000000000000000000000000000000000000000000000000920191825250600401919050565b60008351611fd7818460208801612364565b7f2066696c6c3d22000000000000000000000000000000000000000000000000009083019081528351612011816007840160208801612364565b601160f91b60079290910191820152600801949350505050565b6000845161203d818460208901612364565b7f3c672069643d22000000000000000000000000000000000000000000000000009083019081528451612077816007840160208901612364565b7f22203e0a000000000000000000000000000000000000000000000000000000006007929091019182015283516120b581600b840160208801612364565b7f3c2f673e0a000000000000000000000000000000000000000000000000000000600b929091019182015260100195945050505050565b600083516120fe818460208801612364565b7f207472616e73666f726d3d220000000000000000000000000000000000000000908301908152835161213881600c840160208801612364565b601160f91b600c9290910191820152600d01949350505050565b60008251612164818460208701612364565b9190910192915050565b7f417373657374436f6d706f7365723a67657450726f766964657249642c20746881527f652070726f766964657220646f6573206e6f742065786973743a0000000000006020820152600082516121cc81603a850160208701612364565b91909101603a0192915050565b630636f6d760e41b8152600082516121f8816004850160208701612364565b9190910160040192915050565b602081526000610a4d6020830184611e1a565b60408152600061222b6040830185611e1a565b828103602084015261223d8185611e1a565b95945050505050565b6020815260008251606060208401526122626080840182611e1a565b90506020840151601f1984830301604085015261227f8282611e1a565b9150506001600160a01b0360408501511660608401528091505092915050565b60405160a0810167ffffffffffffffff811182821017156122c2576122c2612451565b60405290565b604051601f8201601f1916810167ffffffffffffffff811182821017156122f1576122f1612451565b604052919050565b600067ffffffffffffffff82111561231357612313612451565b50601f01601f191660200190565b600082198211156123345761233461240f565b500190565b60008261234857612348612425565b500490565b60008282101561235f5761235f61240f565b500390565b60005b8381101561237f578181015183820152602001612367565b8381111561238e576000848401525b50505050565b6000816123a3576123a361240f565b506000190190565b600181811c908216806123bf57607f821691505b6020821081141561092057634e487b7160e01b600052602260045260246000fd5b60006000198214156123f4576123f461240f565b5060010190565b60008261240a5761240a612425565b500690565b634e487b7160e01b600052601160045260246000fd5b634e487b7160e01b600052601260045260246000fd5b634e487b7160e01b600052603260045260246000fd5b634e487b7160e01b600052604160045260246000fd5b6001600160a01b03811681146117aa57600080fd5b80151581146117aa57600080fdfea26469706673582212205189dda85c4a4a5218fcaeefd3edda48048f51a050afa7d72a7c7cb302ccc08364736f6c6343000806003360a060405234801561001057600080fd5b5060405161162238038061162283398101604081905261002f9161009d565b6100383361004d565b60601b6001600160601b0319166080526100cd565b600080546001600160a01b038381166001600160a01b0319831681178455604051919092169283917f8be0079c531659141344cd1fd0a4f28419497f9722a3daafe3b4186f6b6457e09190a35050565b6000602082840312156100af57600080fd5b81516001600160a01b03811681146100c657600080fd5b9392505050565b60805160601c6114f1610131600039600081816101cc0152818161044a015281816104e2015281816105770152818161065a0152818161071f01528181610843015281816108da01528181610a4a01528181610ade0152610b9301526114f16000f3fe6080604052600436106100f35760003560e01c80637805544c1161008a5780638da5cb5b116100595780638da5cb5b1461026a578063d4f056d41461033b578063e3f24f021461035b578063f2fde38b1461038957600080fd5b80637805544c1461024a578063893d20e81461026a5780638c40188e146102885780638d07c0821461032857600080fd5b8063515f28cb116100c6578063515f28cb1461019a578063597a0e36146101ba5780635c73924c14610206578063715018a61461023357600080fd5b806301ffc9a7146100f857806306545a931461012d57806318160ddd14610157578063468823e21461017a575b600080fd5b34801561010457600080fd5b50610118610113366004610e61565b6103a9565b60405190151581526020015b60405180910390f35b34801561013957600080fd5b50610142610446565b60405163ffffffff9091168152602001610124565b34801561016357600080fd5b5061016c6104de565b604051908152602001610124565b34801561018657600080fd5b5061016c610195366004610f59565b610571565b3480156101a657600080fd5b506101426101b5366004610ef5565b610627565b3480156101c657600080fd5b506101ee7f000000000000000000000000000000000000000000000000000000000000000081565b6040516001600160a01b039091168152602001610124565b34801561021257600080fd5b506102266102213660046111d1565b6106e8565b6040516101249190611237565b34801561023f57600080fd5b506102486107a5565b005b34801561025657600080fd5b50610226610265366004610fd1565b610810565b34801561027657600080fd5b506000546001600160a01b03166101ee565b34801561029457600080fd5b5061031b60408051606080820183528082526020820152600091810191909152506040805160a08101825260056060820190815264185cdcd95d60da1b6080830152815281518083018352600b81527f41737365742053746f7265000000000000000000000000000000000000000000602082810191909152820152309181019190915290565b6040516101249190611314565b6102486103363660046111af565b6108ce565b34801561034757600080fd5b50610142610356366004610e8b565b610a17565b34801561036757600080fd5b5061037b61037636600461117d565b610acf565b60405161012492919061124a565b34801561039557600080fd5b506102486103a4366004610e44565b610c3d565b60006001600160e01b031982167f739eba3b00000000000000000000000000000000000000000000000000000000148061040c57506001600160e01b031982167fe105c16e00000000000000000000000000000000000000000000000000000000145b8061044057506001600160e01b031982167f01ffc9a700000000000000000000000000000000000000000000000000000000145b92915050565b60007f00000000000000000000000000000000000000000000000000000000000000006001600160a01b03166306545a936040518163ffffffff1660e01b815260040160206040518083038186803b1580156104a157600080fd5b505afa1580156104b5573d6000803e3d6000fd5b505050506040513d601f19601f820116820180604052508101906104d991906111ee565b905090565b60007f00000000000000000000000000000000000000000000000000000000000000006001600160a01b031663a0aead4d6040518163ffffffff1660e01b815260040160206040518083038186803b15801561053957600080fd5b505afa15801561054d573d6000803e3d6000fd5b505050506040513d601f19601f820116820180604052508101906104d99190611196565b600060017f00000000000000000000000000000000000000000000000000000000000000006001600160a01b031663468823e28686866040518463ffffffff1660e01b81526004016105c593929190611278565b60206040518083038186803b1580156105dd57600080fd5b505afa1580156105f1573d6000803e3d6000fd5b505050506040513d601f19601f820116820180604052508101906106159190611196565b61061f9190611421565b949350505050565b6040517f515f28cb0000000000000000000000000000000000000000000000000000000081526000906001600160a01b037f0000000000000000000000000000000000000000000000000000000000000000169063515f28cb90610691908690869060040161124a565b60206040518083038186803b1580156106a957600080fd5b505afa1580156106bd573d6000803e3d6000fd5b505050506040513d601f19601f820116820180604052508101906106e191906111ee565b9392505050565b6040517f5c73924c00000000000000000000000000000000000000000000000000000000815263ffffffff821660048201526060907f00000000000000000000000000000000000000000000000000000000000000006001600160a01b031690635c73924c9060240160006040518083038186803b15801561076957600080fd5b505afa15801561077d573d6000803e3d6000fd5b505050506040513d6000823e601f3d908101601f191682016040526104409190810190610ec0565b6000546001600160a01b031633146108045760405162461bcd60e51b815260206004820181905260248201527f4f776e61626c653a2063616c6c6572206973206e6f7420746865206f776e657260448201526064015b60405180910390fd5b61080e6000610d1f565b565b6040517f7805544c0000000000000000000000000000000000000000000000000000000081526060906001600160a01b037f00000000000000000000000000000000000000000000000000000000000000001690637805544c9061087a90869086906004016112ec565b60006040518083038186803b15801561089257600080fd5b505afa1580156108a6573d6000803e3d6000fd5b505050506040513d6000823e601f3d908101601f191682016040526106e19190810190610ec0565b60006001600160a01b037f000000000000000000000000000000000000000000000000000000000000000016634378a6e361090a856001611409565b6040518263ffffffff1660e01b815260040161092891815260200190565b60006040518083038186803b15801561094057600080fd5b505afa158015610954573d6000803e3d6000fd5b505050506040513d6000823e601f3d908101601f1916820160405261097c9190810190611023565b60a0810151604051919250906001600160a01b038216903480156108fc02916000818181858888f193505050501580156109ba573d6000803e3d6000fd5b506040805180820182526005815264185cdcd95d60da1b602082015290517fbb0eeee27936db25b1a46a81ab6d97326392a3e961efa7273d5d756d7a2e1cad91610a09918790859034906112b4565b60405180910390a150505050565b6040517fd4f056d40000000000000000000000000000000000000000000000000000000081526000906001600160a01b037f0000000000000000000000000000000000000000000000000000000000000000169063d4f056d490610a7f908590600401611237565b60206040518083038186803b158015610a9757600080fd5b505afa158015610aab573d6000803e3d6000fd5b505050506040513d601f19601f8201168201806040525081019061044091906111ee565b60608060006001600160a01b037f000000000000000000000000000000000000000000000000000000000000000016634378a6e3610b0e866001611409565b6040518263ffffffff1660e01b8152600401610b2c91815260200190565b60006040518083038186803b158015610b4457600080fd5b505afa158015610b58573d6000803e3d6000fd5b505050506040513d6000823e601f3d908101601f19168201604052610b809190810190611023565b6060810151925090506001600160a01b037f0000000000000000000000000000000000000000000000000000000000000000166334320bf1610bc3866001611409565b846040518363ffffffff1660e01b8152600401610be192919061136d565b60006040518083038186803b158015610bf957600080fd5b505afa158015610c0d573d6000803e3d6000fd5b505050506040513d6000823e601f3d908101601f19168201604052610c359190810190610ec0565b925050915091565b6000546001600160a01b03163314610c975760405162461bcd60e51b815260206004820181905260248201527f4f776e61626c653a2063616c6c6572206973206e6f7420746865206f776e657260448201526064016107fb565b6001600160a01b038116610d135760405162461bcd60e51b815260206004820152602660248201527f4f776e61626c653a206e6577206f776e657220697320746865207a65726f206160448201527f646472657373000000000000000000000000000000000000000000000000000060648201526084016107fb565b610d1c81610d1f565b50565b600080546001600160a01b038381167fffffffffffffffffffffffff0000000000000000000000000000000000000000831681178455604051919092169283917f8be0079c531659141344cd1fd0a4f28419497f9722a3daafe3b4186f6b6457e09190a35050565b8051610d9281611494565b919050565b600082601f830112610da857600080fd5b8151610dbb610db6826113e1565b6113b0565b818152846020838601011115610dd057600080fd5b61061f826020830160208701611438565b600082601f830112610df257600080fd5b8135610e00610db6826113e1565b818152846020838601011115610e1557600080fd5b816020850160208301376000918101602001919091529392505050565b805161ffff81168114610d9257600080fd5b600060208284031215610e5657600080fd5b81356106e181611494565b600060208284031215610e7357600080fd5b81356001600160e01b0319811681146106e157600080fd5b600060208284031215610e9d57600080fd5b813567ffffffffffffffff811115610eb457600080fd5b61061f84828501610de1565b600060208284031215610ed257600080fd5b815167ffffffffffffffff811115610ee957600080fd5b61061f84828501610d97565b60008060408385031215610f0857600080fd5b823567ffffffffffffffff80821115610f2057600080fd5b610f2c86838701610de1565b93506020850135915080821115610f4257600080fd5b50610f4f85828601610de1565b9150509250929050565b600080600060608486031215610f6e57600080fd5b833567ffffffffffffffff80821115610f8657600080fd5b610f9287838801610de1565b94506020860135915080821115610fa857600080fd5b50610fb586828701610de1565b9250506040840135610fc6816114a9565b809150509250925092565b60008060408385031215610fe457600080fd5b823567ffffffffffffffff811115610ffb57600080fd5b61100785828601610de1565b9250506020830135611018816114a9565b809150509250929050565b60006020828403121561103557600080fd5b815167ffffffffffffffff8082111561104d57600080fd5b90830190610120828603121561106257600080fd5b61106a611386565b82518281111561107957600080fd5b61108587828601610d97565b82525060208301518281111561109a57600080fd5b6110a687828601610d97565b6020830152506040830151828111156110be57600080fd5b6110ca87828601610d97565b6040830152506060830151828111156110e257600080fd5b6110ee87828601610d97565b60608301525060808301518281111561110657600080fd5b61111287828601610d97565b60808301525061112460a08401610d87565b60a082015260c08301518281111561113b57600080fd5b61114787828601610d97565b60c08301525061115960e08401610e32565b60e0820152610100915061116e828401610e32565b91810191909152949350505050565b60006020828403121561118f57600080fd5b5035919050565b6000602082840312156111a857600080fd5b5051919050565b600080604083850312156111c257600080fd5b50508035926020909101359150565b6000602082840312156111e357600080fd5b81356106e1816114a9565b60006020828403121561120057600080fd5b81516106e1816114a9565b60008151808452611223816020860160208601611438565b601f01601f19169290920160200192915050565b6020815260006106e1602083018461120b565b60408152600061125d604083018561120b565b828103602084015261126f818561120b565b95945050505050565b60608152600061128b606083018661120b565b828103602084015261129d818661120b565b91505063ffffffff83166040830152949350505050565b6080815260006112c7608083018761120b565b6020830195909552506001600160a01b03929092166040830152606090910152919050565b6040815260006112ff604083018561120b565b905063ffffffff831660208301529392505050565b602081526000825160606020840152611330608084018261120b565b90506020840151601f1984830301604085015261134d828261120b565b9150506001600160a01b0360408501511660608401528091505092915050565b82815260406020820152600061061f604083018461120b565b604051610120810167ffffffffffffffff811182821017156113aa576113aa61147e565b60405290565b604051601f8201601f1916810167ffffffffffffffff811182821017156113d9576113d961147e565b604052919050565b600067ffffffffffffffff8211156113fb576113fb61147e565b50601f01601f191660200190565b6000821982111561141c5761141c611468565b500190565b60008282101561143357611433611468565b500390565b60005b8381101561145357818101518382015260200161143b565b83811115611462576000848401525b50505050565b634e487b7160e01b600052601160045260246000fd5b634e487b7160e01b600052604160045260246000fd5b6001600160a01b0381168114610d1c57600080fd5b63ffffffff81168114610d1c57600080fdfea264697066735822122019dadff1b61428efdc781664f53670936f7c500303072ef8bc0e6584cc0da3f364736f6c6343000806003354686973206973206f6e65206f6620656666747320746f2063726561746520284f6e2d436861696e2041737365742053746f7265295b68747470733a2f2f617373657473746f72652e7774662f647261775d2e20",
  "linkReferences": {},
  "deployedLinkReferences": {}
}