{
  "_format": "hh-sol-artifact-1",
  "contractName": "DrawYourOwn",
  "sourceName": "contracts/DrawYourOwn.sol",
  "abi": [
    {
      "inputs": [
        {
          "internalType": "contract IAssetStoreRegistry",
          "name": "_registry",
          "type": "address"
        },
        {
          "internalType": "contract IAssetStoreEx",
          "name": "_assetStore",
          "type": "address"
        },
        {
          "internalType": "address",
          "name": "_developer",
          "type": "address"
        },
        {
          "internalType": "contract IProxyRegistry",
          "name": "_proxyRegistry",
          "type": "address"
        }
      ],
      "stateMutability": "nonpayable",
      "type": "constructor"
    },
    {
      "inputs": [],
      "name": "ApprovalCallerNotOwnerNorApproved",
      "type": "error"
    },
    {
      "inputs": [],
      "name": "ApprovalQueryForNonexistentToken",
      "type": "error"
    },
    {
      "inputs": [],
      "name": "ApproveToCaller",
      "type": "error"
    },
    {
      "inputs": [],
      "name": "BalanceQueryForZeroAddress",
      "type": "error"
    },
    {
      "inputs": [],
      "name": "MintERC2309QuantityExceedsLimit",
      "type": "error"
    },
    {
      "inputs": [],
      "name": "MintToZeroAddress",
      "type": "error"
    },
    {
      "inputs": [],
      "name": "MintZeroQuantity",
      "type": "error"
    },
    {
      "inputs": [],
      "name": "OwnerQueryForNonexistentToken",
      "type": "error"
    },
    {
      "inputs": [],
      "name": "OwnershipNotInitializedForExtraData",
      "type": "error"
    },
    {
      "inputs": [],
      "name": "TransferCallerNotOwnerNorApproved",
      "type": "error"
    },
    {
      "inputs": [],
      "name": "TransferFromIncorrectOwner",
      "type": "error"
    },
    {
      "inputs": [],
      "name": "TransferToNonERC721ReceiverImplementer",
      "type": "error"
    },
    {
      "inputs": [],
      "name": "TransferToZeroAddress",
      "type": "error"
    },
    {
      "inputs": [],
      "name": "URIQueryForNonexistentToken",
      "type": "error"
    },
    {
      "anonymous": false,
      "inputs": [
        {
          "indexed": true,
          "internalType": "address",
          "name": "owner",
          "type": "address"
        },
        {
          "indexed": true,
          "internalType": "address",
          "name": "approved",
          "type": "address"
        },
        {
          "indexed": true,
          "internalType": "uint256",
          "name": "tokenId",
          "type": "uint256"
        }
      ],
      "name": "Approval",
      "type": "event"
    },
    {
      "anonymous": false,
      "inputs": [
        {
          "indexed": true,
          "internalType": "address",
          "name": "owner",
          "type": "address"
        },
        {
          "indexed": true,
          "internalType": "address",
          "name": "operator",
          "type": "address"
        },
        {
          "indexed": false,
          "internalType": "bool",
          "name": "approved",
          "type": "bool"
        }
      ],
      "name": "ApprovalForAll",
      "type": "event"
    },
    {
      "anonymous": false,
      "inputs": [
        {
          "indexed": true,
          "internalType": "uint256",
          "name": "fromTokenId",
          "type": "uint256"
        },
        {
          "indexed": false,
          "internalType": "uint256",
          "name": "toTokenId",
          "type": "uint256"
        },
        {
          "indexed": true,
          "internalType": "address",
          "name": "from",
          "type": "address"
        },
        {
          "indexed": true,
          "internalType": "address",
          "name": "to",
          "type": "address"
        }
      ],
      "name": "ConsecutiveTransfer",
      "type": "event"
    },
    {
      "anonymous": false,
      "inputs": [
        {
          "indexed": true,
          "internalType": "address",
          "name": "previousOwner",
          "type": "address"
        },
        {
          "indexed": true,
          "internalType": "address",
          "name": "newOwner",
          "type": "address"
        }
      ],
      "name": "OwnershipTransferred",
      "type": "event"
    },
    {
      "anonymous": false,
      "inputs": [
        {
          "indexed": true,
          "internalType": "address",
          "name": "from",
          "type": "address"
        },
        {
          "indexed": true,
          "internalType": "address",
          "name": "to",
          "type": "address"
        },
        {
          "indexed": true,
          "internalType": "uint256",
          "name": "tokenId",
          "type": "uint256"
        }
      ],
      "name": "Transfer",
      "type": "event"
    },
    {
      "inputs": [
        {
          "internalType": "address",
          "name": "to",
          "type": "address"
        },
        {
          "internalType": "uint256",
          "name": "tokenId",
          "type": "uint256"
        }
      ],
      "name": "approve",
      "outputs": [],
      "stateMutability": "nonpayable",
      "type": "function"
    },
    {
      "inputs": [],
      "name": "assetComposer",
      "outputs": [
        {
          "internalType": "contract AssetComposer",
          "name": "",
          "type": "address"
        }
      ],
      "stateMutability": "view",
      "type": "function"
    },
    {
      "inputs": [
        {
          "internalType": "uint256",
          "name": "_tokenId",
          "type": "uint256"
        }
      ],
      "name": "assetIdOfToken",
      "outputs": [
        {
          "internalType": "uint256",
          "name": "",
          "type": "uint256"
        }
      ],
      "stateMutability": "view",
      "type": "function"
    },
    {
      "inputs": [],
      "name": "assetStore",
      "outputs": [
        {
          "internalType": "contract IAssetStoreEx",
          "name": "",
          "type": "address"
        }
      ],
      "stateMutability": "view",
      "type": "function"
    },
    {
      "inputs": [
        {
          "internalType": "address",
          "name": "owner",
          "type": "address"
        }
      ],
      "name": "balanceOf",
      "outputs": [
        {
          "internalType": "uint256",
          "name": "",
          "type": "uint256"
        }
      ],
      "stateMutability": "view",
      "type": "function"
    },
    {
      "inputs": [],
      "name": "description",
      "outputs": [
        {
          "internalType": "string",
          "name": "",
          "type": "string"
        }
      ],
      "stateMutability": "view",
      "type": "function"
    },
    {
      "inputs": [],
      "name": "developer",
      "outputs": [
        {
          "internalType": "address",
          "name": "",
          "type": "address"
        }
      ],
      "stateMutability": "view",
      "type": "function"
    },
    {
      "inputs": [
        {
          "internalType": "string",
          "name": "_svgPart",
          "type": "string"
        },
        {
          "internalType": "uint256",
          "name": "_style",
          "type": "uint256"
        },
        {
          "internalType": "string",
          "name": "_tag",
          "type": "string"
        }
      ],
      "name": "generateSVG",
      "outputs": [
        {
          "internalType": "string",
          "name": "",
          "type": "string"
        }
      ],
      "stateMutability": "pure",
      "type": "function"
    },
    {
      "inputs": [
        {
          "internalType": "uint256",
          "name": "_tokenId",
          "type": "uint256"
        }
      ],
      "name": "generateSVGPart",
      "outputs": [
        {
          "internalType": "string",
          "name": "",
          "type": "string"
        },
        {
          "internalType": "string",
          "name": "",
          "type": "string"
        }
      ],
      "stateMutability": "view",
      "type": "function"
    },
    {
      "inputs": [
        {
          "internalType": "uint256",
          "name": "tokenId",
          "type": "uint256"
        }
      ],
      "name": "getApproved",
      "outputs": [
        {
          "internalType": "address",
          "name": "",
          "type": "address"
        }
      ],
      "stateMutability": "view",
      "type": "function"
    },
    {
      "inputs": [],
      "name": "getCurrentToken",
      "outputs": [
        {
          "internalType": "uint256",
          "name": "",
          "type": "uint256"
        }
      ],
      "stateMutability": "view",
      "type": "function"
    },
    {
      "inputs": [
        {
          "internalType": "address",
          "name": "owner",
          "type": "address"
        },
        {
          "internalType": "address",
          "name": "operator",
          "type": "address"
        }
      ],
      "name": "isApprovedForAll",
      "outputs": [
        {
          "internalType": "bool",
          "name": "",
          "type": "bool"
        }
      ],
      "stateMutability": "view",
      "type": "function"
    },
    {
      "inputs": [],
      "name": "mintPrice",
      "outputs": [
        {
          "internalType": "uint256",
          "name": "",
          "type": "uint256"
        }
      ],
      "stateMutability": "view",
      "type": "function"
    },
    {
      "inputs": [
        {
          "components": [
            {
              "internalType": "string",
              "name": "group",
              "type": "string"
            },
            {
              "internalType": "string",
              "name": "category",
              "type": "string"
            },
            {
              "internalType": "string",
              "name": "name",
              "type": "string"
            },
            {
              "internalType": "string",
              "name": "minter",
              "type": "string"
            },
            {
              "internalType": "address",
              "name": "soulbound",
              "type": "address"
            },
            {
              "internalType": "bytes",
              "name": "metadata",
              "type": "bytes"
            },
            {
              "components": [
                {
                  "internalType": "bytes",
                  "name": "body",
                  "type": "bytes"
                },
                {
                  "internalType": "string",
                  "name": "color",
                  "type": "string"
                }
              ],
              "internalType": "struct IAssetStoreRegistry.Part[]",
              "name": "parts",
              "type": "tuple[]"
            }
          ],
          "internalType": "struct IAssetStoreRegistry.AssetInfo",
          "name": "_assetInfo",
          "type": "tuple"
        },
        {
          "internalType": "uint256",
          "name": "_affiliate",
          "type": "uint256"
        },
        {
          "components": [
            {
              "internalType": "uint256",
              "name": "tokenId",
              "type": "uint256"
            },
            {
              "internalType": "string",
              "name": "fill",
              "type": "string"
            },
            {
              "internalType": "string",
              "name": "transform",
              "type": "string"
            }
          ],
          "internalType": "struct DrawYourOwn.RemixInfo[]",
          "name": "_remixes",
          "type": "tuple[]"
        },
        {
          "components": [
            {
              "internalType": "uint256",
              "name": "assetId",
              "type": "uint256"
            },
            {
              "internalType": "string",
              "name": "provider",
              "type": "string"
            },
            {
              "internalType": "string",
              "name": "fill",
              "type": "string"
            },
            {
              "internalType": "string",
              "name": "transform",
              "type": "string"
            }
          ],
          "internalType": "struct IAssetComposer.AssetLayer[]",
          "name": "_overlays",
          "type": "tuple[]"
        }
      ],
      "name": "mintWithAsset",
      "outputs": [],
      "stateMutability": "payable",
      "type": "function"
    },
    {
      "inputs": [],
      "name": "name",
      "outputs": [
        {
          "internalType": "string",
          "name": "",
          "type": "string"
        }
      ],
      "stateMutability": "view",
      "type": "function"
    },
    {
      "inputs": [],
      "name": "owner",
      "outputs": [
        {
          "internalType": "address",
          "name": "",
          "type": "address"
        }
      ],
      "stateMutability": "view",
      "type": "function"
    },
    {
      "inputs": [
        {
          "internalType": "uint256",
          "name": "tokenId",
          "type": "uint256"
        }
      ],
      "name": "ownerOf",
      "outputs": [
        {
          "internalType": "address",
          "name": "",
          "type": "address"
        }
      ],
      "stateMutability": "view",
      "type": "function"
    },
    {
      "inputs": [],
      "name": "proxyRegistry",
      "outputs": [
        {
          "internalType": "contract IProxyRegistry",
          "name": "",
          "type": "address"
        }
      ],
      "stateMutability": "view",
      "type": "function"
    },
    {
      "inputs": [],
      "name": "registry",
      "outputs": [
        {
          "internalType": "contract IAssetStoreRegistry",
          "name": "",
          "type": "address"
        }
      ],
      "stateMutability": "view",
      "type": "function"
    },
    {
      "inputs": [
        {
          "internalType": "uint256",
          "name": "",
          "type": "uint256"
        }
      ],
      "name": "remixBase",
      "outputs": [
        {
          "internalType": "uint256",
          "name": "",
          "type": "uint256"
        }
      ],
      "stateMutability": "view",
      "type": "function"
    },
    {
      "inputs": [],
      "name": "renounceOwnership",
      "outputs": [],
      "stateMutability": "nonpayable",
      "type": "function"
    },
    {
      "inputs": [
        {
          "internalType": "address",
          "name": "from",
          "type": "address"
        },
        {
          "internalType": "address",
          "name": "to",
          "type": "address"
        },
        {
          "internalType": "uint256",
          "name": "tokenId",
          "type": "uint256"
        }
      ],
      "name": "safeTransferFrom",
      "outputs": [],
      "stateMutability": "nonpayable",
      "type": "function"
    },
    {
      "inputs": [
        {
          "internalType": "address",
          "name": "from",
          "type": "address"
        },
        {
          "internalType": "address",
          "name": "to",
          "type": "address"
        },
        {
          "internalType": "uint256",
          "name": "tokenId",
          "type": "uint256"
        },
        {
          "internalType": "bytes",
          "name": "_data",
          "type": "bytes"
        }
      ],
      "name": "safeTransferFrom",
      "outputs": [],
      "stateMutability": "nonpayable",
      "type": "function"
    },
    {
      "inputs": [
        {
          "internalType": "address",
          "name": "operator",
          "type": "address"
        },
        {
          "internalType": "bool",
          "name": "approved",
          "type": "bool"
        }
      ],
      "name": "setApprovalForAll",
      "outputs": [],
      "stateMutability": "nonpayable",
      "type": "function"
    },
    {
      "inputs": [
        {
          "internalType": "string",
          "name": "_description",
          "type": "string"
        }
      ],
      "name": "setDescription",
      "outputs": [],
      "stateMutability": "nonpayable",
      "type": "function"
    },
    {
      "inputs": [
        {
          "internalType": "uint256",
          "name": "_price",
          "type": "uint256"
        }
      ],
      "name": "setMintPrice",
      "outputs": [],
      "stateMutability": "nonpayable",
      "type": "function"
    },
    {
      "inputs": [],
      "name": "styles",
      "outputs": [
        {
          "internalType": "uint256",
          "name": "",
          "type": "uint256"
        }
      ],
      "stateMutability": "pure",
      "type": "function"
    },
    {
      "inputs": [
        {
          "internalType": "bytes4",
          "name": "interfaceId",
          "type": "bytes4"
        }
      ],
      "name": "supportsInterface",
      "outputs": [
        {
          "internalType": "bool",
          "name": "",
          "type": "bool"
        }
      ],
      "stateMutability": "view",
      "type": "function"
    },
    {
      "inputs": [],
      "name": "symbol",
      "outputs": [
        {
          "internalType": "string",
          "name": "",
          "type": "string"
        }
      ],
      "stateMutability": "view",
      "type": "function"
    },
    {
      "inputs": [
        {
          "internalType": "uint256",
          "name": "_tokenId",
          "type": "uint256"
        }
      ],
      "name": "tokenURI",
      "outputs": [
        {
          "internalType": "string",
          "name": "",
          "type": "string"
        }
      ],
      "stateMutability": "view",
      "type": "function"
    },
    {
      "inputs": [],
      "name": "tokensPerAsset",
      "outputs": [
        {
          "internalType": "uint256",
          "name": "",
          "type": "uint256"
        }
      ],
      "stateMutability": "pure",
      "type": "function"
    },
    {
      "inputs": [
        {
          "internalType": "uint256",
          "name": "",
          "type": "uint256"
        }
      ],
      "name": "totalEarned",
      "outputs": [
        {
          "internalType": "uint256",
          "name": "",
          "type": "uint256"
        }
      ],
      "stateMutability": "view",
      "type": "function"
    },
    {
      "inputs": [],
      "name": "totalSupply",
      "outputs": [
        {
          "internalType": "uint256",
          "name": "",
          "type": "uint256"
        }
      ],
      "stateMutability": "view",
      "type": "function"
    },
    {
      "inputs": [
        {
          "internalType": "address",
          "name": "from",
          "type": "address"
        },
        {
          "internalType": "address",
          "name": "to",
          "type": "address"
        },
        {
          "internalType": "uint256",
          "name": "tokenId",
          "type": "uint256"
        }
      ],
      "name": "transferFrom",
      "outputs": [],
      "stateMutability": "nonpayable",
      "type": "function"
    },
    {
      "inputs": [
        {
          "internalType": "address",
          "name": "newOwner",
          "type": "address"
        }
      ],
      "name": "transferOwnership",
      "outputs": [],
      "stateMutability": "nonpayable",
      "type": "function"
    },
    {
      "inputs": [],
      "name": "withdraw",
      "outputs": [],
      "stateMutability": "nonpayable",
      "type": "function"
    }
  ],
  "bytecode": "0x610180604052605461010081815290620084256101203980516200002c91600c9160209091019062000397565b5066470de4df820000600f553480156200004557600080fd5b506040516200847938038062008479833981016040819052620000689162000459565b8383838360405180604001604052806011815260200170111c985dc8165bdd5c8813dddb88139195607a1b81525060405180604001604052806007815260200166111c985dd3919560ca1b8152508160029080519060200190620000ce92919062000397565b508051620000e490600390602084019062000397565b5060008081556001600160601b0319606088811b821660805287811b821660a052600d80546001600160a01b0389166001600160a01b031990911617905585901b1660c0526040519092508591506200013d9062000426565b6001600160a01b039091168152602001604051809103906000f0801580156200016a573d6000803e3d6000fd5b5060405163f2fde38b60e01b81523360048201529091506001600160a01b0382169063f2fde38b90602401600060405180830381600087803b158015620001b057600080fd5b505af1158015620001c5573d6000803e3d6000fd5b50505050600084604051620001da9062000434565b6001600160a01b039091168152602001604051809103906000f08015801562000207573d6000803e3d6000fd5b50604051630713000b60e11b81526001600160a01b03808316600483015291925090831690630e26001690602401602060405180830381600087803b1580156200025057600080fd5b505af115801562000265573d6000803e3d6000fd5b505050506040513d601f19601f820116820180604052508101906200028b9190620004c1565b50604051630713000b60e11b81526001600160a01b0383166004820181905290630e26001690602401602060405180830381600087803b158015620002cf57600080fd5b505af1158015620002e4573d6000803e3d6000fd5b505050506040513d601f19601f820116820180604052508101906200030a9190620004c1565b505060601b6001600160601b03191660e05250620003379250620003319150620003419050565b62000345565b5050505062000531565b3390565b600e80546001600160a01b038381166001600160a01b0319831681179093556040519116919082907f8be0079c531659141344cd1fd0a4f28419497f9722a3daafe3b4186f6b6457e090600090a35050565b828054620003a590620004db565b90600052602060002090601f016020900481019282620003c9576000855562000414565b82601f10620003e457805160ff191683800117855562000414565b8280016001018555821562000414579182015b8281111562000414578251825591602001919060010190620003f7565b506200042292915062000442565b5090565b6124a9806200495a83390190565b6116228062006e0383390190565b5b8082111562000422576000815560010162000443565b600080600080608085870312156200047057600080fd5b84516200047d8162000518565b6020860151909450620004908162000518565b6040860151909350620004a38162000518565b6060860151909250620004b68162000518565b939692955090935050565b600060208284031215620004d457600080fd5b5051919050565b600181811c90821680620004f057607f821691505b602082108114156200051257634e487b7160e01b600052602260045260246000fd5b50919050565b6001600160a01b03811681146200052e57600080fd5b50565b60805160601c60a05160601c60c05160601c60e05160601c6143a4620005b660003960008181610690015281816113aa0152818161143d0152611b5d0152600081816105ae0152611dbd01526000818161042601528181611a1f01528181611c1501528181611cc501526125100152600081816104da0152610ed201526143a46000f3fe60806040526004361061024e5760003560e01c80637284e41611610138578063b88d4fde116100b0578063e985e9c51161007f578063ef2d174611610064578063ef2d1746146106b2578063f2fde38b146106c7578063f4a0a528146106e757600080fd5b8063e985e9c51461065e578063ec1718b91461067e57600080fd5b8063b88d4fde146105d0578063c87b56dd146105f0578063ca4b208b14610610578063e3f24f021461063057600080fd5b806390c3f38f11610107578063a22cb465116100ec578063a22cb4651461054f578063a9fc0f731461056f578063b50cbd9f1461059c57600080fd5b806390c3f38f1461051a57806395d89b411461053a57600080fd5b80637284e416146104b3578063786f94c6146104005780637b103999146104c85780638da5cb5b146104fc57600080fd5b80633ccfd60b116101cb578063597a0e361161019a5780636817c76c1161017f5780636817c76c1461046857806370a082311461047e578063715018a61461049e57600080fd5b8063597a0e36146104145780636352211e1461044857600080fd5b80633ccfd60b1461039e578063406fbed9146103b357806342842e0e146103e05780634b00371f1461040057600080fd5b8063095ea7b31161022257806323b872dd1161020757806323b872dd1461034b5780632ab72d2f1461036b5780632b7e2f591461038b57600080fd5b8063095ea7b31461030657806318160ddd1461032857600080fd5b80626e59e91461025357806301ffc9a71461028957806306fdde03146102b9578063081812fc146102ce575b600080fd5b34801561025f57600080fd5b5061027361026e366004612f4e565b610707565b6040516102809190613f11565b60405180910390f35b34801561029557600080fd5b506102a96102a4366004612e46565b610961565b6040519015158152602001610280565b3480156102c557600080fd5b506102736109fe565b3480156102da57600080fd5b506102ee6102e936600461328e565b610a90565b6040516001600160a01b039091168152602001610280565b34801561031257600080fd5b50610326610321366004612e1a565b610aed565b005b34801561033457600080fd5b50600154600054035b604051908152602001610280565b34801561035757600080fd5b50610326610366366004612d3a565b610bb3565b34801561037757600080fd5b5061033d61038636600461328e565b610d91565b610326610399366004613115565b610e38565b3480156103aa57600080fd5b506103266115ad565b3480156103bf57600080fd5b5061033d6103ce36600461328e565b60086020526000908152604090205481565b3480156103ec57600080fd5b506103266103fb366004612d3a565b611657565b34801561040c57600080fd5b50600461033d565b34801561042057600080fd5b506102ee7f000000000000000000000000000000000000000000000000000000000000000081565b34801561045457600080fd5b506102ee61046336600461328e565b611677565b34801561047457600080fd5b5061033d600f5481565b34801561048a57600080fd5b5061033d610499366004612cc7565b611682565b3480156104aa57600080fd5b506103266116ea565b3480156104bf57600080fd5b50610273611750565b3480156104d457600080fd5b506102ee7f000000000000000000000000000000000000000000000000000000000000000081565b34801561050857600080fd5b50600e546001600160a01b03166102ee565b34801561052657600080fd5b50610326610535366004612eb5565b6117de565b34801561054657600080fd5b5061027361184b565b34801561055b57600080fd5b5061032661056a366004612de7565b61185a565b34801561057b57600080fd5b5061033d61058a36600461328e565b60096020526000908152604090205481565b3480156105a857600080fd5b506102ee7f000000000000000000000000000000000000000000000000000000000000000081565b3480156105dc57600080fd5b506103266105eb366004612d7b565b611909565b3480156105fc57600080fd5b5061027361060b36600461328e565b611953565b34801561061c57600080fd5b50600d546102ee906001600160a01b031681565b34801561063c57600080fd5b5061065061064b36600461328e565b611b34565b604051610280929190613f24565b34801561066a57600080fd5b506102a9610679366004612d01565b611d7e565b34801561068a57600080fd5b506102ee7f000000000000000000000000000000000000000000000000000000000000000081565b3480156106be57600080fd5b5060005461033d565b3480156106d357600080fd5b506103266106e2366004612cc7565b611e7f565b3480156106f357600080fd5b5061032661070236600461328e565b611f61565b6040805160a081018252600060808201818152825282518084018452600c81527f75726c282373696c7665722900000000000000000000000000000000000000006020828101919091528084019190915283518085018552600a81527f75726c2823676f6c642900000000000000000000000000000000000000000000818301528385015283519081019093528083526060828101939093526107ab60048661424e565b9050600060405180608001604052806049815260200161432660499139876040516020016107da929190613a5f565b6040516020818303038152906040529050816001141561081b57806040516020016108059190613594565b6040516020818303038152906040529050610861565b81600214156108355780604051602001610805919061346f565b8160031415610861578060405160200161084f91906138ec565b60405160208183030381529060405290505b8060405160200161087291906133ed565b604051602081830303815290604052905060008383600481106108975761089761428e565b60200201515111156108de57808383600481106108b6576108b661428e565b60200201516040516020016108cc92919061385b565b60405160208183030381529060405290505b81600314156109105780856040516020016108fa9291906136b9565b6040516020818303038152906040529050610935565b8085604051602001610923929190613383565b60405160208183030381529060405290505b80604051602001610946919061342e565b60408051808303601f19018152919052979650505050505050565b60007f01ffc9a7000000000000000000000000000000000000000000000000000000006001600160e01b0319831614806109c457507f80ac58cd000000000000000000000000000000000000000000000000000000006001600160e01b03198316145b806109f857507f5b5e139f000000000000000000000000000000000000000000000000000000006001600160e01b03198316145b92915050565b606060028054610a0d906141f8565b80601f0160208091040260200160405190810160405280929190818152602001828054610a39906141f8565b8015610a865780601f10610a5b57610100808354040283529160200191610a86565b820191906000526020600020905b815481529060010190602001808311610a6957829003601f168201915b5050505050905090565b6000610a9b82611fc0565b610ad1576040517fcf4700e400000000000000000000000000000000000000000000000000000000815260040160405180910390fd5b506000908152600660205260409020546001600160a01b031690565b6000610af882611677565b9050336001600160a01b03821614610b4a57610b148133611d7e565b610b4a576040517fcfb3b94200000000000000000000000000000000000000000000000000000000815260040160405180910390fd5b600082815260066020526040808220805473ffffffffffffffffffffffffffffffffffffffff19166001600160a01b0387811691821790925591518593918516917f8c5be1e5ebec7d5bd14f71427d1e84f3dd0314c0f7b2291e5b200ac8c7c3b92591a4505050565b6000610bbe82611fe7565b9050836001600160a01b0316816001600160a01b031614610c0b576040517fa114810000000000000000000000000000000000000000000000000000000000815260040160405180910390fd5b60008281526006602052604090208054338082146001600160a01b03881690911417610c7157610c3b8633611d7e565b610c71576040517f59c896be00000000000000000000000000000000000000000000000000000000815260040160405180910390fd5b6001600160a01b038516610cb1576040517fea553b3400000000000000000000000000000000000000000000000000000000815260040160405180910390fd5b8015610cbc57600082555b6001600160a01b038681166000908152600560205260408082208054600019019055918716808252919020805460010190554260a01b17600160e11b17600085815260046020526040902055600160e11b8316610d475760018401600081815260046020526040902054610d45576000548114610d455760008181526004602052604090208490555b505b83856001600160a01b0316876001600160a01b03167fddf252ad1be2c89b69c2b068fc378daa952ba7f163c4a11628f55a4df523b3ef60405160405180910390a45b505050505050565b6000610d9c82611fc0565b610e135760405162461bcd60e51b815260206004820152602d60248201527f437573746f6d546f6b656e2e617373657449644f66546f6b656e3a206e6f6e6560448201527f78697374656e7420746f6b656e0000000000000000000000000000000000000060648201526084015b60405180910390fd5b600a6000610e22600485614182565b8152602001908152602001600020549050919050565b60005460408051808201909152600d81527f4472617720596f7572204f776e0000000000000000000000000000000000000060208201528552610e7a81612061565b604051602001610e8a9190613a8e565b60408051601f1981840301815291815286810191909152517f5b7eea860000000000000000000000000000000000000000000000000000000081526000906001600160a01b037f00000000000000000000000000000000000000000000000000000000000000001690635b7eea8690610f07908990600401613f52565b602060405180830381600087803b158015610f2157600080fd5b505af1158015610f35573d6000803e3d6000fd5b505050506040513d601f19601f82011682018060405250810190610f5991906132a7565b905080600b6000610f6b600486614182565b81526020810191909152604001600020558351158015610f8a57508251155b15610fca57610f9a816002614196565b610fa590600161416a565b600a6000610fb4600486614182565b8152602081019190915260400160002055611504565b83518351600091908290610fde908361416a565b111561103657600f543410156110365760405162461bcd60e51b815260206004820152601860248201527f4d7573742073656e6420746865206d696e7420707269636500000000000000006044820152606401610e0a565b845160009061104683600161416a565b611050919061416a565b67ffffffffffffffff811115611068576110686142a4565b6040519080825280602002602001820160405280156110c457816020015b6110b16040518060800160405280600081526020016060815260200160608152602001606081525090565b8152602001906001900390816110865790505b509050600092505b865183101561129c5760008784815181106110e9576110e961428e565b60200260200101519050836000141561111957805161110990600161416a565b6000878152600860205260409020555b60006111288260000151610d91565b905061113560028261424e565b6111c257611144600282614182565b8386815181106111565761115661428e565b602002602001015160000181815250506040518060400160405280600481526020017f636f6d70000000000000000000000000000000000000000000000000000000008152508386815181106111ae576111ae61428e565b60200260200101516020018190525061123b565b60016111cf600283614182565b6111d991906141b5565b8386815181106111eb576111eb61428e565b6020026020010151600001818152505060405180604001604052806005815260200164185cdcd95d60da1b81525083868151811061122b5761122b61428e565b6020026020010151602001819052505b81602001518386815181106112525761125261428e565b60200260200101516040018190525081604001518386815181106112785761127861428e565b6020026020010151606001819052505050828061129490614233565b9350506110cc565b6112a76001856141b5565b8183815181106112b9576112b961428e565b6020026020010151600001818152505060405180604001604052806005815260200164185cdcd95d60da1b8152508183815181106112f9576112f961428e565b602002602001015160200181905250600092505b8551831015611377578583815181106113285761132861428e565b6020026020010151818484600161133f919061416a565b611349919061416a565b815181106113595761135961428e565b6020026020010181905250828061136f90614233565b93505061130d565b6040517f434ebc550000000000000000000000000000000000000000000000000000000081526000906001600160a01b037f0000000000000000000000000000000000000000000000000000000000000000169063434ebc55906113df908590600401613e65565b602060405180830381600087803b1580156113f957600080fd5b505af115801561140d573d6000803e3d6000fd5b505050506040513d601f19601f8201168201806040525081019061143191906132a7565b90506001600160a01b037f000000000000000000000000000000000000000000000000000000000000000016638d07c0826103e8611471346103cf614196565b61147b9190614182565b6040516001600160e01b031960e084901b16815260048101859052602481018790526044016000604051808303818588803b1580156114b957600080fd5b505af11580156114cd573d6000803e3d6000fd5b50505050508060026114df9190614196565b600a60006114ee60048a614182565b8152602081019190915260400160002055505050505b61151933611514600160046141b5565b61219b565b60008511801561152d575061152d856122ab565b801561154a57503361153e86611677565b6001600160a01b031614155b156115675761156261155b86611677565b600161219b565b610d89565b60046115738184614182565b61157d919061424e565b61159857600d54611562906001600160a01b0316600161219b565b610d8961155b600e546001600160a01b031690565b600e546001600160a01b031633146116075760405162461bcd60e51b815260206004820181905260248201527f4f776e61626c653a2063616c6c6572206973206e6f7420746865206f776e65726044820152606401610e0a565b600061161b600e546001600160a01b031690565b6040519091506001600160a01b038216904780156108fc02916000818181858888f19350505050158015611653573d6000803e3d6000fd5b5050565b61167283838360405180602001604052806000815250611909565b505050565b60006109f882611fe7565b60006001600160a01b0382166116c4576040517f8f4eb60400000000000000000000000000000000000000000000000000000000815260040160405180910390fd5b506001600160a01b031660009081526005602052604090205467ffffffffffffffff1690565b600e546001600160a01b031633146117445760405162461bcd60e51b815260206004820181905260248201527f4f776e61626c653a2063616c6c6572206973206e6f7420746865206f776e65726044820152606401610e0a565b61174e60006122bf565b565b600c805461175d906141f8565b80601f0160208091040260200160405190810160405280929190818152602001828054611789906141f8565b80156117d65780601f106117ab576101008083540402835291602001916117d6565b820191906000526020600020905b8154815290600101906020018083116117b957829003601f168201915b505050505081565b600e546001600160a01b031633146118385760405162461bcd60e51b815260206004820181905260248201527f4f776e61626c653a2063616c6c6572206973206e6f7420746865206f776e65726044820152606401610e0a565b805161165390600c90602084019061287e565b606060038054610a0d906141f8565b6001600160a01b03821633141561189d576040517fb06307db00000000000000000000000000000000000000000000000000000000815260040160405180910390fd5b3360008181526007602090815260408083206001600160a01b03871680855290835292819020805460ff191686151590811790915590519081529192917f17307eab39ab6107e8899845ad3d59bd9653f200f220920489ca2b5937696c31910160405180910390a35050565b611914848484610bb3565b6001600160a01b0383163b1561194d576119308484848461231e565b61194d576040516368d2bf6b60e11b815260040160405180910390fd5b50505050565b606061195e82611fc0565b6119d05760405162461bcd60e51b815260206004820152602760248201527f437573746f6d546f6b656e2e746f6b656e5552493a206e6f6e6578697374656e60448201527f7420746f6b656e000000000000000000000000000000000000000000000000006064820152608401610e0a565b6000806119dc84611b34565b909250905060006119f8836119f260048861424e565b84610707565b90506000600b81611a0a600489614182565b815260200190815260200160002054905060007f00000000000000000000000000000000000000000000000000000000000000006001600160a01b0316634378a6e3836040518263ffffffff1660e01b8152600401611a6b91815260200190565b60006040518083038186803b158015611a8357600080fd5b505afa158015611a97573d6000803e3d6000fd5b505050506040513d6000823e601f3d908101601f19168201604052611abf9190810190612fbb565b9050611b09611acd88612061565b600c611ad98a85612415565b611ae2876126e1565b604051602001611af59493929190613ad3565b6040516020818303038152906040526126e1565b604051602001611b199190613c9a565b60405160208183030381529060405295505050505050919050565b6060806000611b4284610d91565b9050611b4f60028261424e565b611c09576001600160a01b037f00000000000000000000000000000000000000000000000000000000000000001663e3f24f02611b8d600284614182565b6040518263ffffffff1660e01b8152600401611bab91815260200190565b60006040518083038186803b158015611bc357600080fd5b505afa158015611bd7573d6000803e3d6000fd5b505050506040513d6000823e601f3d908101601f19168201604052611bff9190810190612eea565b9250925050915091565b60006001600160a01b037f000000000000000000000000000000000000000000000000000000000000000016634378a6e3611c45600285614182565b6040518263ffffffff1660e01b8152600401611c6391815260200190565b60006040518083038186803b158015611c7b57600080fd5b505afa158015611c8f573d6000803e3d6000fd5b505050506040513d6000823e601f3d908101601f19168201604052611cb79190810190612fbb565b905060006001600160a01b037f0000000000000000000000000000000000000000000000000000000000000000166334320bf1611cf5600286614182565b84606001516040518363ffffffff1660e01b8152600401611d1792919061401e565b60006040518083038186803b158015611d2f57600080fd5b505afa158015611d43573d6000803e3d6000fd5b505050506040513d6000823e601f3d908101601f19168201604052611d6b9190810190612e80565b6060909201519196919550909350505050565b6040517fc45527910000000000000000000000000000000000000000000000000000000081526001600160a01b038381166004830152600091818416917f0000000000000000000000000000000000000000000000000000000000000000169063c45527919060240160206040518083038186803b158015611dff57600080fd5b505afa158015611e13573d6000803e3d6000fd5b505050506040513d601f19601f82011682018060405250810190611e379190612ce4565b6001600160a01b03161415611e4e575060016109f8565b6001600160a01b0380841660009081526007602090815260408083209386168352929052205460ff165b9392505050565b600e546001600160a01b03163314611ed95760405162461bcd60e51b815260206004820181905260248201527f4f776e61626c653a2063616c6c6572206973206e6f7420746865206f776e65726044820152606401610e0a565b6001600160a01b038116611f555760405162461bcd60e51b815260206004820152602660248201527f4f776e61626c653a206e6577206f776e657220697320746865207a65726f206160448201527f64647265737300000000000000000000000000000000000000000000000000006064820152608401610e0a565b611f5e816122bf565b50565b600e546001600160a01b03163314611fbb5760405162461bcd60e51b815260206004820181905260248201527f4f776e61626c653a2063616c6c6572206973206e6f7420746865206f776e65726044820152606401610e0a565b600f55565b60008054821080156109f8575050600090815260046020526040902054600160e01b161590565b60008160005481101561202f57600081815260046020526040902054600160e01b811661202d575b80611e7857506000190160008181526004602052604090205461200f565b505b6040517fdf2d9b4200000000000000000000000000000000000000000000000000000000815260040160405180910390fd5b6060816120a157505060408051808201909152600181527f3000000000000000000000000000000000000000000000000000000000000000602082015290565b8160005b81156120cb57806120b581614233565b91506120c49050600a83614182565b91506120a5565b60008167ffffffffffffffff8111156120e6576120e66142a4565b6040519080825280601f01601f191660200182016040528015612110576020820181803683370190505b5090505b8415612193576121256001836141b5565b9150612132600a8661424e565b61213d90603061416a565b60f81b8183815181106121525761215261428e565b60200101907effffffffffffffffffffffffffffffffffffffffffffffffffffffffffffff1916908160001a90535061218c600a86614182565b9450612114565b949350505050565b6000546001600160a01b0383166121de576040517f2e07630000000000000000000000000000000000000000000000000000000000815260040160405180910390fd5b81612215576040517fb562e8dd00000000000000000000000000000000000000000000000000000000815260040160405180910390fd5b6001600160a01b038316600081815260056020526040902080546801000000000000000185020190554260a01b6001841460e11b1717600082815260046020526040902055808281015b6040516001830192906001600160a01b038716906000907fddf252ad1be2c89b69c2b068fc378daa952ba7f163c4a11628f55a4df523b3ef908290a480821061225f5760005550505050565b60006122b860048361424e565b1592915050565b600e80546001600160a01b0383811673ffffffffffffffffffffffffffffffffffffffff19831681179093556040519116919082907f8be0079c531659141344cd1fd0a4f28419497f9722a3daafe3b4186f6b6457e090600090a35050565b604051630a85bd0160e11b81526000906001600160a01b0385169063150b7a0290612353903390899088908890600401613e29565b602060405180830381600087803b15801561236d57600080fd5b505af192505050801561239d575060408051601f3d908101601f1916820190925261239a91810190612e63565b60015b6123f8573d8080156123cb576040519150601f19603f3d011682016040523d82523d6000602084013e6123d0565b606091505b5080516123f0576040516368d2bf6b60e11b815260040160405180910390fd5b805181602001fd5b6001600160e01b031916630a85bd0160e11b149050949350505050565b60606000612422846122ab565b612461576040518060400160405280600281526020017f4e6f000000000000000000000000000000000000000000000000000000000000815250612498565b6040518060400160405280600381526020017f59657300000000000000000000000000000000000000000000000000000000008152505b835160208086015160408088015190516124b495949301613cdf565b60405160208183030381529060405290508060008460800151511161250e576040518060400160405280600b81526020017f28616e6f6e796d6f757329000000000000000000000000000000000000000000815250612622565b7f00000000000000000000000000000000000000000000000000000000000000006001600160a01b031663a57cfb246040518163ffffffff1660e01b815260040160206040518083038186803b15801561256757600080fd5b505afa15801561257b573d6000803e3d6000fd5b505050506040513d601f19601f8201168201806040525081019061259f9190612ce4565b6001600160a01b031663841b9d9785608001516040518263ffffffff1660e01b81526004016125ce9190613f11565b60006040518083038186803b1580156125e657600080fd5b505afa1580156125fa573d6000803e3d6000fd5b505050506040513d6000823e601f3d908101601f191682016040526126229190810190612e80565b600086815260086020526040902054612670576040518060400160405280600681526020017f286e6f6e65290000000000000000000000000000000000000000000000000000815250612694565b6000868152600860205260409020546126949061268f906001906141b5565b612061565b6000878152600960205260409020546126b69061268f90633b9aca0090614182565b6040516020016126c99493929190613723565b60408051808303601f19018152919052949350505050565b606081516000141561270157505060408051602081019091526000815290565b60006040518060600160405280604081526020016142e66040913990506000600384516002612730919061416a565b61273a9190614182565b612745906004614196565b9050600061275482602061416a565b67ffffffffffffffff81111561276c5761276c6142a4565b6040519080825280601f01601f191660200182016040528015612796576020820181803683370190505b509050818152600183018586518101602084015b81831015612802576003830192508251603f8160121c168501518253600182019150603f81600c1c168501518253600182019150603f8160061c168501518253600182019150603f81168501518253506001016127aa565b60038951066001811461281c576002811461284857612870565b7f3d3d000000000000000000000000000000000000000000000000000000000000600119830152612870565b7f3d000000000000000000000000000000000000000000000000000000000000006000198301525b509398975050505050505050565b82805461288a906141f8565b90600052602060002090601f0160209004810192826128ac57600085556128f2565b82601f106128c557805160ff19168380011785556128f2565b828001600101855582156128f2579182015b828111156128f25782518255916020019190600101906128d7565b506128fe929150612902565b5090565b5b808211156128fe5760008155600101612903565b8035612922816142ba565b919050565b8051612922816142ba565b600082601f83011261294357600080fd5b813560206129586129538361411e565b6140ed565b80838252828201915082860187848660051b890101111561297857600080fd5b60005b85811015612a4857813567ffffffffffffffff8082111561299b57600080fd5b908901906080828c03601f190112156129b357600080fd5b6129bb614037565b878301358152604080840135838111156129d457600080fd5b6129e28e8b83880101612c1f565b8a84015250606080850135848111156129fa57600080fd5b612a088f8c83890101612c1f565b83850152506080850135915083821115612a2157600080fd5b612a2f8e8b84880101612c1f565b908301525086525050928401929084019060010161297b565b5090979650505050505050565b600082601f830112612a6657600080fd5b81356020612a766129538361411e565b80838252828201915082860187848660051b8901011115612a9657600080fd5b60005b85811015612a4857813567ffffffffffffffff80821115612ab957600080fd5b908901906040828c03601f1901811315612ad257600080fd5b612ada614060565b8884013583811115612aeb57600080fd5b612af98e8b83880101612c1f565b825250908301359082821115612b0e57600080fd5b612b1c8d8a84870101612c1f565b818a015287525050509284019290840190600101612a99565b600082601f830112612b4657600080fd5b81356020612b566129538361411e565b80838252828201915082860187848660051b8901011115612b7657600080fd5b60005b85811015612a4857813567ffffffffffffffff80821115612b9957600080fd5b908901906060828c03601f1901811315612bb257600080fd5b612bba614083565b88840135815260408085013584811115612bd357600080fd5b612be18f8c83890101612c1f565b838c015250918401359183831115612bf857600080fd5b612c068e8b85880101612c1f565b9082015287525050509284019290840190600101612b79565b600082601f830112612c3057600080fd5b8135612c3e61295382614142565b818152846020838601011115612c5357600080fd5b816020850160208301376000918101602001919091529392505050565b600082601f830112612c8157600080fd5b8151612c8f61295382614142565b818152846020838601011115612ca457600080fd5b6121938260208301602087016141cc565b805161ffff8116811461292257600080fd5b600060208284031215612cd957600080fd5b8135611e78816142ba565b600060208284031215612cf657600080fd5b8151611e78816142ba565b60008060408385031215612d1457600080fd5b8235612d1f816142ba565b91506020830135612d2f816142ba565b809150509250929050565b600080600060608486031215612d4f57600080fd5b8335612d5a816142ba565b92506020840135612d6a816142ba565b929592945050506040919091013590565b60008060008060808587031215612d9157600080fd5b8435612d9c816142ba565b93506020850135612dac816142ba565b925060408501359150606085013567ffffffffffffffff811115612dcf57600080fd5b612ddb87828801612c1f565b91505092959194509250565b60008060408385031215612dfa57600080fd5b8235612e05816142ba565b915060208301358015158114612d2f57600080fd5b60008060408385031215612e2d57600080fd5b8235612e38816142ba565b946020939093013593505050565b600060208284031215612e5857600080fd5b8135611e78816142cf565b600060208284031215612e7557600080fd5b8151611e78816142cf565b600060208284031215612e9257600080fd5b815167ffffffffffffffff811115612ea957600080fd5b61219384828501612c70565b600060208284031215612ec757600080fd5b813567ffffffffffffffff811115612ede57600080fd5b61219384828501612c1f565b60008060408385031215612efd57600080fd5b825167ffffffffffffffff80821115612f1557600080fd5b612f2186838701612c70565b93506020850151915080821115612f3757600080fd5b50612f4485828601612c70565b9150509250929050565b600080600060608486031215612f6357600080fd5b833567ffffffffffffffff80821115612f7b57600080fd5b612f8787838801612c1f565b9450602086013593506040860135915080821115612fa457600080fd5b50612fb186828701612c1f565b9150509250925092565b600060208284031215612fcd57600080fd5b815167ffffffffffffffff80821115612fe557600080fd5b908301906101208286031215612ffa57600080fd5b6130026140a6565b82518281111561301157600080fd5b61301d87828601612c70565b82525060208301518281111561303257600080fd5b61303e87828601612c70565b60208301525060408301518281111561305657600080fd5b61306287828601612c70565b60408301525060608301518281111561307a57600080fd5b61308687828601612c70565b60608301525060808301518281111561309e57600080fd5b6130aa87828601612c70565b6080830152506130bc60a08401612927565b60a082015260c0830151828111156130d357600080fd5b6130df87828601612c70565b60c0830152506130f160e08401612cb5565b60e08201526101009150613106828401612cb5565b91810191909152949350505050565b6000806000806080858703121561312b57600080fd5b843567ffffffffffffffff8082111561314357600080fd5b9086019060e0828903121561315757600080fd5b61315f6140ca565b82358281111561316e57600080fd5b61317a8a828601612c1f565b82525060208301358281111561318f57600080fd5b61319b8a828601612c1f565b6020830152506040830135828111156131b357600080fd5b6131bf8a828601612c1f565b6040830152506060830135828111156131d757600080fd5b6131e38a828601612c1f565b6060830152506131f560808401612917565b608082015260a08301358281111561320c57600080fd5b6132188a828601612c1f565b60a08301525060c08301358281111561323057600080fd5b61323c8a828601612a55565b60c083015250955060208701359450604087013591508082111561325f57600080fd5b61326b88838901612b35565b9350606087013591508082111561328157600080fd5b50612ddb87828801612932565b6000602082840312156132a057600080fd5b5035919050565b6000602082840312156132b957600080fd5b5051919050565b600081518084526020808501808196508360051b8101915082860160005b8581101561332e5782840389528151604081518187526133008288018261333b565b9150508682015191508581038787015261331a818361333b565b9a87019a95505050908401906001016132de565b5091979650505050505050565b600081518084526133538160208601602086016141cc565b601f01601f19169290920160200192915050565b600081516133798185602086016141cc565b9290920192915050565b600083516133958184602088016141cc565b7f203c75736520687265663d22230000000000000000000000000000000000000090830190815283516133cf81600d8401602088016141cc565b641110179f0560d91b600d9290910191820152601201949350505050565b600082516133ff8184602087016141cc565b7f3c2f646566733e0a000000000000000000000000000000000000000000000000920191825250600801919050565b600082516134408184602087016141cc565b7f3c2f7376673e0a00000000000000000000000000000000000000000000000000920191825250600701919050565b600082516134818184602087016141cc565b7f3c6c696e6561724772616469656e742069643d22676f6c64222078313d22302e9201918252507f32222078323d2230222079313d2230222079323d2231223e0a20203c73746f7060208201527f206f66667365743d223025222073746f702d636f6c6f723d222343434142303960408201527f222f3e0a203c73746f70206f66667365743d22353025222073746f702d636f6c60608201527f6f723d222346464631383622202f3e0a203c73746f70206f66667365743d223160808201527f303025222073746f702d636f6c6f723d2223434341423039222f3e0a3c2f6c6960a08201527f6e6561724772616469656e743e0a00000000000000000000000000000000000060c082015260ce01919050565b600082516135a68184602087016141cc565b7f3c6c696e6561724772616469656e742069643d2273696c766572222078313d229201918252507f302e32222078323d2230222079313d2230222079323d2231223e0a20203c737460208201527f6f70206f66667365743d223025222073746f702d636f6c6f723d22233830383060408201527f3746222f3e0a203c73746f70206f66667365743d22353025222073746f702d6360608201527f6f6c6f723d222345454630463222202f3e0a203c73746f70206f66667365743d60808201527f2231303025222073746f702d636f6c6f723d2223383038303746222f3e0a3c2f60a08201527f6c696e6561724772616469656e743e0a0000000000000000000000000000000060c082015260d001919050565b600083516136cb8184602088016141cc565b7f203c7573652066696c7465723d2275726c28236631292220687265663d222300908301908152835161370581601f8401602088016141cc565b641110179f0560d91b601f9290910191820152602401949350505050565b60008551613735818460208a016141cc565b80830190507f7d2c7b2274726169745f74797065223a224d696e746572222c2276616c7565228152611d1160f11b806020830152865161377c816022850160208b016141cc565b7f227d2c7b2274726169745f74797065223a2252656d6978222c2276616c75652260229390910192830152604282015284516137bf8160448401602089016141cc565b7f227d2c7b2274726169745f74797065223a224561726e6564222c2276616c7565604492909101918201527f223a220000000000000000000000000000000000000000000000000000000000606482015283516138238160678401602088016141cc565b7f47776569227d000000000000000000000000000000000000000000000000000060679290910191820152606d019695505050505050565b6000835161386d8184602088016141cc565b80830190507f203c7265637420783d22302220793d2230222077696474683d2231303025222081527f6865696768743d2231303025222066696c6c3d22000000000000000000000000602082015283516138ce8160348401602088016141cc565b641110179f0560d91b60349290910191820152603901949350505050565b600082516138fe8184602087016141cc565b7f203c66696c7465722069643d2266312220783d22302220793d223022207769649201918252507f74683d223230302522206865696768743d2232303025223e0a20203c66654f6660208201527f6673657420726573756c743d226f66664f75742220696e3d22536f757263654160408201527f6c706861222064783d223234222064793d22333222202f3e0a20203c6665476160608201527f75737369616e426c757220726573756c743d22626c75724f75742220696e3d2260808201527f6f66664f75742220737464446576696174696f6e3d22313622202f3e0a20203c60a08201527f6665426c656e6420696e3d22536f75726365477261706869632220696e323d2260c08201527f626c75724f757422206d6f64653d226e6f726d616c22202f3e0a203c2f66696c60e08201527f7465723e0a00000000000000000000000000000000000000000000000000000061010082015261010501919050565b60008351613a718184602088016141cc565b835190830190613a858183602088016141cc565b01949350505050565b7f44726177696e6720000000000000000000000000000000000000000000000000815260008251613ac68160088501602087016141cc565b9190910160080192915050565b7f7b226e616d65223a2244726177696e67200000000000000000000000000000008152600085516020613b0c8260118601838b016141cc565b7f222c226465736372697074696f6e223a220000000000000000000000000000006011928501928301528654602290600090600181811c9080831680613b5357607f831692505b868310811415613b7057634e487b7160e01b855285600452602485fd5b808015613b845760018114613b9957613bca565b60ff1985168988015283890187019550613bca565b60008e81526020902060005b85811015613bc05781548b82018a0152908401908901613ba5565b505086848a010195505b5050505050613c8c613c63613c5d613c0e613c08857f222c2261747472696275746573223a5b00000000000000000000000000000000815260100190565b8c613367565b7f5d2c22696d616765223a22646174613a696d6167652f7376672b786d6c3b626181527f736536342c000000000000000000000000000000000000000000000000000000602082015260250190565b89613367565b7f227d000000000000000000000000000000000000000000000000000000000000815260020190565b9a9950505050505050505050565b7f646174613a6170706c69636174696f6e2f6a736f6e3b6261736536342c000000815260008251613cd281601d8501602087016141cc565b91909101601d0192915050565b7f7b2274726169745f74797065223a225072696d617279222c2276616c7565223a81526000601160f91b8060208401528651613d22816021860160208b016141cc565b7f227d2c7b2274726169745f74797065223a2247726f7570222c2276616c756522602191850191820152611d1160f11b60418201528651613d6a816043840160208b016141cc565b7f227d2c7b2274726169745f74797065223a2243617465676f7279222c2276616c604392909101918201527f7565223a2200000000000000000000000000000000000000000000000000000060638201528551613dce816068840160208a016141cc565b8082019150507f227d2c7b2274726169745f74797065223a224e616d65222c2276616c7565223a6068820152816088820152613e1d613e106089830187613367565b601160f91b815260010190565b98975050505050505050565b60006001600160a01b03808716835280861660208401525083604083015260806060830152613e5b608083018461333b565b9695505050505050565b60006020808301818452808551808352604092508286019150828160051b87010184880160005b83811015613f0357603f19898403018552815160808151855288820151818a870152613eba8287018261333b565b9150508782015185820389870152613ed2828261333b565b91505060608083015192508582038187015250613eef818361333b565b968901969450505090860190600101613e8c565b509098975050505050505050565b602081526000611e78602083018461333b565b604081526000613f37604083018561333b565b8281036020840152613f49818561333b565b95945050505050565b602081526000825160e06020840152613f6f61010084018261333b565b90506020840151601f1980858403016040860152613f8d838361333b565b92506040860151915080858403016060860152613faa838361333b565b92506060860151915080858403016080860152613fc7838361333b565b925060808601519150613fe560a08601836001600160a01b03169052565b60a08601519150808584030160c0860152614000838361333b565b925060c08601519150808584030160e086015250613f4982826132c0565b828152604060208201526000612193604083018461333b565b6040516080810167ffffffffffffffff8111828210171561405a5761405a6142a4565b60405290565b6040805190810167ffffffffffffffff8111828210171561405a5761405a6142a4565b6040516060810167ffffffffffffffff8111828210171561405a5761405a6142a4565b604051610120810167ffffffffffffffff8111828210171561405a5761405a6142a4565b60405160e0810167ffffffffffffffff8111828210171561405a5761405a6142a4565b604051601f8201601f1916810167ffffffffffffffff81118282101715614116576141166142a4565b604052919050565b600067ffffffffffffffff821115614138576141386142a4565b5060051b60200190565b600067ffffffffffffffff82111561415c5761415c6142a4565b50601f01601f191660200190565b6000821982111561417d5761417d614262565b500190565b60008261419157614191614278565b500490565b60008160001904831182151516156141b0576141b0614262565b500290565b6000828210156141c7576141c7614262565b500390565b60005b838110156141e75781810151838201526020016141cf565b8381111561194d5750506000910152565b600181811c9082168061420c57607f821691505b6020821081141561422d57634e487b7160e01b600052602260045260246000fd5b50919050565b600060001982141561424757614247614262565b5060010190565b60008261425d5761425d614278565b500690565b634e487b7160e01b600052601160045260246000fd5b634e487b7160e01b600052601260045260246000fd5b634e487b7160e01b600052603260045260246000fd5b634e487b7160e01b600052604160045260246000fd5b6001600160a01b0381168114611f5e57600080fd5b6001600160e01b031981168114611f5e57600080fdfe4142434445464748494a4b4c4d4e4f505152535455565758595a6162636465666768696a6b6c6d6e6f707172737475767778797a303132333435363738392b2f3c7376672076696577426f783d2230203020313032342031303234222020786d6c6e733d22687474703a2f2f7777772e77332e6f72672f323030302f737667223e0a3c646566733e0aa2646970667358221220cb7457509a52adb939ef0ba2dadee6c1d12627a938ad3dac3df5f4c93501333e64736f6c6343000806003360a06040523480156200001157600080fd5b50604051620024a9380380620024a98339810160408190526200003491620000ce565b606081901b6001600160601b0319166080528062000052336200007c565b5050600354600480546001600160a01b0319166001600160a01b0390921691909117905562000100565b600380546001600160a01b038381166001600160a01b0319831681179093556040519116919082907f8be0079c531659141344cd1fd0a4f28419497f9722a3daafe3b4186f6b6457e090600090a35050565b600060208284031215620000e157600080fd5b81516001600160a01b0381168114620000f957600080fd5b9392505050565b60805160601c612383620001266000396000818161023501526109e001526123836000f3fe6080604052600436106101445760003560e01c8063715018a6116100c05780638da5cb5b11610074578063ea575c6111610059578063ea575c61146103ec578063f2fde38b14610402578063f851a4401461042257600080fd5b80638da5cb5b146103a0578063e3f24f02146103be57600080fd5b8063893d20e8116100a5578063893d20e8146102e65780638c40188e146102fb5780638d07c0821461038d57600080fd5b8063715018a6146102bc57806374c83268146102d157600080fd5b8063434ebc5511610117578063597a0e36116100fc578063597a0e36146102235780635c42d0791461026f578063704b6c021461029c57600080fd5b8063434ebc55146101e35780634854078f1461020357600080fd5b806301ffc9a7146101495780630e2600161461017e57806315ea29be146101ac57806318160ddd146101ce575b600080fd5b34801561015557600080fd5b50610169610164366004611b9a565b610442565b60405190151581526020015b60405180910390f35b34801561018a57600080fd5b5061019e6101993660046119f3565b610513565b604051908152602001610175565b3480156101b857600080fd5b506101cc6101c7366004611d34565b610926565b005b3480156101da57600080fd5b5060065461019e565b3480156101ef57600080fd5b5061019e6101fe366004611a2d565b6109db565b34801561020f57600080fd5b5061019e61021e366004611bc4565b610d7d565b34801561022f57600080fd5b506102577f000000000000000000000000000000000000000000000000000000000000000081565b6040516001600160a01b039091168152602001610175565b34801561027b57600080fd5b5061028f61028a366004611d1b565b610df6565b6040516101759190612109565b3480156102a857600080fd5b506101cc6102b73660046119f3565b610eb4565b3480156102c857600080fd5b506101cc610f3d565b3480156102dd57600080fd5b5060005461019e565b3480156102f257600080fd5b50610257610fa3565b34801561030757600080fd5b5061028f60408051606080820183528082526020820152600091810191909152506040805160a081018252600460608201908152630636f6d760e41b6080830152815281518083018352600e81527f417373657420436f6d706f736572000000000000000000000000000000000000602082810191909152820152309181019190915290565b6101cc61039b366004611d64565b610fbc565b3480156103ac57600080fd5b506003546001600160a01b0316610257565b3480156103ca57600080fd5b506103de6103d9366004611d1b565b61112b565b6040516101759291906120db565b3480156103f857600080fd5b5061019e60065481565b34801561040e57600080fd5b506101cc61041d3660046119f3565b611644565b34801561042e57600080fd5b50600454610257906001600160a01b031681565b60006001600160e01b031982167f6ef8e5880000000000000000000000000000000000000000000000000000000014806104a557506001600160e01b031982167fa0bcf35700000000000000000000000000000000000000000000000000000000145b806104d957506001600160e01b031982167f739eba3b00000000000000000000000000000000000000000000000000000000145b8061050d57506001600160e01b031982167f01ffc9a700000000000000000000000000000000000000000000000000000000145b92915050565b600080826001600160a01b0316638c40188e6040518163ffffffff1660e01b815260040160006040518083038186803b15801561054f57600080fd5b505afa158015610563573d6000803e3d6000fd5b505050506040513d6000823e601f3d908101601f1916820160405261058b9190810190611c5d565b9050600181600001516040516105a19190612015565b9081526020016040518091039020549150816000146107d757816105c481612257565b6000818152600260209081526040918290205482517f893d20e800000000000000000000000000000000000000000000000000000000815292519396506001600160a01b03169350839263893d20e8926004808201939291829003018186803b15801561063057600080fd5b505afa158015610644573d6000803e3d6000fd5b505050506040513d601f19601f820116820180604052508101906106689190611a10565b6001600160a01b0316846001600160a01b031663893d20e86040518163ffffffff1660e01b815260040160206040518083038186803b1580156106aa57600080fd5b505afa1580156106be573d6000803e3d6000fd5b505050506040513d601f19601f820116820180604052508101906106e29190611a10565b6001600160a01b0316146107635760405162461bcd60e51b815260206004820152603260248201527f4173736574436f6d706f7365723a726567697374657250726f76696465722c2060448201527f616c72656164792072656769737465726564000000000000000000000000000060648201526084015b60405180910390fd5b600083815260026020908152604091829020805473ffffffffffffffffffffffffffffffffffffffff19166001600160a01b03881617905581513381529081018590527f4141f33bf490d9190a43ac8dc2fd923fdd3a01d78b82d1fa85f803a91f4bf4ae910160405180910390a150610920565b80604001516001600160a01b0316836001600160a01b0316146108625760405162461bcd60e51b815260206004820152603060248201527f4173736574436f6d706f7365723a726567697374657250726f76696465722c2060448201527f61646472657373206d69736d6174636800000000000000000000000000000000606482015260840161075a565b6000805484916002918180610876836122a3565b91905055815260200190815260200160002060006101000a8154816001600160a01b0302191690836001600160a01b03160217905550600054600182600001516040516108c39190612015565b908152604051908190036020019020556000546108e290600190612210565b60408051338152602081018390529193507f90c9734131c1e4fb36cde2d71e6feb93fb258f71be8a85411c173d25e1516e8091015b60405180910390a15b50919050565b6003546001600160a01b031633148061094957506004546001600160a01b031633145b6109bb5760405162461bcd60e51b815260206004820152602660248201527f4173736574436f6d706f7365723a2063616c6c6572206973206e6f742074686560448201527f2061646d696e0000000000000000000000000000000000000000000000000000606482015260840161075a565b600091825260056020526040909120805460ff1916911515919091179055565b6000807f00000000000000000000000000000000000000000000000000000000000000006001600160a01b031663a57cfb246040518163ffffffff1660e01b815260040160206040518083038186803b158015610a3757600080fd5b505afa158015610a4b573d6000803e3d6000fd5b505050506040513d601f19601f82011682018060405250810190610a6f9190611a10565b600680549192506000610a81836122a3565b9091555083516000828152600760205260408120919091559092505b8351811015610d46576000848281518110610aba57610aba6122fe565b602002602001015190506000816000015190506000610adc8360200151610d7d565b6040805180820182526fffffffffffffffffffffffffffffffff8084168252858116602080840191825260008c8152600882528581208b825290915293909320915192518116600160801b029216919091179055606084015180519192509015610c315760405163c16e50ef60e01b81526001600160a01b0387169063c16e50ef90610b6c9084906004016120c8565b60206040518083038186803b158015610b8457600080fd5b505afa158015610b98573d6000803e3d6000fd5b505050506040513d601f19601f82011682018060405250810190610bbc9190611b7d565b610c085760405162461bcd60e51b815260206004820152601b60248201527f72656769737465723a20496e76616c6964207472616e73666f726d0000000000604482015260640161075a565b600087815260096020908152604080832088845282529091208251610c2f928401906118bf565b505b6040840151805115610d2e5760405163c16e50ef60e01b81526001600160a01b0388169063c16e50ef90610c699084906004016120c8565b60206040518083038186803b158015610c8157600080fd5b505afa158015610c95573d6000803e3d6000fd5b505050506040513d601f19601f82011682018060405250810190610cb99190611b7d565b610d055760405162461bcd60e51b815260206004820152601660248201527f72656769737465723a20496e76616c69642066696c6c00000000000000000000604482015260640161075a565b6000888152600a6020908152604080832089845282529091208251610d2c928401906118bf565b505b50505050508080610d3e906122a3565b915050610a9d565b5060408051338152602081018490527fb6b49fb493aab716d37ffe3ad9f192adb9d7c116b0ca7423db8d0e56a1dc93b29101610917565b600080600183604051610d909190612015565b90815260200160405180910390205490506000811183604051602001610db69190612031565b60405160208183030381529060405290610de35760405162461bcd60e51b815260040161075a91906120c8565b50610def600182612210565b9392505050565b604080516060808201835280825260208201526000918101919091526000828152600260205260408082205481517f8c40188e00000000000000000000000000000000000000000000000000000000815291516001600160a01b03909116928392638c40188e9260048083019392829003018186803b158015610e7857600080fd5b505afa158015610e8c573d6000803e3d6000fd5b505050506040513d6000823e601f3d908101601f19168201604052610def9190810190611c5d565b6003546001600160a01b03163314610f0e5760405162461bcd60e51b815260206004820181905260248201527f4f776e61626c653a2063616c6c6572206973206e6f7420746865206f776e6572604482015260640161075a565b6004805473ffffffffffffffffffffffffffffffffffffffff19166001600160a01b0392909216919091179055565b6003546001600160a01b03163314610f975760405162461bcd60e51b815260206004820181905260248201527f4f776e61626c653a2063616c6c6572206973206e6f7420746865206f776e6572604482015260640161075a565b610fa16000611726565b565b6000610fb76003546001600160a01b031690565b905090565b60008281526007602052604090205480821015610fea57610fde600182612210565b905080610fea57505050565b6000610ff682346121fc565b9050806110035750505050565b60005b82811015611124578381141561101b57611112565b600085815260086020908152604080832084845282528083208151808301909252546fffffffffffffffffffffffffffffffff808216808452600160801b9092041692820192909252919061106f90610df6565b604080820151602085015191517f8d07c0820000000000000000000000000000000000000000000000000000000081526fffffffffffffffffffffffffffffffff90921660048301526402540be40060248301529192506001600160a01b0390911690638d07c0829086906044016000604051808303818588803b1580156110f657600080fd5b505af115801561110a573d6000803e3d6000fd5b505050505050505b8061111c816122a3565b915050611006565b5050505050565b6000818152600560205260409020546060908190839060ff161515600114156111bc5760405162461bcd60e51b815260206004820152602a60248201527f4173736574436f6d706f7365723a207468697320636f6d706f736974696f6e2060448201527f697320646961626c656400000000000000000000000000000000000000000000606482015260840161075a565b600084815260076020526040812054906060908190819081908567ffffffffffffffff8111156111ee576111ee612314565b604051908082528060200260200182016040528015611217578160200160208202803683370190505b50905060005b868110156115e45760008b815260086020908152604080832084845282528083208151808301909252546fffffffffffffffffffffffffffffffff808216808452600160801b9092041692820192909252919061127990610df6565b905080604001516001600160a01b031663e3f24f0283602001516fffffffffffffffffffffffffffffffff166040518263ffffffff1660e01b81526004016112c391815260200190565b60006040518083038186803b1580156112db57600080fd5b505afa1580156112ef573d6000803e3d6000fd5b505050506040513d6000823e601f3d908101601f191682016040526113179190810190611bf9565b6040519197509550600090611330908790602001612015565b60408051601f1981840301815291905280516020909101209050600160005b85811015611393578287828151811061136a5761136a6122fe565b602002602001015114156113815760009150611393565b8061138b816122a3565b91505061134f565b5080156113de5789886040516020016113ad929190611db2565b6040516020818303038152906040529950818686815181106113d1576113d16122fe565b6020026020010181815250505b505086856040516020016113f3929190611de1565b60408051601f1981840301815291815260008f81526009602090815282822087835290529081208054929950909161142a9061226e565b80601f01602080910402602001604051908101604052809291908181526020018280546114569061226e565b80156114a35780601f10611478576101008083540402835291602001916114a3565b820191906000526020600020905b81548152906001019060200180831161148657829003601f168201915b505050505090506000815111156114d95787816040516020016114c7929190611faf565b60405160208183030381529060405297505b60008e8152600a60209081526040808320878452909152902080546114fd9061226e565b80601f01602080910402602001604051908101604052809291908181526020018280546115299061226e565b80156115765780601f1061154b57610100808354040283529160200191611576565b820191906000526020600020905b81548152906001019060200180831161155957829003601f168201915b505050505090506000815111156115ac57878160405160200161159a929190611e88565b60405160208183030381529060405297505b876040516020016115bd9190611e47565b604051602081830303815290604052975050505080806115dc906122a3565b91505061121d565b506115ee8a611785565b6040516020016115fe919061209c565b604051602081830303815290604052915084828560405160200161162493929190611eee565b60408051601f198184030181529190529850909650505050505050915091565b6003546001600160a01b0316331461169e5760405162461bcd60e51b815260206004820181905260248201527f4f776e61626c653a2063616c6c6572206973206e6f7420746865206f776e6572604482015260640161075a565b6001600160a01b03811661171a5760405162461bcd60e51b815260206004820152602660248201527f4f776e61626c653a206e6577206f776e657220697320746865207a65726f206160448201527f6464726573730000000000000000000000000000000000000000000000000000606482015260840161075a565b61172381611726565b50565b600380546001600160a01b0383811673ffffffffffffffffffffffffffffffffffffffff19831681179093556040519116919082907f8be0079c531659141344cd1fd0a4f28419497f9722a3daafe3b4186f6b6457e090600090a35050565b6060816117c557505060408051808201909152600181527f3000000000000000000000000000000000000000000000000000000000000000602082015290565b8160005b81156117ef57806117d9816122a3565b91506117e89050600a836121fc565b91506117c9565b60008167ffffffffffffffff81111561180a5761180a612314565b6040519080825280601f01601f191660200182016040528015611834576020820181803683370190505b5090505b84156118b757611849600183612210565b9150611856600a866122be565b6118619060306121e4565b60f81b818381518110611876576118766122fe565b60200101907effffffffffffffffffffffffffffffffffffffffffffffffffffffffffffff1916908160001a9053506118b0600a866121fc565b9450611838565b949350505050565b8280546118cb9061226e565b90600052602060002090601f0160209004810192826118ed5760008555611933565b82601f1061190657805160ff1916838001178555611933565b82800160010185558215611933579182015b82811115611933578251825591602001919060010190611918565b5061193f929150611943565b5090565b5b8082111561193f5760008155600101611944565b600082601f83011261196957600080fd5b813561197c611977826121bc565b61218b565b81815284602083860101111561199157600080fd5b816020850160208301376000918101602001919091529392505050565b600082601f8301126119bf57600080fd5b81516119cd611977826121bc565b8181528460208386010111156119e257600080fd5b6118b7826020830160208701612227565b600060208284031215611a0557600080fd5b8135610def8161232a565b600060208284031215611a2257600080fd5b8151610def8161232a565b60006020808385031215611a4057600080fd5b823567ffffffffffffffff80821115611a5857600080fd5b818501915085601f830112611a6c57600080fd5b813581811115611a7e57611a7e612314565b8060051b611a8d85820161218b565b8281528581019085870183870188018b1015611aa857600080fd5b600093505b84841015611b6f57803586811115611ac457600080fd5b87016080818d03601f1901811315611adb57600080fd5b611ae3612162565b8a8301358152604083013589811115611afb57600080fd5b611b098f8d83870101611958565b8c83015250606083013589811115611b2057600080fd5b611b2e8f8d83870101611958565b604083015250908201359088821115611b4657600080fd5b611b548e8c84860101611958565b60608201528552505060019390930192918701918701611aad565b509998505050505050505050565b600060208284031215611b8f57600080fd5b8151610def8161233f565b600060208284031215611bac57600080fd5b81356001600160e01b031981168114610def57600080fd5b600060208284031215611bd657600080fd5b813567ffffffffffffffff811115611bed57600080fd5b6118b784828501611958565b60008060408385031215611c0c57600080fd5b825167ffffffffffffffff80821115611c2457600080fd5b611c30868387016119ae565b93506020850151915080821115611c4657600080fd5b50611c53858286016119ae565b9150509250929050565b600060208284031215611c6f57600080fd5b815167ffffffffffffffff80821115611c8757600080fd5b9083019060608286031215611c9b57600080fd5b604051606081018181108382111715611cb657611cb6612314565b604052825182811115611cc857600080fd5b611cd4878286016119ae565b825250602083015182811115611ce957600080fd5b611cf5878286016119ae565b60208301525060408301519250611d0b8361232a565b6040810192909252509392505050565b600060208284031215611d2d57600080fd5b5035919050565b60008060408385031215611d4757600080fd5b823591506020830135611d598161233f565b809150509250929050565b60008060408385031215611d7757600080fd5b50508035926020909101359150565b60008151808452611d9e816020860160208601612227565b601f01601f19169290920160200192915050565b60008351611dc4818460208801612227565b835190830190611dd8818360208801612227565b01949350505050565b60008351611df3818460208801612227565b7f203c75736520687265663d2223000000000000000000000000000000000000009083019081528351611e2d81600d840160208801612227565b601160f91b600d9290910191820152600e01949350505050565b60008251611e59818460208701612227565b7f202f3e0a00000000000000000000000000000000000000000000000000000000920191825250600401919050565b60008351611e9a818460208801612227565b7f2066696c6c3d22000000000000000000000000000000000000000000000000009083019081528351611ed4816007840160208801612227565b601160f91b60079290910191820152600801949350505050565b60008451611f00818460208901612227565b7f3c672069643d22000000000000000000000000000000000000000000000000009083019081528451611f3a816007840160208901612227565b7f22203e0a00000000000000000000000000000000000000000000000000000000600792909101918201528351611f7881600b840160208801612227565b7f3c2f673e0a000000000000000000000000000000000000000000000000000000600b929091019182015260100195945050505050565b60008351611fc1818460208801612227565b7f207472616e73666f726d3d2200000000000000000000000000000000000000009083019081528351611ffb81600c840160208801612227565b601160f91b600c9290910191820152600d01949350505050565b60008251612027818460208701612227565b9190910192915050565b7f417373657374436f6d706f7365723a67657450726f766964657249642c20746881527f652070726f766964657220646f6573206e6f742065786973743a00000000000060208201526000825161208f81603a850160208701612227565b91909101603a0192915050565b630636f6d760e41b8152600082516120bb816004850160208701612227565b9190910160040192915050565b602081526000610def6020830184611d86565b6040815260006120ee6040830185611d86565b82810360208401526121008185611d86565b95945050505050565b6020815260008251606060208401526121256080840182611d86565b90506020840151601f198483030160408501526121428282611d86565b9150506001600160a01b0360408501511660608401528091505092915050565b6040516080810167ffffffffffffffff8111828210171561218557612185612314565b60405290565b604051601f8201601f1916810167ffffffffffffffff811182821017156121b4576121b4612314565b604052919050565b600067ffffffffffffffff8211156121d6576121d6612314565b50601f01601f191660200190565b600082198211156121f7576121f76122d2565b500190565b60008261220b5761220b6122e8565b500490565b600082821015612222576122226122d2565b500390565b60005b8381101561224257818101518382015260200161222a565b83811115612251576000848401525b50505050565b600081612266576122666122d2565b506000190190565b600181811c9082168061228257607f821691505b6020821081141561092057634e487b7160e01b600052602260045260246000fd5b60006000198214156122b7576122b76122d2565b5060010190565b6000826122cd576122cd6122e8565b500690565b634e487b7160e01b600052601160045260246000fd5b634e487b7160e01b600052601260045260246000fd5b634e487b7160e01b600052603260045260246000fd5b634e487b7160e01b600052604160045260246000fd5b6001600160a01b038116811461172357600080fd5b801515811461172357600080fdfea2646970667358221220766626ac75c1ad7b3684cf1fde1ff92b40c2c2c126b27161ecfd848cab679dc864736f6c6343000806003360a060405234801561001057600080fd5b5060405161162238038061162283398101604081905261002f9161009d565b6100383361004d565b60601b6001600160601b0319166080526100cd565b600080546001600160a01b038381166001600160a01b0319831681178455604051919092169283917f8be0079c531659141344cd1fd0a4f28419497f9722a3daafe3b4186f6b6457e09190a35050565b6000602082840312156100af57600080fd5b81516001600160a01b03811681146100c657600080fd5b9392505050565b60805160601c6114f1610131600039600081816101cc0152818161044a015281816104e2015281816105770152818161065a0152818161071f01528181610843015281816108da01528181610a4a01528181610ade0152610b9301526114f16000f3fe6080604052600436106100f35760003560e01c80637805544c1161008a5780638da5cb5b116100595780638da5cb5b1461026a578063d4f056d41461033b578063e3f24f021461035b578063f2fde38b1461038957600080fd5b80637805544c1461024a578063893d20e81461026a5780638c40188e146102885780638d07c0821461032857600080fd5b8063515f28cb116100c6578063515f28cb1461019a578063597a0e36146101ba5780635c73924c14610206578063715018a61461023357600080fd5b806301ffc9a7146100f857806306545a931461012d57806318160ddd14610157578063468823e21461017a575b600080fd5b34801561010457600080fd5b50610118610113366004610e61565b6103a9565b60405190151581526020015b60405180910390f35b34801561013957600080fd5b50610142610446565b60405163ffffffff9091168152602001610124565b34801561016357600080fd5b5061016c6104de565b604051908152602001610124565b34801561018657600080fd5b5061016c610195366004610f59565b610571565b3480156101a657600080fd5b506101426101b5366004610ef5565b610627565b3480156101c657600080fd5b506101ee7f000000000000000000000000000000000000000000000000000000000000000081565b6040516001600160a01b039091168152602001610124565b34801561021257600080fd5b506102266102213660046111d1565b6106e8565b6040516101249190611237565b34801561023f57600080fd5b506102486107a5565b005b34801561025657600080fd5b50610226610265366004610fd1565b610810565b34801561027657600080fd5b506000546001600160a01b03166101ee565b34801561029457600080fd5b5061031b60408051606080820183528082526020820152600091810191909152506040805160a08101825260056060820190815264185cdcd95d60da1b6080830152815281518083018352600b81527f41737365742053746f7265000000000000000000000000000000000000000000602082810191909152820152309181019190915290565b6040516101249190611314565b6102486103363660046111af565b6108ce565b34801561034757600080fd5b50610142610356366004610e8b565b610a17565b34801561036757600080fd5b5061037b61037636600461117d565b610acf565b60405161012492919061124a565b34801561039557600080fd5b506102486103a4366004610e44565b610c3d565b60006001600160e01b031982167f739eba3b00000000000000000000000000000000000000000000000000000000148061040c57506001600160e01b031982167fe105c16e00000000000000000000000000000000000000000000000000000000145b8061044057506001600160e01b031982167f01ffc9a700000000000000000000000000000000000000000000000000000000145b92915050565b60007f00000000000000000000000000000000000000000000000000000000000000006001600160a01b03166306545a936040518163ffffffff1660e01b815260040160206040518083038186803b1580156104a157600080fd5b505afa1580156104b5573d6000803e3d6000fd5b505050506040513d601f19601f820116820180604052508101906104d991906111ee565b905090565b60007f00000000000000000000000000000000000000000000000000000000000000006001600160a01b031663a0aead4d6040518163ffffffff1660e01b815260040160206040518083038186803b15801561053957600080fd5b505afa15801561054d573d6000803e3d6000fd5b505050506040513d601f19601f820116820180604052508101906104d99190611196565b600060017f00000000000000000000000000000000000000000000000000000000000000006001600160a01b031663468823e28686866040518463ffffffff1660e01b81526004016105c593929190611278565b60206040518083038186803b1580156105dd57600080fd5b505afa1580156105f1573d6000803e3d6000fd5b505050506040513d601f19601f820116820180604052508101906106159190611196565b61061f9190611421565b949350505050565b6040517f515f28cb0000000000000000000000000000000000000000000000000000000081526000906001600160a01b037f0000000000000000000000000000000000000000000000000000000000000000169063515f28cb90610691908690869060040161124a565b60206040518083038186803b1580156106a957600080fd5b505afa1580156106bd573d6000803e3d6000fd5b505050506040513d601f19601f820116820180604052508101906106e191906111ee565b9392505050565b6040517f5c73924c00000000000000000000000000000000000000000000000000000000815263ffffffff821660048201526060907f00000000000000000000000000000000000000000000000000000000000000006001600160a01b031690635c73924c9060240160006040518083038186803b15801561076957600080fd5b505afa15801561077d573d6000803e3d6000fd5b505050506040513d6000823e601f3d908101601f191682016040526104409190810190610ec0565b6000546001600160a01b031633146108045760405162461bcd60e51b815260206004820181905260248201527f4f776e61626c653a2063616c6c6572206973206e6f7420746865206f776e657260448201526064015b60405180910390fd5b61080e6000610d1f565b565b6040517f7805544c0000000000000000000000000000000000000000000000000000000081526060906001600160a01b037f00000000000000000000000000000000000000000000000000000000000000001690637805544c9061087a90869086906004016112ec565b60006040518083038186803b15801561089257600080fd5b505afa1580156108a6573d6000803e3d6000fd5b505050506040513d6000823e601f3d908101601f191682016040526106e19190810190610ec0565b60006001600160a01b037f000000000000000000000000000000000000000000000000000000000000000016634378a6e361090a856001611409565b6040518263ffffffff1660e01b815260040161092891815260200190565b60006040518083038186803b15801561094057600080fd5b505afa158015610954573d6000803e3d6000fd5b505050506040513d6000823e601f3d908101601f1916820160405261097c9190810190611023565b60a0810151604051919250906001600160a01b038216903480156108fc02916000818181858888f193505050501580156109ba573d6000803e3d6000fd5b506040805180820182526005815264185cdcd95d60da1b602082015290517fbb0eeee27936db25b1a46a81ab6d97326392a3e961efa7273d5d756d7a2e1cad91610a09918790859034906112b4565b60405180910390a150505050565b6040517fd4f056d40000000000000000000000000000000000000000000000000000000081526000906001600160a01b037f0000000000000000000000000000000000000000000000000000000000000000169063d4f056d490610a7f908590600401611237565b60206040518083038186803b158015610a9757600080fd5b505afa158015610aab573d6000803e3d6000fd5b505050506040513d601f19601f8201168201806040525081019061044091906111ee565b60608060006001600160a01b037f000000000000000000000000000000000000000000000000000000000000000016634378a6e3610b0e866001611409565b6040518263ffffffff1660e01b8152600401610b2c91815260200190565b60006040518083038186803b158015610b4457600080fd5b505afa158015610b58573d6000803e3d6000fd5b505050506040513d6000823e601f3d908101601f19168201604052610b809190810190611023565b6060810151925090506001600160a01b037f0000000000000000000000000000000000000000000000000000000000000000166334320bf1610bc3866001611409565b846040518363ffffffff1660e01b8152600401610be192919061136d565b60006040518083038186803b158015610bf957600080fd5b505afa158015610c0d573d6000803e3d6000fd5b505050506040513d6000823e601f3d908101601f19168201604052610c359190810190610ec0565b925050915091565b6000546001600160a01b03163314610c975760405162461bcd60e51b815260206004820181905260248201527f4f776e61626c653a2063616c6c6572206973206e6f7420746865206f776e657260448201526064016107fb565b6001600160a01b038116610d135760405162461bcd60e51b815260206004820152602660248201527f4f776e61626c653a206e6577206f776e657220697320746865207a65726f206160448201527f646472657373000000000000000000000000000000000000000000000000000060648201526084016107fb565b610d1c81610d1f565b50565b600080546001600160a01b038381167fffffffffffffffffffffffff0000000000000000000000000000000000000000831681178455604051919092169283917f8be0079c531659141344cd1fd0a4f28419497f9722a3daafe3b4186f6b6457e09190a35050565b8051610d9281611494565b919050565b600082601f830112610da857600080fd5b8151610dbb610db6826113e1565b6113b0565b818152846020838601011115610dd057600080fd5b61061f826020830160208701611438565b600082601f830112610df257600080fd5b8135610e00610db6826113e1565b818152846020838601011115610e1557600080fd5b816020850160208301376000918101602001919091529392505050565b805161ffff81168114610d9257600080fd5b600060208284031215610e5657600080fd5b81356106e181611494565b600060208284031215610e7357600080fd5b81356001600160e01b0319811681146106e157600080fd5b600060208284031215610e9d57600080fd5b813567ffffffffffffffff811115610eb457600080fd5b61061f84828501610de1565b600060208284031215610ed257600080fd5b815167ffffffffffffffff811115610ee957600080fd5b61061f84828501610d97565b60008060408385031215610f0857600080fd5b823567ffffffffffffffff80821115610f2057600080fd5b610f2c86838701610de1565b93506020850135915080821115610f4257600080fd5b50610f4f85828601610de1565b9150509250929050565b600080600060608486031215610f6e57600080fd5b833567ffffffffffffffff80821115610f8657600080fd5b610f9287838801610de1565b94506020860135915080821115610fa857600080fd5b50610fb586828701610de1565b9250506040840135610fc6816114a9565b809150509250925092565b60008060408385031215610fe457600080fd5b823567ffffffffffffffff811115610ffb57600080fd5b61100785828601610de1565b9250506020830135611018816114a9565b809150509250929050565b60006020828403121561103557600080fd5b815167ffffffffffffffff8082111561104d57600080fd5b90830190610120828603121561106257600080fd5b61106a611386565b82518281111561107957600080fd5b61108587828601610d97565b82525060208301518281111561109a57600080fd5b6110a687828601610d97565b6020830152506040830151828111156110be57600080fd5b6110ca87828601610d97565b6040830152506060830151828111156110e257600080fd5b6110ee87828601610d97565b60608301525060808301518281111561110657600080fd5b61111287828601610d97565b60808301525061112460a08401610d87565b60a082015260c08301518281111561113b57600080fd5b61114787828601610d97565b60c08301525061115960e08401610e32565b60e0820152610100915061116e828401610e32565b91810191909152949350505050565b60006020828403121561118f57600080fd5b5035919050565b6000602082840312156111a857600080fd5b5051919050565b600080604083850312156111c257600080fd5b50508035926020909101359150565b6000602082840312156111e357600080fd5b81356106e1816114a9565b60006020828403121561120057600080fd5b81516106e1816114a9565b60008151808452611223816020860160208601611438565b601f01601f19169290920160200192915050565b6020815260006106e1602083018461120b565b60408152600061125d604083018561120b565b828103602084015261126f818561120b565b95945050505050565b60608152600061128b606083018661120b565b828103602084015261129d818661120b565b91505063ffffffff83166040830152949350505050565b6080815260006112c7608083018761120b565b6020830195909552506001600160a01b03929092166040830152606090910152919050565b6040815260006112ff604083018561120b565b905063ffffffff831660208301529392505050565b602081526000825160606020840152611330608084018261120b565b90506020840151601f1984830301604085015261134d828261120b565b9150506001600160a01b0360408501511660608401528091505092915050565b82815260406020820152600061061f604083018461120b565b604051610120810167ffffffffffffffff811182821017156113aa576113aa61147e565b60405290565b604051601f8201601f1916810167ffffffffffffffff811182821017156113d9576113d961147e565b604052919050565b600067ffffffffffffffff8211156113fb576113fb61147e565b50601f01601f191660200190565b6000821982111561141c5761141c611468565b500190565b60008282101561143357611433611468565b500390565b60005b8381101561145357818101518382015260200161143b565b83811115611462576000848401525b50505050565b634e487b7160e01b600052601160045260246000fd5b634e487b7160e01b600052604160045260246000fd5b6001600160a01b0381168114610d1c57600080fd5b63ffffffff81168114610d1c57600080fdfea2646970667358221220c0b7a3239f3db179a0f11dceec976daf02cbfaae53fea0e0811df4e0035b66b764736f6c6343000806003354686973206973206f6e65206f6620656666747320746f2063726561746520284f6e2d436861696e2041737365742053746f7265295b68747470733a2f2f617373657473746f72652e7774662f647261775d2e20",
  "linkReferences": {},
  "deployedLinkReferences": {}
}