{
  "_format": "hh-sol-artifact-1",
  "contractName": "DrawYourOwn",
  "sourceName": "contracts/DrawYourOwn.sol",
  "abi": [
    {
      "inputs": [
        {
          "internalType": "contract IAssetStoreRegistry",
          "name": "_registry",
          "type": "address"
        },
        {
          "internalType": "contract IAssetStore",
          "name": "_assetStore",
          "type": "address"
        },
        {
          "internalType": "address",
          "name": "_developer",
          "type": "address"
        },
        {
          "internalType": "contract IProxyRegistry",
          "name": "_proxyRegistry",
          "type": "address"
        }
      ],
      "stateMutability": "nonpayable",
      "type": "constructor"
    },
    {
      "inputs": [],
      "name": "ApprovalCallerNotOwnerNorApproved",
      "type": "error"
    },
    {
      "inputs": [],
      "name": "ApprovalQueryForNonexistentToken",
      "type": "error"
    },
    {
      "inputs": [],
      "name": "ApproveToCaller",
      "type": "error"
    },
    {
      "inputs": [],
      "name": "BalanceQueryForZeroAddress",
      "type": "error"
    },
    {
      "inputs": [],
      "name": "MintERC2309QuantityExceedsLimit",
      "type": "error"
    },
    {
      "inputs": [],
      "name": "MintToZeroAddress",
      "type": "error"
    },
    {
      "inputs": [],
      "name": "MintZeroQuantity",
      "type": "error"
    },
    {
      "inputs": [],
      "name": "OwnerQueryForNonexistentToken",
      "type": "error"
    },
    {
      "inputs": [],
      "name": "OwnershipNotInitializedForExtraData",
      "type": "error"
    },
    {
      "inputs": [],
      "name": "TransferCallerNotOwnerNorApproved",
      "type": "error"
    },
    {
      "inputs": [],
      "name": "TransferFromIncorrectOwner",
      "type": "error"
    },
    {
      "inputs": [],
      "name": "TransferToNonERC721ReceiverImplementer",
      "type": "error"
    },
    {
      "inputs": [],
      "name": "TransferToZeroAddress",
      "type": "error"
    },
    {
      "inputs": [],
      "name": "URIQueryForNonexistentToken",
      "type": "error"
    },
    {
      "anonymous": false,
      "inputs": [
        {
          "indexed": true,
          "internalType": "address",
          "name": "owner",
          "type": "address"
        },
        {
          "indexed": true,
          "internalType": "address",
          "name": "approved",
          "type": "address"
        },
        {
          "indexed": true,
          "internalType": "uint256",
          "name": "tokenId",
          "type": "uint256"
        }
      ],
      "name": "Approval",
      "type": "event"
    },
    {
      "anonymous": false,
      "inputs": [
        {
          "indexed": true,
          "internalType": "address",
          "name": "owner",
          "type": "address"
        },
        {
          "indexed": true,
          "internalType": "address",
          "name": "operator",
          "type": "address"
        },
        {
          "indexed": false,
          "internalType": "bool",
          "name": "approved",
          "type": "bool"
        }
      ],
      "name": "ApprovalForAll",
      "type": "event"
    },
    {
      "anonymous": false,
      "inputs": [
        {
          "indexed": true,
          "internalType": "uint256",
          "name": "fromTokenId",
          "type": "uint256"
        },
        {
          "indexed": false,
          "internalType": "uint256",
          "name": "toTokenId",
          "type": "uint256"
        },
        {
          "indexed": true,
          "internalType": "address",
          "name": "from",
          "type": "address"
        },
        {
          "indexed": true,
          "internalType": "address",
          "name": "to",
          "type": "address"
        }
      ],
      "name": "ConsecutiveTransfer",
      "type": "event"
    },
    {
      "anonymous": false,
      "inputs": [
        {
          "indexed": true,
          "internalType": "address",
          "name": "previousOwner",
          "type": "address"
        },
        {
          "indexed": true,
          "internalType": "address",
          "name": "newOwner",
          "type": "address"
        }
      ],
      "name": "OwnershipTransferred",
      "type": "event"
    },
    {
      "anonymous": false,
      "inputs": [
        {
          "indexed": true,
          "internalType": "address",
          "name": "from",
          "type": "address"
        },
        {
          "indexed": true,
          "internalType": "address",
          "name": "to",
          "type": "address"
        },
        {
          "indexed": true,
          "internalType": "uint256",
          "name": "tokenId",
          "type": "uint256"
        }
      ],
      "name": "Transfer",
      "type": "event"
    },
    {
      "inputs": [
        {
          "internalType": "address",
          "name": "to",
          "type": "address"
        },
        {
          "internalType": "uint256",
          "name": "tokenId",
          "type": "uint256"
        }
      ],
      "name": "approve",
      "outputs": [],
      "stateMutability": "nonpayable",
      "type": "function"
    },
    {
      "inputs": [
        {
          "internalType": "uint256",
          "name": "_tokenId",
          "type": "uint256"
        }
      ],
      "name": "assetIdOfToken",
      "outputs": [
        {
          "internalType": "uint256",
          "name": "",
          "type": "uint256"
        }
      ],
      "stateMutability": "view",
      "type": "function"
    },
    {
      "inputs": [],
      "name": "assetStore",
      "outputs": [
        {
          "internalType": "contract IAssetStore",
          "name": "",
          "type": "address"
        }
      ],
      "stateMutability": "view",
      "type": "function"
    },
    {
      "inputs": [
        {
          "internalType": "address",
          "name": "owner",
          "type": "address"
        }
      ],
      "name": "balanceOf",
      "outputs": [
        {
          "internalType": "uint256",
          "name": "",
          "type": "uint256"
        }
      ],
      "stateMutability": "view",
      "type": "function"
    },
    {
      "inputs": [],
      "name": "description",
      "outputs": [
        {
          "internalType": "string",
          "name": "",
          "type": "string"
        }
      ],
      "stateMutability": "view",
      "type": "function"
    },
    {
      "inputs": [],
      "name": "developer",
      "outputs": [
        {
          "internalType": "address",
          "name": "",
          "type": "address"
        }
      ],
      "stateMutability": "view",
      "type": "function"
    },
    {
      "inputs": [
        {
          "internalType": "string",
          "name": "_svgPart",
          "type": "string"
        },
        {
          "internalType": "uint256",
          "name": "_style",
          "type": "uint256"
        },
        {
          "internalType": "string",
          "name": "_tag",
          "type": "string"
        }
      ],
      "name": "generateSVG",
      "outputs": [
        {
          "internalType": "string",
          "name": "",
          "type": "string"
        }
      ],
      "stateMutability": "view",
      "type": "function"
    },
    {
      "inputs": [
        {
          "internalType": "string",
          "name": "_svgPart",
          "type": "string"
        },
        {
          "internalType": "uint256",
          "name": "_style",
          "type": "uint256"
        },
        {
          "internalType": "string",
          "name": "_tag",
          "type": "string"
        },
        {
          "internalType": "uint256",
          "name": "_backgrounId",
          "type": "uint256"
        },
        {
          "internalType": "string",
          "name": "_color",
          "type": "string"
        }
      ],
      "name": "generateSVGEx",
      "outputs": [
        {
          "internalType": "string",
          "name": "",
          "type": "string"
        }
      ],
      "stateMutability": "view",
      "type": "function"
    },
    {
      "inputs": [
        {
          "internalType": "uint256",
          "name": "tokenId",
          "type": "uint256"
        }
      ],
      "name": "getApproved",
      "outputs": [
        {
          "internalType": "address",
          "name": "",
          "type": "address"
        }
      ],
      "stateMutability": "view",
      "type": "function"
    },
    {
      "inputs": [],
      "name": "getCurrentToken",
      "outputs": [
        {
          "internalType": "uint256",
          "name": "",
          "type": "uint256"
        }
      ],
      "stateMutability": "view",
      "type": "function"
    },
    {
      "inputs": [
        {
          "internalType": "address",
          "name": "owner",
          "type": "address"
        },
        {
          "internalType": "address",
          "name": "operator",
          "type": "address"
        }
      ],
      "name": "isApprovedForAll",
      "outputs": [
        {
          "internalType": "bool",
          "name": "",
          "type": "bool"
        }
      ],
      "stateMutability": "view",
      "type": "function"
    },
    {
      "inputs": [
        {
          "components": [
            {
              "internalType": "string",
              "name": "group",
              "type": "string"
            },
            {
              "internalType": "string",
              "name": "category",
              "type": "string"
            },
            {
              "internalType": "string",
              "name": "name",
              "type": "string"
            },
            {
              "internalType": "string",
              "name": "minter",
              "type": "string"
            },
            {
              "internalType": "address",
              "name": "soulbound",
              "type": "address"
            },
            {
              "internalType": "bytes",
              "name": "metadata",
              "type": "bytes"
            },
            {
              "components": [
                {
                  "internalType": "bytes",
                  "name": "body",
                  "type": "bytes"
                },
                {
                  "internalType": "string",
                  "name": "color",
                  "type": "string"
                }
              ],
              "internalType": "struct IAssetStoreRegistry.Part[]",
              "name": "parts",
              "type": "tuple[]"
            }
          ],
          "internalType": "struct IAssetStoreRegistry.AssetInfo",
          "name": "_assetInfo",
          "type": "tuple"
        },
        {
          "internalType": "uint256",
          "name": "_backgroundId",
          "type": "uint256"
        },
        {
          "internalType": "string",
          "name": "_color",
          "type": "string"
        },
        {
          "internalType": "uint256",
          "name": "_affiliate",
          "type": "uint256"
        }
      ],
      "name": "mintWithAsset",
      "outputs": [],
      "stateMutability": "nonpayable",
      "type": "function"
    },
    {
      "inputs": [],
      "name": "name",
      "outputs": [
        {
          "internalType": "string",
          "name": "",
          "type": "string"
        }
      ],
      "stateMutability": "view",
      "type": "function"
    },
    {
      "inputs": [],
      "name": "owner",
      "outputs": [
        {
          "internalType": "address",
          "name": "",
          "type": "address"
        }
      ],
      "stateMutability": "view",
      "type": "function"
    },
    {
      "inputs": [
        {
          "internalType": "uint256",
          "name": "tokenId",
          "type": "uint256"
        }
      ],
      "name": "ownerOf",
      "outputs": [
        {
          "internalType": "address",
          "name": "",
          "type": "address"
        }
      ],
      "stateMutability": "view",
      "type": "function"
    },
    {
      "inputs": [],
      "name": "proxyRegistry",
      "outputs": [
        {
          "internalType": "contract IProxyRegistry",
          "name": "",
          "type": "address"
        }
      ],
      "stateMutability": "view",
      "type": "function"
    },
    {
      "inputs": [],
      "name": "registry",
      "outputs": [
        {
          "internalType": "contract IAssetStoreRegistry",
          "name": "",
          "type": "address"
        }
      ],
      "stateMutability": "view",
      "type": "function"
    },
    {
      "inputs": [],
      "name": "renounceOwnership",
      "outputs": [],
      "stateMutability": "nonpayable",
      "type": "function"
    },
    {
      "inputs": [
        {
          "internalType": "address",
          "name": "from",
          "type": "address"
        },
        {
          "internalType": "address",
          "name": "to",
          "type": "address"
        },
        {
          "internalType": "uint256",
          "name": "tokenId",
          "type": "uint256"
        }
      ],
      "name": "safeTransferFrom",
      "outputs": [],
      "stateMutability": "nonpayable",
      "type": "function"
    },
    {
      "inputs": [
        {
          "internalType": "address",
          "name": "from",
          "type": "address"
        },
        {
          "internalType": "address",
          "name": "to",
          "type": "address"
        },
        {
          "internalType": "uint256",
          "name": "tokenId",
          "type": "uint256"
        },
        {
          "internalType": "bytes",
          "name": "_data",
          "type": "bytes"
        }
      ],
      "name": "safeTransferFrom",
      "outputs": [],
      "stateMutability": "nonpayable",
      "type": "function"
    },
    {
      "inputs": [
        {
          "internalType": "address",
          "name": "operator",
          "type": "address"
        },
        {
          "internalType": "bool",
          "name": "approved",
          "type": "bool"
        }
      ],
      "name": "setApprovalForAll",
      "outputs": [],
      "stateMutability": "nonpayable",
      "type": "function"
    },
    {
      "inputs": [
        {
          "internalType": "string",
          "name": "_description",
          "type": "string"
        }
      ],
      "name": "setDescription",
      "outputs": [],
      "stateMutability": "nonpayable",
      "type": "function"
    },
    {
      "inputs": [],
      "name": "styles",
      "outputs": [
        {
          "internalType": "uint256",
          "name": "",
          "type": "uint256"
        }
      ],
      "stateMutability": "pure",
      "type": "function"
    },
    {
      "inputs": [
        {
          "internalType": "bytes4",
          "name": "interfaceId",
          "type": "bytes4"
        }
      ],
      "name": "supportsInterface",
      "outputs": [
        {
          "internalType": "bool",
          "name": "",
          "type": "bool"
        }
      ],
      "stateMutability": "view",
      "type": "function"
    },
    {
      "inputs": [],
      "name": "symbol",
      "outputs": [
        {
          "internalType": "string",
          "name": "",
          "type": "string"
        }
      ],
      "stateMutability": "view",
      "type": "function"
    },
    {
      "inputs": [
        {
          "internalType": "uint256",
          "name": "_tokenId",
          "type": "uint256"
        }
      ],
      "name": "tokenURI",
      "outputs": [
        {
          "internalType": "string",
          "name": "",
          "type": "string"
        }
      ],
      "stateMutability": "view",
      "type": "function"
    },
    {
      "inputs": [],
      "name": "tokensPerAsset",
      "outputs": [
        {
          "internalType": "uint256",
          "name": "",
          "type": "uint256"
        }
      ],
      "stateMutability": "pure",
      "type": "function"
    },
    {
      "inputs": [],
      "name": "totalSupply",
      "outputs": [
        {
          "internalType": "uint256",
          "name": "",
          "type": "uint256"
        }
      ],
      "stateMutability": "view",
      "type": "function"
    },
    {
      "inputs": [
        {
          "internalType": "address",
          "name": "from",
          "type": "address"
        },
        {
          "internalType": "address",
          "name": "to",
          "type": "address"
        },
        {
          "internalType": "uint256",
          "name": "tokenId",
          "type": "uint256"
        }
      ],
      "name": "transferFrom",
      "outputs": [],
      "stateMutability": "nonpayable",
      "type": "function"
    },
    {
      "inputs": [
        {
          "internalType": "address",
          "name": "newOwner",
          "type": "address"
        }
      ],
      "name": "transferOwnership",
      "outputs": [],
      "stateMutability": "nonpayable",
      "type": "function"
    }
  ],
  "bytecode": "0x610160604052605460e081815290620039dd6101003980516200002b91600a9160209091019062000191565b503480156200003957600080fd5b5060405162003a3138038062003a318339810160408190526200005c9162000237565b60405180604001604052806011815260200170111c985dc8165bdd5c8813dddb88139195607a1b81525060405180604001604052806007815260200166111c985dd3919560ca1b815250620000c0620000ba6200013d60201b60201c565b62000141565b8151620000d590600390602085019062000191565b508051620000eb90600490602084019062000191565b5060006001555050606093841b6001600160601b031990811660805292841b831660a052600b80546001600160a01b0319166001600160a01b03939093169290921790915590911b1660c052620002f5565b3390565b600080546001600160a01b038381166001600160a01b0319831681178455604051919092169283917f8be0079c531659141344cd1fd0a4f28419497f9722a3daafe3b4186f6b6457e09190a35050565b8280546200019f906200029f565b90600052602060002090601f016020900481019282620001c357600085556200020e565b82601f10620001de57805160ff19168380011785556200020e565b828001600101855582156200020e579182015b828111156200020e578251825591602001919060010190620001f1565b506200021c92915062000220565b5090565b5b808211156200021c576000815560010162000221565b600080600080608085870312156200024e57600080fd5b84516200025b81620002dc565b60208601519094506200026e81620002dc565b60408601519093506200028181620002dc565b60608601519092506200029481620002dc565b939692955090935050565b600181811c90821680620002b457607f821691505b60208210811415620002d657634e487b7160e01b600052602260045260246000fd5b50919050565b6001600160a01b0381168114620002f257600080fd5b50565b60805160601c60a05160601c60c05160601c61367762000366600039600081816103b601526116930152600081816102f3015281816108a30152818161093601528181610e92015281816114850152818161153e0152611c350152600081816103500152610ddb01526136776000f3fe608060405234801561001057600080fd5b50600436106101d95760003560e01c8063715018a611610104578063a22cb465116100a2578063ca4b208b11610071578063ca4b208b146103fe578063e985e9c514610411578063ef2d174614610424578063f2fde38b1461042c57600080fd5b8063a22cb4651461039e578063b50cbd9f146103b1578063b88d4fde146103d8578063c87b56dd146103eb57600080fd5b80637b103999116100de5780637b1039991461034b5780638da5cb5b1461037257806390c3f38f1461038357806395d89b411461039657600080fd5b8063715018a61461033b5780637284e41614610343578063786f94c6146102d457600080fd5b806323b872dd1161017c5780634be4ce671161014b5780634be4ce67146102db578063597a0e36146102ee5780636352211e1461031557806370a082311461032857600080fd5b806323b872dd1461029b5780632ab72d2f146102ae57806342842e0e146102c15780634b00371f146102d457600080fd5b8063081812fc116101b8578063081812fc14610232578063095ea7b31461025d57806310057cbf1461027257806318160ddd1461028557600080fd5b80626e59e9146101de57806301ffc9a71461020757806306fdde031461022a575b600080fd5b6101f16101ec3660046123a7565b61043f565b6040516101fe919061325d565b60405180910390f35b61021a610215366004612303565b610466565b60405190151581526020016101fe565b6101f1610503565b610245610240366004612772565b610595565b6040516001600160a01b0390911681526020016101fe565b61027061026b3660046122ba565b6105f2565b005b6101f1610280366004612414565b6106b8565b600254600154035b6040519081526020016101fe565b6102706102a93660046121df565b610ae8565b61028d6102bc366004612772565b610cc6565b6102706102cf3660046121df565b610d6d565b600461028d565b6102706102e936600461260a565b610d8d565b6102457f000000000000000000000000000000000000000000000000000000000000000081565b610245610323366004612772565b6110f9565b61028d61033636600461216c565b611104565b61027061116c565b6101f16111d2565b6102457f000000000000000000000000000000000000000000000000000000000000000081565b6000546001600160a01b0316610245565b610270610391366004612372565b611260565b6101f16112d1565b6102706103ac36600461228c565b6112e0565b6102457f000000000000000000000000000000000000000000000000000000000000000081565b6102706103e6366004612220565b61138f565b6101f16103f9366004612772565b6113d9565b600b54610245906001600160a01b031681565b61021a61041f3660046121a6565b611654565b61028d611755565b61027061043a36600461216c565b611765565b606061045e8484846000604051806020016040528060008152506106b8565b949350505050565b60007f01ffc9a7000000000000000000000000000000000000000000000000000000006001600160e01b0319831614806104c957507f80ac58cd000000000000000000000000000000000000000000000000000000006001600160e01b03198316145b806104fd57507f5b5e139f000000000000000000000000000000000000000000000000000000006001600160e01b03198316145b92915050565b606060038054610512906134b5565b80601f016020809104026020016040519081016040528092919081815260200182805461053e906134b5565b801561058b5780601f106105605761010080835404028352916020019161058b565b820191906000526020600020905b81548152906001019060200180831161056e57829003601f168201915b5050505050905090565b60006105a082611847565b6105d6576040517fcf4700e400000000000000000000000000000000000000000000000000000000815260040160405180910390fd5b506000908152600760205260409020546001600160a01b031690565b60006105fd826110f9565b9050336001600160a01b0382161461064f576106198133611654565b61064f576040517fcfb3b94200000000000000000000000000000000000000000000000000000000815260040160405180910390fd5b600082815260076020526040808220805473ffffffffffffffffffffffffffffffffffffffff19166001600160a01b0387811691821790925591518593918516917f8c5be1e5ebec7d5bd14f71427d1e84f3dd0314c0f7b2291e5b200ac8c7c3b92591a4505050565b6040805160c0810182526005608082019081527f776869746500000000000000000000000000000000000000000000000000000060a0830152815281518083018352600c81527f75726c282373696c7665722900000000000000000000000000000000000000006020828101919091528083019190915282518084018452600a81527f75726c2823676f6c642900000000000000000000000000000000000000000000818301528284015282518084018452600981527f75726c2823736b792900000000000000000000000000000000000000000000008183015260608381019190915292516000916107ad91889101612fe3565b60408051601f19818403018152919052905060006107cc6004896134f0565b905060006040518060800160405280604981526020016135f9604991398a6040516020016107fb929190612867565b6040516020818303038152906040529050816001141561083c57806040516020016108269190612a62565b6040516020818303038152906040529050610882565b81600214156108565780604051602001610826919061293d565b816003141561088257806040516020016108709190612b87565b60405160208183030381529060405290505b606087156109ff57604051634378a6e360e01b8152600481018990526000907f00000000000000000000000000000000000000000000000000000000000000006001600160a01b031690634378a6e39060240160006040518083038186803b1580156108ed57600080fd5b505afa158015610901573d6000803e3d6000fd5b505050506040513d6000823e601f3d908101601f1916820160405261092991908101906124b0565b90508060600151915060007f00000000000000000000000000000000000000000000000000000000000000006001600160a01b03166334320bf18b856040518363ffffffff1660e01b8152600401610982929190613345565b60006040518083038186803b15801561099a57600080fd5b505afa1580156109ae573d6000803e3d6000fd5b505050506040513d6000823e601f3d908101601f191682016040526109d6919081019061233d565b905083816040516020016109eb929190612867565b604051602081830303815290604052935050505b81858460048110610a1257610a12613530565b6020020151604051602001610a28929190612d72565b60408051601f1981840301815291905291508715610ab6578181604051602001610a53929190612d1d565b6040516020818303038152906040529150600087511115610a93578187604051602001610a819291906128d7565b60405160208183030381529060405291505b81604051602001610aa49190612896565b60405160208183030381529060405291505b8184604051602001610ac9929190612cac565b60408051808303601f190181529190529b9a5050505050505050505050565b6000610af38261186f565b9050836001600160a01b0316816001600160a01b031614610b40576040517fa114810000000000000000000000000000000000000000000000000000000000815260040160405180910390fd5b60008281526007602052604090208054338082146001600160a01b03881690911417610ba657610b708633611654565b610ba6576040517f59c896be00000000000000000000000000000000000000000000000000000000815260040160405180910390fd5b6001600160a01b038516610be6576040517fea553b3400000000000000000000000000000000000000000000000000000000815260040160405180910390fd5b8015610bf157600082555b6001600160a01b038681166000908152600660205260408082208054600019019055918716808252919020805460010190554260a01b17600160e11b17600085815260056020526040902055600160e11b8316610c7c5760018401600081815260056020526040902054610c7a576001548114610c7a5760008181526005602052604090208490555b505b83856001600160a01b0316876001600160a01b03167fddf252ad1be2c89b69c2b068fc378daa952ba7f163c4a11628f55a4df523b3ef60405160405180910390a45b505050505050565b6000610cd182611847565b610d485760405162461bcd60e51b815260206004820152602d60248201527f437573746f6d546f6b656e2e617373657449644f66546f6b656e3a206e6f6e6560448201527f78697374656e7420746f6b656e0000000000000000000000000000000000000060648201526084015b60405180910390fd5b60096000610d5760048561343f565b8152602001908152602001600020549050919050565b610d888383836040518060200160405280600081525061138f565b505050565b6040518060600160405280602381526020016135d66023913984526040517f5b7eea860000000000000000000000000000000000000000000000000000000081526000906001600160a01b037f00000000000000000000000000000000000000000000000000000000000000001690635b7eea8690610e10908890600401613270565b602060405180830381600087803b158015610e2a57600080fd5b505af1158015610e3e573d6000803e3d6000fd5b505050506040513d601f19601f82011682018060405250810190610e62919061278b565b90506000610e6f60015490565b90508415610e89576000828152600c602052604090208590555b83511561102f577f00000000000000000000000000000000000000000000000000000000000000006001600160a01b031663a57cfb246040518163ffffffff1660e01b815260040160206040518083038186803b158015610ee957600080fd5b505afa158015610efd573d6000803e3d6000fd5b505050506040513d601f19601f82011682018060405250810190610f219190612189565b6001600160a01b031663c16e50ef856040518263ffffffff1660e01b8152600401610f4c919061325d565b60206040518083038186803b158015610f6457600080fd5b505afa158015610f78573d6000803e3d6000fd5b505050506040513d601f19601f82011682018060405250810190610f9c91906122e6565b61100e5760405162461bcd60e51b815260206004820152602760248201527f44726177596f75724f776e3a6d696e7457697468417373657420496e76616c6960448201527f6420436f6c6f72000000000000000000000000000000000000000000000000006064820152608401610d3f565b6000828152600d60209081526040909120855161102d92870190611f0f565b505b816009600061103f60048561343f565b81526020810191909152604001600020556110653361106060016004613472565b6118e9565b6000831180156110795750611079836119f9565b801561109657503361108a846110f9565b6001600160a01b031614155b156110b3576110ae6110a7846110f9565b60016118e9565b610cbe565b60046110bf818361343f565b6110c991906134f0565b6110e457600b546110ae906001600160a01b031660016118e9565b610cbe6110a76000546001600160a01b031690565b60006104fd8261186f565b60006001600160a01b038216611146576040517f8f4eb60400000000000000000000000000000000000000000000000000000000815260040160405180910390fd5b506001600160a01b031660009081526006602052604090205467ffffffffffffffff1690565b6000546001600160a01b031633146111c65760405162461bcd60e51b815260206004820181905260248201527f4f776e61626c653a2063616c6c6572206973206e6f7420746865206f776e65726044820152606401610d3f565b6111d06000611a0d565b565b600a80546111df906134b5565b80601f016020809104026020016040519081016040528092919081815260200182805461120b906134b5565b80156112585780601f1061122d57610100808354040283529160200191611258565b820191906000526020600020905b81548152906001019060200180831161123b57829003601f168201915b505050505081565b6000546001600160a01b031633146112ba5760405162461bcd60e51b815260206004820181905260248201527f4f776e61626c653a2063616c6c6572206973206e6f7420746865206f776e65726044820152606401610d3f565b80516112cd90600a906020840190611f0f565b5050565b606060048054610512906134b5565b6001600160a01b038216331415611323576040517fb06307db00000000000000000000000000000000000000000000000000000000815260040160405180910390fd5b3360008181526008602090815260408083206001600160a01b03871680855290835292819020805460ff191686151590811790915590519081529192917f17307eab39ab6107e8899845ad3d59bd9653f200f220920489ca2b5937696c31910160405180910390a35050565b61139a848484610ae8565b6001600160a01b0383163b156113d3576113b684848484611a6a565b6113d3576040516368d2bf6b60e11b815260040160405180910390fd5b50505050565b60606113e482611847565b6114565760405162461bcd60e51b815260206004820152602760248201527f437573746f6d546f6b656e2e746f6b656e5552493a206e6f6e6578697374656e60448201527f7420746f6b656e000000000000000000000000000000000000000000000000006064820152608401610d3f565b600061146183610cc6565b604051634378a6e360e01b8152600481018290529091506000906001600160a01b037f00000000000000000000000000000000000000000000000000000000000000001690634378a6e39060240160006040518083038186803b1580156114c757600080fd5b505afa1580156114db573d6000803e3d6000fd5b505050506040513d6000823e601f3d908101601f1916820160405261150391908101906124b0565b60608101516040517f34320bf10000000000000000000000000000000000000000000000000000000081529192506000916001600160a01b037f000000000000000000000000000000000000000000000000000000000000000016916334320bf191611573918791600401613345565b60006040518083038186803b15801561158b57600080fd5b505afa15801561159f573d6000803e3d6000fd5b505050506040513d6000823e601f3d908101601f191682016040526115c7919081019061233d565b905060006115e4826115da6004896134f0565b856060015161043f565b905061162a8360400151600a6115fa8987611b61565b61160385611d72565b6040516020016116169493929190612e1b565b604051602081830303815290604052611d72565b60405160200161163a9190613028565b604051602081830303815290604052945050505050919050565b6040517fc45527910000000000000000000000000000000000000000000000000000000081526001600160a01b038381166004830152600091818416917f0000000000000000000000000000000000000000000000000000000000000000169063c45527919060240160206040518083038186803b1580156116d557600080fd5b505afa1580156116e9573d6000803e3d6000fd5b505050506040513d601f19601f8201168201806040525081019061170d9190612189565b6001600160a01b03161415611724575060016104fd565b6001600160a01b0380841660009081526008602090815260408083209386168352929052205460ff165b9392505050565b600061176060015490565b905090565b6000546001600160a01b031633146117bf5760405162461bcd60e51b815260206004820181905260248201527f4f776e61626c653a2063616c6c6572206973206e6f7420746865206f776e65726044820152606401610d3f565b6001600160a01b03811661183b5760405162461bcd60e51b815260206004820152602660248201527f4f776e61626c653a206e6577206f776e657220697320746865207a65726f206160448201527f64647265737300000000000000000000000000000000000000000000000000006064820152608401610d3f565b61184481611a0d565b50565b6000600154821080156104fd575050600090815260056020526040902054600160e01b161590565b6000816001548110156118b757600081815260056020526040902054600160e01b81166118b5575b8061174e575060001901600081815260056020526040902054611897565b505b6040517fdf2d9b4200000000000000000000000000000000000000000000000000000000815260040160405180910390fd5b6001546001600160a01b03831661192c576040517f2e07630000000000000000000000000000000000000000000000000000000000815260040160405180910390fd5b81611963576040517fb562e8dd00000000000000000000000000000000000000000000000000000000815260040160405180910390fd5b6001600160a01b038316600081815260066020526040902080546801000000000000000185020190554260a01b6001841460e11b1717600082815260056020526040902055808281015b6040516001830192906001600160a01b038716906000907fddf252ad1be2c89b69c2b068fc378daa952ba7f163c4a11628f55a4df523b3ef908290a48082106119ad5760015550505050565b6000611a066004836134f0565b1592915050565b600080546001600160a01b0383811673ffffffffffffffffffffffffffffffffffffffff19831681178455604051919092169283917f8be0079c531659141344cd1fd0a4f28419497f9722a3daafe3b4186f6b6457e09190a35050565b604051630a85bd0160e11b81526000906001600160a01b0385169063150b7a0290611a9f903390899088908890600401613221565b602060405180830381600087803b158015611ab957600080fd5b505af1925050508015611ae9575060408051601f3d908101601f19168201909252611ae691810190612320565b60015b611b44573d808015611b17576040519150601f19603f3d011682016040523d82523d6000602084013e611b1c565b606091505b508051611b3c576040516368d2bf6b60e11b815260040160405180910390fd5b805181602001fd5b6001600160e01b031916630a85bd0160e11b149050949350505050565b6060611b6c836119f9565b611bab576040518060400160405280600281526020017f4e6f000000000000000000000000000000000000000000000000000000000000815250611be2565b6040518060400160405280600381526020017f59657300000000000000000000000000000000000000000000000000000000008152505b825160208401516040850151608086015151611c33576040518060400160405280600b81526020017f28616e6f6e796d6f757329000000000000000000000000000000000000000000815250611d47565b7f00000000000000000000000000000000000000000000000000000000000000006001600160a01b031663a57cfb246040518163ffffffff1660e01b815260040160206040518083038186803b158015611c8c57600080fd5b505afa158015611ca0573d6000803e3d6000fd5b505050506040513d601f19601f82011682018060405250810190611cc49190612189565b6001600160a01b031663841b9d9787608001516040518263ffffffff1660e01b8152600401611cf3919061325d565b60006040518083038186803b158015611d0b57600080fd5b505afa158015611d1f573d6000803e3d6000fd5b505050506040513d6000823e601f3d908101601f19168201604052611d47919081019061233d565b604051602001611d5b95949392919061306d565b604051602081830303815290604052905092915050565b6060815160001415611d9257505060408051602081019091526000815290565b60006040518060600160405280604081526020016135966040913990506000600384516002611dc19190613427565b611dcb919061343f565b611dd6906004613453565b90506000611de5826020613427565b67ffffffffffffffff811115611dfd57611dfd613546565b6040519080825280601f01601f191660200182016040528015611e27576020820181803683370190505b509050818152600183018586518101602084015b81831015611e93576003830192508251603f8160121c168501518253600182019150603f81600c1c168501518253600182019150603f8160061c168501518253600182019150603f8116850151825350600101611e3b565b600389510660018114611ead5760028114611ed957611f01565b7f3d3d000000000000000000000000000000000000000000000000000000000000600119830152611f01565b7f3d000000000000000000000000000000000000000000000000000000000000006000198301525b509398975050505050505050565b828054611f1b906134b5565b90600052602060002090601f016020900481019282611f3d5760008555611f83565b82601f10611f5657805160ff1916838001178555611f83565b82800160010185558215611f83579182015b82811115611f83578251825591602001919060010190611f68565b50611f8f929150611f93565b5090565b5b80821115611f8f5760008155600101611f94565b8035611fb38161355c565b919050565b8051611fb38161355c565b600082601f830112611fd457600080fd5b8135602067ffffffffffffffff80831115611ff157611ff1613546565b8260051b6120008382016133ce565b8481528381019087850183890186018a101561201b57600080fd5b600093505b868410156120b25780358581111561203757600080fd5b89016040818c03601f190181131561204e57600080fd5b61205661335e565b888301358881111561206757600080fd5b6120758e8b838701016120bf565b82525090820135908782111561208a57600080fd5b6120988d8a848601016120bf565b818a01528552505060019390930192918501918501612020565b5098975050505050505050565b600082601f8301126120d057600080fd5b81356120e36120de826133ff565b6133ce565b8181528460208386010111156120f857600080fd5b816020850160208301376000918101602001919091529392505050565b600082601f83011261212657600080fd5b81516121346120de826133ff565b81815284602083860101111561214957600080fd5b61045e826020830160208701613489565b805161ffff81168114611fb357600080fd5b60006020828403121561217e57600080fd5b813561174e8161355c565b60006020828403121561219b57600080fd5b815161174e8161355c565b600080604083850312156121b957600080fd5b82356121c48161355c565b915060208301356121d48161355c565b809150509250929050565b6000806000606084860312156121f457600080fd5b83356121ff8161355c565b9250602084013561220f8161355c565b929592945050506040919091013590565b6000806000806080858703121561223657600080fd5b84356122418161355c565b935060208501356122518161355c565b925060408501359150606085013567ffffffffffffffff81111561227457600080fd5b612280878288016120bf565b91505092959194509250565b6000806040838503121561229f57600080fd5b82356122aa8161355c565b915060208301356121d481613571565b600080604083850312156122cd57600080fd5b82356122d88161355c565b946020939093013593505050565b6000602082840312156122f857600080fd5b815161174e81613571565b60006020828403121561231557600080fd5b813561174e8161357f565b60006020828403121561233257600080fd5b815161174e8161357f565b60006020828403121561234f57600080fd5b815167ffffffffffffffff81111561236657600080fd5b61045e84828501612115565b60006020828403121561238457600080fd5b813567ffffffffffffffff81111561239b57600080fd5b61045e848285016120bf565b6000806000606084860312156123bc57600080fd5b833567ffffffffffffffff808211156123d457600080fd5b6123e0878388016120bf565b94506020860135935060408601359150808211156123fd57600080fd5b5061240a868287016120bf565b9150509250925092565b600080600080600060a0868803121561242c57600080fd5b853567ffffffffffffffff8082111561244457600080fd5b61245089838a016120bf565b965060208801359550604088013591508082111561246d57600080fd5b61247989838a016120bf565b945060608801359350608088013591508082111561249657600080fd5b506124a3888289016120bf565b9150509295509295909350565b6000602082840312156124c257600080fd5b815167ffffffffffffffff808211156124da57600080fd5b9083019061012082860312156124ef57600080fd5b6124f7613387565b82518281111561250657600080fd5b61251287828601612115565b82525060208301518281111561252757600080fd5b61253387828601612115565b60208301525060408301518281111561254b57600080fd5b61255787828601612115565b60408301525060608301518281111561256f57600080fd5b61257b87828601612115565b60608301525060808301518281111561259357600080fd5b61259f87828601612115565b6080830152506125b160a08401611fb8565b60a082015260c0830151828111156125c857600080fd5b6125d487828601612115565b60c0830152506125e660e0840161215a565b60e082015261010091506125fb82840161215a565b91810191909152949350505050565b6000806000806080858703121561262057600080fd5b843567ffffffffffffffff8082111561263857600080fd5b9086019060e0828903121561264c57600080fd5b6126546133ab565b82358281111561266357600080fd5b61266f8a8286016120bf565b82525060208301358281111561268457600080fd5b6126908a8286016120bf565b6020830152506040830135828111156126a857600080fd5b6126b48a8286016120bf565b6040830152506060830135828111156126cc57600080fd5b6126d88a8286016120bf565b6060830152506126ea60808401611fa8565b608082015260a08301358281111561270157600080fd5b61270d8a8286016120bf565b60a08301525060c08301358281111561272557600080fd5b6127318a828601611fc3565b60c083015250955060208701359450604087013591508082111561275457600080fd5b50612761878288016120bf565b949793965093946060013593505050565b60006020828403121561278457600080fd5b5035919050565b60006020828403121561279d57600080fd5b5051919050565b600081518084526020808501808196508360051b8101915082860160005b858110156128125782840389528151604081518187526127e48288018261281f565b915050868201519150858103878701526127fe818361281f565b9a87019a95505050908401906001016127c2565b5091979650505050505050565b60008151808452612837816020860160208601613489565b601f01601f19169290920160200192915050565b6000815161285d818560208601613489565b9290920192915050565b60008351612879818460208801613489565b83519083019061288d818360208801613489565b01949350505050565b600082516128a8818460208701613489565b7f202f3e0a00000000000000000000000000000000000000000000000000000000920191825250600401919050565b600083516128e9818460208801613489565b7f2066696c6c3d22000000000000000000000000000000000000000000000000009083019081528351612923816007840160208801613489565b601160f91b60079290910191820152600801949350505050565b6000825161294f818460208701613489565b7f3c6c696e6561724772616469656e742069643d22676f6c64222078313d22302e9201918252507f32222078323d2230222079313d2230222079323d2231223e0a20203c73746f7060208201527f206f66667365743d223025222073746f702d636f6c6f723d222343434142303960408201527f222f3e0a203c73746f70206f66667365743d22353025222073746f702d636f6c60608201527f6f723d222346464631383622202f3e0a203c73746f70206f66667365743d223160808201527f303025222073746f702d636f6c6f723d2223434341423039222f3e0a3c2f6c6960a08201527f6e6561724772616469656e743e0a00000000000000000000000000000000000060c082015260ce01919050565b60008251612a74818460208701613489565b7f3c6c696e6561724772616469656e742069643d2273696c766572222078313d229201918252507f302e32222078323d2230222079313d2230222079323d2231223e0a20203c737460208201527f6f70206f66667365743d223025222073746f702d636f6c6f723d22233830383060408201527f3746222f3e0a203c73746f70206f66667365743d22353025222073746f702d6360608201527f6f6c6f723d222345454630463222202f3e0a203c73746f70206f66667365743d60808201527f2231303025222073746f702d636f6c6f723d2223383038303746222f3e0a3c2f60a08201527f6c696e6561724772616469656e743e0a0000000000000000000000000000000060c082015260d001919050565b60008251612b99818460208701613489565b7f3c72616469616c4772616469656e742069643d22736b79222063783d22302e389201918252507f222063793d22302e3333223e0a20203c73746f70206f66667365743d2230252260208201527f2073746f702d636f6c6f723d2223464646464646222f3e0a203c73746f70206f60408201527f66667365743d22323025222073746f702d636f6c6f723d22234646464646462260608201527f202f3e0a203c73746f70206f66667365743d2231303025222073746f702d636f60808201527f6c6f723d2223303042354532222f3e0a3c2f72616469616c4772616469656e7460a08201527f3e0a00000000000000000000000000000000000000000000000000000000000060c082015260c201919050565b60008351612cbe818460208801613489565b6b101e3ab9b290343932b31e9160a11b9083019081528351612ce781600c840160208801613489565b7f22202f3e0a3c2f7376673e0a0000000000000000000000000000000000000000600c9290910191820152601801949350505050565b60008351612d2f818460208801613489565b6b101e3ab9b290343932b31e9160a11b9083019081528351612d5881600c840160208801613489565b601160f91b600c9290910191820152600d01949350505050565b60008351612d84818460208801613489565b80830190507f3c2f646566733e0a203c7265637420783d22302220793d22302220776964746881527f3d223130302522206865696768743d2231303025222066696c6c3d220000000060208201528351612de581603c840160208801613489565b7f22202f3e0a000000000000000000000000000000000000000000000000000000603c9290910191820152604101949350505050565b7f7b226e616d65223a2200000000000000000000000000000000000000000000008152600085516020612e548260098601838b01613489565b7f222c226465736372697074696f6e223a220000000000000000000000000000006009928501928301528654601a90600090600181811c9080831680612e9b57607f831692505b868310811415612eb957634e487b7160e01b85526022600452602485fd5b808015612ecd5760018114612ee257612f13565b60ff1985168988015283890187019550612f13565b60008e81526020902060005b85811015612f095781548b82018a0152908401908901612eee565b505086848a010195505b5050505050612fd5612fac612fa6612f57612f51857f222c2261747472696275746573223a5b00000000000000000000000000000000815260100190565b8c61284b565b7f5d2c22696d616765223a22646174613a696d6167652f7376672b786d6c3b626181527f736536342c000000000000000000000000000000000000000000000000000000602082015260250190565b8961284b565b7f227d000000000000000000000000000000000000000000000000000000000000815260020190565b9a9950505050505050505050565b7f230000000000000000000000000000000000000000000000000000000000000081526000825161301b816001850160208701613489565b9190910160010192915050565b7f646174613a6170706c69636174696f6e2f6a736f6e3b6261736536342c00000081526000825161306081601d850160208701613489565b91909101601d0192915050565b7f7b2274726169745f74797065223a225072696d617279222c2276616c7565223a81526000601160f91b80602084015287516130b0816021860160208c01613489565b7f227d2c7b2274726169745f74797065223a2247726f7570222c2276616c7565226021918501918201527f3a2200000000000000000000000000000000000000000000000000000000000060418201528751613113816043840160208c01613489565b7f227d2c7b2274726169745f74797065223a2243617465676f7279222c2276616c604392909101918201527f7565223a2200000000000000000000000000000000000000000000000000000060638201528651613177816068840160208b01613489565b8082019150507f227d2c7b2274726169745f74797065223a224e616d65222c2276616c7565223a6068820152816088820152613214612fac61320e6131bf608985018a61284b565b7f227d2c7b2274726169745f74797065223a224d696e746572222c2276616c756581527f223a220000000000000000000000000000000000000000000000000000000000602082015260230190565b8761284b565b9998505050505050505050565b60006001600160a01b03808716835280861660208401525083604083015260806060830152613253608083018461281f565b9695505050505050565b60208152600061174e602083018461281f565b602081526000825160e0602084015261328d61010084018261281f565b90506020840151601f19808584030160408601526132ab838361281f565b925060408601519150808584030160608601526132c8838361281f565b925060608601519150808584030160808601526132e5838361281f565b92506080860151915061330360a08601836001600160a01b03169052565b60a08601519150808584030160c086015261331e838361281f565b925060c08601519150808584030160e08601525061333c82826127a4565b95945050505050565b82815260406020820152600061045e604083018461281f565b6040805190810167ffffffffffffffff8111828210171561338157613381613546565b60405290565b604051610120810167ffffffffffffffff8111828210171561338157613381613546565b60405160e0810167ffffffffffffffff8111828210171561338157613381613546565b604051601f8201601f1916810167ffffffffffffffff811182821017156133f7576133f7613546565b604052919050565b600067ffffffffffffffff82111561341957613419613546565b50601f01601f191660200190565b6000821982111561343a5761343a613504565b500190565b60008261344e5761344e61351a565b500490565b600081600019048311821515161561346d5761346d613504565b500290565b60008282101561348457613484613504565b500390565b60005b838110156134a457818101518382015260200161348c565b838111156113d35750506000910152565b600181811c908216806134c957607f821691505b602082108114156134ea57634e487b7160e01b600052602260045260246000fd5b50919050565b6000826134ff576134ff61351a565b500690565b634e487b7160e01b600052601160045260246000fd5b634e487b7160e01b600052601260045260246000fd5b634e487b7160e01b600052603260045260246000fd5b634e487b7160e01b600052604160045260246000fd5b6001600160a01b038116811461184457600080fd5b801515811461184457600080fd5b6001600160e01b03198116811461184457600080fdfe4142434445464748494a4b4c4d4e4f505152535455565758595a6162636465666768696a6b6c6d6e6f707172737475767778797a303132333435363738392b2f4472617720596f7572204f776e2028434330206f722043432042592d534120342e30293c7376672076696577426f783d2230203020313032342031303234222020786d6c6e733d22687474703a2f2f7777772e77332e6f72672f323030302f737667223e0a3c646566733e0aa2646970667358221220528391530b69c57bd33e250ebce0dfa295e79c0a256823c6d884e94b55edaa0464736f6c6343000806003354686973206973206f6e65206f6620656666747320746f2063726561746520284f6e2d436861696e2041737365742053746f7265295b68747470733a2f2f617373657473746f72652e7774662f647261775d2e20",
  "linkReferences": {},
  "deployedLinkReferences": {}
}