{
  "_format": "hh-sol-artifact-1",
  "contractName": "DrawYourOwn",
  "sourceName": "contracts/DrawYourOwn.sol",
  "abi": [
    {
      "inputs": [
        {
          "internalType": "contract IAssetStoreRegistry",
          "name": "_registry",
          "type": "address"
        },
        {
          "internalType": "contract IAssetStoreEx",
          "name": "_assetStore",
          "type": "address"
        },
        {
          "internalType": "address",
          "name": "_developer",
          "type": "address"
        },
        {
          "internalType": "contract IProxyRegistry",
          "name": "_proxyRegistry",
          "type": "address"
        },
        {
          "internalType": "contract IAssetComposer",
          "name": "_assetComposer",
          "type": "address"
        }
      ],
      "stateMutability": "nonpayable",
      "type": "constructor"
    },
    {
      "inputs": [],
      "name": "ApprovalCallerNotOwnerNorApproved",
      "type": "error"
    },
    {
      "inputs": [],
      "name": "ApprovalQueryForNonexistentToken",
      "type": "error"
    },
    {
      "inputs": [],
      "name": "ApproveToCaller",
      "type": "error"
    },
    {
      "inputs": [],
      "name": "BalanceQueryForZeroAddress",
      "type": "error"
    },
    {
      "inputs": [],
      "name": "MintERC2309QuantityExceedsLimit",
      "type": "error"
    },
    {
      "inputs": [],
      "name": "MintToZeroAddress",
      "type": "error"
    },
    {
      "inputs": [],
      "name": "MintZeroQuantity",
      "type": "error"
    },
    {
      "inputs": [],
      "name": "OwnerQueryForNonexistentToken",
      "type": "error"
    },
    {
      "inputs": [],
      "name": "OwnershipNotInitializedForExtraData",
      "type": "error"
    },
    {
      "inputs": [],
      "name": "TransferCallerNotOwnerNorApproved",
      "type": "error"
    },
    {
      "inputs": [],
      "name": "TransferFromIncorrectOwner",
      "type": "error"
    },
    {
      "inputs": [],
      "name": "TransferToNonERC721ReceiverImplementer",
      "type": "error"
    },
    {
      "inputs": [],
      "name": "TransferToZeroAddress",
      "type": "error"
    },
    {
      "inputs": [],
      "name": "URIQueryForNonexistentToken",
      "type": "error"
    },
    {
      "anonymous": false,
      "inputs": [
        {
          "indexed": true,
          "internalType": "address",
          "name": "owner",
          "type": "address"
        },
        {
          "indexed": true,
          "internalType": "address",
          "name": "approved",
          "type": "address"
        },
        {
          "indexed": true,
          "internalType": "uint256",
          "name": "tokenId",
          "type": "uint256"
        }
      ],
      "name": "Approval",
      "type": "event"
    },
    {
      "anonymous": false,
      "inputs": [
        {
          "indexed": true,
          "internalType": "address",
          "name": "owner",
          "type": "address"
        },
        {
          "indexed": true,
          "internalType": "address",
          "name": "operator",
          "type": "address"
        },
        {
          "indexed": false,
          "internalType": "bool",
          "name": "approved",
          "type": "bool"
        }
      ],
      "name": "ApprovalForAll",
      "type": "event"
    },
    {
      "anonymous": false,
      "inputs": [
        {
          "indexed": true,
          "internalType": "uint256",
          "name": "fromTokenId",
          "type": "uint256"
        },
        {
          "indexed": false,
          "internalType": "uint256",
          "name": "toTokenId",
          "type": "uint256"
        },
        {
          "indexed": true,
          "internalType": "address",
          "name": "from",
          "type": "address"
        },
        {
          "indexed": true,
          "internalType": "address",
          "name": "to",
          "type": "address"
        }
      ],
      "name": "ConsecutiveTransfer",
      "type": "event"
    },
    {
      "anonymous": false,
      "inputs": [
        {
          "indexed": true,
          "internalType": "address",
          "name": "previousOwner",
          "type": "address"
        },
        {
          "indexed": true,
          "internalType": "address",
          "name": "newOwner",
          "type": "address"
        }
      ],
      "name": "OwnershipTransferred",
      "type": "event"
    },
    {
      "anonymous": false,
      "inputs": [
        {
          "indexed": true,
          "internalType": "address",
          "name": "from",
          "type": "address"
        },
        {
          "indexed": true,
          "internalType": "address",
          "name": "to",
          "type": "address"
        },
        {
          "indexed": true,
          "internalType": "uint256",
          "name": "tokenId",
          "type": "uint256"
        }
      ],
      "name": "Transfer",
      "type": "event"
    },
    {
      "inputs": [
        {
          "internalType": "address",
          "name": "to",
          "type": "address"
        },
        {
          "internalType": "uint256",
          "name": "tokenId",
          "type": "uint256"
        }
      ],
      "name": "approve",
      "outputs": [],
      "stateMutability": "nonpayable",
      "type": "function"
    },
    {
      "inputs": [],
      "name": "assetComposer",
      "outputs": [
        {
          "internalType": "contract IAssetComposer",
          "name": "",
          "type": "address"
        }
      ],
      "stateMutability": "view",
      "type": "function"
    },
    {
      "inputs": [
        {
          "internalType": "uint256",
          "name": "_tokenId",
          "type": "uint256"
        }
      ],
      "name": "assetIdOfToken",
      "outputs": [
        {
          "internalType": "uint256",
          "name": "",
          "type": "uint256"
        }
      ],
      "stateMutability": "view",
      "type": "function"
    },
    {
      "inputs": [],
      "name": "assetStore",
      "outputs": [
        {
          "internalType": "contract IAssetStoreEx",
          "name": "",
          "type": "address"
        }
      ],
      "stateMutability": "view",
      "type": "function"
    },
    {
      "inputs": [
        {
          "internalType": "address",
          "name": "owner",
          "type": "address"
        }
      ],
      "name": "balanceOf",
      "outputs": [
        {
          "internalType": "uint256",
          "name": "",
          "type": "uint256"
        }
      ],
      "stateMutability": "view",
      "type": "function"
    },
    {
      "inputs": [],
      "name": "description",
      "outputs": [
        {
          "internalType": "string",
          "name": "",
          "type": "string"
        }
      ],
      "stateMutability": "view",
      "type": "function"
    },
    {
      "inputs": [],
      "name": "developer",
      "outputs": [
        {
          "internalType": "address",
          "name": "",
          "type": "address"
        }
      ],
      "stateMutability": "view",
      "type": "function"
    },
    {
      "inputs": [
        {
          "internalType": "string",
          "name": "_svgPart",
          "type": "string"
        },
        {
          "internalType": "uint256",
          "name": "_style",
          "type": "uint256"
        },
        {
          "internalType": "string",
          "name": "_tag",
          "type": "string"
        }
      ],
      "name": "generateSVG",
      "outputs": [
        {
          "internalType": "string",
          "name": "",
          "type": "string"
        }
      ],
      "stateMutability": "pure",
      "type": "function"
    },
    {
      "inputs": [
        {
          "internalType": "uint256",
          "name": "_tokenId",
          "type": "uint256"
        }
      ],
      "name": "generateSVGPart",
      "outputs": [
        {
          "internalType": "string",
          "name": "",
          "type": "string"
        },
        {
          "internalType": "string",
          "name": "",
          "type": "string"
        }
      ],
      "stateMutability": "view",
      "type": "function"
    },
    {
      "inputs": [
        {
          "internalType": "uint256",
          "name": "tokenId",
          "type": "uint256"
        }
      ],
      "name": "getApproved",
      "outputs": [
        {
          "internalType": "address",
          "name": "",
          "type": "address"
        }
      ],
      "stateMutability": "view",
      "type": "function"
    },
    {
      "inputs": [],
      "name": "getCurrentToken",
      "outputs": [
        {
          "internalType": "uint256",
          "name": "",
          "type": "uint256"
        }
      ],
      "stateMutability": "view",
      "type": "function"
    },
    {
      "inputs": [
        {
          "internalType": "address",
          "name": "owner",
          "type": "address"
        },
        {
          "internalType": "address",
          "name": "operator",
          "type": "address"
        }
      ],
      "name": "isApprovedForAll",
      "outputs": [
        {
          "internalType": "bool",
          "name": "",
          "type": "bool"
        }
      ],
      "stateMutability": "view",
      "type": "function"
    },
    {
      "inputs": [
        {
          "components": [
            {
              "internalType": "string",
              "name": "group",
              "type": "string"
            },
            {
              "internalType": "string",
              "name": "category",
              "type": "string"
            },
            {
              "internalType": "string",
              "name": "name",
              "type": "string"
            },
            {
              "internalType": "string",
              "name": "minter",
              "type": "string"
            },
            {
              "internalType": "address",
              "name": "soulbound",
              "type": "address"
            },
            {
              "internalType": "bytes",
              "name": "metadata",
              "type": "bytes"
            },
            {
              "components": [
                {
                  "internalType": "bytes",
                  "name": "body",
                  "type": "bytes"
                },
                {
                  "internalType": "string",
                  "name": "color",
                  "type": "string"
                }
              ],
              "internalType": "struct IAssetStoreRegistry.Part[]",
              "name": "parts",
              "type": "tuple[]"
            }
          ],
          "internalType": "struct IAssetStoreRegistry.AssetInfo",
          "name": "_assetInfo",
          "type": "tuple"
        },
        {
          "internalType": "uint256",
          "name": "_remixId",
          "type": "uint256"
        },
        {
          "internalType": "string",
          "name": "_fill",
          "type": "string"
        },
        {
          "internalType": "string",
          "name": "_transform",
          "type": "string"
        },
        {
          "components": [
            {
              "internalType": "uint256",
              "name": "assetId",
              "type": "uint256"
            },
            {
              "internalType": "string",
              "name": "provider",
              "type": "string"
            },
            {
              "internalType": "string",
              "name": "fill",
              "type": "string"
            },
            {
              "internalType": "string",
              "name": "transform",
              "type": "string"
            }
          ],
          "internalType": "struct IAssetComposer.AssetLayer[]",
          "name": "_overlays",
          "type": "tuple[]"
        }
      ],
      "name": "mintWithAsset",
      "outputs": [],
      "stateMutability": "nonpayable",
      "type": "function"
    },
    {
      "inputs": [],
      "name": "name",
      "outputs": [
        {
          "internalType": "string",
          "name": "",
          "type": "string"
        }
      ],
      "stateMutability": "view",
      "type": "function"
    },
    {
      "inputs": [],
      "name": "owner",
      "outputs": [
        {
          "internalType": "address",
          "name": "",
          "type": "address"
        }
      ],
      "stateMutability": "view",
      "type": "function"
    },
    {
      "inputs": [
        {
          "internalType": "uint256",
          "name": "tokenId",
          "type": "uint256"
        }
      ],
      "name": "ownerOf",
      "outputs": [
        {
          "internalType": "address",
          "name": "",
          "type": "address"
        }
      ],
      "stateMutability": "view",
      "type": "function"
    },
    {
      "inputs": [],
      "name": "proxyRegistry",
      "outputs": [
        {
          "internalType": "contract IProxyRegistry",
          "name": "",
          "type": "address"
        }
      ],
      "stateMutability": "view",
      "type": "function"
    },
    {
      "inputs": [],
      "name": "registry",
      "outputs": [
        {
          "internalType": "contract IAssetStoreRegistry",
          "name": "",
          "type": "address"
        }
      ],
      "stateMutability": "view",
      "type": "function"
    },
    {
      "inputs": [],
      "name": "renounceOwnership",
      "outputs": [],
      "stateMutability": "nonpayable",
      "type": "function"
    },
    {
      "inputs": [
        {
          "internalType": "address",
          "name": "from",
          "type": "address"
        },
        {
          "internalType": "address",
          "name": "to",
          "type": "address"
        },
        {
          "internalType": "uint256",
          "name": "tokenId",
          "type": "uint256"
        }
      ],
      "name": "safeTransferFrom",
      "outputs": [],
      "stateMutability": "nonpayable",
      "type": "function"
    },
    {
      "inputs": [
        {
          "internalType": "address",
          "name": "from",
          "type": "address"
        },
        {
          "internalType": "address",
          "name": "to",
          "type": "address"
        },
        {
          "internalType": "uint256",
          "name": "tokenId",
          "type": "uint256"
        },
        {
          "internalType": "bytes",
          "name": "_data",
          "type": "bytes"
        }
      ],
      "name": "safeTransferFrom",
      "outputs": [],
      "stateMutability": "nonpayable",
      "type": "function"
    },
    {
      "inputs": [
        {
          "internalType": "address",
          "name": "operator",
          "type": "address"
        },
        {
          "internalType": "bool",
          "name": "approved",
          "type": "bool"
        }
      ],
      "name": "setApprovalForAll",
      "outputs": [],
      "stateMutability": "nonpayable",
      "type": "function"
    },
    {
      "inputs": [
        {
          "internalType": "string",
          "name": "_description",
          "type": "string"
        }
      ],
      "name": "setDescription",
      "outputs": [],
      "stateMutability": "nonpayable",
      "type": "function"
    },
    {
      "inputs": [],
      "name": "styles",
      "outputs": [
        {
          "internalType": "uint256",
          "name": "",
          "type": "uint256"
        }
      ],
      "stateMutability": "pure",
      "type": "function"
    },
    {
      "inputs": [
        {
          "internalType": "bytes4",
          "name": "interfaceId",
          "type": "bytes4"
        }
      ],
      "name": "supportsInterface",
      "outputs": [
        {
          "internalType": "bool",
          "name": "",
          "type": "bool"
        }
      ],
      "stateMutability": "view",
      "type": "function"
    },
    {
      "inputs": [],
      "name": "symbol",
      "outputs": [
        {
          "internalType": "string",
          "name": "",
          "type": "string"
        }
      ],
      "stateMutability": "view",
      "type": "function"
    },
    {
      "inputs": [
        {
          "internalType": "uint256",
          "name": "_tokenId",
          "type": "uint256"
        }
      ],
      "name": "tokenURI",
      "outputs": [
        {
          "internalType": "string",
          "name": "",
          "type": "string"
        }
      ],
      "stateMutability": "view",
      "type": "function"
    },
    {
      "inputs": [],
      "name": "tokensPerAsset",
      "outputs": [
        {
          "internalType": "uint256",
          "name": "",
          "type": "uint256"
        }
      ],
      "stateMutability": "pure",
      "type": "function"
    },
    {
      "inputs": [],
      "name": "totalSupply",
      "outputs": [
        {
          "internalType": "uint256",
          "name": "",
          "type": "uint256"
        }
      ],
      "stateMutability": "view",
      "type": "function"
    },
    {
      "inputs": [
        {
          "internalType": "address",
          "name": "from",
          "type": "address"
        },
        {
          "internalType": "address",
          "name": "to",
          "type": "address"
        },
        {
          "internalType": "uint256",
          "name": "tokenId",
          "type": "uint256"
        }
      ],
      "name": "transferFrom",
      "outputs": [],
      "stateMutability": "nonpayable",
      "type": "function"
    },
    {
      "inputs": [
        {
          "internalType": "address",
          "name": "newOwner",
          "type": "address"
        }
      ],
      "name": "transferOwnership",
      "outputs": [],
      "stateMutability": "nonpayable",
      "type": "function"
    }
  ],
  "bytecode": "0x61018060405260546101008181529062003f686101203980516200002c91600b9160209091019062000199565b503480156200003a57600080fd5b5060405162003fbc38038062003fbc8339810160408190526200005d916200023f565b60405180604001604052806011815260200170111c985dc8165bdd5c8813dddb88139195607a1b81525060405180604001604052806007815260200166111c985dd3919560ca1b815250620000c1620000bb6200014560201b60201c565b62000149565b8151620000d690600390602085019062000199565b508051620000ec90600490602084019062000199565b5060006001555050606094851b6001600160601b031990811660805293851b841660a052600c80546001600160a01b0319166001600160a01b039490941693909317909255831b821660c05290911b1660e05262000315565b3390565b600080546001600160a01b038381166001600160a01b0319831681178455604051919092169283917f8be0079c531659141344cd1fd0a4f28419497f9722a3daafe3b4186f6b6457e09190a35050565b828054620001a790620002bf565b90600052602060002090601f016020900481019282620001cb576000855562000216565b82601f10620001e657805160ff191683800117855562000216565b8280016001018555821562000216579182015b8281111562000216578251825591602001919060010190620001f9565b506200022492915062000228565b5090565b5b8082111562000224576000815560010162000229565b600080600080600060a086880312156200025857600080fd5b85516200026581620002fc565b60208701519095506200027881620002fc565b60408701519094506200028b81620002fc565b60608701519093506200029e81620002fc565b6080870151909250620002b181620002fc565b809150509295509295909350565b600181811c90821680620002d457607f821691505b60208210811415620002f657634e487b7160e01b600052602260045260246000fd5b50919050565b6001600160a01b03811681146200031257600080fd5b50565b60805160601c60a05160601c60c05160601c60e05160601c613bd5620003936000396000818161044201528181611162015261162f0152600081816103ae015261188f0152600081816102d8015281816114f1015281816116e7015281816117970152611f7e0152600081816103350152610dda0152613bd56000f3fe608060405234801561001057600080fd5b50600436106101e45760003560e01c8063786f94c61161010f578063b88d4fde116100a2578063e985e9c511610071578063e985e9c51461042a578063ec1718b91461043d578063ef2d174614610464578063f2fde38b1461046c57600080fd5b8063b88d4fde146103d0578063c87b56dd146103e3578063ca4b208b146103f6578063e3f24f021461040957600080fd5b806390c3f38f116100de57806390c3f38f1461037b57806395d89b411461038e578063a22cb46514610396578063b50cbd9f146103a957600080fd5b8063786f94c6146102cc5780637b1039991461033057806383da4c94146103575780638da5cb5b1461036a57600080fd5b80632ab72d2f116101875780636352211e116101565780636352211e146102fa57806370a082311461030d578063715018a6146103205780637284e4161461032857600080fd5b80632ab72d2f146102a657806342842e0e146102b95780634b00371f146102cc578063597a0e36146102d357600080fd5b8063081812fc116101c3578063081812fc1461023d578063095ea7b31461026857806318160ddd1461027d57806323b872dd1461029357600080fd5b80626e59e9146101e957806301ffc9a71461021257806306fdde0314610235575b600080fd5b6101fc6101f7366004612851565b61047f565b6040516102099190613765565b60405180910390f35b610225610220366004612749565b6106d9565b6040519015158152602001610209565b6101fc610776565b61025061024b366004612bc2565b610808565b6040516001600160a01b039091168152602001610209565b61027b61027636600461271d565b610865565b005b600254600154035b604051908152602001610209565b61027b6102a136600461263d565b61092b565b6102856102b4366004612bc2565b610b08565b61027b6102c736600461263d565b610baf565b6004610285565b6102507f000000000000000000000000000000000000000000000000000000000000000081565b610250610308366004612bc2565b610bcf565b61028561031b3660046125ca565b610bda565b61027b610c42565b6101fc610ca8565b6102507f000000000000000000000000000000000000000000000000000000000000000081565b61027b610365366004612a18565b610d36565b6000546001600160a01b0316610250565b61027b6103893660046127b8565b6112ac565b6101fc61131d565b61027b6103a43660046126ea565b61132c565b6102507f000000000000000000000000000000000000000000000000000000000000000081565b61027b6103de36600461267e565b6113db565b6101fc6103f1366004612bc2565b611425565b600c54610250906001600160a01b031681565b61041c610417366004612bc2565b611606565b604051610209929190613778565b610225610438366004612604565b611850565b6102507f000000000000000000000000000000000000000000000000000000000000000081565b610285611951565b61027b61047a3660046125ca565b611961565b6040805160a081018252600060808201818152825282518084018452600c81527f75726c282373696c7665722900000000000000000000000000000000000000006020828101919091528084019190915283518085018552600a81527f75726c2823676f6c64290000000000000000000000000000000000000000000081830152838501528351908101909352808352606082810193909352610523600486613a7f565b90506000604051806080016040528060498152602001613b5760499139876040516020016105529291906132ce565b60405160208183030381529060405290508160011415610593578060405160200161057d9190612ec8565b60405160208183030381529060405290506105d9565b81600214156105ad578060405160200161057d9190612da3565b81600314156105d957806040516020016105c7919061315b565b60405160208183030381529060405290505b806040516020016105ea9190612d21565b6040516020818303038152906040529050600083836004811061060f5761060f613abf565b6020020151511115610656578083836004811061062e5761062e613abf565b60200201516040516020016106449291906130ca565b60405160208183030381529060405290505b8160031415610688578085604051602001610672929190612fed565b60405160208183030381529060405290506106ad565b808560405160200161069b929190612cb7565b60405160208183030381529060405290505b806040516020016106be9190612d62565b60408051808303601f19018152919052979650505050505050565b60007f01ffc9a7000000000000000000000000000000000000000000000000000000006001600160e01b03198316148061073c57507f80ac58cd000000000000000000000000000000000000000000000000000000006001600160e01b03198316145b8061077057507f5b5e139f000000000000000000000000000000000000000000000000000000006001600160e01b03198316145b92915050565b60606003805461078590613a29565b80601f01602080910402602001604051908101604052809291908181526020018280546107b190613a29565b80156107fe5780601f106107d3576101008083540402835291602001916107fe565b820191906000526020600020905b8154815290600101906020018083116107e157829003601f168201915b5050505050905090565b600061081382611a43565b610849576040517fcf4700e400000000000000000000000000000000000000000000000000000000815260040160405180910390fd5b506000908152600760205260409020546001600160a01b031690565b600061087082610bcf565b9050336001600160a01b038216146108c25761088c8133611850565b6108c2576040517fcfb3b94200000000000000000000000000000000000000000000000000000000815260040160405180910390fd5b600082815260076020526040808220805473ffffffffffffffffffffffffffffffffffffffff19166001600160a01b0387811691821790925591518593918516917f8c5be1e5ebec7d5bd14f71427d1e84f3dd0314c0f7b2291e5b200ac8c7c3b92591a4505050565b600061093682611a6b565b9050836001600160a01b0316816001600160a01b031614610983576040517fa114810000000000000000000000000000000000000000000000000000000000815260040160405180910390fd5b60008281526007602052604090208054338082146001600160a01b038816909114176109e9576109b38633611850565b6109e9576040517f59c896be00000000000000000000000000000000000000000000000000000000815260040160405180910390fd5b6001600160a01b038516610a29576040517fea553b3400000000000000000000000000000000000000000000000000000000815260040160405180910390fd5b8015610a3457600082555b6001600160a01b038681166000908152600660205260408082208054600019019055918716808252919020805460010190554260a01b17600160e11b17600085815260056020526040902055600160e11b8316610abf5760018401600081815260056020526040902054610abd576001548114610abd5760008181526005602052604090208490555b505b83856001600160a01b0316876001600160a01b03167fddf252ad1be2c89b69c2b068fc378daa952ba7f163c4a11628f55a4df523b3ef60405160405180910390a4505050505050565b6000610b1382611a43565b610b8a5760405162461bcd60e51b815260206004820152602d60248201527f437573746f6d546f6b656e2e617373657449644f66546f6b656e3a206e6f6e6560448201527f78697374656e7420746f6b656e0000000000000000000000000000000000000060648201526084015b60405180910390fd5b60096000610b996004856139b3565b8152602001908152602001600020549050919050565b610bca838383604051806020016040528060008152506113db565b505050565b600061077082611a6b565b60006001600160a01b038216610c1c576040517f8f4eb60400000000000000000000000000000000000000000000000000000000815260040160405180910390fd5b506001600160a01b031660009081526006602052604090205467ffffffffffffffff1690565b6000546001600160a01b03163314610c9c5760405162461bcd60e51b815260206004820181905260248201527f4f776e61626c653a2063616c6c6572206973206e6f7420746865206f776e65726044820152606401610b81565b610ca66000611ae5565b565b600b8054610cb590613a29565b80601f0160208091040260200160405190810160405280929190818152602001828054610ce190613a29565b8015610d2e5780601f10610d0357610100808354040283529160200191610d2e565b820191906000526020600020905b815481529060010190602001808311610d1157829003601f168201915b505050505081565b6000610d4160015490565b60408051808201909152600d81527f4472617720596f7572204f776e00000000000000000000000000000000000000602082015287529050610d8281611b42565b604051602001610d9291906132fd565b60408051601f1981840301815291815287810191909152517f5b7eea860000000000000000000000000000000000000000000000000000000081526000906001600160a01b037f00000000000000000000000000000000000000000000000000000000000000001690635b7eea8690610e0f908a906004016137a6565b602060405180830381600087803b158015610e2957600080fd5b505af1158015610e3d573d6000803e3d6000fd5b505050506040513d601f19601f82011682018060405250810190610e619190612bdb565b905080600a6000610e736004866139b3565b815260208101919091526040016000205585158015610e9157508251155b15610ed157610ea18160026139c7565b610eac90600161399b565b60096000610ebb6004866139b3565b815260208101919091526040016000205561121b565b60008615610ee0576001610ee3565b60005b60ff16905060008451826001610ef9919061399b565b610f03919061399b565b67ffffffffffffffff811115610f1b57610f1b613ad5565b604051908082528060200260200182016040528015610f7757816020015b610f646040518060800160405280600081526020016060815260200160608152602001606081525090565b815260200190600190039081610f395790505b50905087156110a3576000610f8b89610b08565b9050610f986002826139b3565b82600081518110610fab57610fab613abf565b602090810291909101015152610fc2600282613a7f565b15611002576040518060400160405280600581526020017f6173736574000000000000000000000000000000000000000000000000000000815250611039565b6040518060400160405280600481526020017f636f6d70000000000000000000000000000000000000000000000000000000008152505b8260008151811061104c5761104c613abf565b602002602001015160200181905250878260008151811061106f5761106f613abf565b602002602001015160400181905250868260008151811061109257611092613abf565b602002602001015160600181905250505b828183815181106110b6576110b6613abf565b60209081029190910101515260005b855181101561112f578581815181106110e0576110e0613abf565b602002602001015182828560016110f7919061399b565b611101919061399b565b8151811061111157611111613abf565b6020026020010181905250808061112790613a64565b9150506110c5565b6040517f434ebc550000000000000000000000000000000000000000000000000000000081526000906001600160a01b037f0000000000000000000000000000000000000000000000000000000000000000169063434ebc55906111979086906004016136b9565b602060405180830381600087803b1580156111b157600080fd5b505af11580156111c5573d6000803e3d6000fd5b505050506040513d601f19601f820116820180604052508101906111e99190612bdb565b90506111f68160026139c7565b6009600061120560048a6139b3565b8152602081019190915260400160002055505050505b6112303361122b600160046139e6565b611c7c565b851561125d57611258611251611247600489613a7f565b61030890896139e6565b6001611c7c565b6112a3565b600461126981846139b3565b6112739190613a7f565b61128e57600c54611258906001600160a01b03166001611c7c565b6112a36112516000546001600160a01b031690565b50505050505050565b6000546001600160a01b031633146113065760405162461bcd60e51b815260206004820181905260248201527f4f776e61626c653a2063616c6c6572206973206e6f7420746865206f776e65726044820152606401610b81565b805161131990600b90602084019061226a565b5050565b60606004805461078590613a29565b6001600160a01b03821633141561136f576040517fb06307db00000000000000000000000000000000000000000000000000000000815260040160405180910390fd5b3360008181526008602090815260408083206001600160a01b03871680855290835292819020805460ff191686151590811790915590519081529192917f17307eab39ab6107e8899845ad3d59bd9653f200f220920489ca2b5937696c31910160405180910390a35050565b6113e684848461092b565b6001600160a01b0383163b1561141f5761140284848484611d8c565b61141f576040516368d2bf6b60e11b815260040160405180910390fd5b50505050565b606061143082611a43565b6114a25760405162461bcd60e51b815260206004820152602760248201527f437573746f6d546f6b656e2e746f6b656e5552493a206e6f6e6578697374656e60448201527f7420746f6b656e000000000000000000000000000000000000000000000000006064820152608401610b81565b6000806114ae84611606565b909250905060006114ca836114c4600488613a7f565b8461047f565b90506000600a816114dc6004896139b3565b815260200190815260200160002054905060007f00000000000000000000000000000000000000000000000000000000000000006001600160a01b0316634378a6e3836040518263ffffffff1660e01b815260040161153d91815260200190565b60006040518083038186803b15801561155557600080fd5b505afa158015611569573d6000803e3d6000fd5b505050506040513d6000823e601f3d908101601f1916820160405261159191908101906128be565b90506115db61159f88611b42565b600b6115ab8a85611e83565b6115b4876120b9565b6040516020016115c79493929190613342565b6040516020818303038152906040526120b9565b6040516020016115eb91906134ee565b60405160208183030381529060405295505050505050919050565b606080600061161484610b08565b9050611621600282613a7f565b6116db576001600160a01b037f00000000000000000000000000000000000000000000000000000000000000001663e3f24f0261165f6002846139b3565b6040518263ffffffff1660e01b815260040161167d91815260200190565b60006040518083038186803b15801561169557600080fd5b505afa1580156116a9573d6000803e3d6000fd5b505050506040513d6000823e601f3d908101601f191682016040526116d191908101906127ed565b9250925050915091565b60006001600160a01b037f000000000000000000000000000000000000000000000000000000000000000016634378a6e36117176002856139b3565b6040518263ffffffff1660e01b815260040161173591815260200190565b60006040518083038186803b15801561174d57600080fd5b505afa158015611761573d6000803e3d6000fd5b505050506040513d6000823e601f3d908101601f1916820160405261178991908101906128be565b905060006001600160a01b037f0000000000000000000000000000000000000000000000000000000000000000166334320bf16117c76002866139b3565b84606001516040518363ffffffff1660e01b81526004016117e9929190613872565b60006040518083038186803b15801561180157600080fd5b505afa158015611815573d6000803e3d6000fd5b505050506040513d6000823e601f3d908101601f1916820160405261183d9190810190612783565b6060909201519196919550909350505050565b6040517fc45527910000000000000000000000000000000000000000000000000000000081526001600160a01b038381166004830152600091818416917f0000000000000000000000000000000000000000000000000000000000000000169063c45527919060240160206040518083038186803b1580156118d157600080fd5b505afa1580156118e5573d6000803e3d6000fd5b505050506040513d601f19601f8201168201806040525081019061190991906125e7565b6001600160a01b0316141561192057506001610770565b6001600160a01b0380841660009081526008602090815260408083209386168352929052205460ff165b9392505050565b600061195c60015490565b905090565b6000546001600160a01b031633146119bb5760405162461bcd60e51b815260206004820181905260248201527f4f776e61626c653a2063616c6c6572206973206e6f7420746865206f776e65726044820152606401610b81565b6001600160a01b038116611a375760405162461bcd60e51b815260206004820152602660248201527f4f776e61626c653a206e6577206f776e657220697320746865207a65726f206160448201527f64647265737300000000000000000000000000000000000000000000000000006064820152608401610b81565b611a4081611ae5565b50565b600060015482108015610770575050600090815260056020526040902054600160e01b161590565b600081600154811015611ab357600081815260056020526040902054600160e01b8116611ab1575b8061194a575060001901600081815260056020526040902054611a93565b505b6040517fdf2d9b4200000000000000000000000000000000000000000000000000000000815260040160405180910390fd5b600080546001600160a01b0383811673ffffffffffffffffffffffffffffffffffffffff19831681178455604051919092169283917f8be0079c531659141344cd1fd0a4f28419497f9722a3daafe3b4186f6b6457e09190a35050565b606081611b8257505060408051808201909152600181527f3000000000000000000000000000000000000000000000000000000000000000602082015290565b8160005b8115611bac5780611b9681613a64565b9150611ba59050600a836139b3565b9150611b86565b60008167ffffffffffffffff811115611bc757611bc7613ad5565b6040519080825280601f01601f191660200182016040528015611bf1576020820181803683370190505b5090505b8415611c7457611c066001836139e6565b9150611c13600a86613a7f565b611c1e90603061399b565b60f81b818381518110611c3357611c33613abf565b60200101907effffffffffffffffffffffffffffffffffffffffffffffffffffffffffffff1916908160001a905350611c6d600a866139b3565b9450611bf5565b949350505050565b6001546001600160a01b038316611cbf576040517f2e07630000000000000000000000000000000000000000000000000000000000815260040160405180910390fd5b81611cf6576040517fb562e8dd00000000000000000000000000000000000000000000000000000000815260040160405180910390fd5b6001600160a01b038316600081815260066020526040902080546801000000000000000185020190554260a01b6001841460e11b1717600082815260056020526040902055808281015b6040516001830192906001600160a01b038716906000907fddf252ad1be2c89b69c2b068fc378daa952ba7f163c4a11628f55a4df523b3ef908290a4808210611d405760015550505050565b604051630a85bd0160e11b81526000906001600160a01b0385169063150b7a0290611dc190339089908890889060040161367d565b602060405180830381600087803b158015611ddb57600080fd5b505af1925050508015611e0b575060408051601f3d908101601f19168201909252611e0891810190612766565b60015b611e66573d808015611e39576040519150601f19603f3d011682016040523d82523d6000602084013e611e3e565b606091505b508051611e5e576040516368d2bf6b60e11b815260040160405180910390fd5b805181602001fd5b6001600160e01b031916630a85bd0160e11b149050949350505050565b60606000611e9084612256565b611ecf576040518060400160405280600281526020017f4e6f000000000000000000000000000000000000000000000000000000000000815250611f06565b6040518060400160405280600381526020017f59657300000000000000000000000000000000000000000000000000000000008152505b83516020808601516040808801519051611f2295949301613533565b604051602081830303815290604052905080600084608001515111611f7c576040518060400160405280600b81526020017f28616e6f6e796d6f757329000000000000000000000000000000000000000000815250612090565b7f00000000000000000000000000000000000000000000000000000000000000006001600160a01b031663a57cfb246040518163ffffffff1660e01b815260040160206040518083038186803b158015611fd557600080fd5b505afa158015611fe9573d6000803e3d6000fd5b505050506040513d601f19601f8201168201806040525081019061200d91906125e7565b6001600160a01b031663841b9d9785608001516040518263ffffffff1660e01b815260040161203c9190613765565b60006040518083038186803b15801561205457600080fd5b505afa158015612068573d6000803e3d6000fd5b505050506040513d6000823e601f3d908101601f191682016040526120909190810190612783565b6040516020016120a1929190613057565b60408051808303601f19018152919052949350505050565b60608151600014156120d957505060408051602081019091526000815290565b6000604051806060016040528060408152602001613b176040913990506000600384516002612108919061399b565b61211291906139b3565b61211d9060046139c7565b9050600061212c82602061399b565b67ffffffffffffffff81111561214457612144613ad5565b6040519080825280601f01601f19166020018201604052801561216e576020820181803683370190505b509050818152600183018586518101602084015b818310156121da576003830192508251603f8160121c168501518253600182019150603f81600c1c168501518253600182019150603f8160061c168501518253600182019150603f8116850151825350600101612182565b6003895106600181146121f4576002811461222057612248565b7f3d3d000000000000000000000000000000000000000000000000000000000000600119830152612248565b7f3d000000000000000000000000000000000000000000000000000000000000006000198301525b509398975050505050505050565b6000612263600483613a7f565b1592915050565b82805461227690613a29565b90600052602060002090601f01602090048101928261229857600085556122de565b82601f106122b157805160ff19168380011785556122de565b828001600101855582156122de579182015b828111156122de5782518255916020019190600101906122c3565b506122ea9291506122ee565b5090565b5b808211156122ea57600081556001016122ef565b803561230e81613aeb565b919050565b805161230e81613aeb565b600082601f83011261232f57600080fd5b8135602061234461233f8361394f565b61391e565b80838252828201915082860187848660051b890101111561236457600080fd5b60005b8581101561243557813567ffffffffffffffff8082111561238757600080fd5b908901906080828c03601f19018113156123a057600080fd5b6123a861388b565b888401358152604080850135848111156123c157600080fd5b6123cf8f8c83890101612522565b8b840152506060850135848111156123e657600080fd5b6123f48f8c83890101612522565b8284015250508184013591508282111561240d57600080fd5b61241b8d8a84870101612522565b606082015287525050509284019290840190600101612367565b5090979650505050505050565b600082601f83011261245357600080fd5b8135602061246361233f8361394f565b80838252828201915082860187848660051b890101111561248357600080fd5b60005b8581101561243557813567ffffffffffffffff808211156124a657600080fd5b908901906040828c03601f19018113156124bf57600080fd5b6124c76138b4565b88840135838111156124d857600080fd5b6124e68e8b83880101612522565b8252509083013590828211156124fb57600080fd5b6125098d8a84870101612522565b818a015287525050509284019290840190600101612486565b600082601f83011261253357600080fd5b813561254161233f82613973565b81815284602083860101111561255657600080fd5b816020850160208301376000918101602001919091529392505050565b600082601f83011261258457600080fd5b815161259261233f82613973565b8181528460208386010111156125a757600080fd5b611c748260208301602087016139fd565b805161ffff8116811461230e57600080fd5b6000602082840312156125dc57600080fd5b813561194a81613aeb565b6000602082840312156125f957600080fd5b815161194a81613aeb565b6000806040838503121561261757600080fd5b823561262281613aeb565b9150602083013561263281613aeb565b809150509250929050565b60008060006060848603121561265257600080fd5b833561265d81613aeb565b9250602084013561266d81613aeb565b929592945050506040919091013590565b6000806000806080858703121561269457600080fd5b843561269f81613aeb565b935060208501356126af81613aeb565b925060408501359150606085013567ffffffffffffffff8111156126d257600080fd5b6126de87828801612522565b91505092959194509250565b600080604083850312156126fd57600080fd5b823561270881613aeb565b91506020830135801515811461263257600080fd5b6000806040838503121561273057600080fd5b823561273b81613aeb565b946020939093013593505050565b60006020828403121561275b57600080fd5b813561194a81613b00565b60006020828403121561277857600080fd5b815161194a81613b00565b60006020828403121561279557600080fd5b815167ffffffffffffffff8111156127ac57600080fd5b611c7484828501612573565b6000602082840312156127ca57600080fd5b813567ffffffffffffffff8111156127e157600080fd5b611c7484828501612522565b6000806040838503121561280057600080fd5b825167ffffffffffffffff8082111561281857600080fd5b61282486838701612573565b9350602085015191508082111561283a57600080fd5b5061284785828601612573565b9150509250929050565b60008060006060848603121561286657600080fd5b833567ffffffffffffffff8082111561287e57600080fd5b61288a87838801612522565b94506020860135935060408601359150808211156128a757600080fd5b506128b486828701612522565b9150509250925092565b6000602082840312156128d057600080fd5b815167ffffffffffffffff808211156128e857600080fd5b9083019061012082860312156128fd57600080fd5b6129056138d7565b82518281111561291457600080fd5b61292087828601612573565b82525060208301518281111561293557600080fd5b61294187828601612573565b60208301525060408301518281111561295957600080fd5b61296587828601612573565b60408301525060608301518281111561297d57600080fd5b61298987828601612573565b6060830152506080830151828111156129a157600080fd5b6129ad87828601612573565b6080830152506129bf60a08401612313565b60a082015260c0830151828111156129d657600080fd5b6129e287828601612573565b60c0830152506129f460e084016125b8565b60e08201526101009150612a098284016125b8565b91810191909152949350505050565b600080600080600060a08688031215612a3057600080fd5b853567ffffffffffffffff80821115612a4857600080fd5b9087019060e0828a031215612a5c57600080fd5b612a646138fb565b823582811115612a7357600080fd5b612a7f8b828601612522565b825250602083013582811115612a9457600080fd5b612aa08b828601612522565b602083015250604083013582811115612ab857600080fd5b612ac48b828601612522565b604083015250606083013582811115612adc57600080fd5b612ae88b828601612522565b606083015250612afa60808401612303565b608082015260a083013582811115612b1157600080fd5b612b1d8b828601612522565b60a08301525060c083013582811115612b3557600080fd5b612b418b828601612442565b60c0830152509650602088013595506040880135915080821115612b6457600080fd5b612b7089838a01612522565b94506060880135915080821115612b8657600080fd5b612b9289838a01612522565b93506080880135915080821115612ba857600080fd5b50612bb58882890161231e565b9150509295509295909350565b600060208284031215612bd457600080fd5b5035919050565b600060208284031215612bed57600080fd5b5051919050565b600081518084526020808501808196508360051b8101915082860160005b85811015612c62578284038952815160408151818752612c3482880182612c6f565b91505086820151915085810387870152612c4e8183612c6f565b9a87019a9550505090840190600101612c12565b5091979650505050505050565b60008151808452612c878160208601602086016139fd565b601f01601f19169290920160200192915050565b60008151612cad8185602086016139fd565b9290920192915050565b60008351612cc98184602088016139fd565b7f203c75736520687265663d2223000000000000000000000000000000000000009083019081528351612d0381600d8401602088016139fd565b641110179f0560d91b600d9290910191820152601201949350505050565b60008251612d338184602087016139fd565b7f3c2f646566733e0a000000000000000000000000000000000000000000000000920191825250600801919050565b60008251612d748184602087016139fd565b7f3c2f7376673e0a00000000000000000000000000000000000000000000000000920191825250600701919050565b60008251612db58184602087016139fd565b7f3c6c696e6561724772616469656e742069643d22676f6c64222078313d22302e9201918252507f32222078323d2230222079313d2230222079323d2231223e0a20203c73746f7060208201527f206f66667365743d223025222073746f702d636f6c6f723d222343434142303960408201527f222f3e0a203c73746f70206f66667365743d22353025222073746f702d636f6c60608201527f6f723d222346464631383622202f3e0a203c73746f70206f66667365743d223160808201527f303025222073746f702d636f6c6f723d2223434341423039222f3e0a3c2f6c6960a08201527f6e6561724772616469656e743e0a00000000000000000000000000000000000060c082015260ce01919050565b60008251612eda8184602087016139fd565b7f3c6c696e6561724772616469656e742069643d2273696c766572222078313d229201918252507f302e32222078323d2230222079313d2230222079323d2231223e0a20203c737460208201527f6f70206f66667365743d223025222073746f702d636f6c6f723d22233830383060408201527f3746222f3e0a203c73746f70206f66667365743d22353025222073746f702d6360608201527f6f6c6f723d222345454630463222202f3e0a203c73746f70206f66667365743d60808201527f2231303025222073746f702d636f6c6f723d2223383038303746222f3e0a3c2f60a08201527f6c696e6561724772616469656e743e0a0000000000000000000000000000000060c082015260d001919050565b60008351612fff8184602088016139fd565b7f203c7573652066696c7465723d2275726c28236631292220687265663d222300908301908152835161303981601f8401602088016139fd565b641110179f0560d91b601f9290910191820152602401949350505050565b600083516130698184602088016139fd565b80830190507f7d2c7b2274726169745f74797065223a224d696e746572222c2276616c7565228152611d1160f11b602082015283516130af8160228401602088016139fd565b61227d60f01b60229290910191820152602401949350505050565b600083516130dc8184602088016139fd565b80830190507f203c7265637420783d22302220793d2230222077696474683d2231303025222081527f6865696768743d2231303025222066696c6c3d220000000000000000000000006020820152835161313d8160348401602088016139fd565b641110179f0560d91b60349290910191820152603901949350505050565b6000825161316d8184602087016139fd565b7f203c66696c7465722069643d2266312220783d22302220793d223022207769649201918252507f74683d223230302522206865696768743d2232303025223e0a20203c66654f6660208201527f6673657420726573756c743d226f66664f75742220696e3d22536f757263654160408201527f6c706861222064783d223234222064793d22333222202f3e0a20203c6665476160608201527f75737369616e426c757220726573756c743d22626c75724f75742220696e3d2260808201527f6f66664f75742220737464446576696174696f6e3d22313622202f3e0a20203c60a08201527f6665426c656e6420696e3d22536f75726365477261706869632220696e323d2260c08201527f626c75724f757422206d6f64653d226e6f726d616c22202f3e0a203c2f66696c60e08201527f7465723e0a00000000000000000000000000000000000000000000000000000061010082015261010501919050565b600083516132e08184602088016139fd565b8351908301906132f48183602088016139fd565b01949350505050565b7f44726177696e67200000000000000000000000000000000000000000000000008152600082516133358160088501602087016139fd565b9190910160080192915050565b7f7b226e616d65223a2244726177696e6720000000000000000000000000000000815260008551602061337b8260118601838b016139fd565b7f222c226465736372697074696f6e223a220000000000000000000000000000006011928501928301528654602290600090600181811c90808316806133c257607f831692505b8683108114156133df57634e487b7160e01b855285600452602485fd5b8080156133f3576001811461340857613439565b60ff1985168988015283890187019550613439565b60008e81526020902060005b8581101561342f5781548b82018a0152908401908901613414565b505086848a010195505b50505050506134e06134d26134cc61347d613477857f222c2261747472696275746573223a5b00000000000000000000000000000000815260100190565b8c612c9b565b7f5d2c22696d616765223a22646174613a696d6167652f7376672b786d6c3b626181527f736536342c000000000000000000000000000000000000000000000000000000602082015260250190565b89612c9b565b61227d60f01b815260020190565b9a9950505050505050505050565b7f646174613a6170706c69636174696f6e2f6a736f6e3b6261736536342c00000081526000825161352681601d8501602087016139fd565b91909101601d0192915050565b7f7b2274726169745f74797065223a225072696d617279222c2276616c7565223a81526000601160f91b8060208401528651613576816021860160208b016139fd565b7f227d2c7b2274726169745f74797065223a2247726f7570222c2276616c756522602191850191820152611d1160f11b604182015286516135be816043840160208b016139fd565b7f227d2c7b2274726169745f74797065223a2243617465676f7279222c2276616c604392909101918201527f7565223a2200000000000000000000000000000000000000000000000000000060638201528551613622816068840160208a016139fd565b8082019150507f227d2c7b2274726169745f74797065223a224e616d65222c2276616c7565223a60688201528160888201526136716136646089830187612c9b565b601160f91b815260010190565b98975050505050505050565b60006001600160a01b038087168352808616602084015250836040830152608060608301526136af6080830184612c6f565b9695505050505050565b60006020808301818452808551808352604092508286019150828160051b87010184880160005b8381101561375757603f19898403018552815160808151855288820151818a87015261370e82870182612c6f565b91505087820151858203898701526137268282612c6f565b915050606080830151925085820381870152506137438183612c6f565b9689019694505050908601906001016136e0565b509098975050505050505050565b60208152600061194a6020830184612c6f565b60408152600061378b6040830185612c6f565b828103602084015261379d8185612c6f565b95945050505050565b602081526000825160e060208401526137c3610100840182612c6f565b90506020840151601f19808584030160408601526137e18383612c6f565b925060408601519150808584030160608601526137fe8383612c6f565b9250606086015191508085840301608086015261381b8383612c6f565b92506080860151915061383960a08601836001600160a01b03169052565b60a08601519150808584030160c08601526138548383612c6f565b925060c08601519150808584030160e08601525061379d8282612bf4565b828152604060208201526000611c746040830184612c6f565b6040516080810167ffffffffffffffff811182821017156138ae576138ae613ad5565b60405290565b6040805190810167ffffffffffffffff811182821017156138ae576138ae613ad5565b604051610120810167ffffffffffffffff811182821017156138ae576138ae613ad5565b60405160e0810167ffffffffffffffff811182821017156138ae576138ae613ad5565b604051601f8201601f1916810167ffffffffffffffff8111828210171561394757613947613ad5565b604052919050565b600067ffffffffffffffff82111561396957613969613ad5565b5060051b60200190565b600067ffffffffffffffff82111561398d5761398d613ad5565b50601f01601f191660200190565b600082198211156139ae576139ae613a93565b500190565b6000826139c2576139c2613aa9565b500490565b60008160001904831182151516156139e1576139e1613a93565b500290565b6000828210156139f8576139f8613a93565b500390565b60005b83811015613a18578181015183820152602001613a00565b8381111561141f5750506000910152565b600181811c90821680613a3d57607f821691505b60208210811415613a5e57634e487b7160e01b600052602260045260246000fd5b50919050565b6000600019821415613a7857613a78613a93565b5060010190565b600082613a8e57613a8e613aa9565b500690565b634e487b7160e01b600052601160045260246000fd5b634e487b7160e01b600052601260045260246000fd5b634e487b7160e01b600052603260045260246000fd5b634e487b7160e01b600052604160045260246000fd5b6001600160a01b0381168114611a4057600080fd5b6001600160e01b031981168114611a4057600080fdfe4142434445464748494a4b4c4d4e4f505152535455565758595a6162636465666768696a6b6c6d6e6f707172737475767778797a303132333435363738392b2f3c7376672076696577426f783d2230203020313032342031303234222020786d6c6e733d22687474703a2f2f7777772e77332e6f72672f323030302f737667223e0a3c646566733e0aa2646970667358221220421e28774d4db546a407cf83d417736aec0df4c33979baac7708845205a304ab64736f6c6343000806003354686973206973206f6e65206f6620656666747320746f2063726561746520284f6e2d436861696e2041737365742053746f7265295b68747470733a2f2f617373657473746f72652e7774662f647261775d2e20",
  "linkReferences": {},
  "deployedLinkReferences": {}
}