{
  "_format": "hh-sol-artifact-1",
  "contractName": "DrawYourOwn",
  "sourceName": "contracts/DrawYourOwn.sol",
  "abi": [
    {
      "inputs": [
        {
          "internalType": "contract IAssetStoreRegistry",
          "name": "_registry",
          "type": "address"
        },
        {
          "internalType": "contract IAssetStore",
          "name": "_assetStore",
          "type": "address"
        },
        {
          "internalType": "address",
          "name": "_developer",
          "type": "address"
        },
        {
          "internalType": "contract IProxyRegistry",
          "name": "_proxyRegistry",
          "type": "address"
        }
      ],
      "stateMutability": "nonpayable",
      "type": "constructor"
    },
    {
      "inputs": [],
      "name": "ApprovalCallerNotOwnerNorApproved",
      "type": "error"
    },
    {
      "inputs": [],
      "name": "ApprovalQueryForNonexistentToken",
      "type": "error"
    },
    {
      "inputs": [],
      "name": "ApproveToCaller",
      "type": "error"
    },
    {
      "inputs": [],
      "name": "BalanceQueryForZeroAddress",
      "type": "error"
    },
    {
      "inputs": [],
      "name": "MintERC2309QuantityExceedsLimit",
      "type": "error"
    },
    {
      "inputs": [],
      "name": "MintToZeroAddress",
      "type": "error"
    },
    {
      "inputs": [],
      "name": "MintZeroQuantity",
      "type": "error"
    },
    {
      "inputs": [],
      "name": "OwnerQueryForNonexistentToken",
      "type": "error"
    },
    {
      "inputs": [],
      "name": "OwnershipNotInitializedForExtraData",
      "type": "error"
    },
    {
      "inputs": [],
      "name": "TransferCallerNotOwnerNorApproved",
      "type": "error"
    },
    {
      "inputs": [],
      "name": "TransferFromIncorrectOwner",
      "type": "error"
    },
    {
      "inputs": [],
      "name": "TransferToNonERC721ReceiverImplementer",
      "type": "error"
    },
    {
      "inputs": [],
      "name": "TransferToZeroAddress",
      "type": "error"
    },
    {
      "inputs": [],
      "name": "URIQueryForNonexistentToken",
      "type": "error"
    },
    {
      "anonymous": false,
      "inputs": [
        {
          "indexed": true,
          "internalType": "address",
          "name": "owner",
          "type": "address"
        },
        {
          "indexed": true,
          "internalType": "address",
          "name": "approved",
          "type": "address"
        },
        {
          "indexed": true,
          "internalType": "uint256",
          "name": "tokenId",
          "type": "uint256"
        }
      ],
      "name": "Approval",
      "type": "event"
    },
    {
      "anonymous": false,
      "inputs": [
        {
          "indexed": true,
          "internalType": "address",
          "name": "owner",
          "type": "address"
        },
        {
          "indexed": true,
          "internalType": "address",
          "name": "operator",
          "type": "address"
        },
        {
          "indexed": false,
          "internalType": "bool",
          "name": "approved",
          "type": "bool"
        }
      ],
      "name": "ApprovalForAll",
      "type": "event"
    },
    {
      "anonymous": false,
      "inputs": [
        {
          "indexed": true,
          "internalType": "uint256",
          "name": "fromTokenId",
          "type": "uint256"
        },
        {
          "indexed": false,
          "internalType": "uint256",
          "name": "toTokenId",
          "type": "uint256"
        },
        {
          "indexed": true,
          "internalType": "address",
          "name": "from",
          "type": "address"
        },
        {
          "indexed": true,
          "internalType": "address",
          "name": "to",
          "type": "address"
        }
      ],
      "name": "ConsecutiveTransfer",
      "type": "event"
    },
    {
      "anonymous": false,
      "inputs": [
        {
          "indexed": true,
          "internalType": "address",
          "name": "previousOwner",
          "type": "address"
        },
        {
          "indexed": true,
          "internalType": "address",
          "name": "newOwner",
          "type": "address"
        }
      ],
      "name": "OwnershipTransferred",
      "type": "event"
    },
    {
      "anonymous": false,
      "inputs": [
        {
          "indexed": true,
          "internalType": "address",
          "name": "from",
          "type": "address"
        },
        {
          "indexed": true,
          "internalType": "address",
          "name": "to",
          "type": "address"
        },
        {
          "indexed": true,
          "internalType": "uint256",
          "name": "tokenId",
          "type": "uint256"
        }
      ],
      "name": "Transfer",
      "type": "event"
    },
    {
      "inputs": [
        {
          "internalType": "address",
          "name": "to",
          "type": "address"
        },
        {
          "internalType": "uint256",
          "name": "tokenId",
          "type": "uint256"
        }
      ],
      "name": "approve",
      "outputs": [],
      "stateMutability": "nonpayable",
      "type": "function"
    },
    {
      "inputs": [
        {
          "internalType": "uint256",
          "name": "_tokenId",
          "type": "uint256"
        }
      ],
      "name": "assetIdOfToken",
      "outputs": [
        {
          "internalType": "uint256",
          "name": "",
          "type": "uint256"
        }
      ],
      "stateMutability": "view",
      "type": "function"
    },
    {
      "inputs": [],
      "name": "assetStore",
      "outputs": [
        {
          "internalType": "contract IAssetStore",
          "name": "",
          "type": "address"
        }
      ],
      "stateMutability": "view",
      "type": "function"
    },
    {
      "inputs": [
        {
          "internalType": "address",
          "name": "owner",
          "type": "address"
        }
      ],
      "name": "balanceOf",
      "outputs": [
        {
          "internalType": "uint256",
          "name": "",
          "type": "uint256"
        }
      ],
      "stateMutability": "view",
      "type": "function"
    },
    {
      "inputs": [],
      "name": "description",
      "outputs": [
        {
          "internalType": "string",
          "name": "",
          "type": "string"
        }
      ],
      "stateMutability": "view",
      "type": "function"
    },
    {
      "inputs": [],
      "name": "developer",
      "outputs": [
        {
          "internalType": "address",
          "name": "",
          "type": "address"
        }
      ],
      "stateMutability": "view",
      "type": "function"
    },
    {
      "inputs": [
        {
          "internalType": "string",
          "name": "_svgPart",
          "type": "string"
        },
        {
          "internalType": "uint256",
          "name": "_style",
          "type": "uint256"
        },
        {
          "internalType": "string",
          "name": "_tag",
          "type": "string"
        }
      ],
      "name": "generateSVG",
      "outputs": [
        {
          "internalType": "string",
          "name": "",
          "type": "string"
        }
      ],
      "stateMutability": "pure",
      "type": "function"
    },
    {
      "inputs": [
        {
          "internalType": "uint256",
          "name": "tokenId",
          "type": "uint256"
        }
      ],
      "name": "getApproved",
      "outputs": [
        {
          "internalType": "address",
          "name": "",
          "type": "address"
        }
      ],
      "stateMutability": "view",
      "type": "function"
    },
    {
      "inputs": [],
      "name": "getCurrentToken",
      "outputs": [
        {
          "internalType": "uint256",
          "name": "",
          "type": "uint256"
        }
      ],
      "stateMutability": "view",
      "type": "function"
    },
    {
      "inputs": [
        {
          "internalType": "address",
          "name": "owner",
          "type": "address"
        },
        {
          "internalType": "address",
          "name": "operator",
          "type": "address"
        }
      ],
      "name": "isApprovedForAll",
      "outputs": [
        {
          "internalType": "bool",
          "name": "",
          "type": "bool"
        }
      ],
      "stateMutability": "view",
      "type": "function"
    },
    {
      "inputs": [
        {
          "components": [
            {
              "internalType": "string",
              "name": "group",
              "type": "string"
            },
            {
              "internalType": "string",
              "name": "category",
              "type": "string"
            },
            {
              "internalType": "string",
              "name": "name",
              "type": "string"
            },
            {
              "internalType": "string",
              "name": "minter",
              "type": "string"
            },
            {
              "internalType": "address",
              "name": "soulbound",
              "type": "address"
            },
            {
              "internalType": "bytes",
              "name": "metadata",
              "type": "bytes"
            },
            {
              "components": [
                {
                  "internalType": "bytes",
                  "name": "body",
                  "type": "bytes"
                },
                {
                  "internalType": "string",
                  "name": "color",
                  "type": "string"
                }
              ],
              "internalType": "struct IAssetStoreRegistry.Part[]",
              "name": "parts",
              "type": "tuple[]"
            }
          ],
          "internalType": "struct IAssetStoreRegistry.AssetInfo",
          "name": "_assetInfo",
          "type": "tuple"
        },
        {
          "internalType": "uint256",
          "name": "_backgroundId",
          "type": "uint256"
        },
        {
          "internalType": "uint256",
          "name": "_affiliate",
          "type": "uint256"
        }
      ],
      "name": "mintWithAsset",
      "outputs": [],
      "stateMutability": "nonpayable",
      "type": "function"
    },
    {
      "inputs": [],
      "name": "name",
      "outputs": [
        {
          "internalType": "string",
          "name": "",
          "type": "string"
        }
      ],
      "stateMutability": "view",
      "type": "function"
    },
    {
      "inputs": [],
      "name": "owner",
      "outputs": [
        {
          "internalType": "address",
          "name": "",
          "type": "address"
        }
      ],
      "stateMutability": "view",
      "type": "function"
    },
    {
      "inputs": [
        {
          "internalType": "uint256",
          "name": "tokenId",
          "type": "uint256"
        }
      ],
      "name": "ownerOf",
      "outputs": [
        {
          "internalType": "address",
          "name": "",
          "type": "address"
        }
      ],
      "stateMutability": "view",
      "type": "function"
    },
    {
      "inputs": [],
      "name": "proxyRegistry",
      "outputs": [
        {
          "internalType": "contract IProxyRegistry",
          "name": "",
          "type": "address"
        }
      ],
      "stateMutability": "view",
      "type": "function"
    },
    {
      "inputs": [],
      "name": "registry",
      "outputs": [
        {
          "internalType": "contract IAssetStoreRegistry",
          "name": "",
          "type": "address"
        }
      ],
      "stateMutability": "view",
      "type": "function"
    },
    {
      "inputs": [],
      "name": "renounceOwnership",
      "outputs": [],
      "stateMutability": "nonpayable",
      "type": "function"
    },
    {
      "inputs": [
        {
          "internalType": "address",
          "name": "from",
          "type": "address"
        },
        {
          "internalType": "address",
          "name": "to",
          "type": "address"
        },
        {
          "internalType": "uint256",
          "name": "tokenId",
          "type": "uint256"
        }
      ],
      "name": "safeTransferFrom",
      "outputs": [],
      "stateMutability": "nonpayable",
      "type": "function"
    },
    {
      "inputs": [
        {
          "internalType": "address",
          "name": "from",
          "type": "address"
        },
        {
          "internalType": "address",
          "name": "to",
          "type": "address"
        },
        {
          "internalType": "uint256",
          "name": "tokenId",
          "type": "uint256"
        },
        {
          "internalType": "bytes",
          "name": "_data",
          "type": "bytes"
        }
      ],
      "name": "safeTransferFrom",
      "outputs": [],
      "stateMutability": "nonpayable",
      "type": "function"
    },
    {
      "inputs": [
        {
          "internalType": "address",
          "name": "operator",
          "type": "address"
        },
        {
          "internalType": "bool",
          "name": "approved",
          "type": "bool"
        }
      ],
      "name": "setApprovalForAll",
      "outputs": [],
      "stateMutability": "nonpayable",
      "type": "function"
    },
    {
      "inputs": [
        {
          "internalType": "string",
          "name": "_description",
          "type": "string"
        }
      ],
      "name": "setDescription",
      "outputs": [],
      "stateMutability": "nonpayable",
      "type": "function"
    },
    {
      "inputs": [],
      "name": "styles",
      "outputs": [
        {
          "internalType": "uint256",
          "name": "",
          "type": "uint256"
        }
      ],
      "stateMutability": "pure",
      "type": "function"
    },
    {
      "inputs": [
        {
          "internalType": "bytes4",
          "name": "interfaceId",
          "type": "bytes4"
        }
      ],
      "name": "supportsInterface",
      "outputs": [
        {
          "internalType": "bool",
          "name": "",
          "type": "bool"
        }
      ],
      "stateMutability": "view",
      "type": "function"
    },
    {
      "inputs": [],
      "name": "symbol",
      "outputs": [
        {
          "internalType": "string",
          "name": "",
          "type": "string"
        }
      ],
      "stateMutability": "view",
      "type": "function"
    },
    {
      "inputs": [
        {
          "internalType": "uint256",
          "name": "_tokenId",
          "type": "uint256"
        }
      ],
      "name": "tokenURI",
      "outputs": [
        {
          "internalType": "string",
          "name": "",
          "type": "string"
        }
      ],
      "stateMutability": "view",
      "type": "function"
    },
    {
      "inputs": [],
      "name": "tokensPerAsset",
      "outputs": [
        {
          "internalType": "uint256",
          "name": "",
          "type": "uint256"
        }
      ],
      "stateMutability": "pure",
      "type": "function"
    },
    {
      "inputs": [],
      "name": "totalSupply",
      "outputs": [
        {
          "internalType": "uint256",
          "name": "",
          "type": "uint256"
        }
      ],
      "stateMutability": "view",
      "type": "function"
    },
    {
      "inputs": [
        {
          "internalType": "address",
          "name": "from",
          "type": "address"
        },
        {
          "internalType": "address",
          "name": "to",
          "type": "address"
        },
        {
          "internalType": "uint256",
          "name": "tokenId",
          "type": "uint256"
        }
      ],
      "name": "transferFrom",
      "outputs": [],
      "stateMutability": "nonpayable",
      "type": "function"
    },
    {
      "inputs": [
        {
          "internalType": "address",
          "name": "newOwner",
          "type": "address"
        }
      ],
      "name": "transferOwnership",
      "outputs": [],
      "stateMutability": "nonpayable",
      "type": "function"
    }
  ],
  "bytecode": "0x610160604052605460e081815290620033e56101003980516200002b91600a9160209091019062000191565b503480156200003957600080fd5b5060405162003439380380620034398339810160408190526200005c9162000237565b60405180604001604052806011815260200170111c985dc8165bdd5c8813dddb88139195607a1b81525060405180604001604052806007815260200166111c985dd3919560ca1b815250620000c0620000ba6200013d60201b60201c565b62000141565b8151620000d590600390602085019062000191565b508051620000eb90600490602084019062000191565b5060006001555050606093841b6001600160601b031990811660805292841b831660a052600b80546001600160a01b0319166001600160a01b03939093169290921790915590911b1660c052620002f5565b3390565b600080546001600160a01b038381166001600160a01b0319831681178455604051919092169283917f8be0079c531659141344cd1fd0a4f28419497f9722a3daafe3b4186f6b6457e09190a35050565b8280546200019f906200029f565b90600052602060002090601f016020900481019282620001c357600085556200020e565b82601f10620001de57805160ff19168380011785556200020e565b828001600101855582156200020e579182015b828111156200020e578251825591602001919060010190620001f1565b506200021c92915062000220565b5090565b5b808211156200021c576000815560010162000221565b600080600080608085870312156200024e57600080fd5b84516200025b81620002dc565b60208601519094506200026e81620002dc565b60408601519093506200028181620002dc565b60608601519092506200029481620002dc565b939692955090935050565b600181811c90821680620002b457607f821691505b60208210811415620002d657634e487b7160e01b600052602260045260246000fd5b50919050565b6001600160a01b0381168114620002f257600080fd5b50565b60805160601c60a05160601c60c05160601c613094620003516000396000818161039801526112a80152600081816102d50152818161109a01528181611153015261184b01526000818161033201526108d201526130946000f3fe608060405234801561001057600080fd5b50600436106101ce5760003560e01c8063715018a611610104578063a22cb465116100a2578063ca4b208b11610071578063ca4b208b146103e0578063e985e9c5146103f3578063ef2d174614610406578063f2fde38b1461040e57600080fd5b8063a22cb46514610380578063b50cbd9f14610393578063b88d4fde146103ba578063c87b56dd146103cd57600080fd5b80637b103999116100de5780637b1039991461032d5780638da5cb5b1461035457806390c3f38f1461036557806395d89b411461037857600080fd5b8063715018a61461031d5780637284e41614610325578063786f94c6146102c957600080fd5b806323b872dd116101715780634b00371f1161014b5780634b00371f146102c9578063597a0e36146102d05780636352211e146102f757806370a082311461030a57600080fd5b806323b872dd146102905780632ab72d2f146102a357806342842e0e146102b657600080fd5b8063081812fc116101ad578063081812fc14610227578063095ea7b31461025257806318160ddd146102675780631bd79a711461027d57600080fd5b80626e59e9146101d357806301ffc9a7146101fc57806306fdde031461021f575b600080fd5b6101e66101e1366004611fa5565b610421565b6040516101f39190612c88565b60405180910390f35b61020f61020a366004611f01565b610632565b60405190151581526020016101f3565b6101e66106cf565b61023a6102353660046122af565b610761565b6040516001600160a01b0390911681526020016101f3565b610265610260366004611ed5565b6107be565b005b600254600154035b6040519081526020016101f3565b61026561028b36600461216c565b610884565b61026561029e366004611df5565b610a51565b61026f6102b13660046122af565b610c2e565b6102656102c4366004611df5565b610cd5565b600461026f565b61023a7f000000000000000000000000000000000000000000000000000000000000000081565b61023a6103053660046122af565b610cf5565b61026f610318366004611d82565b610d00565b610265610d68565b6101e6610dce565b61023a7f000000000000000000000000000000000000000000000000000000000000000081565b6000546001600160a01b031661023a565b610265610373366004611f70565b610e5c565b6101e6610ecd565b61026561038e366004611ea2565b610edc565b61023a7f000000000000000000000000000000000000000000000000000000000000000081565b6102656103c8366004611e36565b610f8b565b6101e66103db3660046122af565b610fd5565b600b5461023a906001600160a01b031681565b61020f610401366004611dbc565b611269565b61026f61136a565b61026561041c366004611d82565b61137a565b6040805160c0810182526005608082019081527f776869746500000000000000000000000000000000000000000000000000000060a0830152815281518083018352600c81527f75726c282373696c7665722900000000000000000000000000000000000000006020828101919091528083019190915282518084018452600a81527f75726c2823676f6c642900000000000000000000000000000000000000000000818301528284015282518084018452600981527f75726c2823736b79290000000000000000000000000000000000000000000000818301526060838101919091529251600091610516918691016129f2565b60408051601f1981840301815291905290506000610535600487612f1b565b9050600060405180608001604052806049815260200161301660499139886040516020016105649291906127fb565b604051602081830303815290604052905081600114156105a5578060405160200161058f91906124c9565b60405160208183030381529060405290506105eb565b81600214156105bf578060405160200161058f91906123a4565b81600314156105eb57806040516020016105d991906125ee565b60405160208183030381529060405290505b808483600481106105fe576105fe612f5b565b60200201518460405160200161061693929190612713565b60408051808303601f1901815291905298975050505050505050565b60007f01ffc9a7000000000000000000000000000000000000000000000000000000006001600160e01b03198316148061069557507f80ac58cd000000000000000000000000000000000000000000000000000000006001600160e01b03198316145b806106c957507f5b5e139f000000000000000000000000000000000000000000000000000000006001600160e01b03198316145b92915050565b6060600380546106de90612ee0565b80601f016020809104026020016040519081016040528092919081815260200182805461070a90612ee0565b80156107575780601f1061072c57610100808354040283529160200191610757565b820191906000526020600020905b81548152906001019060200180831161073a57829003601f168201915b5050505050905090565b600061076c8261145c565b6107a2576040517fcf4700e400000000000000000000000000000000000000000000000000000000815260040160405180910390fd5b506000908152600760205260409020546001600160a01b031690565b60006107c982610cf5565b9050336001600160a01b0382161461081b576107e58133611269565b61081b576040517fcfb3b94200000000000000000000000000000000000000000000000000000000815260040160405180910390fd5b600082815260076020526040808220805473ffffffffffffffffffffffffffffffffffffffff19166001600160a01b0387811691821790925591518593918516917f8c5be1e5ebec7d5bd14f71427d1e84f3dd0314c0f7b2291e5b200ac8c7c3b92591a4505050565b604051806060016040528060238152602001612ff36023913983526040517f5b7eea860000000000000000000000000000000000000000000000000000000081526000906001600160a01b037f00000000000000000000000000000000000000000000000000000000000000001690635b7eea8690610907908790600401612c9b565b602060405180830381600087803b15801561092157600080fd5b505af1158015610935573d6000803e3d6000fd5b505050506040513d601f19601f8201168201806040525081019061095991906122c8565b9050600061096660015490565b90508315610980576000828152600c602052604090208490555b8160096000610990600485612e6a565b81526020810191909152604001600020556109b6336109b160016004612e9d565b611484565b6000831180156109ca57506109ca83611594565b80156109e75750336109db84610cf5565b6001600160a01b031614155b15610a04576109ff6109f884610cf5565b6001611484565b610a4a565b6004610a108183612e6a565b610a1a9190612f1b565b610a3557600b546109ff906001600160a01b03166001611484565b610a4a6109f86000546001600160a01b031690565b5050505050565b6000610a5c826115a8565b9050836001600160a01b0316816001600160a01b031614610aa9576040517fa114810000000000000000000000000000000000000000000000000000000000815260040160405180910390fd5b60008281526007602052604090208054338082146001600160a01b03881690911417610b0f57610ad98633611269565b610b0f576040517f59c896be00000000000000000000000000000000000000000000000000000000815260040160405180910390fd5b6001600160a01b038516610b4f576040517fea553b3400000000000000000000000000000000000000000000000000000000815260040160405180910390fd5b8015610b5a57600082555b6001600160a01b038681166000908152600660205260408082208054600019019055918716808252919020805460010190554260a01b17600160e11b17600085815260056020526040902055600160e11b8316610be55760018401600081815260056020526040902054610be3576001548114610be35760008181526005602052604090208490555b505b83856001600160a01b0316876001600160a01b03167fddf252ad1be2c89b69c2b068fc378daa952ba7f163c4a11628f55a4df523b3ef60405160405180910390a4505050505050565b6000610c398261145c565b610cb05760405162461bcd60e51b815260206004820152602d60248201527f437573746f6d546f6b656e2e617373657449644f66546f6b656e3a206e6f6e6560448201527f78697374656e7420746f6b656e0000000000000000000000000000000000000060648201526084015b60405180910390fd5b60096000610cbf600485612e6a565b8152602001908152602001600020549050919050565b610cf083838360405180602001604052806000815250610f8b565b505050565b60006106c9826115a8565b60006001600160a01b038216610d42576040517f8f4eb60400000000000000000000000000000000000000000000000000000000815260040160405180910390fd5b506001600160a01b031660009081526006602052604090205467ffffffffffffffff1690565b6000546001600160a01b03163314610dc25760405162461bcd60e51b815260206004820181905260248201527f4f776e61626c653a2063616c6c6572206973206e6f7420746865206f776e65726044820152606401610ca7565b610dcc6000611622565b565b600a8054610ddb90612ee0565b80601f0160208091040260200160405190810160405280929190818152602001828054610e0790612ee0565b8015610e545780601f10610e2957610100808354040283529160200191610e54565b820191906000526020600020905b815481529060010190602001808311610e3757829003601f168201915b505050505081565b6000546001600160a01b03163314610eb65760405162461bcd60e51b815260206004820181905260248201527f4f776e61626c653a2063616c6c6572206973206e6f7420746865206f776e65726044820152606401610ca7565b8051610ec990600a906020840190611b25565b5050565b6060600480546106de90612ee0565b6001600160a01b038216331415610f1f576040517fb06307db00000000000000000000000000000000000000000000000000000000815260040160405180910390fd5b3360008181526008602090815260408083206001600160a01b03871680855290835292819020805460ff191686151590811790915590519081529192917f17307eab39ab6107e8899845ad3d59bd9653f200f220920489ca2b5937696c31910160405180910390a35050565b610f96848484610a51565b6001600160a01b0383163b15610fcf57610fb28484848461167f565b610fcf576040516368d2bf6b60e11b815260040160405180910390fd5b50505050565b6060610fe08261145c565b6110525760405162461bcd60e51b815260206004820152602760248201527f437573746f6d546f6b656e2e746f6b656e5552493a206e6f6e6578697374656e60448201527f7420746f6b656e000000000000000000000000000000000000000000000000006064820152608401610ca7565b600061105d83610c2e565b6040517f4378a6e3000000000000000000000000000000000000000000000000000000008152600481018290529091506000906001600160a01b037f00000000000000000000000000000000000000000000000000000000000000001690634378a6e39060240160006040518083038186803b1580156110dc57600080fd5b505afa1580156110f0573d6000803e3d6000fd5b505050506040513d6000823e601f3d908101601f191682016040526111189190810190612012565b60608101516040517f34320bf10000000000000000000000000000000000000000000000000000000081529192506000916001600160a01b037f000000000000000000000000000000000000000000000000000000000000000016916334320bf191611188918791600401612d70565b60006040518083038186803b1580156111a057600080fd5b505afa1580156111b4573d6000803e3d6000fd5b505050506040513d6000823e601f3d908101601f191682016040526111dc9190810190611f3b565b905060006111f9826111ef600489612f1b565b8560600151610421565b905061123f8360400151600a61120f8987611777565b61121885611988565b60405160200161122b949392919061282a565b604051602081830303815290604052611988565b60405160200161124f9190612a37565b604051602081830303815290604052945050505050919050565b6040517fc45527910000000000000000000000000000000000000000000000000000000081526001600160a01b038381166004830152600091818416917f0000000000000000000000000000000000000000000000000000000000000000169063c45527919060240160206040518083038186803b1580156112ea57600080fd5b505afa1580156112fe573d6000803e3d6000fd5b505050506040513d601f19601f820116820180604052508101906113229190611d9f565b6001600160a01b03161415611339575060016106c9565b6001600160a01b0380841660009081526008602090815260408083209386168352929052205460ff165b9392505050565b600061137560015490565b905090565b6000546001600160a01b031633146113d45760405162461bcd60e51b815260206004820181905260248201527f4f776e61626c653a2063616c6c6572206973206e6f7420746865206f776e65726044820152606401610ca7565b6001600160a01b0381166114505760405162461bcd60e51b815260206004820152602660248201527f4f776e61626c653a206e6577206f776e657220697320746865207a65726f206160448201527f64647265737300000000000000000000000000000000000000000000000000006064820152608401610ca7565b61145981611622565b50565b6000600154821080156106c9575050600090815260056020526040902054600160e01b161590565b6001546001600160a01b0383166114c7576040517f2e07630000000000000000000000000000000000000000000000000000000000815260040160405180910390fd5b816114fe576040517fb562e8dd00000000000000000000000000000000000000000000000000000000815260040160405180910390fd5b6001600160a01b038316600081815260066020526040902080546801000000000000000185020190554260a01b6001841460e11b1717600082815260056020526040902055808281015b6040516001830192906001600160a01b038716906000907fddf252ad1be2c89b69c2b068fc378daa952ba7f163c4a11628f55a4df523b3ef908290a48082106115485760015550505050565b60006115a1600483612f1b565b1592915050565b6000816001548110156115f057600081815260056020526040902054600160e01b81166115ee575b806113635750600019016000818152600560205260409020546115d0565b505b6040517fdf2d9b4200000000000000000000000000000000000000000000000000000000815260040160405180910390fd5b600080546001600160a01b0383811673ffffffffffffffffffffffffffffffffffffffff19831681178455604051919092169283917f8be0079c531659141344cd1fd0a4f28419497f9722a3daafe3b4186f6b6457e09190a35050565b604051630a85bd0160e11b81526000906001600160a01b0385169063150b7a02906116b4903390899088908890600401612c4c565b602060405180830381600087803b1580156116ce57600080fd5b505af19250505080156116fe575060408051601f3d908101601f191682019092526116fb91810190611f1e565b60015b611759573d80801561172c576040519150601f19603f3d011682016040523d82523d6000602084013e611731565b606091505b508051611751576040516368d2bf6b60e11b815260040160405180910390fd5b805181602001fd5b6001600160e01b031916630a85bd0160e11b1490505b949350505050565b606061178283611594565b6117c1576040518060400160405280600281526020017f4e6f0000000000000000000000000000000000000000000000000000000000008152506117f8565b6040518060400160405280600381526020017f59657300000000000000000000000000000000000000000000000000000000008152505b825160208401516040850151608086015151611849576040518060400160405280600b81526020017f28616e6f6e796d6f75732900000000000000000000000000000000000000000081525061195d565b7f00000000000000000000000000000000000000000000000000000000000000006001600160a01b031663a57cfb246040518163ffffffff1660e01b815260040160206040518083038186803b1580156118a257600080fd5b505afa1580156118b6573d6000803e3d6000fd5b505050506040513d601f19601f820116820180604052508101906118da9190611d9f565b6001600160a01b031663841b9d9787608001516040518263ffffffff1660e01b81526004016119099190612c88565b60006040518083038186803b15801561192157600080fd5b505afa158015611935573d6000803e3d6000fd5b505050506040513d6000823e601f3d908101601f1916820160405261195d9190810190611f3b565b604051602001611971959493929190612a7c565b604051602081830303815290604052905092915050565b60608151600014156119a857505060408051602081019091526000815290565b6000604051806060016040528060408152602001612fb360409139905060006003845160026119d79190612e52565b6119e19190612e6a565b6119ec906004612e7e565b905060006119fb826020612e52565b67ffffffffffffffff811115611a1357611a13612f71565b6040519080825280601f01601f191660200182016040528015611a3d576020820181803683370190505b509050818152600183018586518101602084015b81831015611aa9576003830192508251603f8160121c168501518253600182019150603f81600c1c168501518253600182019150603f8160061c168501518253600182019150603f8116850151825350600101611a51565b600389510660018114611ac35760028114611aef57611b17565b7f3d3d000000000000000000000000000000000000000000000000000000000000600119830152611b17565b7f3d000000000000000000000000000000000000000000000000000000000000006000198301525b509398975050505050505050565b828054611b3190612ee0565b90600052602060002090601f016020900481019282611b535760008555611b99565b82601f10611b6c57805160ff1916838001178555611b99565b82800160010185558215611b99579182015b82811115611b99578251825591602001919060010190611b7e565b50611ba5929150611ba9565b5090565b5b80821115611ba55760008155600101611baa565b8035611bc981612f87565b919050565b8051611bc981612f87565b600082601f830112611bea57600080fd5b8135602067ffffffffffffffff80831115611c0757611c07612f71565b8260051b611c16838201612df9565b8481528381019087850183890186018a1015611c3157600080fd5b600093505b86841015611cc857803585811115611c4d57600080fd5b89016040818c03601f1901811315611c6457600080fd5b611c6c612d89565b8883013588811115611c7d57600080fd5b611c8b8e8b83870101611cd5565b825250908201359087821115611ca057600080fd5b611cae8d8a84860101611cd5565b818a01528552505060019390930192918501918501611c36565b5098975050505050505050565b600082601f830112611ce657600080fd5b8135611cf9611cf482612e2a565b612df9565b818152846020838601011115611d0e57600080fd5b816020850160208301376000918101602001919091529392505050565b600082601f830112611d3c57600080fd5b8151611d4a611cf482612e2a565b818152846020838601011115611d5f57600080fd5b61176f826020830160208701612eb4565b805161ffff81168114611bc957600080fd5b600060208284031215611d9457600080fd5b813561136381612f87565b600060208284031215611db157600080fd5b815161136381612f87565b60008060408385031215611dcf57600080fd5b8235611dda81612f87565b91506020830135611dea81612f87565b809150509250929050565b600080600060608486031215611e0a57600080fd5b8335611e1581612f87565b92506020840135611e2581612f87565b929592945050506040919091013590565b60008060008060808587031215611e4c57600080fd5b8435611e5781612f87565b93506020850135611e6781612f87565b925060408501359150606085013567ffffffffffffffff811115611e8a57600080fd5b611e9687828801611cd5565b91505092959194509250565b60008060408385031215611eb557600080fd5b8235611ec081612f87565b915060208301358015158114611dea57600080fd5b60008060408385031215611ee857600080fd5b8235611ef381612f87565b946020939093013593505050565b600060208284031215611f1357600080fd5b813561136381612f9c565b600060208284031215611f3057600080fd5b815161136381612f9c565b600060208284031215611f4d57600080fd5b815167ffffffffffffffff811115611f6457600080fd5b61176f84828501611d2b565b600060208284031215611f8257600080fd5b813567ffffffffffffffff811115611f9957600080fd5b61176f84828501611cd5565b600080600060608486031215611fba57600080fd5b833567ffffffffffffffff80821115611fd257600080fd5b611fde87838801611cd5565b9450602086013593506040860135915080821115611ffb57600080fd5b5061200886828701611cd5565b9150509250925092565b60006020828403121561202457600080fd5b815167ffffffffffffffff8082111561203c57600080fd5b90830190610120828603121561205157600080fd5b612059612db2565b82518281111561206857600080fd5b61207487828601611d2b565b82525060208301518281111561208957600080fd5b61209587828601611d2b565b6020830152506040830151828111156120ad57600080fd5b6120b987828601611d2b565b6040830152506060830151828111156120d157600080fd5b6120dd87828601611d2b565b6060830152506080830151828111156120f557600080fd5b61210187828601611d2b565b60808301525061211360a08401611bce565b60a082015260c08301518281111561212a57600080fd5b61213687828601611d2b565b60c08301525061214860e08401611d70565b60e0820152610100915061215d828401611d70565b91810191909152949350505050565b60008060006060848603121561218157600080fd5b833567ffffffffffffffff8082111561219957600080fd5b9085019060e082880312156121ad57600080fd5b6121b5612dd6565b8235828111156121c457600080fd5b6121d089828601611cd5565b8252506020830135828111156121e557600080fd5b6121f189828601611cd5565b60208301525060408301358281111561220957600080fd5b61221589828601611cd5565b60408301525060608301358281111561222d57600080fd5b61223989828601611cd5565b60608301525061224b60808401611bbe565b608082015260a08301358281111561226257600080fd5b61226e89828601611cd5565b60a08301525060c08301358281111561228657600080fd5b61229289828601611bd9565b60c083015250976020870135975060409096013595945050505050565b6000602082840312156122c157600080fd5b5035919050565b6000602082840312156122da57600080fd5b5051919050565b600081518084526020808501808196508360051b8101915082860160005b8581101561234f5782840389528151604081518187526123218288018261235c565b9150508682015191508581038787015261233b818361235c565b9a87019a95505050908401906001016122ff565b5091979650505050505050565b60008151808452612374816020860160208601612eb4565b601f01601f19169290920160200192915050565b6000815161239a818560208601612eb4565b9290920192915050565b600082516123b6818460208701612eb4565b7f3c6c696e6561724772616469656e742069643d22676f6c64222078313d22302e9201918252507f32222078323d2230222079313d2230222079323d2231223e0a20203c73746f7060208201527f206f66667365743d223025222073746f702d636f6c6f723d222343434142303960408201527f222f3e0a203c73746f70206f66667365743d22353025222073746f702d636f6c60608201527f6f723d222346464631383622202f3e0a203c73746f70206f66667365743d223160808201527f303025222073746f702d636f6c6f723d2223434341423039222f3e0a3c2f6c6960a08201527f6e6561724772616469656e743e0a00000000000000000000000000000000000060c082015260ce01919050565b600082516124db818460208701612eb4565b7f3c6c696e6561724772616469656e742069643d2273696c766572222078313d229201918252507f302e32222078323d2230222079313d2230222079323d2231223e0a20203c737460208201527f6f70206f66667365743d223025222073746f702d636f6c6f723d22233830383060408201527f3746222f3e0a203c73746f70206f66667365743d22353025222073746f702d6360608201527f6f6c6f723d222345454630463222202f3e0a203c73746f70206f66667365743d60808201527f2231303025222073746f702d636f6c6f723d2223383038303746222f3e0a3c2f60a08201527f6c696e6561724772616469656e743e0a0000000000000000000000000000000060c082015260d001919050565b60008251612600818460208701612eb4565b7f3c72616469616c4772616469656e742069643d22736b79222063783d22302e389201918252507f222063793d22302e3333223e0a20203c73746f70206f66667365743d2230252260208201527f2073746f702d636f6c6f723d2223464646464646222f3e0a203c73746f70206f60408201527f66667365743d22323025222073746f702d636f6c6f723d22234646464646462260608201527f202f3e0a203c73746f70206f66667365743d2231303025222073746f702d636f60808201527f6c6f723d2223303042354532222f3e0a3c2f72616469616c4772616469656e7460a08201527f3e0a00000000000000000000000000000000000000000000000000000000000060c082015260c201919050565b60008451612725818460208901612eb4565b80830190507f3c2f646566733e0a203c7265637420783d22302220793d22302220776964746881527f3d223130302522206865696768743d2231303025222066696c6c3d22000000006020820152845161278681603c840160208901612eb4565b7f22202f3e0a203c75736520687265663d22000000000000000000000000000000603c929091019182015283516127c481604d840160208801612eb4565b7f22202f3e0a3c2f7376673e0a0000000000000000000000000000000000000000604d929091019182015260590195945050505050565b6000835161280d818460208801612eb4565b835190830190612821818360208801612eb4565b01949350505050565b7f7b226e616d65223a22000000000000000000000000000000000000000000000081526000855160206128638260098601838b01612eb4565b7f222c226465736372697074696f6e223a220000000000000000000000000000006009928501928301528654601a90600090600181811c90808316806128aa57607f831692505b8683108114156128c857634e487b7160e01b85526022600452602485fd5b8080156128dc57600181146128f157612922565b60ff1985168988015283890187019550612922565b60008e81526020902060005b858110156129185781548b82018a01529084019089016128fd565b505086848a010195505b50505050506129e46129bb6129b5612966612960857f222c2261747472696275746573223a5b00000000000000000000000000000000815260100190565b8c612388565b7f5d2c22696d616765223a22646174613a696d6167652f7376672b786d6c3b626181527f736536342c000000000000000000000000000000000000000000000000000000602082015260250190565b89612388565b7f227d000000000000000000000000000000000000000000000000000000000000815260020190565b9a9950505050505050505050565b7f2300000000000000000000000000000000000000000000000000000000000000815260008251612a2a816001850160208701612eb4565b9190910160010192915050565b7f646174613a6170706c69636174696f6e2f6a736f6e3b6261736536342c000000815260008251612a6f81601d850160208701612eb4565b91909101601d0192915050565b7f7b2274726169745f74797065223a225072696d617279222c2276616c7565223a815260007f22000000000000000000000000000000000000000000000000000000000000008060208401528751612adb816021860160208c01612eb4565b7f227d2c7b2274726169745f74797065223a2247726f7570222c2276616c7565226021918501918201527f3a2200000000000000000000000000000000000000000000000000000000000060418201528751612b3e816043840160208c01612eb4565b7f227d2c7b2274726169745f74797065223a2243617465676f7279222c2276616c604392909101918201527f7565223a2200000000000000000000000000000000000000000000000000000060638201528651612ba2816068840160208b01612eb4565b8082019150507f227d2c7b2274726169745f74797065223a224e616d65222c2276616c7565223a6068820152816088820152612c3f6129bb612c39612bea608985018a612388565b7f227d2c7b2274726169745f74797065223a224d696e746572222c2276616c756581527f223a220000000000000000000000000000000000000000000000000000000000602082015260230190565b87612388565b9998505050505050505050565b60006001600160a01b03808716835280861660208401525083604083015260806060830152612c7e608083018461235c565b9695505050505050565b602081526000611363602083018461235c565b602081526000825160e06020840152612cb861010084018261235c565b90506020840151601f1980858403016040860152612cd6838361235c565b92506040860151915080858403016060860152612cf3838361235c565b92506060860151915080858403016080860152612d10838361235c565b925060808601519150612d2e60a08601836001600160a01b03169052565b60a08601519150808584030160c0860152612d49838361235c565b925060c08601519150808584030160e086015250612d6782826122e1565b95945050505050565b82815260406020820152600061176f604083018461235c565b6040805190810167ffffffffffffffff81118282101715612dac57612dac612f71565b60405290565b604051610120810167ffffffffffffffff81118282101715612dac57612dac612f71565b60405160e0810167ffffffffffffffff81118282101715612dac57612dac612f71565b604051601f8201601f1916810167ffffffffffffffff81118282101715612e2257612e22612f71565b604052919050565b600067ffffffffffffffff821115612e4457612e44612f71565b50601f01601f191660200190565b60008219821115612e6557612e65612f2f565b500190565b600082612e7957612e79612f45565b500490565b6000816000190483118215151615612e9857612e98612f2f565b500290565b600082821015612eaf57612eaf612f2f565b500390565b60005b83811015612ecf578181015183820152602001612eb7565b83811115610fcf5750506000910152565b600181811c90821680612ef457607f821691505b60208210811415612f1557634e487b7160e01b600052602260045260246000fd5b50919050565b600082612f2a57612f2a612f45565b500690565b634e487b7160e01b600052601160045260246000fd5b634e487b7160e01b600052601260045260246000fd5b634e487b7160e01b600052603260045260246000fd5b634e487b7160e01b600052604160045260246000fd5b6001600160a01b038116811461145957600080fd5b6001600160e01b03198116811461145957600080fdfe4142434445464748494a4b4c4d4e4f505152535455565758595a6162636465666768696a6b6c6d6e6f707172737475767778797a303132333435363738392b2f4472617720596f7572204f776e2028434330206f722043432042592d534120342e30293c7376672076696577426f783d2230203020313032342031303234222020786d6c6e733d22687474703a2f2f7777772e77332e6f72672f323030302f737667223e0a3c646566733e0aa2646970667358221220f7f50c57ad1d2bdf636f4831cafa2bf25a3c045a0749c5b515cf3a773a7566da64736f6c6343000806003354686973206973206f6e65206f6620656666747320746f2063726561746520284f6e2d436861696e2041737365742053746f7265295b68747470733a2f2f617373657473746f72652e7774662f647261775d2e20",
  "linkReferences": {},
  "deployedLinkReferences": {}
}