{
  "_format": "hh-sol-artifact-1",
  "contractName": "DrawYourOwn",
  "sourceName": "contracts/DrawYourOwn.sol",
  "abi": [
    {
      "inputs": [
        {
          "internalType": "contract IAssetStoreRegistry",
          "name": "_registry",
          "type": "address"
        },
        {
          "internalType": "contract IAssetStoreEx",
          "name": "_assetStore",
          "type": "address"
        },
        {
          "internalType": "address",
          "name": "_developer",
          "type": "address"
        },
        {
          "internalType": "contract IProxyRegistry",
          "name": "_proxyRegistry",
          "type": "address"
        }
      ],
      "stateMutability": "nonpayable",
      "type": "constructor"
    },
    {
      "inputs": [],
      "name": "ApprovalCallerNotOwnerNorApproved",
      "type": "error"
    },
    {
      "inputs": [],
      "name": "ApprovalQueryForNonexistentToken",
      "type": "error"
    },
    {
      "inputs": [],
      "name": "ApproveToCaller",
      "type": "error"
    },
    {
      "inputs": [],
      "name": "BalanceQueryForZeroAddress",
      "type": "error"
    },
    {
      "inputs": [],
      "name": "MintERC2309QuantityExceedsLimit",
      "type": "error"
    },
    {
      "inputs": [],
      "name": "MintToZeroAddress",
      "type": "error"
    },
    {
      "inputs": [],
      "name": "MintZeroQuantity",
      "type": "error"
    },
    {
      "inputs": [],
      "name": "OwnerQueryForNonexistentToken",
      "type": "error"
    },
    {
      "inputs": [],
      "name": "OwnershipNotInitializedForExtraData",
      "type": "error"
    },
    {
      "inputs": [],
      "name": "TransferCallerNotOwnerNorApproved",
      "type": "error"
    },
    {
      "inputs": [],
      "name": "TransferFromIncorrectOwner",
      "type": "error"
    },
    {
      "inputs": [],
      "name": "TransferToNonERC721ReceiverImplementer",
      "type": "error"
    },
    {
      "inputs": [],
      "name": "TransferToZeroAddress",
      "type": "error"
    },
    {
      "inputs": [],
      "name": "URIQueryForNonexistentToken",
      "type": "error"
    },
    {
      "anonymous": false,
      "inputs": [
        {
          "indexed": true,
          "internalType": "address",
          "name": "owner",
          "type": "address"
        },
        {
          "indexed": true,
          "internalType": "address",
          "name": "approved",
          "type": "address"
        },
        {
          "indexed": true,
          "internalType": "uint256",
          "name": "tokenId",
          "type": "uint256"
        }
      ],
      "name": "Approval",
      "type": "event"
    },
    {
      "anonymous": false,
      "inputs": [
        {
          "indexed": true,
          "internalType": "address",
          "name": "owner",
          "type": "address"
        },
        {
          "indexed": true,
          "internalType": "address",
          "name": "operator",
          "type": "address"
        },
        {
          "indexed": false,
          "internalType": "bool",
          "name": "approved",
          "type": "bool"
        }
      ],
      "name": "ApprovalForAll",
      "type": "event"
    },
    {
      "anonymous": false,
      "inputs": [
        {
          "indexed": true,
          "internalType": "uint256",
          "name": "fromTokenId",
          "type": "uint256"
        },
        {
          "indexed": false,
          "internalType": "uint256",
          "name": "toTokenId",
          "type": "uint256"
        },
        {
          "indexed": true,
          "internalType": "address",
          "name": "from",
          "type": "address"
        },
        {
          "indexed": true,
          "internalType": "address",
          "name": "to",
          "type": "address"
        }
      ],
      "name": "ConsecutiveTransfer",
      "type": "event"
    },
    {
      "anonymous": false,
      "inputs": [
        {
          "indexed": true,
          "internalType": "address",
          "name": "previousOwner",
          "type": "address"
        },
        {
          "indexed": true,
          "internalType": "address",
          "name": "newOwner",
          "type": "address"
        }
      ],
      "name": "OwnershipTransferred",
      "type": "event"
    },
    {
      "anonymous": false,
      "inputs": [
        {
          "indexed": true,
          "internalType": "address",
          "name": "from",
          "type": "address"
        },
        {
          "indexed": true,
          "internalType": "address",
          "name": "to",
          "type": "address"
        },
        {
          "indexed": true,
          "internalType": "uint256",
          "name": "tokenId",
          "type": "uint256"
        }
      ],
      "name": "Transfer",
      "type": "event"
    },
    {
      "inputs": [
        {
          "internalType": "address",
          "name": "to",
          "type": "address"
        },
        {
          "internalType": "uint256",
          "name": "tokenId",
          "type": "uint256"
        }
      ],
      "name": "approve",
      "outputs": [],
      "stateMutability": "nonpayable",
      "type": "function"
    },
    {
      "inputs": [],
      "name": "assetComposer",
      "outputs": [
        {
          "internalType": "contract AssetComposer",
          "name": "",
          "type": "address"
        }
      ],
      "stateMutability": "view",
      "type": "function"
    },
    {
      "inputs": [
        {
          "internalType": "uint256",
          "name": "_tokenId",
          "type": "uint256"
        }
      ],
      "name": "assetIdOfToken",
      "outputs": [
        {
          "internalType": "uint256",
          "name": "",
          "type": "uint256"
        }
      ],
      "stateMutability": "view",
      "type": "function"
    },
    {
      "inputs": [],
      "name": "assetStore",
      "outputs": [
        {
          "internalType": "contract IAssetStoreEx",
          "name": "",
          "type": "address"
        }
      ],
      "stateMutability": "view",
      "type": "function"
    },
    {
      "inputs": [
        {
          "internalType": "address",
          "name": "owner",
          "type": "address"
        }
      ],
      "name": "balanceOf",
      "outputs": [
        {
          "internalType": "uint256",
          "name": "",
          "type": "uint256"
        }
      ],
      "stateMutability": "view",
      "type": "function"
    },
    {
      "inputs": [],
      "name": "description",
      "outputs": [
        {
          "internalType": "string",
          "name": "",
          "type": "string"
        }
      ],
      "stateMutability": "view",
      "type": "function"
    },
    {
      "inputs": [],
      "name": "developer",
      "outputs": [
        {
          "internalType": "address",
          "name": "",
          "type": "address"
        }
      ],
      "stateMutability": "view",
      "type": "function"
    },
    {
      "inputs": [
        {
          "internalType": "string",
          "name": "_svgPart",
          "type": "string"
        },
        {
          "internalType": "uint256",
          "name": "_style",
          "type": "uint256"
        },
        {
          "internalType": "string",
          "name": "_tag",
          "type": "string"
        }
      ],
      "name": "generateSVG",
      "outputs": [
        {
          "internalType": "string",
          "name": "",
          "type": "string"
        }
      ],
      "stateMutability": "pure",
      "type": "function"
    },
    {
      "inputs": [
        {
          "internalType": "uint256",
          "name": "_tokenId",
          "type": "uint256"
        }
      ],
      "name": "generateSVGPart",
      "outputs": [
        {
          "internalType": "string",
          "name": "",
          "type": "string"
        },
        {
          "internalType": "string",
          "name": "",
          "type": "string"
        }
      ],
      "stateMutability": "view",
      "type": "function"
    },
    {
      "inputs": [
        {
          "internalType": "uint256",
          "name": "tokenId",
          "type": "uint256"
        }
      ],
      "name": "getApproved",
      "outputs": [
        {
          "internalType": "address",
          "name": "",
          "type": "address"
        }
      ],
      "stateMutability": "view",
      "type": "function"
    },
    {
      "inputs": [],
      "name": "getCurrentToken",
      "outputs": [
        {
          "internalType": "uint256",
          "name": "",
          "type": "uint256"
        }
      ],
      "stateMutability": "view",
      "type": "function"
    },
    {
      "inputs": [
        {
          "internalType": "address",
          "name": "owner",
          "type": "address"
        },
        {
          "internalType": "address",
          "name": "operator",
          "type": "address"
        }
      ],
      "name": "isApprovedForAll",
      "outputs": [
        {
          "internalType": "bool",
          "name": "",
          "type": "bool"
        }
      ],
      "stateMutability": "view",
      "type": "function"
    },
    {
      "inputs": [
        {
          "components": [
            {
              "internalType": "string",
              "name": "group",
              "type": "string"
            },
            {
              "internalType": "string",
              "name": "category",
              "type": "string"
            },
            {
              "internalType": "string",
              "name": "name",
              "type": "string"
            },
            {
              "internalType": "string",
              "name": "minter",
              "type": "string"
            },
            {
              "internalType": "address",
              "name": "soulbound",
              "type": "address"
            },
            {
              "internalType": "bytes",
              "name": "metadata",
              "type": "bytes"
            },
            {
              "components": [
                {
                  "internalType": "bytes",
                  "name": "body",
                  "type": "bytes"
                },
                {
                  "internalType": "string",
                  "name": "color",
                  "type": "string"
                }
              ],
              "internalType": "struct IAssetStoreRegistry.Part[]",
              "name": "parts",
              "type": "tuple[]"
            }
          ],
          "internalType": "struct IAssetStoreRegistry.AssetInfo",
          "name": "_assetInfo",
          "type": "tuple"
        },
        {
          "internalType": "uint256",
          "name": "_affiliate",
          "type": "uint256"
        },
        {
          "components": [
            {
              "internalType": "uint256",
              "name": "tokenId",
              "type": "uint256"
            },
            {
              "internalType": "string",
              "name": "fill",
              "type": "string"
            },
            {
              "internalType": "string",
              "name": "transform",
              "type": "string"
            }
          ],
          "internalType": "struct DrawYourOwn.RemixInfo[]",
          "name": "_remixes",
          "type": "tuple[]"
        },
        {
          "components": [
            {
              "internalType": "uint256",
              "name": "assetId",
              "type": "uint256"
            },
            {
              "internalType": "string",
              "name": "provider",
              "type": "string"
            },
            {
              "internalType": "string",
              "name": "fill",
              "type": "string"
            },
            {
              "internalType": "string",
              "name": "transform",
              "type": "string"
            }
          ],
          "internalType": "struct IAssetComposer.AssetLayer[]",
          "name": "_overlays",
          "type": "tuple[]"
        }
      ],
      "name": "mintWithAsset",
      "outputs": [],
      "stateMutability": "nonpayable",
      "type": "function"
    },
    {
      "inputs": [],
      "name": "name",
      "outputs": [
        {
          "internalType": "string",
          "name": "",
          "type": "string"
        }
      ],
      "stateMutability": "view",
      "type": "function"
    },
    {
      "inputs": [],
      "name": "owner",
      "outputs": [
        {
          "internalType": "address",
          "name": "",
          "type": "address"
        }
      ],
      "stateMutability": "view",
      "type": "function"
    },
    {
      "inputs": [
        {
          "internalType": "uint256",
          "name": "tokenId",
          "type": "uint256"
        }
      ],
      "name": "ownerOf",
      "outputs": [
        {
          "internalType": "address",
          "name": "",
          "type": "address"
        }
      ],
      "stateMutability": "view",
      "type": "function"
    },
    {
      "inputs": [],
      "name": "proxyRegistry",
      "outputs": [
        {
          "internalType": "contract IProxyRegistry",
          "name": "",
          "type": "address"
        }
      ],
      "stateMutability": "view",
      "type": "function"
    },
    {
      "inputs": [],
      "name": "registry",
      "outputs": [
        {
          "internalType": "contract IAssetStoreRegistry",
          "name": "",
          "type": "address"
        }
      ],
      "stateMutability": "view",
      "type": "function"
    },
    {
      "inputs": [],
      "name": "renounceOwnership",
      "outputs": [],
      "stateMutability": "nonpayable",
      "type": "function"
    },
    {
      "inputs": [
        {
          "internalType": "address",
          "name": "from",
          "type": "address"
        },
        {
          "internalType": "address",
          "name": "to",
          "type": "address"
        },
        {
          "internalType": "uint256",
          "name": "tokenId",
          "type": "uint256"
        }
      ],
      "name": "safeTransferFrom",
      "outputs": [],
      "stateMutability": "nonpayable",
      "type": "function"
    },
    {
      "inputs": [
        {
          "internalType": "address",
          "name": "from",
          "type": "address"
        },
        {
          "internalType": "address",
          "name": "to",
          "type": "address"
        },
        {
          "internalType": "uint256",
          "name": "tokenId",
          "type": "uint256"
        },
        {
          "internalType": "bytes",
          "name": "_data",
          "type": "bytes"
        }
      ],
      "name": "safeTransferFrom",
      "outputs": [],
      "stateMutability": "nonpayable",
      "type": "function"
    },
    {
      "inputs": [
        {
          "internalType": "address",
          "name": "operator",
          "type": "address"
        },
        {
          "internalType": "bool",
          "name": "approved",
          "type": "bool"
        }
      ],
      "name": "setApprovalForAll",
      "outputs": [],
      "stateMutability": "nonpayable",
      "type": "function"
    },
    {
      "inputs": [
        {
          "internalType": "string",
          "name": "_description",
          "type": "string"
        }
      ],
      "name": "setDescription",
      "outputs": [],
      "stateMutability": "nonpayable",
      "type": "function"
    },
    {
      "inputs": [],
      "name": "styles",
      "outputs": [
        {
          "internalType": "uint256",
          "name": "",
          "type": "uint256"
        }
      ],
      "stateMutability": "pure",
      "type": "function"
    },
    {
      "inputs": [
        {
          "internalType": "bytes4",
          "name": "interfaceId",
          "type": "bytes4"
        }
      ],
      "name": "supportsInterface",
      "outputs": [
        {
          "internalType": "bool",
          "name": "",
          "type": "bool"
        }
      ],
      "stateMutability": "view",
      "type": "function"
    },
    {
      "inputs": [],
      "name": "symbol",
      "outputs": [
        {
          "internalType": "string",
          "name": "",
          "type": "string"
        }
      ],
      "stateMutability": "view",
      "type": "function"
    },
    {
      "inputs": [
        {
          "internalType": "uint256",
          "name": "_tokenId",
          "type": "uint256"
        }
      ],
      "name": "tokenURI",
      "outputs": [
        {
          "internalType": "string",
          "name": "",
          "type": "string"
        }
      ],
      "stateMutability": "view",
      "type": "function"
    },
    {
      "inputs": [],
      "name": "tokensPerAsset",
      "outputs": [
        {
          "internalType": "uint256",
          "name": "",
          "type": "uint256"
        }
      ],
      "stateMutability": "pure",
      "type": "function"
    },
    {
      "inputs": [],
      "name": "totalSupply",
      "outputs": [
        {
          "internalType": "uint256",
          "name": "",
          "type": "uint256"
        }
      ],
      "stateMutability": "view",
      "type": "function"
    },
    {
      "inputs": [
        {
          "internalType": "address",
          "name": "from",
          "type": "address"
        },
        {
          "internalType": "address",
          "name": "to",
          "type": "address"
        },
        {
          "internalType": "uint256",
          "name": "tokenId",
          "type": "uint256"
        }
      ],
      "name": "transferFrom",
      "outputs": [],
      "stateMutability": "nonpayable",
      "type": "function"
    },
    {
      "inputs": [
        {
          "internalType": "address",
          "name": "newOwner",
          "type": "address"
        }
      ],
      "name": "transferOwnership",
      "outputs": [],
      "stateMutability": "nonpayable",
      "type": "function"
    }
  ],
  "bytecode": "0x610180604052605461010081815290620070606101203980516200002c91600b9160209091019062000384565b503480156200003a57600080fd5b50604051620070b4380380620070b48339810160408190526200005d9162000446565b60405180604001604052806011815260200170111c985dc8165bdd5c8813dddb88139195607a1b81525060405180604001604052806007815260200166111c985dd3919560ca1b815250620000c1620000bb6200033060201b60201c565b62000334565b8151620000d690600390602085019062000384565b508051620000ec90600490602084019062000384565b50600060015550506001600160601b0319606085811b821660805284811b821660a052600c80546001600160a01b0386166001600160a01b031990911617905582901b1660c0526040516000908490620001469062000413565b6001600160a01b039091168152602001604051809103906000f08015801562000173573d6000803e3d6000fd5b5060405163f2fde38b60e01b81523360048201529091506001600160a01b0382169063f2fde38b90602401600060405180830381600087803b158015620001b957600080fd5b505af1158015620001ce573d6000803e3d6000fd5b50505050600084604051620001e39062000421565b6001600160a01b039091168152602001604051809103906000f08015801562000210573d6000803e3d6000fd5b50604051630713000b60e11b81526001600160a01b03808316600483015291925090831690630e26001690602401602060405180830381600087803b1580156200025957600080fd5b505af11580156200026e573d6000803e3d6000fd5b505050506040513d601f19601f82011682018060405250810190620002949190620004ae565b50604051630713000b60e11b81526001600160a01b0383166004820181905290630e26001690602401602060405180830381600087803b158015620002d857600080fd5b505af1158015620002ed573d6000803e3d6000fd5b505050506040513d601f19601f82011682018060405250810190620003139190620004ae565b505060601b6001600160601b03191660e052506200051e92505050565b3390565b600080546001600160a01b038381166001600160a01b0319831681178455604051919092169283917f8be0079c531659141344cd1fd0a4f28419497f9722a3daafe3b4186f6b6457e09190a35050565b8280546200039290620004c8565b90600052602060002090601f016020900481019282620003b6576000855562000401565b82601f10620003d157805160ff191683800117855562000401565b8280016001018555821562000401579182015b8281111562000401578251825591602001919060010190620003e4565b506200040f9291506200042f565b5090565b61213e806200432a83390190565b610bf8806200646883390190565b5b808211156200040f576000815560010162000430565b600080600080608085870312156200045d57600080fd5b84516200046a8162000505565b60208601519094506200047d8162000505565b6040860151909350620004908162000505565b6060860151909250620004a38162000505565b939692955090935050565b600060208284031215620004c157600080fd5b5051919050565b600181811c90821680620004dd57607f821691505b60208210811415620004ff57634e487b7160e01b600052602260045260246000fd5b50919050565b6001600160a01b03811681146200051b57600080fd5b50565b60805160601c60a05160601c60c05160601c60e05160601c613d8e6200059c60003960008181610442015281816110a0015261170c0152600081816103ae015261196c0152600081816102eb015281816115ce015281816117c401528181611874015261206f0152600081816103480152610c540152613d8e6000f3fe608060405234801561001057600080fd5b50600436106101e45760003560e01c80637284e4161161010f578063b88d4fde116100a2578063e985e9c511610071578063e985e9c51461042a578063ec1718b91461043d578063ef2d174614610464578063f2fde38b1461046c57600080fd5b8063b88d4fde146103d0578063c87b56dd146103e3578063ca4b208b146103f6578063e3f24f021461040957600080fd5b806390c3f38f116100de57806390c3f38f1461037b57806395d89b411461038e578063a22cb46514610396578063b50cbd9f146103a957600080fd5b80637284e4161461033b578063786f94c6146102df5780637b103999146103435780638da5cb5b1461036a57600080fd5b80632ab72d2f11610187578063597a0e3611610156578063597a0e36146102e65780636352211e1461030d57806370a0823114610320578063715018a61461033357600080fd5b80632ab72d2f146102a65780632b7e2f59146102b957806342842e0e146102cc5780634b00371f146102df57600080fd5b8063081812fc116101c3578063081812fc1461023d578063095ea7b31461026857806318160ddd1461027d57806323b872dd1461029357600080fd5b80626e59e9146101e957806301ffc9a71461021257806306fdde0314610235575b600080fd5b6101fc6101f7366004612a18565b61047f565b60405161020991906138fb565b60405180910390f35b610225610220366004612910565b6106d9565b6040519015158152602001610209565b6101fc610776565b61025061024b366004612d58565b610808565b6040516001600160a01b039091168152602001610209565b61027b6102763660046128e4565b610865565b005b600254600154035b604051908152602001610209565b61027b6102a1366004612804565b61092b565b6102856102b4366004612d58565b610b09565b61027b6102c7366004612bdf565b610bb0565b61027b6102da366004612804565b611202565b6004610285565b6102507f000000000000000000000000000000000000000000000000000000000000000081565b61025061031b366004612d58565b611222565b61028561032e366004612791565b61122d565b61027b611295565b6101fc6112fb565b6102507f000000000000000000000000000000000000000000000000000000000000000081565b6000546001600160a01b0316610250565b61027b61038936600461297f565b611389565b6101fc6113fa565b61027b6103a43660046128b1565b611409565b6102507f000000000000000000000000000000000000000000000000000000000000000081565b61027b6103de366004612845565b6114b8565b6101fc6103f1366004612d58565b611502565b600c54610250906001600160a01b031681565b61041c610417366004612d58565b6116e3565b60405161020992919061390e565b6102256104383660046127cb565b61192d565b6102507f000000000000000000000000000000000000000000000000000000000000000081565b610285611a2e565b61027b61047a366004612791565b611a3e565b6040805160a081018252600060808201818152825282518084018452600c81527f75726c282373696c7665722900000000000000000000000000000000000000006020828101919091528084019190915283518085018552600a81527f75726c2823676f6c64290000000000000000000000000000000000000000000081830152838501528351908101909352808352606082810193909352610523600486613c38565b90506000604051806080016040528060498152602001613d106049913987604051602001610552929190613464565b60405160208183030381529060405290508160011415610593578060405160200161057d919061305e565b60405160208183030381529060405290506105d9565b81600214156105ad578060405160200161057d9190612f39565b81600314156105d957806040516020016105c791906132f1565b60405160208183030381529060405290505b806040516020016105ea9190612eb7565b6040516020818303038152906040529050600083836004811061060f5761060f613c78565b6020020151511115610656578083836004811061062e5761062e613c78565b6020020151604051602001610644929190613260565b60405160208183030381529060405290505b8160031415610688578085604051602001610672929190613183565b60405160208183030381529060405290506106ad565b808560405160200161069b929190612e4d565b60405160208183030381529060405290505b806040516020016106be9190612ef8565b60408051808303601f19018152919052979650505050505050565b60007f01ffc9a7000000000000000000000000000000000000000000000000000000006001600160e01b03198316148061073c57507f80ac58cd000000000000000000000000000000000000000000000000000000006001600160e01b03198316145b8061077057507f5b5e139f000000000000000000000000000000000000000000000000000000006001600160e01b03198316145b92915050565b60606003805461078590613be2565b80601f01602080910402602001604051908101604052809291908181526020018280546107b190613be2565b80156107fe5780601f106107d3576101008083540402835291602001916107fe565b820191906000526020600020905b8154815290600101906020018083116107e157829003601f168201915b5050505050905090565b600061081382611b20565b610849576040517fcf4700e400000000000000000000000000000000000000000000000000000000815260040160405180910390fd5b506000908152600760205260409020546001600160a01b031690565b600061087082611222565b9050336001600160a01b038216146108c25761088c813361192d565b6108c2576040517fcfb3b94200000000000000000000000000000000000000000000000000000000815260040160405180910390fd5b600082815260076020526040808220805473ffffffffffffffffffffffffffffffffffffffff19166001600160a01b0387811691821790925591518593918516917f8c5be1e5ebec7d5bd14f71427d1e84f3dd0314c0f7b2291e5b200ac8c7c3b92591a4505050565b600061093682611b48565b9050836001600160a01b0316816001600160a01b031614610983576040517fa114810000000000000000000000000000000000000000000000000000000000815260040160405180910390fd5b60008281526007602052604090208054338082146001600160a01b038816909114176109e9576109b3863361192d565b6109e9576040517f59c896be00000000000000000000000000000000000000000000000000000000815260040160405180910390fd5b6001600160a01b038516610a29576040517fea553b3400000000000000000000000000000000000000000000000000000000815260040160405180910390fd5b8015610a3457600082555b6001600160a01b038681166000908152600660205260408082208054600019019055918716808252919020805460010190554260a01b17600160e11b17600085815260056020526040902055600160e11b8316610abf5760018401600081815260056020526040902054610abd576001548114610abd5760008181526005602052604090208490555b505b83856001600160a01b0316876001600160a01b03167fddf252ad1be2c89b69c2b068fc378daa952ba7f163c4a11628f55a4df523b3ef60405160405180910390a45b505050505050565b6000610b1482611b20565b610b8b5760405162461bcd60e51b815260206004820152602d60248201527f437573746f6d546f6b656e2e617373657449644f66546f6b656e3a206e6f6e6560448201527f78697374656e7420746f6b656e0000000000000000000000000000000000000060648201526084015b60405180910390fd5b60096000610b9a600485613b6c565b8152602001908152602001600020549050919050565b6000610bbb60015490565b60408051808201909152600d81527f4472617720596f7572204f776e00000000000000000000000000000000000000602082015286529050610bfc81611bc2565b604051602001610c0c9190613493565b60408051601f1981840301815291815286810191909152517f5b7eea860000000000000000000000000000000000000000000000000000000081526000906001600160a01b037f00000000000000000000000000000000000000000000000000000000000000001690635b7eea8690610c8990899060040161393c565b602060405180830381600087803b158015610ca357600080fd5b505af1158015610cb7573d6000803e3d6000fd5b505050506040513d601f19601f82011682018060405250810190610cdb9190612d71565b905080600a6000610ced600486613b6c565b81526020810191909152604001600020558351158015610d0c57508251155b15610d4c57610d1c816002613b80565b610d27906001613b54565b60096000610d36600486613b6c565b8152602081019190915260400160002055611159565b83518351600090610d5e836001613b54565b610d689190613b54565b67ffffffffffffffff811115610d8057610d80613c8e565b604051908082528060200260200182016040528015610ddc57816020015b610dc96040518060800160405280600081526020016060815260200160608152602001606081525090565b815260200190600190039081610d9e5790505b50905060005b8651811015610f92576000878281518110610dff57610dff613c78565b602002602001015190506000610e188260000151610b09565b9050610e25600282613c38565b610eb457610e34600282613b6c565b84600081518110610e4757610e47613c78565b602002602001015160000181815250506040518060400160405280600481526020017f636f6d700000000000000000000000000000000000000000000000000000000081525084600081518110610ea057610ea0613c78565b602002602001015160200181905250610f2f565b6001610ec1600283613b6c565b610ecb9190613b9f565b84600081518110610ede57610ede613c78565b6020026020010151600001818152505060405180604001604052806005815260200164185cdcd95d60da1b81525084600081518110610f1f57610f1f613c78565b6020026020010151602001819052505b816020015184600081518110610f4757610f47613c78565b602002602001015160400181905250816040015184600081518110610f6e57610f6e613c78565b60200260200101516060018190525050508080610f8a90613c1d565b915050610de2565b610f9d600185613b9f565b828481518110610faf57610faf613c78565b6020026020010151600001818152505060405180604001604052806005815260200164185cdcd95d60da1b815250828481518110610fef57610fef613c78565b602002602001015160200181905250600090505b855181101561106d5785818151811061101e5761101e613c78565b602002602001015182828560016110359190613b54565b61103f9190613b54565b8151811061104f5761104f613c78565b6020026020010181905250808061106590613c1d565b915050611003565b6040517f434ebc550000000000000000000000000000000000000000000000000000000081526000906001600160a01b037f0000000000000000000000000000000000000000000000000000000000000000169063434ebc55906110d590869060040161384f565b602060405180830381600087803b1580156110ef57600080fd5b505af1158015611103573d6000803e3d6000fd5b505050506040513d601f19601f820116820180604052508101906111279190612d71565b9050611134816002613b80565b6009600061114360048a613b6c565b8152602081019190915260400160002055505050505b61116e3361116960016004613b9f565b611cfc565b600085118015611182575061118285611e0c565b801561119f57503361119386611222565b6001600160a01b031614155b156111bc576111b76111b086611222565b6001611cfc565b610b01565b60046111c88184613b6c565b6111d29190613c38565b6111ed57600c546111b7906001600160a01b03166001611cfc565b610b016111b06000546001600160a01b031690565b61121d838383604051806020016040528060008152506114b8565b505050565b600061077082611b48565b60006001600160a01b03821661126f576040517f8f4eb60400000000000000000000000000000000000000000000000000000000815260040160405180910390fd5b506001600160a01b031660009081526006602052604090205467ffffffffffffffff1690565b6000546001600160a01b031633146112ef5760405162461bcd60e51b815260206004820181905260248201527f4f776e61626c653a2063616c6c6572206973206e6f7420746865206f776e65726044820152606401610b82565b6112f96000611e20565b565b600b805461130890613be2565b80601f016020809104026020016040519081016040528092919081815260200182805461133490613be2565b80156113815780601f1061135657610100808354040283529160200191611381565b820191906000526020600020905b81548152906001019060200180831161136457829003601f168201915b505050505081565b6000546001600160a01b031633146113e35760405162461bcd60e51b815260206004820181905260248201527f4f776e61626c653a2063616c6c6572206973206e6f7420746865206f776e65726044820152606401610b82565b80516113f690600b906020840190612347565b5050565b60606004805461078590613be2565b6001600160a01b03821633141561144c576040517fb06307db00000000000000000000000000000000000000000000000000000000815260040160405180910390fd5b3360008181526008602090815260408083206001600160a01b03871680855290835292819020805460ff191686151590811790915590519081529192917f17307eab39ab6107e8899845ad3d59bd9653f200f220920489ca2b5937696c31910160405180910390a35050565b6114c384848461092b565b6001600160a01b0383163b156114fc576114df84848484611e7d565b6114fc576040516368d2bf6b60e11b815260040160405180910390fd5b50505050565b606061150d82611b20565b61157f5760405162461bcd60e51b815260206004820152602760248201527f437573746f6d546f6b656e2e746f6b656e5552493a206e6f6e6578697374656e60448201527f7420746f6b656e000000000000000000000000000000000000000000000000006064820152608401610b82565b60008061158b846116e3565b909250905060006115a7836115a1600488613c38565b8461047f565b90506000600a816115b9600489613b6c565b815260200190815260200160002054905060007f00000000000000000000000000000000000000000000000000000000000000006001600160a01b0316634378a6e3836040518263ffffffff1660e01b815260040161161a91815260200190565b60006040518083038186803b15801561163257600080fd5b505afa158015611646573d6000803e3d6000fd5b505050506040513d6000823e601f3d908101601f1916820160405261166e9190810190612a85565b90506116b861167c88611bc2565b600b6116888a85611f74565b611691876121aa565b6040516020016116a494939291906134d8565b6040516020818303038152906040526121aa565b6040516020016116c89190613684565b60405160208183030381529060405295505050505050919050565b60608060006116f184610b09565b90506116fe600282613c38565b6117b8576001600160a01b037f00000000000000000000000000000000000000000000000000000000000000001663e3f24f0261173c600284613b6c565b6040518263ffffffff1660e01b815260040161175a91815260200190565b60006040518083038186803b15801561177257600080fd5b505afa158015611786573d6000803e3d6000fd5b505050506040513d6000823e601f3d908101601f191682016040526117ae91908101906129b4565b9250925050915091565b60006001600160a01b037f000000000000000000000000000000000000000000000000000000000000000016634378a6e36117f4600285613b6c565b6040518263ffffffff1660e01b815260040161181291815260200190565b60006040518083038186803b15801561182a57600080fd5b505afa15801561183e573d6000803e3d6000fd5b505050506040513d6000823e601f3d908101601f191682016040526118669190810190612a85565b905060006001600160a01b037f0000000000000000000000000000000000000000000000000000000000000000166334320bf16118a4600286613b6c565b84606001516040518363ffffffff1660e01b81526004016118c6929190613a08565b60006040518083038186803b1580156118de57600080fd5b505afa1580156118f2573d6000803e3d6000fd5b505050506040513d6000823e601f3d908101601f1916820160405261191a919081019061294a565b6060909201519196919550909350505050565b6040517fc45527910000000000000000000000000000000000000000000000000000000081526001600160a01b038381166004830152600091818416917f0000000000000000000000000000000000000000000000000000000000000000169063c45527919060240160206040518083038186803b1580156119ae57600080fd5b505afa1580156119c2573d6000803e3d6000fd5b505050506040513d601f19601f820116820180604052508101906119e691906127ae565b6001600160a01b031614156119fd57506001610770565b6001600160a01b0380841660009081526008602090815260408083209386168352929052205460ff165b9392505050565b6000611a3960015490565b905090565b6000546001600160a01b03163314611a985760405162461bcd60e51b815260206004820181905260248201527f4f776e61626c653a2063616c6c6572206973206e6f7420746865206f776e65726044820152606401610b82565b6001600160a01b038116611b145760405162461bcd60e51b815260206004820152602660248201527f4f776e61626c653a206e6577206f776e657220697320746865207a65726f206160448201527f64647265737300000000000000000000000000000000000000000000000000006064820152608401610b82565b611b1d81611e20565b50565b600060015482108015610770575050600090815260056020526040902054600160e01b161590565b600081600154811015611b9057600081815260056020526040902054600160e01b8116611b8e575b80611a27575060001901600081815260056020526040902054611b70565b505b6040517fdf2d9b4200000000000000000000000000000000000000000000000000000000815260040160405180910390fd5b606081611c0257505060408051808201909152600181527f3000000000000000000000000000000000000000000000000000000000000000602082015290565b8160005b8115611c2c5780611c1681613c1d565b9150611c259050600a83613b6c565b9150611c06565b60008167ffffffffffffffff811115611c4757611c47613c8e565b6040519080825280601f01601f191660200182016040528015611c71576020820181803683370190505b5090505b8415611cf457611c86600183613b9f565b9150611c93600a86613c38565b611c9e906030613b54565b60f81b818381518110611cb357611cb3613c78565b60200101907effffffffffffffffffffffffffffffffffffffffffffffffffffffffffffff1916908160001a905350611ced600a86613b6c565b9450611c75565b949350505050565b6001546001600160a01b038316611d3f576040517f2e07630000000000000000000000000000000000000000000000000000000000815260040160405180910390fd5b81611d76576040517fb562e8dd00000000000000000000000000000000000000000000000000000000815260040160405180910390fd5b6001600160a01b038316600081815260066020526040902080546801000000000000000185020190554260a01b6001841460e11b1717600082815260056020526040902055808281015b6040516001830192906001600160a01b038716906000907fddf252ad1be2c89b69c2b068fc378daa952ba7f163c4a11628f55a4df523b3ef908290a4808210611dc05760015550505050565b6000611e19600483613c38565b1592915050565b600080546001600160a01b0383811673ffffffffffffffffffffffffffffffffffffffff19831681178455604051919092169283917f8be0079c531659141344cd1fd0a4f28419497f9722a3daafe3b4186f6b6457e09190a35050565b604051630a85bd0160e11b81526000906001600160a01b0385169063150b7a0290611eb2903390899088908890600401613813565b602060405180830381600087803b158015611ecc57600080fd5b505af1925050508015611efc575060408051601f3d908101601f19168201909252611ef99181019061292d565b60015b611f57573d808015611f2a576040519150601f19603f3d011682016040523d82523d6000602084013e611f2f565b606091505b508051611f4f576040516368d2bf6b60e11b815260040160405180910390fd5b805181602001fd5b6001600160e01b031916630a85bd0160e11b149050949350505050565b60606000611f8184611e0c565b611fc0576040518060400160405280600281526020017f4e6f000000000000000000000000000000000000000000000000000000000000815250611ff7565b6040518060400160405280600381526020017f59657300000000000000000000000000000000000000000000000000000000008152505b83516020808601516040808801519051612013959493016136c9565b60405160208183030381529060405290508060008460800151511161206d576040518060400160405280600b81526020017f28616e6f6e796d6f757329000000000000000000000000000000000000000000815250612181565b7f00000000000000000000000000000000000000000000000000000000000000006001600160a01b031663a57cfb246040518163ffffffff1660e01b815260040160206040518083038186803b1580156120c657600080fd5b505afa1580156120da573d6000803e3d6000fd5b505050506040513d601f19601f820116820180604052508101906120fe91906127ae565b6001600160a01b031663841b9d9785608001516040518263ffffffff1660e01b815260040161212d91906138fb565b60006040518083038186803b15801561214557600080fd5b505afa158015612159573d6000803e3d6000fd5b505050506040513d6000823e601f3d908101601f19168201604052612181919081019061294a565b6040516020016121929291906131ed565b60408051808303601f19018152919052949350505050565b60608151600014156121ca57505060408051602081019091526000815290565b6000604051806060016040528060408152602001613cd060409139905060006003845160026121f99190613b54565b6122039190613b6c565b61220e906004613b80565b9050600061221d826020613b54565b67ffffffffffffffff81111561223557612235613c8e565b6040519080825280601f01601f19166020018201604052801561225f576020820181803683370190505b509050818152600183018586518101602084015b818310156122cb576003830192508251603f8160121c168501518253600182019150603f81600c1c168501518253600182019150603f8160061c168501518253600182019150603f8116850151825350600101612273565b6003895106600181146122e5576002811461231157612339565b7f3d3d000000000000000000000000000000000000000000000000000000000000600119830152612339565b7f3d000000000000000000000000000000000000000000000000000000000000006000198301525b509398975050505050505050565b82805461235390613be2565b90600052602060002090601f01602090048101928261237557600085556123bb565b82601f1061238e57805160ff19168380011785556123bb565b828001600101855582156123bb579182015b828111156123bb5782518255916020019190600101906123a0565b506123c79291506123cb565b5090565b5b808211156123c757600081556001016123cc565b80356123eb81613ca4565b919050565b80516123eb81613ca4565b600082601f83011261240c57600080fd5b8135602061242161241c83613b08565b613ad7565b80838252828201915082860187848660051b890101111561244157600080fd5b60005b8581101561251257813567ffffffffffffffff8082111561246457600080fd5b908901906080828c03601f190181131561247d57600080fd5b612485613a21565b8884013581526040808501358481111561249e57600080fd5b6124ac8f8c838901016126e9565b8b840152506060850135848111156124c357600080fd5b6124d18f8c838901016126e9565b828401525050818401359150828211156124ea57600080fd5b6124f88d8a848701016126e9565b606082015287525050509284019290840190600101612444565b5090979650505050505050565b600082601f83011261253057600080fd5b8135602061254061241c83613b08565b80838252828201915082860187848660051b890101111561256057600080fd5b60005b8581101561251257813567ffffffffffffffff8082111561258357600080fd5b908901906040828c03601f190181131561259c57600080fd5b6125a4613a4a565b88840135838111156125b557600080fd5b6125c38e8b838801016126e9565b8252509083013590828211156125d857600080fd5b6125e68d8a848701016126e9565b818a015287525050509284019290840190600101612563565b600082601f83011261261057600080fd5b8135602061262061241c83613b08565b80838252828201915082860187848660051b890101111561264057600080fd5b60005b8581101561251257813567ffffffffffffffff8082111561266357600080fd5b908901906060828c03601f190181131561267c57600080fd5b612684613a6d565b8884013581526040808501358481111561269d57600080fd5b6126ab8f8c838901016126e9565b838c0152509184013591838311156126c257600080fd5b6126d08e8b858801016126e9565b9082015287525050509284019290840190600101612643565b600082601f8301126126fa57600080fd5b813561270861241c82613b2c565b81815284602083860101111561271d57600080fd5b816020850160208301376000918101602001919091529392505050565b600082601f83011261274b57600080fd5b815161275961241c82613b2c565b81815284602083860101111561276e57600080fd5b611cf4826020830160208701613bb6565b805161ffff811681146123eb57600080fd5b6000602082840312156127a357600080fd5b8135611a2781613ca4565b6000602082840312156127c057600080fd5b8151611a2781613ca4565b600080604083850312156127de57600080fd5b82356127e981613ca4565b915060208301356127f981613ca4565b809150509250929050565b60008060006060848603121561281957600080fd5b833561282481613ca4565b9250602084013561283481613ca4565b929592945050506040919091013590565b6000806000806080858703121561285b57600080fd5b843561286681613ca4565b9350602085013561287681613ca4565b925060408501359150606085013567ffffffffffffffff81111561289957600080fd5b6128a5878288016126e9565b91505092959194509250565b600080604083850312156128c457600080fd5b82356128cf81613ca4565b9150602083013580151581146127f957600080fd5b600080604083850312156128f757600080fd5b823561290281613ca4565b946020939093013593505050565b60006020828403121561292257600080fd5b8135611a2781613cb9565b60006020828403121561293f57600080fd5b8151611a2781613cb9565b60006020828403121561295c57600080fd5b815167ffffffffffffffff81111561297357600080fd5b611cf48482850161273a565b60006020828403121561299157600080fd5b813567ffffffffffffffff8111156129a857600080fd5b611cf4848285016126e9565b600080604083850312156129c757600080fd5b825167ffffffffffffffff808211156129df57600080fd5b6129eb8683870161273a565b93506020850151915080821115612a0157600080fd5b50612a0e8582860161273a565b9150509250929050565b600080600060608486031215612a2d57600080fd5b833567ffffffffffffffff80821115612a4557600080fd5b612a51878388016126e9565b9450602086013593506040860135915080821115612a6e57600080fd5b50612a7b868287016126e9565b9150509250925092565b600060208284031215612a9757600080fd5b815167ffffffffffffffff80821115612aaf57600080fd5b908301906101208286031215612ac457600080fd5b612acc613a90565b825182811115612adb57600080fd5b612ae78782860161273a565b825250602083015182811115612afc57600080fd5b612b088782860161273a565b602083015250604083015182811115612b2057600080fd5b612b2c8782860161273a565b604083015250606083015182811115612b4457600080fd5b612b508782860161273a565b606083015250608083015182811115612b6857600080fd5b612b748782860161273a565b608083015250612b8660a084016123f0565b60a082015260c083015182811115612b9d57600080fd5b612ba98782860161273a565b60c083015250612bbb60e0840161277f565b60e08201526101009150612bd082840161277f565b91810191909152949350505050565b60008060008060808587031215612bf557600080fd5b843567ffffffffffffffff80821115612c0d57600080fd5b9086019060e08289031215612c2157600080fd5b612c29613ab4565b823582811115612c3857600080fd5b612c448a8286016126e9565b825250602083013582811115612c5957600080fd5b612c658a8286016126e9565b602083015250604083013582811115612c7d57600080fd5b612c898a8286016126e9565b604083015250606083013582811115612ca157600080fd5b612cad8a8286016126e9565b606083015250612cbf608084016123e0565b608082015260a083013582811115612cd657600080fd5b612ce28a8286016126e9565b60a08301525060c083013582811115612cfa57600080fd5b612d068a82860161251f565b60c0830152509550602087013594506040870135915080821115612d2957600080fd5b612d35888389016125ff565b93506060870135915080821115612d4b57600080fd5b506128a5878288016123fb565b600060208284031215612d6a57600080fd5b5035919050565b600060208284031215612d8357600080fd5b5051919050565b600081518084526020808501808196508360051b8101915082860160005b85811015612df8578284038952815160408151818752612dca82880182612e05565b91505086820151915085810387870152612de48183612e05565b9a87019a9550505090840190600101612da8565b5091979650505050505050565b60008151808452612e1d816020860160208601613bb6565b601f01601f19169290920160200192915050565b60008151612e43818560208601613bb6565b9290920192915050565b60008351612e5f818460208801613bb6565b7f203c75736520687265663d2223000000000000000000000000000000000000009083019081528351612e9981600d840160208801613bb6565b641110179f0560d91b600d9290910191820152601201949350505050565b60008251612ec9818460208701613bb6565b7f3c2f646566733e0a000000000000000000000000000000000000000000000000920191825250600801919050565b60008251612f0a818460208701613bb6565b7f3c2f7376673e0a00000000000000000000000000000000000000000000000000920191825250600701919050565b60008251612f4b818460208701613bb6565b7f3c6c696e6561724772616469656e742069643d22676f6c64222078313d22302e9201918252507f32222078323d2230222079313d2230222079323d2231223e0a20203c73746f7060208201527f206f66667365743d223025222073746f702d636f6c6f723d222343434142303960408201527f222f3e0a203c73746f70206f66667365743d22353025222073746f702d636f6c60608201527f6f723d222346464631383622202f3e0a203c73746f70206f66667365743d223160808201527f303025222073746f702d636f6c6f723d2223434341423039222f3e0a3c2f6c6960a08201527f6e6561724772616469656e743e0a00000000000000000000000000000000000060c082015260ce01919050565b60008251613070818460208701613bb6565b7f3c6c696e6561724772616469656e742069643d2273696c766572222078313d229201918252507f302e32222078323d2230222079313d2230222079323d2231223e0a20203c737460208201527f6f70206f66667365743d223025222073746f702d636f6c6f723d22233830383060408201527f3746222f3e0a203c73746f70206f66667365743d22353025222073746f702d6360608201527f6f6c6f723d222345454630463222202f3e0a203c73746f70206f66667365743d60808201527f2231303025222073746f702d636f6c6f723d2223383038303746222f3e0a3c2f60a08201527f6c696e6561724772616469656e743e0a0000000000000000000000000000000060c082015260d001919050565b60008351613195818460208801613bb6565b7f203c7573652066696c7465723d2275726c28236631292220687265663d22230090830190815283516131cf81601f840160208801613bb6565b641110179f0560d91b601f9290910191820152602401949350505050565b600083516131ff818460208801613bb6565b80830190507f7d2c7b2274726169745f74797065223a224d696e746572222c2276616c7565228152611d1160f11b60208201528351613245816022840160208801613bb6565b61227d60f01b60229290910191820152602401949350505050565b60008351613272818460208801613bb6565b80830190507f203c7265637420783d22302220793d2230222077696474683d2231303025222081527f6865696768743d2231303025222066696c6c3d22000000000000000000000000602082015283516132d3816034840160208801613bb6565b641110179f0560d91b60349290910191820152603901949350505050565b60008251613303818460208701613bb6565b7f203c66696c7465722069643d2266312220783d22302220793d223022207769649201918252507f74683d223230302522206865696768743d2232303025223e0a20203c66654f6660208201527f6673657420726573756c743d226f66664f75742220696e3d22536f757263654160408201527f6c706861222064783d223234222064793d22333222202f3e0a20203c6665476160608201527f75737369616e426c757220726573756c743d22626c75724f75742220696e3d2260808201527f6f66664f75742220737464446576696174696f6e3d22313622202f3e0a20203c60a08201527f6665426c656e6420696e3d22536f75726365477261706869632220696e323d2260c08201527f626c75724f757422206d6f64653d226e6f726d616c22202f3e0a203c2f66696c60e08201527f7465723e0a00000000000000000000000000000000000000000000000000000061010082015261010501919050565b60008351613476818460208801613bb6565b83519083019061348a818360208801613bb6565b01949350505050565b7f44726177696e67200000000000000000000000000000000000000000000000008152600082516134cb816008850160208701613bb6565b9190910160080192915050565b7f7b226e616d65223a2244726177696e672000000000000000000000000000000081526000855160206135118260118601838b01613bb6565b7f222c226465736372697074696f6e223a220000000000000000000000000000006011928501928301528654602290600090600181811c908083168061355857607f831692505b86831081141561357557634e487b7160e01b855285600452602485fd5b808015613589576001811461359e576135cf565b60ff19851689880152838901870195506135cf565b60008e81526020902060005b858110156135c55781548b82018a01529084019089016135aa565b505086848a010195505b505050505061367661366861366261361361360d857f222c2261747472696275746573223a5b00000000000000000000000000000000815260100190565b8c612e31565b7f5d2c22696d616765223a22646174613a696d6167652f7376672b786d6c3b626181527f736536342c000000000000000000000000000000000000000000000000000000602082015260250190565b89612e31565b61227d60f01b815260020190565b9a9950505050505050505050565b7f646174613a6170706c69636174696f6e2f6a736f6e3b6261736536342c0000008152600082516136bc81601d850160208701613bb6565b91909101601d0192915050565b7f7b2274726169745f74797065223a225072696d617279222c2276616c7565223a81526000601160f91b806020840152865161370c816021860160208b01613bb6565b7f227d2c7b2274726169745f74797065223a2247726f7570222c2276616c756522602191850191820152611d1160f11b60418201528651613754816043840160208b01613bb6565b7f227d2c7b2274726169745f74797065223a2243617465676f7279222c2276616c604392909101918201527f7565223a22000000000000000000000000000000000000000000000000000000606382015285516137b8816068840160208a01613bb6565b8082019150507f227d2c7b2274726169745f74797065223a224e616d65222c2276616c7565223a60688201528160888201526138076137fa6089830187612e31565b601160f91b815260010190565b98975050505050505050565b60006001600160a01b038087168352808616602084015250836040830152608060608301526138456080830184612e05565b9695505050505050565b60006020808301818452808551808352604092508286019150828160051b87010184880160005b838110156138ed57603f19898403018552815160808151855288820151818a8701526138a482870182612e05565b91505087820151858203898701526138bc8282612e05565b915050606080830151925085820381870152506138d98183612e05565b968901969450505090860190600101613876565b509098975050505050505050565b602081526000611a276020830184612e05565b6040815260006139216040830185612e05565b82810360208401526139338185612e05565b95945050505050565b602081526000825160e06020840152613959610100840182612e05565b90506020840151601f19808584030160408601526139778383612e05565b925060408601519150808584030160608601526139948383612e05565b925060608601519150808584030160808601526139b18383612e05565b9250608086015191506139cf60a08601836001600160a01b03169052565b60a08601519150808584030160c08601526139ea8383612e05565b925060c08601519150808584030160e0860152506139338282612d8a565b828152604060208201526000611cf46040830184612e05565b6040516080810167ffffffffffffffff81118282101715613a4457613a44613c8e565b60405290565b6040805190810167ffffffffffffffff81118282101715613a4457613a44613c8e565b6040516060810167ffffffffffffffff81118282101715613a4457613a44613c8e565b604051610120810167ffffffffffffffff81118282101715613a4457613a44613c8e565b60405160e0810167ffffffffffffffff81118282101715613a4457613a44613c8e565b604051601f8201601f1916810167ffffffffffffffff81118282101715613b0057613b00613c8e565b604052919050565b600067ffffffffffffffff821115613b2257613b22613c8e565b5060051b60200190565b600067ffffffffffffffff821115613b4657613b46613c8e565b50601f01601f191660200190565b60008219821115613b6757613b67613c4c565b500190565b600082613b7b57613b7b613c62565b500490565b6000816000190483118215151615613b9a57613b9a613c4c565b500290565b600082821015613bb157613bb1613c4c565b500390565b60005b83811015613bd1578181015183820152602001613bb9565b838111156114fc5750506000910152565b600181811c90821680613bf657607f821691505b60208210811415613c1757634e487b7160e01b600052602260045260246000fd5b50919050565b6000600019821415613c3157613c31613c4c565b5060010190565b600082613c4757613c47613c62565b500690565b634e487b7160e01b600052601160045260246000fd5b634e487b7160e01b600052601260045260246000fd5b634e487b7160e01b600052603260045260246000fd5b634e487b7160e01b600052604160045260246000fd5b6001600160a01b0381168114611b1d57600080fd5b6001600160e01b031981168114611b1d57600080fdfe4142434445464748494a4b4c4d4e4f505152535455565758595a6162636465666768696a6b6c6d6e6f707172737475767778797a303132333435363738392b2f3c7376672076696577426f783d2230203020313032342031303234222020786d6c6e733d22687474703a2f2f7777772e77332e6f72672f323030302f737667223e0a3c646566733e0aa26469706673582212209fe6cbd4a0f0e44c586211490968878c04c2406cc6dcf625ddc67f9d87fe4c2b64736f6c6343000806003360a06040523480156200001157600080fd5b506040516200213e3803806200213e8339810160408190526200003491620000ce565b606081901b6001600160601b0319166080528062000052336200007c565b5050600354600480546001600160a01b0319166001600160a01b0390921691909117905562000100565b600380546001600160a01b038381166001600160a01b0319831681179093556040519116919082907f8be0079c531659141344cd1fd0a4f28419497f9722a3daafe3b4186f6b6457e090600090a35050565b600060208284031215620000e157600080fd5b81516001600160a01b0381168114620000f957600080fd5b9392505050565b60805160601c61201862000126600039600081816101cc01526108d501526120186000f3fe608060405234801561001057600080fd5b50600436106101365760003560e01c8063715018a6116100b25780638da5cb5b11610081578063ea575c6111610066578063ea575c6114610308578063f2fde38b14610311578063f851a4401461032457600080fd5b80638da5cb5b146102d6578063e3f24f02146102e757600080fd5b8063715018a61461023957806374c8326814610241578063893d20e8146102495780638c40188e1461025157600080fd5b8063434ebc5511610109578063597a0e36116100ee578063597a0e36146101c75780635c42d07914610206578063704b6c021461022657600080fd5b8063434ebc55146101a15780634854078f146101b457600080fd5b806301ffc9a71461013b5780630e2600161461016357806315ea29be1461018457806318160ddd14610199575b600080fd5b61014e610149366004611851565b610337565b60405190151581526020015b60405180910390f35b6101766101713660046116aa565b610408565b60405190815260200161015a565b6101976101923660046119eb565b61081b565b005b600654610176565b6101766101af3660046116e4565b6108d0565b6101766101c236600461187b565b610c7f565b6101ee7f000000000000000000000000000000000000000000000000000000000000000081565b6040516001600160a01b03909116815260200161015a565b6102196102143660046119d2565b610cf8565b60405161015a9190611d9e565b6101976102343660046116aa565b610db6565b610197610e3f565b600054610176565b6101ee610ea5565b61021960408051606080820183528082526020820152600091810191909152506040805160a081018252600460608201908152630636f6d760e41b6080830152815281518083018352600e81527f417373657420436f6d706f736572000000000000000000000000000000000000602082810191909152820152309181019190915290565b6003546001600160a01b03166101ee565b6102fa6102f53660046119d2565b610ebe565b60405161015a929190611d70565b61017660065481565b61019761031f3660046116aa565b6112fb565b6004546101ee906001600160a01b031681565b60006001600160e01b031982167f6ef8e58800000000000000000000000000000000000000000000000000000000148061039a57506001600160e01b031982167fa0bcf35700000000000000000000000000000000000000000000000000000000145b806103ce57506001600160e01b031982167ffe997ab900000000000000000000000000000000000000000000000000000000145b8061040257506001600160e01b031982167f01ffc9a700000000000000000000000000000000000000000000000000000000145b92915050565b600080826001600160a01b0316638c40188e6040518163ffffffff1660e01b815260040160006040518083038186803b15801561044457600080fd5b505afa158015610458573d6000803e3d6000fd5b505050506040513d6000823e601f3d908101601f191682016040526104809190810190611914565b9050600181600001516040516104969190611caa565b9081526020016040518091039020549150816000146106cc57816104b981611eec565b6000818152600260209081526040918290205482517f893d20e800000000000000000000000000000000000000000000000000000000815292519396506001600160a01b03169350839263893d20e8926004808201939291829003018186803b15801561052557600080fd5b505afa158015610539573d6000803e3d6000fd5b505050506040513d601f19601f8201168201806040525081019061055d91906116c7565b6001600160a01b0316846001600160a01b031663893d20e86040518163ffffffff1660e01b815260040160206040518083038186803b15801561059f57600080fd5b505afa1580156105b3573d6000803e3d6000fd5b505050506040513d601f19601f820116820180604052508101906105d791906116c7565b6001600160a01b0316146106585760405162461bcd60e51b815260206004820152603260248201527f4173736574436f6d706f7365723a726567697374657250726f76696465722c2060448201527f616c72656164792072656769737465726564000000000000000000000000000060648201526084015b60405180910390fd5b600083815260026020908152604091829020805473ffffffffffffffffffffffffffffffffffffffff19166001600160a01b03881617905581513381529081018590527f4141f33bf490d9190a43ac8dc2fd923fdd3a01d78b82d1fa85f803a91f4bf4ae910160405180910390a150610815565b80604001516001600160a01b0316836001600160a01b0316146107575760405162461bcd60e51b815260206004820152603060248201527f4173736574436f6d706f7365723a726567697374657250726f76696465722c2060448201527f61646472657373206d69736d6174636800000000000000000000000000000000606482015260840161064f565b600080548491600291818061076b83611f38565b91905055815260200190815260200160002060006101000a8154816001600160a01b0302191690836001600160a01b03160217905550600054600182600001516040516107b89190611caa565b908152604051908190036020019020556000546107d790600190611ea5565b60408051338152602081018390529193507f90c9734131c1e4fb36cde2d71e6feb93fb258f71be8a85411c173d25e1516e8091015b60405180910390a15b50919050565b6003546001600160a01b031633148061083e57506004546001600160a01b031633145b6108b05760405162461bcd60e51b815260206004820152602660248201527f4173736574436f6d706f7365723a2063616c6c6572206973206e6f742074686560448201527f2061646d696e0000000000000000000000000000000000000000000000000000606482015260840161064f565b600091825260056020526040909120805460ff1916911515919091179055565b6000807f00000000000000000000000000000000000000000000000000000000000000006001600160a01b031663a57cfb246040518163ffffffff1660e01b815260040160206040518083038186803b15801561092c57600080fd5b505afa158015610940573d6000803e3d6000fd5b505050506040513d601f19601f8201168201806040525081019061096491906116c7565b60068054919250600061097683611f38565b9091555083516000828152600760205260408120919091559092505b8351811015610c485760008482815181106109af576109af611f93565b6020026020010151905060008160000151905060006109d18360200151610c7f565b6040805180820182526fffffffffffffffffffffffffffffffff8084168252858116602080840191825260008c8152600882528581208b825290915293909320915192518116700100000000000000000000000000000000029216919091179055606084015180519192509015610b335760405163c16e50ef60e01b81526001600160a01b0387169063c16e50ef90610a6e908490600401611d5d565b60206040518083038186803b158015610a8657600080fd5b505afa158015610a9a573d6000803e3d6000fd5b505050506040513d601f19601f82011682018060405250810190610abe9190611834565b610b0a5760405162461bcd60e51b815260206004820152601b60248201527f72656769737465723a20496e76616c6964207472616e73666f726d0000000000604482015260640161064f565b600087815260096020908152604080832088845282529091208251610b3192840190611576565b505b6040840151805115610c305760405163c16e50ef60e01b81526001600160a01b0388169063c16e50ef90610b6b908490600401611d5d565b60206040518083038186803b158015610b8357600080fd5b505afa158015610b97573d6000803e3d6000fd5b505050506040513d601f19601f82011682018060405250810190610bbb9190611834565b610c075760405162461bcd60e51b815260206004820152601660248201527f72656769737465723a20496e76616c69642066696c6c00000000000000000000604482015260640161064f565b6000888152600a6020908152604080832089845282529091208251610c2e92840190611576565b505b50505050508080610c4090611f38565b915050610992565b5060408051338152602081018490527fb6b49fb493aab716d37ffe3ad9f192adb9d7c116b0ca7423db8d0e56a1dc93b2910161080c565b600080600183604051610c929190611caa565b90815260200160405180910390205490506000811183604051602001610cb89190611cc6565b60405160208183030381529060405290610ce55760405162461bcd60e51b815260040161064f9190611d5d565b50610cf1600182611ea5565b9392505050565b604080516060808201835280825260208201526000918101919091526000828152600260205260408082205481517f8c40188e00000000000000000000000000000000000000000000000000000000815291516001600160a01b03909116928392638c40188e9260048083019392829003018186803b158015610d7a57600080fd5b505afa158015610d8e573d6000803e3d6000fd5b505050506040513d6000823e601f3d908101601f19168201604052610cf19190810190611914565b6003546001600160a01b03163314610e105760405162461bcd60e51b815260206004820181905260248201527f4f776e61626c653a2063616c6c6572206973206e6f7420746865206f776e6572604482015260640161064f565b6004805473ffffffffffffffffffffffffffffffffffffffff19166001600160a01b0392909216919091179055565b6003546001600160a01b03163314610e995760405162461bcd60e51b815260206004820181905260248201527f4f776e61626c653a2063616c6c6572206973206e6f7420746865206f776e6572604482015260640161064f565b610ea360006113dd565b565b6000610eb96003546001600160a01b031690565b905090565b6000818152600560205260409020546060908190839060ff16151560011415610f4f5760405162461bcd60e51b815260206004820152602a60248201527f4173736574436f6d706f7365723a207468697320636f6d706f736974696f6e2060448201527f697320646961626c656400000000000000000000000000000000000000000000606482015260840161064f565b600084815260076020526040812054906060908190819081905b8581101561129d5760008a815260086020908152604080832084845282528083208151808301909252546fffffffffffffffffffffffffffffffff80821680845270010000000000000000000000000000000090920416928201929092529190610fd290610cf8565b905080604001516001600160a01b031663e3f24f0283602001516fffffffffffffffffffffffffffffffff166040518263ffffffff1660e01b815260040161101c91815260200190565b60006040518083038186803b15801561103457600080fd5b505afa158015611048573d6000803e3d6000fd5b505050506040513d6000823e601f3d908101601f1916820160405261107091908101906118b0565b60405191965094506110889088908790602001611a47565b604051602081830303815290604052965085846040516020016110ac929190611a76565b60408051601f1981840301815291815260008e8152600960209081528282208783529052908120805492985090916110e390611f03565b80601f016020809104026020016040519081016040528092919081815260200182805461110f90611f03565b801561115c5780601f106111315761010080835404028352916020019161115c565b820191906000526020600020905b81548152906001019060200180831161113f57829003601f168201915b50505050509050600081511115611192578681604051602001611180929190611c44565b60405160208183030381529060405296505b60008d8152600a60209081526040808320878452909152902080546111b690611f03565b80601f01602080910402602001604051908101604052809291908181526020018280546111e290611f03565b801561122f5780601f106112045761010080835404028352916020019161122f565b820191906000526020600020905b81548152906001019060200180831161121257829003601f168201915b50505050509050600081511115611265578681604051602001611253929190611b1d565b60405160208183030381529060405296505b866040516020016112769190611adc565b6040516020818303038152906040529650505050808061129590611f38565b915050610f69565b506112a78961143c565b6040516020016112b79190611d31565b60405160208183030381529060405290508381846040516020016112dd93929190611b83565b60408051601f19818403018152919052975095505050505050915091565b6003546001600160a01b031633146113555760405162461bcd60e51b815260206004820181905260248201527f4f776e61626c653a2063616c6c6572206973206e6f7420746865206f776e6572604482015260640161064f565b6001600160a01b0381166113d15760405162461bcd60e51b815260206004820152602660248201527f4f776e61626c653a206e6577206f776e657220697320746865207a65726f206160448201527f6464726573730000000000000000000000000000000000000000000000000000606482015260840161064f565b6113da816113dd565b50565b600380546001600160a01b0383811673ffffffffffffffffffffffffffffffffffffffff19831681179093556040519116919082907f8be0079c531659141344cd1fd0a4f28419497f9722a3daafe3b4186f6b6457e090600090a35050565b60608161147c57505060408051808201909152600181527f3000000000000000000000000000000000000000000000000000000000000000602082015290565b8160005b81156114a6578061149081611f38565b915061149f9050600a83611e91565b9150611480565b60008167ffffffffffffffff8111156114c1576114c1611fa9565b6040519080825280601f01601f1916602001820160405280156114eb576020820181803683370190505b5090505b841561156e57611500600183611ea5565b915061150d600a86611f53565b611518906030611e79565b60f81b81838151811061152d5761152d611f93565b60200101907effffffffffffffffffffffffffffffffffffffffffffffffffffffffffffff1916908160001a905350611567600a86611e91565b94506114ef565b949350505050565b82805461158290611f03565b90600052602060002090601f0160209004810192826115a457600085556115ea565b82601f106115bd57805160ff19168380011785556115ea565b828001600101855582156115ea579182015b828111156115ea5782518255916020019190600101906115cf565b506115f69291506115fa565b5090565b5b808211156115f657600081556001016115fb565b600082601f83011261162057600080fd5b813561163361162e82611e51565b611e20565b81815284602083860101111561164857600080fd5b816020850160208301376000918101602001919091529392505050565b600082601f83011261167657600080fd5b815161168461162e82611e51565b81815284602083860101111561169957600080fd5b61156e826020830160208701611ebc565b6000602082840312156116bc57600080fd5b8135610cf181611fbf565b6000602082840312156116d957600080fd5b8151610cf181611fbf565b600060208083850312156116f757600080fd5b823567ffffffffffffffff8082111561170f57600080fd5b818501915085601f83011261172357600080fd5b81358181111561173557611735611fa9565b8060051b611744858201611e20565b8281528581019085870183870188018b101561175f57600080fd5b600093505b848410156118265780358681111561177b57600080fd5b87016080818d03601f1901121561179157600080fd5b611799611df7565b898201358152604080830135898111156117b257600080fd5b6117c08f8d8387010161160f565b8c840152506060830135898111156117d757600080fd5b6117e58f8d8387010161160f565b8284015250506080820135888111156117fd57600080fd5b61180b8e8c8386010161160f565b60608301525084525060019390930192918701918701611764565b509998505050505050505050565b60006020828403121561184657600080fd5b8151610cf181611fd4565b60006020828403121561186357600080fd5b81356001600160e01b031981168114610cf157600080fd5b60006020828403121561188d57600080fd5b813567ffffffffffffffff8111156118a457600080fd5b61156e8482850161160f565b600080604083850312156118c357600080fd5b825167ffffffffffffffff808211156118db57600080fd5b6118e786838701611665565b935060208501519150808211156118fd57600080fd5b5061190a85828601611665565b9150509250929050565b60006020828403121561192657600080fd5b815167ffffffffffffffff8082111561193e57600080fd5b908301906060828603121561195257600080fd5b60405160608101818110838211171561196d5761196d611fa9565b60405282518281111561197f57600080fd5b61198b87828601611665565b8252506020830151828111156119a057600080fd5b6119ac87828601611665565b602083015250604083015192506119c283611fbf565b6040810192909252509392505050565b6000602082840312156119e457600080fd5b5035919050565b600080604083850312156119fe57600080fd5b823591506020830135611a1081611fd4565b809150509250929050565b60008151808452611a33816020860160208601611ebc565b601f01601f19169290920160200192915050565b60008351611a59818460208801611ebc565b835190830190611a6d818360208801611ebc565b01949350505050565b60008351611a88818460208801611ebc565b7f203c75736520687265663d2223000000000000000000000000000000000000009083019081528351611ac281600d840160208801611ebc565b601160f91b600d9290910191820152600e01949350505050565b60008251611aee818460208701611ebc565b7f202f3e0a00000000000000000000000000000000000000000000000000000000920191825250600401919050565b60008351611b2f818460208801611ebc565b7f2066696c6c3d22000000000000000000000000000000000000000000000000009083019081528351611b69816007840160208801611ebc565b601160f91b60079290910191820152600801949350505050565b60008451611b95818460208901611ebc565b7f3c672069643d22000000000000000000000000000000000000000000000000009083019081528451611bcf816007840160208901611ebc565b7f22203e0a00000000000000000000000000000000000000000000000000000000600792909101918201528351611c0d81600b840160208801611ebc565b7f3c2f673e0a000000000000000000000000000000000000000000000000000000600b929091019182015260100195945050505050565b60008351611c56818460208801611ebc565b7f207472616e73666f726d3d2200000000000000000000000000000000000000009083019081528351611c9081600c840160208801611ebc565b601160f91b600c9290910191820152600d01949350505050565b60008251611cbc818460208701611ebc565b9190910192915050565b7f417373657374436f6d706f7365723a67657450726f766964657249642c20746881527f652070726f766964657220646f6573206e6f742065786973743a000000000000602082015260008251611d2481603a850160208701611ebc565b91909101603a0192915050565b630636f6d760e41b815260008251611d50816004850160208701611ebc565b9190910160040192915050565b602081526000610cf16020830184611a1b565b604081526000611d836040830185611a1b565b8281036020840152611d958185611a1b565b95945050505050565b602081526000825160606020840152611dba6080840182611a1b565b90506020840151601f19848303016040850152611dd78282611a1b565b9150506001600160a01b0360408501511660608401528091505092915050565b6040516080810167ffffffffffffffff81118282101715611e1a57611e1a611fa9565b60405290565b604051601f8201601f1916810167ffffffffffffffff81118282101715611e4957611e49611fa9565b604052919050565b600067ffffffffffffffff821115611e6b57611e6b611fa9565b50601f01601f191660200190565b60008219821115611e8c57611e8c611f67565b500190565b600082611ea057611ea0611f7d565b500490565b600082821015611eb757611eb7611f67565b500390565b60005b83811015611ed7578181015183820152602001611ebf565b83811115611ee6576000848401525b50505050565b600081611efb57611efb611f67565b506000190190565b600181811c90821680611f1757607f821691505b6020821081141561081557634e487b7160e01b600052602260045260246000fd5b6000600019821415611f4c57611f4c611f67565b5060010190565b600082611f6257611f62611f7d565b500690565b634e487b7160e01b600052601160045260246000fd5b634e487b7160e01b600052601260045260246000fd5b634e487b7160e01b600052603260045260246000fd5b634e487b7160e01b600052604160045260246000fd5b6001600160a01b03811681146113da57600080fd5b80151581146113da57600080fdfea26469706673582212203ddb39feed40771b31ef9ff48a4851a8ad03677b39516295fb55b1a235a0e65264736f6c6343000806003360a060405234801561001057600080fd5b50604051610bf8380380610bf883398101604081905261002f9161009d565b6100383361004d565b60601b6001600160601b0319166080526100cd565b600080546001600160a01b038381166001600160a01b0319831681178455604051919092169283917f8be0079c531659141344cd1fd0a4f28419497f9722a3daafe3b4186f6b6457e09190a35050565b6000602082840312156100af57600080fd5b81516001600160a01b03811681146100c657600080fd5b9392505050565b60805160601c610af96100ff6000396000818160eb015281816102bc015281816103ca015261047f0152610af96000f3fe608060405234801561001057600080fd5b50600436106100a35760003560e01c8063893d20e8116100765780638da5cb5b1161005b5780638da5cb5b1461012f578063e3f24f02146101eb578063f2fde38b1461020c57600080fd5b8063893d20e81461012f5780638c40188e1461014057600080fd5b806301ffc9a7146100a857806318160ddd146100d0578063597a0e36146100e6578063715018a614610125575b600080fd5b6100bb6100b6366004610741565b61021f565b60405190151581526020015b60405180910390f35b6100d86102b8565b6040519081526020016100c7565b61010d7f000000000000000000000000000000000000000000000000000000000000000081565b6040516001600160a01b0390911681526020016100c7565b61012d610350565b005b6000546001600160a01b031661010d565b6101de60408051606080820183528082526020820152600091810191909152506040805160a0810182526005606082019081527f61737365740000000000000000000000000000000000000000000000000000006080830152815281518083018352600b81527f41737365742053746f7265000000000000000000000000000000000000000000602082810191909152820152309181019190915290565b6040516100c791906109a6565b6101fe6101f936600461091a565b6103bb565b6040516100c7929190610978565b61012d61021a36600461071d565b610529565b60007fffffffff0000000000000000000000000000000000000000000000000000000082167ffe997ab90000000000000000000000000000000000000000000000000000000014806102b257507fffffffff0000000000000000000000000000000000000000000000000000000082167f01ffc9a700000000000000000000000000000000000000000000000000000000145b92915050565b60007f00000000000000000000000000000000000000000000000000000000000000006001600160a01b031663a0aead4d6040518163ffffffff1660e01b815260040160206040518083038186803b15801561031357600080fd5b505afa158015610327573d6000803e3d6000fd5b505050506040513d601f19601f8201168201806040525081019061034b9190610933565b905090565b6000546001600160a01b031633146103af5760405162461bcd60e51b815260206004820181905260248201527f4f776e61626c653a2063616c6c6572206973206e6f7420746865206f776e657260448201526064015b60405180910390fd5b6103b9600061060b565b565b60608060006001600160a01b037f000000000000000000000000000000000000000000000000000000000000000016634378a6e36103fa866001610a42565b6040518263ffffffff1660e01b815260040161041891815260200190565b60006040518083038186803b15801561043057600080fd5b505afa158015610444573d6000803e3d6000fd5b505050506040513d6000823e601f3d908101601f1916820160405261046c91908101906107c0565b6060810151925090506001600160a01b037f0000000000000000000000000000000000000000000000000000000000000000166334320bf16104af866001610a42565b846040518363ffffffff1660e01b81526004016104cd9291906109ff565b60006040518083038186803b1580156104e557600080fd5b505afa1580156104f9573d6000803e3d6000fd5b505050506040513d6000823e601f3d908101601f191682016040526105219190810190610783565b925050915091565b6000546001600160a01b031633146105835760405162461bcd60e51b815260206004820181905260248201527f4f776e61626c653a2063616c6c6572206973206e6f7420746865206f776e657260448201526064016103a6565b6001600160a01b0381166105ff5760405162461bcd60e51b815260206004820152602660248201527f4f776e61626c653a206e6577206f776e657220697320746865207a65726f206160448201527f646472657373000000000000000000000000000000000000000000000000000060648201526084016103a6565b6106088161060b565b50565b600080546001600160a01b038381167fffffffffffffffffffffffff0000000000000000000000000000000000000000831681178455604051919092169283917f8be0079c531659141344cd1fd0a4f28419497f9722a3daafe3b4186f6b6457e09190a35050565b805161067e81610aae565b919050565b600082601f83011261069457600080fd5b815167ffffffffffffffff808211156106af576106af610a98565b604051601f8301601f19908116603f011681019082821181831017156106d7576106d7610a98565b816040528381528660208588010111156106f057600080fd5b610701846020830160208901610a68565b9695505050505050565b805161ffff8116811461067e57600080fd5b60006020828403121561072f57600080fd5b813561073a81610aae565b9392505050565b60006020828403121561075357600080fd5b81357fffffffff000000000000000000000000000000000000000000000000000000008116811461073a57600080fd5b60006020828403121561079557600080fd5b815167ffffffffffffffff8111156107ac57600080fd5b6107b884828501610683565b949350505050565b6000602082840312156107d257600080fd5b815167ffffffffffffffff808211156107ea57600080fd5b9083019061012082860312156107ff57600080fd5b610807610a18565b82518281111561081657600080fd5b61082287828601610683565b82525060208301518281111561083757600080fd5b61084387828601610683565b60208301525060408301518281111561085b57600080fd5b61086787828601610683565b60408301525060608301518281111561087f57600080fd5b61088b87828601610683565b6060830152506080830151828111156108a357600080fd5b6108af87828601610683565b6080830152506108c160a08401610673565b60a082015260c0830151828111156108d857600080fd5b6108e487828601610683565b60c0830152506108f660e0840161070b565b60e0820152610100915061090b82840161070b565b91810191909152949350505050565b60006020828403121561092c57600080fd5b5035919050565b60006020828403121561094557600080fd5b5051919050565b60008151808452610964816020860160208601610a68565b601f01601f19169290920160200192915050565b60408152600061098b604083018561094c565b828103602084015261099d818561094c565b95945050505050565b6020815260008251606060208401526109c2608084018261094c565b90506020840151601f198483030160408501526109df828261094c565b9150506001600160a01b0360408501511660608401528091505092915050565b8281526040602082015260006107b8604083018461094c565b604051610120810167ffffffffffffffff81118282101715610a3c57610a3c610a98565b60405290565b60008219821115610a6357634e487b7160e01b600052601160045260246000fd5b500190565b60005b83811015610a83578181015183820152602001610a6b565b83811115610a92576000848401525b50505050565b634e487b7160e01b600052604160045260246000fd5b6001600160a01b038116811461060857600080fdfea264697066735822122097dcbe7b4e46051a9cd783e510445d7d55fbd0c2d96a87e1945842639b2c06f564736f6c6343000806003354686973206973206f6e65206f6620656666747320746f2063726561746520284f6e2d436861696e2041737365742053746f7265295b68747470733a2f2f617373657473746f72652e7774662f647261775d2e20",
  "linkReferences": {},
  "deployedLinkReferences": {}
}