{
  "_format": "hh-sol-artifact-1",
  "contractName": "DrawYourOwn",
  "sourceName": "contracts/DrawYourOwn.sol",
  "abi": [
    {
      "inputs": [
        {
          "internalType": "contract IAssetStoreRegistry",
          "name": "_registry",
          "type": "address"
        },
        {
          "internalType": "contract IAssetStoreEx",
          "name": "_assetStore",
          "type": "address"
        },
        {
          "internalType": "address",
          "name": "_developer",
          "type": "address"
        },
        {
          "internalType": "contract IProxyRegistry",
          "name": "_proxyRegistry",
          "type": "address"
        }
      ],
      "stateMutability": "nonpayable",
      "type": "constructor"
    },
    {
      "inputs": [],
      "name": "ApprovalCallerNotOwnerNorApproved",
      "type": "error"
    },
    {
      "inputs": [],
      "name": "ApprovalQueryForNonexistentToken",
      "type": "error"
    },
    {
      "inputs": [],
      "name": "ApproveToCaller",
      "type": "error"
    },
    {
      "inputs": [],
      "name": "BalanceQueryForZeroAddress",
      "type": "error"
    },
    {
      "inputs": [],
      "name": "MintERC2309QuantityExceedsLimit",
      "type": "error"
    },
    {
      "inputs": [],
      "name": "MintToZeroAddress",
      "type": "error"
    },
    {
      "inputs": [],
      "name": "MintZeroQuantity",
      "type": "error"
    },
    {
      "inputs": [],
      "name": "OwnerQueryForNonexistentToken",
      "type": "error"
    },
    {
      "inputs": [],
      "name": "OwnershipNotInitializedForExtraData",
      "type": "error"
    },
    {
      "inputs": [],
      "name": "TransferCallerNotOwnerNorApproved",
      "type": "error"
    },
    {
      "inputs": [],
      "name": "TransferFromIncorrectOwner",
      "type": "error"
    },
    {
      "inputs": [],
      "name": "TransferToNonERC721ReceiverImplementer",
      "type": "error"
    },
    {
      "inputs": [],
      "name": "TransferToZeroAddress",
      "type": "error"
    },
    {
      "inputs": [],
      "name": "URIQueryForNonexistentToken",
      "type": "error"
    },
    {
      "anonymous": false,
      "inputs": [
        {
          "indexed": true,
          "internalType": "address",
          "name": "owner",
          "type": "address"
        },
        {
          "indexed": true,
          "internalType": "address",
          "name": "approved",
          "type": "address"
        },
        {
          "indexed": true,
          "internalType": "uint256",
          "name": "tokenId",
          "type": "uint256"
        }
      ],
      "name": "Approval",
      "type": "event"
    },
    {
      "anonymous": false,
      "inputs": [
        {
          "indexed": true,
          "internalType": "address",
          "name": "owner",
          "type": "address"
        },
        {
          "indexed": true,
          "internalType": "address",
          "name": "operator",
          "type": "address"
        },
        {
          "indexed": false,
          "internalType": "bool",
          "name": "approved",
          "type": "bool"
        }
      ],
      "name": "ApprovalForAll",
      "type": "event"
    },
    {
      "anonymous": false,
      "inputs": [
        {
          "indexed": true,
          "internalType": "uint256",
          "name": "fromTokenId",
          "type": "uint256"
        },
        {
          "indexed": false,
          "internalType": "uint256",
          "name": "toTokenId",
          "type": "uint256"
        },
        {
          "indexed": true,
          "internalType": "address",
          "name": "from",
          "type": "address"
        },
        {
          "indexed": true,
          "internalType": "address",
          "name": "to",
          "type": "address"
        }
      ],
      "name": "ConsecutiveTransfer",
      "type": "event"
    },
    {
      "anonymous": false,
      "inputs": [
        {
          "indexed": true,
          "internalType": "address",
          "name": "previousOwner",
          "type": "address"
        },
        {
          "indexed": true,
          "internalType": "address",
          "name": "newOwner",
          "type": "address"
        }
      ],
      "name": "OwnershipTransferred",
      "type": "event"
    },
    {
      "anonymous": false,
      "inputs": [
        {
          "indexed": true,
          "internalType": "address",
          "name": "from",
          "type": "address"
        },
        {
          "indexed": true,
          "internalType": "address",
          "name": "to",
          "type": "address"
        },
        {
          "indexed": true,
          "internalType": "uint256",
          "name": "tokenId",
          "type": "uint256"
        }
      ],
      "name": "Transfer",
      "type": "event"
    },
    {
      "inputs": [
        {
          "internalType": "address",
          "name": "to",
          "type": "address"
        },
        {
          "internalType": "uint256",
          "name": "tokenId",
          "type": "uint256"
        }
      ],
      "name": "approve",
      "outputs": [],
      "stateMutability": "nonpayable",
      "type": "function"
    },
    {
      "inputs": [],
      "name": "assetComposer",
      "outputs": [
        {
          "internalType": "contract AssetComposer",
          "name": "",
          "type": "address"
        }
      ],
      "stateMutability": "view",
      "type": "function"
    },
    {
      "inputs": [
        {
          "internalType": "uint256",
          "name": "_tokenId",
          "type": "uint256"
        }
      ],
      "name": "assetIdOfToken",
      "outputs": [
        {
          "internalType": "uint256",
          "name": "",
          "type": "uint256"
        }
      ],
      "stateMutability": "view",
      "type": "function"
    },
    {
      "inputs": [],
      "name": "assetStore",
      "outputs": [
        {
          "internalType": "contract IAssetStoreEx",
          "name": "",
          "type": "address"
        }
      ],
      "stateMutability": "view",
      "type": "function"
    },
    {
      "inputs": [
        {
          "internalType": "address",
          "name": "owner",
          "type": "address"
        }
      ],
      "name": "balanceOf",
      "outputs": [
        {
          "internalType": "uint256",
          "name": "",
          "type": "uint256"
        }
      ],
      "stateMutability": "view",
      "type": "function"
    },
    {
      "inputs": [],
      "name": "description",
      "outputs": [
        {
          "internalType": "string",
          "name": "",
          "type": "string"
        }
      ],
      "stateMutability": "view",
      "type": "function"
    },
    {
      "inputs": [],
      "name": "developer",
      "outputs": [
        {
          "internalType": "address",
          "name": "",
          "type": "address"
        }
      ],
      "stateMutability": "view",
      "type": "function"
    },
    {
      "inputs": [
        {
          "internalType": "string",
          "name": "_svgPart",
          "type": "string"
        },
        {
          "internalType": "uint256",
          "name": "_style",
          "type": "uint256"
        },
        {
          "internalType": "string",
          "name": "_tag",
          "type": "string"
        }
      ],
      "name": "generateSVG",
      "outputs": [
        {
          "internalType": "string",
          "name": "",
          "type": "string"
        }
      ],
      "stateMutability": "pure",
      "type": "function"
    },
    {
      "inputs": [
        {
          "internalType": "uint256",
          "name": "_tokenId",
          "type": "uint256"
        }
      ],
      "name": "generateSVGPart",
      "outputs": [
        {
          "internalType": "string",
          "name": "",
          "type": "string"
        },
        {
          "internalType": "string",
          "name": "",
          "type": "string"
        }
      ],
      "stateMutability": "view",
      "type": "function"
    },
    {
      "inputs": [
        {
          "internalType": "uint256",
          "name": "tokenId",
          "type": "uint256"
        }
      ],
      "name": "getApproved",
      "outputs": [
        {
          "internalType": "address",
          "name": "",
          "type": "address"
        }
      ],
      "stateMutability": "view",
      "type": "function"
    },
    {
      "inputs": [],
      "name": "getCurrentToken",
      "outputs": [
        {
          "internalType": "uint256",
          "name": "",
          "type": "uint256"
        }
      ],
      "stateMutability": "view",
      "type": "function"
    },
    {
      "inputs": [
        {
          "internalType": "address",
          "name": "owner",
          "type": "address"
        },
        {
          "internalType": "address",
          "name": "operator",
          "type": "address"
        }
      ],
      "name": "isApprovedForAll",
      "outputs": [
        {
          "internalType": "bool",
          "name": "",
          "type": "bool"
        }
      ],
      "stateMutability": "view",
      "type": "function"
    },
    {
      "inputs": [],
      "name": "mintPrice",
      "outputs": [
        {
          "internalType": "uint256",
          "name": "",
          "type": "uint256"
        }
      ],
      "stateMutability": "view",
      "type": "function"
    },
    {
      "inputs": [
        {
          "components": [
            {
              "internalType": "string",
              "name": "group",
              "type": "string"
            },
            {
              "internalType": "string",
              "name": "category",
              "type": "string"
            },
            {
              "internalType": "string",
              "name": "name",
              "type": "string"
            },
            {
              "internalType": "string",
              "name": "minter",
              "type": "string"
            },
            {
              "internalType": "address",
              "name": "soulbound",
              "type": "address"
            },
            {
              "internalType": "bytes",
              "name": "metadata",
              "type": "bytes"
            },
            {
              "components": [
                {
                  "internalType": "bytes",
                  "name": "body",
                  "type": "bytes"
                },
                {
                  "internalType": "string",
                  "name": "color",
                  "type": "string"
                }
              ],
              "internalType": "struct IAssetStoreRegistry.Part[]",
              "name": "parts",
              "type": "tuple[]"
            }
          ],
          "internalType": "struct IAssetStoreRegistry.AssetInfo",
          "name": "_assetInfo",
          "type": "tuple"
        },
        {
          "internalType": "uint256",
          "name": "_affiliate",
          "type": "uint256"
        },
        {
          "components": [
            {
              "internalType": "uint256",
              "name": "tokenId",
              "type": "uint256"
            },
            {
              "internalType": "string",
              "name": "fill",
              "type": "string"
            },
            {
              "internalType": "string",
              "name": "transform",
              "type": "string"
            }
          ],
          "internalType": "struct DrawYourOwn.RemixInfo[]",
          "name": "_remixes",
          "type": "tuple[]"
        },
        {
          "components": [
            {
              "internalType": "uint256",
              "name": "assetId",
              "type": "uint256"
            },
            {
              "internalType": "string",
              "name": "provider",
              "type": "string"
            },
            {
              "internalType": "string",
              "name": "fill",
              "type": "string"
            },
            {
              "internalType": "string",
              "name": "transform",
              "type": "string"
            }
          ],
          "internalType": "struct IAssetComposer.AssetLayer[]",
          "name": "_overlays",
          "type": "tuple[]"
        }
      ],
      "name": "mintWithAsset",
      "outputs": [],
      "stateMutability": "payable",
      "type": "function"
    },
    {
      "inputs": [],
      "name": "name",
      "outputs": [
        {
          "internalType": "string",
          "name": "",
          "type": "string"
        }
      ],
      "stateMutability": "view",
      "type": "function"
    },
    {
      "inputs": [],
      "name": "owner",
      "outputs": [
        {
          "internalType": "address",
          "name": "",
          "type": "address"
        }
      ],
      "stateMutability": "view",
      "type": "function"
    },
    {
      "inputs": [
        {
          "internalType": "uint256",
          "name": "tokenId",
          "type": "uint256"
        }
      ],
      "name": "ownerOf",
      "outputs": [
        {
          "internalType": "address",
          "name": "",
          "type": "address"
        }
      ],
      "stateMutability": "view",
      "type": "function"
    },
    {
      "inputs": [],
      "name": "proxyRegistry",
      "outputs": [
        {
          "internalType": "contract IProxyRegistry",
          "name": "",
          "type": "address"
        }
      ],
      "stateMutability": "view",
      "type": "function"
    },
    {
      "inputs": [],
      "name": "registry",
      "outputs": [
        {
          "internalType": "contract IAssetStoreRegistry",
          "name": "",
          "type": "address"
        }
      ],
      "stateMutability": "view",
      "type": "function"
    },
    {
      "inputs": [
        {
          "internalType": "uint256",
          "name": "",
          "type": "uint256"
        }
      ],
      "name": "remixBase",
      "outputs": [
        {
          "internalType": "uint256",
          "name": "",
          "type": "uint256"
        }
      ],
      "stateMutability": "view",
      "type": "function"
    },
    {
      "inputs": [],
      "name": "renounceOwnership",
      "outputs": [],
      "stateMutability": "nonpayable",
      "type": "function"
    },
    {
      "inputs": [
        {
          "internalType": "address",
          "name": "from",
          "type": "address"
        },
        {
          "internalType": "address",
          "name": "to",
          "type": "address"
        },
        {
          "internalType": "uint256",
          "name": "tokenId",
          "type": "uint256"
        }
      ],
      "name": "safeTransferFrom",
      "outputs": [],
      "stateMutability": "nonpayable",
      "type": "function"
    },
    {
      "inputs": [
        {
          "internalType": "address",
          "name": "from",
          "type": "address"
        },
        {
          "internalType": "address",
          "name": "to",
          "type": "address"
        },
        {
          "internalType": "uint256",
          "name": "tokenId",
          "type": "uint256"
        },
        {
          "internalType": "bytes",
          "name": "_data",
          "type": "bytes"
        }
      ],
      "name": "safeTransferFrom",
      "outputs": [],
      "stateMutability": "nonpayable",
      "type": "function"
    },
    {
      "inputs": [
        {
          "internalType": "address",
          "name": "operator",
          "type": "address"
        },
        {
          "internalType": "bool",
          "name": "approved",
          "type": "bool"
        }
      ],
      "name": "setApprovalForAll",
      "outputs": [],
      "stateMutability": "nonpayable",
      "type": "function"
    },
    {
      "inputs": [
        {
          "internalType": "string",
          "name": "_description",
          "type": "string"
        }
      ],
      "name": "setDescription",
      "outputs": [],
      "stateMutability": "nonpayable",
      "type": "function"
    },
    {
      "inputs": [
        {
          "internalType": "uint256",
          "name": "_price",
          "type": "uint256"
        }
      ],
      "name": "setMintPrice",
      "outputs": [],
      "stateMutability": "nonpayable",
      "type": "function"
    },
    {
      "inputs": [],
      "name": "styles",
      "outputs": [
        {
          "internalType": "uint256",
          "name": "",
          "type": "uint256"
        }
      ],
      "stateMutability": "pure",
      "type": "function"
    },
    {
      "inputs": [
        {
          "internalType": "bytes4",
          "name": "interfaceId",
          "type": "bytes4"
        }
      ],
      "name": "supportsInterface",
      "outputs": [
        {
          "internalType": "bool",
          "name": "",
          "type": "bool"
        }
      ],
      "stateMutability": "view",
      "type": "function"
    },
    {
      "inputs": [],
      "name": "symbol",
      "outputs": [
        {
          "internalType": "string",
          "name": "",
          "type": "string"
        }
      ],
      "stateMutability": "view",
      "type": "function"
    },
    {
      "inputs": [
        {
          "internalType": "uint256",
          "name": "_tokenId",
          "type": "uint256"
        }
      ],
      "name": "tokenURI",
      "outputs": [
        {
          "internalType": "string",
          "name": "",
          "type": "string"
        }
      ],
      "stateMutability": "view",
      "type": "function"
    },
    {
      "inputs": [],
      "name": "tokensPerAsset",
      "outputs": [
        {
          "internalType": "uint256",
          "name": "",
          "type": "uint256"
        }
      ],
      "stateMutability": "pure",
      "type": "function"
    },
    {
      "inputs": [],
      "name": "totalSupply",
      "outputs": [
        {
          "internalType": "uint256",
          "name": "",
          "type": "uint256"
        }
      ],
      "stateMutability": "view",
      "type": "function"
    },
    {
      "inputs": [
        {
          "internalType": "address",
          "name": "from",
          "type": "address"
        },
        {
          "internalType": "address",
          "name": "to",
          "type": "address"
        },
        {
          "internalType": "uint256",
          "name": "tokenId",
          "type": "uint256"
        }
      ],
      "name": "transferFrom",
      "outputs": [],
      "stateMutability": "nonpayable",
      "type": "function"
    },
    {
      "inputs": [
        {
          "internalType": "address",
          "name": "newOwner",
          "type": "address"
        }
      ],
      "name": "transferOwnership",
      "outputs": [],
      "stateMutability": "nonpayable",
      "type": "function"
    },
    {
      "inputs": [],
      "name": "withdraw",
      "outputs": [],
      "stateMutability": "nonpayable",
      "type": "function"
    }
  ],
  "bytecode": "0x6101806040526054610100818152906200832a6101203980516200002c91600b9160209091019062000397565b5066470de4df820000600e553480156200004557600080fd5b506040516200837e3803806200837e833981016040819052620000689162000459565b8383838360405180604001604052806011815260200170111c985dc8165bdd5c8813dddb88139195607a1b81525060405180604001604052806007815260200166111c985dd3919560ca1b8152508160029080519060200190620000ce92919062000397565b508051620000e490600390602084019062000397565b5060008081556001600160601b0319606088811b821660805287811b821660a052600c80546001600160a01b0389166001600160a01b031990911617905585901b1660c0526040519092508591506200013d9062000426565b6001600160a01b039091168152602001604051809103906000f0801580156200016a573d6000803e3d6000fd5b5060405163f2fde38b60e01b81523360048201529091506001600160a01b0382169063f2fde38b90602401600060405180830381600087803b158015620001b057600080fd5b505af1158015620001c5573d6000803e3d6000fd5b50505050600084604051620001da9062000434565b6001600160a01b039091168152602001604051809103906000f08015801562000207573d6000803e3d6000fd5b50604051630713000b60e11b81526001600160a01b03808316600483015291925090831690630e26001690602401602060405180830381600087803b1580156200025057600080fd5b505af115801562000265573d6000803e3d6000fd5b505050506040513d601f19601f820116820180604052508101906200028b9190620004c1565b50604051630713000b60e11b81526001600160a01b0383166004820181905290630e26001690602401602060405180830381600087803b158015620002cf57600080fd5b505af1158015620002e4573d6000803e3d6000fd5b505050506040513d601f19601f820116820180604052508101906200030a9190620004c1565b505060601b6001600160601b03191660e05250620003379250620003319150620003419050565b62000345565b5050505062000531565b3390565b600d80546001600160a01b038381166001600160a01b0319831681179093556040519116919082907f8be0079c531659141344cd1fd0a4f28419497f9722a3daafe3b4186f6b6457e090600090a35050565b828054620003a590620004db565b90600052602060002090601f016020900481019282620003c9576000855562000414565b82601f10620003e457805160ff191683800117855562000414565b8280016001018555821562000414579182015b8281111562000414578251825591602001919060010190620003f7565b506200042292915062000442565b5090565b6124b5806200485383390190565b6116228062006d0883390190565b5b8082111562000422576000815560010162000443565b600080600080608085870312156200047057600080fd5b84516200047d8162000518565b6020860151909450620004908162000518565b6040860151909350620004a38162000518565b6060860151909250620004b68162000518565b939692955090935050565b600060208284031215620004d457600080fd5b5051919050565b600181811c90821680620004f057607f821691505b602082108114156200051257634e487b7160e01b600052602260045260246000fd5b50919050565b6001600160a01b03811681146200052e57600080fd5b50565b60805160601c60a05160601c60c05160601c60e05160601c61429d620005b66000396000818161064801528181611362015281816113f50152611b150152600081816105660152611d7501526000818161040b015281816119d701528181611bcd01528181611c7d01526124c80152600081816104bf0152610e8a015261429d6000f3fe6080604052600436106102335760003560e01c8063715018a611610138578063b88d4fde116100b0578063e985e9c51161007f578063ef2d174611610064578063ef2d17461461066a578063f2fde38b1461067f578063f4a0a5281461069f57600080fd5b8063e985e9c514610616578063ec1718b91461063657600080fd5b8063b88d4fde14610588578063c87b56dd146105a8578063ca4b208b146105c8578063e3f24f02146105e857600080fd5b80638da5cb5b1161010757806395d89b41116100ec57806395d89b411461051f578063a22cb46514610534578063b50cbd9f1461055457600080fd5b80638da5cb5b146104e157806390c3f38f146104ff57600080fd5b8063715018a6146104835780637284e41614610498578063786f94c6146103e55780637b103999146104ad57600080fd5b80632b7e2f59116101cb5780634b00371f1161019a5780636352211e1161017f5780636352211e1461042d5780636817c76c1461044d57806370a082311461046357600080fd5b80634b00371f146103e5578063597a0e36146103f957600080fd5b80632b7e2f59146103705780633ccfd60b14610383578063406fbed91461039857806342842e0e146103c557600080fd5b8063095ea7b311610207578063095ea7b3146102eb57806318160ddd1461030d57806323b872dd146103305780632ab72d2f1461035057600080fd5b80626e59e91461023857806301ffc9a71461026e57806306fdde031461029e578063081812fc146102b3575b600080fd5b34801561024457600080fd5b50610258610253366004612ee2565b6106bf565b6040516102659190613e0a565b60405180910390f35b34801561027a57600080fd5b5061028e610289366004612dda565b610919565b6040519015158152602001610265565b3480156102aa57600080fd5b506102586109b6565b3480156102bf57600080fd5b506102d36102ce366004613222565b610a48565b6040516001600160a01b039091168152602001610265565b3480156102f757600080fd5b5061030b610306366004612dae565b610aa5565b005b34801561031957600080fd5b50600154600054035b604051908152602001610265565b34801561033c57600080fd5b5061030b61034b366004612cce565b610b6b565b34801561035c57600080fd5b5061032261036b366004613222565b610d49565b61030b61037e3660046130a9565b610df0565b34801561038f57600080fd5b5061030b611565565b3480156103a457600080fd5b506103226103b3366004613222565b60086020526000908152604090205481565b3480156103d157600080fd5b5061030b6103e0366004612cce565b61160f565b3480156103f157600080fd5b506004610322565b34801561040557600080fd5b506102d37f000000000000000000000000000000000000000000000000000000000000000081565b34801561043957600080fd5b506102d3610448366004613222565b61162f565b34801561045957600080fd5b50610322600e5481565b34801561046f57600080fd5b5061032261047e366004612c5b565b61163a565b34801561048f57600080fd5b5061030b6116a2565b3480156104a457600080fd5b50610258611708565b3480156104b957600080fd5b506102d37f000000000000000000000000000000000000000000000000000000000000000081565b3480156104ed57600080fd5b50600d546001600160a01b03166102d3565b34801561050b57600080fd5b5061030b61051a366004612e49565b611796565b34801561052b57600080fd5b50610258611803565b34801561054057600080fd5b5061030b61054f366004612d7b565b611812565b34801561056057600080fd5b506102d37f000000000000000000000000000000000000000000000000000000000000000081565b34801561059457600080fd5b5061030b6105a3366004612d0f565b6118c1565b3480156105b457600080fd5b506102586105c3366004613222565b61190b565b3480156105d457600080fd5b50600c546102d3906001600160a01b031681565b3480156105f457600080fd5b50610608610603366004613222565b611aec565b604051610265929190613e1d565b34801561062257600080fd5b5061028e610631366004612c95565b611d36565b34801561064257600080fd5b506102d37f000000000000000000000000000000000000000000000000000000000000000081565b34801561067657600080fd5b50600054610322565b34801561068b57600080fd5b5061030b61069a366004612c5b565b611e37565b3480156106ab57600080fd5b5061030b6106ba366004613222565b611f19565b6040805160a081018252600060808201818152825282518084018452600c81527f75726c282373696c7665722900000000000000000000000000000000000000006020828101919091528084019190915283518085018552600a81527f75726c2823676f6c64290000000000000000000000000000000000000000000081830152838501528351908101909352808352606082810193909352610763600486614147565b9050600060405180608001604052806049815260200161421f6049913987604051602001610792929190613973565b604051602081830303815290604052905081600114156107d357806040516020016107bd9190613528565b6040516020818303038152906040529050610819565b81600214156107ed57806040516020016107bd9190613403565b816003141561081957806040516020016108079190613800565b60405160208183030381529060405290505b8060405160200161082a9190613381565b6040516020818303038152906040529050600083836004811061084f5761084f614187565b6020020151511115610896578083836004811061086e5761086e614187565b602002015160405160200161088492919061376f565b60405160208183030381529060405290505b81600314156108c85780856040516020016108b292919061364d565b60405160208183030381529060405290506108ed565b80856040516020016108db929190613317565b60405160208183030381529060405290505b806040516020016108fe91906133c2565b60408051808303601f19018152919052979650505050505050565b60007f01ffc9a7000000000000000000000000000000000000000000000000000000006001600160e01b03198316148061097c57507f80ac58cd000000000000000000000000000000000000000000000000000000006001600160e01b03198316145b806109b057507f5b5e139f000000000000000000000000000000000000000000000000000000006001600160e01b03198316145b92915050565b6060600280546109c5906140f1565b80601f01602080910402602001604051908101604052809291908181526020018280546109f1906140f1565b8015610a3e5780601f10610a1357610100808354040283529160200191610a3e565b820191906000526020600020905b815481529060010190602001808311610a2157829003601f168201915b5050505050905090565b6000610a5382611f78565b610a89576040517fcf4700e400000000000000000000000000000000000000000000000000000000815260040160405180910390fd5b506000908152600660205260409020546001600160a01b031690565b6000610ab08261162f565b9050336001600160a01b03821614610b0257610acc8133611d36565b610b02576040517fcfb3b94200000000000000000000000000000000000000000000000000000000815260040160405180910390fd5b600082815260066020526040808220805473ffffffffffffffffffffffffffffffffffffffff19166001600160a01b0387811691821790925591518593918516917f8c5be1e5ebec7d5bd14f71427d1e84f3dd0314c0f7b2291e5b200ac8c7c3b92591a4505050565b6000610b7682611f9f565b9050836001600160a01b0316816001600160a01b031614610bc3576040517fa114810000000000000000000000000000000000000000000000000000000000815260040160405180910390fd5b60008281526006602052604090208054338082146001600160a01b03881690911417610c2957610bf38633611d36565b610c29576040517f59c896be00000000000000000000000000000000000000000000000000000000815260040160405180910390fd5b6001600160a01b038516610c69576040517fea553b3400000000000000000000000000000000000000000000000000000000815260040160405180910390fd5b8015610c7457600082555b6001600160a01b038681166000908152600560205260408082208054600019019055918716808252919020805460010190554260a01b17600160e11b17600085815260046020526040902055600160e11b8316610cff5760018401600081815260046020526040902054610cfd576000548114610cfd5760008181526004602052604090208490555b505b83856001600160a01b0316876001600160a01b03167fddf252ad1be2c89b69c2b068fc378daa952ba7f163c4a11628f55a4df523b3ef60405160405180910390a45b505050505050565b6000610d5482611f78565b610dcb5760405162461bcd60e51b815260206004820152602d60248201527f437573746f6d546f6b656e2e617373657449644f66546f6b656e3a206e6f6e6560448201527f78697374656e7420746f6b656e0000000000000000000000000000000000000060648201526084015b60405180910390fd5b60096000610dda60048561407b565b8152602001908152602001600020549050919050565b60005460408051808201909152600d81527f4472617720596f7572204f776e0000000000000000000000000000000000000060208201528552610e3281612019565b604051602001610e4291906139a2565b60408051601f1981840301815291815286810191909152517f5b7eea860000000000000000000000000000000000000000000000000000000081526000906001600160a01b037f00000000000000000000000000000000000000000000000000000000000000001690635b7eea8690610ebf908990600401613e4b565b602060405180830381600087803b158015610ed957600080fd5b505af1158015610eed573d6000803e3d6000fd5b505050506040513d601f19601f82011682018060405250810190610f11919061323b565b905080600a6000610f2360048661407b565b81526020810191909152604001600020558351158015610f4257508251155b15610f8257610f5281600261408f565b610f5d906001614063565b60096000610f6c60048661407b565b81526020810191909152604001600020556114bc565b83518351600091908290610f969083614063565b1115610fee57600e54341015610fee5760405162461bcd60e51b815260206004820152601860248201527f4d7573742073656e6420746865206d696e7420707269636500000000000000006044820152606401610dc2565b8451600090610ffe836001614063565b6110089190614063565b67ffffffffffffffff8111156110205761102061419d565b60405190808252806020026020018201604052801561107c57816020015b6110696040518060800160405280600081526020016060815260200160608152602001606081525090565b81526020019060019003908161103e5790505b509050600092505b86518310156112545760008784815181106110a1576110a1614187565b6020026020010151905083600014156110d15780516110c1906001614063565b6000878152600860205260409020555b60006110e08260000151610d49565b90506110ed600282614147565b61117a576110fc60028261407b565b83868151811061110e5761110e614187565b602002602001015160000181815250506040518060400160405280600481526020017f636f6d700000000000000000000000000000000000000000000000000000000081525083868151811061116657611166614187565b6020026020010151602001819052506111f3565b600161118760028361407b565b61119191906140ae565b8386815181106111a3576111a3614187565b6020026020010151600001818152505060405180604001604052806005815260200164185cdcd95d60da1b8152508386815181106111e3576111e3614187565b6020026020010151602001819052505b816020015183868151811061120a5761120a614187565b602002602001015160400181905250816040015183868151811061123057611230614187565b6020026020010151606001819052505050828061124c9061412c565b935050611084565b61125f6001856140ae565b81838151811061127157611271614187565b6020026020010151600001818152505060405180604001604052806005815260200164185cdcd95d60da1b8152508183815181106112b1576112b1614187565b602002602001015160200181905250600092505b855183101561132f578583815181106112e0576112e0614187565b602002602001015181848460016112f79190614063565b6113019190614063565b8151811061131157611311614187565b602002602001018190525082806113279061412c565b9350506112c5565b6040517f434ebc550000000000000000000000000000000000000000000000000000000081526000906001600160a01b037f0000000000000000000000000000000000000000000000000000000000000000169063434ebc5590611397908590600401613d5e565b602060405180830381600087803b1580156113b157600080fd5b505af11580156113c5573d6000803e3d6000fd5b505050506040513d601f19601f820116820180604052508101906113e9919061323b565b90506001600160a01b037f000000000000000000000000000000000000000000000000000000000000000016638d07c0826103e8611429346103cf61408f565b611433919061407b565b6040516001600160e01b031960e084901b16815260048101859052602481018790526044016000604051808303818588803b15801561147157600080fd5b505af1158015611485573d6000803e3d6000fd5b5050505050806002611497919061408f565b600960006114a660048a61407b565b8152602081019190915260400160002055505050505b6114d1336114cc600160046140ae565b612153565b6000851180156114e557506114e585612263565b80156115025750336114f68661162f565b6001600160a01b031614155b1561151f5761151a6115138661162f565b6001612153565b610d41565b600461152b818461407b565b6115359190614147565b61155057600c5461151a906001600160a01b03166001612153565b610d41611513600d546001600160a01b031690565b600d546001600160a01b031633146115bf5760405162461bcd60e51b815260206004820181905260248201527f4f776e61626c653a2063616c6c6572206973206e6f7420746865206f776e65726044820152606401610dc2565b60006115d3600d546001600160a01b031690565b6040519091506001600160a01b038216904780156108fc02916000818181858888f1935050505015801561160b573d6000803e3d6000fd5b5050565b61162a838383604051806020016040528060008152506118c1565b505050565b60006109b082611f9f565b60006001600160a01b03821661167c576040517f8f4eb60400000000000000000000000000000000000000000000000000000000815260040160405180910390fd5b506001600160a01b031660009081526005602052604090205467ffffffffffffffff1690565b600d546001600160a01b031633146116fc5760405162461bcd60e51b815260206004820181905260248201527f4f776e61626c653a2063616c6c6572206973206e6f7420746865206f776e65726044820152606401610dc2565b6117066000612277565b565b600b8054611715906140f1565b80601f0160208091040260200160405190810160405280929190818152602001828054611741906140f1565b801561178e5780601f106117635761010080835404028352916020019161178e565b820191906000526020600020905b81548152906001019060200180831161177157829003601f168201915b505050505081565b600d546001600160a01b031633146117f05760405162461bcd60e51b815260206004820181905260248201527f4f776e61626c653a2063616c6c6572206973206e6f7420746865206f776e65726044820152606401610dc2565b805161160b90600b906020840190612813565b6060600380546109c5906140f1565b6001600160a01b038216331415611855576040517fb06307db00000000000000000000000000000000000000000000000000000000815260040160405180910390fd5b3360008181526007602090815260408083206001600160a01b03871680855290835292819020805460ff191686151590811790915590519081529192917f17307eab39ab6107e8899845ad3d59bd9653f200f220920489ca2b5937696c31910160405180910390a35050565b6118cc848484610b6b565b6001600160a01b0383163b15611905576118e8848484846122d6565b611905576040516368d2bf6b60e11b815260040160405180910390fd5b50505050565b606061191682611f78565b6119885760405162461bcd60e51b815260206004820152602760248201527f437573746f6d546f6b656e2e746f6b656e5552493a206e6f6e6578697374656e60448201527f7420746f6b656e000000000000000000000000000000000000000000000000006064820152608401610dc2565b60008061199484611aec565b909250905060006119b0836119aa600488614147565b846106bf565b90506000600a816119c260048961407b565b815260200190815260200160002054905060007f00000000000000000000000000000000000000000000000000000000000000006001600160a01b0316634378a6e3836040518263ffffffff1660e01b8152600401611a2391815260200190565b60006040518083038186803b158015611a3b57600080fd5b505afa158015611a4f573d6000803e3d6000fd5b505050506040513d6000823e601f3d908101601f19168201604052611a779190810190612f4f565b9050611ac1611a8588612019565b600b611a918a856123cd565b611a9a87612676565b604051602001611aad94939291906139e7565b604051602081830303815290604052612676565b604051602001611ad19190613b93565b60405160208183030381529060405295505050505050919050565b6060806000611afa84610d49565b9050611b07600282614147565b611bc1576001600160a01b037f00000000000000000000000000000000000000000000000000000000000000001663e3f24f02611b4560028461407b565b6040518263ffffffff1660e01b8152600401611b6391815260200190565b60006040518083038186803b158015611b7b57600080fd5b505afa158015611b8f573d6000803e3d6000fd5b505050506040513d6000823e601f3d908101601f19168201604052611bb79190810190612e7e565b9250925050915091565b60006001600160a01b037f000000000000000000000000000000000000000000000000000000000000000016634378a6e3611bfd60028561407b565b6040518263ffffffff1660e01b8152600401611c1b91815260200190565b60006040518083038186803b158015611c3357600080fd5b505afa158015611c47573d6000803e3d6000fd5b505050506040513d6000823e601f3d908101601f19168201604052611c6f9190810190612f4f565b905060006001600160a01b037f0000000000000000000000000000000000000000000000000000000000000000166334320bf1611cad60028661407b565b84606001516040518363ffffffff1660e01b8152600401611ccf929190613f17565b60006040518083038186803b158015611ce757600080fd5b505afa158015611cfb573d6000803e3d6000fd5b505050506040513d6000823e601f3d908101601f19168201604052611d239190810190612e14565b6060909201519196919550909350505050565b6040517fc45527910000000000000000000000000000000000000000000000000000000081526001600160a01b038381166004830152600091818416917f0000000000000000000000000000000000000000000000000000000000000000169063c45527919060240160206040518083038186803b158015611db757600080fd5b505afa158015611dcb573d6000803e3d6000fd5b505050506040513d601f19601f82011682018060405250810190611def9190612c78565b6001600160a01b03161415611e06575060016109b0565b6001600160a01b0380841660009081526007602090815260408083209386168352929052205460ff165b9392505050565b600d546001600160a01b03163314611e915760405162461bcd60e51b815260206004820181905260248201527f4f776e61626c653a2063616c6c6572206973206e6f7420746865206f776e65726044820152606401610dc2565b6001600160a01b038116611f0d5760405162461bcd60e51b815260206004820152602660248201527f4f776e61626c653a206e6577206f776e657220697320746865207a65726f206160448201527f64647265737300000000000000000000000000000000000000000000000000006064820152608401610dc2565b611f1681612277565b50565b600d546001600160a01b03163314611f735760405162461bcd60e51b815260206004820181905260248201527f4f776e61626c653a2063616c6c6572206973206e6f7420746865206f776e65726044820152606401610dc2565b600e55565b60008054821080156109b0575050600090815260046020526040902054600160e01b161590565b600081600054811015611fe757600081815260046020526040902054600160e01b8116611fe5575b80611e30575060001901600081815260046020526040902054611fc7565b505b6040517fdf2d9b4200000000000000000000000000000000000000000000000000000000815260040160405180910390fd5b60608161205957505060408051808201909152600181527f3000000000000000000000000000000000000000000000000000000000000000602082015290565b8160005b8115612083578061206d8161412c565b915061207c9050600a8361407b565b915061205d565b60008167ffffffffffffffff81111561209e5761209e61419d565b6040519080825280601f01601f1916602001820160405280156120c8576020820181803683370190505b5090505b841561214b576120dd6001836140ae565b91506120ea600a86614147565b6120f5906030614063565b60f81b81838151811061210a5761210a614187565b60200101907effffffffffffffffffffffffffffffffffffffffffffffffffffffffffffff1916908160001a905350612144600a8661407b565b94506120cc565b949350505050565b6000546001600160a01b038316612196576040517f2e07630000000000000000000000000000000000000000000000000000000000815260040160405180910390fd5b816121cd576040517fb562e8dd00000000000000000000000000000000000000000000000000000000815260040160405180910390fd5b6001600160a01b038316600081815260056020526040902080546801000000000000000185020190554260a01b6001841460e11b1717600082815260046020526040902055808281015b6040516001830192906001600160a01b038716906000907fddf252ad1be2c89b69c2b068fc378daa952ba7f163c4a11628f55a4df523b3ef908290a48082106122175760005550505050565b6000612270600483614147565b1592915050565b600d80546001600160a01b0383811673ffffffffffffffffffffffffffffffffffffffff19831681179093556040519116919082907f8be0079c531659141344cd1fd0a4f28419497f9722a3daafe3b4186f6b6457e090600090a35050565b604051630a85bd0160e11b81526000906001600160a01b0385169063150b7a029061230b903390899088908890600401613d22565b602060405180830381600087803b15801561232557600080fd5b505af1925050508015612355575060408051601f3d908101601f1916820190925261235291810190612df7565b60015b6123b0573d808015612383576040519150601f19603f3d011682016040523d82523d6000602084013e612388565b606091505b5080516123a8576040516368d2bf6b60e11b815260040160405180910390fd5b805181602001fd5b6001600160e01b031916630a85bd0160e11b149050949350505050565b606060006123da84612263565b612419576040518060400160405280600281526020017f4e6f000000000000000000000000000000000000000000000000000000000000815250612450565b6040518060400160405280600381526020017f59657300000000000000000000000000000000000000000000000000000000008152505b8351602080860151604080880151905161246c95949301613bd8565b6040516020818303038152906040529050806000846080015151116124c6576040518060400160405280600b81526020017f28616e6f6e796d6f7573290000000000000000000000000000000000000000008152506125da565b7f00000000000000000000000000000000000000000000000000000000000000006001600160a01b031663a57cfb246040518163ffffffff1660e01b815260040160206040518083038186803b15801561251f57600080fd5b505afa158015612533573d6000803e3d6000fd5b505050506040513d601f19601f820116820180604052508101906125579190612c78565b6001600160a01b031663841b9d9785608001516040518263ffffffff1660e01b81526004016125869190613e0a565b60006040518083038186803b15801561259e57600080fd5b505afa1580156125b2573d6000803e3d6000fd5b505050506040513d6000823e601f3d908101601f191682016040526125da9190810190612e14565b600086815260086020526040902054612628576040518060400160405280600681526020017f286e6f6e6529000000000000000000000000000000000000000000000000000081525061264c565b60008681526008602052604090205461264c90612647906001906140ae565b612019565b60405160200161265e939291906136b7565b60408051808303601f19018152919052949350505050565b606081516000141561269657505060408051602081019091526000815290565b60006040518060600160405280604081526020016141df60409139905060006003845160026126c59190614063565b6126cf919061407b565b6126da90600461408f565b905060006126e9826020614063565b67ffffffffffffffff8111156127015761270161419d565b6040519080825280601f01601f19166020018201604052801561272b576020820181803683370190505b509050818152600183018586518101602084015b81831015612797576003830192508251603f8160121c168501518253600182019150603f81600c1c168501518253600182019150603f8160061c168501518253600182019150603f811685015182535060010161273f565b6003895106600181146127b157600281146127dd57612805565b7f3d3d000000000000000000000000000000000000000000000000000000000000600119830152612805565b7f3d000000000000000000000000000000000000000000000000000000000000006000198301525b509398975050505050505050565b82805461281f906140f1565b90600052602060002090601f0160209004810192826128415760008555612887565b82601f1061285a57805160ff1916838001178555612887565b82800160010185558215612887579182015b8281111561288757825182559160200191906001019061286c565b50612893929150612897565b5090565b5b808211156128935760008155600101612898565b80356128b7816141b3565b919050565b80516128b7816141b3565b600082601f8301126128d857600080fd5b813560206128ed6128e883614017565b613fe6565b80838252828201915082860187848660051b890101111561290d57600080fd5b60005b858110156129dc57813567ffffffffffffffff8082111561293057600080fd5b908901906080828c03601f190181131561294957600080fd5b612951613f30565b88840135815260408401358381111561296957600080fd5b6129778e8b83880101612bb3565b8a830152506060808501358481111561298f57600080fd5b61299d8f8c83890101612bb3565b6040840152509184013591838311156129b557600080fd5b6129c38e8b85880101612bb3565b9082015287525050509284019290840190600101612910565b5090979650505050505050565b600082601f8301126129fa57600080fd5b81356020612a0a6128e883614017565b80838252828201915082860187848660051b8901011115612a2a57600080fd5b60005b858110156129dc57813567ffffffffffffffff80821115612a4d57600080fd5b908901906040828c03601f1901811315612a6657600080fd5b612a6e613f59565b8884013583811115612a7f57600080fd5b612a8d8e8b83880101612bb3565b825250908301359082821115612aa257600080fd5b612ab08d8a84870101612bb3565b818a015287525050509284019290840190600101612a2d565b600082601f830112612ada57600080fd5b81356020612aea6128e883614017565b80838252828201915082860187848660051b8901011115612b0a57600080fd5b60005b858110156129dc57813567ffffffffffffffff80821115612b2d57600080fd5b908901906060828c03601f1901811315612b4657600080fd5b612b4e613f7c565b88840135815260408085013584811115612b6757600080fd5b612b758f8c83890101612bb3565b838c015250918401359183831115612b8c57600080fd5b612b9a8e8b85880101612bb3565b9082015287525050509284019290840190600101612b0d565b600082601f830112612bc457600080fd5b8135612bd26128e88261403b565b818152846020838601011115612be757600080fd5b816020850160208301376000918101602001919091529392505050565b600082601f830112612c1557600080fd5b8151612c236128e88261403b565b818152846020838601011115612c3857600080fd5b61214b8260208301602087016140c5565b805161ffff811681146128b757600080fd5b600060208284031215612c6d57600080fd5b8135611e30816141b3565b600060208284031215612c8a57600080fd5b8151611e30816141b3565b60008060408385031215612ca857600080fd5b8235612cb3816141b3565b91506020830135612cc3816141b3565b809150509250929050565b600080600060608486031215612ce357600080fd5b8335612cee816141b3565b92506020840135612cfe816141b3565b929592945050506040919091013590565b60008060008060808587031215612d2557600080fd5b8435612d30816141b3565b93506020850135612d40816141b3565b925060408501359150606085013567ffffffffffffffff811115612d6357600080fd5b612d6f87828801612bb3565b91505092959194509250565b60008060408385031215612d8e57600080fd5b8235612d99816141b3565b915060208301358015158114612cc357600080fd5b60008060408385031215612dc157600080fd5b8235612dcc816141b3565b946020939093013593505050565b600060208284031215612dec57600080fd5b8135611e30816141c8565b600060208284031215612e0957600080fd5b8151611e30816141c8565b600060208284031215612e2657600080fd5b815167ffffffffffffffff811115612e3d57600080fd5b61214b84828501612c04565b600060208284031215612e5b57600080fd5b813567ffffffffffffffff811115612e7257600080fd5b61214b84828501612bb3565b60008060408385031215612e9157600080fd5b825167ffffffffffffffff80821115612ea957600080fd5b612eb586838701612c04565b93506020850151915080821115612ecb57600080fd5b50612ed885828601612c04565b9150509250929050565b600080600060608486031215612ef757600080fd5b833567ffffffffffffffff80821115612f0f57600080fd5b612f1b87838801612bb3565b9450602086013593506040860135915080821115612f3857600080fd5b50612f4586828701612bb3565b9150509250925092565b600060208284031215612f6157600080fd5b815167ffffffffffffffff80821115612f7957600080fd5b908301906101208286031215612f8e57600080fd5b612f96613f9f565b825182811115612fa557600080fd5b612fb187828601612c04565b825250602083015182811115612fc657600080fd5b612fd287828601612c04565b602083015250604083015182811115612fea57600080fd5b612ff687828601612c04565b60408301525060608301518281111561300e57600080fd5b61301a87828601612c04565b60608301525060808301518281111561303257600080fd5b61303e87828601612c04565b60808301525061305060a084016128bc565b60a082015260c08301518281111561306757600080fd5b61307387828601612c04565b60c08301525061308560e08401612c49565b60e0820152610100915061309a828401612c49565b91810191909152949350505050565b600080600080608085870312156130bf57600080fd5b843567ffffffffffffffff808211156130d757600080fd5b9086019060e082890312156130eb57600080fd5b6130f3613fc3565b82358281111561310257600080fd5b61310e8a828601612bb3565b82525060208301358281111561312357600080fd5b61312f8a828601612bb3565b60208301525060408301358281111561314757600080fd5b6131538a828601612bb3565b60408301525060608301358281111561316b57600080fd5b6131778a828601612bb3565b606083015250613189608084016128ac565b608082015260a0830135828111156131a057600080fd5b6131ac8a828601612bb3565b60a08301525060c0830135828111156131c457600080fd5b6131d08a8286016129e9565b60c08301525095506020870135945060408701359150808211156131f357600080fd5b6131ff88838901612ac9565b9350606087013591508082111561321557600080fd5b50612d6f878288016128c7565b60006020828403121561323457600080fd5b5035919050565b60006020828403121561324d57600080fd5b5051919050565b600081518084526020808501808196508360051b8101915082860160005b858110156132c2578284038952815160408151818752613294828801826132cf565b915050868201519150858103878701526132ae81836132cf565b9a87019a9550505090840190600101613272565b5091979650505050505050565b600081518084526132e78160208601602086016140c5565b601f01601f19169290920160200192915050565b6000815161330d8185602086016140c5565b9290920192915050565b600083516133298184602088016140c5565b7f203c75736520687265663d222300000000000000000000000000000000000000908301908152835161336381600d8401602088016140c5565b641110179f0560d91b600d9290910191820152601201949350505050565b600082516133938184602087016140c5565b7f3c2f646566733e0a000000000000000000000000000000000000000000000000920191825250600801919050565b600082516133d48184602087016140c5565b7f3c2f7376673e0a00000000000000000000000000000000000000000000000000920191825250600701919050565b600082516134158184602087016140c5565b7f3c6c696e6561724772616469656e742069643d22676f6c64222078313d22302e9201918252507f32222078323d2230222079313d2230222079323d2231223e0a20203c73746f7060208201527f206f66667365743d223025222073746f702d636f6c6f723d222343434142303960408201527f222f3e0a203c73746f70206f66667365743d22353025222073746f702d636f6c60608201527f6f723d222346464631383622202f3e0a203c73746f70206f66667365743d223160808201527f303025222073746f702d636f6c6f723d2223434341423039222f3e0a3c2f6c6960a08201527f6e6561724772616469656e743e0a00000000000000000000000000000000000060c082015260ce01919050565b6000825161353a8184602087016140c5565b7f3c6c696e6561724772616469656e742069643d2273696c766572222078313d229201918252507f302e32222078323d2230222079313d2230222079323d2231223e0a20203c737460208201527f6f70206f66667365743d223025222073746f702d636f6c6f723d22233830383060408201527f3746222f3e0a203c73746f70206f66667365743d22353025222073746f702d6360608201527f6f6c6f723d222345454630463222202f3e0a203c73746f70206f66667365743d60808201527f2231303025222073746f702d636f6c6f723d2223383038303746222f3e0a3c2f60a08201527f6c696e6561724772616469656e743e0a0000000000000000000000000000000060c082015260d001919050565b6000835161365f8184602088016140c5565b7f203c7573652066696c7465723d2275726c28236631292220687265663d222300908301908152835161369981601f8401602088016140c5565b641110179f0560d91b601f9290910191820152602401949350505050565b600084516136c98184602089016140c5565b80830190507f7d2c7b2274726169745f74797065223a224d696e746572222c2276616c7565228152611d1160f11b8060208301528551613710816022850160208a016140c5565b7f227d2c7b2274726169745f74797065223a2252656d6978222c2276616c75652260229390910192830152604282015283516137538160448401602088016140c5565b61227d60f01b6044929091019182015260460195945050505050565b600083516137818184602088016140c5565b80830190507f203c7265637420783d22302220793d2230222077696474683d2231303025222081527f6865696768743d2231303025222066696c6c3d22000000000000000000000000602082015283516137e28160348401602088016140c5565b641110179f0560d91b60349290910191820152603901949350505050565b600082516138128184602087016140c5565b7f203c66696c7465722069643d2266312220783d22302220793d223022207769649201918252507f74683d223230302522206865696768743d2232303025223e0a20203c66654f6660208201527f6673657420726573756c743d226f66664f75742220696e3d22536f757263654160408201527f6c706861222064783d223234222064793d22333222202f3e0a20203c6665476160608201527f75737369616e426c757220726573756c743d22626c75724f75742220696e3d2260808201527f6f66664f75742220737464446576696174696f6e3d22313622202f3e0a20203c60a08201527f6665426c656e6420696e3d22536f75726365477261706869632220696e323d2260c08201527f626c75724f757422206d6f64653d226e6f726d616c22202f3e0a203c2f66696c60e08201527f7465723e0a00000000000000000000000000000000000000000000000000000061010082015261010501919050565b600083516139858184602088016140c5565b8351908301906139998183602088016140c5565b01949350505050565b7f44726177696e67200000000000000000000000000000000000000000000000008152600082516139da8160088501602087016140c5565b9190910160080192915050565b7f7b226e616d65223a2244726177696e67200000000000000000000000000000008152600085516020613a208260118601838b016140c5565b7f222c226465736372697074696f6e223a220000000000000000000000000000006011928501928301528654602290600090600181811c9080831680613a6757607f831692505b868310811415613a8457634e487b7160e01b855285600452602485fd5b808015613a985760018114613aad57613ade565b60ff1985168988015283890187019550613ade565b60008e81526020902060005b85811015613ad45781548b82018a0152908401908901613ab9565b505086848a010195505b5050505050613b85613b77613b71613b22613b1c857f222c2261747472696275746573223a5b00000000000000000000000000000000815260100190565b8c6132fb565b7f5d2c22696d616765223a22646174613a696d6167652f7376672b786d6c3b626181527f736536342c000000000000000000000000000000000000000000000000000000602082015260250190565b896132fb565b61227d60f01b815260020190565b9a9950505050505050505050565b7f646174613a6170706c69636174696f6e2f6a736f6e3b6261736536342c000000815260008251613bcb81601d8501602087016140c5565b91909101601d0192915050565b7f7b2274726169745f74797065223a225072696d617279222c2276616c7565223a81526000601160f91b8060208401528651613c1b816021860160208b016140c5565b7f227d2c7b2274726169745f74797065223a2247726f7570222c2276616c756522602191850191820152611d1160f11b60418201528651613c63816043840160208b016140c5565b7f227d2c7b2274726169745f74797065223a2243617465676f7279222c2276616c604392909101918201527f7565223a2200000000000000000000000000000000000000000000000000000060638201528551613cc7816068840160208a016140c5565b8082019150507f227d2c7b2274726169745f74797065223a224e616d65222c2276616c7565223a6068820152816088820152613d16613d0960898301876132fb565b601160f91b815260010190565b98975050505050505050565b60006001600160a01b03808716835280861660208401525083604083015260806060830152613d5460808301846132cf565b9695505050505050565b60006020808301818452808551808352604092508286019150828160051b87010184880160005b83811015613dfc57603f19898403018552815160808151855288820151818a870152613db3828701826132cf565b9150508782015185820389870152613dcb82826132cf565b91505060608083015192508582038187015250613de881836132cf565b968901969450505090860190600101613d85565b509098975050505050505050565b602081526000611e3060208301846132cf565b604081526000613e3060408301856132cf565b8281036020840152613e4281856132cf565b95945050505050565b602081526000825160e06020840152613e686101008401826132cf565b90506020840151601f1980858403016040860152613e8683836132cf565b92506040860151915080858403016060860152613ea383836132cf565b92506060860151915080858403016080860152613ec083836132cf565b925060808601519150613ede60a08601836001600160a01b03169052565b60a08601519150808584030160c0860152613ef983836132cf565b925060c08601519150808584030160e086015250613e428282613254565b82815260406020820152600061214b60408301846132cf565b6040516080810167ffffffffffffffff81118282101715613f5357613f5361419d565b60405290565b6040805190810167ffffffffffffffff81118282101715613f5357613f5361419d565b6040516060810167ffffffffffffffff81118282101715613f5357613f5361419d565b604051610120810167ffffffffffffffff81118282101715613f5357613f5361419d565b60405160e0810167ffffffffffffffff81118282101715613f5357613f5361419d565b604051601f8201601f1916810167ffffffffffffffff8111828210171561400f5761400f61419d565b604052919050565b600067ffffffffffffffff8211156140315761403161419d565b5060051b60200190565b600067ffffffffffffffff8211156140555761405561419d565b50601f01601f191660200190565b600082198211156140765761407661415b565b500190565b60008261408a5761408a614171565b500490565b60008160001904831182151516156140a9576140a961415b565b500290565b6000828210156140c0576140c061415b565b500390565b60005b838110156140e05781810151838201526020016140c8565b838111156119055750506000910152565b600181811c9082168061410557607f821691505b6020821081141561412657634e487b7160e01b600052602260045260246000fd5b50919050565b60006000198214156141405761414061415b565b5060010190565b60008261415657614156614171565b500690565b634e487b7160e01b600052601160045260246000fd5b634e487b7160e01b600052601260045260246000fd5b634e487b7160e01b600052603260045260246000fd5b634e487b7160e01b600052604160045260246000fd5b6001600160a01b0381168114611f1657600080fd5b6001600160e01b031981168114611f1657600080fdfe4142434445464748494a4b4c4d4e4f505152535455565758595a6162636465666768696a6b6c6d6e6f707172737475767778797a303132333435363738392b2f3c7376672076696577426f783d2230203020313032342031303234222020786d6c6e733d22687474703a2f2f7777772e77332e6f72672f323030302f737667223e0a3c646566733e0aa264697066735822122057b3df170ac2db760df02b2ab4a4a746e805c2feaebee09819056b8300811ed464736f6c6343000806003360a06040523480156200001157600080fd5b50604051620024b5380380620024b58339810160408190526200003491620000ce565b606081901b6001600160601b0319166080528062000052336200007c565b5050600354600480546001600160a01b0319166001600160a01b0390921691909117905562000100565b600380546001600160a01b038381166001600160a01b0319831681179093556040519116919082907f8be0079c531659141344cd1fd0a4f28419497f9722a3daafe3b4186f6b6457e090600090a35050565b600060208284031215620000e157600080fd5b81516001600160a01b0381168114620000f957600080fd5b9392505050565b60805160601c61238f620001266000396000818161023501526109e0015261238f6000f3fe6080604052600436106101445760003560e01c8063715018a6116100c05780638da5cb5b11610074578063ea575c6111610059578063ea575c61146103ec578063f2fde38b14610402578063f851a4401461042257600080fd5b80638da5cb5b146103a0578063e3f24f02146103be57600080fd5b8063893d20e8116100a5578063893d20e8146102e65780638c40188e146102fb5780638d07c0821461038d57600080fd5b8063715018a6146102bc57806374c83268146102d157600080fd5b8063434ebc5511610117578063597a0e36116100fc578063597a0e36146102235780635c42d0791461026f578063704b6c021461029c57600080fd5b8063434ebc55146101e35780634854078f1461020357600080fd5b806301ffc9a7146101495780630e2600161461017e57806315ea29be146101ac57806318160ddd146101ce575b600080fd5b34801561015557600080fd5b50610169610164366004611ba6565b610442565b60405190151581526020015b60405180910390f35b34801561018a57600080fd5b5061019e6101993660046119ff565b610513565b604051908152602001610175565b3480156101b857600080fd5b506101cc6101c7366004611d40565b610926565b005b3480156101da57600080fd5b5060065461019e565b3480156101ef57600080fd5b5061019e6101fe366004611a39565b6109db565b34801561020f57600080fd5b5061019e61021e366004611bd0565b610d7d565b34801561022f57600080fd5b506102577f000000000000000000000000000000000000000000000000000000000000000081565b6040516001600160a01b039091168152602001610175565b34801561027b57600080fd5b5061028f61028a366004611d27565b610df6565b6040516101759190612115565b3480156102a857600080fd5b506101cc6102b73660046119ff565b610eb4565b3480156102c857600080fd5b506101cc610f3d565b3480156102dd57600080fd5b5060005461019e565b3480156102f257600080fd5b50610257610fa3565b34801561030757600080fd5b5061028f60408051606080820183528082526020820152600091810191909152506040805160a081018252600460608201908152630636f6d760e41b6080830152815281518083018352600e81527f417373657420436f6d706f736572000000000000000000000000000000000000602082810191909152820152309181019190915290565b6101cc61039b366004611d70565b610fbc565b3480156103ac57600080fd5b506003546001600160a01b0316610257565b3480156103ca57600080fd5b506103de6103d9366004611d27565b611137565b6040516101759291906120e7565b3480156103f857600080fd5b5061019e60065481565b34801561040e57600080fd5b506101cc61041d3660046119ff565b611650565b34801561042e57600080fd5b50600454610257906001600160a01b031681565b60006001600160e01b031982167f6ef8e5880000000000000000000000000000000000000000000000000000000014806104a557506001600160e01b031982167fa0bcf35700000000000000000000000000000000000000000000000000000000145b806104d957506001600160e01b031982167f739eba3b00000000000000000000000000000000000000000000000000000000145b8061050d57506001600160e01b031982167f01ffc9a700000000000000000000000000000000000000000000000000000000145b92915050565b600080826001600160a01b0316638c40188e6040518163ffffffff1660e01b815260040160006040518083038186803b15801561054f57600080fd5b505afa158015610563573d6000803e3d6000fd5b505050506040513d6000823e601f3d908101601f1916820160405261058b9190810190611c69565b9050600181600001516040516105a19190612021565b9081526020016040518091039020549150816000146107d757816105c481612263565b6000818152600260209081526040918290205482517f893d20e800000000000000000000000000000000000000000000000000000000815292519396506001600160a01b03169350839263893d20e8926004808201939291829003018186803b15801561063057600080fd5b505afa158015610644573d6000803e3d6000fd5b505050506040513d601f19601f820116820180604052508101906106689190611a1c565b6001600160a01b0316846001600160a01b031663893d20e86040518163ffffffff1660e01b815260040160206040518083038186803b1580156106aa57600080fd5b505afa1580156106be573d6000803e3d6000fd5b505050506040513d601f19601f820116820180604052508101906106e29190611a1c565b6001600160a01b0316146107635760405162461bcd60e51b815260206004820152603260248201527f4173736574436f6d706f7365723a726567697374657250726f76696465722c2060448201527f616c72656164792072656769737465726564000000000000000000000000000060648201526084015b60405180910390fd5b600083815260026020908152604091829020805473ffffffffffffffffffffffffffffffffffffffff19166001600160a01b03881617905581513381529081018590527f4141f33bf490d9190a43ac8dc2fd923fdd3a01d78b82d1fa85f803a91f4bf4ae910160405180910390a150610920565b80604001516001600160a01b0316836001600160a01b0316146108625760405162461bcd60e51b815260206004820152603060248201527f4173736574436f6d706f7365723a726567697374657250726f76696465722c2060448201527f61646472657373206d69736d6174636800000000000000000000000000000000606482015260840161075a565b6000805484916002918180610876836122af565b91905055815260200190815260200160002060006101000a8154816001600160a01b0302191690836001600160a01b03160217905550600054600182600001516040516108c39190612021565b908152604051908190036020019020556000546108e29060019061221c565b60408051338152602081018390529193507f90c9734131c1e4fb36cde2d71e6feb93fb258f71be8a85411c173d25e1516e8091015b60405180910390a15b50919050565b6003546001600160a01b031633148061094957506004546001600160a01b031633145b6109bb5760405162461bcd60e51b815260206004820152602660248201527f4173736574436f6d706f7365723a2063616c6c6572206973206e6f742074686560448201527f2061646d696e0000000000000000000000000000000000000000000000000000606482015260840161075a565b600091825260056020526040909120805460ff1916911515919091179055565b6000807f00000000000000000000000000000000000000000000000000000000000000006001600160a01b031663a57cfb246040518163ffffffff1660e01b815260040160206040518083038186803b158015610a3757600080fd5b505afa158015610a4b573d6000803e3d6000fd5b505050506040513d601f19601f82011682018060405250810190610a6f9190611a1c565b600680549192506000610a81836122af565b9091555083516000828152600760205260408120919091559092505b8351811015610d46576000848281518110610aba57610aba61230a565b602002602001015190506000816000015190506000610adc8360200151610d7d565b6040805180820182526fffffffffffffffffffffffffffffffff8084168252858116602080840191825260008c8152600882528581208b825290915293909320915192518116600160801b029216919091179055606084015180519192509015610c315760405163c16e50ef60e01b81526001600160a01b0387169063c16e50ef90610b6c9084906004016120d4565b60206040518083038186803b158015610b8457600080fd5b505afa158015610b98573d6000803e3d6000fd5b505050506040513d601f19601f82011682018060405250810190610bbc9190611b89565b610c085760405162461bcd60e51b815260206004820152601b60248201527f72656769737465723a20496e76616c6964207472616e73666f726d0000000000604482015260640161075a565b600087815260096020908152604080832088845282529091208251610c2f928401906118cb565b505b6040840151805115610d2e5760405163c16e50ef60e01b81526001600160a01b0388169063c16e50ef90610c699084906004016120d4565b60206040518083038186803b158015610c8157600080fd5b505afa158015610c95573d6000803e3d6000fd5b505050506040513d601f19601f82011682018060405250810190610cb99190611b89565b610d055760405162461bcd60e51b815260206004820152601660248201527f72656769737465723a20496e76616c69642066696c6c00000000000000000000604482015260640161075a565b6000888152600a6020908152604080832089845282529091208251610d2c928401906118cb565b505b50505050508080610d3e906122af565b915050610a9d565b5060408051338152602081018490527fb6b49fb493aab716d37ffe3ad9f192adb9d7c116b0ca7423db8d0e56a1dc93b29101610917565b600080600183604051610d909190612021565b90815260200160405180910390205490506000811183604051602001610db6919061203d565b60405160208183030381529060405290610de35760405162461bcd60e51b815260040161075a91906120d4565b50610def60018261221c565b9392505050565b604080516060808201835280825260208201526000918101919091526000828152600260205260408082205481517f8c40188e00000000000000000000000000000000000000000000000000000000815291516001600160a01b03909116928392638c40188e9260048083019392829003018186803b158015610e7857600080fd5b505afa158015610e8c573d6000803e3d6000fd5b505050506040513d6000823e601f3d908101601f19168201604052610def9190810190611c69565b6003546001600160a01b03163314610f0e5760405162461bcd60e51b815260206004820181905260248201527f4f776e61626c653a2063616c6c6572206973206e6f7420746865206f776e6572604482015260640161075a565b6004805473ffffffffffffffffffffffffffffffffffffffff19166001600160a01b0392909216919091179055565b6003546001600160a01b03163314610f975760405162461bcd60e51b815260206004820181905260248201527f4f776e61626c653a2063616c6c6572206973206e6f7420746865206f776e6572604482015260640161075a565b610fa16000611732565b565b6000610fb76003546001600160a01b031690565b905090565b60008281526007602052604081205490610fd68234612208565b90508183108015610fe75750600182115b1561100457610ff760018361221c565b6110019034612208565b90505b8061100f5750505050565b60005b8281101561113057838114156110275761111e565b600085815260086020908152604080832084845282528083208151808301909252546fffffffffffffffffffffffffffffffff808216808452600160801b9092041692820192909252919061107b90610df6565b604080820151602085015191517f8d07c0820000000000000000000000000000000000000000000000000000000081526fffffffffffffffffffffffffffffffff90921660048301526402540be40060248301529192506001600160a01b0390911690638d07c0829086906044016000604051808303818588803b15801561110257600080fd5b505af1158015611116573d6000803e3d6000fd5b505050505050505b80611128816122af565b915050611012565b5050505050565b6000818152600560205260409020546060908190839060ff161515600114156111c85760405162461bcd60e51b815260206004820152602a60248201527f4173736574436f6d706f7365723a207468697320636f6d706f736974696f6e2060448201527f697320646961626c656400000000000000000000000000000000000000000000606482015260840161075a565b600084815260076020526040812054906060908190819081908567ffffffffffffffff8111156111fa576111fa612320565b604051908082528060200260200182016040528015611223578160200160208202803683370190505b50905060005b868110156115f05760008b815260086020908152604080832084845282528083208151808301909252546fffffffffffffffffffffffffffffffff808216808452600160801b9092041692820192909252919061128590610df6565b905080604001516001600160a01b031663e3f24f0283602001516fffffffffffffffffffffffffffffffff166040518263ffffffff1660e01b81526004016112cf91815260200190565b60006040518083038186803b1580156112e757600080fd5b505afa1580156112fb573d6000803e3d6000fd5b505050506040513d6000823e601f3d908101601f191682016040526113239190810190611c05565b604051919750955060009061133c908790602001612021565b60408051601f1981840301815291905280516020909101209050600160005b8581101561139f57828782815181106113765761137661230a565b6020026020010151141561138d576000915061139f565b80611397816122af565b91505061135b565b5080156113ea5789886040516020016113b9929190611dbe565b6040516020818303038152906040529950818686815181106113dd576113dd61230a565b6020026020010181815250505b505086856040516020016113ff929190611ded565b60408051601f1981840301815291815260008f8152600960209081528282208783529052908120805492995090916114369061227a565b80601f01602080910402602001604051908101604052809291908181526020018280546114629061227a565b80156114af5780601f10611484576101008083540402835291602001916114af565b820191906000526020600020905b81548152906001019060200180831161149257829003601f168201915b505050505090506000815111156114e55787816040516020016114d3929190611fbb565b60405160208183030381529060405297505b60008e8152600a60209081526040808320878452909152902080546115099061227a565b80601f01602080910402602001604051908101604052809291908181526020018280546115359061227a565b80156115825780601f1061155757610100808354040283529160200191611582565b820191906000526020600020905b81548152906001019060200180831161156557829003601f168201915b505050505090506000815111156115b85787816040516020016115a6929190611e94565b60405160208183030381529060405297505b876040516020016115c99190611e53565b604051602081830303815290604052975050505080806115e8906122af565b915050611229565b506115fa8a611791565b60405160200161160a91906120a8565b604051602081830303815290604052915084828560405160200161163093929190611efa565b60408051601f198184030181529190529850909650505050505050915091565b6003546001600160a01b031633146116aa5760405162461bcd60e51b815260206004820181905260248201527f4f776e61626c653a2063616c6c6572206973206e6f7420746865206f776e6572604482015260640161075a565b6001600160a01b0381166117265760405162461bcd60e51b815260206004820152602660248201527f4f776e61626c653a206e6577206f776e657220697320746865207a65726f206160448201527f6464726573730000000000000000000000000000000000000000000000000000606482015260840161075a565b61172f81611732565b50565b600380546001600160a01b0383811673ffffffffffffffffffffffffffffffffffffffff19831681179093556040519116919082907f8be0079c531659141344cd1fd0a4f28419497f9722a3daafe3b4186f6b6457e090600090a35050565b6060816117d157505060408051808201909152600181527f3000000000000000000000000000000000000000000000000000000000000000602082015290565b8160005b81156117fb57806117e5816122af565b91506117f49050600a83612208565b91506117d5565b60008167ffffffffffffffff81111561181657611816612320565b6040519080825280601f01601f191660200182016040528015611840576020820181803683370190505b5090505b84156118c35761185560018361221c565b9150611862600a866122ca565b61186d9060306121f0565b60f81b8183815181106118825761188261230a565b60200101907effffffffffffffffffffffffffffffffffffffffffffffffffffffffffffff1916908160001a9053506118bc600a86612208565b9450611844565b949350505050565b8280546118d79061227a565b90600052602060002090601f0160209004810192826118f9576000855561193f565b82601f1061191257805160ff191683800117855561193f565b8280016001018555821561193f579182015b8281111561193f578251825591602001919060010190611924565b5061194b92915061194f565b5090565b5b8082111561194b5760008155600101611950565b600082601f83011261197557600080fd5b8135611988611983826121c8565b612197565b81815284602083860101111561199d57600080fd5b816020850160208301376000918101602001919091529392505050565b600082601f8301126119cb57600080fd5b81516119d9611983826121c8565b8181528460208386010111156119ee57600080fd5b6118c3826020830160208701612233565b600060208284031215611a1157600080fd5b8135610def81612336565b600060208284031215611a2e57600080fd5b8151610def81612336565b60006020808385031215611a4c57600080fd5b823567ffffffffffffffff80821115611a6457600080fd5b818501915085601f830112611a7857600080fd5b813581811115611a8a57611a8a612320565b8060051b611a99858201612197565b8281528581019085870183870188018b1015611ab457600080fd5b600093505b84841015611b7b57803586811115611ad057600080fd5b87016080818d03601f1901811315611ae757600080fd5b611aef61216e565b8a8301358152604083013589811115611b0757600080fd5b611b158f8d83870101611964565b8c83015250606083013589811115611b2c57600080fd5b611b3a8f8d83870101611964565b604083015250908201359088821115611b5257600080fd5b611b608e8c84860101611964565b60608201528552505060019390930192918701918701611ab9565b509998505050505050505050565b600060208284031215611b9b57600080fd5b8151610def8161234b565b600060208284031215611bb857600080fd5b81356001600160e01b031981168114610def57600080fd5b600060208284031215611be257600080fd5b813567ffffffffffffffff811115611bf957600080fd5b6118c384828501611964565b60008060408385031215611c1857600080fd5b825167ffffffffffffffff80821115611c3057600080fd5b611c3c868387016119ba565b93506020850151915080821115611c5257600080fd5b50611c5f858286016119ba565b9150509250929050565b600060208284031215611c7b57600080fd5b815167ffffffffffffffff80821115611c9357600080fd5b9083019060608286031215611ca757600080fd5b604051606081018181108382111715611cc257611cc2612320565b604052825182811115611cd457600080fd5b611ce0878286016119ba565b825250602083015182811115611cf557600080fd5b611d01878286016119ba565b60208301525060408301519250611d1783612336565b6040810192909252509392505050565b600060208284031215611d3957600080fd5b5035919050565b60008060408385031215611d5357600080fd5b823591506020830135611d658161234b565b809150509250929050565b60008060408385031215611d8357600080fd5b50508035926020909101359150565b60008151808452611daa816020860160208601612233565b601f01601f19169290920160200192915050565b60008351611dd0818460208801612233565b835190830190611de4818360208801612233565b01949350505050565b60008351611dff818460208801612233565b7f203c75736520687265663d2223000000000000000000000000000000000000009083019081528351611e3981600d840160208801612233565b601160f91b600d9290910191820152600e01949350505050565b60008251611e65818460208701612233565b7f202f3e0a00000000000000000000000000000000000000000000000000000000920191825250600401919050565b60008351611ea6818460208801612233565b7f2066696c6c3d22000000000000000000000000000000000000000000000000009083019081528351611ee0816007840160208801612233565b601160f91b60079290910191820152600801949350505050565b60008451611f0c818460208901612233565b7f3c672069643d22000000000000000000000000000000000000000000000000009083019081528451611f46816007840160208901612233565b7f22203e0a00000000000000000000000000000000000000000000000000000000600792909101918201528351611f8481600b840160208801612233565b7f3c2f673e0a000000000000000000000000000000000000000000000000000000600b929091019182015260100195945050505050565b60008351611fcd818460208801612233565b7f207472616e73666f726d3d220000000000000000000000000000000000000000908301908152835161200781600c840160208801612233565b601160f91b600c9290910191820152600d01949350505050565b60008251612033818460208701612233565b9190910192915050565b7f417373657374436f6d706f7365723a67657450726f766964657249642c20746881527f652070726f766964657220646f6573206e6f742065786973743a00000000000060208201526000825161209b81603a850160208701612233565b91909101603a0192915050565b630636f6d760e41b8152600082516120c7816004850160208701612233565b9190910160040192915050565b602081526000610def6020830184611d92565b6040815260006120fa6040830185611d92565b828103602084015261210c8185611d92565b95945050505050565b6020815260008251606060208401526121316080840182611d92565b90506020840151601f1984830301604085015261214e8282611d92565b9150506001600160a01b0360408501511660608401528091505092915050565b6040516080810167ffffffffffffffff8111828210171561219157612191612320565b60405290565b604051601f8201601f1916810167ffffffffffffffff811182821017156121c0576121c0612320565b604052919050565b600067ffffffffffffffff8211156121e2576121e2612320565b50601f01601f191660200190565b60008219821115612203576122036122de565b500190565b600082612217576122176122f4565b500490565b60008282101561222e5761222e6122de565b500390565b60005b8381101561224e578181015183820152602001612236565b8381111561225d576000848401525b50505050565b600081612272576122726122de565b506000190190565b600181811c9082168061228e57607f821691505b6020821081141561092057634e487b7160e01b600052602260045260246000fd5b60006000198214156122c3576122c36122de565b5060010190565b6000826122d9576122d96122f4565b500690565b634e487b7160e01b600052601160045260246000fd5b634e487b7160e01b600052601260045260246000fd5b634e487b7160e01b600052603260045260246000fd5b634e487b7160e01b600052604160045260246000fd5b6001600160a01b038116811461172f57600080fd5b801515811461172f57600080fdfea26469706673582212208475fe8910ffe1101966650d6792f0fcab1a2da3980bd47851d0834aa839757264736f6c6343000806003360a060405234801561001057600080fd5b5060405161162238038061162283398101604081905261002f9161009d565b6100383361004d565b60601b6001600160601b0319166080526100cd565b600080546001600160a01b038381166001600160a01b0319831681178455604051919092169283917f8be0079c531659141344cd1fd0a4f28419497f9722a3daafe3b4186f6b6457e09190a35050565b6000602082840312156100af57600080fd5b81516001600160a01b03811681146100c657600080fd5b9392505050565b60805160601c6114f1610131600039600081816101cc0152818161044a015281816104e2015281816105770152818161065a0152818161071f01528181610843015281816108da01528181610a4a01528181610ade0152610b9301526114f16000f3fe6080604052600436106100f35760003560e01c80637805544c1161008a5780638da5cb5b116100595780638da5cb5b1461026a578063d4f056d41461033b578063e3f24f021461035b578063f2fde38b1461038957600080fd5b80637805544c1461024a578063893d20e81461026a5780638c40188e146102885780638d07c0821461032857600080fd5b8063515f28cb116100c6578063515f28cb1461019a578063597a0e36146101ba5780635c73924c14610206578063715018a61461023357600080fd5b806301ffc9a7146100f857806306545a931461012d57806318160ddd14610157578063468823e21461017a575b600080fd5b34801561010457600080fd5b50610118610113366004610e61565b6103a9565b60405190151581526020015b60405180910390f35b34801561013957600080fd5b50610142610446565b60405163ffffffff9091168152602001610124565b34801561016357600080fd5b5061016c6104de565b604051908152602001610124565b34801561018657600080fd5b5061016c610195366004610f59565b610571565b3480156101a657600080fd5b506101426101b5366004610ef5565b610627565b3480156101c657600080fd5b506101ee7f000000000000000000000000000000000000000000000000000000000000000081565b6040516001600160a01b039091168152602001610124565b34801561021257600080fd5b506102266102213660046111d1565b6106e8565b6040516101249190611237565b34801561023f57600080fd5b506102486107a5565b005b34801561025657600080fd5b50610226610265366004610fd1565b610810565b34801561027657600080fd5b506000546001600160a01b03166101ee565b34801561029457600080fd5b5061031b60408051606080820183528082526020820152600091810191909152506040805160a08101825260056060820190815264185cdcd95d60da1b6080830152815281518083018352600b81527f41737365742053746f7265000000000000000000000000000000000000000000602082810191909152820152309181019190915290565b6040516101249190611314565b6102486103363660046111af565b6108ce565b34801561034757600080fd5b50610142610356366004610e8b565b610a17565b34801561036757600080fd5b5061037b61037636600461117d565b610acf565b60405161012492919061124a565b34801561039557600080fd5b506102486103a4366004610e44565b610c3d565b60006001600160e01b031982167f739eba3b00000000000000000000000000000000000000000000000000000000148061040c57506001600160e01b031982167fe105c16e00000000000000000000000000000000000000000000000000000000145b8061044057506001600160e01b031982167f01ffc9a700000000000000000000000000000000000000000000000000000000145b92915050565b60007f00000000000000000000000000000000000000000000000000000000000000006001600160a01b03166306545a936040518163ffffffff1660e01b815260040160206040518083038186803b1580156104a157600080fd5b505afa1580156104b5573d6000803e3d6000fd5b505050506040513d601f19601f820116820180604052508101906104d991906111ee565b905090565b60007f00000000000000000000000000000000000000000000000000000000000000006001600160a01b031663a0aead4d6040518163ffffffff1660e01b815260040160206040518083038186803b15801561053957600080fd5b505afa15801561054d573d6000803e3d6000fd5b505050506040513d601f19601f820116820180604052508101906104d99190611196565b600060017f00000000000000000000000000000000000000000000000000000000000000006001600160a01b031663468823e28686866040518463ffffffff1660e01b81526004016105c593929190611278565b60206040518083038186803b1580156105dd57600080fd5b505afa1580156105f1573d6000803e3d6000fd5b505050506040513d601f19601f820116820180604052508101906106159190611196565b61061f9190611421565b949350505050565b6040517f515f28cb0000000000000000000000000000000000000000000000000000000081526000906001600160a01b037f0000000000000000000000000000000000000000000000000000000000000000169063515f28cb90610691908690869060040161124a565b60206040518083038186803b1580156106a957600080fd5b505afa1580156106bd573d6000803e3d6000fd5b505050506040513d601f19601f820116820180604052508101906106e191906111ee565b9392505050565b6040517f5c73924c00000000000000000000000000000000000000000000000000000000815263ffffffff821660048201526060907f00000000000000000000000000000000000000000000000000000000000000006001600160a01b031690635c73924c9060240160006040518083038186803b15801561076957600080fd5b505afa15801561077d573d6000803e3d6000fd5b505050506040513d6000823e601f3d908101601f191682016040526104409190810190610ec0565b6000546001600160a01b031633146108045760405162461bcd60e51b815260206004820181905260248201527f4f776e61626c653a2063616c6c6572206973206e6f7420746865206f776e657260448201526064015b60405180910390fd5b61080e6000610d1f565b565b6040517f7805544c0000000000000000000000000000000000000000000000000000000081526060906001600160a01b037f00000000000000000000000000000000000000000000000000000000000000001690637805544c9061087a90869086906004016112ec565b60006040518083038186803b15801561089257600080fd5b505afa1580156108a6573d6000803e3d6000fd5b505050506040513d6000823e601f3d908101601f191682016040526106e19190810190610ec0565b60006001600160a01b037f000000000000000000000000000000000000000000000000000000000000000016634378a6e361090a856001611409565b6040518263ffffffff1660e01b815260040161092891815260200190565b60006040518083038186803b15801561094057600080fd5b505afa158015610954573d6000803e3d6000fd5b505050506040513d6000823e601f3d908101601f1916820160405261097c9190810190611023565b60a0810151604051919250906001600160a01b038216903480156108fc02916000818181858888f193505050501580156109ba573d6000803e3d6000fd5b506040805180820182526005815264185cdcd95d60da1b602082015290517fbb0eeee27936db25b1a46a81ab6d97326392a3e961efa7273d5d756d7a2e1cad91610a09918790859034906112b4565b60405180910390a150505050565b6040517fd4f056d40000000000000000000000000000000000000000000000000000000081526000906001600160a01b037f0000000000000000000000000000000000000000000000000000000000000000169063d4f056d490610a7f908590600401611237565b60206040518083038186803b158015610a9757600080fd5b505afa158015610aab573d6000803e3d6000fd5b505050506040513d601f19601f8201168201806040525081019061044091906111ee565b60608060006001600160a01b037f000000000000000000000000000000000000000000000000000000000000000016634378a6e3610b0e866001611409565b6040518263ffffffff1660e01b8152600401610b2c91815260200190565b60006040518083038186803b158015610b4457600080fd5b505afa158015610b58573d6000803e3d6000fd5b505050506040513d6000823e601f3d908101601f19168201604052610b809190810190611023565b6060810151925090506001600160a01b037f0000000000000000000000000000000000000000000000000000000000000000166334320bf1610bc3866001611409565b846040518363ffffffff1660e01b8152600401610be192919061136d565b60006040518083038186803b158015610bf957600080fd5b505afa158015610c0d573d6000803e3d6000fd5b505050506040513d6000823e601f3d908101601f19168201604052610c359190810190610ec0565b925050915091565b6000546001600160a01b03163314610c975760405162461bcd60e51b815260206004820181905260248201527f4f776e61626c653a2063616c6c6572206973206e6f7420746865206f776e657260448201526064016107fb565b6001600160a01b038116610d135760405162461bcd60e51b815260206004820152602660248201527f4f776e61626c653a206e6577206f776e657220697320746865207a65726f206160448201527f646472657373000000000000000000000000000000000000000000000000000060648201526084016107fb565b610d1c81610d1f565b50565b600080546001600160a01b038381167fffffffffffffffffffffffff0000000000000000000000000000000000000000831681178455604051919092169283917f8be0079c531659141344cd1fd0a4f28419497f9722a3daafe3b4186f6b6457e09190a35050565b8051610d9281611494565b919050565b600082601f830112610da857600080fd5b8151610dbb610db6826113e1565b6113b0565b818152846020838601011115610dd057600080fd5b61061f826020830160208701611438565b600082601f830112610df257600080fd5b8135610e00610db6826113e1565b818152846020838601011115610e1557600080fd5b816020850160208301376000918101602001919091529392505050565b805161ffff81168114610d9257600080fd5b600060208284031215610e5657600080fd5b81356106e181611494565b600060208284031215610e7357600080fd5b81356001600160e01b0319811681146106e157600080fd5b600060208284031215610e9d57600080fd5b813567ffffffffffffffff811115610eb457600080fd5b61061f84828501610de1565b600060208284031215610ed257600080fd5b815167ffffffffffffffff811115610ee957600080fd5b61061f84828501610d97565b60008060408385031215610f0857600080fd5b823567ffffffffffffffff80821115610f2057600080fd5b610f2c86838701610de1565b93506020850135915080821115610f4257600080fd5b50610f4f85828601610de1565b9150509250929050565b600080600060608486031215610f6e57600080fd5b833567ffffffffffffffff80821115610f8657600080fd5b610f9287838801610de1565b94506020860135915080821115610fa857600080fd5b50610fb586828701610de1565b9250506040840135610fc6816114a9565b809150509250925092565b60008060408385031215610fe457600080fd5b823567ffffffffffffffff811115610ffb57600080fd5b61100785828601610de1565b9250506020830135611018816114a9565b809150509250929050565b60006020828403121561103557600080fd5b815167ffffffffffffffff8082111561104d57600080fd5b90830190610120828603121561106257600080fd5b61106a611386565b82518281111561107957600080fd5b61108587828601610d97565b82525060208301518281111561109a57600080fd5b6110a687828601610d97565b6020830152506040830151828111156110be57600080fd5b6110ca87828601610d97565b6040830152506060830151828111156110e257600080fd5b6110ee87828601610d97565b60608301525060808301518281111561110657600080fd5b61111287828601610d97565b60808301525061112460a08401610d87565b60a082015260c08301518281111561113b57600080fd5b61114787828601610d97565b60c08301525061115960e08401610e32565b60e0820152610100915061116e828401610e32565b91810191909152949350505050565b60006020828403121561118f57600080fd5b5035919050565b6000602082840312156111a857600080fd5b5051919050565b600080604083850312156111c257600080fd5b50508035926020909101359150565b6000602082840312156111e357600080fd5b81356106e1816114a9565b60006020828403121561120057600080fd5b81516106e1816114a9565b60008151808452611223816020860160208601611438565b601f01601f19169290920160200192915050565b6020815260006106e1602083018461120b565b60408152600061125d604083018561120b565b828103602084015261126f818561120b565b95945050505050565b60608152600061128b606083018661120b565b828103602084015261129d818661120b565b91505063ffffffff83166040830152949350505050565b6080815260006112c7608083018761120b565b6020830195909552506001600160a01b03929092166040830152606090910152919050565b6040815260006112ff604083018561120b565b905063ffffffff831660208301529392505050565b602081526000825160606020840152611330608084018261120b565b90506020840151601f1984830301604085015261134d828261120b565b9150506001600160a01b0360408501511660608401528091505092915050565b82815260406020820152600061061f604083018461120b565b604051610120810167ffffffffffffffff811182821017156113aa576113aa61147e565b60405290565b604051601f8201601f1916810167ffffffffffffffff811182821017156113d9576113d961147e565b604052919050565b600067ffffffffffffffff8211156113fb576113fb61147e565b50601f01601f191660200190565b6000821982111561141c5761141c611468565b500190565b60008282101561143357611433611468565b500390565b60005b8381101561145357818101518382015260200161143b565b83811115611462576000848401525b50505050565b634e487b7160e01b600052601160045260246000fd5b634e487b7160e01b600052604160045260246000fd5b6001600160a01b0381168114610d1c57600080fd5b63ffffffff81168114610d1c57600080fdfea2646970667358221220708a9218b684cf6e8684839de65c5d8a6196b249cd3b83ab951237d65b8b091d64736f6c6343000806003354686973206973206f6e65206f6620656666747320746f2063726561746520284f6e2d436861696e2041737365742053746f7265295b68747470733a2f2f617373657473746f72652e7774662f647261775d2e20",
  "linkReferences": {},
  "deployedLinkReferences": {}
}