{
  "_format": "hh-sol-artifact-1",
  "contractName": "EmojiFlagToken",
  "sourceName": "contracts/EmojiFlagToken.sol",
  "abi": [
    {
      "inputs": [
        {
          "internalType": "contract IAssetStoreRegistry",
          "name": "_registry",
          "type": "address"
        },
        {
          "internalType": "contract IAssetStore",
          "name": "_assetStore",
          "type": "address"
        },
        {
          "internalType": "address",
          "name": "_developer",
          "type": "address"
        },
        {
          "internalType": "contract IProxyRegistry",
          "name": "_proxyRegistry",
          "type": "address"
        }
      ],
      "stateMutability": "nonpayable",
      "type": "constructor"
    },
    {
      "inputs": [],
      "name": "ApprovalCallerNotOwnerNorApproved",
      "type": "error"
    },
    {
      "inputs": [],
      "name": "ApprovalQueryForNonexistentToken",
      "type": "error"
    },
    {
      "inputs": [],
      "name": "ApproveToCaller",
      "type": "error"
    },
    {
      "inputs": [],
      "name": "BalanceQueryForZeroAddress",
      "type": "error"
    },
    {
      "inputs": [],
      "name": "MintERC2309QuantityExceedsLimit",
      "type": "error"
    },
    {
      "inputs": [],
      "name": "MintToZeroAddress",
      "type": "error"
    },
    {
      "inputs": [],
      "name": "MintZeroQuantity",
      "type": "error"
    },
    {
      "inputs": [],
      "name": "OwnerQueryForNonexistentToken",
      "type": "error"
    },
    {
      "inputs": [],
      "name": "OwnershipNotInitializedForExtraData",
      "type": "error"
    },
    {
      "inputs": [],
      "name": "TransferCallerNotOwnerNorApproved",
      "type": "error"
    },
    {
      "inputs": [],
      "name": "TransferFromIncorrectOwner",
      "type": "error"
    },
    {
      "inputs": [],
      "name": "TransferToNonERC721ReceiverImplementer",
      "type": "error"
    },
    {
      "inputs": [],
      "name": "TransferToZeroAddress",
      "type": "error"
    },
    {
      "inputs": [],
      "name": "URIQueryForNonexistentToken",
      "type": "error"
    },
    {
      "anonymous": false,
      "inputs": [
        {
          "indexed": true,
          "internalType": "address",
          "name": "owner",
          "type": "address"
        },
        {
          "indexed": true,
          "internalType": "address",
          "name": "approved",
          "type": "address"
        },
        {
          "indexed": true,
          "internalType": "uint256",
          "name": "tokenId",
          "type": "uint256"
        }
      ],
      "name": "Approval",
      "type": "event"
    },
    {
      "anonymous": false,
      "inputs": [
        {
          "indexed": true,
          "internalType": "address",
          "name": "owner",
          "type": "address"
        },
        {
          "indexed": true,
          "internalType": "address",
          "name": "operator",
          "type": "address"
        },
        {
          "indexed": false,
          "internalType": "bool",
          "name": "approved",
          "type": "bool"
        }
      ],
      "name": "ApprovalForAll",
      "type": "event"
    },
    {
      "anonymous": false,
      "inputs": [
        {
          "indexed": true,
          "internalType": "uint256",
          "name": "fromTokenId",
          "type": "uint256"
        },
        {
          "indexed": false,
          "internalType": "uint256",
          "name": "toTokenId",
          "type": "uint256"
        },
        {
          "indexed": true,
          "internalType": "address",
          "name": "from",
          "type": "address"
        },
        {
          "indexed": true,
          "internalType": "address",
          "name": "to",
          "type": "address"
        }
      ],
      "name": "ConsecutiveTransfer",
      "type": "event"
    },
    {
      "anonymous": false,
      "inputs": [
        {
          "indexed": true,
          "internalType": "address",
          "name": "previousOwner",
          "type": "address"
        },
        {
          "indexed": true,
          "internalType": "address",
          "name": "newOwner",
          "type": "address"
        }
      ],
      "name": "OwnershipTransferred",
      "type": "event"
    },
    {
      "anonymous": false,
      "inputs": [
        {
          "indexed": true,
          "internalType": "address",
          "name": "from",
          "type": "address"
        },
        {
          "indexed": true,
          "internalType": "address",
          "name": "to",
          "type": "address"
        },
        {
          "indexed": true,
          "internalType": "uint256",
          "name": "tokenId",
          "type": "uint256"
        }
      ],
      "name": "Transfer",
      "type": "event"
    },
    {
      "inputs": [
        {
          "internalType": "address",
          "name": "to",
          "type": "address"
        },
        {
          "internalType": "uint256",
          "name": "tokenId",
          "type": "uint256"
        }
      ],
      "name": "approve",
      "outputs": [],
      "stateMutability": "nonpayable",
      "type": "function"
    },
    {
      "inputs": [
        {
          "internalType": "uint256",
          "name": "_tokenId",
          "type": "uint256"
        }
      ],
      "name": "assetIdOfToken",
      "outputs": [
        {
          "internalType": "uint256",
          "name": "",
          "type": "uint256"
        }
      ],
      "stateMutability": "view",
      "type": "function"
    },
    {
      "inputs": [],
      "name": "assetStore",
      "outputs": [
        {
          "internalType": "contract IAssetStore",
          "name": "",
          "type": "address"
        }
      ],
      "stateMutability": "view",
      "type": "function"
    },
    {
      "inputs": [
        {
          "internalType": "address",
          "name": "owner",
          "type": "address"
        }
      ],
      "name": "balanceOf",
      "outputs": [
        {
          "internalType": "uint256",
          "name": "",
          "type": "uint256"
        }
      ],
      "stateMutability": "view",
      "type": "function"
    },
    {
      "inputs": [],
      "name": "description",
      "outputs": [
        {
          "internalType": "string",
          "name": "",
          "type": "string"
        }
      ],
      "stateMutability": "view",
      "type": "function"
    },
    {
      "inputs": [],
      "name": "developer",
      "outputs": [
        {
          "internalType": "address",
          "name": "",
          "type": "address"
        }
      ],
      "stateMutability": "view",
      "type": "function"
    },
    {
      "inputs": [
        {
          "internalType": "string",
          "name": "_svgPart",
          "type": "string"
        },
        {
          "internalType": "uint256",
          "name": "_style",
          "type": "uint256"
        },
        {
          "internalType": "string",
          "name": "_tag",
          "type": "string"
        }
      ],
      "name": "generateSVG",
      "outputs": [
        {
          "internalType": "string",
          "name": "",
          "type": "string"
        }
      ],
      "stateMutability": "pure",
      "type": "function"
    },
    {
      "inputs": [
        {
          "internalType": "uint256",
          "name": "tokenId",
          "type": "uint256"
        }
      ],
      "name": "getApproved",
      "outputs": [
        {
          "internalType": "address",
          "name": "",
          "type": "address"
        }
      ],
      "stateMutability": "view",
      "type": "function"
    },
    {
      "inputs": [],
      "name": "getCurrentToken",
      "outputs": [
        {
          "internalType": "uint256",
          "name": "",
          "type": "uint256"
        }
      ],
      "stateMutability": "view",
      "type": "function"
    },
    {
      "inputs": [
        {
          "internalType": "address",
          "name": "owner",
          "type": "address"
        },
        {
          "internalType": "address",
          "name": "operator",
          "type": "address"
        }
      ],
      "name": "isApprovedForAll",
      "outputs": [
        {
          "internalType": "bool",
          "name": "",
          "type": "bool"
        }
      ],
      "stateMutability": "view",
      "type": "function"
    },
    {
      "inputs": [
        {
          "components": [
            {
              "internalType": "string",
              "name": "group",
              "type": "string"
            },
            {
              "internalType": "string",
              "name": "category",
              "type": "string"
            },
            {
              "internalType": "string",
              "name": "name",
              "type": "string"
            },
            {
              "internalType": "string",
              "name": "minter",
              "type": "string"
            },
            {
              "internalType": "address",
              "name": "soulbound",
              "type": "address"
            },
            {
              "internalType": "bytes",
              "name": "metadata",
              "type": "bytes"
            },
            {
              "components": [
                {
                  "internalType": "bytes",
                  "name": "body",
                  "type": "bytes"
                },
                {
                  "internalType": "string",
                  "name": "color",
                  "type": "string"
                }
              ],
              "internalType": "struct IAssetStoreRegistry.Part[]",
              "name": "parts",
              "type": "tuple[]"
            }
          ],
          "internalType": "struct IAssetStoreRegistry.AssetInfo",
          "name": "_assetInfo",
          "type": "tuple"
        },
        {
          "internalType": "uint256",
          "name": "_affiliate",
          "type": "uint256"
        }
      ],
      "name": "mintWithAsset",
      "outputs": [],
      "stateMutability": "nonpayable",
      "type": "function"
    },
    {
      "inputs": [],
      "name": "name",
      "outputs": [
        {
          "internalType": "string",
          "name": "",
          "type": "string"
        }
      ],
      "stateMutability": "view",
      "type": "function"
    },
    {
      "inputs": [],
      "name": "owner",
      "outputs": [
        {
          "internalType": "address",
          "name": "",
          "type": "address"
        }
      ],
      "stateMutability": "view",
      "type": "function"
    },
    {
      "inputs": [
        {
          "internalType": "uint256",
          "name": "tokenId",
          "type": "uint256"
        }
      ],
      "name": "ownerOf",
      "outputs": [
        {
          "internalType": "address",
          "name": "",
          "type": "address"
        }
      ],
      "stateMutability": "view",
      "type": "function"
    },
    {
      "inputs": [],
      "name": "proxyRegistry",
      "outputs": [
        {
          "internalType": "contract IProxyRegistry",
          "name": "",
          "type": "address"
        }
      ],
      "stateMutability": "view",
      "type": "function"
    },
    {
      "inputs": [],
      "name": "registry",
      "outputs": [
        {
          "internalType": "contract IAssetStoreRegistry",
          "name": "",
          "type": "address"
        }
      ],
      "stateMutability": "view",
      "type": "function"
    },
    {
      "inputs": [],
      "name": "renounceOwnership",
      "outputs": [],
      "stateMutability": "nonpayable",
      "type": "function"
    },
    {
      "inputs": [
        {
          "internalType": "address",
          "name": "from",
          "type": "address"
        },
        {
          "internalType": "address",
          "name": "to",
          "type": "address"
        },
        {
          "internalType": "uint256",
          "name": "tokenId",
          "type": "uint256"
        }
      ],
      "name": "safeTransferFrom",
      "outputs": [],
      "stateMutability": "nonpayable",
      "type": "function"
    },
    {
      "inputs": [
        {
          "internalType": "address",
          "name": "from",
          "type": "address"
        },
        {
          "internalType": "address",
          "name": "to",
          "type": "address"
        },
        {
          "internalType": "uint256",
          "name": "tokenId",
          "type": "uint256"
        },
        {
          "internalType": "bytes",
          "name": "_data",
          "type": "bytes"
        }
      ],
      "name": "safeTransferFrom",
      "outputs": [],
      "stateMutability": "nonpayable",
      "type": "function"
    },
    {
      "inputs": [
        {
          "internalType": "address",
          "name": "operator",
          "type": "address"
        },
        {
          "internalType": "bool",
          "name": "approved",
          "type": "bool"
        }
      ],
      "name": "setApprovalForAll",
      "outputs": [],
      "stateMutability": "nonpayable",
      "type": "function"
    },
    {
      "inputs": [
        {
          "internalType": "string",
          "name": "_description",
          "type": "string"
        }
      ],
      "name": "setDescription",
      "outputs": [],
      "stateMutability": "nonpayable",
      "type": "function"
    },
    {
      "inputs": [],
      "name": "styles",
      "outputs": [
        {
          "internalType": "uint256",
          "name": "",
          "type": "uint256"
        }
      ],
      "stateMutability": "pure",
      "type": "function"
    },
    {
      "inputs": [
        {
          "internalType": "bytes4",
          "name": "interfaceId",
          "type": "bytes4"
        }
      ],
      "name": "supportsInterface",
      "outputs": [
        {
          "internalType": "bool",
          "name": "",
          "type": "bool"
        }
      ],
      "stateMutability": "view",
      "type": "function"
    },
    {
      "inputs": [],
      "name": "symbol",
      "outputs": [
        {
          "internalType": "string",
          "name": "",
          "type": "string"
        }
      ],
      "stateMutability": "view",
      "type": "function"
    },
    {
      "inputs": [
        {
          "internalType": "uint256",
          "name": "_tokenId",
          "type": "uint256"
        }
      ],
      "name": "tokenURI",
      "outputs": [
        {
          "internalType": "string",
          "name": "",
          "type": "string"
        }
      ],
      "stateMutability": "view",
      "type": "function"
    },
    {
      "inputs": [],
      "name": "tokensPerAsset",
      "outputs": [
        {
          "internalType": "uint256",
          "name": "",
          "type": "uint256"
        }
      ],
      "stateMutability": "pure",
      "type": "function"
    },
    {
      "inputs": [],
      "name": "totalSupply",
      "outputs": [
        {
          "internalType": "uint256",
          "name": "",
          "type": "uint256"
        }
      ],
      "stateMutability": "view",
      "type": "function"
    },
    {
      "inputs": [
        {
          "internalType": "address",
          "name": "from",
          "type": "address"
        },
        {
          "internalType": "address",
          "name": "to",
          "type": "address"
        },
        {
          "internalType": "uint256",
          "name": "tokenId",
          "type": "uint256"
        }
      ],
      "name": "transferFrom",
      "outputs": [],
      "stateMutability": "nonpayable",
      "type": "function"
    },
    {
      "inputs": [
        {
          "internalType": "address",
          "name": "newOwner",
          "type": "address"
        }
      ],
      "name": "transferOwnership",
      "outputs": [],
      "stateMutability": "nonpayable",
      "type": "function"
    }
  ],
  "bytecode": "0x6101c060405260aa60e081815290620034346101003980516200002b91600a916020909101906200019b565b503480156200003957600080fd5b50604051620034de380380620034de8339810160408190526200005c9162000241565b6040518060400160405280601d81526020017f4b616d6f6e2053796d626f6c732062792048616b6b6f204461696f646f0000008152506040518060400160405280600581526020016425a0a6a7a760d91b815250620000ca620000c46200014760201b60201c565b6200014b565b8151620000df9060039060208501906200019b565b508051620000f59060049060208401906200019b565b5060006001555050606093841b6001600160601b031990811660805292841b831660a052600b80546001600160a01b0319166001600160a01b03939093169290921790915590911b1660c052620002ff565b3390565b600080546001600160a01b038381166001600160a01b0319831681178455604051919092169283917f8be0079c531659141344cd1fd0a4f28419497f9722a3daafe3b4186f6b6457e09190a35050565b828054620001a990620002a9565b90600052602060002090601f016020900481019282620001cd576000855562000218565b82601f10620001e857805160ff191683800117855562000218565b8280016001018555821562000218579182015b8281111562000218578251825591602001919060010190620001fb565b50620002269291506200022a565b5090565b5b808211156200022657600081556001016200022b565b600080600080608085870312156200025857600080fd5b84516200026581620002e6565b60208601519094506200027881620002e6565b60408601519093506200028b81620002e6565b60608601519092506200029e81620002e6565b939692955090935050565b600181811c90821680620002be57607f821691505b60208210811415620002e057634e487b7160e01b600052602260045260246000fd5b50919050565b6001600160a01b0381168114620002fc57600080fd5b50565b60805160601c60a05160601c60c05160601c6130d96200035b6000396000818161039801526115240152600081816102d501528181611316015281816113cf0152611ac70152600081816103320152610e1001526130d96000f3fe608060405234801561001057600080fd5b50600436106101ce5760003560e01c8063715018a611610104578063a22cb465116100a2578063ca4b208b11610071578063ca4b208b146103e0578063e985e9c5146103f3578063ef2d174614610406578063f2fde38b1461040e57600080fd5b8063a22cb46514610380578063b50cbd9f14610393578063b88d4fde146103ba578063c87b56dd146103cd57600080fd5b80637b103999116100de5780637b1039991461032d5780638da5cb5b1461035457806390c3f38f1461036557806395d89b411461037857600080fd5b8063715018a61461031d5780637284e41614610325578063786f94c6146102b657600080fd5b80632ab72d2f116101715780634f38687b1161014b5780634f38687b146102bd578063597a0e36146102d05780636352211e146102f757806370a082311461030a57600080fd5b80632ab72d2f1461029057806342842e0e146102a35780634b00371f146102b657600080fd5b8063081812fc116101ad578063081812fc14610227578063095ea7b31461025257806318160ddd1461026757806323b872dd1461027d57600080fd5b80626e59e9146101d357806301ffc9a7146101fc57806306fdde031461021f575b600080fd5b6101e66101e1366004612221565b610421565b6040516101f39190612cf0565b60405180910390f35b61020f61020a36600461217d565b6108b4565b60405190151581526020016101f3565b6101e6610951565b61023a610235366004612522565b6109e3565b6040516001600160a01b0390911681526020016101f3565b610265610260366004612151565b610a40565b005b600254600154035b6040519081526020016101f3565b61026561028b366004612071565b610b06565b61026f61029e366004612522565b610ce3565b6102656102b1366004612071565b610d8a565b600a61026f565b6102656102cb3660046123e8565b610daa565b61023a7f000000000000000000000000000000000000000000000000000000000000000081565b61023a610305366004612522565b610f77565b61026f610318366004611ffe565b610f82565b610265610fea565b6101e6611050565b61023a7f000000000000000000000000000000000000000000000000000000000000000081565b6000546001600160a01b031661023a565b6102656103733660046121ec565b6110de565b6101e661114f565b61026561038e36600461211e565b61115e565b61023a7f000000000000000000000000000000000000000000000000000000000000000081565b6102656103c83660046120b2565b61120d565b6101e66103db366004612522565b611251565b600b5461023a906001600160a01b031681565b61020f610401366004612038565b6114e5565b61026f6115e6565b61026561041c366004611ffe565b6115f6565b6060600060405180610140016040528060405180604001604052806005815260200164626c61636b60d81b815250815260200160405180604001604052806005815260200164776869746560d81b8152508152602001604051806040016040528060078152602001662345464538414360c81b81525081526020016040518060400160405280600781526020017f234546453541460000000000000000000000000000000000000000000000000081525081526020016040518060400160405280600781526020017f233542333331390000000000000000000000000000000000000000000000000081525081526020016040518060400160405280600781526020017f234246324531360000000000000000000000000000000000000000000000000081525081526020016040518060400160405280600781526020017f233039363341440000000000000000000000000000000000000000000000000081525081526020016040518060400160405280600781526020017f2333443539343300000000000000000000000000000000000000000000000000815250815260200160405180604001604052806005815260200164626c61636b60d81b81525081526020016040518060400160405280600a81526020016975726c2823676f6c642960b01b8152508152509050600060405180610140016040528060405180604001604052806005815260200164776869746560d81b815250815260200160405180604001604052806005815260200164626c61636b60d81b81525081526020016040518060400160405280600781526020017f233044393541300000000000000000000000000000000000000000000000000081525081526020016040518060400160405280600781526020017f23353834353642000000000000000000000000000000000000000000000000008152508152602001604051806040016040528060078152602001662345464538414360c81b8152508152602001604051806040016040528060078152602001662345464538414360c81b81525081526020016040518060400160405280600781526020016611a3232323232360c91b81525081526020016040518060400160405280600781526020016611a3232323232360c91b81525081526020016040518060400160405280600a81526020016975726c2823676f6c642960b01b815250815260200160405180604001604052806005815260200164626c61636b60d81b81525081525090506000846040516020016107ca9190612a5a565b60408051601f19818403018152919052905060006107e9600a88612f83565b9050600060405180608001604052806049815260200161305b6049913989604051602001610818929190612863565b60405160208183030381529060405290506008821061085457806040516020016108429190612617565b60405160208183030381529060405290505b808583600a811061086757610867612fc3565b6020020151848685600a811061087f5761087f612fc3565b6020020151604051602001610897949392919061273c565b60408051808303601f190181529190529998505050505050505050565b60007f01ffc9a7000000000000000000000000000000000000000000000000000000006001600160e01b03198316148061091757507f80ac58cd000000000000000000000000000000000000000000000000000000006001600160e01b03198316145b8061094b57507f5b5e139f000000000000000000000000000000000000000000000000000000006001600160e01b03198316145b92915050565b60606003805461096090612f48565b80601f016020809104026020016040519081016040528092919081815260200182805461098c90612f48565b80156109d95780601f106109ae576101008083540402835291602001916109d9565b820191906000526020600020905b8154815290600101906020018083116109bc57829003601f168201915b5050505050905090565b60006109ee826116d8565b610a24576040517fcf4700e400000000000000000000000000000000000000000000000000000000815260040160405180910390fd5b506000908152600760205260409020546001600160a01b031690565b6000610a4b82610f77565b9050336001600160a01b03821614610a9d57610a6781336114e5565b610a9d576040517fcfb3b94200000000000000000000000000000000000000000000000000000000815260040160405180910390fd5b600082815260076020526040808220805473ffffffffffffffffffffffffffffffffffffffff19166001600160a01b0387811691821790925591518593918516917f8c5be1e5ebec7d5bd14f71427d1e84f3dd0314c0f7b2291e5b200ac8c7c3b92591a4505050565b6000610b1182611700565b9050836001600160a01b0316816001600160a01b031614610b5e576040517fa114810000000000000000000000000000000000000000000000000000000000815260040160405180910390fd5b60008281526007602052604090208054338082146001600160a01b03881690911417610bc457610b8e86336114e5565b610bc4576040517f59c896be00000000000000000000000000000000000000000000000000000000815260040160405180910390fd5b6001600160a01b038516610c04576040517fea553b3400000000000000000000000000000000000000000000000000000000815260040160405180910390fd5b8015610c0f57600082555b6001600160a01b038681166000908152600660205260408082208054600019019055918716808252919020805460010190554260a01b17600160e11b17600085815260056020526040902055600160e11b8316610c9a5760018401600081815260056020526040902054610c98576001548114610c985760008181526005602052604090208490555b505b83856001600160a01b0316876001600160a01b03167fddf252ad1be2c89b69c2b068fc378daa952ba7f163c4a11628f55a4df523b3ef60405160405180910390a4505050505050565b6000610cee826116d8565b610d655760405162461bcd60e51b815260206004820152602c60248201527f4b616d6f6e546f6b656e2e617373657449644f66546f6b656e3a206e6f6e657860448201527f697374656e7420746f6b656e000000000000000000000000000000000000000060648201526084015b60405180910390fd5b60096000610d74600a85612ed2565b8152602001908152602001600020549050919050565b610da58383836040518060200160405280600081525061120d565b505050565b604080518082018252601f81527f48616b6b6f204461696f646f202843432d4259206571756976616c656e74290060208201528352517f5b7eea860000000000000000000000000000000000000000000000000000000081526000906001600160a01b037f00000000000000000000000000000000000000000000000000000000000000001690635b7eea8690610e45908690600401612d03565b602060405180830381600087803b158015610e5f57600080fd5b505af1158015610e73573d6000803e3d6000fd5b505050506040513d601f19601f82011682018060405250810190610e97919061253b565b90506000610ea460015490565b90508160096000610eb6600a85612ed2565b8152602081019190915260400160002055610edc33610ed76001600a612f05565b61177a565b600083118015610ef05750610ef08361188a565b8015610f0d575033610f0184610f77565b6001600160a01b031614155b15610f2a57610f25610f1e84610f77565b600161177a565b610f71565b6002610f37600a83612ed2565b610f419190612f83565b610f5c57600b54610f25906001600160a01b0316600161177a565b610f71610f1e6000546001600160a01b031690565b50505050565b600061094b82611700565b60006001600160a01b038216610fc4576040517f8f4eb60400000000000000000000000000000000000000000000000000000000815260040160405180910390fd5b506001600160a01b031660009081526006602052604090205467ffffffffffffffff1690565b6000546001600160a01b031633146110445760405162461bcd60e51b815260206004820181905260248201527f4f776e61626c653a2063616c6c6572206973206e6f7420746865206f776e65726044820152606401610d5c565b61104e600061189e565b565b600a805461105d90612f48565b80601f016020809104026020016040519081016040528092919081815260200182805461108990612f48565b80156110d65780601f106110ab576101008083540402835291602001916110d6565b820191906000526020600020905b8154815290600101906020018083116110b957829003601f168201915b505050505081565b6000546001600160a01b031633146111385760405162461bcd60e51b815260206004820181905260248201527f4f776e61626c653a2063616c6c6572206973206e6f7420746865206f776e65726044820152606401610d5c565b805161114b90600a906020840190611da1565b5050565b60606004805461096090612f48565b6001600160a01b0382163314156111a1576040517fb06307db00000000000000000000000000000000000000000000000000000000815260040160405180910390fd5b3360008181526008602090815260408083206001600160a01b03871680855290835292819020805460ff191686151590811790915590519081529192917f17307eab39ab6107e8899845ad3d59bd9653f200f220920489ca2b5937696c31910160405180910390a35050565b611218848484610b06565b6001600160a01b0383163b15610f7157611234848484846118fb565b610f71576040516368d2bf6b60e11b815260040160405180910390fd5b606061125c826116d8565b6112ce5760405162461bcd60e51b815260206004820152602660248201527f4b616d6f6e546f6b656e2e746f6b656e5552493a206e6f6e6578697374656e7460448201527f20746f6b656e00000000000000000000000000000000000000000000000000006064820152608401610d5c565b60006112d983610ce3565b6040517f4378a6e3000000000000000000000000000000000000000000000000000000008152600481018290529091506000906001600160a01b037f00000000000000000000000000000000000000000000000000000000000000001690634378a6e39060240160006040518083038186803b15801561135857600080fd5b505afa15801561136c573d6000803e3d6000fd5b505050506040513d6000823e601f3d908101601f19168201604052611394919081019061228e565b60608101516040517f34320bf10000000000000000000000000000000000000000000000000000000081529192506000916001600160a01b037f000000000000000000000000000000000000000000000000000000000000000016916334320bf191611404918791600401612dd8565b60006040518083038186803b15801561141c57600080fd5b505afa158015611430573d6000803e3d6000fd5b505050506040513d6000823e601f3d908101601f1916820160405261145891908101906121b7565b905060006114758261146b600a89612f83565b8560600151610421565b90506114bb8360400151600a61148b89876119f3565b61149485611c04565b6040516020016114a79493929190612892565b604051602081830303815290604052611c04565b6040516020016114cb9190612a9f565b604051602081830303815290604052945050505050919050565b6040517fc45527910000000000000000000000000000000000000000000000000000000081526001600160a01b038381166004830152600091818416917f0000000000000000000000000000000000000000000000000000000000000000169063c45527919060240160206040518083038186803b15801561156657600080fd5b505afa15801561157a573d6000803e3d6000fd5b505050506040513d601f19601f8201168201806040525081019061159e919061201b565b6001600160a01b031614156115b55750600161094b565b6001600160a01b0380841660009081526008602090815260408083209386168352929052205460ff165b9392505050565b60006115f160015490565b905090565b6000546001600160a01b031633146116505760405162461bcd60e51b815260206004820181905260248201527f4f776e61626c653a2063616c6c6572206973206e6f7420746865206f776e65726044820152606401610d5c565b6001600160a01b0381166116cc5760405162461bcd60e51b815260206004820152602660248201527f4f776e61626c653a206e6577206f776e657220697320746865207a65726f206160448201527f64647265737300000000000000000000000000000000000000000000000000006064820152608401610d5c565b6116d58161189e565b50565b60006001548210801561094b575050600090815260056020526040902054600160e01b161590565b60008160015481101561174857600081815260056020526040902054600160e01b8116611746575b806115df575060001901600081815260056020526040902054611728565b505b6040517fdf2d9b4200000000000000000000000000000000000000000000000000000000815260040160405180910390fd5b6001546001600160a01b0383166117bd576040517f2e07630000000000000000000000000000000000000000000000000000000000815260040160405180910390fd5b816117f4576040517fb562e8dd00000000000000000000000000000000000000000000000000000000815260040160405180910390fd5b6001600160a01b038316600081815260066020526040902080546801000000000000000185020190554260a01b6001841460e11b1717600082815260056020526040902055808281015b6040516001830192906001600160a01b038716906000907fddf252ad1be2c89b69c2b068fc378daa952ba7f163c4a11628f55a4df523b3ef908290a480821061183e5760015550505050565b6000611897600a83612f83565b1592915050565b600080546001600160a01b0383811673ffffffffffffffffffffffffffffffffffffffff19831681178455604051919092169283917f8be0079c531659141344cd1fd0a4f28419497f9722a3daafe3b4186f6b6457e09190a35050565b604051630a85bd0160e11b81526000906001600160a01b0385169063150b7a0290611930903390899088908890600401612cb4565b602060405180830381600087803b15801561194a57600080fd5b505af192505050801561197a575060408051601f3d908101601f191682019092526119779181019061219a565b60015b6119d5573d8080156119a8576040519150601f19603f3d011682016040523d82523d6000602084013e6119ad565b606091505b5080516119cd576040516368d2bf6b60e11b815260040160405180910390fd5b805181602001fd5b6001600160e01b031916630a85bd0160e11b1490505b949350505050565b60606119fe8361188a565b611a3d576040518060400160405280600281526020017f4e6f000000000000000000000000000000000000000000000000000000000000815250611a74565b6040518060400160405280600381526020017f59657300000000000000000000000000000000000000000000000000000000008152505b825160208401516040850151608086015151611ac5576040518060400160405280600b81526020017f28616e6f6e796d6f757329000000000000000000000000000000000000000000815250611bd9565b7f00000000000000000000000000000000000000000000000000000000000000006001600160a01b031663a57cfb246040518163ffffffff1660e01b815260040160206040518083038186803b158015611b1e57600080fd5b505afa158015611b32573d6000803e3d6000fd5b505050506040513d601f19601f82011682018060405250810190611b56919061201b565b6001600160a01b031663841b9d9787608001516040518263ffffffff1660e01b8152600401611b859190612cf0565b60006040518083038186803b158015611b9d57600080fd5b505afa158015611bb1573d6000803e3d6000fd5b505050506040513d6000823e601f3d908101601f19168201604052611bd991908101906121b7565b604051602001611bed959493929190612ae4565b604051602081830303815290604052905092915050565b6060815160001415611c2457505060408051602081019091526000815290565b600060405180606001604052806040815260200161301b6040913990506000600384516002611c539190612eba565b611c5d9190612ed2565b611c68906004612ee6565b90506000611c77826020612eba565b67ffffffffffffffff811115611c8f57611c8f612fd9565b6040519080825280601f01601f191660200182016040528015611cb9576020820181803683370190505b509050818152600183018586518101602084015b81831015611d25576003830192508251603f8160121c168501518253600182019150603f81600c1c168501518253600182019150603f8160061c168501518253600182019150603f8116850151825350600101611ccd565b600389510660018114611d3f5760028114611d6b57611d93565b7f3d3d000000000000000000000000000000000000000000000000000000000000600119830152611d93565b7f3d000000000000000000000000000000000000000000000000000000000000006000198301525b509398975050505050505050565b828054611dad90612f48565b90600052602060002090601f016020900481019282611dcf5760008555611e15565b82601f10611de857805160ff1916838001178555611e15565b82800160010185558215611e15579182015b82811115611e15578251825591602001919060010190611dfa565b50611e21929150611e25565b5090565b5b80821115611e215760008155600101611e26565b8035611e4581612fef565b919050565b8051611e4581612fef565b600082601f830112611e6657600080fd5b8135602067ffffffffffffffff80831115611e8357611e83612fd9565b8260051b611e92838201612e61565b8481528381019087850183890186018a1015611ead57600080fd5b600093505b86841015611f4457803585811115611ec957600080fd5b89016040818c03601f1901811315611ee057600080fd5b611ee8612df1565b8883013588811115611ef957600080fd5b611f078e8b83870101611f51565b825250908201359087821115611f1c57600080fd5b611f2a8d8a84860101611f51565b818a01528552505060019390930192918501918501611eb2565b5098975050505050505050565b600082601f830112611f6257600080fd5b8135611f75611f7082612e92565b612e61565b818152846020838601011115611f8a57600080fd5b816020850160208301376000918101602001919091529392505050565b600082601f830112611fb857600080fd5b8151611fc6611f7082612e92565b818152846020838601011115611fdb57600080fd5b6119eb826020830160208701612f1c565b805161ffff81168114611e4557600080fd5b60006020828403121561201057600080fd5b81356115df81612fef565b60006020828403121561202d57600080fd5b81516115df81612fef565b6000806040838503121561204b57600080fd5b823561205681612fef565b9150602083013561206681612fef565b809150509250929050565b60008060006060848603121561208657600080fd5b833561209181612fef565b925060208401356120a181612fef565b929592945050506040919091013590565b600080600080608085870312156120c857600080fd5b84356120d381612fef565b935060208501356120e381612fef565b925060408501359150606085013567ffffffffffffffff81111561210657600080fd5b61211287828801611f51565b91505092959194509250565b6000806040838503121561213157600080fd5b823561213c81612fef565b91506020830135801515811461206657600080fd5b6000806040838503121561216457600080fd5b823561216f81612fef565b946020939093013593505050565b60006020828403121561218f57600080fd5b81356115df81613004565b6000602082840312156121ac57600080fd5b81516115df81613004565b6000602082840312156121c957600080fd5b815167ffffffffffffffff8111156121e057600080fd5b6119eb84828501611fa7565b6000602082840312156121fe57600080fd5b813567ffffffffffffffff81111561221557600080fd5b6119eb84828501611f51565b60008060006060848603121561223657600080fd5b833567ffffffffffffffff8082111561224e57600080fd5b61225a87838801611f51565b945060208601359350604086013591508082111561227757600080fd5b5061228486828701611f51565b9150509250925092565b6000602082840312156122a057600080fd5b815167ffffffffffffffff808211156122b857600080fd5b9083019061012082860312156122cd57600080fd5b6122d5612e1a565b8251828111156122e457600080fd5b6122f087828601611fa7565b82525060208301518281111561230557600080fd5b61231187828601611fa7565b60208301525060408301518281111561232957600080fd5b61233587828601611fa7565b60408301525060608301518281111561234d57600080fd5b61235987828601611fa7565b60608301525060808301518281111561237157600080fd5b61237d87828601611fa7565b60808301525061238f60a08401611e4a565b60a082015260c0830151828111156123a657600080fd5b6123b287828601611fa7565b60c0830152506123c460e08401611fec565b60e082015261010091506123d9828401611fec565b91810191909152949350505050565b600080604083850312156123fb57600080fd5b823567ffffffffffffffff8082111561241357600080fd5b9084019060e0828703121561242757600080fd5b61242f612e3e565b82358281111561243e57600080fd5b61244a88828601611f51565b82525060208301358281111561245f57600080fd5b61246b88828601611f51565b60208301525060408301358281111561248357600080fd5b61248f88828601611f51565b6040830152506060830135828111156124a757600080fd5b6124b388828601611f51565b6060830152506124c560808401611e3a565b608082015260a0830135828111156124dc57600080fd5b6124e888828601611f51565b60a08301525060c08301358281111561250057600080fd5b61250c88828601611e55565b60c0830152509660209590950135955050505050565b60006020828403121561253457600080fd5b5035919050565b60006020828403121561254d57600080fd5b5051919050565b600081518084526020808501808196508360051b8101915082860160005b858110156125c2578284038952815160408151818752612594828801826125cf565b915050868201519150858103878701526125ae81836125cf565b9a87019a9550505090840190600101612572565b5091979650505050505050565b600081518084526125e7816020860160208601612f1c565b601f01601f19169290920160200192915050565b6000815161260d818560208601612f1c565b9290920192915050565b60008251612629818460208701612f1c565b7f3c6c696e6561724772616469656e742069643d22676f6c64222078313d22302e9201918252507f32222078323d2230222079313d2230222079323d2231223e0a20203c73746f7060208201527f206f66667365743d223025222073746f702d636f6c6f723d222343434142303960408201527f222f3e0a203c73746f70206f66667365743d22353025222073746f702d636f6c60608201527f6f723d222346464631383622202f3e0a203c73746f70206f66667365743d223160808201527f303025222073746f702d636f6c6f723d2223434341423039222f3e0a3c2f6c6960a08201527f6e6561724772616469656e743e0a00000000000000000000000000000000000060c082015260ce01919050565b6000855161274e818460208a01612f1c565b80830190507f3c2f646566733e0a203c7265637420783d22302220793d22302220776964746881527f3d223130302522206865696768743d2231303025222066696c6c3d2200000000602082015285516127af81603c840160208a01612f1c565b7f22202f3e0a203c75736520687265663d22000000000000000000000000000000603c929091019182015284516127ed81604d840160208901612f1c565b7f222066696c6c3d22000000000000000000000000000000000000000000000000604d9290910191820152835161282b816055840160208801612f1c565b7f22202f3e0a3c2f7376673e0a0000000000000000000000000000000000000000605592909101918201526061019695505050505050565b60008351612875818460208801612f1c565b835190830190612889818360208801612f1c565b01949350505050565b7f7b226e616d65223a22000000000000000000000000000000000000000000000081526000855160206128cb8260098601838b01612f1c565b7f222c226465736372697074696f6e223a220000000000000000000000000000006009928501928301528654601a90600090600181811c908083168061291257607f831692505b86831081141561293057634e487b7160e01b85526022600452602485fd5b80801561294457600181146129595761298a565b60ff198516898801528389018701955061298a565b60008e81526020902060005b858110156129805781548b82018a0152908401908901612965565b505086848a010195505b5050505050612a4c612a23612a1d6129ce6129c8857f222c2261747472696275746573223a5b00000000000000000000000000000000815260100190565b8c6125fb565b7f5d2c22696d616765223a22646174613a696d6167652f7376672b786d6c3b626181527f736536342c000000000000000000000000000000000000000000000000000000602082015260250190565b896125fb565b7f227d000000000000000000000000000000000000000000000000000000000000815260020190565b9a9950505050505050505050565b7f2300000000000000000000000000000000000000000000000000000000000000815260008251612a92816001850160208701612f1c565b9190910160010192915050565b7f646174613a6170706c69636174696f6e2f6a736f6e3b6261736536342c000000815260008251612ad781601d850160208701612f1c565b91909101601d0192915050565b7f7b2274726169745f74797065223a225072696d617279222c2276616c7565223a815260007f22000000000000000000000000000000000000000000000000000000000000008060208401528751612b43816021860160208c01612f1c565b7f227d2c7b2274726169745f74797065223a2247726f7570222c2276616c7565226021918501918201527f3a2200000000000000000000000000000000000000000000000000000000000060418201528751612ba6816043840160208c01612f1c565b7f227d2c7b2274726169745f74797065223a2243617465676f7279222c2276616c604392909101918201527f7565223a2200000000000000000000000000000000000000000000000000000060638201528651612c0a816068840160208b01612f1c565b8082019150507f227d2c7b2274726169745f74797065223a224e616d65222c2276616c7565223a6068820152816088820152612ca7612a23612ca1612c52608985018a6125fb565b7f227d2c7b2274726169745f74797065223a224d696e746572222c2276616c756581527f223a220000000000000000000000000000000000000000000000000000000000602082015260230190565b876125fb565b9998505050505050505050565b60006001600160a01b03808716835280861660208401525083604083015260806060830152612ce660808301846125cf565b9695505050505050565b6020815260006115df60208301846125cf565b602081526000825160e06020840152612d206101008401826125cf565b90506020840151601f1980858403016040860152612d3e83836125cf565b92506040860151915080858403016060860152612d5b83836125cf565b92506060860151915080858403016080860152612d7883836125cf565b925060808601519150612d9660a08601836001600160a01b03169052565b60a08601519150808584030160c0860152612db183836125cf565b925060c08601519150808584030160e086015250612dcf8282612554565b95945050505050565b8281526040602082015260006119eb60408301846125cf565b6040805190810167ffffffffffffffff81118282101715612e1457612e14612fd9565b60405290565b604051610120810167ffffffffffffffff81118282101715612e1457612e14612fd9565b60405160e0810167ffffffffffffffff81118282101715612e1457612e14612fd9565b604051601f8201601f1916810167ffffffffffffffff81118282101715612e8a57612e8a612fd9565b604052919050565b600067ffffffffffffffff821115612eac57612eac612fd9565b50601f01601f191660200190565b60008219821115612ecd57612ecd612f97565b500190565b600082612ee157612ee1612fad565b500490565b6000816000190483118215151615612f0057612f00612f97565b500290565b600082821015612f1757612f17612f97565b500390565b60005b83811015612f37578181015183820152602001612f1f565b83811115610f715750506000910152565b600181811c90821680612f5c57607f821691505b60208210811415612f7d57634e487b7160e01b600052602260045260246000fd5b50919050565b600082612f9257612f92612fad565b500690565b634e487b7160e01b600052601160045260246000fd5b634e487b7160e01b600052601260045260246000fd5b634e487b7160e01b600052603260045260246000fd5b634e487b7160e01b600052604160045260246000fd5b6001600160a01b03811681146116d557600080fd5b6001600160e01b0319811681146116d557600080fdfe4142434445464748494a4b4c4d4e4f505152535455565758595a6162636465666768696a6b6c6d6e6f707172737475767778797a303132333435363738392b2f3c7376672076696577426f783d2230203020313032342031303234222020786d6c6e733d22687474703a2f2f7777772e77332e6f72672f323030302f737667223e0a3c646566733e0aa2646970667358221220037389fdd6c1fd3111cddc6111c38b2f345d4b7d4f3fb1be6fd14ffd7cbb2b2564736f6c6343000806003354686973206973206f6e65206f6620656666747320746f2063726561746520284f6e2d436861696e2041737365742053746f7265295b68747470733a2f2f617373657473746f72652e7774665d2e2020416c6c206b616d6f6e20766563746f72732077657265206372656174656420616e6420636f707972696768746564206279202848616b6b6f204461696f646f295b687474703a2f2f68616b6b6f2d6461696f646f2e636f6d5d2e",
  "linkReferences": {},
  "deployedLinkReferences": {}
}