{
  "_format": "hh-sol-artifact-1",
  "contractName": "KamonToken",
  "sourceName": "contracts/KamonToken.sol",
  "abi": [
    {
      "inputs": [
        {
          "internalType": "contract IAssetStoreRegistry",
          "name": "_registry",
          "type": "address"
        },
        {
          "internalType": "contract IAssetStore",
          "name": "_assetStore",
          "type": "address"
        },
        {
          "internalType": "address",
          "name": "_developer",
          "type": "address"
        },
        {
          "internalType": "contract IProxyRegistry",
          "name": "_proxyRegistry",
          "type": "address"
        }
      ],
      "stateMutability": "nonpayable",
      "type": "constructor"
    },
    {
      "inputs": [],
      "name": "ApprovalCallerNotOwnerNorApproved",
      "type": "error"
    },
    {
      "inputs": [],
      "name": "ApprovalQueryForNonexistentToken",
      "type": "error"
    },
    {
      "inputs": [],
      "name": "ApproveToCaller",
      "type": "error"
    },
    {
      "inputs": [],
      "name": "BalanceQueryForZeroAddress",
      "type": "error"
    },
    {
      "inputs": [],
      "name": "MintERC2309QuantityExceedsLimit",
      "type": "error"
    },
    {
      "inputs": [],
      "name": "MintToZeroAddress",
      "type": "error"
    },
    {
      "inputs": [],
      "name": "MintZeroQuantity",
      "type": "error"
    },
    {
      "inputs": [],
      "name": "OwnerQueryForNonexistentToken",
      "type": "error"
    },
    {
      "inputs": [],
      "name": "OwnershipNotInitializedForExtraData",
      "type": "error"
    },
    {
      "inputs": [],
      "name": "TransferCallerNotOwnerNorApproved",
      "type": "error"
    },
    {
      "inputs": [],
      "name": "TransferFromIncorrectOwner",
      "type": "error"
    },
    {
      "inputs": [],
      "name": "TransferToNonERC721ReceiverImplementer",
      "type": "error"
    },
    {
      "inputs": [],
      "name": "TransferToZeroAddress",
      "type": "error"
    },
    {
      "inputs": [],
      "name": "URIQueryForNonexistentToken",
      "type": "error"
    },
    {
      "anonymous": false,
      "inputs": [
        {
          "indexed": true,
          "internalType": "address",
          "name": "owner",
          "type": "address"
        },
        {
          "indexed": true,
          "internalType": "address",
          "name": "approved",
          "type": "address"
        },
        {
          "indexed": true,
          "internalType": "uint256",
          "name": "tokenId",
          "type": "uint256"
        }
      ],
      "name": "Approval",
      "type": "event"
    },
    {
      "anonymous": false,
      "inputs": [
        {
          "indexed": true,
          "internalType": "address",
          "name": "owner",
          "type": "address"
        },
        {
          "indexed": true,
          "internalType": "address",
          "name": "operator",
          "type": "address"
        },
        {
          "indexed": false,
          "internalType": "bool",
          "name": "approved",
          "type": "bool"
        }
      ],
      "name": "ApprovalForAll",
      "type": "event"
    },
    {
      "anonymous": false,
      "inputs": [
        {
          "indexed": true,
          "internalType": "uint256",
          "name": "fromTokenId",
          "type": "uint256"
        },
        {
          "indexed": false,
          "internalType": "uint256",
          "name": "toTokenId",
          "type": "uint256"
        },
        {
          "indexed": true,
          "internalType": "address",
          "name": "from",
          "type": "address"
        },
        {
          "indexed": true,
          "internalType": "address",
          "name": "to",
          "type": "address"
        }
      ],
      "name": "ConsecutiveTransfer",
      "type": "event"
    },
    {
      "anonymous": false,
      "inputs": [
        {
          "indexed": true,
          "internalType": "address",
          "name": "previousOwner",
          "type": "address"
        },
        {
          "indexed": true,
          "internalType": "address",
          "name": "newOwner",
          "type": "address"
        }
      ],
      "name": "OwnershipTransferred",
      "type": "event"
    },
    {
      "anonymous": false,
      "inputs": [
        {
          "indexed": true,
          "internalType": "address",
          "name": "from",
          "type": "address"
        },
        {
          "indexed": true,
          "internalType": "address",
          "name": "to",
          "type": "address"
        },
        {
          "indexed": true,
          "internalType": "uint256",
          "name": "tokenId",
          "type": "uint256"
        }
      ],
      "name": "Transfer",
      "type": "event"
    },
    {
      "inputs": [
        {
          "internalType": "address",
          "name": "to",
          "type": "address"
        },
        {
          "internalType": "uint256",
          "name": "tokenId",
          "type": "uint256"
        }
      ],
      "name": "approve",
      "outputs": [],
      "stateMutability": "nonpayable",
      "type": "function"
    },
    {
      "inputs": [
        {
          "internalType": "uint256",
          "name": "_tokenId",
          "type": "uint256"
        }
      ],
      "name": "assetIdOfToken",
      "outputs": [
        {
          "internalType": "uint256",
          "name": "",
          "type": "uint256"
        }
      ],
      "stateMutability": "view",
      "type": "function"
    },
    {
      "inputs": [],
      "name": "assetStore",
      "outputs": [
        {
          "internalType": "contract IAssetStore",
          "name": "",
          "type": "address"
        }
      ],
      "stateMutability": "view",
      "type": "function"
    },
    {
      "inputs": [
        {
          "internalType": "address",
          "name": "owner",
          "type": "address"
        }
      ],
      "name": "balanceOf",
      "outputs": [
        {
          "internalType": "uint256",
          "name": "",
          "type": "uint256"
        }
      ],
      "stateMutability": "view",
      "type": "function"
    },
    {
      "inputs": [],
      "name": "description",
      "outputs": [
        {
          "internalType": "string",
          "name": "",
          "type": "string"
        }
      ],
      "stateMutability": "view",
      "type": "function"
    },
    {
      "inputs": [],
      "name": "developer",
      "outputs": [
        {
          "internalType": "address",
          "name": "",
          "type": "address"
        }
      ],
      "stateMutability": "view",
      "type": "function"
    },
    {
      "inputs": [
        {
          "internalType": "string",
          "name": "_svgPart",
          "type": "string"
        },
        {
          "internalType": "uint256",
          "name": "_style",
          "type": "uint256"
        },
        {
          "internalType": "string",
          "name": "_tag",
          "type": "string"
        }
      ],
      "name": "generateSVG",
      "outputs": [
        {
          "internalType": "string",
          "name": "",
          "type": "string"
        }
      ],
      "stateMutability": "pure",
      "type": "function"
    },
    {
      "inputs": [
        {
          "internalType": "uint256",
          "name": "tokenId",
          "type": "uint256"
        }
      ],
      "name": "getApproved",
      "outputs": [
        {
          "internalType": "address",
          "name": "",
          "type": "address"
        }
      ],
      "stateMutability": "view",
      "type": "function"
    },
    {
      "inputs": [],
      "name": "getCurrentToken",
      "outputs": [
        {
          "internalType": "uint256",
          "name": "",
          "type": "uint256"
        }
      ],
      "stateMutability": "view",
      "type": "function"
    },
    {
      "inputs": [
        {
          "internalType": "address",
          "name": "owner",
          "type": "address"
        },
        {
          "internalType": "address",
          "name": "operator",
          "type": "address"
        }
      ],
      "name": "isApprovedForAll",
      "outputs": [
        {
          "internalType": "bool",
          "name": "",
          "type": "bool"
        }
      ],
      "stateMutability": "view",
      "type": "function"
    },
    {
      "inputs": [
        {
          "components": [
            {
              "internalType": "string",
              "name": "group",
              "type": "string"
            },
            {
              "internalType": "string",
              "name": "category",
              "type": "string"
            },
            {
              "internalType": "string",
              "name": "name",
              "type": "string"
            },
            {
              "internalType": "string",
              "name": "minter",
              "type": "string"
            },
            {
              "internalType": "address",
              "name": "soulbound",
              "type": "address"
            },
            {
              "internalType": "bytes",
              "name": "metadata",
              "type": "bytes"
            },
            {
              "components": [
                {
                  "internalType": "bytes",
                  "name": "body",
                  "type": "bytes"
                },
                {
                  "internalType": "string",
                  "name": "color",
                  "type": "string"
                }
              ],
              "internalType": "struct IAssetStoreRegistry.Part[]",
              "name": "parts",
              "type": "tuple[]"
            }
          ],
          "internalType": "struct IAssetStoreRegistry.AssetInfo",
          "name": "_assetInfo",
          "type": "tuple"
        },
        {
          "internalType": "uint256",
          "name": "_affiliate",
          "type": "uint256"
        }
      ],
      "name": "mintWithAsset",
      "outputs": [],
      "stateMutability": "nonpayable",
      "type": "function"
    },
    {
      "inputs": [],
      "name": "name",
      "outputs": [
        {
          "internalType": "string",
          "name": "",
          "type": "string"
        }
      ],
      "stateMutability": "view",
      "type": "function"
    },
    {
      "inputs": [],
      "name": "owner",
      "outputs": [
        {
          "internalType": "address",
          "name": "",
          "type": "address"
        }
      ],
      "stateMutability": "view",
      "type": "function"
    },
    {
      "inputs": [
        {
          "internalType": "uint256",
          "name": "tokenId",
          "type": "uint256"
        }
      ],
      "name": "ownerOf",
      "outputs": [
        {
          "internalType": "address",
          "name": "",
          "type": "address"
        }
      ],
      "stateMutability": "view",
      "type": "function"
    },
    {
      "inputs": [],
      "name": "proxyRegistry",
      "outputs": [
        {
          "internalType": "contract IProxyRegistry",
          "name": "",
          "type": "address"
        }
      ],
      "stateMutability": "view",
      "type": "function"
    },
    {
      "inputs": [],
      "name": "registry",
      "outputs": [
        {
          "internalType": "contract IAssetStoreRegistry",
          "name": "",
          "type": "address"
        }
      ],
      "stateMutability": "view",
      "type": "function"
    },
    {
      "inputs": [],
      "name": "renounceOwnership",
      "outputs": [],
      "stateMutability": "nonpayable",
      "type": "function"
    },
    {
      "inputs": [
        {
          "internalType": "address",
          "name": "from",
          "type": "address"
        },
        {
          "internalType": "address",
          "name": "to",
          "type": "address"
        },
        {
          "internalType": "uint256",
          "name": "tokenId",
          "type": "uint256"
        }
      ],
      "name": "safeTransferFrom",
      "outputs": [],
      "stateMutability": "nonpayable",
      "type": "function"
    },
    {
      "inputs": [
        {
          "internalType": "address",
          "name": "from",
          "type": "address"
        },
        {
          "internalType": "address",
          "name": "to",
          "type": "address"
        },
        {
          "internalType": "uint256",
          "name": "tokenId",
          "type": "uint256"
        },
        {
          "internalType": "bytes",
          "name": "_data",
          "type": "bytes"
        }
      ],
      "name": "safeTransferFrom",
      "outputs": [],
      "stateMutability": "nonpayable",
      "type": "function"
    },
    {
      "inputs": [
        {
          "internalType": "address",
          "name": "operator",
          "type": "address"
        },
        {
          "internalType": "bool",
          "name": "approved",
          "type": "bool"
        }
      ],
      "name": "setApprovalForAll",
      "outputs": [],
      "stateMutability": "nonpayable",
      "type": "function"
    },
    {
      "inputs": [
        {
          "internalType": "string",
          "name": "_description",
          "type": "string"
        }
      ],
      "name": "setDescription",
      "outputs": [],
      "stateMutability": "nonpayable",
      "type": "function"
    },
    {
      "inputs": [],
      "name": "styles",
      "outputs": [
        {
          "internalType": "uint256",
          "name": "",
          "type": "uint256"
        }
      ],
      "stateMutability": "pure",
      "type": "function"
    },
    {
      "inputs": [
        {
          "internalType": "bytes4",
          "name": "interfaceId",
          "type": "bytes4"
        }
      ],
      "name": "supportsInterface",
      "outputs": [
        {
          "internalType": "bool",
          "name": "",
          "type": "bool"
        }
      ],
      "stateMutability": "view",
      "type": "function"
    },
    {
      "inputs": [],
      "name": "symbol",
      "outputs": [
        {
          "internalType": "string",
          "name": "",
          "type": "string"
        }
      ],
      "stateMutability": "view",
      "type": "function"
    },
    {
      "inputs": [
        {
          "internalType": "uint256",
          "name": "_tokenId",
          "type": "uint256"
        }
      ],
      "name": "tokenURI",
      "outputs": [
        {
          "internalType": "string",
          "name": "",
          "type": "string"
        }
      ],
      "stateMutability": "view",
      "type": "function"
    },
    {
      "inputs": [],
      "name": "tokensPerAsset",
      "outputs": [
        {
          "internalType": "uint256",
          "name": "",
          "type": "uint256"
        }
      ],
      "stateMutability": "pure",
      "type": "function"
    },
    {
      "inputs": [],
      "name": "totalSupply",
      "outputs": [
        {
          "internalType": "uint256",
          "name": "",
          "type": "uint256"
        }
      ],
      "stateMutability": "view",
      "type": "function"
    },
    {
      "inputs": [
        {
          "internalType": "address",
          "name": "from",
          "type": "address"
        },
        {
          "internalType": "address",
          "name": "to",
          "type": "address"
        },
        {
          "internalType": "uint256",
          "name": "tokenId",
          "type": "uint256"
        }
      ],
      "name": "transferFrom",
      "outputs": [],
      "stateMutability": "nonpayable",
      "type": "function"
    },
    {
      "inputs": [
        {
          "internalType": "address",
          "name": "newOwner",
          "type": "address"
        }
      ],
      "name": "transferOwnership",
      "outputs": [],
      "stateMutability": "nonpayable",
      "type": "function"
    }
  ],
  "bytecode": "0x610160604052604e60e081815290620034146101003980516200002b91600a916020909101906200018f565b503480156200003957600080fd5b5060405162003462380380620034628339810160408190526200005c9162000235565b6040518060400160405280600e81526020016d4d6174657269616c2049636f6e7360901b81525060405180604001604052806008815260200167135055115492505360c21b815250620000be620000b86200013b60201b60201c565b6200013f565b8151620000d39060039060208501906200018f565b508051620000e99060049060208401906200018f565b5060006001555050606093841b6001600160601b031990811660805292841b831660a052600b80546001600160a01b0319166001600160a01b03939093169290921790915590911b1660c052620002f3565b3390565b600080546001600160a01b038381166001600160a01b0319831681178455604051919092169283917f8be0079c531659141344cd1fd0a4f28419497f9722a3daafe3b4186f6b6457e09190a35050565b8280546200019d906200029d565b90600052602060002090601f016020900481019282620001c157600085556200020c565b82601f10620001dc57805160ff19168380011785556200020c565b828001600101855582156200020c579182015b828111156200020c578251825591602001919060010190620001ef565b506200021a9291506200021e565b5090565b5b808211156200021a57600081556001016200021f565b600080600080608085870312156200024c57600080fd5b84516200025981620002da565b60208601519094506200026c81620002da565b60408601519093506200027f81620002da565b60608601519092506200029281620002da565b939692955090935050565b600181811c90821680620002b257607f821691505b60208210811415620002d457634e487b7160e01b600052602260045260246000fd5b50919050565b6001600160a01b0381168114620002f057600080fd5b50565b60805160601c60a05160601c60c05160601c6130c56200034f60003960008181610398015261121e0152600081816102d501528181611010015281816110c901526117bc0152600081816103320152610b0a01526130c56000f3fe608060405234801561001057600080fd5b50600436106101ce5760003560e01c8063715018a611610104578063a22cb465116100a2578063ca4b208b11610071578063ca4b208b146103e0578063e985e9c5146103f3578063ef2d174614610406578063f2fde38b1461040e57600080fd5b8063a22cb46514610380578063b50cbd9f14610393578063b88d4fde146103ba578063c87b56dd146103cd57600080fd5b80637b103999116100de5780637b1039991461032d5780638da5cb5b1461035457806390c3f38f1461036557806395d89b411461037857600080fd5b8063715018a61461031d5780637284e41614610325578063786f94c6146102b657600080fd5b80632ab72d2f116101715780634f38687b1161014b5780634f38687b146102bd578063597a0e36146102d05780636352211e146102f757806370a082311461030a57600080fd5b80632ab72d2f1461029057806342842e0e146102a35780634b00371f146102b657600080fd5b8063081812fc116101ad578063081812fc14610227578063095ea7b31461025257806318160ddd1461026757806323b872dd1461027d57600080fd5b80626e59e9146101d357806301ffc9a7146101fc57806306fdde031461021f575b600080fd5b6101e66101e1366004611f15565b610421565b6040516101f39190612adc565b60405180910390f35b61020f61020a366004611e71565b6105ae565b60405190151581526020016101f3565b6101e661064b565b61023a610235366004612216565b6106dd565b6040516001600160a01b0390911681526020016101f3565b610265610260366004611e45565b61073a565b005b600254600154035b6040519081526020016101f3565b61026561028b366004611d65565b610800565b61026f61029e366004612216565b6109dd565b6102656102b1366004611d65565b610a84565b600a61026f565b6102656102cb3660046120dc565b610aa4565b61023a7f000000000000000000000000000000000000000000000000000000000000000081565b61023a610305366004612216565b610c71565b61026f610318366004611cf2565b610c7c565b610265610ce4565b6101e6610d4a565b61023a7f000000000000000000000000000000000000000000000000000000000000000081565b6000546001600160a01b031661023a565b610265610373366004611ee0565b610dd8565b6101e6610e49565b61026561038e366004611e12565b610e58565b61023a7f000000000000000000000000000000000000000000000000000000000000000081565b6102656103c8366004611da6565b610f07565b6101e66103db366004612216565b610f4b565b600b5461023a906001600160a01b031681565b61020f610401366004611d2c565b6111df565b61026f6112e0565b61026561041c366004611cf2565b6112f0565b60606000826040516020016104369190612885565b60408051601f19818403018152610280830190915261025f80835290925060009190612e31602083013986604051602001610472929190612666565b604051602081830303815290604052905084600014156104b557808260405160200161049f929190612434565b6040516020818303038152906040529050610583565b6104c16001600a612cf1565b85101561055e5780826104d5600288612d6f565b15610515576040518060400160405280600581526020017f776869746500000000000000000000000000000000000000000000000000000081525061054c565b6040518060400160405280600581526020017f626c61636b0000000000000000000000000000000000000000000000000000008152505b60405160200161049f9392919061230b565b8082604051602001610571929190612514565b60405160208183030381529060405290505b8060405160200161059491906123f3565b604051602081830303815290604052925050509392505050565b60007f01ffc9a7000000000000000000000000000000000000000000000000000000006001600160e01b03198316148061061157507f80ac58cd000000000000000000000000000000000000000000000000000000006001600160e01b03198316145b8061064557507f5b5e139f000000000000000000000000000000000000000000000000000000006001600160e01b03198316145b92915050565b60606003805461065a90612d34565b80601f016020809104026020016040519081016040528092919081815260200182805461068690612d34565b80156106d35780601f106106a8576101008083540402835291602001916106d3565b820191906000526020600020905b8154815290600101906020018083116106b657829003601f168201915b5050505050905090565b60006106e8826113d2565b61071e576040517fcf4700e400000000000000000000000000000000000000000000000000000000815260040160405180910390fd5b506000908152600760205260409020546001600160a01b031690565b600061074582610c71565b9050336001600160a01b038216146107975761076181336111df565b610797576040517fcfb3b94200000000000000000000000000000000000000000000000000000000815260040160405180910390fd5b600082815260076020526040808220805473ffffffffffffffffffffffffffffffffffffffff19166001600160a01b0387811691821790925591518593918516917f8c5be1e5ebec7d5bd14f71427d1e84f3dd0314c0f7b2291e5b200ac8c7c3b92591a4505050565b600061080b826113fa565b9050836001600160a01b0316816001600160a01b031614610858576040517fa114810000000000000000000000000000000000000000000000000000000000815260040160405180910390fd5b60008281526007602052604090208054338082146001600160a01b038816909114176108be5761088886336111df565b6108be576040517f59c896be00000000000000000000000000000000000000000000000000000000815260040160405180910390fd5b6001600160a01b0385166108fe576040517fea553b3400000000000000000000000000000000000000000000000000000000815260040160405180910390fd5b801561090957600082555b6001600160a01b038681166000908152600660205260408082208054600019019055918716808252919020805460010190554260a01b17600160e11b17600085815260056020526040902055600160e11b831661099457600184016000818152600560205260409020546109925760015481146109925760008181526005602052604090208490555b505b83856001600160a01b0316876001600160a01b03167fddf252ad1be2c89b69c2b068fc378daa952ba7f163c4a11628f55a4df523b3ef60405160405180910390a4505050505050565b60006109e8826113d2565b610a5f5760405162461bcd60e51b815260206004820152602c60248201527f4b616d6f6e546f6b656e2e617373657449644f66546f6b656e3a206e6f6e657860448201527f697374656e7420746f6b656e000000000000000000000000000000000000000060648201526084015b60405180910390fd5b60096000610a6e600a85612cbe565b8152602001908152602001600020549050919050565b610a9f83838360405180602001604052806000815250610f07565b505050565b604080518082018252601f81527f48616b6b6f204461696f646f202843432d4259206571756976616c656e74290060208201528352517f5b7eea860000000000000000000000000000000000000000000000000000000081526000906001600160a01b037f00000000000000000000000000000000000000000000000000000000000000001690635b7eea8690610b3f908690600401612aef565b602060405180830381600087803b158015610b5957600080fd5b505af1158015610b6d573d6000803e3d6000fd5b505050506040513d601f19601f82011682018060405250810190610b91919061222f565b90506000610b9e60015490565b90508160096000610bb0600a85612cbe565b8152602081019190915260400160002055610bd633610bd16001600a612cf1565b611474565b600083118015610bea5750610bea83611584565b8015610c07575033610bfb84610c71565b6001600160a01b031614155b15610c2457610c1f610c1884610c71565b6001611474565b610c6b565b6004610c31600a83612cbe565b610c3b9190612d6f565b610c5657600b54610c1f906001600160a01b03166001611474565b610c6b610c186000546001600160a01b031690565b50505050565b6000610645826113fa565b60006001600160a01b038216610cbe576040517f8f4eb60400000000000000000000000000000000000000000000000000000000815260040160405180910390fd5b506001600160a01b031660009081526006602052604090205467ffffffffffffffff1690565b6000546001600160a01b03163314610d3e5760405162461bcd60e51b815260206004820181905260248201527f4f776e61626c653a2063616c6c6572206973206e6f7420746865206f776e65726044820152606401610a56565b610d486000611598565b565b600a8054610d5790612d34565b80601f0160208091040260200160405190810160405280929190818152602001828054610d8390612d34565b8015610dd05780601f10610da557610100808354040283529160200191610dd0565b820191906000526020600020905b815481529060010190602001808311610db357829003601f168201915b505050505081565b6000546001600160a01b03163314610e325760405162461bcd60e51b815260206004820181905260248201527f4f776e61626c653a2063616c6c6572206973206e6f7420746865206f776e65726044820152606401610a56565b8051610e4590600a906020840190611a95565b5050565b60606004805461065a90612d34565b6001600160a01b038216331415610e9b576040517fb06307db00000000000000000000000000000000000000000000000000000000815260040160405180910390fd5b3360008181526008602090815260408083206001600160a01b03871680855290835292819020805460ff191686151590811790915590519081529192917f17307eab39ab6107e8899845ad3d59bd9653f200f220920489ca2b5937696c31910160405180910390a35050565b610f12848484610800565b6001600160a01b0383163b15610c6b57610f2e848484846115f5565b610c6b576040516368d2bf6b60e11b815260040160405180910390fd5b6060610f56826113d2565b610fc85760405162461bcd60e51b815260206004820152602660248201527f4b616d6f6e546f6b656e2e746f6b656e5552493a206e6f6e6578697374656e7460448201527f20746f6b656e00000000000000000000000000000000000000000000000000006064820152608401610a56565b6000610fd3836109dd565b6040517f4378a6e3000000000000000000000000000000000000000000000000000000008152600481018290529091506000906001600160a01b037f00000000000000000000000000000000000000000000000000000000000000001690634378a6e39060240160006040518083038186803b15801561105257600080fd5b505afa158015611066573d6000803e3d6000fd5b505050506040513d6000823e601f3d908101601f1916820160405261108e9190810190611f82565b60608101516040517f34320bf10000000000000000000000000000000000000000000000000000000081529192506000916001600160a01b037f000000000000000000000000000000000000000000000000000000000000000016916334320bf1916110fe918791600401612bc4565b60006040518083038186803b15801561111657600080fd5b505afa15801561112a573d6000803e3d6000fd5b505050506040513d6000823e601f3d908101601f191682016040526111529190810190611eab565b9050600061116f82611165600a89612d6f565b8560600151610421565b90506111b58360400151600a61118589876116ed565b61118e856118f8565b6040516020016111a194939291906126bd565b6040516020818303038152906040526118f8565b6040516020016111c591906128ca565b604051602081830303815290604052945050505050919050565b6040517fc45527910000000000000000000000000000000000000000000000000000000081526001600160a01b038381166004830152600091818416917f0000000000000000000000000000000000000000000000000000000000000000169063c45527919060240160206040518083038186803b15801561126057600080fd5b505afa158015611274573d6000803e3d6000fd5b505050506040513d601f19601f820116820180604052508101906112989190611d0f565b6001600160a01b031614156112af57506001610645565b6001600160a01b0380841660009081526008602090815260408083209386168352929052205460ff165b9392505050565b60006112eb60015490565b905090565b6000546001600160a01b0316331461134a5760405162461bcd60e51b815260206004820181905260248201527f4f776e61626c653a2063616c6c6572206973206e6f7420746865206f776e65726044820152606401610a56565b6001600160a01b0381166113c65760405162461bcd60e51b815260206004820152602660248201527f4f776e61626c653a206e6577206f776e657220697320746865207a65726f206160448201527f64647265737300000000000000000000000000000000000000000000000000006064820152608401610a56565b6113cf81611598565b50565b600060015482108015610645575050600090815260056020526040902054600160e01b161590565b60008160015481101561144257600081815260056020526040902054600160e01b8116611440575b806112d9575060001901600081815260056020526040902054611422565b505b6040517fdf2d9b4200000000000000000000000000000000000000000000000000000000815260040160405180910390fd5b6001546001600160a01b0383166114b7576040517f2e07630000000000000000000000000000000000000000000000000000000000815260040160405180910390fd5b816114ee576040517fb562e8dd00000000000000000000000000000000000000000000000000000000815260040160405180910390fd5b6001600160a01b038316600081815260066020526040902080546801000000000000000185020190554260a01b6001841460e11b1717600082815260056020526040902055808281015b6040516001830192906001600160a01b038716906000907fddf252ad1be2c89b69c2b068fc378daa952ba7f163c4a11628f55a4df523b3ef908290a48082106115385760015550505050565b6000611591600a83612d6f565b1592915050565b600080546001600160a01b0383811673ffffffffffffffffffffffffffffffffffffffff19831681178455604051919092169283917f8be0079c531659141344cd1fd0a4f28419497f9722a3daafe3b4186f6b6457e09190a35050565b604051630a85bd0160e11b81526000906001600160a01b0385169063150b7a029061162a903390899088908890600401612aa0565b602060405180830381600087803b15801561164457600080fd5b505af1925050508015611674575060408051601f3d908101601f1916820190925261167191810190611e8e565b60015b6116cf573d8080156116a2576040519150601f19603f3d011682016040523d82523d6000602084013e6116a7565b606091505b5080516116c7576040516368d2bf6b60e11b815260040160405180910390fd5b805181602001fd5b6001600160e01b031916630a85bd0160e11b1490505b949350505050565b60606116f883611584565b611737576040518060400160405280600281526020017f4e6f00000000000000000000000000000000000000000000000000000000000081525061176e565b6040518060400160405280600381526020017f59657300000000000000000000000000000000000000000000000000000000008152505b825160208401516080850151516117ba576040518060400160405280600b81526020017f28616e6f6e796d6f7573290000000000000000000000000000000000000000008152506118ce565b7f00000000000000000000000000000000000000000000000000000000000000006001600160a01b031663a57cfb246040518163ffffffff1660e01b815260040160206040518083038186803b15801561181357600080fd5b505afa158015611827573d6000803e3d6000fd5b505050506040513d601f19601f8201168201806040525081019061184b9190611d0f565b6001600160a01b031663841b9d9786608001516040518263ffffffff1660e01b815260040161187a9190612adc565b60006040518083038186803b15801561189257600080fd5b505afa1580156118a6573d6000803e3d6000fd5b505050506040513d6000823e601f3d908101601f191682016040526118ce9190810190611eab565b6040516020016118e1949392919061290f565b604051602081830303815290604052905092915050565b606081516000141561191857505060408051602081019091526000815290565b6000604051806060016040528060408152602001612df160409139905060006003845160026119479190612ca6565b6119519190612cbe565b61195c906004612cd2565b9050600061196b826020612ca6565b67ffffffffffffffff81111561198357611983612daf565b6040519080825280601f01601f1916602001820160405280156119ad576020820181803683370190505b509050818152600183018586518101602084015b81831015611a19576003830192508251603f8160121c168501518253600182019150603f81600c1c168501518253600182019150603f8160061c168501518253600182019150603f81168501518253506001016119c1565b600389510660018114611a335760028114611a5f57611a87565b7f3d3d000000000000000000000000000000000000000000000000000000000000600119830152611a87565b7f3d000000000000000000000000000000000000000000000000000000000000006000198301525b509398975050505050505050565b828054611aa190612d34565b90600052602060002090601f016020900481019282611ac35760008555611b09565b82601f10611adc57805160ff1916838001178555611b09565b82800160010185558215611b09579182015b82811115611b09578251825591602001919060010190611aee565b50611b15929150611b19565b5090565b5b80821115611b155760008155600101611b1a565b8035611b3981612dc5565b919050565b8051611b3981612dc5565b600082601f830112611b5a57600080fd5b8135602067ffffffffffffffff80831115611b7757611b77612daf565b8260051b611b86838201612c4d565b8481528381019087850183890186018a1015611ba157600080fd5b600093505b86841015611c3857803585811115611bbd57600080fd5b89016040818c03601f1901811315611bd457600080fd5b611bdc612bdd565b8883013588811115611bed57600080fd5b611bfb8e8b83870101611c45565b825250908201359087821115611c1057600080fd5b611c1e8d8a84860101611c45565b818a01528552505060019390930192918501918501611ba6565b5098975050505050505050565b600082601f830112611c5657600080fd5b8135611c69611c6482612c7e565b612c4d565b818152846020838601011115611c7e57600080fd5b816020850160208301376000918101602001919091529392505050565b600082601f830112611cac57600080fd5b8151611cba611c6482612c7e565b818152846020838601011115611ccf57600080fd5b6116e5826020830160208701612d08565b805161ffff81168114611b3957600080fd5b600060208284031215611d0457600080fd5b81356112d981612dc5565b600060208284031215611d2157600080fd5b81516112d981612dc5565b60008060408385031215611d3f57600080fd5b8235611d4a81612dc5565b91506020830135611d5a81612dc5565b809150509250929050565b600080600060608486031215611d7a57600080fd5b8335611d8581612dc5565b92506020840135611d9581612dc5565b929592945050506040919091013590565b60008060008060808587031215611dbc57600080fd5b8435611dc781612dc5565b93506020850135611dd781612dc5565b925060408501359150606085013567ffffffffffffffff811115611dfa57600080fd5b611e0687828801611c45565b91505092959194509250565b60008060408385031215611e2557600080fd5b8235611e3081612dc5565b915060208301358015158114611d5a57600080fd5b60008060408385031215611e5857600080fd5b8235611e6381612dc5565b946020939093013593505050565b600060208284031215611e8357600080fd5b81356112d981612dda565b600060208284031215611ea057600080fd5b81516112d981612dda565b600060208284031215611ebd57600080fd5b815167ffffffffffffffff811115611ed457600080fd5b6116e584828501611c9b565b600060208284031215611ef257600080fd5b813567ffffffffffffffff811115611f0957600080fd5b6116e584828501611c45565b600080600060608486031215611f2a57600080fd5b833567ffffffffffffffff80821115611f4257600080fd5b611f4e87838801611c45565b9450602086013593506040860135915080821115611f6b57600080fd5b50611f7886828701611c45565b9150509250925092565b600060208284031215611f9457600080fd5b815167ffffffffffffffff80821115611fac57600080fd5b908301906101208286031215611fc157600080fd5b611fc9612c06565b825182811115611fd857600080fd5b611fe487828601611c9b565b825250602083015182811115611ff957600080fd5b61200587828601611c9b565b60208301525060408301518281111561201d57600080fd5b61202987828601611c9b565b60408301525060608301518281111561204157600080fd5b61204d87828601611c9b565b60608301525060808301518281111561206557600080fd5b61207187828601611c9b565b60808301525061208360a08401611b3e565b60a082015260c08301518281111561209a57600080fd5b6120a687828601611c9b565b60c0830152506120b860e08401611ce0565b60e082015261010091506120cd828401611ce0565b91810191909152949350505050565b600080604083850312156120ef57600080fd5b823567ffffffffffffffff8082111561210757600080fd5b9084019060e0828703121561211b57600080fd5b612123612c2a565b82358281111561213257600080fd5b61213e88828601611c45565b82525060208301358281111561215357600080fd5b61215f88828601611c45565b60208301525060408301358281111561217757600080fd5b61218388828601611c45565b60408301525060608301358281111561219b57600080fd5b6121a788828601611c45565b6060830152506121b960808401611b2e565b608082015260a0830135828111156121d057600080fd5b6121dc88828601611c45565b60a08301525060c0830135828111156121f457600080fd5b61220088828601611b49565b60c0830152509660209590950135955050505050565b60006020828403121561222857600080fd5b5035919050565b60006020828403121561224157600080fd5b5051919050565b600081518084526020808501808196508360051b8101915082860160005b858110156122b6578284038952815160408151818752612288828801826122c3565b915050868201519150858103878701526122a281836122c3565b9a87019a9550505090840190600101612266565b5091979650505050505050565b600081518084526122db816020860160208601612d08565b601f01601f19169290920160200192915050565b60008151612301818560208601612d08565b9290920192915050565b6000845161231d818460208901612d08565b80830190507f203c75736520687265663d22236261736522202f3e0a203c757365206872656681527f3d220000000000000000000000000000000000000000000000000000000000006020820152845161237e816022840160208901612d08565b7f222066696c6c3d220000000000000000000000000000000000000000000000006022929091019182015283516123bc81602a840160208801612d08565b7f22202f3e0a000000000000000000000000000000000000000000000000000000602a9290910191820152602f0195945050505050565b60008251612405818460208701612d08565b7f3c2f673e0a3c2f7376673e000000000000000000000000000000000000000000920191825250600b01919050565b60008351612446818460208801612d08565b80830190507f203c6d61736b2069643d2261737365744d61736b223e0a20203c75736520687281527f65663d2200000000000000000000000000000000000000000000000000000000602082015283516124a7816024840160208801612d08565b7f222066696c6c3d22776869746522202f3e0a203c2f6d61736b3e0a203c757365602492909101918201527f20687265663d22236261736522206d61736b3d2275726c282361737365744d6160448201526739b5949110179f0560c11b6064820152606c01949350505050565b60008351612526818460208801612d08565b80830190507f203c6d61736b2069643d2261737365744d61736b2220646573633d224d61746581527f7269616c2049636f6e73202841706163686520322e30292f536f6369616c2f5060208201527f75626c6963223e0a20203c7265637420783d22302220793d223022207769647460408201527f683d223130323422206865696768743d2231303234222066696c6c3d2277686960608201527f746522202f3e0a20203c75736520687265663d22000000000000000000000000608082015283516125f9816094840160208801612d08565b7f222066696c6c3d22626c61636b22202f3e0a203c2f6d61736b3e0a203c757365609492909101918201527f20687265663d22236261736522206d61736b3d2275726c282361737365744d6160b48201526739b5949110179f0560c11b60d482015260dc01949350505050565b60008351612678818460208801612d08565b83519083019061268c818360208801612d08565b7f3c2f646566733e0a3c672066696c7465723d2275726c2823663129223e0a00009101908152601e01949350505050565b7f7b226e616d65223a22000000000000000000000000000000000000000000000081526000855160206126f68260098601838b01612d08565b7f222c226465736372697074696f6e223a220000000000000000000000000000006009928501928301528654601a90600090600181811c908083168061273d57607f831692505b86831081141561275b57634e487b7160e01b85526022600452602485fd5b80801561276f5760018114612784576127b5565b60ff19851689880152838901870195506127b5565b60008e81526020902060005b858110156127ab5781548b82018a0152908401908901612790565b505086848a010195505b505050505061287761284e6128486127f96127f3857f222c2261747472696275746573223a5b00000000000000000000000000000000815260100190565b8c6122ef565b7f5d2c22696d616765223a22646174613a696d6167652f7376672b786d6c3b626181527f736536342c000000000000000000000000000000000000000000000000000000602082015260250190565b896122ef565b7f227d000000000000000000000000000000000000000000000000000000000000815260020190565b9a9950505050505050505050565b7f23000000000000000000000000000000000000000000000000000000000000008152600082516128bd816001850160208701612d08565b9190910160010192915050565b7f646174613a6170706c69636174696f6e2f6a736f6e3b6261736536342c00000081526000825161290281601d850160208701612d08565b91909101601d0192915050565b7f7b2274726169745f74797065223a225072696d617279222c2276616c7565223a81527f220000000000000000000000000000000000000000000000000000000000000060208201526000855161296d816021850160208a01612d08565b7f227d2c7b2274726169745f74797065223a2247726f7570222c2276616c7565226021918401918201527f3a22000000000000000000000000000000000000000000000000000000000000604182015285516129d0816043840160208a01612d08565b7f227d2c7b2274726169745f74797065223a2243617465676f7279222c2276616c604392909101918201527f7565223a2200000000000000000000000000000000000000000000000000000060638201528451612a34816068840160208901612d08565b7f227d2c7b2274726169745f74797065223a224d696e746572222c2276616c7565606892909101918201527f223a2200000000000000000000000000000000000000000000000000000000006088820152612a9561284e608b8301866122ef565b979650505050505050565b60006001600160a01b03808716835280861660208401525083604083015260806060830152612ad260808301846122c3565b9695505050505050565b6020815260006112d960208301846122c3565b602081526000825160e06020840152612b0c6101008401826122c3565b90506020840151601f1980858403016040860152612b2a83836122c3565b92506040860151915080858403016060860152612b4783836122c3565b92506060860151915080858403016080860152612b6483836122c3565b925060808601519150612b8260a08601836001600160a01b03169052565b60a08601519150808584030160c0860152612b9d83836122c3565b925060c08601519150808584030160e086015250612bbb8282612248565b95945050505050565b8281526040602082015260006116e560408301846122c3565b6040805190810167ffffffffffffffff81118282101715612c0057612c00612daf565b60405290565b604051610120810167ffffffffffffffff81118282101715612c0057612c00612daf565b60405160e0810167ffffffffffffffff81118282101715612c0057612c00612daf565b604051601f8201601f1916810167ffffffffffffffff81118282101715612c7657612c76612daf565b604052919050565b600067ffffffffffffffff821115612c9857612c98612daf565b50601f01601f191660200190565b60008219821115612cb957612cb9612d83565b500190565b600082612ccd57612ccd612d99565b500490565b6000816000190483118215151615612cec57612cec612d83565b500290565b600082821015612d0357612d03612d83565b500390565b60005b83811015612d23578181015183820152602001612d0b565b83811115610c6b5750506000910152565b600181811c90821680612d4857607f821691505b60208210811415612d6957634e487b7160e01b600052602260045260246000fd5b50919050565b600082612d7e57612d7e612d99565b500690565b634e487b7160e01b600052601160045260246000fd5b634e487b7160e01b600052601260045260246000fd5b634e487b7160e01b600052604160045260246000fd5b6001600160a01b03811681146113cf57600080fd5b6001600160e01b0319811681146113cf57600080fdfe4142434445464748494a4b4c4d4e4f505152535455565758595a6162636465666768696a6b6c6d6e6f707172737475767778797a303132333435363738392b2f3c7376672076696577426f783d2230203020313032342031303234222020786d6c6e733d22687474703a2f2f7777772e77332e6f72672f323030302f737667223e0a3c646566733e0a203c66696c7465722069643d2266312220783d22302220793d2230222077696474683d223230302522206865696768743d2232303025223e0a20203c66654f666673657420726573756c743d226f66664f75742220696e3d22536f75726365416c706861222064783d223234222064793d22333222202f3e0a20203c6665476175737369616e426c757220726573756c743d22626c75724f75742220696e3d226f66664f75742220737464446576696174696f6e3d22313622202f3e0a20203c6665426c656e6420696e3d22536f75726365477261706869632220696e323d22626c75724f757422206d6f64653d226e6f726d616c22202f3e0a203c2f66696c7465723e0a3c672069643d2262617365223e0a203c7265637420783d22302220793d2230222077696474683d2235313222206865696768743d22353132222066696c6c3d222334323835463422202f3e0a203c7265637420783d22302220793d22353132222077696474683d2235313222206865696768743d22353132222066696c6c3d222333344138353322202f3e0a203c7265637420783d223531322220793d2230222077696474683d2235313222206865696768743d22353132222066696c6c3d222346424243303522202f3e0a203c7265637420783d223531322220793d22353132222077696474683d2235313222206865696768743d22353132222066696c6c3d2223454134333335222f3e0a3c2f673ea264697066735822122064701129f1a8d1fe476ce0ddc103a4a3a538a4e285d51502ae1785f8c41238a864736f6c6343000806003354686973206973206f6e65206f6620656666747320746f2063726561746520284f6e2d436861696e2041737365742053746f7265295b68747470733a2f2f617373657473746f72652e7774665d2e",
  "linkReferences": {},
  "deployedLinkReferences": {}
}