{
  "_format": "hh-sol-artifact-1",
  "contractName": "MaterialToken",
  "sourceName": "contracts/MaterialToken.sol",
  "abi": [
    {
      "inputs": [
        {
          "internalType": "contract IAssetStoreRegistry",
          "name": "_registry",
          "type": "address"
        },
        {
          "internalType": "contract IAssetStore",
          "name": "_assetStore",
          "type": "address"
        },
        {
          "internalType": "address",
          "name": "_developer",
          "type": "address"
        },
        {
          "internalType": "contract IProxyRegistry",
          "name": "_proxyRegistry",
          "type": "address"
        }
      ],
      "stateMutability": "nonpayable",
      "type": "constructor"
    },
    {
      "inputs": [],
      "name": "ApprovalCallerNotOwnerNorApproved",
      "type": "error"
    },
    {
      "inputs": [],
      "name": "ApprovalQueryForNonexistentToken",
      "type": "error"
    },
    {
      "inputs": [],
      "name": "ApproveToCaller",
      "type": "error"
    },
    {
      "inputs": [],
      "name": "BalanceQueryForZeroAddress",
      "type": "error"
    },
    {
      "inputs": [],
      "name": "MintERC2309QuantityExceedsLimit",
      "type": "error"
    },
    {
      "inputs": [],
      "name": "MintToZeroAddress",
      "type": "error"
    },
    {
      "inputs": [],
      "name": "MintZeroQuantity",
      "type": "error"
    },
    {
      "inputs": [],
      "name": "OwnerQueryForNonexistentToken",
      "type": "error"
    },
    {
      "inputs": [],
      "name": "OwnershipNotInitializedForExtraData",
      "type": "error"
    },
    {
      "inputs": [],
      "name": "TransferCallerNotOwnerNorApproved",
      "type": "error"
    },
    {
      "inputs": [],
      "name": "TransferFromIncorrectOwner",
      "type": "error"
    },
    {
      "inputs": [],
      "name": "TransferToNonERC721ReceiverImplementer",
      "type": "error"
    },
    {
      "inputs": [],
      "name": "TransferToZeroAddress",
      "type": "error"
    },
    {
      "inputs": [],
      "name": "URIQueryForNonexistentToken",
      "type": "error"
    },
    {
      "anonymous": false,
      "inputs": [
        {
          "indexed": true,
          "internalType": "address",
          "name": "owner",
          "type": "address"
        },
        {
          "indexed": true,
          "internalType": "address",
          "name": "approved",
          "type": "address"
        },
        {
          "indexed": true,
          "internalType": "uint256",
          "name": "tokenId",
          "type": "uint256"
        }
      ],
      "name": "Approval",
      "type": "event"
    },
    {
      "anonymous": false,
      "inputs": [
        {
          "indexed": true,
          "internalType": "address",
          "name": "owner",
          "type": "address"
        },
        {
          "indexed": true,
          "internalType": "address",
          "name": "operator",
          "type": "address"
        },
        {
          "indexed": false,
          "internalType": "bool",
          "name": "approved",
          "type": "bool"
        }
      ],
      "name": "ApprovalForAll",
      "type": "event"
    },
    {
      "anonymous": false,
      "inputs": [
        {
          "indexed": true,
          "internalType": "uint256",
          "name": "fromTokenId",
          "type": "uint256"
        },
        {
          "indexed": false,
          "internalType": "uint256",
          "name": "toTokenId",
          "type": "uint256"
        },
        {
          "indexed": true,
          "internalType": "address",
          "name": "from",
          "type": "address"
        },
        {
          "indexed": true,
          "internalType": "address",
          "name": "to",
          "type": "address"
        }
      ],
      "name": "ConsecutiveTransfer",
      "type": "event"
    },
    {
      "anonymous": false,
      "inputs": [
        {
          "indexed": true,
          "internalType": "address",
          "name": "previousOwner",
          "type": "address"
        },
        {
          "indexed": true,
          "internalType": "address",
          "name": "newOwner",
          "type": "address"
        }
      ],
      "name": "OwnershipTransferred",
      "type": "event"
    },
    {
      "anonymous": false,
      "inputs": [
        {
          "indexed": true,
          "internalType": "address",
          "name": "from",
          "type": "address"
        },
        {
          "indexed": true,
          "internalType": "address",
          "name": "to",
          "type": "address"
        },
        {
          "indexed": true,
          "internalType": "uint256",
          "name": "tokenId",
          "type": "uint256"
        }
      ],
      "name": "Transfer",
      "type": "event"
    },
    {
      "inputs": [
        {
          "internalType": "address",
          "name": "to",
          "type": "address"
        },
        {
          "internalType": "uint256",
          "name": "tokenId",
          "type": "uint256"
        }
      ],
      "name": "approve",
      "outputs": [],
      "stateMutability": "nonpayable",
      "type": "function"
    },
    {
      "inputs": [],
      "name": "assetStore",
      "outputs": [
        {
          "internalType": "contract IAssetStore",
          "name": "",
          "type": "address"
        }
      ],
      "stateMutability": "view",
      "type": "function"
    },
    {
      "inputs": [
        {
          "internalType": "address",
          "name": "owner",
          "type": "address"
        }
      ],
      "name": "balanceOf",
      "outputs": [
        {
          "internalType": "uint256",
          "name": "",
          "type": "uint256"
        }
      ],
      "stateMutability": "view",
      "type": "function"
    },
    {
      "inputs": [],
      "name": "description",
      "outputs": [
        {
          "internalType": "string",
          "name": "",
          "type": "string"
        }
      ],
      "stateMutability": "view",
      "type": "function"
    },
    {
      "inputs": [],
      "name": "developer",
      "outputs": [
        {
          "internalType": "address",
          "name": "",
          "type": "address"
        }
      ],
      "stateMutability": "view",
      "type": "function"
    },
    {
      "inputs": [
        {
          "internalType": "string",
          "name": "_svgPart",
          "type": "string"
        },
        {
          "internalType": "uint256",
          "name": "_style",
          "type": "uint256"
        },
        {
          "internalType": "string",
          "name": "_tag",
          "type": "string"
        }
      ],
      "name": "generateSVG",
      "outputs": [
        {
          "internalType": "string",
          "name": "",
          "type": "string"
        }
      ],
      "stateMutability": "pure",
      "type": "function"
    },
    {
      "inputs": [
        {
          "internalType": "uint256",
          "name": "tokenId",
          "type": "uint256"
        }
      ],
      "name": "getApproved",
      "outputs": [
        {
          "internalType": "address",
          "name": "",
          "type": "address"
        }
      ],
      "stateMutability": "view",
      "type": "function"
    },
    {
      "inputs": [
        {
          "internalType": "uint256",
          "name": "_tokenId",
          "type": "uint256"
        }
      ],
      "name": "getAssetId",
      "outputs": [
        {
          "internalType": "uint256",
          "name": "",
          "type": "uint256"
        }
      ],
      "stateMutability": "view",
      "type": "function"
    },
    {
      "inputs": [],
      "name": "getCurrentToken",
      "outputs": [
        {
          "internalType": "uint256",
          "name": "",
          "type": "uint256"
        }
      ],
      "stateMutability": "view",
      "type": "function"
    },
    {
      "inputs": [
        {
          "internalType": "address",
          "name": "owner",
          "type": "address"
        },
        {
          "internalType": "address",
          "name": "operator",
          "type": "address"
        }
      ],
      "name": "isApprovedForAll",
      "outputs": [
        {
          "internalType": "bool",
          "name": "",
          "type": "bool"
        }
      ],
      "stateMutability": "view",
      "type": "function"
    },
    {
      "inputs": [
        {
          "components": [
            {
              "internalType": "string",
              "name": "group",
              "type": "string"
            },
            {
              "internalType": "string",
              "name": "category",
              "type": "string"
            },
            {
              "internalType": "string",
              "name": "name",
              "type": "string"
            },
            {
              "internalType": "string",
              "name": "minter",
              "type": "string"
            },
            {
              "internalType": "address",
              "name": "soulbound",
              "type": "address"
            },
            {
              "components": [
                {
                  "internalType": "bytes",
                  "name": "body",
                  "type": "bytes"
                },
                {
                  "internalType": "string",
                  "name": "color",
                  "type": "string"
                }
              ],
              "internalType": "struct IAssetStoreRegistry.Part[]",
              "name": "parts",
              "type": "tuple[]"
            }
          ],
          "internalType": "struct IAssetStoreRegistry.AssetInfo",
          "name": "_assetInfo",
          "type": "tuple"
        },
        {
          "internalType": "uint256",
          "name": "_affiliate",
          "type": "uint256"
        }
      ],
      "name": "mintWithAsset",
      "outputs": [],
      "stateMutability": "nonpayable",
      "type": "function"
    },
    {
      "inputs": [],
      "name": "name",
      "outputs": [
        {
          "internalType": "string",
          "name": "",
          "type": "string"
        }
      ],
      "stateMutability": "view",
      "type": "function"
    },
    {
      "inputs": [],
      "name": "owner",
      "outputs": [
        {
          "internalType": "address",
          "name": "",
          "type": "address"
        }
      ],
      "stateMutability": "view",
      "type": "function"
    },
    {
      "inputs": [
        {
          "internalType": "uint256",
          "name": "tokenId",
          "type": "uint256"
        }
      ],
      "name": "ownerOf",
      "outputs": [
        {
          "internalType": "address",
          "name": "",
          "type": "address"
        }
      ],
      "stateMutability": "view",
      "type": "function"
    },
    {
      "inputs": [],
      "name": "proxyRegistry",
      "outputs": [
        {
          "internalType": "contract IProxyRegistry",
          "name": "",
          "type": "address"
        }
      ],
      "stateMutability": "view",
      "type": "function"
    },
    {
      "inputs": [],
      "name": "registry",
      "outputs": [
        {
          "internalType": "contract IAssetStoreRegistry",
          "name": "",
          "type": "address"
        }
      ],
      "stateMutability": "view",
      "type": "function"
    },
    {
      "inputs": [],
      "name": "renounceOwnership",
      "outputs": [],
      "stateMutability": "nonpayable",
      "type": "function"
    },
    {
      "inputs": [
        {
          "internalType": "address",
          "name": "from",
          "type": "address"
        },
        {
          "internalType": "address",
          "name": "to",
          "type": "address"
        },
        {
          "internalType": "uint256",
          "name": "tokenId",
          "type": "uint256"
        }
      ],
      "name": "safeTransferFrom",
      "outputs": [],
      "stateMutability": "nonpayable",
      "type": "function"
    },
    {
      "inputs": [
        {
          "internalType": "address",
          "name": "from",
          "type": "address"
        },
        {
          "internalType": "address",
          "name": "to",
          "type": "address"
        },
        {
          "internalType": "uint256",
          "name": "tokenId",
          "type": "uint256"
        },
        {
          "internalType": "bytes",
          "name": "_data",
          "type": "bytes"
        }
      ],
      "name": "safeTransferFrom",
      "outputs": [],
      "stateMutability": "nonpayable",
      "type": "function"
    },
    {
      "inputs": [
        {
          "internalType": "address",
          "name": "operator",
          "type": "address"
        },
        {
          "internalType": "bool",
          "name": "approved",
          "type": "bool"
        }
      ],
      "name": "setApprovalForAll",
      "outputs": [],
      "stateMutability": "nonpayable",
      "type": "function"
    },
    {
      "inputs": [
        {
          "internalType": "bytes4",
          "name": "interfaceId",
          "type": "bytes4"
        }
      ],
      "name": "supportsInterface",
      "outputs": [
        {
          "internalType": "bool",
          "name": "",
          "type": "bool"
        }
      ],
      "stateMutability": "view",
      "type": "function"
    },
    {
      "inputs": [],
      "name": "symbol",
      "outputs": [
        {
          "internalType": "string",
          "name": "",
          "type": "string"
        }
      ],
      "stateMutability": "view",
      "type": "function"
    },
    {
      "inputs": [
        {
          "internalType": "uint256",
          "name": "_tokenId",
          "type": "uint256"
        }
      ],
      "name": "tokenURI",
      "outputs": [
        {
          "internalType": "string",
          "name": "",
          "type": "string"
        }
      ],
      "stateMutability": "view",
      "type": "function"
    },
    {
      "inputs": [],
      "name": "totalSupply",
      "outputs": [
        {
          "internalType": "uint256",
          "name": "",
          "type": "uint256"
        }
      ],
      "stateMutability": "view",
      "type": "function"
    },
    {
      "inputs": [
        {
          "internalType": "address",
          "name": "from",
          "type": "address"
        },
        {
          "internalType": "address",
          "name": "to",
          "type": "address"
        },
        {
          "internalType": "uint256",
          "name": "tokenId",
          "type": "uint256"
        }
      ],
      "name": "transferFrom",
      "outputs": [],
      "stateMutability": "nonpayable",
      "type": "function"
    },
    {
      "inputs": [
        {
          "internalType": "address",
          "name": "newOwner",
          "type": "address"
        }
      ],
      "name": "transferOwnership",
      "outputs": [],
      "stateMutability": "nonpayable",
      "type": "function"
    }
  ],
  "bytecode": "0x610160604052604e60e0818152906200319d6101003980516200002b91600a916020909101906200018f565b503480156200003957600080fd5b50604051620031eb380380620031eb8339810160408190526200005c9162000235565b6040518060400160405280600e81526020016d4d6174657269616c2049636f6e7360901b81525060405180604001604052806008815260200167135055115492505360c21b815250620000be620000b86200013b60201b60201c565b6200013f565b8151620000d39060039060208501906200018f565b508051620000e99060049060208401906200018f565b5060006001555050606093841b6001600160601b031990811660805292841b831660a052600b80546001600160a01b0319166001600160a01b03939093169290921790915590911b1660c052620002f3565b3390565b600080546001600160a01b038381166001600160a01b0319831681178455604051919092169283917f8be0079c531659141344cd1fd0a4f28419497f9722a3daafe3b4186f6b6457e09190a35050565b8280546200019d906200029d565b90600052602060002090601f016020900481019282620001c157600085556200020c565b82601f10620001dc57805160ff19168380011785556200020c565b828001600101855582156200020c579182015b828111156200020c578251825591602001919060010190620001ef565b506200021a9291506200021e565b5090565b5b808211156200021a57600081556001016200021f565b600080600080608085870312156200024c57600080fd5b84516200025981620002da565b60208601519094506200026c81620002da565b60408601519093506200027f81620002da565b60608601519092506200029281620002da565b939692955090935050565b600181811c90821680620002b257607f821691505b60208210811415620002d457634e487b7160e01b600052602260045260246000fd5b50919050565b6001600160a01b0381168114620002f057600080fd5b50565b60805160601c60a05160601c60c05160601c612e55620003486000396000818161035d015261113401526000818161028701528181610f0d0152610fea0152600081816102f70152610cc10152612e556000f3fe608060405234801561001057600080fd5b50600436106101ad5760003560e01c80637284e416116100ee578063b50cbd9f11610097578063ca4b208b11610071578063ca4b208b146103a5578063e985e9c5146103b8578063ef2d1746146103cb578063f2fde38b146103d357600080fd5b8063b50cbd9f14610358578063b88d4fde1461037f578063c87b56dd1461039257600080fd5b806395d89b41116100c857806395d89b411461032a578063a22cb46514610332578063aef436591461034557600080fd5b80637284e416146102ea5780637b103999146102f25780638da5cb5b1461031957600080fd5b806323b872dd1161015b57806361f547fd1161013557806361f547fd146102a95780636352211e146102bc57806370a08231146102cf578063715018a6146102e257600080fd5b806323b872dd1461025c57806342842e0e1461026f578063597a0e361461028257600080fd5b8063081812fc1161018c578063081812fc14610206578063095ea7b31461023157806318160ddd1461024657600080fd5b80626e59e9146101b257806301ffc9a7146101db57806306fdde03146101fe575b600080fd5b6101c56101c0366004611cec565b6103e6565b6040516101d29190612818565b60405180910390f35b6101ee6101e9366004611c7d565b610573565b60405190151581526020016101d2565b6101c5610610565b610219610214366004611fa0565b6106a2565b6040516001600160a01b0390911681526020016101d2565b61024461023f366004611c51565b6106ff565b005b600254600154035b6040519081526020016101d2565b61024461026a366004611b71565b6107c5565b61024461027d366004611b71565b6109a2565b6102197f000000000000000000000000000000000000000000000000000000000000000081565b61024e6102b7366004611fa0565b6109c2565b6102196102ca366004611fa0565b610a69565b61024e6102dd366004611afe565b610a74565b610244610adc565b6101c5610b42565b6102197f000000000000000000000000000000000000000000000000000000000000000081565b6000546001600160a01b0316610219565b6101c5610bd0565b610244610340366004611c1e565b610bdf565b610244610353366004611e8a565b610c8e565b6102197f000000000000000000000000000000000000000000000000000000000000000081565b61024461038d366004611bb2565b610e27565b6101c56103a0366004611fa0565b610e6b565b600b54610219906001600160a01b031681565b6101ee6103c6366004611b38565b6110f5565b61024e6111f6565b6102446103e1366004611afe565b611206565b60606000826040516020016103fb9190612752565b60408051601f19818403018152610280830190915261025f80835290925060009190612bc16020830139866040516020016104379291906123bf565b6040516020818303038152906040529050846000141561047a578082604051602001610464929190612143565b6040516020818303038152906040529050610548565b61048660016004612a50565b85101561052357808261049a600288612ae9565b156104da576040518060400160405280600581526020017f7768697465000000000000000000000000000000000000000000000000000000815250610511565b6040518060400160405280600581526020017f626c61636b0000000000000000000000000000000000000000000000000000008152505b6040516020016104649392919061201a565b8082604051602001610536929190612223565b60405160208183030381529060405290505b806040516020016105599190612102565b604051602081830303815290604052925050509392505050565b60007f01ffc9a7000000000000000000000000000000000000000000000000000000006001600160e01b0319831614806105d657507f80ac58cd000000000000000000000000000000000000000000000000000000006001600160e01b03198316145b8061060a57507f5b5e139f000000000000000000000000000000000000000000000000000000006001600160e01b03198316145b92915050565b60606003805461061f90612a93565b80601f016020809104026020016040519081016040528092919081815260200182805461064b90612a93565b80156106985780601f1061066d57610100808354040283529160200191610698565b820191906000526020600020905b81548152906001019060200180831161067b57829003601f168201915b5050505050905090565b60006106ad826112e8565b6106e3576040517fcf4700e400000000000000000000000000000000000000000000000000000000815260040160405180910390fd5b506000908152600760205260409020546001600160a01b031690565b600061070a82610a69565b9050336001600160a01b0382161461075c5761072681336110f5565b61075c576040517fcfb3b94200000000000000000000000000000000000000000000000000000000815260040160405180910390fd5b600082815260076020526040808220805473ffffffffffffffffffffffffffffffffffffffff19166001600160a01b0387811691821790925591518593918516917f8c5be1e5ebec7d5bd14f71427d1e84f3dd0314c0f7b2291e5b200ac8c7c3b92591a4505050565b60006107d082611310565b9050836001600160a01b0316816001600160a01b03161461081d576040517fa114810000000000000000000000000000000000000000000000000000000000815260040160405180910390fd5b60008281526007602052604090208054338082146001600160a01b038816909114176108835761084d86336110f5565b610883576040517f59c896be00000000000000000000000000000000000000000000000000000000815260040160405180910390fd5b6001600160a01b0385166108c3576040517fea553b3400000000000000000000000000000000000000000000000000000000815260040160405180910390fd5b80156108ce57600082555b6001600160a01b038681166000908152600660205260408082208054600019019055918716808252919020805460010190554260a01b17600160e11b17600085815260056020526040902055600160e11b831661095957600184016000818152600560205260409020546109575760015481146109575760008181526005602052604090208490555b505b83856001600160a01b0316876001600160a01b03167fddf252ad1be2c89b69c2b068fc378daa952ba7f163c4a11628f55a4df523b3ef60405160405180910390a4505050505050565b6109bd83838360405180602001604052806000815250610e27565b505050565b60006109cd826112e8565b610a445760405162461bcd60e51b815260206004820152602b60248201527f4d6174657269616c546f6b656e2e676574417373657449643a206e6f6e65786960448201527f7374656e7420746f6b656e00000000000000000000000000000000000000000060648201526084015b60405180910390fd5b60096000610a53600485612a1d565b8152602001908152602001600020549050919050565b600061060a82611310565b60006001600160a01b038216610ab6576040517f8f4eb60400000000000000000000000000000000000000000000000000000000815260040160405180910390fd5b506001600160a01b031660009081526006602052604090205467ffffffffffffffff1690565b6000546001600160a01b03163314610b365760405162461bcd60e51b815260206004820181905260248201527f4f776e61626c653a2063616c6c6572206973206e6f7420746865206f776e65726044820152606401610a3b565b610b40600061138a565b565b600a8054610b4f90612a93565b80601f0160208091040260200160405190810160405280929190818152602001828054610b7b90612a93565b8015610bc85780601f10610b9d57610100808354040283529160200191610bc8565b820191906000526020600020905b815481529060010190602001808311610bab57829003601f168201915b505050505081565b60606004805461061f90612a93565b6001600160a01b038216331415610c22576040517fb06307db00000000000000000000000000000000000000000000000000000000815260040160405180910390fd5b3360008181526008602090815260408083206001600160a01b03871680855290835292819020805460ff191686151590811790915590519081529192917f17307eab39ab6107e8899845ad3d59bd9653f200f220920489ca2b5937696c31910160405180910390a35050565b6040517fabca1e630000000000000000000000000000000000000000000000000000000081526000906001600160a01b037f0000000000000000000000000000000000000000000000000000000000000000169063abca1e6390610cf690869060040161282b565b602060405180830381600087803b158015610d1057600080fd5b505af1158015610d24573d6000803e3d6000fd5b505050506040513d601f19601f82011682018060405250810190610d489190611fb9565b90506000610d5560015490565b90508160096000610d67600485612a1d565b8152602081019190915260400160002055610d8d33610d8860016004612a50565b6113e7565b600083118015610da15750610da1836114f7565b8015610dbe575033610db284610a69565b6001600160a01b031614155b15610ddb57610dd6610dcf84610a69565b60016113e7565b610e21565b6004610de78183612a1d565b610df19190612ae9565b610e0c57600b54610dd6906001600160a01b031660016113e7565b610e21610dcf6000546001600160a01b031690565b50505050565b610e328484846107c5565b6001600160a01b0383163b15610e2157610e4e8484848461150b565b610e21576040516368d2bf6b60e11b815260040160405180910390fd5b6060610e76826112e8565b610ee85760405162461bcd60e51b815260206004820152602960248201527f4d6174657269616c546f6b656e2e746f6b656e5552493a206e6f6e657869737460448201527f656e7420746f6b656e00000000000000000000000000000000000000000000006064820152608401610a3b565b6000600981610ef8600486612a1d565b815260200190815260200160002054905060007f00000000000000000000000000000000000000000000000000000000000000006001600160a01b0316634378a6e3836040518263ffffffff1660e01b8152600401610f5991815260200190565b60006040518083038186803b158015610f7157600080fd5b505afa158015610f85573d6000803e3d6000fd5b505050506040513d6000823e601f3d908101601f19168201604052610fad9190810190611d59565b6040517fe3f24f02000000000000000000000000000000000000000000000000000000008152600481018490529091506000906001600160a01b037f0000000000000000000000000000000000000000000000000000000000000000169063e3f24f029060240160006040518083038186803b15801561102c57600080fd5b505afa158015611040573d6000803e3d6000fd5b505050506040513d6000823e601f3d908101601f191682016040526110689190810190611cb7565b905060006110858261107b600489612ae9565b85606001516103e6565b90506110cb8360400151600a61109b8987611603565b6110a485611707565b6040516020016110b79493929190612416565b604051602081830303815290604052611707565b6040516020016110db9190612797565b604051602081830303815290604052945050505050919050565b6040517fc45527910000000000000000000000000000000000000000000000000000000081526001600160a01b038381166004830152600091818416917f0000000000000000000000000000000000000000000000000000000000000000169063c45527919060240160206040518083038186803b15801561117657600080fd5b505afa15801561118a573d6000803e3d6000fd5b505050506040513d601f19601f820116820180604052508101906111ae9190611b1b565b6001600160a01b031614156111c55750600161060a565b6001600160a01b0380841660009081526008602090815260408083209386168352929052205460ff165b9392505050565b600061120160015490565b905090565b6000546001600160a01b031633146112605760405162461bcd60e51b815260206004820181905260248201527f4f776e61626c653a2063616c6c6572206973206e6f7420746865206f776e65726044820152606401610a3b565b6001600160a01b0381166112dc5760405162461bcd60e51b815260206004820152602660248201527f4f776e61626c653a206e6577206f776e657220697320746865207a65726f206160448201527f64647265737300000000000000000000000000000000000000000000000000006064820152608401610a3b565b6112e58161138a565b50565b60006001548210801561060a575050600090815260056020526040902054600160e01b161590565b60008160015481101561135857600081815260056020526040902054600160e01b8116611356575b806111ef575060001901600081815260056020526040902054611338565b505b6040517fdf2d9b4200000000000000000000000000000000000000000000000000000000815260040160405180910390fd5b600080546001600160a01b0383811673ffffffffffffffffffffffffffffffffffffffff19831681178455604051919092169283917f8be0079c531659141344cd1fd0a4f28419497f9722a3daafe3b4186f6b6457e09190a35050565b6001546001600160a01b03831661142a576040517f2e07630000000000000000000000000000000000000000000000000000000000815260040160405180910390fd5b81611461576040517fb562e8dd00000000000000000000000000000000000000000000000000000000815260040160405180910390fd5b6001600160a01b038316600081815260066020526040902080546801000000000000000185020190554260a01b6001841460e11b1717600082815260056020526040902055808281015b6040516001830192906001600160a01b038716906000907fddf252ad1be2c89b69c2b068fc378daa952ba7f163c4a11628f55a4df523b3ef908290a48082106114ab5760015550505050565b6000611504600483612ae9565b1592915050565b604051630a85bd0160e11b81526000906001600160a01b0385169063150b7a02906115409033908990889088906004016127dc565b602060405180830381600087803b15801561155a57600080fd5b505af192505050801561158a575060408051601f3d908101601f1916820190925261158791810190611c9a565b60015b6115e5573d8080156115b8576040519150601f19603f3d011682016040523d82523d6000602084013e6115bd565b606091505b5080516115dd576040516368d2bf6b60e11b815260040160405180910390fd5b805181602001fd5b6001600160e01b031916630a85bd0160e11b1490505b949350505050565b606061160e836114f7565b61164d576040518060400160405280600281526020017f4e6f000000000000000000000000000000000000000000000000000000000000815250611684565b6040518060400160405280600381526020017f59657300000000000000000000000000000000000000000000000000000000008152505b825160208401516080850151516116d0576040518060400160405280600b81526020017f28616e6f6e796d6f7573290000000000000000000000000000000000000000008152506116dd565b6116dd85608001516118a4565b6040516020016116f094939291906125de565b604051602081830303815290604052905092915050565b606081516000141561172757505060408051602081019091526000815290565b6000604051806060016040528060408152602001612b8160409139905060006003845160026117569190612a05565b6117609190612a1d565b61176b906004612a31565b9050600061177a826020612a05565b67ffffffffffffffff81111561179257611792612b3f565b6040519080825280601f01601f1916602001820160405280156117bc576020820181803683370190505b509050818152600183018586518101602084015b81831015611828576003830192508251603f8160121c168501518253600182019150603f81600c1c168501518253600182019150603f8160061c168501518253600182019150603f81168501518253506001016117d0565b600389510660018114611842576002811461186e57611896565b7f3d3d000000000000000000000000000000000000000000000000000000000000600119830152611896565b7f3d000000000000000000000000000000000000000000000000000000000000006000198301525b509398975050505050505050565b60608060005b83518110156119335760008482815181106118c7576118c7612b29565b0160209081015160f81c915081108015906118e657508060ff16605c14155b80156118f657508060ff16602214155b1561192057828160405160200161190e929190612375565b60405160208183030381529060405292505b508061192b81612ace565b9150506118aa565b5092915050565b803561194581612b55565b919050565b805161194581612b55565b600082601f83011261196657600080fd5b8135602067ffffffffffffffff8083111561198357611983612b3f565b8260051b6119928382016129ac565b8481528381019087850183890186018a10156119ad57600080fd5b600093505b86841015611a44578035858111156119c957600080fd5b89016040818c03601f19018113156119e057600080fd5b6119e861293c565b88830135888111156119f957600080fd5b611a078e8b83870101611a51565b825250908201359087821115611a1c57600080fd5b611a2a8d8a84860101611a51565b818a015285525050600193909301929185019185016119b2565b5098975050505050505050565b600082601f830112611a6257600080fd5b8135611a75611a70826129dd565b6129ac565b818152846020838601011115611a8a57600080fd5b816020850160208301376000918101602001919091529392505050565b600082601f830112611ab857600080fd5b8151611ac6611a70826129dd565b818152846020838601011115611adb57600080fd5b6115fb826020830160208701612a67565b805161ffff8116811461194557600080fd5b600060208284031215611b1057600080fd5b81356111ef81612b55565b600060208284031215611b2d57600080fd5b81516111ef81612b55565b60008060408385031215611b4b57600080fd5b8235611b5681612b55565b91506020830135611b6681612b55565b809150509250929050565b600080600060608486031215611b8657600080fd5b8335611b9181612b55565b92506020840135611ba181612b55565b929592945050506040919091013590565b60008060008060808587031215611bc857600080fd5b8435611bd381612b55565b93506020850135611be381612b55565b925060408501359150606085013567ffffffffffffffff811115611c0657600080fd5b611c1287828801611a51565b91505092959194509250565b60008060408385031215611c3157600080fd5b8235611c3c81612b55565b915060208301358015158114611b6657600080fd5b60008060408385031215611c6457600080fd5b8235611c6f81612b55565b946020939093013593505050565b600060208284031215611c8f57600080fd5b81356111ef81612b6a565b600060208284031215611cac57600080fd5b81516111ef81612b6a565b600060208284031215611cc957600080fd5b815167ffffffffffffffff811115611ce057600080fd5b6115fb84828501611aa7565b600080600060608486031215611d0157600080fd5b833567ffffffffffffffff80821115611d1957600080fd5b611d2587838801611a51565b9450602086013593506040860135915080821115611d4257600080fd5b50611d4f86828701611a51565b9150509250925092565b600060208284031215611d6b57600080fd5b815167ffffffffffffffff80821115611d8357600080fd5b908301906101008286031215611d9857600080fd5b611da0612965565b825182811115611daf57600080fd5b611dbb87828601611aa7565b825250602083015182811115611dd057600080fd5b611ddc87828601611aa7565b602083015250604083015182811115611df457600080fd5b611e0087828601611aa7565b604083015250606083015182811115611e1857600080fd5b611e2487828601611aa7565b606083015250608083015182811115611e3c57600080fd5b611e4887828601611aa7565b608083015250611e5a60a0840161194a565b60a0820152611e6b60c08401611aec565b60c0820152611e7c60e08401611aec565b60e082015295945050505050565b60008060408385031215611e9d57600080fd5b823567ffffffffffffffff80821115611eb557600080fd5b9084019060c08287031215611ec957600080fd5b611ed1612989565b823582811115611ee057600080fd5b611eec88828601611a51565b825250602083013582811115611f0157600080fd5b611f0d88828601611a51565b602083015250604083013582811115611f2557600080fd5b611f3188828601611a51565b604083015250606083013582811115611f4957600080fd5b611f5588828601611a51565b606083015250611f676080840161193a565b608082015260a083013582811115611f7e57600080fd5b611f8a88828601611955565b60a0830152509660209590950135955050505050565b600060208284031215611fb257600080fd5b5035919050565b600060208284031215611fcb57600080fd5b5051919050565b60008151808452611fea816020860160208601612a67565b601f01601f19169290920160200192915050565b60008151612010818560208601612a67565b9290920192915050565b6000845161202c818460208901612a67565b80830190507f203c75736520687265663d22236261736522202f3e0a203c757365206872656681527f3d220000000000000000000000000000000000000000000000000000000000006020820152845161208d816022840160208901612a67565b7f222066696c6c3d220000000000000000000000000000000000000000000000006022929091019182015283516120cb81602a840160208801612a67565b7f22202f3e0a000000000000000000000000000000000000000000000000000000602a9290910191820152602f0195945050505050565b60008251612114818460208701612a67565b7f3c2f673e0a3c2f7376673e000000000000000000000000000000000000000000920191825250600b01919050565b60008351612155818460208801612a67565b80830190507f203c6d61736b2069643d2261737365744d61736b223e0a20203c75736520687281527f65663d2200000000000000000000000000000000000000000000000000000000602082015283516121b6816024840160208801612a67565b7f222066696c6c3d22776869746522202f3e0a203c2f6d61736b3e0a203c757365602492909101918201527f20687265663d22236261736522206d61736b3d2275726c282361737365744d6160448201526739b5949110179f0560c11b6064820152606c01949350505050565b60008351612235818460208801612a67565b80830190507f203c6d61736b2069643d2261737365744d61736b2220646573633d224d61746581527f7269616c2049636f6e73202841706163686520322e30292f536f6369616c2f5060208201527f75626c6963223e0a20203c7265637420783d22302220793d223022207769647460408201527f683d223130323422206865696768743d2231303234222066696c6c3d2277686960608201527f746522202f3e0a20203c75736520687265663d2200000000000000000000000060808201528351612308816094840160208801612a67565b7f222066696c6c3d22626c61636b22202f3e0a203c2f6d61736b3e0a203c757365609492909101918201527f20687265663d22236261736522206d61736b3d2275726c282361737365744d6160b48201526739b5949110179f0560c11b60d482015260dc01949350505050565b60008351612387818460208801612a67565b60f89390931b7fff00000000000000000000000000000000000000000000000000000000000000169190920190815260010192915050565b600083516123d1818460208801612a67565b8351908301906123e5818360208801612a67565b7f3c2f646566733e0a3c672066696c7465723d2275726c2823663129223e0a00009101908152601e01949350505050565b7f7b226e616d65223a220000000000000000000000000000000000000000000000815260008551602061244f8260098601838b01612a67565b7f222c226465736372697074696f6e223a220000000000000000000000000000006009928501928301528654601a90600090600181811c908083168061249657607f831692505b8683108114156124b457634e487b7160e01b85526022600452602485fd5b8080156124c857600181146124dd5761250e565b60ff198516898801528389018701955061250e565b60008e81526020902060005b858110156125045781548b82018a01529084019089016124e9565b505086848a010195505b50505050506125d06125a76125a161255261254c857f222c2261747472696275746573223a5b00000000000000000000000000000000815260100190565b8c611ffe565b7f5d2c22696d616765223a22646174613a696d6167652f7376672b786d6c3b626181527f736536342c000000000000000000000000000000000000000000000000000000602082015260250190565b89611ffe565b7f227d000000000000000000000000000000000000000000000000000000000000815260020190565b9a9950505050505050505050565b7f7b2274726169745f74797065223a22536f756c626f756e64222c2276616c7565815260007f223a220000000000000000000000000000000000000000000000000000000000806020840152865161263d816023860160208b01612a67565b7f227d2c7b2274726169745f74797065223a2247726f7570222c2276616c7565226023918501918201527f3a22000000000000000000000000000000000000000000000000000000000000604382015286516126a0816045840160208b01612a67565b7f227d2c7b2274726169745f74797065223a2243617465676f7279222c2276616c604592909101918201527f7565223a220000000000000000000000000000000000000000000000000000006065820152855161270481606a840160208a01612a67565b8082019150507f227d2c7b2274726169745f74797065223a224d696e746572222c2276616c7565606a82015281608a8201526127466125a7608d830187611ffe565b98975050505050505050565b7f230000000000000000000000000000000000000000000000000000000000000081526000825161278a816001850160208701612a67565b9190910160010192915050565b7f646174613a6170706c69636174696f6e2f6a736f6e3b6261736536342c0000008152600082516127cf81601d850160208701612a67565b91909101601d0192915050565b60006001600160a01b0380871683528086166020840152508360408301526080606083015261280e6080830184611fd2565b9695505050505050565b6020815260006111ef6020830184611fd2565b60006020808352835160c08285015261284760e0850182611fd2565b905081850151601f1960408187850301818801526128658484611fd2565b9350808801519250818785030160608801526128818484611fd2565b9350606088015192508187850301608088015261289e8484611fd2565b93506001600160a01b0360808901511660a088015260a08801519250818785030160c08801528383518086528686019150868160051b870101878601955060005b8281101561292d57858883030184528651805186845261290187850182611fd2565b918b0151848303858d01529190506129198183611fd2565b988b0198958b0195935050506001016128df565b509a9950505050505050505050565b6040805190810167ffffffffffffffff8111828210171561295f5761295f612b3f565b60405290565b604051610100810167ffffffffffffffff8111828210171561295f5761295f612b3f565b60405160c0810167ffffffffffffffff8111828210171561295f5761295f612b3f565b604051601f8201601f1916810167ffffffffffffffff811182821017156129d5576129d5612b3f565b604052919050565b600067ffffffffffffffff8211156129f7576129f7612b3f565b50601f01601f191660200190565b60008219821115612a1857612a18612afd565b500190565b600082612a2c57612a2c612b13565b500490565b6000816000190483118215151615612a4b57612a4b612afd565b500290565b600082821015612a6257612a62612afd565b500390565b60005b83811015612a82578181015183820152602001612a6a565b83811115610e215750506000910152565b600181811c90821680612aa757607f821691505b60208210811415612ac857634e487b7160e01b600052602260045260246000fd5b50919050565b6000600019821415612ae257612ae2612afd565b5060010190565b600082612af857612af8612b13565b500690565b634e487b7160e01b600052601160045260246000fd5b634e487b7160e01b600052601260045260246000fd5b634e487b7160e01b600052603260045260246000fd5b634e487b7160e01b600052604160045260246000fd5b6001600160a01b03811681146112e557600080fd5b6001600160e01b0319811681146112e557600080fdfe4142434445464748494a4b4c4d4e4f505152535455565758595a6162636465666768696a6b6c6d6e6f707172737475767778797a303132333435363738392b2f3c7376672076696577426f783d2230203020313032342031303234222020786d6c6e733d22687474703a2f2f7777772e77332e6f72672f323030302f737667223e0a3c646566733e0a203c66696c7465722069643d2266312220783d22302220793d2230222077696474683d223230302522206865696768743d2232303025223e0a20203c66654f666673657420726573756c743d226f66664f75742220696e3d22536f75726365416c706861222064783d223234222064793d22333222202f3e0a20203c6665476175737369616e426c757220726573756c743d22626c75724f75742220696e3d226f66664f75742220737464446576696174696f6e3d22313622202f3e0a20203c6665426c656e6420696e3d22536f75726365477261706869632220696e323d22626c75724f757422206d6f64653d226e6f726d616c22202f3e0a203c2f66696c7465723e0a3c672069643d2262617365223e0a203c7265637420783d22302220793d2230222077696474683d2235313222206865696768743d22353132222066696c6c3d222334323835463422202f3e0a203c7265637420783d22302220793d22353132222077696474683d2235313222206865696768743d22353132222066696c6c3d222333344138353322202f3e0a203c7265637420783d223531322220793d2230222077696474683d2235313222206865696768743d22353132222066696c6c3d222346424243303522202f3e0a203c7265637420783d223531322220793d22353132222077696474683d2235313222206865696768743d22353132222066696c6c3d2223454134333335222f3e0a3c2f673ea2646970667358221220a7a6479896a8713938997c9dcdc6f742aff28eea34bafd215959d7687c1a2ba164736f6c6343000806003354686973206973206f6e65206f6620656666747320746f2063726561746520284f6e2d436861696e2041737365742053746f7265295b68747470733a2f2f617373657473746f72652e7774665d2e",
  "linkReferences": {},
  "deployedLinkReferences": {}
}