{
  "_format": "hh-sol-artifact-1",
  "contractName": "MaterialToken",
  "sourceName": "contracts/MaterialToken.sol",
  "abi": [
    {
      "inputs": [
        {
          "internalType": "contract IAssetStoreRegistry",
          "name": "_registry",
          "type": "address"
        },
        {
          "internalType": "contract IAssetStore",
          "name": "_assetStore",
          "type": "address"
        },
        {
          "internalType": "address",
          "name": "_developer",
          "type": "address"
        },
        {
          "internalType": "contract IProxyRegistry",
          "name": "_proxyRegistry",
          "type": "address"
        }
      ],
      "stateMutability": "nonpayable",
      "type": "constructor"
    },
    {
      "anonymous": false,
      "inputs": [
        {
          "indexed": true,
          "internalType": "address",
          "name": "owner",
          "type": "address"
        },
        {
          "indexed": true,
          "internalType": "address",
          "name": "approved",
          "type": "address"
        },
        {
          "indexed": true,
          "internalType": "uint256",
          "name": "tokenId",
          "type": "uint256"
        }
      ],
      "name": "Approval",
      "type": "event"
    },
    {
      "anonymous": false,
      "inputs": [
        {
          "indexed": true,
          "internalType": "address",
          "name": "owner",
          "type": "address"
        },
        {
          "indexed": true,
          "internalType": "address",
          "name": "operator",
          "type": "address"
        },
        {
          "indexed": false,
          "internalType": "bool",
          "name": "approved",
          "type": "bool"
        }
      ],
      "name": "ApprovalForAll",
      "type": "event"
    },
    {
      "anonymous": false,
      "inputs": [
        {
          "indexed": true,
          "internalType": "address",
          "name": "previousOwner",
          "type": "address"
        },
        {
          "indexed": true,
          "internalType": "address",
          "name": "newOwner",
          "type": "address"
        }
      ],
      "name": "OwnershipTransferred",
      "type": "event"
    },
    {
      "anonymous": false,
      "inputs": [
        {
          "indexed": true,
          "internalType": "address",
          "name": "from",
          "type": "address"
        },
        {
          "indexed": true,
          "internalType": "address",
          "name": "to",
          "type": "address"
        },
        {
          "indexed": true,
          "internalType": "uint256",
          "name": "tokenId",
          "type": "uint256"
        }
      ],
      "name": "Transfer",
      "type": "event"
    },
    {
      "inputs": [
        {
          "internalType": "address",
          "name": "to",
          "type": "address"
        },
        {
          "internalType": "uint256",
          "name": "tokenId",
          "type": "uint256"
        }
      ],
      "name": "approve",
      "outputs": [],
      "stateMutability": "nonpayable",
      "type": "function"
    },
    {
      "inputs": [],
      "name": "assetStore",
      "outputs": [
        {
          "internalType": "contract IAssetStore",
          "name": "",
          "type": "address"
        }
      ],
      "stateMutability": "view",
      "type": "function"
    },
    {
      "inputs": [
        {
          "internalType": "address",
          "name": "owner",
          "type": "address"
        }
      ],
      "name": "balanceOf",
      "outputs": [
        {
          "internalType": "uint256",
          "name": "",
          "type": "uint256"
        }
      ],
      "stateMutability": "view",
      "type": "function"
    },
    {
      "inputs": [],
      "name": "description",
      "outputs": [
        {
          "internalType": "string",
          "name": "",
          "type": "string"
        }
      ],
      "stateMutability": "view",
      "type": "function"
    },
    {
      "inputs": [],
      "name": "developer",
      "outputs": [
        {
          "internalType": "address",
          "name": "",
          "type": "address"
        }
      ],
      "stateMutability": "view",
      "type": "function"
    },
    {
      "inputs": [
        {
          "internalType": "uint256",
          "name": "tokenId",
          "type": "uint256"
        }
      ],
      "name": "getApproved",
      "outputs": [
        {
          "internalType": "address",
          "name": "",
          "type": "address"
        }
      ],
      "stateMutability": "view",
      "type": "function"
    },
    {
      "inputs": [
        {
          "internalType": "uint256",
          "name": "_tokenId",
          "type": "uint256"
        }
      ],
      "name": "getAssetId",
      "outputs": [
        {
          "internalType": "uint256",
          "name": "",
          "type": "uint256"
        }
      ],
      "stateMutability": "view",
      "type": "function"
    },
    {
      "inputs": [],
      "name": "getCurrentToken",
      "outputs": [
        {
          "internalType": "uint256",
          "name": "",
          "type": "uint256"
        }
      ],
      "stateMutability": "view",
      "type": "function"
    },
    {
      "inputs": [
        {
          "internalType": "address",
          "name": "owner",
          "type": "address"
        },
        {
          "internalType": "address",
          "name": "operator",
          "type": "address"
        }
      ],
      "name": "isApprovedForAll",
      "outputs": [
        {
          "internalType": "bool",
          "name": "",
          "type": "bool"
        }
      ],
      "stateMutability": "view",
      "type": "function"
    },
    {
      "inputs": [
        {
          "components": [
            {
              "internalType": "string",
              "name": "group",
              "type": "string"
            },
            {
              "internalType": "string",
              "name": "category",
              "type": "string"
            },
            {
              "internalType": "string",
              "name": "name",
              "type": "string"
            },
            {
              "internalType": "string",
              "name": "minter",
              "type": "string"
            },
            {
              "internalType": "address",
              "name": "soulbound",
              "type": "address"
            },
            {
              "components": [
                {
                  "internalType": "bytes",
                  "name": "body",
                  "type": "bytes"
                },
                {
                  "internalType": "string",
                  "name": "color",
                  "type": "string"
                }
              ],
              "internalType": "struct IAssetStoreRegistry.Part[]",
              "name": "parts",
              "type": "tuple[]"
            }
          ],
          "internalType": "struct IAssetStoreRegistry.AssetInfo",
          "name": "_assetInfo",
          "type": "tuple"
        },
        {
          "internalType": "uint256",
          "name": "_affiliate",
          "type": "uint256"
        }
      ],
      "name": "mintWithAsset",
      "outputs": [
        {
          "internalType": "uint256",
          "name": "",
          "type": "uint256"
        }
      ],
      "stateMutability": "nonpayable",
      "type": "function"
    },
    {
      "inputs": [],
      "name": "name",
      "outputs": [
        {
          "internalType": "string",
          "name": "",
          "type": "string"
        }
      ],
      "stateMutability": "view",
      "type": "function"
    },
    {
      "inputs": [],
      "name": "owner",
      "outputs": [
        {
          "internalType": "address",
          "name": "",
          "type": "address"
        }
      ],
      "stateMutability": "view",
      "type": "function"
    },
    {
      "inputs": [
        {
          "internalType": "uint256",
          "name": "tokenId",
          "type": "uint256"
        }
      ],
      "name": "ownerOf",
      "outputs": [
        {
          "internalType": "address",
          "name": "",
          "type": "address"
        }
      ],
      "stateMutability": "view",
      "type": "function"
    },
    {
      "inputs": [],
      "name": "proxyRegistry",
      "outputs": [
        {
          "internalType": "contract IProxyRegistry",
          "name": "",
          "type": "address"
        }
      ],
      "stateMutability": "view",
      "type": "function"
    },
    {
      "inputs": [],
      "name": "registry",
      "outputs": [
        {
          "internalType": "contract IAssetStoreRegistry",
          "name": "",
          "type": "address"
        }
      ],
      "stateMutability": "view",
      "type": "function"
    },
    {
      "inputs": [],
      "name": "renounceOwnership",
      "outputs": [],
      "stateMutability": "nonpayable",
      "type": "function"
    },
    {
      "inputs": [
        {
          "internalType": "address",
          "name": "from",
          "type": "address"
        },
        {
          "internalType": "address",
          "name": "to",
          "type": "address"
        },
        {
          "internalType": "uint256",
          "name": "tokenId",
          "type": "uint256"
        }
      ],
      "name": "safeTransferFrom",
      "outputs": [],
      "stateMutability": "nonpayable",
      "type": "function"
    },
    {
      "inputs": [
        {
          "internalType": "address",
          "name": "from",
          "type": "address"
        },
        {
          "internalType": "address",
          "name": "to",
          "type": "address"
        },
        {
          "internalType": "uint256",
          "name": "tokenId",
          "type": "uint256"
        },
        {
          "internalType": "bytes",
          "name": "_data",
          "type": "bytes"
        }
      ],
      "name": "safeTransferFrom",
      "outputs": [],
      "stateMutability": "nonpayable",
      "type": "function"
    },
    {
      "inputs": [
        {
          "internalType": "address",
          "name": "operator",
          "type": "address"
        },
        {
          "internalType": "bool",
          "name": "approved",
          "type": "bool"
        }
      ],
      "name": "setApprovalForAll",
      "outputs": [],
      "stateMutability": "nonpayable",
      "type": "function"
    },
    {
      "inputs": [
        {
          "internalType": "bytes4",
          "name": "interfaceId",
          "type": "bytes4"
        }
      ],
      "name": "supportsInterface",
      "outputs": [
        {
          "internalType": "bool",
          "name": "",
          "type": "bool"
        }
      ],
      "stateMutability": "view",
      "type": "function"
    },
    {
      "inputs": [],
      "name": "symbol",
      "outputs": [
        {
          "internalType": "string",
          "name": "",
          "type": "string"
        }
      ],
      "stateMutability": "view",
      "type": "function"
    },
    {
      "inputs": [
        {
          "internalType": "uint256",
          "name": "index",
          "type": "uint256"
        }
      ],
      "name": "tokenByIndex",
      "outputs": [
        {
          "internalType": "uint256",
          "name": "",
          "type": "uint256"
        }
      ],
      "stateMutability": "view",
      "type": "function"
    },
    {
      "inputs": [
        {
          "internalType": "address",
          "name": "owner",
          "type": "address"
        },
        {
          "internalType": "uint256",
          "name": "index",
          "type": "uint256"
        }
      ],
      "name": "tokenOfOwnerByIndex",
      "outputs": [
        {
          "internalType": "uint256",
          "name": "",
          "type": "uint256"
        }
      ],
      "stateMutability": "view",
      "type": "function"
    },
    {
      "inputs": [
        {
          "internalType": "uint256",
          "name": "_tokenId",
          "type": "uint256"
        }
      ],
      "name": "tokenURI",
      "outputs": [
        {
          "internalType": "string",
          "name": "",
          "type": "string"
        }
      ],
      "stateMutability": "view",
      "type": "function"
    },
    {
      "inputs": [],
      "name": "totalSupply",
      "outputs": [
        {
          "internalType": "uint256",
          "name": "",
          "type": "uint256"
        }
      ],
      "stateMutability": "view",
      "type": "function"
    },
    {
      "inputs": [
        {
          "internalType": "address",
          "name": "from",
          "type": "address"
        },
        {
          "internalType": "address",
          "name": "to",
          "type": "address"
        },
        {
          "internalType": "uint256",
          "name": "tokenId",
          "type": "uint256"
        }
      ],
      "name": "transferFrom",
      "outputs": [],
      "stateMutability": "nonpayable",
      "type": "function"
    },
    {
      "inputs": [
        {
          "internalType": "address",
          "name": "newOwner",
          "type": "address"
        }
      ],
      "name": "transferOwnership",
      "outputs": [],
      "stateMutability": "nonpayable",
      "type": "function"
    }
  ],
  "bytecode": "0x610160604052604e60e08181529062003f106101003980516200002b91600d916020909101906200018a565b503480156200003957600080fd5b5060405162003f5e38038062003f5e8339810160408190526200005c9162000230565b6040518060400160405280600e81526020016d4d6174657269616c2049636f6e7360901b81525060405180604001604052806008815260200167135055115492505360c21b815250620000be620000b86200013660201b60201c565b6200013a565b8151620000d39060019060208501906200018a565b508051620000e99060029060208401906200018a565b505050606093841b6001600160601b031990811660805292841b831660a052600f80546001600160a01b0319166001600160a01b03939093169290921790915590911b1660c052620002ee565b3390565b600080546001600160a01b038381166001600160a01b0319831681178455604051919092169283917f8be0079c531659141344cd1fd0a4f28419497f9722a3daafe3b4186f6b6457e09190a35050565b828054620001989062000298565b90600052602060002090601f016020900481019282620001bc576000855562000207565b82601f10620001d757805160ff191683800117855562000207565b8280016001018555821562000207579182015b8281111562000207578251825591602001919060010190620001ea565b506200021592915062000219565b5090565b5b808211156200021557600081556001016200021a565b600080600080608085870312156200024757600080fd5b84516200025481620002d5565b60208601519094506200026781620002d5565b60408601519093506200027a81620002d5565b60608601519092506200028d81620002d5565b939692955090935050565b600181811c90821680620002ad57607f821691505b60208210811415620002cf57634e487b7160e01b600052602260045260246000fd5b50919050565b6001600160a01b0381168114620002eb57600080fd5b50565b60805160601c60a05160601c60c05160601c613bcd62000343600039600081816103740152610f2b01526000818161029e01528181610de8015261170d01526000818161030e0152610b520152613bcd6000f3fe608060405234801561001057600080fd5b50600436106101b95760003560e01c8063715018a6116100f9578063b50cbd9f11610097578063ca4b208b11610071578063ca4b208b146103bc578063e985e9c5146103cf578063ef2d1746146103e2578063f2fde38b146103ea57600080fd5b8063b50cbd9f1461036f578063b88d4fde14610396578063c87b56dd146103a957600080fd5b80638da5cb5b116100d35780638da5cb5b1461033057806395d89b4114610341578063a22cb46514610349578063aef436591461035c57600080fd5b8063715018a6146102f95780637284e416146103015780637b1039991461030957600080fd5b80632f745c5911610166578063597a0e3611610140578063597a0e361461029957806361f547fd146102c05780636352211e146102d357806370a08231146102e657600080fd5b80632f745c591461026057806342842e0e146102735780634f6ccce71461028657600080fd5b8063095ea7b311610197578063095ea7b31461022657806318160ddd1461023b57806323b872dd1461024d57600080fd5b806301ffc9a7146101be57806306fdde03146101e6578063081812fc146101fb575b600080fd5b6101d16101cc36600461272e565b6103fd565b60405190151581526020015b60405180910390f35b6101ee610441565b6040516101dd919061374b565b61020e6102093660046129e4565b6104d3565b6040516001600160a01b0390911681526020016101dd565b610239610234366004612702565b61056d565b005b6009545b6040519081526020016101dd565b61023961025b366004612622565b61069f565b61023f61026e366004612702565b610726565b610239610281366004612622565b6107ce565b61023f6102943660046129e4565b6107e9565b61020e7f000000000000000000000000000000000000000000000000000000000000000081565b61023f6102ce3660046129e4565b61088d565b61020e6102e13660046129e4565b61092a565b61023f6102f43660046125af565b6109a1565b610239610a3b565b6101ee610aa1565b61020e7f000000000000000000000000000000000000000000000000000000000000000081565b6000546001600160a01b031661020e565b6101ee610b2f565b6102396103573660046126cf565b610b3e565b61023f61036a3660046128ce565b610b4d565b61020e7f000000000000000000000000000000000000000000000000000000000000000081565b6102396103a4366004612663565b610ca0565b6101ee6103b73660046129e4565b610d2e565b600f5461020e906001600160a01b031681565b6101d16103dd3660046125e9565b610eec565b600e5461023f565b6102396103f83660046125af565b610fed565b60006001600160e01b031982167f780e9d6300000000000000000000000000000000000000000000000000000000148061043b575061043b826110cf565b92915050565b60606001805461045090613a11565b80601f016020809104026020016040519081016040528092919081815260200182805461047c90613a11565b80156104c95780601f1061049e576101008083540402835291602001916104c9565b820191906000526020600020905b8154815290600101906020018083116104ac57829003601f168201915b5050505050905090565b6000818152600360205260408120546001600160a01b03166105515760405162461bcd60e51b815260206004820152602c60248201527f4552433732313a20617070726f76656420717565727920666f72206e6f6e657860448201526b34b9ba32b73a103a37b5b2b760a11b60648201526084015b60405180910390fd5b506000908152600560205260409020546001600160a01b031690565b60006105788261092a565b9050806001600160a01b0316836001600160a01b031614156106025760405162461bcd60e51b815260206004820152602160248201527f4552433732313a20617070726f76616c20746f2063757272656e74206f776e6560448201527f72000000000000000000000000000000000000000000000000000000000000006064820152608401610548565b336001600160a01b038216148061061e575061061e8133610eec565b6106905760405162461bcd60e51b815260206004820152603860248201527f4552433732313a20617070726f76652063616c6c6572206973206e6f74206f7760448201527f6e6572206e6f7220617070726f76656420666f7220616c6c00000000000000006064820152608401610548565b61069a838361116a565b505050565b6106a933826111e5565b61071b5760405162461bcd60e51b815260206004820152603160248201527f4552433732313a207472616e736665722063616c6c6572206973206e6f74206f60448201527f776e6572206e6f7220617070726f7665640000000000000000000000000000006064820152608401610548565b61069a8383836112bb565b6000610731836109a1565b82106107a55760405162461bcd60e51b815260206004820152602b60248201527f455243373231456e756d657261626c653a206f776e657220696e646578206f7560448201527f74206f6620626f756e64730000000000000000000000000000000000000000006064820152608401610548565b506001600160a01b03919091166000908152600760209081526040808320938352929052205490565b61069a83838360405180602001604052806000815250610ca0565b60006107f460095490565b82106108685760405162461bcd60e51b815260206004820152602c60248201527f455243373231456e756d657261626c653a20676c6f62616c20696e646578206f60448201527f7574206f6620626f756e647300000000000000000000000000000000000000006064820152608401610548565b6009828154811061087b5761087b613b00565b90600052602060002001549050919050565b6000818152600360205260408120546001600160a01b03166109175760405162461bcd60e51b815260206004820152602b60248201527f4d6174657269616c546f6b656e2e676574417373657449643a206e6f6e65786960448201527f7374656e7420746f6b656e0000000000000000000000000000000000000000006064820152608401610548565b506000908152600b602052604090205490565b6000818152600360205260408120546001600160a01b03168061043b5760405162461bcd60e51b815260206004820152602960248201527f4552433732313a206f776e657220717565727920666f72206e6f6e657869737460448201526832b73a103a37b5b2b760b91b6064820152608401610548565b60006001600160a01b038216610a1f5760405162461bcd60e51b815260206004820152602a60248201527f4552433732313a2062616c616e636520717565727920666f7220746865207a6560448201527f726f2061646472657373000000000000000000000000000000000000000000006064820152608401610548565b506001600160a01b031660009081526004602052604090205490565b6000546001600160a01b03163314610a955760405162461bcd60e51b815260206004820181905260248201527f4f776e61626c653a2063616c6c6572206973206e6f7420746865206f776e65726044820152606401610548565b610a9f60006114a0565b565b600d8054610aae90613a11565b80601f0160208091040260200160405190810160405280929190818152602001828054610ada90613a11565b8015610b275780601f10610afc57610100808354040283529160200191610b27565b820191906000526020600020905b815481529060010190602001808311610b0a57829003601f168201915b505050505081565b60606002805461045090613a11565b610b493383836114fd565b5050565b6000807f00000000000000000000000000000000000000000000000000000000000000006001600160a01b031663abca1e63856040518263ffffffff1660e01b8152600401610b9c919061375e565b602060405180830381600087803b158015610bb657600080fd5b505af1158015610bca573d6000803e3d6000fd5b505050506040513d601f19601f82011682018060405250810190610bee91906129fd565b90506000610bfe338360016115cc565b9050610c0c338360006115cc565b50600084118015610c2b57506000848152600c602052604090205460ff165b8015610c48575033610c3c8561092a565b6001600160a01b031614155b15610c6757610c61610c598561092a565b8360006115cc565b50610c98565b600a600e54610c769190613aaa565b60021415610c9857600f54610c96906001600160a01b03168360006115cc565b505b949350505050565b610caa33836111e5565b610d1c5760405162461bcd60e51b815260206004820152603160248201527f4552433732313a207472616e736665722063616c6c6572206973206e6f74206f60448201527f776e6572206e6f7220617070726f7665640000000000000000000000000000006064820152608401610548565b610d2884848484611617565b50505050565b6000818152600360205260409020546060906001600160a01b0316610da75760405162461bcd60e51b815260206004820152602960248201527f4d6174657269616c546f6b656e2e746f6b656e5552493a206e6f6e657869737460448201526832b73a103a37b5b2b760b91b6064820152608401610548565b6000828152600b60205260408082205490517f4378a6e3000000000000000000000000000000000000000000000000000000008152600481018290529091907f00000000000000000000000000000000000000000000000000000000000000006001600160a01b031690634378a6e39060240160006040518083038186803b158015610e3257600080fd5b505afa158015610e46573d6000803e3d6000fd5b505050506040513d6000823e601f3d908101601f19168201604052610e6e919081019061279d565b90506000610e7d8584846116a0565b9050610ec38260400151600d610e938886611a06565b610e9c85611b0d565b604051602001610eaf9493929190612ebf565b604051602081830303815290604052611b0d565b604051602001610ed391906136ca565b6040516020818303038152906040529350505050919050565b6040517fc45527910000000000000000000000000000000000000000000000000000000081526001600160a01b038381166004830152600091818416917f0000000000000000000000000000000000000000000000000000000000000000169063c45527919060240160206040518083038186803b158015610f6d57600080fd5b505afa158015610f81573d6000803e3d6000fd5b505050506040513d601f19601f82011682018060405250810190610fa591906125cc565b6001600160a01b03161415610fbc5750600161043b565b6001600160a01b0380841660009081526006602090815260408083209386168352929052205460ff165b9392505050565b6000546001600160a01b031633146110475760405162461bcd60e51b815260206004820181905260248201527f4f776e61626c653a2063616c6c6572206973206e6f7420746865206f776e65726044820152606401610548565b6001600160a01b0381166110c35760405162461bcd60e51b815260206004820152602660248201527f4f776e61626c653a206e6577206f776e657220697320746865207a65726f206160448201527f64647265737300000000000000000000000000000000000000000000000000006064820152608401610548565b6110cc816114a0565b50565b60006001600160e01b031982167f80ac58cd00000000000000000000000000000000000000000000000000000000148061113257506001600160e01b031982167f5b5e139f00000000000000000000000000000000000000000000000000000000145b8061043b57507f01ffc9a7000000000000000000000000000000000000000000000000000000006001600160e01b031983161461043b565b6000818152600560205260409020805473ffffffffffffffffffffffffffffffffffffffff19166001600160a01b03841690811790915581906111ac8261092a565b6001600160a01b03167f8c5be1e5ebec7d5bd14f71427d1e84f3dd0314c0f7b2291e5b200ac8c7c3b92560405160405180910390a45050565b6000818152600360205260408120546001600160a01b031661125e5760405162461bcd60e51b815260206004820152602c60248201527f4552433732313a206f70657261746f7220717565727920666f72206e6f6e657860448201526b34b9ba32b73a103a37b5b2b760a11b6064820152608401610548565b60006112698361092a565b9050806001600160a01b0316846001600160a01b0316148061129057506112908185610eec565b80610c985750836001600160a01b03166112a9846104d3565b6001600160a01b031614949350505050565b826001600160a01b03166112ce8261092a565b6001600160a01b03161461134a5760405162461bcd60e51b815260206004820152602560248201527f4552433732313a207472616e736665722066726f6d20696e636f72726563742060448201527f6f776e65720000000000000000000000000000000000000000000000000000006064820152608401610548565b6001600160a01b0382166113c55760405162461bcd60e51b8152602060048201526024808201527f4552433732313a207472616e7366657220746f20746865207a65726f2061646460448201527f72657373000000000000000000000000000000000000000000000000000000006064820152608401610548565b6113d0838383611caa565b6113db60008261116a565b6001600160a01b03831660009081526004602052604081208054600192906114049084906139ce565b90915550506001600160a01b0382166000908152600460205260408120805460019290611432908490613938565b9091555050600081815260036020526040808220805473ffffffffffffffffffffffffffffffffffffffff19166001600160a01b0386811691821790925591518493918716917fddf252ad1be2c89b69c2b068fc378daa952ba7f163c4a11628f55a4df523b3ef91a4505050565b600080546001600160a01b0383811673ffffffffffffffffffffffffffffffffffffffff19831681178455604051919092169283917f8be0079c531659141344cd1fd0a4f28419497f9722a3daafe3b4186f6b6457e09190a35050565b816001600160a01b0316836001600160a01b0316141561155f5760405162461bcd60e51b815260206004820152601960248201527f4552433732313a20617070726f766520746f2063616c6c6572000000000000006044820152606401610548565b6001600160a01b03838116600081815260066020908152604080832094871680845294825291829020805460ff191686151590811790915591519182527f17307eab39ab6107e8899845ad3d59bd9653f200f220920489ca2b5937696c31910160405180910390a3505050565b600e8054600091829190826115e083613a6e565b909155506000818152600b60209081526040808320889055600c9091529020805460ff19168515151790559050610c988582611d62565b6116228484846112bb565b61162e84848484611ebd565b610d285760405162461bcd60e51b815260206004820152603260248201527f4552433732313a207472616e7366657220746f206e6f6e20455243373231526560448201527f63656976657220696d706c656d656e74657200000000000000000000000000006064820152608401610548565b6060600082606001516040516020016116b99190613568565b604051602081830303815290604052905060006116d584612020565b6116de8561206b565b6040517fe3f24f02000000000000000000000000000000000000000000000000000000008152600481018890527f00000000000000000000000000000000000000000000000000000000000000006001600160a01b03169063e3f24f029060240160006040518083038186803b15801561175757600080fd5b505afa15801561176b573d6000803e3d6000fd5b505050506040513d6000823e601f3d908101601f191682016040526117939190810190612768565b6040516020016117a593929190612a8d565b60408051601f198184030181529181526000888152600c602052205490915060ff16156117fb5780828384856040516020016117e5959493929190612b5f565b60405160208183030381529060405290506119db565b8060405160200161180c9190612af8565b60408051601f1981840301815260c0830182526007608084018181527f233432383546340000000000000000000000000000000000000000000000000060a08601528452825180840184528181527f233334413835330000000000000000000000000000000000000000000000000060208281019190915285810191909152835180850185528281527f2346424243303500000000000000000000000000000000000000000000000000818301528585015283518085019094529083527f2345413433333500000000000000000000000000000000000000000000000000908301526060830191909152915060005b60048161ffff1610156119d85760c086015160009061191b600284613a89565b6119259190613985565b905060008760e001516002808561193c9190613950565b6119469190613a89565b6119509190613985565b905084868560046119658e61ffff8916613938565b61196f9190613aaa565b6004811061197f5761197f613b00565b60200201516119918561ffff16612121565b61199e8561ffff16612121565b6040516020016119b2959493929190612d9b565b6040516020818303038152906040529450505080806119d090613a4c565b9150506118fb565b50505b806040516020016119ec9190612d5a565b604051602081830303815290604052925050509392505050565b6000828152600c602052604090205460609060ff16611a5a576040518060400160405280600281526020017f4e6f000000000000000000000000000000000000000000000000000000000000815250611a91565b6040518060400160405280600381526020017f59657300000000000000000000000000000000000000000000000000000000008152505b82516020840151608085015151611add576040518060400160405280600b81526020017f28616e6f6e796d6f757329000000000000000000000000000000000000000000815250611ae3565b84608001515b604051602001611af69493929190613087565b604051602081830303815290604052905092915050565b6060815160001415611b2d57505060408051602081019091526000815290565b6000604051806060016040528060408152602001613b586040913990506000600384516002611b5c9190613938565b611b669190613971565b611b719060046139af565b90506000611b80826020613938565b67ffffffffffffffff811115611b9857611b98613b16565b6040519080825280601f01601f191660200182016040528015611bc2576020820181803683370190505b509050818152600183018586518101602084015b81831015611c2e576003830192508251603f8160121c168501518253600182019150603f81600c1c168501518253600182019150603f8160061c168501518253600182019150603f8116850151825350600101611bd6565b600389510660018114611c485760028114611c7457611c9c565b7f3d3d000000000000000000000000000000000000000000000000000000000000600119830152611c9c565b7f3d000000000000000000000000000000000000000000000000000000000000006000198301525b509398975050505050505050565b6001600160a01b038316611d0557611d0081600980546000838152600a60205260408120829055600182018355919091527f6e1540171b6c0c960b71a7020d9f60077f6af931a8bbf590da0223dacf75c7af0155565b611d28565b816001600160a01b0316836001600160a01b031614611d2857611d288382612253565b6001600160a01b038216611d3f5761069a816122f0565b826001600160a01b0316826001600160a01b03161461069a5761069a828261239f565b6001600160a01b038216611db85760405162461bcd60e51b815260206004820181905260248201527f4552433732313a206d696e7420746f20746865207a65726f20616464726573736044820152606401610548565b6000818152600360205260409020546001600160a01b031615611e1d5760405162461bcd60e51b815260206004820152601c60248201527f4552433732313a20746f6b656e20616c7265616479206d696e746564000000006044820152606401610548565b611e2960008383611caa565b6001600160a01b0382166000908152600460205260408120805460019290611e52908490613938565b9091555050600081815260036020526040808220805473ffffffffffffffffffffffffffffffffffffffff19166001600160a01b03861690811790915590518392907fddf252ad1be2c89b69c2b068fc378daa952ba7f163c4a11628f55a4df523b3ef908290a45050565b60006001600160a01b0384163b1561201557604051630a85bd0160e11b81526001600160a01b0385169063150b7a0290611f0190339089908890889060040161370f565b602060405180830381600087803b158015611f1b57600080fd5b505af1925050508015611f4b575060408051601f3d908101601f19168201909252611f489181019061274b565b60015b611ffb573d808015611f79576040519150601f19603f3d011682016040523d82523d6000602084013e611f7e565b606091505b508051611ff35760405162461bcd60e51b815260206004820152603260248201527f4552433732313a207472616e7366657220746f206e6f6e20455243373231526560448201527f63656976657220696d706c656d656e74657200000000000000000000000000006064820152608401610548565b805181602001fd5b6001600160e01b031916630a85bd0160e11b149050610c98565b506001949350505050565b60606120338260c0015161ffff16612121565b6120448360e0015161ffff16612121565b6040516020016120559291906131e2565b6040516020818303038152906040529050919050565b6060600061208c60028460c001516120839190613950565b61ffff16612121565b905060006120a460028560e001516120839190613950565b905081818284846040516020016120bf9594939291906135ad565b604051602081830303815290604052828383858587876040516020016120eb97969594939291906133e6565b60408051601f19818403018152908290526121099291602001612a5e565b60405160208183030381529060405292505050919050565b60608161216157505060408051808201909152600181527f3000000000000000000000000000000000000000000000000000000000000000602082015290565b8160005b811561218b578061217581613a6e565b91506121849050600a83613971565b9150612165565b60008167ffffffffffffffff8111156121a6576121a6613b16565b6040519080825280601f01601f1916602001820160405280156121d0576020820181803683370190505b5090505b8415610c98576121e56001836139ce565b91506121f2600a86613aaa565b6121fd906030613938565b60f81b81838151811061221257612212613b00565b60200101907effffffffffffffffffffffffffffffffffffffffffffffffffffffffffffff1916908160001a90535061224c600a86613971565b94506121d4565b60006001612260846109a1565b61226a91906139ce565b6000838152600860205260409020549091508082146122bd576001600160a01b03841660009081526007602090815260408083208584528252808320548484528184208190558352600890915290208190555b5060009182526008602090815260408084208490556001600160a01b039094168352600781528383209183525290812055565b600954600090612302906001906139ce565b6000838152600a60205260408120546009805493945090928490811061232a5761232a613b00565b90600052602060002001549050806009838154811061234b5761234b613b00565b6000918252602080832090910192909255828152600a9091526040808220849055858252812055600980548061238357612383613aea565b6001900381819060005260206000200160009055905550505050565b60006123aa836109a1565b6001600160a01b039093166000908152600760209081526040808320868452825280832085905593825260089052919091209190915550565b60006123f66123f184613910565b6138df565b905082815283838301111561240a57600080fd5b828260208301376000602084830101529392505050565b803561242c81613b2c565b919050565b805161242c81613b2c565b600082601f83011261244d57600080fd5b8135602067ffffffffffffffff8083111561246a5761246a613b16565b8260051b6124798382016138df565b8481528381019087850183890186018a101561249457600080fd5b600093505b8684101561252b578035858111156124b057600080fd5b89016040818c03601f19018113156124c757600080fd5b6124cf61386f565b88830135888111156124e057600080fd5b6124ee8e8b83870101612538565b82525090820135908782111561250357600080fd5b6125118d8a84860101612538565b818a01528552505060019390930192918501918501612499565b5098975050505050505050565b600082601f83011261254957600080fd5b610fe6838335602085016123e3565b600082601f83011261256957600080fd5b81516125776123f182613910565b81815284602083860101111561258c57600080fd5b610c988260208301602087016139e5565b805161ffff8116811461242c57600080fd5b6000602082840312156125c157600080fd5b8135610fe681613b2c565b6000602082840312156125de57600080fd5b8151610fe681613b2c565b600080604083850312156125fc57600080fd5b823561260781613b2c565b9150602083013561261781613b2c565b809150509250929050565b60008060006060848603121561263757600080fd5b833561264281613b2c565b9250602084013561265281613b2c565b929592945050506040919091013590565b6000806000806080858703121561267957600080fd5b843561268481613b2c565b9350602085013561269481613b2c565b925060408501359150606085013567ffffffffffffffff8111156126b757600080fd5b6126c387828801612538565b91505092959194509250565b600080604083850312156126e257600080fd5b82356126ed81613b2c565b91506020830135801515811461261757600080fd5b6000806040838503121561271557600080fd5b823561272081613b2c565b946020939093013593505050565b60006020828403121561274057600080fd5b8135610fe681613b41565b60006020828403121561275d57600080fd5b8151610fe681613b41565b60006020828403121561277a57600080fd5b815167ffffffffffffffff81111561279157600080fd5b610c9884828501612558565b6000602082840312156127af57600080fd5b815167ffffffffffffffff808211156127c757600080fd5b9083019061010082860312156127dc57600080fd5b6127e4613898565b8251828111156127f357600080fd5b6127ff87828601612558565b82525060208301518281111561281457600080fd5b61282087828601612558565b60208301525060408301518281111561283857600080fd5b61284487828601612558565b60408301525060608301518281111561285c57600080fd5b61286887828601612558565b60608301525060808301518281111561288057600080fd5b61288c87828601612558565b60808301525061289e60a08401612431565b60a08201526128af60c0840161259d565b60c08201526128c060e0840161259d565b60e082015295945050505050565b600080604083850312156128e157600080fd5b823567ffffffffffffffff808211156128f957600080fd5b9084019060c0828703121561290d57600080fd5b6129156138bc565b82358281111561292457600080fd5b61293088828601612538565b82525060208301358281111561294557600080fd5b61295188828601612538565b60208301525060408301358281111561296957600080fd5b61297588828601612538565b60408301525060608301358281111561298d57600080fd5b61299988828601612538565b6060830152506129ab60808401612421565b608082015260a0830135828111156129c257600080fd5b6129ce8882860161243c565b60a0830152509660209590950135955050505050565b6000602082840312156129f657600080fd5b5035919050565b600060208284031215612a0f57600080fd5b5051919050565b60008151808452612a2e8160208601602086016139e5565b601f01601f19169290920160200192915050565b60008151612a548185602086016139e5565b9290920192915050565b60008351612a708184602088016139e5565b835190830190612a848183602088016139e5565b01949350505050565b60008451612a9f8184602089016139e5565b845190830190612ab38183602089016139e5565b8451910190612ac68183602088016139e5565b7f3c2f646566733e0a000000000000000000000000000000000000000000000000910190815260080195945050505050565b60008251612b0a8184602087016139e5565b7f3c672066696c7465723d2275726c282366312922207472616e73666f726d3d229201918252507f7363616c6528302e3529223e0a000000000000000000000000000000000000006020820152602d01919050565b60008651612b71818460208b016139e5565b80830190507f3c672066696c7465723d2275726c2823663129223e0a203c757365206872656681527f3d2200000000000000000000000000000000000000000000000000000000000060208201528651612bd2816022840160208b016139e5565b7f222066696c6c3d22233432383546342220636c69702d706174683d2275726c28602292909101918201527f236e652922202f3e0a203c75736520687265663d22000000000000000000000060428201528551612c36816057840160208a016139e5565b7f222066696c6c3d22233334413835332220636c69702d706174683d2275726c28605792909101918201527f2373652922202f3e0a203c75736520687265663d22000000000000000000000060778201528451612c9a81608c8401602089016139e5565b612d4d612cfe612cf8608c848601017f222066696c6c3d22234642424330352220636c69702d706174683d2275726c2881527f2373772922202f3e0a203c75736520687265663d220000000000000000000000602082015260350190565b87612a42565b7f222066696c6c3d22234541343333352220636c69702d706174683d2275726c2881527f236e772922202f3e0a0000000000000000000000000000000000000000000000602082015260290190565b9998505050505050505050565b60008251612d6c8184602087016139e5565b7f3c2f673e0a3c2f7376673e000000000000000000000000000000000000000000920191825250600b01919050565b60008651612dad818460208b016139e5565b7f203c75736520687265663d2200000000000000000000000000000000000000009083019081528651612de781600c840160208b016139e5565b7f222066696c6c3d22000000000000000000000000000000000000000000000000600c92909101918201528551612e25816014840160208a016139e5565b7f2220783d22000000000000000000000000000000000000000000000000000000601492909101918201528451612e638160198401602089016139e5565b600c818301019150506411103c9e9160d91b600d8201528351612e8d8160128401602088016139e5565b612d4d6012828401017f222f3e200a000000000000000000000000000000000000000000000000000000815260050190565b7f7b226e616d65223a2200000000000000000000000000000000000000000000008152600085516020612ef88260098601838b016139e5565b7f222c226465736372697074696f6e223a220000000000000000000000000000006009928501928301528654601a90600090600181811c9080831680612f3f57607f831692505b868310811415612f5d57634e487b7160e01b85526022600452602485fd5b808015612f715760018114612f8657612fb7565b60ff1985168988015283890187019550612fb7565b60008e81526020902060005b85811015612fad5781548b82018a0152908401908901612f92565b505086848a010195505b505050505061307961305061304a612ffb612ff5857f222c2261747472696275746573223a5b00000000000000000000000000000000815260100190565b8c612a42565b7f5d2c22696d616765223a22646174613a696d6167652f7376672b786d6c3b626181527f736536342c000000000000000000000000000000000000000000000000000000602082015260250190565b89612a42565b7f227d000000000000000000000000000000000000000000000000000000000000815260020190565b9a9950505050505050505050565b7f7b2274726169745f74797065223a22536f756c626f756e64222c2276616c7565815262111d1160e91b6020820152600085516130cb816023850160208a016139e5565b7f227d2c7b2274726169745f74797065223a2247726f7570222c2276616c7565226023918401918201527f3a220000000000000000000000000000000000000000000000000000000000006043820152855161312e816045840160208a016139e5565b7f227d2c7b2274726169745f74797065223a2243617465676f7279222c2276616c604592909101918201527f7565223a220000000000000000000000000000000000000000000000000000006065820152845161319281606a8401602089016139e5565b6131d6613050612cf8606a858501017f227d2c7b2274726169745f74797065223a224d696e746572222c2276616c7565815262111d1160e91b602082015260230190565b98975050505050505050565b7f3c7376672076696577426f783d2230203020000000000000000000000000000081526000835161321a8160128501602088016139e5565b7f200000000000000000000000000000000000000000000000000000000000000060129184019182015283516132578160138401602088016139e5565b7f222020786d6c6e733d22687474703a2f2f7777772e77332e6f72672f32303030601392909101918201527f2f737667223e0a3c646566733e0a203c66696c7465722069643d22663122207860338201527f3d22302220793d2230222077696474683d223230302522206865696768743d2260538201527f32303025223e0a20203c66654f666673657420726573756c743d226f66664f7560738201527f742220696e3d22536f75726365416c706861222064783d223234222064793d2260938201527f333222202f3e0a20203c6665476175737369616e426c757220726573756c743d60b38201527f22626c75724f75742220696e3d226f66664f757422207374644465766961746960d38201527f6f6e3d22313622202f3e0a20203c6665426c656e6420696e3d22536f7572636560f38201527f477261706869632220696e323d22626c75724f757422206d6f64653d226e6f726101138201527f6d616c22202f3e0a203c2f66696c7465723e0a0000000000000000000000000061013382015261014601949350505050565b7f203c636c6970506174682069643d226e65223e3c7265637420783d220000000081526000885161341e81601c850160208d016139e5565b7f2220793d2230222077696474683d220000000000000000000000000000000000601c91840191820152885161345b81602b840160208d016139e5565b6911103432b4b3b43a1e9160b11b602b92909101918201528751613486816035840160208c016139e5565b601c818301019150507f22202f3e3c2f636c6970506174683e0a203c636c6970506174682069643d227360198201527f65223e3c7265637420783d220000000000000000000000000000000000000000603982015261307961353f61353961352361304a61350e612ff56134fd604589018f612a42565b6411103c9e9160d91b815260050190565b6811103bb4b23a341e9160b91b815260090190565b6911103432b4b3b43a1e9160b11b8152600a0190565b86612a42565b7f22202f3e3c2f636c6970506174683e0a00000000000000000000000000000000815260100190565b7f23000000000000000000000000000000000000000000000000000000000000008152600082516135a08160018501602087016139e5565b9190910160010192915050565b7f203c636c6970506174682069643d226e77223e3c7265637420783d223022207981527f3d2230222077696474683d22000000000000000000000000000000000000000060208201526000865161360b81602c850160208b016139e5565b6911103432b4b3b43a1e9160b11b602c918401918201528651613635816036840160208b016139e5565b7f22202f3e3c2f636c6970506174683e0a203c636c6970506174682069643d2273603692909101918201527f77223e3c7265637420783d22302220793d22000000000000000000000000000060568201528551613699816068840160208a016139e5565b602c818301019150506811103bb4b23a341e9160b91b603c8201526131d661353f6135396135236045850189612a42565b7f646174613a6170706c69636174696f6e2f6a736f6e3b6261736536342c00000081526000825161370281601d8501602087016139e5565b91909101601d0192915050565b60006001600160a01b038087168352808616602084015250836040830152608060608301526137416080830184612a16565b9695505050505050565b602081526000610fe66020830184612a16565b60006020808352835160c08285015261377a60e0850182612a16565b905081850151601f1960408187850301818801526137988484612a16565b9350808801519250818785030160608801526137b48484612a16565b935060608801519250818785030160808801526137d18484612a16565b93506001600160a01b0360808901511660a088015260a08801519250818785030160c08801528383518086528686019150868160051b870101878601955060005b8281101561386057858883030184528651805186845261383487850182612a16565b918b0151848303858d015291905061384c8183612a16565b988b0198958b019593505050600101613812565b509a9950505050505050505050565b6040805190810167ffffffffffffffff8111828210171561389257613892613b16565b60405290565b604051610100810167ffffffffffffffff8111828210171561389257613892613b16565b60405160c0810167ffffffffffffffff8111828210171561389257613892613b16565b604051601f8201601f1916810167ffffffffffffffff8111828210171561390857613908613b16565b604052919050565b600067ffffffffffffffff82111561392a5761392a613b16565b50601f01601f191660200190565b6000821982111561394b5761394b613abe565b500190565b600061ffff8084168061396557613965613ad4565b92169190910492915050565b60008261398057613980613ad4565b500490565b600061ffff808316818516818304811182151516156139a6576139a6613abe565b02949350505050565b60008160001904831182151516156139c9576139c9613abe565b500290565b6000828210156139e0576139e0613abe565b500390565b60005b83811015613a005781810151838201526020016139e8565b83811115610d285750506000910152565b600181811c90821680613a2557607f821691505b60208210811415613a4657634e487b7160e01b600052602260045260246000fd5b50919050565b600061ffff80831681811415613a6457613a64613abe565b6001019392505050565b6000600019821415613a8257613a82613abe565b5060010190565b600061ffff80841680613a9e57613a9e613ad4565b92169190910692915050565b600082613ab957613ab9613ad4565b500690565b634e487b7160e01b600052601160045260246000fd5b634e487b7160e01b600052601260045260246000fd5b634e487b7160e01b600052603160045260246000fd5b634e487b7160e01b600052603260045260246000fd5b634e487b7160e01b600052604160045260246000fd5b6001600160a01b03811681146110cc57600080fd5b6001600160e01b0319811681146110cc57600080fdfe4142434445464748494a4b4c4d4e4f505152535455565758595a6162636465666768696a6b6c6d6e6f707172737475767778797a303132333435363738392b2fa26469706673582212201d39ebcc60806226fe737de222c0419fb27fc3f8ef55237758cc88a843c1710564736f6c6343000806003354686973206973206f6e65206f6620656666747320746f2063726561746520284f6e2d436861696e2041737365742053746f7265295b68747470733a2f2f617373657473746f72652e78797a5d2e",
  "linkReferences": {},
  "deployedLinkReferences": {}
}