{
  "_format": "hh-sol-artifact-1",
  "contractName": "MaterialToken",
  "sourceName": "contracts/MaterialToken.sol",
  "abi": [
    {
      "inputs": [
        {
          "internalType": "contract IAssetStoreRegistry",
          "name": "_registry",
          "type": "address"
        },
        {
          "internalType": "contract IAssetStore",
          "name": "_assetStore",
          "type": "address"
        },
        {
          "internalType": "address",
          "name": "_developer",
          "type": "address"
        },
        {
          "internalType": "contract IProxyRegistry",
          "name": "_proxyRegistry",
          "type": "address"
        }
      ],
      "stateMutability": "nonpayable",
      "type": "constructor"
    },
    {
      "inputs": [],
      "name": "ApprovalCallerNotOwnerNorApproved",
      "type": "error"
    },
    {
      "inputs": [],
      "name": "ApprovalQueryForNonexistentToken",
      "type": "error"
    },
    {
      "inputs": [],
      "name": "ApproveToCaller",
      "type": "error"
    },
    {
      "inputs": [],
      "name": "BalanceQueryForZeroAddress",
      "type": "error"
    },
    {
      "inputs": [],
      "name": "MintERC2309QuantityExceedsLimit",
      "type": "error"
    },
    {
      "inputs": [],
      "name": "MintToZeroAddress",
      "type": "error"
    },
    {
      "inputs": [],
      "name": "MintZeroQuantity",
      "type": "error"
    },
    {
      "inputs": [],
      "name": "OwnerQueryForNonexistentToken",
      "type": "error"
    },
    {
      "inputs": [],
      "name": "OwnershipNotInitializedForExtraData",
      "type": "error"
    },
    {
      "inputs": [],
      "name": "TransferCallerNotOwnerNorApproved",
      "type": "error"
    },
    {
      "inputs": [],
      "name": "TransferFromIncorrectOwner",
      "type": "error"
    },
    {
      "inputs": [],
      "name": "TransferToNonERC721ReceiverImplementer",
      "type": "error"
    },
    {
      "inputs": [],
      "name": "TransferToZeroAddress",
      "type": "error"
    },
    {
      "inputs": [],
      "name": "URIQueryForNonexistentToken",
      "type": "error"
    },
    {
      "anonymous": false,
      "inputs": [
        {
          "indexed": true,
          "internalType": "address",
          "name": "owner",
          "type": "address"
        },
        {
          "indexed": true,
          "internalType": "address",
          "name": "approved",
          "type": "address"
        },
        {
          "indexed": true,
          "internalType": "uint256",
          "name": "tokenId",
          "type": "uint256"
        }
      ],
      "name": "Approval",
      "type": "event"
    },
    {
      "anonymous": false,
      "inputs": [
        {
          "indexed": true,
          "internalType": "address",
          "name": "owner",
          "type": "address"
        },
        {
          "indexed": true,
          "internalType": "address",
          "name": "operator",
          "type": "address"
        },
        {
          "indexed": false,
          "internalType": "bool",
          "name": "approved",
          "type": "bool"
        }
      ],
      "name": "ApprovalForAll",
      "type": "event"
    },
    {
      "anonymous": false,
      "inputs": [
        {
          "indexed": true,
          "internalType": "uint256",
          "name": "fromTokenId",
          "type": "uint256"
        },
        {
          "indexed": false,
          "internalType": "uint256",
          "name": "toTokenId",
          "type": "uint256"
        },
        {
          "indexed": true,
          "internalType": "address",
          "name": "from",
          "type": "address"
        },
        {
          "indexed": true,
          "internalType": "address",
          "name": "to",
          "type": "address"
        }
      ],
      "name": "ConsecutiveTransfer",
      "type": "event"
    },
    {
      "anonymous": false,
      "inputs": [
        {
          "indexed": true,
          "internalType": "address",
          "name": "previousOwner",
          "type": "address"
        },
        {
          "indexed": true,
          "internalType": "address",
          "name": "newOwner",
          "type": "address"
        }
      ],
      "name": "OwnershipTransferred",
      "type": "event"
    },
    {
      "anonymous": false,
      "inputs": [
        {
          "indexed": true,
          "internalType": "address",
          "name": "from",
          "type": "address"
        },
        {
          "indexed": true,
          "internalType": "address",
          "name": "to",
          "type": "address"
        },
        {
          "indexed": true,
          "internalType": "uint256",
          "name": "tokenId",
          "type": "uint256"
        }
      ],
      "name": "Transfer",
      "type": "event"
    },
    {
      "inputs": [
        {
          "internalType": "address",
          "name": "to",
          "type": "address"
        },
        {
          "internalType": "uint256",
          "name": "tokenId",
          "type": "uint256"
        }
      ],
      "name": "approve",
      "outputs": [],
      "stateMutability": "nonpayable",
      "type": "function"
    },
    {
      "inputs": [],
      "name": "assetStore",
      "outputs": [
        {
          "internalType": "contract IAssetStore",
          "name": "",
          "type": "address"
        }
      ],
      "stateMutability": "view",
      "type": "function"
    },
    {
      "inputs": [
        {
          "internalType": "address",
          "name": "owner",
          "type": "address"
        }
      ],
      "name": "balanceOf",
      "outputs": [
        {
          "internalType": "uint256",
          "name": "",
          "type": "uint256"
        }
      ],
      "stateMutability": "view",
      "type": "function"
    },
    {
      "inputs": [],
      "name": "description",
      "outputs": [
        {
          "internalType": "string",
          "name": "",
          "type": "string"
        }
      ],
      "stateMutability": "view",
      "type": "function"
    },
    {
      "inputs": [],
      "name": "developer",
      "outputs": [
        {
          "internalType": "address",
          "name": "",
          "type": "address"
        }
      ],
      "stateMutability": "view",
      "type": "function"
    },
    {
      "inputs": [
        {
          "internalType": "uint256",
          "name": "tokenId",
          "type": "uint256"
        }
      ],
      "name": "getApproved",
      "outputs": [
        {
          "internalType": "address",
          "name": "",
          "type": "address"
        }
      ],
      "stateMutability": "view",
      "type": "function"
    },
    {
      "inputs": [
        {
          "internalType": "uint256",
          "name": "_tokenId",
          "type": "uint256"
        }
      ],
      "name": "getAssetId",
      "outputs": [
        {
          "internalType": "uint256",
          "name": "",
          "type": "uint256"
        }
      ],
      "stateMutability": "view",
      "type": "function"
    },
    {
      "inputs": [],
      "name": "getCurrentToken",
      "outputs": [
        {
          "internalType": "uint256",
          "name": "",
          "type": "uint256"
        }
      ],
      "stateMutability": "view",
      "type": "function"
    },
    {
      "inputs": [
        {
          "internalType": "address",
          "name": "owner",
          "type": "address"
        },
        {
          "internalType": "address",
          "name": "operator",
          "type": "address"
        }
      ],
      "name": "isApprovedForAll",
      "outputs": [
        {
          "internalType": "bool",
          "name": "",
          "type": "bool"
        }
      ],
      "stateMutability": "view",
      "type": "function"
    },
    {
      "inputs": [
        {
          "components": [
            {
              "internalType": "string",
              "name": "group",
              "type": "string"
            },
            {
              "internalType": "string",
              "name": "category",
              "type": "string"
            },
            {
              "internalType": "string",
              "name": "name",
              "type": "string"
            },
            {
              "internalType": "string",
              "name": "minter",
              "type": "string"
            },
            {
              "internalType": "address",
              "name": "soulbound",
              "type": "address"
            },
            {
              "components": [
                {
                  "internalType": "bytes",
                  "name": "body",
                  "type": "bytes"
                },
                {
                  "internalType": "string",
                  "name": "color",
                  "type": "string"
                }
              ],
              "internalType": "struct IAssetStoreRegistry.Part[]",
              "name": "parts",
              "type": "tuple[]"
            }
          ],
          "internalType": "struct IAssetStoreRegistry.AssetInfo",
          "name": "_assetInfo",
          "type": "tuple"
        },
        {
          "internalType": "uint256",
          "name": "_affiliate",
          "type": "uint256"
        }
      ],
      "name": "mintWithAsset",
      "outputs": [],
      "stateMutability": "nonpayable",
      "type": "function"
    },
    {
      "inputs": [],
      "name": "name",
      "outputs": [
        {
          "internalType": "string",
          "name": "",
          "type": "string"
        }
      ],
      "stateMutability": "view",
      "type": "function"
    },
    {
      "inputs": [],
      "name": "owner",
      "outputs": [
        {
          "internalType": "address",
          "name": "",
          "type": "address"
        }
      ],
      "stateMutability": "view",
      "type": "function"
    },
    {
      "inputs": [
        {
          "internalType": "uint256",
          "name": "tokenId",
          "type": "uint256"
        }
      ],
      "name": "ownerOf",
      "outputs": [
        {
          "internalType": "address",
          "name": "",
          "type": "address"
        }
      ],
      "stateMutability": "view",
      "type": "function"
    },
    {
      "inputs": [],
      "name": "proxyRegistry",
      "outputs": [
        {
          "internalType": "contract IProxyRegistry",
          "name": "",
          "type": "address"
        }
      ],
      "stateMutability": "view",
      "type": "function"
    },
    {
      "inputs": [],
      "name": "registry",
      "outputs": [
        {
          "internalType": "contract IAssetStoreRegistry",
          "name": "",
          "type": "address"
        }
      ],
      "stateMutability": "view",
      "type": "function"
    },
    {
      "inputs": [],
      "name": "renounceOwnership",
      "outputs": [],
      "stateMutability": "nonpayable",
      "type": "function"
    },
    {
      "inputs": [
        {
          "internalType": "address",
          "name": "from",
          "type": "address"
        },
        {
          "internalType": "address",
          "name": "to",
          "type": "address"
        },
        {
          "internalType": "uint256",
          "name": "tokenId",
          "type": "uint256"
        }
      ],
      "name": "safeTransferFrom",
      "outputs": [],
      "stateMutability": "nonpayable",
      "type": "function"
    },
    {
      "inputs": [
        {
          "internalType": "address",
          "name": "from",
          "type": "address"
        },
        {
          "internalType": "address",
          "name": "to",
          "type": "address"
        },
        {
          "internalType": "uint256",
          "name": "tokenId",
          "type": "uint256"
        },
        {
          "internalType": "bytes",
          "name": "_data",
          "type": "bytes"
        }
      ],
      "name": "safeTransferFrom",
      "outputs": [],
      "stateMutability": "nonpayable",
      "type": "function"
    },
    {
      "inputs": [
        {
          "internalType": "address",
          "name": "operator",
          "type": "address"
        },
        {
          "internalType": "bool",
          "name": "approved",
          "type": "bool"
        }
      ],
      "name": "setApprovalForAll",
      "outputs": [],
      "stateMutability": "nonpayable",
      "type": "function"
    },
    {
      "inputs": [
        {
          "internalType": "bytes4",
          "name": "interfaceId",
          "type": "bytes4"
        }
      ],
      "name": "supportsInterface",
      "outputs": [
        {
          "internalType": "bool",
          "name": "",
          "type": "bool"
        }
      ],
      "stateMutability": "view",
      "type": "function"
    },
    {
      "inputs": [],
      "name": "symbol",
      "outputs": [
        {
          "internalType": "string",
          "name": "",
          "type": "string"
        }
      ],
      "stateMutability": "view",
      "type": "function"
    },
    {
      "inputs": [
        {
          "internalType": "uint256",
          "name": "_tokenId",
          "type": "uint256"
        }
      ],
      "name": "tokenURI",
      "outputs": [
        {
          "internalType": "string",
          "name": "",
          "type": "string"
        }
      ],
      "stateMutability": "view",
      "type": "function"
    },
    {
      "inputs": [],
      "name": "totalSupply",
      "outputs": [
        {
          "internalType": "uint256",
          "name": "",
          "type": "uint256"
        }
      ],
      "stateMutability": "view",
      "type": "function"
    },
    {
      "inputs": [
        {
          "internalType": "address",
          "name": "from",
          "type": "address"
        },
        {
          "internalType": "address",
          "name": "to",
          "type": "address"
        },
        {
          "internalType": "uint256",
          "name": "tokenId",
          "type": "uint256"
        }
      ],
      "name": "transferFrom",
      "outputs": [],
      "stateMutability": "nonpayable",
      "type": "function"
    },
    {
      "inputs": [
        {
          "internalType": "address",
          "name": "newOwner",
          "type": "address"
        }
      ],
      "name": "transferOwnership",
      "outputs": [],
      "stateMutability": "nonpayable",
      "type": "function"
    }
  ],
  "bytecode": "0x610160604052604e60e0818152906200327e6101003980516200002b91600a916020909101906200018f565b503480156200003957600080fd5b50604051620032cc380380620032cc8339810160408190526200005c9162000235565b6040518060400160405280600e81526020016d4d6174657269616c2049636f6e7360901b81525060405180604001604052806008815260200167135055115492505360c21b815250620000be620000b86200013b60201b60201c565b6200013f565b8151620000d39060039060208501906200018f565b508051620000e99060049060208401906200018f565b5060006001555050606093841b6001600160601b031990811660805292841b831660a052600b80546001600160a01b0319166001600160a01b03939093169290921790915590911b1660c052620002f3565b3390565b600080546001600160a01b038381166001600160a01b0319831681178455604051919092169283917f8be0079c531659141344cd1fd0a4f28419497f9722a3daafe3b4186f6b6457e09190a35050565b8280546200019d906200029d565b90600052602060002090601f016020900481019282620001c157600085556200020c565b82601f10620001dc57805160ff19168380011785556200020c565b828001600101855582156200020c579182015b828111156200020c578251825591602001919060010190620001ef565b506200021a9291506200021e565b5090565b5b808211156200021a57600081556001016200021f565b600080600080608085870312156200024c57600080fd5b84516200025981620002da565b60208601519094506200026c81620002da565b60408601519093506200027f81620002da565b60608601519092506200029281620002da565b939692955090935050565b600181811c90821680620002b257607f821691505b60208210811415620002d457634e487b7160e01b600052602260045260246000fd5b50919050565b6001600160a01b0381168114620002f057600080fd5b50565b60805160601c60a05160601c60c05160601c612f36620003486000396000818161033c0152610ebc01526000818161026601528181610d5f01526113ef0152600081816102d60152610b130152612f366000f3fe608060405234801561001057600080fd5b50600436106101a35760003560e01c80637284e416116100ee578063b50cbd9f11610097578063ca4b208b11610071578063ca4b208b14610384578063e985e9c514610397578063ef2d1746146103aa578063f2fde38b146103b257600080fd5b8063b50cbd9f14610337578063b88d4fde1461035e578063c87b56dd1461037157600080fd5b806395d89b41116100c857806395d89b4114610309578063a22cb46514610311578063aef436591461032457600080fd5b80637284e416146102c95780637b103999146102d15780638da5cb5b146102f857600080fd5b806342842e0e116101505780636352211e1161012a5780636352211e1461029b57806370a08231146102ae578063715018a6146102c157600080fd5b806342842e0e1461024e578063597a0e361461026157806361f547fd1461028857600080fd5b8063095ea7b311610181578063095ea7b31461021057806318160ddd1461022557806323b872dd1461023b57600080fd5b806301ffc9a7146101a857806306fdde03146101d0578063081812fc146101e5575b600080fd5b6101bb6101b6366004611d29565b6103c5565b60405190151581526020015b60405180910390f35b6101d8610462565b6040516101c79190612b58565b6101f86101f3366004611fdf565b6104f4565b6040516001600160a01b0390911681526020016101c7565b61022361021e366004611cfd565b610551565b005b600254600154035b6040519081526020016101c7565b610223610249366004611c1d565b610617565b61022361025c366004611c1d565b6107f4565b6101f87f000000000000000000000000000000000000000000000000000000000000000081565b61022d610296366004611fdf565b610814565b6101f86102a9366004611fdf565b6108bb565b61022d6102bc366004611baa565b6108c6565b61022361092e565b6101d8610994565b6101f87f000000000000000000000000000000000000000000000000000000000000000081565b6000546001600160a01b03166101f8565b6101d8610a22565b61022361031f366004611cca565b610a31565b610223610332366004611ec9565b610ae0565b6101f87f000000000000000000000000000000000000000000000000000000000000000081565b61022361036c366004611c5e565b610c79565b6101d861037f366004611fdf565b610cbd565b600b546101f8906001600160a01b031681565b6101bb6103a5366004611be4565b610e7d565b61022d610f7e565b6102236103c0366004611baa565b610f8e565b60007f01ffc9a7000000000000000000000000000000000000000000000000000000006001600160e01b03198316148061042857507f80ac58cd000000000000000000000000000000000000000000000000000000006001600160e01b03198316145b8061045c57507f5b5e139f000000000000000000000000000000000000000000000000000000006001600160e01b03198316145b92915050565b60606003805461047190612dd3565b80601f016020809104026020016040519081016040528092919081815260200182805461049d90612dd3565b80156104ea5780601f106104bf576101008083540402835291602001916104ea565b820191906000526020600020905b8154815290600101906020018083116104cd57829003601f168201915b5050505050905090565b60006104ff82611070565b610535576040517fcf4700e400000000000000000000000000000000000000000000000000000000815260040160405180910390fd5b506000908152600760205260409020546001600160a01b031690565b600061055c826108bb565b9050336001600160a01b038216146105ae576105788133610e7d565b6105ae576040517fcfb3b94200000000000000000000000000000000000000000000000000000000815260040160405180910390fd5b600082815260076020526040808220805473ffffffffffffffffffffffffffffffffffffffff19166001600160a01b0387811691821790925591518593918516917f8c5be1e5ebec7d5bd14f71427d1e84f3dd0314c0f7b2291e5b200ac8c7c3b92591a4505050565b600061062282611098565b9050836001600160a01b0316816001600160a01b03161461066f576040517fa114810000000000000000000000000000000000000000000000000000000000815260040160405180910390fd5b60008281526007602052604090208054338082146001600160a01b038816909114176106d55761069f8633610e7d565b6106d5576040517f59c896be00000000000000000000000000000000000000000000000000000000815260040160405180910390fd5b6001600160a01b038516610715576040517fea553b3400000000000000000000000000000000000000000000000000000000815260040160405180910390fd5b801561072057600082555b6001600160a01b038681166000908152600660205260408082208054600019019055918716808252919020805460010190554260a01b17600160e11b17600085815260056020526040902055600160e11b83166107ab57600184016000818152600560205260409020546107a95760015481146107a95760008181526005602052604090208490555b505b83856001600160a01b0316876001600160a01b03167fddf252ad1be2c89b69c2b068fc378daa952ba7f163c4a11628f55a4df523b3ef60405160405180910390a4505050505050565b61080f83838360405180602001604052806000815250610c79565b505050565b600061081f82611070565b6108965760405162461bcd60e51b815260206004820152602b60248201527f4d6174657269616c546f6b656e2e676574417373657449643a206e6f6e65786960448201527f7374656e7420746f6b656e00000000000000000000000000000000000000000060648201526084015b60405180910390fd5b600960006108a5600485612d5d565b8152602001908152602001600020549050919050565b600061045c82611098565b60006001600160a01b038216610908576040517f8f4eb60400000000000000000000000000000000000000000000000000000000815260040160405180910390fd5b506001600160a01b031660009081526006602052604090205467ffffffffffffffff1690565b6000546001600160a01b031633146109885760405162461bcd60e51b815260206004820181905260248201527f4f776e61626c653a2063616c6c6572206973206e6f7420746865206f776e6572604482015260640161088d565b6109926000611112565b565b600a80546109a190612dd3565b80601f01602080910402602001604051908101604052809291908181526020018280546109cd90612dd3565b8015610a1a5780601f106109ef57610100808354040283529160200191610a1a565b820191906000526020600020905b8154815290600101906020018083116109fd57829003601f168201915b505050505081565b60606004805461047190612dd3565b6001600160a01b038216331415610a74576040517fb06307db00000000000000000000000000000000000000000000000000000000815260040160405180910390fd5b3360008181526008602090815260408083206001600160a01b03871680855290835292819020805460ff191686151590811790915590519081529192917f17307eab39ab6107e8899845ad3d59bd9653f200f220920489ca2b5937696c31910160405180910390a35050565b6040517fabca1e630000000000000000000000000000000000000000000000000000000081526000906001600160a01b037f0000000000000000000000000000000000000000000000000000000000000000169063abca1e6390610b48908690600401612b6b565b602060405180830381600087803b158015610b6257600080fd5b505af1158015610b76573d6000803e3d6000fd5b505050506040513d601f19601f82011682018060405250810190610b9a9190611ff8565b90506000610ba760015490565b90508160096000610bb9600485612d5d565b8152602081019190915260400160002055610bdf33610bda60016004612d90565b61116f565b600083118015610bf35750610bf38361127f565b8015610c10575033610c04846108bb565b6001600160a01b031614155b15610c2d57610c28610c21846108bb565b600161116f565b610c73565b6004610c398183612d5d565b610c439190612e29565b610c5e57600b54610c28906001600160a01b0316600161116f565b610c73610c216000546001600160a01b031690565b50505050565b610c84848484610617565b6001600160a01b0383163b15610c7357610ca084848484611293565b610c73576040516368d2bf6b60e11b815260040160405180910390fd5b6060610cc882611070565b610d3a5760405162461bcd60e51b815260206004820152602960248201527f4d6174657269616c546f6b656e2e746f6b656e5552493a206e6f6e657869737460448201527f656e7420746f6b656e0000000000000000000000000000000000000000000000606482015260840161088d565b6000600981610d4a600486612d5d565b815260200190815260200160002054905060007f00000000000000000000000000000000000000000000000000000000000000006001600160a01b0316634378a6e3836040518263ffffffff1660e01b8152600401610dab91815260200190565b60006040518083038186803b158015610dc357600080fd5b505afa158015610dd7573d6000803e3d6000fd5b505050506040513d6000823e601f3d908101601f19168201604052610dff9190810190611d98565b90506000610e0e85848461138b565b9050610e548260400151600a610e2488866115cf565b610e2d856116cc565b604051602001610e409493929190612552565b6040516020818303038152906040526116cc565b604051602001610e649190612ad7565b6040516020818303038152906040529350505050919050565b6040517fc45527910000000000000000000000000000000000000000000000000000000081526001600160a01b038381166004830152600091818416917f0000000000000000000000000000000000000000000000000000000000000000169063c45527919060240160206040518083038186803b158015610efe57600080fd5b505afa158015610f12573d6000803e3d6000fd5b505050506040513d601f19601f82011682018060405250810190610f369190611bc7565b6001600160a01b03161415610f4d5750600161045c565b6001600160a01b0380841660009081526008602090815260408083209386168352929052205460ff165b9392505050565b6000610f8960015490565b905090565b6000546001600160a01b03163314610fe85760405162461bcd60e51b815260206004820181905260248201527f4f776e61626c653a2063616c6c6572206973206e6f7420746865206f776e6572604482015260640161088d565b6001600160a01b0381166110645760405162461bcd60e51b815260206004820152602660248201527f4f776e61626c653a206e6577206f776e657220697320746865207a65726f206160448201527f6464726573730000000000000000000000000000000000000000000000000000606482015260840161088d565b61106d81611112565b50565b60006001548210801561045c575050600090815260056020526040902054600160e01b161590565b6000816001548110156110e057600081815260056020526040902054600160e01b81166110de575b80610f775750600019016000818152600560205260409020546110c0565b505b6040517fdf2d9b4200000000000000000000000000000000000000000000000000000000815260040160405180910390fd5b600080546001600160a01b0383811673ffffffffffffffffffffffffffffffffffffffff19831681178455604051919092169283917f8be0079c531659141344cd1fd0a4f28419497f9722a3daafe3b4186f6b6457e09190a35050565b6001546001600160a01b0383166111b2576040517f2e07630000000000000000000000000000000000000000000000000000000000815260040160405180910390fd5b816111e9576040517fb562e8dd00000000000000000000000000000000000000000000000000000000815260040160405180910390fd5b6001600160a01b038316600081815260066020526040902080546801000000000000000185020190554260a01b6001841460e11b1717600082815260056020526040902055808281015b6040516001830192906001600160a01b038716906000907fddf252ad1be2c89b69c2b068fc378daa952ba7f163c4a11628f55a4df523b3ef908290a48082106112335760015550505050565b600061128c600483612e29565b1592915050565b604051630a85bd0160e11b81526000906001600160a01b0385169063150b7a02906112c8903390899088908890600401612b1c565b602060405180830381600087803b1580156112e257600080fd5b505af1925050508015611312575060408051601f3d908101601f1916820190925261130f91810190611d46565b60015b61136d573d808015611340576040519150601f19603f3d011682016040523d82523d6000602084013e611345565b606091505b508051611365576040516368d2bf6b60e11b815260040160405180910390fd5b805181602001fd5b6001600160e01b031916630a85bd0160e11b1490505b949350505050565b6060600082606001516040516020016113a49190612a92565b604051602081830303815290604052905060006113c084611869565b6040517fe3f24f02000000000000000000000000000000000000000000000000000000008152600481018790527f00000000000000000000000000000000000000000000000000000000000000006001600160a01b03169063e3f24f029060240160006040518083038186803b15801561143957600080fd5b505afa15801561144d573d6000803e3d6000fd5b505050506040513d6000823e601f3d908101601f191682016040526114759190810190611d63565b604051602001611486929190612247565b60408051601f19818403018152919052905060006114a5600488612e29565b9050806114d55781836040516020016114bf929190612141565b60405160208183030381529060405291506115a3565b6114e160016004612d90565b81101561157e5781836114f5600284612e29565b15611535576040518060400160405280600581526020017f776869746500000000000000000000000000000000000000000000000000000081525061156c565b6040518060400160405280600581526020017f626c61636b0000000000000000000000000000000000000000000000000000008152505b6040516020016114bf93929190612059565b8183604051602001611591929190612400565b60405160208183030381529060405291505b816040516020016115b491906123bf565b60405160208183030381529060405293505050509392505050565b60606115da8361127f565b611619576040518060400160405280600281526020017f4e6f000000000000000000000000000000000000000000000000000000000000815250611650565b6040518060400160405280600381526020017f59657300000000000000000000000000000000000000000000000000000000008152505b8251602084015160808501515161169c576040518060400160405280600b81526020017f28616e6f6e796d6f7573290000000000000000000000000000000000000000008152506116a2565b84608001515b6040516020016116b5949392919061271a565b604051602081830303815290604052905092915050565b60608151600014156116ec57505060408051602081019091526000815290565b6000604051806060016040528060408152602001612ec1604091399050600060038451600261171b9190612d45565b6117259190612d5d565b611730906004612d71565b9050600061173f826020612d45565b67ffffffffffffffff81111561175757611757612e7f565b6040519080825280601f01601f191660200182016040528015611781576020820181803683370190505b509050818152600183018586518101602084015b818310156117ed576003830192508251603f8160121c168501518253600182019150603f81600c1c168501518253600182019150603f8160061c168501518253600182019150603f8116850151825350600101611795565b60038951066001811461180757600281146118335761185b565b7f3d3d00000000000000000000000000000000000000000000000000000000000060011983015261185b565b7f3d000000000000000000000000000000000000000000000000000000000000006000198301525b509398975050505050505050565b606061187c8260c0015161ffff166118b4565b61188d8360e0015161ffff166118b4565b60405160200161189e92919061288e565b6040516020818303038152906040529050919050565b6060816118f457505060408051808201909152600181527f3000000000000000000000000000000000000000000000000000000000000000602082015290565b8160005b811561191e578061190881612e0e565b91506119179050600a83612d5d565b91506118f8565b60008167ffffffffffffffff81111561193957611939612e7f565b6040519080825280601f01601f191660200182016040528015611963576020820181803683370190505b5090505b841561138357611978600183612d90565b9150611985600a86612e29565b611990906030612d45565b60f81b8183815181106119a5576119a5612e69565b60200101907effffffffffffffffffffffffffffffffffffffffffffffffffffffffffffff1916908160001a9053506119df600a86612d5d565b9450611967565b80356119f181612e95565b919050565b80516119f181612e95565b600082601f830112611a1257600080fd5b8135602067ffffffffffffffff80831115611a2f57611a2f612e7f565b8260051b611a3e838201612cec565b8481528381019087850183890186018a1015611a5957600080fd5b600093505b86841015611af057803585811115611a7557600080fd5b89016040818c03601f1901811315611a8c57600080fd5b611a94612c7c565b8883013588811115611aa557600080fd5b611ab38e8b83870101611afd565b825250908201359087821115611ac857600080fd5b611ad68d8a84860101611afd565b818a01528552505060019390930192918501918501611a5e565b5098975050505050505050565b600082601f830112611b0e57600080fd5b8135611b21611b1c82612d1d565b612cec565b818152846020838601011115611b3657600080fd5b816020850160208301376000918101602001919091529392505050565b600082601f830112611b6457600080fd5b8151611b72611b1c82612d1d565b818152846020838601011115611b8757600080fd5b611383826020830160208701612da7565b805161ffff811681146119f157600080fd5b600060208284031215611bbc57600080fd5b8135610f7781612e95565b600060208284031215611bd957600080fd5b8151610f7781612e95565b60008060408385031215611bf757600080fd5b8235611c0281612e95565b91506020830135611c1281612e95565b809150509250929050565b600080600060608486031215611c3257600080fd5b8335611c3d81612e95565b92506020840135611c4d81612e95565b929592945050506040919091013590565b60008060008060808587031215611c7457600080fd5b8435611c7f81612e95565b93506020850135611c8f81612e95565b925060408501359150606085013567ffffffffffffffff811115611cb257600080fd5b611cbe87828801611afd565b91505092959194509250565b60008060408385031215611cdd57600080fd5b8235611ce881612e95565b915060208301358015158114611c1257600080fd5b60008060408385031215611d1057600080fd5b8235611d1b81612e95565b946020939093013593505050565b600060208284031215611d3b57600080fd5b8135610f7781612eaa565b600060208284031215611d5857600080fd5b8151610f7781612eaa565b600060208284031215611d7557600080fd5b815167ffffffffffffffff811115611d8c57600080fd5b61138384828501611b53565b600060208284031215611daa57600080fd5b815167ffffffffffffffff80821115611dc257600080fd5b908301906101008286031215611dd757600080fd5b611ddf612ca5565b825182811115611dee57600080fd5b611dfa87828601611b53565b825250602083015182811115611e0f57600080fd5b611e1b87828601611b53565b602083015250604083015182811115611e3357600080fd5b611e3f87828601611b53565b604083015250606083015182811115611e5757600080fd5b611e6387828601611b53565b606083015250608083015182811115611e7b57600080fd5b611e8787828601611b53565b608083015250611e9960a084016119f6565b60a0820152611eaa60c08401611b98565b60c0820152611ebb60e08401611b98565b60e082015295945050505050565b60008060408385031215611edc57600080fd5b823567ffffffffffffffff80821115611ef457600080fd5b9084019060c08287031215611f0857600080fd5b611f10612cc9565b823582811115611f1f57600080fd5b611f2b88828601611afd565b825250602083013582811115611f4057600080fd5b611f4c88828601611afd565b602083015250604083013582811115611f6457600080fd5b611f7088828601611afd565b604083015250606083013582811115611f8857600080fd5b611f9488828601611afd565b606083015250611fa6608084016119e6565b608082015260a083013582811115611fbd57600080fd5b611fc988828601611a01565b60a0830152509660209590950135955050505050565b600060208284031215611ff157600080fd5b5035919050565b60006020828403121561200a57600080fd5b5051919050565b60008151808452612029816020860160208601612da7565b601f01601f19169290920160200192915050565b6000815161204f818560208601612da7565b9290920192915050565b6000845161206b818460208901612da7565b80830190507f203c75736520687265663d22236261736522202f3e0a203c757365206872656681527f3d22000000000000000000000000000000000000000000000000000000000000602082015284516120cc816022840160208901612da7565b7f222066696c6c3d2200000000000000000000000000000000000000000000000060229290910191820152835161210a81602a840160208801612da7565b7f22202f3e0a000000000000000000000000000000000000000000000000000000602a9290910191820152602f0195945050505050565b60008351612153818460208801612da7565b80830190507f203c6d61736b2069643d2261737365744d61736b2220646573633d224d61746581527f7269616c2049636f6e73202841706163686520322e30292f536f6369616c2f5060208201527f75626c6963223e0a20203c75736520687265663d220000000000000000000000604082015283516121da816055840160208801612da7565b7f222066696c6c3d22776869746522202f3e0a203c2f6d61736b3e0a203c757365605592909101918201527f20687265663d22236261736522206d61736b3d2275726c282361737365744d6160758201526739b5949110179f0560c11b6095820152609d01949350505050565b60008351612259818460208801612da7565b80830190507f3c672069643d2262617365223e0a203c7265637420783d22302220793d22302281527f2077696474683d2235313222206865696768743d22353132222066696c6c3d228060208301527f2334323835463422202f3e0a203c7265637420783d22302220793d223531322260408301528060608301527f2333344138353322202f3e0a203c7265637420783d223531322220793d22302260808301528060a0830152507f2346424243303522202f3e0a203c7265637420783d223531322220793d22353160c08201527f32222077696474683d2235313222206865696768743d22353132222066696c6c60e08201527f3d2223454134333335222f3e0a3c2f673e00000000000000000000000000000061010082015261011184516123898183850160208901612da7565b7f3c2f646566733e0a3c672066696c7465723d2275726c2823663129223e0a000092019081019190915261012f01949350505050565b600082516123d1818460208701612da7565b7f3c2f673e0a3c2f7376673e000000000000000000000000000000000000000000920191825250600b01919050565b60008351612412818460208801612da7565b80830190507f203c6d61736b2069643d2261737365744d61736b2220646573633d224d61746581527f7269616c2049636f6e73202841706163686520322e30292f536f6369616c2f5060208201527f75626c6963223e0a20203c7265637420783d22302220793d223022207769647460408201527f683d223130323422206865696768743d2231303234222066696c6c3d2277686960608201527f746522202f3e0a20203c75736520687265663d22000000000000000000000000608082015283516124e5816094840160208801612da7565b7f222066696c6c3d22626c61636b22202f3e0a203c2f6d61736b3e0a203c757365609492909101918201527f20687265663d22236261736522206d61736b3d2275726c282361737365744d6160b48201526739b5949110179f0560c11b60d482015260dc01949350505050565b7f7b226e616d65223a220000000000000000000000000000000000000000000000815260008551602061258b8260098601838b01612da7565b7f222c226465736372697074696f6e223a220000000000000000000000000000006009928501928301528654601a90600090600181811c90808316806125d257607f831692505b8683108114156125f057634e487b7160e01b85526022600452602485fd5b80801561260457600181146126195761264a565b60ff198516898801528389018701955061264a565b60008e81526020902060005b858110156126405781548b82018a0152908401908901612625565b505086848a010195505b505050505061270c6126e36126dd61268e612688857f222c2261747472696275746573223a5b00000000000000000000000000000000815260100190565b8c61203d565b7f5d2c22696d616765223a22646174613a696d6167652f7376672b786d6c3b626181527f736536342c000000000000000000000000000000000000000000000000000000602082015260250190565b8961203d565b7f227d000000000000000000000000000000000000000000000000000000000000815260020190565b9a9950505050505050505050565b7f7b2274726169745f74797065223a22536f756c626f756e64222c2276616c7565815260007f223a2200000000000000000000000000000000000000000000000000000000008060208401528651612779816023860160208b01612da7565b7f227d2c7b2274726169745f74797065223a2247726f7570222c2276616c7565226023918501918201527f3a22000000000000000000000000000000000000000000000000000000000000604382015286516127dc816045840160208b01612da7565b7f227d2c7b2274726169745f74797065223a2243617465676f7279222c2276616c604592909101918201527f7565223a220000000000000000000000000000000000000000000000000000006065820152855161284081606a840160208a01612da7565b8082019150507f227d2c7b2274726169745f74797065223a224d696e746572222c2276616c7565606a82015281608a8201526128826126e3608d83018761203d565b98975050505050505050565b7f3c7376672076696577426f783d223020302000000000000000000000000000008152600083516128c6816012850160208801612da7565b7f20000000000000000000000000000000000000000000000000000000000000006012918401918201528351612903816013840160208801612da7565b7f222020786d6c6e733d22687474703a2f2f7777772e77332e6f72672f32303030601392909101918201527f2f737667223e0a3c646566733e0a203c66696c7465722069643d22663122207860338201527f3d22302220793d2230222077696474683d223230302522206865696768743d2260538201527f32303025223e0a20203c66654f666673657420726573756c743d226f66664f7560738201527f742220696e3d22536f75726365416c706861222064783d223234222064793d2260938201527f333222202f3e0a20203c6665476175737369616e426c757220726573756c743d60b38201527f22626c75724f75742220696e3d226f66664f757422207374644465766961746960d38201527f6f6e3d22313622202f3e0a20203c6665426c656e6420696e3d22536f7572636560f38201527f477261706869632220696e323d22626c75724f757422206d6f64653d226e6f726101138201527f6d616c22202f3e0a203c2f66696c7465723e0a0000000000000000000000000061013382015261014601949350505050565b7f2300000000000000000000000000000000000000000000000000000000000000815260008251612aca816001850160208701612da7565b9190910160010192915050565b7f646174613a6170706c69636174696f6e2f6a736f6e3b6261736536342c000000815260008251612b0f81601d850160208701612da7565b91909101601d0192915050565b60006001600160a01b03808716835280861660208401525083604083015260806060830152612b4e6080830184612011565b9695505050505050565b602081526000610f776020830184612011565b60006020808352835160c082850152612b8760e0850182612011565b905081850151601f196040818785030181880152612ba58484612011565b935080880151925081878503016060880152612bc18484612011565b93506060880151925081878503016080880152612bde8484612011565b93506001600160a01b0360808901511660a088015260a08801519250818785030160c08801528383518086528686019150868160051b870101878601955060005b82811015612c6d578588830301845286518051868452612c4187850182612011565b918b0151848303858d0152919050612c598183612011565b988b0198958b019593505050600101612c1f565b509a9950505050505050505050565b6040805190810167ffffffffffffffff81118282101715612c9f57612c9f612e7f565b60405290565b604051610100810167ffffffffffffffff81118282101715612c9f57612c9f612e7f565b60405160c0810167ffffffffffffffff81118282101715612c9f57612c9f612e7f565b604051601f8201601f1916810167ffffffffffffffff81118282101715612d1557612d15612e7f565b604052919050565b600067ffffffffffffffff821115612d3757612d37612e7f565b50601f01601f191660200190565b60008219821115612d5857612d58612e3d565b500190565b600082612d6c57612d6c612e53565b500490565b6000816000190483118215151615612d8b57612d8b612e3d565b500290565b600082821015612da257612da2612e3d565b500390565b60005b83811015612dc2578181015183820152602001612daa565b83811115610c735750506000910152565b600181811c90821680612de757607f821691505b60208210811415612e0857634e487b7160e01b600052602260045260246000fd5b50919050565b6000600019821415612e2257612e22612e3d565b5060010190565b600082612e3857612e38612e53565b500690565b634e487b7160e01b600052601160045260246000fd5b634e487b7160e01b600052601260045260246000fd5b634e487b7160e01b600052603260045260246000fd5b634e487b7160e01b600052604160045260246000fd5b6001600160a01b038116811461106d57600080fd5b6001600160e01b03198116811461106d57600080fdfe4142434445464748494a4b4c4d4e4f505152535455565758595a6162636465666768696a6b6c6d6e6f707172737475767778797a303132333435363738392b2fa2646970667358221220972f8d2e06d3ea7e764de9341462dc5198d25424f41f847459f684ba71ebfa1664736f6c6343000806003354686973206973206f6e65206f6620656666747320746f2063726561746520284f6e2d436861696e2041737365742053746f7265295b68747470733a2f2f617373657473746f72652e78797a5d2e",
  "linkReferences": {},
  "deployedLinkReferences": {}
}