{
  "_format": "hh-sol-artifact-1",
  "contractName": "MaterialToken",
  "sourceName": "contracts/MaterialToken.sol",
  "abi": [
    {
      "inputs": [
        {
          "internalType": "contract IAssetStoreRegistry",
          "name": "_registry",
          "type": "address"
        },
        {
          "internalType": "contract IAssetStore",
          "name": "_assetStore",
          "type": "address"
        },
        {
          "internalType": "address",
          "name": "_developer",
          "type": "address"
        },
        {
          "internalType": "contract IProxyRegistry",
          "name": "_proxyRegistry",
          "type": "address"
        }
      ],
      "stateMutability": "nonpayable",
      "type": "constructor"
    },
    {
      "inputs": [],
      "name": "ApprovalCallerNotOwnerNorApproved",
      "type": "error"
    },
    {
      "inputs": [],
      "name": "ApprovalQueryForNonexistentToken",
      "type": "error"
    },
    {
      "inputs": [],
      "name": "ApproveToCaller",
      "type": "error"
    },
    {
      "inputs": [],
      "name": "BalanceQueryForZeroAddress",
      "type": "error"
    },
    {
      "inputs": [],
      "name": "MintERC2309QuantityExceedsLimit",
      "type": "error"
    },
    {
      "inputs": [],
      "name": "MintToZeroAddress",
      "type": "error"
    },
    {
      "inputs": [],
      "name": "MintZeroQuantity",
      "type": "error"
    },
    {
      "inputs": [],
      "name": "OwnerQueryForNonexistentToken",
      "type": "error"
    },
    {
      "inputs": [],
      "name": "OwnershipNotInitializedForExtraData",
      "type": "error"
    },
    {
      "inputs": [],
      "name": "TransferCallerNotOwnerNorApproved",
      "type": "error"
    },
    {
      "inputs": [],
      "name": "TransferFromIncorrectOwner",
      "type": "error"
    },
    {
      "inputs": [],
      "name": "TransferToNonERC721ReceiverImplementer",
      "type": "error"
    },
    {
      "inputs": [],
      "name": "TransferToZeroAddress",
      "type": "error"
    },
    {
      "inputs": [],
      "name": "URIQueryForNonexistentToken",
      "type": "error"
    },
    {
      "anonymous": false,
      "inputs": [
        {
          "indexed": true,
          "internalType": "address",
          "name": "owner",
          "type": "address"
        },
        {
          "indexed": true,
          "internalType": "address",
          "name": "approved",
          "type": "address"
        },
        {
          "indexed": true,
          "internalType": "uint256",
          "name": "tokenId",
          "type": "uint256"
        }
      ],
      "name": "Approval",
      "type": "event"
    },
    {
      "anonymous": false,
      "inputs": [
        {
          "indexed": true,
          "internalType": "address",
          "name": "owner",
          "type": "address"
        },
        {
          "indexed": true,
          "internalType": "address",
          "name": "operator",
          "type": "address"
        },
        {
          "indexed": false,
          "internalType": "bool",
          "name": "approved",
          "type": "bool"
        }
      ],
      "name": "ApprovalForAll",
      "type": "event"
    },
    {
      "anonymous": false,
      "inputs": [
        {
          "indexed": true,
          "internalType": "uint256",
          "name": "fromTokenId",
          "type": "uint256"
        },
        {
          "indexed": false,
          "internalType": "uint256",
          "name": "toTokenId",
          "type": "uint256"
        },
        {
          "indexed": true,
          "internalType": "address",
          "name": "from",
          "type": "address"
        },
        {
          "indexed": true,
          "internalType": "address",
          "name": "to",
          "type": "address"
        }
      ],
      "name": "ConsecutiveTransfer",
      "type": "event"
    },
    {
      "anonymous": false,
      "inputs": [
        {
          "indexed": true,
          "internalType": "address",
          "name": "previousOwner",
          "type": "address"
        },
        {
          "indexed": true,
          "internalType": "address",
          "name": "newOwner",
          "type": "address"
        }
      ],
      "name": "OwnershipTransferred",
      "type": "event"
    },
    {
      "anonymous": false,
      "inputs": [
        {
          "indexed": true,
          "internalType": "address",
          "name": "from",
          "type": "address"
        },
        {
          "indexed": true,
          "internalType": "address",
          "name": "to",
          "type": "address"
        },
        {
          "indexed": true,
          "internalType": "uint256",
          "name": "tokenId",
          "type": "uint256"
        }
      ],
      "name": "Transfer",
      "type": "event"
    },
    {
      "inputs": [
        {
          "internalType": "address",
          "name": "to",
          "type": "address"
        },
        {
          "internalType": "uint256",
          "name": "tokenId",
          "type": "uint256"
        }
      ],
      "name": "approve",
      "outputs": [],
      "stateMutability": "nonpayable",
      "type": "function"
    },
    {
      "inputs": [],
      "name": "assetStore",
      "outputs": [
        {
          "internalType": "contract IAssetStore",
          "name": "",
          "type": "address"
        }
      ],
      "stateMutability": "view",
      "type": "function"
    },
    {
      "inputs": [
        {
          "internalType": "address",
          "name": "owner",
          "type": "address"
        }
      ],
      "name": "balanceOf",
      "outputs": [
        {
          "internalType": "uint256",
          "name": "",
          "type": "uint256"
        }
      ],
      "stateMutability": "view",
      "type": "function"
    },
    {
      "inputs": [],
      "name": "description",
      "outputs": [
        {
          "internalType": "string",
          "name": "",
          "type": "string"
        }
      ],
      "stateMutability": "view",
      "type": "function"
    },
    {
      "inputs": [],
      "name": "developer",
      "outputs": [
        {
          "internalType": "address",
          "name": "",
          "type": "address"
        }
      ],
      "stateMutability": "view",
      "type": "function"
    },
    {
      "inputs": [
        {
          "internalType": "uint256",
          "name": "_style",
          "type": "uint256"
        },
        {
          "internalType": "string",
          "name": "svgPart",
          "type": "string"
        },
        {
          "components": [
            {
              "internalType": "string",
              "name": "group",
              "type": "string"
            },
            {
              "internalType": "string",
              "name": "category",
              "type": "string"
            },
            {
              "internalType": "string",
              "name": "name",
              "type": "string"
            },
            {
              "internalType": "string",
              "name": "tag",
              "type": "string"
            },
            {
              "internalType": "string",
              "name": "minter",
              "type": "string"
            },
            {
              "internalType": "address",
              "name": "soulbound",
              "type": "address"
            },
            {
              "internalType": "uint16",
              "name": "width",
              "type": "uint16"
            },
            {
              "internalType": "uint16",
              "name": "height",
              "type": "uint16"
            }
          ],
          "internalType": "struct IAssetStore.AssetAttributes",
          "name": "_attr",
          "type": "tuple"
        }
      ],
      "name": "generateSVG",
      "outputs": [
        {
          "internalType": "bytes",
          "name": "",
          "type": "bytes"
        }
      ],
      "stateMutability": "pure",
      "type": "function"
    },
    {
      "inputs": [
        {
          "internalType": "uint256",
          "name": "tokenId",
          "type": "uint256"
        }
      ],
      "name": "getApproved",
      "outputs": [
        {
          "internalType": "address",
          "name": "",
          "type": "address"
        }
      ],
      "stateMutability": "view",
      "type": "function"
    },
    {
      "inputs": [
        {
          "internalType": "uint256",
          "name": "_tokenId",
          "type": "uint256"
        }
      ],
      "name": "getAssetId",
      "outputs": [
        {
          "internalType": "uint256",
          "name": "",
          "type": "uint256"
        }
      ],
      "stateMutability": "view",
      "type": "function"
    },
    {
      "inputs": [],
      "name": "getCurrentToken",
      "outputs": [
        {
          "internalType": "uint256",
          "name": "",
          "type": "uint256"
        }
      ],
      "stateMutability": "view",
      "type": "function"
    },
    {
      "inputs": [
        {
          "internalType": "address",
          "name": "owner",
          "type": "address"
        },
        {
          "internalType": "address",
          "name": "operator",
          "type": "address"
        }
      ],
      "name": "isApprovedForAll",
      "outputs": [
        {
          "internalType": "bool",
          "name": "",
          "type": "bool"
        }
      ],
      "stateMutability": "view",
      "type": "function"
    },
    {
      "inputs": [
        {
          "components": [
            {
              "internalType": "string",
              "name": "group",
              "type": "string"
            },
            {
              "internalType": "string",
              "name": "category",
              "type": "string"
            },
            {
              "internalType": "string",
              "name": "name",
              "type": "string"
            },
            {
              "internalType": "string",
              "name": "minter",
              "type": "string"
            },
            {
              "internalType": "address",
              "name": "soulbound",
              "type": "address"
            },
            {
              "components": [
                {
                  "internalType": "bytes",
                  "name": "body",
                  "type": "bytes"
                },
                {
                  "internalType": "string",
                  "name": "color",
                  "type": "string"
                }
              ],
              "internalType": "struct IAssetStoreRegistry.Part[]",
              "name": "parts",
              "type": "tuple[]"
            }
          ],
          "internalType": "struct IAssetStoreRegistry.AssetInfo",
          "name": "_assetInfo",
          "type": "tuple"
        },
        {
          "internalType": "uint256",
          "name": "_affiliate",
          "type": "uint256"
        }
      ],
      "name": "mintWithAsset",
      "outputs": [],
      "stateMutability": "nonpayable",
      "type": "function"
    },
    {
      "inputs": [],
      "name": "name",
      "outputs": [
        {
          "internalType": "string",
          "name": "",
          "type": "string"
        }
      ],
      "stateMutability": "view",
      "type": "function"
    },
    {
      "inputs": [],
      "name": "owner",
      "outputs": [
        {
          "internalType": "address",
          "name": "",
          "type": "address"
        }
      ],
      "stateMutability": "view",
      "type": "function"
    },
    {
      "inputs": [
        {
          "internalType": "uint256",
          "name": "tokenId",
          "type": "uint256"
        }
      ],
      "name": "ownerOf",
      "outputs": [
        {
          "internalType": "address",
          "name": "",
          "type": "address"
        }
      ],
      "stateMutability": "view",
      "type": "function"
    },
    {
      "inputs": [],
      "name": "proxyRegistry",
      "outputs": [
        {
          "internalType": "contract IProxyRegistry",
          "name": "",
          "type": "address"
        }
      ],
      "stateMutability": "view",
      "type": "function"
    },
    {
      "inputs": [],
      "name": "registry",
      "outputs": [
        {
          "internalType": "contract IAssetStoreRegistry",
          "name": "",
          "type": "address"
        }
      ],
      "stateMutability": "view",
      "type": "function"
    },
    {
      "inputs": [],
      "name": "renounceOwnership",
      "outputs": [],
      "stateMutability": "nonpayable",
      "type": "function"
    },
    {
      "inputs": [
        {
          "internalType": "address",
          "name": "from",
          "type": "address"
        },
        {
          "internalType": "address",
          "name": "to",
          "type": "address"
        },
        {
          "internalType": "uint256",
          "name": "tokenId",
          "type": "uint256"
        }
      ],
      "name": "safeTransferFrom",
      "outputs": [],
      "stateMutability": "nonpayable",
      "type": "function"
    },
    {
      "inputs": [
        {
          "internalType": "address",
          "name": "from",
          "type": "address"
        },
        {
          "internalType": "address",
          "name": "to",
          "type": "address"
        },
        {
          "internalType": "uint256",
          "name": "tokenId",
          "type": "uint256"
        },
        {
          "internalType": "bytes",
          "name": "_data",
          "type": "bytes"
        }
      ],
      "name": "safeTransferFrom",
      "outputs": [],
      "stateMutability": "nonpayable",
      "type": "function"
    },
    {
      "inputs": [
        {
          "internalType": "address",
          "name": "operator",
          "type": "address"
        },
        {
          "internalType": "bool",
          "name": "approved",
          "type": "bool"
        }
      ],
      "name": "setApprovalForAll",
      "outputs": [],
      "stateMutability": "nonpayable",
      "type": "function"
    },
    {
      "inputs": [
        {
          "internalType": "bytes4",
          "name": "interfaceId",
          "type": "bytes4"
        }
      ],
      "name": "supportsInterface",
      "outputs": [
        {
          "internalType": "bool",
          "name": "",
          "type": "bool"
        }
      ],
      "stateMutability": "view",
      "type": "function"
    },
    {
      "inputs": [],
      "name": "symbol",
      "outputs": [
        {
          "internalType": "string",
          "name": "",
          "type": "string"
        }
      ],
      "stateMutability": "view",
      "type": "function"
    },
    {
      "inputs": [
        {
          "internalType": "uint256",
          "name": "_tokenId",
          "type": "uint256"
        }
      ],
      "name": "tokenURI",
      "outputs": [
        {
          "internalType": "string",
          "name": "",
          "type": "string"
        }
      ],
      "stateMutability": "view",
      "type": "function"
    },
    {
      "inputs": [],
      "name": "totalSupply",
      "outputs": [
        {
          "internalType": "uint256",
          "name": "",
          "type": "uint256"
        }
      ],
      "stateMutability": "view",
      "type": "function"
    },
    {
      "inputs": [
        {
          "internalType": "address",
          "name": "from",
          "type": "address"
        },
        {
          "internalType": "address",
          "name": "to",
          "type": "address"
        },
        {
          "internalType": "uint256",
          "name": "tokenId",
          "type": "uint256"
        }
      ],
      "name": "transferFrom",
      "outputs": [],
      "stateMutability": "nonpayable",
      "type": "function"
    },
    {
      "inputs": [
        {
          "internalType": "address",
          "name": "newOwner",
          "type": "address"
        }
      ],
      "name": "transferOwnership",
      "outputs": [],
      "stateMutability": "nonpayable",
      "type": "function"
    }
  ],
  "bytecode": "0x610160604052604e60e081815290620034166101003980516200002b91600a916020909101906200018f565b503480156200003957600080fd5b5060405162003464380380620034648339810160408190526200005c9162000235565b6040518060400160405280600e81526020016d4d6174657269616c2049636f6e7360901b81525060405180604001604052806008815260200167135055115492505360c21b815250620000be620000b86200013b60201b60201c565b6200013f565b8151620000d39060039060208501906200018f565b508051620000e99060049060208401906200018f565b5060006001555050606093841b6001600160601b031990811660805292841b831660a052600b80546001600160a01b0319166001600160a01b03939093169290921790915590911b1660c052620002f3565b3390565b600080546001600160a01b038381166001600160a01b0319831681178455604051919092169283917f8be0079c531659141344cd1fd0a4f28419497f9722a3daafe3b4186f6b6457e09190a35050565b8280546200019d906200029d565b90600052602060002090601f016020900481019282620001c157600085556200020c565b82601f10620001dc57805160ff19168380011785556200020c565b828001600101855582156200020c579182015b828111156200020c578251825591602001919060010190620001ef565b506200021a9291506200021e565b5090565b5b808211156200021a57600081556001016200021f565b600080600080608085870312156200024c57600080fd5b84516200025981620002da565b60208601519094506200026c81620002da565b60408601519093506200027f81620002da565b60608601519092506200029281620002da565b939692955090935050565b600181811c90821680620002b257607f821691505b60208210811415620002d457634e487b7160e01b600052602260045260246000fd5b50919050565b6001600160a01b0381168114620002f057600080fd5b50565b60805160601c60a05160601c60c05160601c6130ce62000348600039600081816103470152610fa001526000818161027101528181610d7d0152610e5a0152600081816102e10152610b3101526130ce6000f3fe608060405234801561001057600080fd5b50600436106101ae5760003560e01c80637b103999116100ee578063b88d4fde11610097578063e985e9c511610071578063e985e9c5146103a2578063ef2d1746146103b5578063f2fde38b146103bd578063fce4740d146103d057600080fd5b8063b88d4fde14610369578063c87b56dd1461037c578063ca4b208b1461038f57600080fd5b8063a22cb465116100c8578063a22cb4651461031c578063aef436591461032f578063b50cbd9f1461034257600080fd5b80637b103999146102dc5780638da5cb5b1461030357806395d89b411461031457600080fd5b806342842e0e1161015b5780636352211e116101355780636352211e146102a657806370a08231146102b9578063715018a6146102cc5780637284e416146102d457600080fd5b806342842e0e14610259578063597a0e361461026c57806361f547fd1461029357600080fd5b8063095ea7b31161018c578063095ea7b31461021b57806318160ddd1461023057806323b872dd1461024657600080fd5b806301ffc9a7146101b357806306fdde03146101db578063081812fc146101f0575b600080fd5b6101c66101c1366004611d50565b6103e3565b60405190151581526020015b60405180910390f35b6101e3610480565b6040516101d29190612ce0565b6102036101fe366004612006565b610512565b6040516001600160a01b0390911681526020016101d2565b61022e610229366004611d24565b61056f565b005b600254600154035b6040519081526020016101d2565b61022e610254366004611c44565b610635565b61022e610267366004611c44565b610812565b6102037f000000000000000000000000000000000000000000000000000000000000000081565b6102386102a1366004612006565b610832565b6102036102b4366004612006565b6108d9565b6102386102c7366004611bd1565b6108e4565b61022e61094c565b6101e36109b2565b6102037f000000000000000000000000000000000000000000000000000000000000000081565b6000546001600160a01b0316610203565b6101e3610a40565b61022e61032a366004611cf1565b610a4f565b61022e61033d366004611ef0565b610afe565b6102037f000000000000000000000000000000000000000000000000000000000000000081565b61022e610377366004611c85565b610c97565b6101e361038a366004612006565b610cdb565b600b54610203906001600160a01b031681565b6101c66103b0366004611c0b565b610f61565b610238611062565b61022e6103cb366004611bd1565b611072565b6101e36103de366004612038565b611154565b60007f01ffc9a7000000000000000000000000000000000000000000000000000000006001600160e01b03198316148061044657507f80ac58cd000000000000000000000000000000000000000000000000000000006001600160e01b03198316145b8061047a57507f5b5e139f000000000000000000000000000000000000000000000000000000006001600160e01b03198316145b92915050565b60606003805461048f90612f5b565b80601f01602080910402602001604051908101604052809291908181526020018280546104bb90612f5b565b80156105085780601f106104dd57610100808354040283529160200191610508565b820191906000526020600020905b8154815290600101906020018083116104eb57829003601f168201915b5050505050905090565b600061051d826112d7565b610553576040517fcf4700e400000000000000000000000000000000000000000000000000000000815260040160405180910390fd5b506000908152600760205260409020546001600160a01b031690565b600061057a826108d9565b9050336001600160a01b038216146105cc576105968133610f61565b6105cc576040517fcfb3b94200000000000000000000000000000000000000000000000000000000815260040160405180910390fd5b600082815260076020526040808220805473ffffffffffffffffffffffffffffffffffffffff19166001600160a01b0387811691821790925591518593918516917f8c5be1e5ebec7d5bd14f71427d1e84f3dd0314c0f7b2291e5b200ac8c7c3b92591a4505050565b6000610640826112ff565b9050836001600160a01b0316816001600160a01b03161461068d576040517fa114810000000000000000000000000000000000000000000000000000000000815260040160405180910390fd5b60008281526007602052604090208054338082146001600160a01b038816909114176106f3576106bd8633610f61565b6106f3576040517f59c896be00000000000000000000000000000000000000000000000000000000815260040160405180910390fd5b6001600160a01b038516610733576040517fea553b3400000000000000000000000000000000000000000000000000000000815260040160405180910390fd5b801561073e57600082555b6001600160a01b038681166000908152600660205260408082208054600019019055918716808252919020805460010190554260a01b17600160e11b17600085815260056020526040902055600160e11b83166107c957600184016000818152600560205260409020546107c75760015481146107c75760008181526005602052604090208490555b505b83856001600160a01b0316876001600160a01b03167fddf252ad1be2c89b69c2b068fc378daa952ba7f163c4a11628f55a4df523b3ef60405160405180910390a4505050505050565b61082d83838360405180602001604052806000815250610c97565b505050565b600061083d826112d7565b6108b45760405162461bcd60e51b815260206004820152602b60248201527f4d6174657269616c546f6b656e2e676574417373657449643a206e6f6e65786960448201527f7374656e7420746f6b656e00000000000000000000000000000000000000000060648201526084015b60405180910390fd5b600960006108c3600485612ee5565b8152602001908152602001600020549050919050565b600061047a826112ff565b60006001600160a01b038216610926576040517f8f4eb60400000000000000000000000000000000000000000000000000000000815260040160405180910390fd5b506001600160a01b031660009081526006602052604090205467ffffffffffffffff1690565b6000546001600160a01b031633146109a65760405162461bcd60e51b815260206004820181905260248201527f4f776e61626c653a2063616c6c6572206973206e6f7420746865206f776e657260448201526064016108ab565b6109b06000611379565b565b600a80546109bf90612f5b565b80601f01602080910402602001604051908101604052809291908181526020018280546109eb90612f5b565b8015610a385780601f10610a0d57610100808354040283529160200191610a38565b820191906000526020600020905b815481529060010190602001808311610a1b57829003601f168201915b505050505081565b60606004805461048f90612f5b565b6001600160a01b038216331415610a92576040517fb06307db00000000000000000000000000000000000000000000000000000000815260040160405180910390fd5b3360008181526008602090815260408083206001600160a01b03871680855290835292819020805460ff191686151590811790915590519081529192917f17307eab39ab6107e8899845ad3d59bd9653f200f220920489ca2b5937696c31910160405180910390a35050565b6040517fabca1e630000000000000000000000000000000000000000000000000000000081526000906001600160a01b037f0000000000000000000000000000000000000000000000000000000000000000169063abca1e6390610b66908690600401612cf3565b602060405180830381600087803b158015610b8057600080fd5b505af1158015610b94573d6000803e3d6000fd5b505050506040513d601f19601f82011682018060405250810190610bb8919061201f565b90506000610bc560015490565b90508160096000610bd7600485612ee5565b8152602081019190915260400160002055610bfd33610bf860016004612f18565b6113d6565b600083118015610c115750610c11836114e6565b8015610c2e575033610c22846108d9565b6001600160a01b031614155b15610c4b57610c46610c3f846108d9565b60016113d6565b610c91565b6004610c578183612ee5565b610c619190612fb1565b610c7c57600b54610c46906001600160a01b031660016113d6565b610c91610c3f6000546001600160a01b031690565b50505050565b610ca2848484610635565b6001600160a01b0383163b15610c9157610cbe848484846114fa565b610c91576040516368d2bf6b60e11b815260040160405180910390fd5b6060610ce6826112d7565b610d585760405162461bcd60e51b815260206004820152602960248201527f4d6174657269616c546f6b656e2e746f6b656e5552493a206e6f6e657869737460448201527f656e7420746f6b656e000000000000000000000000000000000000000000000060648201526084016108ab565b6000600981610d68600486612ee5565b815260200190815260200160002054905060007f00000000000000000000000000000000000000000000000000000000000000006001600160a01b0316634378a6e3836040518263ffffffff1660e01b8152600401610dc991815260200190565b60006040518083038186803b158015610de157600080fd5b505afa158015610df5573d6000803e3d6000fd5b505050506040513d6000823e601f3d908101601f19168201604052610e1d9190810190611dbf565b6040517fe3f24f02000000000000000000000000000000000000000000000000000000008152600481018490529091506000906001600160a01b037f0000000000000000000000000000000000000000000000000000000000000000169063e3f24f029060240160006040518083038186803b158015610e9c57600080fd5b505afa158015610eb0573d6000803e3d6000fd5b505050506040513d6000823e601f3d908101601f19168201604052610ed89190810190611d8a565b90506000610ef1610eea600488612fb1565b8385611154565b9050610f378360400151600a610f0789876115f2565b610f10856116ef565b604051602001610f2394939291906126da565b6040516020818303038152906040526116ef565b604051602001610f479190612c5f565b604051602081830303815290604052945050505050919050565b6040517fc45527910000000000000000000000000000000000000000000000000000000081526001600160a01b038381166004830152600091818416917f0000000000000000000000000000000000000000000000000000000000000000169063c45527919060240160206040518083038186803b158015610fe257600080fd5b505afa158015610ff6573d6000803e3d6000fd5b505050506040513d601f19601f8201168201806040525081019061101a9190611bee565b6001600160a01b031614156110315750600161047a565b6001600160a01b0380841660009081526008602090815260408083209386168352929052205460ff165b9392505050565b600061106d60015490565b905090565b6000546001600160a01b031633146110cc5760405162461bcd60e51b815260206004820181905260248201527f4f776e61626c653a2063616c6c6572206973206e6f7420746865206f776e657260448201526064016108ab565b6001600160a01b0381166111485760405162461bcd60e51b815260206004820152602660248201527f4f776e61626c653a206e6577206f776e657220697320746865207a65726f206160448201527f646472657373000000000000000000000000000000000000000000000000000060648201526084016108ab565b61115181611379565b50565b60606000826060015160405160200161116d9190612c1a565b604051602081830303815290604052905060006111898461188c565b8560405160200161119b9291906123cf565b604051602081830303815290604052905085600014156111de5780826040516020016111c89291906122c9565b60405160208183030381529060405290506112ac565b6111ea60016004612f18565b8610156112875780826111fe600289612fb1565b1561123e576040518060400160405280600581526020017f7768697465000000000000000000000000000000000000000000000000000000815250611275565b6040518060400160405280600581526020017f626c61636b0000000000000000000000000000000000000000000000000000008152505b6040516020016111c8939291906121e1565b808260405160200161129a929190612588565b60405160208183030381529060405290505b806040516020016112bd9190612547565b604051602081830303815290604052925050509392505050565b60006001548210801561047a575050600090815260056020526040902054600160e01b161590565b60008160015481101561134757600081815260056020526040902054600160e01b8116611345575b8061105b575060001901600081815260056020526040902054611327565b505b6040517fdf2d9b4200000000000000000000000000000000000000000000000000000000815260040160405180910390fd5b600080546001600160a01b0383811673ffffffffffffffffffffffffffffffffffffffff19831681178455604051919092169283917f8be0079c531659141344cd1fd0a4f28419497f9722a3daafe3b4186f6b6457e09190a35050565b6001546001600160a01b038316611419576040517f2e07630000000000000000000000000000000000000000000000000000000000815260040160405180910390fd5b81611450576040517fb562e8dd00000000000000000000000000000000000000000000000000000000815260040160405180910390fd5b6001600160a01b038316600081815260066020526040902080546801000000000000000185020190554260a01b6001841460e11b1717600082815260056020526040902055808281015b6040516001830192906001600160a01b038716906000907fddf252ad1be2c89b69c2b068fc378daa952ba7f163c4a11628f55a4df523b3ef908290a480821061149a5760015550505050565b60006114f3600483612fb1565b1592915050565b604051630a85bd0160e11b81526000906001600160a01b0385169063150b7a029061152f903390899088908890600401612ca4565b602060405180830381600087803b15801561154957600080fd5b505af1925050508015611579575060408051601f3d908101601f1916820190925261157691810190611d6d565b60015b6115d4573d8080156115a7576040519150601f19603f3d011682016040523d82523d6000602084013e6115ac565b606091505b5080516115cc576040516368d2bf6b60e11b815260040160405180910390fd5b805181602001fd5b6001600160e01b031916630a85bd0160e11b1490505b949350505050565b60606115fd836114e6565b61163c576040518060400160405280600281526020017f4e6f000000000000000000000000000000000000000000000000000000000000815250611673565b6040518060400160405280600381526020017f59657300000000000000000000000000000000000000000000000000000000008152505b825160208401516080850151516116bf576040518060400160405280600b81526020017f28616e6f6e796d6f7573290000000000000000000000000000000000000000008152506116c5565b84608001515b6040516020016116d894939291906128a2565b604051602081830303815290604052905092915050565b606081516000141561170f57505060408051602081019091526000815290565b6000604051806060016040528060408152602001613059604091399050600060038451600261173e9190612ecd565b6117489190612ee5565b611753906004612ef9565b90506000611762826020612ecd565b67ffffffffffffffff81111561177a5761177a613007565b6040519080825280601f01601f1916602001820160405280156117a4576020820181803683370190505b509050818152600183018586518101602084015b81831015611810576003830192508251603f8160121c168501518253600182019150603f81600c1c168501518253600182019150603f8160061c168501518253600182019150603f81168501518253506001016117b8565b60038951066001811461182a57600281146118565761187e565b7f3d3d00000000000000000000000000000000000000000000000000000000000060011983015261187e565b7f3d000000000000000000000000000000000000000000000000000000000000006000198301525b509398975050505050505050565b606061189f8260c0015161ffff166118d7565b6118b08360e0015161ffff166118d7565b6040516020016118c1929190612a16565b6040516020818303038152906040529050919050565b60608161191757505060408051808201909152600181527f3000000000000000000000000000000000000000000000000000000000000000602082015290565b8160005b8115611941578061192b81612f96565b915061193a9050600a83612ee5565b915061191b565b60008167ffffffffffffffff81111561195c5761195c613007565b6040519080825280601f01601f191660200182016040528015611986576020820181803683370190505b5090505b84156115ea5761199b600183612f18565b91506119a8600a86612fb1565b6119b3906030612ecd565b60f81b8183815181106119c8576119c8612ff1565b60200101907effffffffffffffffffffffffffffffffffffffffffffffffffffffffffffff1916908160001a905350611a02600a86612ee5565b945061198a565b8035611a148161301d565b919050565b8051611a148161301d565b600082601f830112611a3557600080fd5b8135602067ffffffffffffffff80831115611a5257611a52613007565b8260051b611a61838201612e74565b8481528381019087850183890186018a1015611a7c57600080fd5b600093505b86841015611b1357803585811115611a9857600080fd5b89016040818c03601f1901811315611aaf57600080fd5b611ab7612e04565b8883013588811115611ac857600080fd5b611ad68e8b83870101611b20565b825250908201359087821115611aeb57600080fd5b611af98d8a84860101611b20565b818a01528552505060019390930192918501918501611a81565b5098975050505050505050565b600082601f830112611b3157600080fd5b8135611b44611b3f82612ea5565b612e74565b818152846020838601011115611b5957600080fd5b816020850160208301376000918101602001919091529392505050565b600082601f830112611b8757600080fd5b8151611b95611b3f82612ea5565b818152846020838601011115611baa57600080fd5b6115ea826020830160208701612f2f565b8035611a1481613048565b8051611a1481613048565b600060208284031215611be357600080fd5b813561105b8161301d565b600060208284031215611c0057600080fd5b815161105b8161301d565b60008060408385031215611c1e57600080fd5b8235611c298161301d565b91506020830135611c398161301d565b809150509250929050565b600080600060608486031215611c5957600080fd5b8335611c648161301d565b92506020840135611c748161301d565b929592945050506040919091013590565b60008060008060808587031215611c9b57600080fd5b8435611ca68161301d565b93506020850135611cb68161301d565b925060408501359150606085013567ffffffffffffffff811115611cd957600080fd5b611ce587828801611b20565b91505092959194509250565b60008060408385031215611d0457600080fd5b8235611d0f8161301d565b915060208301358015158114611c3957600080fd5b60008060408385031215611d3757600080fd5b8235611d428161301d565b946020939093013593505050565b600060208284031215611d6257600080fd5b813561105b81613032565b600060208284031215611d7f57600080fd5b815161105b81613032565b600060208284031215611d9c57600080fd5b815167ffffffffffffffff811115611db357600080fd5b6115ea84828501611b76565b600060208284031215611dd157600080fd5b815167ffffffffffffffff80821115611de957600080fd5b908301906101008286031215611dfe57600080fd5b611e06612e2d565b825182811115611e1557600080fd5b611e2187828601611b76565b825250602083015182811115611e3657600080fd5b611e4287828601611b76565b602083015250604083015182811115611e5a57600080fd5b611e6687828601611b76565b604083015250606083015182811115611e7e57600080fd5b611e8a87828601611b76565b606083015250608083015182811115611ea257600080fd5b611eae87828601611b76565b608083015250611ec060a08401611a19565b60a0820152611ed160c08401611bc6565b60c0820152611ee260e08401611bc6565b60e082015295945050505050565b60008060408385031215611f0357600080fd5b823567ffffffffffffffff80821115611f1b57600080fd5b9084019060c08287031215611f2f57600080fd5b611f37612e51565b823582811115611f4657600080fd5b611f5288828601611b20565b825250602083013582811115611f6757600080fd5b611f7388828601611b20565b602083015250604083013582811115611f8b57600080fd5b611f9788828601611b20565b604083015250606083013582811115611faf57600080fd5b611fbb88828601611b20565b606083015250611fcd60808401611a09565b608082015260a083013582811115611fe457600080fd5b611ff088828601611a24565b60a0830152509660209590950135955050505050565b60006020828403121561201857600080fd5b5035919050565b60006020828403121561203157600080fd5b5051919050565b60008060006060848603121561204d57600080fd5b83359250602084013567ffffffffffffffff8082111561206c57600080fd5b61207887838801611b20565b9350604086013591508082111561208e57600080fd5b9085019061010082880312156120a357600080fd5b6120ab612e2d565b8235828111156120ba57600080fd5b6120c689828601611b20565b8252506020830135828111156120db57600080fd5b6120e789828601611b20565b6020830152506040830135828111156120ff57600080fd5b61210b89828601611b20565b60408301525060608301358281111561212357600080fd5b61212f89828601611b20565b60608301525060808301358281111561214757600080fd5b61215389828601611b20565b60808301525061216560a08401611a09565b60a082015261217660c08401611bbb565b60c082015261218760e08401611bbb565b60e08201528093505050509250925092565b600081518084526121b1816020860160208601612f2f565b601f01601f19169290920160200192915050565b600081516121d7818560208601612f2f565b9290920192915050565b600084516121f3818460208901612f2f565b80830190507f203c75736520687265663d22236261736522202f3e0a203c757365206872656681527f3d2200000000000000000000000000000000000000000000000000000000000060208201528451612254816022840160208901612f2f565b7f222066696c6c3d2200000000000000000000000000000000000000000000000060229290910191820152835161229281602a840160208801612f2f565b7f22202f3e0a000000000000000000000000000000000000000000000000000000602a9290910191820152602f0195945050505050565b600083516122db818460208801612f2f565b80830190507f203c6d61736b2069643d2261737365744d61736b2220646573633d224d61746581527f7269616c2049636f6e73202841706163686520322e30292f536f6369616c2f5060208201527f75626c6963223e0a20203c75736520687265663d22000000000000000000000060408201528351612362816055840160208801612f2f565b7f222066696c6c3d22776869746522202f3e0a203c2f6d61736b3e0a203c757365605592909101918201527f20687265663d22236261736522206d61736b3d2275726c282361737365744d6160758201526739b5949110179f0560c11b6095820152609d01949350505050565b600083516123e1818460208801612f2f565b80830190507f3c672069643d2262617365223e0a203c7265637420783d22302220793d22302281527f2077696474683d2235313222206865696768743d22353132222066696c6c3d228060208301527f2334323835463422202f3e0a203c7265637420783d22302220793d223531322260408301528060608301527f2333344138353322202f3e0a203c7265637420783d223531322220793d22302260808301528060a0830152507f2346424243303522202f3e0a203c7265637420783d223531322220793d22353160c08201527f32222077696474683d2235313222206865696768743d22353132222066696c6c60e08201527f3d2223454134333335222f3e0a3c2f673e00000000000000000000000000000061010082015261011184516125118183850160208901612f2f565b7f3c2f646566733e0a3c672066696c7465723d2275726c2823663129223e0a000092019081019190915261012f01949350505050565b60008251612559818460208701612f2f565b7f3c2f673e0a3c2f7376673e000000000000000000000000000000000000000000920191825250600b01919050565b6000835161259a818460208801612f2f565b80830190507f203c6d61736b2069643d2261737365744d61736b2220646573633d224d61746581527f7269616c2049636f6e73202841706163686520322e30292f536f6369616c2f5060208201527f75626c6963223e0a20203c7265637420783d22302220793d223022207769647460408201527f683d223130323422206865696768743d2231303234222066696c6c3d2277686960608201527f746522202f3e0a20203c75736520687265663d220000000000000000000000006080820152835161266d816094840160208801612f2f565b7f222066696c6c3d22626c61636b22202f3e0a203c2f6d61736b3e0a203c757365609492909101918201527f20687265663d22236261736522206d61736b3d2275726c282361737365744d6160b48201526739b5949110179f0560c11b60d482015260dc01949350505050565b7f7b226e616d65223a22000000000000000000000000000000000000000000000081526000855160206127138260098601838b01612f2f565b7f222c226465736372697074696f6e223a220000000000000000000000000000006009928501928301528654601a90600090600181811c908083168061275a57607f831692505b86831081141561277857634e487b7160e01b85526022600452602485fd5b80801561278c57600181146127a1576127d2565b60ff19851689880152838901870195506127d2565b60008e81526020902060005b858110156127c85781548b82018a01529084019089016127ad565b505086848a010195505b505050505061289461286b612865612816612810857f222c2261747472696275746573223a5b00000000000000000000000000000000815260100190565b8c6121c5565b7f5d2c22696d616765223a22646174613a696d6167652f7376672b786d6c3b626181527f736536342c000000000000000000000000000000000000000000000000000000602082015260250190565b896121c5565b7f227d000000000000000000000000000000000000000000000000000000000000815260020190565b9a9950505050505050505050565b7f7b2274726169745f74797065223a22536f756c626f756e64222c2276616c7565815260007f223a2200000000000000000000000000000000000000000000000000000000008060208401528651612901816023860160208b01612f2f565b7f227d2c7b2274726169745f74797065223a2247726f7570222c2276616c7565226023918501918201527f3a2200000000000000000000000000000000000000000000000000000000000060438201528651612964816045840160208b01612f2f565b7f227d2c7b2274726169745f74797065223a2243617465676f7279222c2276616c604592909101918201527f7565223a22000000000000000000000000000000000000000000000000000000606582015285516129c881606a840160208a01612f2f565b8082019150507f227d2c7b2274726169745f74797065223a224d696e746572222c2276616c7565606a82015281608a820152612a0a61286b608d8301876121c5565b98975050505050505050565b7f3c7376672076696577426f783d22302030200000000000000000000000000000815260008351612a4e816012850160208801612f2f565b7f20000000000000000000000000000000000000000000000000000000000000006012918401918201528351612a8b816013840160208801612f2f565b7f222020786d6c6e733d22687474703a2f2f7777772e77332e6f72672f32303030601392909101918201527f2f737667223e0a3c646566733e0a203c66696c7465722069643d22663122207860338201527f3d22302220793d2230222077696474683d223230302522206865696768743d2260538201527f32303025223e0a20203c66654f666673657420726573756c743d226f66664f7560738201527f742220696e3d22536f75726365416c706861222064783d223234222064793d2260938201527f333222202f3e0a20203c6665476175737369616e426c757220726573756c743d60b38201527f22626c75724f75742220696e3d226f66664f757422207374644465766961746960d38201527f6f6e3d22313622202f3e0a20203c6665426c656e6420696e3d22536f7572636560f38201527f477261706869632220696e323d22626c75724f757422206d6f64653d226e6f726101138201527f6d616c22202f3e0a203c2f66696c7465723e0a0000000000000000000000000061013382015261014601949350505050565b7f2300000000000000000000000000000000000000000000000000000000000000815260008251612c52816001850160208701612f2f565b9190910160010192915050565b7f646174613a6170706c69636174696f6e2f6a736f6e3b6261736536342c000000815260008251612c9781601d850160208701612f2f565b91909101601d0192915050565b60006001600160a01b03808716835280861660208401525083604083015260806060830152612cd66080830184612199565b9695505050505050565b60208152600061105b6020830184612199565b60006020808352835160c082850152612d0f60e0850182612199565b905081850151601f196040818785030181880152612d2d8484612199565b935080880151925081878503016060880152612d498484612199565b93506060880151925081878503016080880152612d668484612199565b93506001600160a01b0360808901511660a088015260a08801519250818785030160c08801528383518086528686019150868160051b870101878601955060005b82811015612df5578588830301845286518051868452612dc987850182612199565b918b0151848303858d0152919050612de18183612199565b988b0198958b019593505050600101612da7565b509a9950505050505050505050565b6040805190810167ffffffffffffffff81118282101715612e2757612e27613007565b60405290565b604051610100810167ffffffffffffffff81118282101715612e2757612e27613007565b60405160c0810167ffffffffffffffff81118282101715612e2757612e27613007565b604051601f8201601f1916810167ffffffffffffffff81118282101715612e9d57612e9d613007565b604052919050565b600067ffffffffffffffff821115612ebf57612ebf613007565b50601f01601f191660200190565b60008219821115612ee057612ee0612fc5565b500190565b600082612ef457612ef4612fdb565b500490565b6000816000190483118215151615612f1357612f13612fc5565b500290565b600082821015612f2a57612f2a612fc5565b500390565b60005b83811015612f4a578181015183820152602001612f32565b83811115610c915750506000910152565b600181811c90821680612f6f57607f821691505b60208210811415612f9057634e487b7160e01b600052602260045260246000fd5b50919050565b6000600019821415612faa57612faa612fc5565b5060010190565b600082612fc057612fc0612fdb565b500690565b634e487b7160e01b600052601160045260246000fd5b634e487b7160e01b600052601260045260246000fd5b634e487b7160e01b600052603260045260246000fd5b634e487b7160e01b600052604160045260246000fd5b6001600160a01b038116811461115157600080fd5b6001600160e01b03198116811461115157600080fd5b61ffff8116811461115157600080fdfe4142434445464748494a4b4c4d4e4f505152535455565758595a6162636465666768696a6b6c6d6e6f707172737475767778797a303132333435363738392b2fa2646970667358221220b14d371359c96c0e07312df74884e215796b17f4f084b6d4467d950ed3df607264736f6c6343000806003354686973206973206f6e65206f6620656666747320746f2063726561746520284f6e2d436861696e2041737365742053746f7265295b68747470733a2f2f617373657473746f72652e7774665d2e",
  "linkReferences": {},
  "deployedLinkReferences": {}
}