{
  "_format": "hh-sol-artifact-1",
  "contractName": "MaterialToken",
  "sourceName": "contracts/MaterialToken.sol",
  "abi": [
    {
      "inputs": [
        {
          "internalType": "contract IAssetStoreRegistry",
          "name": "_registry",
          "type": "address"
        },
        {
          "internalType": "contract IAssetStore",
          "name": "_assetStore",
          "type": "address"
        },
        {
          "internalType": "address",
          "name": "_developer",
          "type": "address"
        },
        {
          "internalType": "contract IProxyRegistry",
          "name": "_proxyRegistry",
          "type": "address"
        }
      ],
      "stateMutability": "nonpayable",
      "type": "constructor"
    },
    {
      "inputs": [],
      "name": "ApprovalCallerNotOwnerNorApproved",
      "type": "error"
    },
    {
      "inputs": [],
      "name": "ApprovalQueryForNonexistentToken",
      "type": "error"
    },
    {
      "inputs": [],
      "name": "ApproveToCaller",
      "type": "error"
    },
    {
      "inputs": [],
      "name": "BalanceQueryForZeroAddress",
      "type": "error"
    },
    {
      "inputs": [],
      "name": "MintERC2309QuantityExceedsLimit",
      "type": "error"
    },
    {
      "inputs": [],
      "name": "MintToZeroAddress",
      "type": "error"
    },
    {
      "inputs": [],
      "name": "MintZeroQuantity",
      "type": "error"
    },
    {
      "inputs": [],
      "name": "OwnerQueryForNonexistentToken",
      "type": "error"
    },
    {
      "inputs": [],
      "name": "OwnershipNotInitializedForExtraData",
      "type": "error"
    },
    {
      "inputs": [],
      "name": "TransferCallerNotOwnerNorApproved",
      "type": "error"
    },
    {
      "inputs": [],
      "name": "TransferFromIncorrectOwner",
      "type": "error"
    },
    {
      "inputs": [],
      "name": "TransferToNonERC721ReceiverImplementer",
      "type": "error"
    },
    {
      "inputs": [],
      "name": "TransferToZeroAddress",
      "type": "error"
    },
    {
      "inputs": [],
      "name": "URIQueryForNonexistentToken",
      "type": "error"
    },
    {
      "anonymous": false,
      "inputs": [
        {
          "indexed": true,
          "internalType": "address",
          "name": "owner",
          "type": "address"
        },
        {
          "indexed": true,
          "internalType": "address",
          "name": "approved",
          "type": "address"
        },
        {
          "indexed": true,
          "internalType": "uint256",
          "name": "tokenId",
          "type": "uint256"
        }
      ],
      "name": "Approval",
      "type": "event"
    },
    {
      "anonymous": false,
      "inputs": [
        {
          "indexed": true,
          "internalType": "address",
          "name": "owner",
          "type": "address"
        },
        {
          "indexed": true,
          "internalType": "address",
          "name": "operator",
          "type": "address"
        },
        {
          "indexed": false,
          "internalType": "bool",
          "name": "approved",
          "type": "bool"
        }
      ],
      "name": "ApprovalForAll",
      "type": "event"
    },
    {
      "anonymous": false,
      "inputs": [
        {
          "indexed": true,
          "internalType": "uint256",
          "name": "fromTokenId",
          "type": "uint256"
        },
        {
          "indexed": false,
          "internalType": "uint256",
          "name": "toTokenId",
          "type": "uint256"
        },
        {
          "indexed": true,
          "internalType": "address",
          "name": "from",
          "type": "address"
        },
        {
          "indexed": true,
          "internalType": "address",
          "name": "to",
          "type": "address"
        }
      ],
      "name": "ConsecutiveTransfer",
      "type": "event"
    },
    {
      "anonymous": false,
      "inputs": [
        {
          "indexed": true,
          "internalType": "address",
          "name": "previousOwner",
          "type": "address"
        },
        {
          "indexed": true,
          "internalType": "address",
          "name": "newOwner",
          "type": "address"
        }
      ],
      "name": "OwnershipTransferred",
      "type": "event"
    },
    {
      "anonymous": false,
      "inputs": [
        {
          "indexed": true,
          "internalType": "address",
          "name": "from",
          "type": "address"
        },
        {
          "indexed": true,
          "internalType": "address",
          "name": "to",
          "type": "address"
        },
        {
          "indexed": true,
          "internalType": "uint256",
          "name": "tokenId",
          "type": "uint256"
        }
      ],
      "name": "Transfer",
      "type": "event"
    },
    {
      "inputs": [
        {
          "internalType": "address",
          "name": "to",
          "type": "address"
        },
        {
          "internalType": "uint256",
          "name": "tokenId",
          "type": "uint256"
        }
      ],
      "name": "approve",
      "outputs": [],
      "stateMutability": "nonpayable",
      "type": "function"
    },
    {
      "inputs": [
        {
          "internalType": "uint256",
          "name": "_tokenId",
          "type": "uint256"
        }
      ],
      "name": "assetIdOfToken",
      "outputs": [
        {
          "internalType": "uint256",
          "name": "",
          "type": "uint256"
        }
      ],
      "stateMutability": "view",
      "type": "function"
    },
    {
      "inputs": [],
      "name": "assetStore",
      "outputs": [
        {
          "internalType": "contract IAssetStore",
          "name": "",
          "type": "address"
        }
      ],
      "stateMutability": "view",
      "type": "function"
    },
    {
      "inputs": [
        {
          "internalType": "address",
          "name": "owner",
          "type": "address"
        }
      ],
      "name": "balanceOf",
      "outputs": [
        {
          "internalType": "uint256",
          "name": "",
          "type": "uint256"
        }
      ],
      "stateMutability": "view",
      "type": "function"
    },
    {
      "inputs": [],
      "name": "description",
      "outputs": [
        {
          "internalType": "string",
          "name": "",
          "type": "string"
        }
      ],
      "stateMutability": "view",
      "type": "function"
    },
    {
      "inputs": [],
      "name": "developer",
      "outputs": [
        {
          "internalType": "address",
          "name": "",
          "type": "address"
        }
      ],
      "stateMutability": "view",
      "type": "function"
    },
    {
      "inputs": [
        {
          "internalType": "string",
          "name": "_svgPart",
          "type": "string"
        },
        {
          "internalType": "uint256",
          "name": "_style",
          "type": "uint256"
        },
        {
          "internalType": "string",
          "name": "_tag",
          "type": "string"
        }
      ],
      "name": "generateSVG",
      "outputs": [
        {
          "internalType": "string",
          "name": "",
          "type": "string"
        }
      ],
      "stateMutability": "pure",
      "type": "function"
    },
    {
      "inputs": [
        {
          "internalType": "uint256",
          "name": "tokenId",
          "type": "uint256"
        }
      ],
      "name": "getApproved",
      "outputs": [
        {
          "internalType": "address",
          "name": "",
          "type": "address"
        }
      ],
      "stateMutability": "view",
      "type": "function"
    },
    {
      "inputs": [],
      "name": "getCurrentToken",
      "outputs": [
        {
          "internalType": "uint256",
          "name": "",
          "type": "uint256"
        }
      ],
      "stateMutability": "view",
      "type": "function"
    },
    {
      "inputs": [
        {
          "internalType": "address",
          "name": "owner",
          "type": "address"
        },
        {
          "internalType": "address",
          "name": "operator",
          "type": "address"
        }
      ],
      "name": "isApprovedForAll",
      "outputs": [
        {
          "internalType": "bool",
          "name": "",
          "type": "bool"
        }
      ],
      "stateMutability": "view",
      "type": "function"
    },
    {
      "inputs": [
        {
          "components": [
            {
              "internalType": "string",
              "name": "group",
              "type": "string"
            },
            {
              "internalType": "string",
              "name": "category",
              "type": "string"
            },
            {
              "internalType": "string",
              "name": "name",
              "type": "string"
            },
            {
              "internalType": "string",
              "name": "minter",
              "type": "string"
            },
            {
              "internalType": "address",
              "name": "soulbound",
              "type": "address"
            },
            {
              "internalType": "bytes",
              "name": "metadata",
              "type": "bytes"
            },
            {
              "components": [
                {
                  "internalType": "bytes",
                  "name": "body",
                  "type": "bytes"
                },
                {
                  "internalType": "string",
                  "name": "color",
                  "type": "string"
                }
              ],
              "internalType": "struct IAssetStoreRegistry.Part[]",
              "name": "parts",
              "type": "tuple[]"
            }
          ],
          "internalType": "struct IAssetStoreRegistry.AssetInfo",
          "name": "_assetInfo",
          "type": "tuple"
        },
        {
          "internalType": "uint256",
          "name": "_affiliate",
          "type": "uint256"
        }
      ],
      "name": "mintWithAsset",
      "outputs": [],
      "stateMutability": "nonpayable",
      "type": "function"
    },
    {
      "inputs": [],
      "name": "name",
      "outputs": [
        {
          "internalType": "string",
          "name": "",
          "type": "string"
        }
      ],
      "stateMutability": "view",
      "type": "function"
    },
    {
      "inputs": [],
      "name": "owner",
      "outputs": [
        {
          "internalType": "address",
          "name": "",
          "type": "address"
        }
      ],
      "stateMutability": "view",
      "type": "function"
    },
    {
      "inputs": [
        {
          "internalType": "uint256",
          "name": "tokenId",
          "type": "uint256"
        }
      ],
      "name": "ownerOf",
      "outputs": [
        {
          "internalType": "address",
          "name": "",
          "type": "address"
        }
      ],
      "stateMutability": "view",
      "type": "function"
    },
    {
      "inputs": [],
      "name": "proxyRegistry",
      "outputs": [
        {
          "internalType": "contract IProxyRegistry",
          "name": "",
          "type": "address"
        }
      ],
      "stateMutability": "view",
      "type": "function"
    },
    {
      "inputs": [],
      "name": "registry",
      "outputs": [
        {
          "internalType": "contract IAssetStoreRegistry",
          "name": "",
          "type": "address"
        }
      ],
      "stateMutability": "view",
      "type": "function"
    },
    {
      "inputs": [],
      "name": "renounceOwnership",
      "outputs": [],
      "stateMutability": "nonpayable",
      "type": "function"
    },
    {
      "inputs": [
        {
          "internalType": "address",
          "name": "from",
          "type": "address"
        },
        {
          "internalType": "address",
          "name": "to",
          "type": "address"
        },
        {
          "internalType": "uint256",
          "name": "tokenId",
          "type": "uint256"
        }
      ],
      "name": "safeTransferFrom",
      "outputs": [],
      "stateMutability": "nonpayable",
      "type": "function"
    },
    {
      "inputs": [
        {
          "internalType": "address",
          "name": "from",
          "type": "address"
        },
        {
          "internalType": "address",
          "name": "to",
          "type": "address"
        },
        {
          "internalType": "uint256",
          "name": "tokenId",
          "type": "uint256"
        },
        {
          "internalType": "bytes",
          "name": "_data",
          "type": "bytes"
        }
      ],
      "name": "safeTransferFrom",
      "outputs": [],
      "stateMutability": "nonpayable",
      "type": "function"
    },
    {
      "inputs": [
        {
          "internalType": "address",
          "name": "operator",
          "type": "address"
        },
        {
          "internalType": "bool",
          "name": "approved",
          "type": "bool"
        }
      ],
      "name": "setApprovalForAll",
      "outputs": [],
      "stateMutability": "nonpayable",
      "type": "function"
    },
    {
      "inputs": [
        {
          "internalType": "string",
          "name": "_description",
          "type": "string"
        }
      ],
      "name": "setDescription",
      "outputs": [],
      "stateMutability": "nonpayable",
      "type": "function"
    },
    {
      "inputs": [],
      "name": "styles",
      "outputs": [
        {
          "internalType": "uint256",
          "name": "",
          "type": "uint256"
        }
      ],
      "stateMutability": "pure",
      "type": "function"
    },
    {
      "inputs": [
        {
          "internalType": "bytes4",
          "name": "interfaceId",
          "type": "bytes4"
        }
      ],
      "name": "supportsInterface",
      "outputs": [
        {
          "internalType": "bool",
          "name": "",
          "type": "bool"
        }
      ],
      "stateMutability": "view",
      "type": "function"
    },
    {
      "inputs": [],
      "name": "symbol",
      "outputs": [
        {
          "internalType": "string",
          "name": "",
          "type": "string"
        }
      ],
      "stateMutability": "view",
      "type": "function"
    },
    {
      "inputs": [
        {
          "internalType": "uint256",
          "name": "_tokenId",
          "type": "uint256"
        }
      ],
      "name": "tokenURI",
      "outputs": [
        {
          "internalType": "string",
          "name": "",
          "type": "string"
        }
      ],
      "stateMutability": "view",
      "type": "function"
    },
    {
      "inputs": [],
      "name": "totalSupply",
      "outputs": [
        {
          "internalType": "uint256",
          "name": "",
          "type": "uint256"
        }
      ],
      "stateMutability": "view",
      "type": "function"
    },
    {
      "inputs": [
        {
          "internalType": "address",
          "name": "from",
          "type": "address"
        },
        {
          "internalType": "address",
          "name": "to",
          "type": "address"
        },
        {
          "internalType": "uint256",
          "name": "tokenId",
          "type": "uint256"
        }
      ],
      "name": "transferFrom",
      "outputs": [],
      "stateMutability": "nonpayable",
      "type": "function"
    },
    {
      "inputs": [
        {
          "internalType": "address",
          "name": "newOwner",
          "type": "address"
        }
      ],
      "name": "transferOwnership",
      "outputs": [],
      "stateMutability": "nonpayable",
      "type": "function"
    }
  ],
  "bytecode": "0x610160604052604e60e081815290620033db6101003980516200002b91600a916020909101906200018f565b503480156200003957600080fd5b5060405162003429380380620034298339810160408190526200005c9162000235565b6040518060400160405280600e81526020016d4d6174657269616c2049636f6e7360901b81525060405180604001604052806008815260200167135055115492505360c21b815250620000be620000b86200013b60201b60201c565b6200013f565b8151620000d39060039060208501906200018f565b508051620000e99060049060208401906200018f565b5060006001555050606093841b6001600160601b031990811660805292841b831660a052600b80546001600160a01b0319166001600160a01b03939093169290921790915590911b1660c052620002f3565b3390565b600080546001600160a01b038381166001600160a01b0319831681178455604051919092169283917f8be0079c531659141344cd1fd0a4f28419497f9722a3daafe3b4186f6b6457e09190a35050565b8280546200019d906200029d565b90600052602060002090601f016020900481019282620001c157600085556200020c565b82601f10620001dc57805160ff19168380011785556200020c565b828001600101855582156200020c579182015b828111156200020c578251825591602001919060010190620001ef565b506200021a9291506200021e565b5090565b5b808211156200021a57600081556001016200021f565b600080600080608085870312156200024c57600080fd5b84516200025981620002da565b60208601519094506200026c81620002da565b60408601519093506200027f81620002da565b60608601519092506200029281620002da565b939692955090935050565b600181811c90821680620002b257607f821691505b60208210811415620002d457634e487b7160e01b600052602260045260246000fd5b50919050565b6001600160a01b0381168114620002f057600080fd5b50565b60805160601c60a05160601c60c05160601c613093620003486000396000818161038d01526111df0152600081816102c301528181610fd1015261108a0152600081816103270152610acc01526130936000f3fe608060405234801561001057600080fd5b50600436106101c35760003560e01c80637284e416116100f9578063b50cbd9f11610097578063ca4b208b11610071578063ca4b208b146103d5578063e985e9c5146103e8578063ef2d1746146103fb578063f2fde38b1461040357600080fd5b8063b50cbd9f14610388578063b88d4fde146103af578063c87b56dd146103c257600080fd5b80638da5cb5b116100d35780638da5cb5b1461034957806390c3f38f1461035a57806395d89b411461036d578063a22cb4651461037557600080fd5b80637284e41614610313578063786f94c61461031b5780637b1039991461032257600080fd5b80632ab72d2f11610166578063597a0e3611610140578063597a0e36146102be5780636352211e146102e557806370a08231146102f8578063715018a61461030b57600080fd5b80632ab72d2f1461028557806342842e0e146102985780634f38687b146102ab57600080fd5b8063081812fc116101a2578063081812fc1461021c578063095ea7b31461024757806318160ddd1461025c57806323b872dd1461027257600080fd5b80626e59e9146101c857806301ffc9a7146101f157806306fdde0314610214575b600080fd5b6101db6101d6366004611e65565b610416565b6040516101e89190612a79565b60405180910390f35b6102046101ff366004611dc1565b6105a3565b60405190151581526020016101e8565b6101db610640565b61022f61022a366004612166565b6106d2565b6040516001600160a01b0390911681526020016101e8565b61025a610255366004611d95565b61072f565b005b600254600154035b6040519081526020016101e8565b61025a610280366004611cb5565b6107f5565b610264610293366004612166565b6109d2565b61025a6102a6366004611cb5565b610a79565b61025a6102b936600461202c565b610a99565b61022f7f000000000000000000000000000000000000000000000000000000000000000081565b61022f6102f3366004612166565b610c32565b610264610306366004611c42565b610c3d565b61025a610ca5565b6101db610d0b565b6004610264565b61022f7f000000000000000000000000000000000000000000000000000000000000000081565b6000546001600160a01b031661022f565b61025a610368366004611dfb565b610d99565b6101db610e0a565b61025a610383366004611d62565b610e19565b61022f7f000000000000000000000000000000000000000000000000000000000000000081565b61025a6103bd366004611cf6565b610ec8565b6101db6103d0366004612166565b610f0c565b600b5461022f906001600160a01b031681565b6102046103f6366004611c7c565b6111a0565b6102646112a1565b61025a610411366004611c42565b6112b1565b606060008260405160200161042b9190612822565b60408051601f19818403018152610280830190915261025f80835290925060009190612dff602083013986604051602001610467929190612603565b604051602081830303815290604052905084600014156104aa578082604051602001610494929190612387565b6040516020818303038152906040529050610578565b6104b660016004612c8e565b8510156105535780826104ca600288612d27565b1561050a576040518060400160405280600581526020017f7768697465000000000000000000000000000000000000000000000000000000815250610541565b6040518060400160405280600581526020017f626c61636b0000000000000000000000000000000000000000000000000000008152505b6040516020016104949392919061225e565b8082604051602001610566929190612467565b60405160208183030381529060405290505b806040516020016105899190612346565b604051602081830303815290604052925050509392505050565b60007f01ffc9a7000000000000000000000000000000000000000000000000000000006001600160e01b03198316148061060657507f80ac58cd000000000000000000000000000000000000000000000000000000006001600160e01b03198316145b8061063a57507f5b5e139f000000000000000000000000000000000000000000000000000000006001600160e01b03198316145b92915050565b60606003805461064f90612cd1565b80601f016020809104026020016040519081016040528092919081815260200182805461067b90612cd1565b80156106c85780601f1061069d576101008083540402835291602001916106c8565b820191906000526020600020905b8154815290600101906020018083116106ab57829003601f168201915b5050505050905090565b60006106dd82611393565b610713576040517fcf4700e400000000000000000000000000000000000000000000000000000000815260040160405180910390fd5b506000908152600760205260409020546001600160a01b031690565b600061073a82610c32565b9050336001600160a01b0382161461078c5761075681336111a0565b61078c576040517fcfb3b94200000000000000000000000000000000000000000000000000000000815260040160405180910390fd5b600082815260076020526040808220805473ffffffffffffffffffffffffffffffffffffffff19166001600160a01b0387811691821790925591518593918516917f8c5be1e5ebec7d5bd14f71427d1e84f3dd0314c0f7b2291e5b200ac8c7c3b92591a4505050565b6000610800826113bb565b9050836001600160a01b0316816001600160a01b03161461084d576040517fa114810000000000000000000000000000000000000000000000000000000000815260040160405180910390fd5b60008281526007602052604090208054338082146001600160a01b038816909114176108b35761087d86336111a0565b6108b3576040517f59c896be00000000000000000000000000000000000000000000000000000000815260040160405180910390fd5b6001600160a01b0385166108f3576040517fea553b3400000000000000000000000000000000000000000000000000000000815260040160405180910390fd5b80156108fe57600082555b6001600160a01b038681166000908152600660205260408082208054600019019055918716808252919020805460010190554260a01b17600160e11b17600085815260056020526040902055600160e11b831661098957600184016000818152600560205260409020546109875760015481146109875760008181526005602052604090208490555b505b83856001600160a01b0316876001600160a01b03167fddf252ad1be2c89b69c2b068fc378daa952ba7f163c4a11628f55a4df523b3ef60405160405180910390a4505050505050565b60006109dd82611393565b610a545760405162461bcd60e51b815260206004820152602f60248201527f4d6174657269616c546f6b656e2e617373657449644f66546f6b656e3a206e6f60448201527f6e6578697374656e7420746f6b656e000000000000000000000000000000000060648201526084015b60405180910390fd5b60096000610a63600485612c5b565b8152602001908152602001600020549050919050565b610a9483838360405180602001604052806000815250610ec8565b505050565b6040517f5b7eea860000000000000000000000000000000000000000000000000000000081526000906001600160a01b037f00000000000000000000000000000000000000000000000000000000000000001690635b7eea8690610b01908690600401612a8c565b602060405180830381600087803b158015610b1b57600080fd5b505af1158015610b2f573d6000803e3d6000fd5b505050506040513d601f19601f82011682018060405250810190610b53919061217f565b90506000610b6060015490565b90508160096000610b72600485612c5b565b8152602081019190915260400160002055610b9833610b9360016004612c8e565b611435565b600083118015610bac5750610bac83611545565b8015610bc9575033610bbd84610c32565b6001600160a01b031614155b15610be657610be1610bda84610c32565b6001611435565b610c2c565b6004610bf28183612c5b565b610bfc9190612d27565b610c1757600b54610be1906001600160a01b03166001611435565b610c2c610bda6000546001600160a01b031690565b50505050565b600061063a826113bb565b60006001600160a01b038216610c7f576040517f8f4eb60400000000000000000000000000000000000000000000000000000000815260040160405180910390fd5b506001600160a01b031660009081526006602052604090205467ffffffffffffffff1690565b6000546001600160a01b03163314610cff5760405162461bcd60e51b815260206004820181905260248201527f4f776e61626c653a2063616c6c6572206973206e6f7420746865206f776e65726044820152606401610a4b565b610d096000611559565b565b600a8054610d1890612cd1565b80601f0160208091040260200160405190810160405280929190818152602001828054610d4490612cd1565b8015610d915780601f10610d6657610100808354040283529160200191610d91565b820191906000526020600020905b815481529060010190602001808311610d7457829003601f168201915b505050505081565b6000546001600160a01b03163314610df35760405162461bcd60e51b815260206004820181905260248201527f4f776e61626c653a2063616c6c6572206973206e6f7420746865206f776e65726044820152606401610a4b565b8051610e0690600a9060208401906119e5565b5050565b60606004805461064f90612cd1565b6001600160a01b038216331415610e5c576040517fb06307db00000000000000000000000000000000000000000000000000000000815260040160405180910390fd5b3360008181526008602090815260408083206001600160a01b03871680855290835292819020805460ff191686151590811790915590519081529192917f17307eab39ab6107e8899845ad3d59bd9653f200f220920489ca2b5937696c31910160405180910390a35050565b610ed38484846107f5565b6001600160a01b0383163b15610c2c57610eef848484846115b6565b610c2c576040516368d2bf6b60e11b815260040160405180910390fd5b6060610f1782611393565b610f895760405162461bcd60e51b815260206004820152602960248201527f4d6174657269616c546f6b656e2e746f6b656e5552493a206e6f6e657869737460448201527f656e7420746f6b656e00000000000000000000000000000000000000000000006064820152608401610a4b565b6000610f94836109d2565b6040517f4378a6e3000000000000000000000000000000000000000000000000000000008152600481018290529091506000906001600160a01b037f00000000000000000000000000000000000000000000000000000000000000001690634378a6e39060240160006040518083038186803b15801561101357600080fd5b505afa158015611027573d6000803e3d6000fd5b505050506040513d6000823e601f3d908101601f1916820160405261104f9190810190611ed2565b60608101516040517f34320bf10000000000000000000000000000000000000000000000000000000081529192506000916001600160a01b037f000000000000000000000000000000000000000000000000000000000000000016916334320bf1916110bf918791600401612b61565b60006040518083038186803b1580156110d757600080fd5b505afa1580156110eb573d6000803e3d6000fd5b505050506040513d6000823e601f3d908101601f191682016040526111139190810190611e30565b9050600061113082611126600489612d27565b8560600151610416565b90506111768360400151600a61114689876116ae565b61114f856117b2565b604051602001611162949392919061265a565b6040516020818303038152906040526117b2565b6040516020016111869190612867565b604051602081830303815290604052945050505050919050565b6040517fc45527910000000000000000000000000000000000000000000000000000000081526001600160a01b038381166004830152600091818416917f0000000000000000000000000000000000000000000000000000000000000000169063c45527919060240160206040518083038186803b15801561122157600080fd5b505afa158015611235573d6000803e3d6000fd5b505050506040513d601f19601f820116820180604052508101906112599190611c5f565b6001600160a01b031614156112705750600161063a565b6001600160a01b0380841660009081526008602090815260408083209386168352929052205460ff165b9392505050565b60006112ac60015490565b905090565b6000546001600160a01b0316331461130b5760405162461bcd60e51b815260206004820181905260248201527f4f776e61626c653a2063616c6c6572206973206e6f7420746865206f776e65726044820152606401610a4b565b6001600160a01b0381166113875760405162461bcd60e51b815260206004820152602660248201527f4f776e61626c653a206e6577206f776e657220697320746865207a65726f206160448201527f64647265737300000000000000000000000000000000000000000000000000006064820152608401610a4b565b61139081611559565b50565b60006001548210801561063a575050600090815260056020526040902054600160e01b161590565b60008160015481101561140357600081815260056020526040902054600160e01b8116611401575b8061129a5750600019016000818152600560205260409020546113e3565b505b6040517fdf2d9b4200000000000000000000000000000000000000000000000000000000815260040160405180910390fd5b6001546001600160a01b038316611478576040517f2e07630000000000000000000000000000000000000000000000000000000000815260040160405180910390fd5b816114af576040517fb562e8dd00000000000000000000000000000000000000000000000000000000815260040160405180910390fd5b6001600160a01b038316600081815260066020526040902080546801000000000000000185020190554260a01b6001841460e11b1717600082815260056020526040902055808281015b6040516001830192906001600160a01b038716906000907fddf252ad1be2c89b69c2b068fc378daa952ba7f163c4a11628f55a4df523b3ef908290a48082106114f95760015550505050565b6000611552600483612d27565b1592915050565b600080546001600160a01b0383811673ffffffffffffffffffffffffffffffffffffffff19831681178455604051919092169283917f8be0079c531659141344cd1fd0a4f28419497f9722a3daafe3b4186f6b6457e09190a35050565b604051630a85bd0160e11b81526000906001600160a01b0385169063150b7a02906115eb903390899088908890600401612a3d565b602060405180830381600087803b15801561160557600080fd5b505af1925050508015611635575060408051601f3d908101601f1916820190925261163291810190611dde565b60015b611690573d808015611663576040519150601f19603f3d011682016040523d82523d6000602084013e611668565b606091505b508051611688576040516368d2bf6b60e11b815260040160405180910390fd5b805181602001fd5b6001600160e01b031916630a85bd0160e11b1490505b949350505050565b60606116b983611545565b6116f8576040518060400160405280600281526020017f4e6f00000000000000000000000000000000000000000000000000000000000081525061172f565b6040518060400160405280600381526020017f59657300000000000000000000000000000000000000000000000000000000008152505b8251602084015160808501515161177b576040518060400160405280600b81526020017f28616e6f6e796d6f757329000000000000000000000000000000000000000000815250611788565b611788856080015161194f565b60405160200161179b94939291906128ac565b604051602081830303815290604052905092915050565b60608151600014156117d257505060408051602081019091526000815290565b6000604051806060016040528060408152602001612dbf60409139905060006003845160026118019190612c43565b61180b9190612c5b565b611816906004612c6f565b90506000611825826020612c43565b67ffffffffffffffff81111561183d5761183d612d7d565b6040519080825280601f01601f191660200182016040528015611867576020820181803683370190505b509050818152600183018586518101602084015b818310156118d3576003830192508251603f8160121c168501518253600182019150603f81600c1c168501518253600182019150603f8160061c168501518253600182019150603f811685015182535060010161187b565b6003895106600181146118ed576002811461191957611941565b7f3d3d000000000000000000000000000000000000000000000000000000000000600119830152611941565b7f3d000000000000000000000000000000000000000000000000000000000000006000198301525b509398975050505050505050565b60608060005b83518110156119de57600084828151811061197257611972612d67565b0160209081015160f81c9150811080159061199157508060ff16605c14155b80156119a157508060ff16602214155b156119cb5782816040516020016119b99291906125b9565b60405160208183030381529060405292505b50806119d681612d0c565b915050611955565b5092915050565b8280546119f190612cd1565b90600052602060002090601f016020900481019282611a135760008555611a59565b82601f10611a2c57805160ff1916838001178555611a59565b82800160010185558215611a59579182015b82811115611a59578251825591602001919060010190611a3e565b50611a65929150611a69565b5090565b5b80821115611a655760008155600101611a6a565b8035611a8981612d93565b919050565b8051611a8981612d93565b600082601f830112611aaa57600080fd5b8135602067ffffffffffffffff80831115611ac757611ac7612d7d565b8260051b611ad6838201612bea565b8481528381019087850183890186018a1015611af157600080fd5b600093505b86841015611b8857803585811115611b0d57600080fd5b89016040818c03601f1901811315611b2457600080fd5b611b2c612b7a565b8883013588811115611b3d57600080fd5b611b4b8e8b83870101611b95565b825250908201359087821115611b6057600080fd5b611b6e8d8a84860101611b95565b818a01528552505060019390930192918501918501611af6565b5098975050505050505050565b600082601f830112611ba657600080fd5b8135611bb9611bb482612c1b565b612bea565b818152846020838601011115611bce57600080fd5b816020850160208301376000918101602001919091529392505050565b600082601f830112611bfc57600080fd5b8151611c0a611bb482612c1b565b818152846020838601011115611c1f57600080fd5b6116a6826020830160208701612ca5565b805161ffff81168114611a8957600080fd5b600060208284031215611c5457600080fd5b813561129a81612d93565b600060208284031215611c7157600080fd5b815161129a81612d93565b60008060408385031215611c8f57600080fd5b8235611c9a81612d93565b91506020830135611caa81612d93565b809150509250929050565b600080600060608486031215611cca57600080fd5b8335611cd581612d93565b92506020840135611ce581612d93565b929592945050506040919091013590565b60008060008060808587031215611d0c57600080fd5b8435611d1781612d93565b93506020850135611d2781612d93565b925060408501359150606085013567ffffffffffffffff811115611d4a57600080fd5b611d5687828801611b95565b91505092959194509250565b60008060408385031215611d7557600080fd5b8235611d8081612d93565b915060208301358015158114611caa57600080fd5b60008060408385031215611da857600080fd5b8235611db381612d93565b946020939093013593505050565b600060208284031215611dd357600080fd5b813561129a81612da8565b600060208284031215611df057600080fd5b815161129a81612da8565b600060208284031215611e0d57600080fd5b813567ffffffffffffffff811115611e2457600080fd5b6116a684828501611b95565b600060208284031215611e4257600080fd5b815167ffffffffffffffff811115611e5957600080fd5b6116a684828501611beb565b600080600060608486031215611e7a57600080fd5b833567ffffffffffffffff80821115611e9257600080fd5b611e9e87838801611b95565b9450602086013593506040860135915080821115611ebb57600080fd5b50611ec886828701611b95565b9150509250925092565b600060208284031215611ee457600080fd5b815167ffffffffffffffff80821115611efc57600080fd5b908301906101208286031215611f1157600080fd5b611f19612ba3565b825182811115611f2857600080fd5b611f3487828601611beb565b825250602083015182811115611f4957600080fd5b611f5587828601611beb565b602083015250604083015182811115611f6d57600080fd5b611f7987828601611beb565b604083015250606083015182811115611f9157600080fd5b611f9d87828601611beb565b606083015250608083015182811115611fb557600080fd5b611fc187828601611beb565b608083015250611fd360a08401611a8e565b60a082015260c083015182811115611fea57600080fd5b611ff687828601611beb565b60c08301525061200860e08401611c30565b60e0820152610100915061201d828401611c30565b91810191909152949350505050565b6000806040838503121561203f57600080fd5b823567ffffffffffffffff8082111561205757600080fd5b9084019060e0828703121561206b57600080fd5b612073612bc7565b82358281111561208257600080fd5b61208e88828601611b95565b8252506020830135828111156120a357600080fd5b6120af88828601611b95565b6020830152506040830135828111156120c757600080fd5b6120d388828601611b95565b6040830152506060830135828111156120eb57600080fd5b6120f788828601611b95565b60608301525061210960808401611a7e565b608082015260a08301358281111561212057600080fd5b61212c88828601611b95565b60a08301525060c08301358281111561214457600080fd5b61215088828601611a99565b60c0830152509660209590950135955050505050565b60006020828403121561217857600080fd5b5035919050565b60006020828403121561219157600080fd5b5051919050565b600082825180855260208086019550808260051b84010181860160005b8481101561220957601f198684030189528151604081518186526121db82870182612216565b915050858201519150848103868601526121f58183612216565b9a86019a94505050908301906001016121b5565b5090979650505050505050565b6000815180845261222e816020860160208601612ca5565b601f01601f19169290920160200192915050565b60008151612254818560208601612ca5565b9290920192915050565b60008451612270818460208901612ca5565b80830190507f203c75736520687265663d22236261736522202f3e0a203c757365206872656681527f3d22000000000000000000000000000000000000000000000000000000000000602082015284516122d1816022840160208901612ca5565b7f222066696c6c3d2200000000000000000000000000000000000000000000000060229290910191820152835161230f81602a840160208801612ca5565b7f22202f3e0a000000000000000000000000000000000000000000000000000000602a9290910191820152602f0195945050505050565b60008251612358818460208701612ca5565b7f3c2f673e0a3c2f7376673e000000000000000000000000000000000000000000920191825250600b01919050565b60008351612399818460208801612ca5565b80830190507f203c6d61736b2069643d2261737365744d61736b223e0a20203c75736520687281527f65663d2200000000000000000000000000000000000000000000000000000000602082015283516123fa816024840160208801612ca5565b7f222066696c6c3d22776869746522202f3e0a203c2f6d61736b3e0a203c757365602492909101918201527f20687265663d22236261736522206d61736b3d2275726c282361737365744d6160448201526739b5949110179f0560c11b6064820152606c01949350505050565b60008351612479818460208801612ca5565b80830190507f203c6d61736b2069643d2261737365744d61736b2220646573633d224d61746581527f7269616c2049636f6e73202841706163686520322e30292f536f6369616c2f5060208201527f75626c6963223e0a20203c7265637420783d22302220793d223022207769647460408201527f683d223130323422206865696768743d2231303234222066696c6c3d2277686960608201527f746522202f3e0a20203c75736520687265663d220000000000000000000000006080820152835161254c816094840160208801612ca5565b7f222066696c6c3d22626c61636b22202f3e0a203c2f6d61736b3e0a203c757365609492909101918201527f20687265663d22236261736522206d61736b3d2275726c282361737365744d6160b48201526739b5949110179f0560c11b60d482015260dc01949350505050565b600083516125cb818460208801612ca5565b60f89390931b7fff00000000000000000000000000000000000000000000000000000000000000169190920190815260010192915050565b60008351612615818460208801612ca5565b835190830190612629818360208801612ca5565b7f3c2f646566733e0a3c672066696c7465723d2275726c2823663129223e0a00009101908152601e01949350505050565b7f7b226e616d65223a22000000000000000000000000000000000000000000000081526000855160206126938260098601838b01612ca5565b7f222c226465736372697074696f6e223a220000000000000000000000000000006009928501928301528654601a90600090600181811c90808316806126da57607f831692505b8683108114156126f857634e487b7160e01b85526022600452602485fd5b80801561270c576001811461272157612752565b60ff1985168988015283890187019550612752565b60008e81526020902060005b858110156127485781548b82018a015290840190890161272d565b505086848a010195505b50505050506128146127eb6127e5612796612790857f222c2261747472696275746573223a5b00000000000000000000000000000000815260100190565b8c612242565b7f5d2c22696d616765223a22646174613a696d6167652f7376672b786d6c3b626181527f736536342c000000000000000000000000000000000000000000000000000000602082015260250190565b89612242565b7f227d000000000000000000000000000000000000000000000000000000000000815260020190565b9a9950505050505050505050565b7f230000000000000000000000000000000000000000000000000000000000000081526000825161285a816001850160208701612ca5565b9190910160010192915050565b7f646174613a6170706c69636174696f6e2f6a736f6e3b6261736536342c00000081526000825161289f81601d850160208701612ca5565b91909101601d0192915050565b7f7b2274726169745f74797065223a225072696d617279222c2276616c7565223a81527f220000000000000000000000000000000000000000000000000000000000000060208201526000855161290a816021850160208a01612ca5565b7f227d2c7b2274726169745f74797065223a2247726f7570222c2276616c7565226021918401918201527f3a220000000000000000000000000000000000000000000000000000000000006041820152855161296d816043840160208a01612ca5565b7f227d2c7b2274726169745f74797065223a2243617465676f7279222c2276616c604392909101918201527f7565223a22000000000000000000000000000000000000000000000000000000606382015284516129d1816068840160208901612ca5565b7f227d2c7b2274726169745f74797065223a224d696e746572222c2276616c7565606892909101918201527f223a2200000000000000000000000000000000000000000000000000000000006088820152612a326127eb608b830186612242565b979650505050505050565b60006001600160a01b03808716835280861660208401525083604083015260806060830152612a6f6080830184612216565b9695505050505050565b60208152600061129a6020830184612216565b602081526000825160e06020840152612aa9610100840182612216565b90506020840151601f1980858403016040860152612ac78383612216565b92506040860151915080858403016060860152612ae48383612216565b92506060860151915080858403016080860152612b018383612216565b925060808601519150612b1f60a08601836001600160a01b03169052565b60a08601519150808584030160c0860152612b3a8383612216565b925060c08601519150808584030160e086015250612b588282612198565b95945050505050565b8281526040602082015260006116a66040830184612216565b6040805190810167ffffffffffffffff81118282101715612b9d57612b9d612d7d565b60405290565b604051610120810167ffffffffffffffff81118282101715612b9d57612b9d612d7d565b60405160e0810167ffffffffffffffff81118282101715612b9d57612b9d612d7d565b604051601f8201601f1916810167ffffffffffffffff81118282101715612c1357612c13612d7d565b604052919050565b600067ffffffffffffffff821115612c3557612c35612d7d565b50601f01601f191660200190565b60008219821115612c5657612c56612d3b565b500190565b600082612c6a57612c6a612d51565b500490565b6000816000190483118215151615612c8957612c89612d3b565b500290565b600082821015612ca057612ca0612d3b565b500390565b60005b83811015612cc0578181015183820152602001612ca8565b83811115610c2c5750506000910152565b600181811c90821680612ce557607f821691505b60208210811415612d0657634e487b7160e01b600052602260045260246000fd5b50919050565b6000600019821415612d2057612d20612d3b565b5060010190565b600082612d3657612d36612d51565b500690565b634e487b7160e01b600052601160045260246000fd5b634e487b7160e01b600052601260045260246000fd5b634e487b7160e01b600052603260045260246000fd5b634e487b7160e01b600052604160045260246000fd5b6001600160a01b038116811461139057600080fd5b6001600160e01b03198116811461139057600080fdfe4142434445464748494a4b4c4d4e4f505152535455565758595a6162636465666768696a6b6c6d6e6f707172737475767778797a303132333435363738392b2f3c7376672076696577426f783d2230203020313032342031303234222020786d6c6e733d22687474703a2f2f7777772e77332e6f72672f323030302f737667223e0a3c646566733e0a203c66696c7465722069643d2266312220783d22302220793d2230222077696474683d223230302522206865696768743d2232303025223e0a20203c66654f666673657420726573756c743d226f66664f75742220696e3d22536f75726365416c706861222064783d223234222064793d22333222202f3e0a20203c6665476175737369616e426c757220726573756c743d22626c75724f75742220696e3d226f66664f75742220737464446576696174696f6e3d22313622202f3e0a20203c6665426c656e6420696e3d22536f75726365477261706869632220696e323d22626c75724f757422206d6f64653d226e6f726d616c22202f3e0a203c2f66696c7465723e0a3c672069643d2262617365223e0a203c7265637420783d22302220793d2230222077696474683d2235313222206865696768743d22353132222066696c6c3d222334323835463422202f3e0a203c7265637420783d22302220793d22353132222077696474683d2235313222206865696768743d22353132222066696c6c3d222333344138353322202f3e0a203c7265637420783d223531322220793d2230222077696474683d2235313222206865696768743d22353132222066696c6c3d222346424243303522202f3e0a203c7265637420783d223531322220793d22353132222077696474683d2235313222206865696768743d22353132222066696c6c3d2223454134333335222f3e0a3c2f673ea2646970667358221220e48ab0b5db21c9a3b075fc8d4fff4c839103e256031ee8482d565f4fd280685c64736f6c6343000806003354686973206973206f6e65206f6620656666747320746f2063726561746520284f6e2d436861696e2041737365742053746f7265295b68747470733a2f2f617373657473746f72652e7774665d2e",
  "linkReferences": {},
  "deployedLinkReferences": {}
}