{
  "_format": "hh-sol-artifact-1",
  "contractName": "MaterialToken",
  "sourceName": "contracts/MaterialToken.sol",
  "abi": [
    {
      "inputs": [
        {
          "internalType": "contract IAssetStoreRegistry",
          "name": "_registry",
          "type": "address"
        },
        {
          "internalType": "contract IAssetStore",
          "name": "_assetStore",
          "type": "address"
        },
        {
          "internalType": "address",
          "name": "_developer",
          "type": "address"
        },
        {
          "internalType": "contract IProxyRegistry",
          "name": "_proxyRegistry",
          "type": "address"
        }
      ],
      "stateMutability": "nonpayable",
      "type": "constructor"
    },
    {
      "inputs": [],
      "name": "ApprovalCallerNotOwnerNorApproved",
      "type": "error"
    },
    {
      "inputs": [],
      "name": "ApprovalQueryForNonexistentToken",
      "type": "error"
    },
    {
      "inputs": [],
      "name": "ApproveToCaller",
      "type": "error"
    },
    {
      "inputs": [],
      "name": "BalanceQueryForZeroAddress",
      "type": "error"
    },
    {
      "inputs": [],
      "name": "MintERC2309QuantityExceedsLimit",
      "type": "error"
    },
    {
      "inputs": [],
      "name": "MintToZeroAddress",
      "type": "error"
    },
    {
      "inputs": [],
      "name": "MintZeroQuantity",
      "type": "error"
    },
    {
      "inputs": [],
      "name": "OwnerQueryForNonexistentToken",
      "type": "error"
    },
    {
      "inputs": [],
      "name": "OwnershipNotInitializedForExtraData",
      "type": "error"
    },
    {
      "inputs": [],
      "name": "TransferCallerNotOwnerNorApproved",
      "type": "error"
    },
    {
      "inputs": [],
      "name": "TransferFromIncorrectOwner",
      "type": "error"
    },
    {
      "inputs": [],
      "name": "TransferToNonERC721ReceiverImplementer",
      "type": "error"
    },
    {
      "inputs": [],
      "name": "TransferToZeroAddress",
      "type": "error"
    },
    {
      "inputs": [],
      "name": "URIQueryForNonexistentToken",
      "type": "error"
    },
    {
      "anonymous": false,
      "inputs": [
        {
          "indexed": true,
          "internalType": "address",
          "name": "owner",
          "type": "address"
        },
        {
          "indexed": true,
          "internalType": "address",
          "name": "approved",
          "type": "address"
        },
        {
          "indexed": true,
          "internalType": "uint256",
          "name": "tokenId",
          "type": "uint256"
        }
      ],
      "name": "Approval",
      "type": "event"
    },
    {
      "anonymous": false,
      "inputs": [
        {
          "indexed": true,
          "internalType": "address",
          "name": "owner",
          "type": "address"
        },
        {
          "indexed": true,
          "internalType": "address",
          "name": "operator",
          "type": "address"
        },
        {
          "indexed": false,
          "internalType": "bool",
          "name": "approved",
          "type": "bool"
        }
      ],
      "name": "ApprovalForAll",
      "type": "event"
    },
    {
      "anonymous": false,
      "inputs": [
        {
          "indexed": true,
          "internalType": "uint256",
          "name": "fromTokenId",
          "type": "uint256"
        },
        {
          "indexed": false,
          "internalType": "uint256",
          "name": "toTokenId",
          "type": "uint256"
        },
        {
          "indexed": true,
          "internalType": "address",
          "name": "from",
          "type": "address"
        },
        {
          "indexed": true,
          "internalType": "address",
          "name": "to",
          "type": "address"
        }
      ],
      "name": "ConsecutiveTransfer",
      "type": "event"
    },
    {
      "anonymous": false,
      "inputs": [
        {
          "indexed": true,
          "internalType": "address",
          "name": "previousOwner",
          "type": "address"
        },
        {
          "indexed": true,
          "internalType": "address",
          "name": "newOwner",
          "type": "address"
        }
      ],
      "name": "OwnershipTransferred",
      "type": "event"
    },
    {
      "anonymous": false,
      "inputs": [
        {
          "indexed": true,
          "internalType": "address",
          "name": "from",
          "type": "address"
        },
        {
          "indexed": true,
          "internalType": "address",
          "name": "to",
          "type": "address"
        },
        {
          "indexed": true,
          "internalType": "uint256",
          "name": "tokenId",
          "type": "uint256"
        }
      ],
      "name": "Transfer",
      "type": "event"
    },
    {
      "inputs": [
        {
          "internalType": "address",
          "name": "to",
          "type": "address"
        },
        {
          "internalType": "uint256",
          "name": "tokenId",
          "type": "uint256"
        }
      ],
      "name": "approve",
      "outputs": [],
      "stateMutability": "nonpayable",
      "type": "function"
    },
    {
      "inputs": [
        {
          "internalType": "uint256",
          "name": "_tokenId",
          "type": "uint256"
        }
      ],
      "name": "assetIdOfToken",
      "outputs": [
        {
          "internalType": "uint256",
          "name": "",
          "type": "uint256"
        }
      ],
      "stateMutability": "view",
      "type": "function"
    },
    {
      "inputs": [],
      "name": "assetStore",
      "outputs": [
        {
          "internalType": "contract IAssetStore",
          "name": "",
          "type": "address"
        }
      ],
      "stateMutability": "view",
      "type": "function"
    },
    {
      "inputs": [
        {
          "internalType": "address",
          "name": "owner",
          "type": "address"
        }
      ],
      "name": "balanceOf",
      "outputs": [
        {
          "internalType": "uint256",
          "name": "",
          "type": "uint256"
        }
      ],
      "stateMutability": "view",
      "type": "function"
    },
    {
      "inputs": [],
      "name": "description",
      "outputs": [
        {
          "internalType": "string",
          "name": "",
          "type": "string"
        }
      ],
      "stateMutability": "view",
      "type": "function"
    },
    {
      "inputs": [],
      "name": "developer",
      "outputs": [
        {
          "internalType": "address",
          "name": "",
          "type": "address"
        }
      ],
      "stateMutability": "view",
      "type": "function"
    },
    {
      "inputs": [
        {
          "internalType": "string",
          "name": "_svgPart",
          "type": "string"
        },
        {
          "internalType": "uint256",
          "name": "_style",
          "type": "uint256"
        },
        {
          "internalType": "string",
          "name": "_tag",
          "type": "string"
        }
      ],
      "name": "generateSVG",
      "outputs": [
        {
          "internalType": "string",
          "name": "",
          "type": "string"
        }
      ],
      "stateMutability": "pure",
      "type": "function"
    },
    {
      "inputs": [
        {
          "internalType": "uint256",
          "name": "tokenId",
          "type": "uint256"
        }
      ],
      "name": "getApproved",
      "outputs": [
        {
          "internalType": "address",
          "name": "",
          "type": "address"
        }
      ],
      "stateMutability": "view",
      "type": "function"
    },
    {
      "inputs": [],
      "name": "getCurrentToken",
      "outputs": [
        {
          "internalType": "uint256",
          "name": "",
          "type": "uint256"
        }
      ],
      "stateMutability": "view",
      "type": "function"
    },
    {
      "inputs": [
        {
          "internalType": "address",
          "name": "owner",
          "type": "address"
        },
        {
          "internalType": "address",
          "name": "operator",
          "type": "address"
        }
      ],
      "name": "isApprovedForAll",
      "outputs": [
        {
          "internalType": "bool",
          "name": "",
          "type": "bool"
        }
      ],
      "stateMutability": "view",
      "type": "function"
    },
    {
      "inputs": [
        {
          "components": [
            {
              "internalType": "string",
              "name": "group",
              "type": "string"
            },
            {
              "internalType": "string",
              "name": "category",
              "type": "string"
            },
            {
              "internalType": "string",
              "name": "name",
              "type": "string"
            },
            {
              "internalType": "string",
              "name": "minter",
              "type": "string"
            },
            {
              "internalType": "address",
              "name": "soulbound",
              "type": "address"
            },
            {
              "internalType": "bytes",
              "name": "metadata",
              "type": "bytes"
            },
            {
              "components": [
                {
                  "internalType": "bytes",
                  "name": "body",
                  "type": "bytes"
                },
                {
                  "internalType": "string",
                  "name": "color",
                  "type": "string"
                }
              ],
              "internalType": "struct IAssetStoreRegistry.Part[]",
              "name": "parts",
              "type": "tuple[]"
            }
          ],
          "internalType": "struct IAssetStoreRegistry.AssetInfo",
          "name": "_assetInfo",
          "type": "tuple"
        },
        {
          "internalType": "uint256",
          "name": "_affiliate",
          "type": "uint256"
        }
      ],
      "name": "mintWithAsset",
      "outputs": [],
      "stateMutability": "nonpayable",
      "type": "function"
    },
    {
      "inputs": [],
      "name": "name",
      "outputs": [
        {
          "internalType": "string",
          "name": "",
          "type": "string"
        }
      ],
      "stateMutability": "view",
      "type": "function"
    },
    {
      "inputs": [],
      "name": "owner",
      "outputs": [
        {
          "internalType": "address",
          "name": "",
          "type": "address"
        }
      ],
      "stateMutability": "view",
      "type": "function"
    },
    {
      "inputs": [
        {
          "internalType": "uint256",
          "name": "tokenId",
          "type": "uint256"
        }
      ],
      "name": "ownerOf",
      "outputs": [
        {
          "internalType": "address",
          "name": "",
          "type": "address"
        }
      ],
      "stateMutability": "view",
      "type": "function"
    },
    {
      "inputs": [],
      "name": "proxyRegistry",
      "outputs": [
        {
          "internalType": "contract IProxyRegistry",
          "name": "",
          "type": "address"
        }
      ],
      "stateMutability": "view",
      "type": "function"
    },
    {
      "inputs": [],
      "name": "registry",
      "outputs": [
        {
          "internalType": "contract IAssetStoreRegistry",
          "name": "",
          "type": "address"
        }
      ],
      "stateMutability": "view",
      "type": "function"
    },
    {
      "inputs": [],
      "name": "renounceOwnership",
      "outputs": [],
      "stateMutability": "nonpayable",
      "type": "function"
    },
    {
      "inputs": [
        {
          "internalType": "address",
          "name": "from",
          "type": "address"
        },
        {
          "internalType": "address",
          "name": "to",
          "type": "address"
        },
        {
          "internalType": "uint256",
          "name": "tokenId",
          "type": "uint256"
        }
      ],
      "name": "safeTransferFrom",
      "outputs": [],
      "stateMutability": "nonpayable",
      "type": "function"
    },
    {
      "inputs": [
        {
          "internalType": "address",
          "name": "from",
          "type": "address"
        },
        {
          "internalType": "address",
          "name": "to",
          "type": "address"
        },
        {
          "internalType": "uint256",
          "name": "tokenId",
          "type": "uint256"
        },
        {
          "internalType": "bytes",
          "name": "_data",
          "type": "bytes"
        }
      ],
      "name": "safeTransferFrom",
      "outputs": [],
      "stateMutability": "nonpayable",
      "type": "function"
    },
    {
      "inputs": [
        {
          "internalType": "address",
          "name": "operator",
          "type": "address"
        },
        {
          "internalType": "bool",
          "name": "approved",
          "type": "bool"
        }
      ],
      "name": "setApprovalForAll",
      "outputs": [],
      "stateMutability": "nonpayable",
      "type": "function"
    },
    {
      "inputs": [],
      "name": "styles",
      "outputs": [
        {
          "internalType": "uint256",
          "name": "",
          "type": "uint256"
        }
      ],
      "stateMutability": "pure",
      "type": "function"
    },
    {
      "inputs": [
        {
          "internalType": "bytes4",
          "name": "interfaceId",
          "type": "bytes4"
        }
      ],
      "name": "supportsInterface",
      "outputs": [
        {
          "internalType": "bool",
          "name": "",
          "type": "bool"
        }
      ],
      "stateMutability": "view",
      "type": "function"
    },
    {
      "inputs": [],
      "name": "symbol",
      "outputs": [
        {
          "internalType": "string",
          "name": "",
          "type": "string"
        }
      ],
      "stateMutability": "view",
      "type": "function"
    },
    {
      "inputs": [
        {
          "internalType": "uint256",
          "name": "_tokenId",
          "type": "uint256"
        }
      ],
      "name": "tokenURI",
      "outputs": [
        {
          "internalType": "string",
          "name": "",
          "type": "string"
        }
      ],
      "stateMutability": "view",
      "type": "function"
    },
    {
      "inputs": [],
      "name": "totalSupply",
      "outputs": [
        {
          "internalType": "uint256",
          "name": "",
          "type": "uint256"
        }
      ],
      "stateMutability": "view",
      "type": "function"
    },
    {
      "inputs": [
        {
          "internalType": "address",
          "name": "from",
          "type": "address"
        },
        {
          "internalType": "address",
          "name": "to",
          "type": "address"
        },
        {
          "internalType": "uint256",
          "name": "tokenId",
          "type": "uint256"
        }
      ],
      "name": "transferFrom",
      "outputs": [],
      "stateMutability": "nonpayable",
      "type": "function"
    },
    {
      "inputs": [
        {
          "internalType": "address",
          "name": "newOwner",
          "type": "address"
        }
      ],
      "name": "transferOwnership",
      "outputs": [],
      "stateMutability": "nonpayable",
      "type": "function"
    }
  ],
  "bytecode": "0x610160604052604e60e081815290620032596101003980516200002b91600a916020909101906200018f565b503480156200003957600080fd5b50604051620032a7380380620032a78339810160408190526200005c9162000235565b6040518060400160405280600e81526020016d4d6174657269616c2049636f6e7360901b81525060405180604001604052806008815260200167135055115492505360c21b815250620000be620000b86200013b60201b60201c565b6200013f565b8151620000d39060039060208501906200018f565b508051620000e99060049060208401906200018f565b5060006001555050606093841b6001600160601b031990811660805292841b831660a052600b80546001600160a01b0319166001600160a01b03939093169290921790915590911b1660c052620002f3565b3390565b600080546001600160a01b038381166001600160a01b0319831681178455604051919092169283917f8be0079c531659141344cd1fd0a4f28419497f9722a3daafe3b4186f6b6457e09190a35050565b8280546200019d906200029d565b90600052602060002090601f016020900481019282620001c157600085556200020c565b82601f10620001dc57805160ff19168380011785556200020c565b828001600101855582156200020c579182015b828111156200020c578251825591602001919060010190620001ef565b506200021a9291506200021e565b5090565b5b808211156200021a57600081556001016200021f565b600080600080608085870312156200024c57600080fd5b84516200025981620002da565b60208601519094506200026c81620002da565b60408601519093506200027f81620002da565b60608601519092506200029281620002da565b939692955090935050565b600181811c90821680620002b257607f821691505b60208210811415620002d457634e487b7160e01b600052602260045260246000fd5b50919050565b6001600160a01b0381168114620002f057600080fd5b50565b60805160601c60a05160601c60c05160601c612f11620003486000396000818161036f01526111470152600081816102b801528181610f420152610ffd01526000818161031c0152610aae0152612f116000f3fe608060405234801561001057600080fd5b50600436106101b85760003560e01c8063715018a6116100f9578063b50cbd9f11610097578063ca4b208b11610071578063ca4b208b146103b7578063e985e9c5146103ca578063ef2d1746146103dd578063f2fde38b146103e557600080fd5b8063b50cbd9f1461036a578063b88d4fde14610391578063c87b56dd146103a457600080fd5b80637b103999116100d35780637b103999146103175780638da5cb5b1461033e57806395d89b411461034f578063a22cb4651461035757600080fd5b8063715018a6146103005780637284e41614610308578063786f94c61461031057600080fd5b806323b872dd116101665780634f38687b116101405780634f38687b146102a0578063597a0e36146102b35780636352211e146102da57806370a08231146102ed57600080fd5b806323b872dd146102675780632ab72d2f1461027a57806342842e0e1461028d57600080fd5b8063081812fc11610197578063081812fc14610211578063095ea7b31461023c57806318160ddd1461025157600080fd5b80626e59e9146101bd57806301ffc9a7146101e657806306fdde0314610209575b600080fd5b6101d06101cb366004611cff565b6103f8565b6040516101dd9190612910565b60405180910390f35b6101f96101f4366004611c90565b610585565b60405190151581526020016101dd565b6101d0610622565b61022461021f366004612000565b6106b4565b6040516001600160a01b0390911681526020016101dd565b61024f61024a366004611c64565b610711565b005b600254600154035b6040519081526020016101dd565b61024f610275366004611b84565b6107d7565b610259610288366004612000565b6109b4565b61024f61029b366004611b84565b610a5b565b61024f6102ae366004611ec6565b610a7b565b6102247f000000000000000000000000000000000000000000000000000000000000000081565b6102246102e8366004612000565b610c14565b6102596102fb366004611b11565b610c1f565b61024f610c87565b6101d0610ced565b6004610259565b6102247f000000000000000000000000000000000000000000000000000000000000000081565b6000546001600160a01b0316610224565b6101d0610d7b565b61024f610365366004611c31565b610d8a565b6102247f000000000000000000000000000000000000000000000000000000000000000081565b61024f61039f366004611bc5565b610e39565b6101d06103b2366004612000565b610e7d565b600b54610224906001600160a01b031681565b6101f96103d8366004611b4b565b611108565b610259611209565b61024f6103f3366004611b11565b611219565b606060008260405160200161040d91906126b9565b60408051601f19818403018152610280830190915261025f80835290925060009190612c7d60208301398660405160200161044992919061249a565b6040516020818303038152906040529050846000141561048c57808260405160200161047692919061221e565b604051602081830303815290604052905061055a565b61049860016004612b0c565b8510156105355780826104ac600288612ba5565b156104ec576040518060400160405280600581526020017f7768697465000000000000000000000000000000000000000000000000000000815250610523565b6040518060400160405280600581526020017f626c61636b0000000000000000000000000000000000000000000000000000008152505b604051602001610476939291906120f5565b80826040516020016105489291906122fe565b60405160208183030381529060405290505b8060405160200161056b91906121dd565b604051602081830303815290604052925050509392505050565b60007f01ffc9a7000000000000000000000000000000000000000000000000000000006001600160e01b0319831614806105e857507f80ac58cd000000000000000000000000000000000000000000000000000000006001600160e01b03198316145b8061061c57507f5b5e139f000000000000000000000000000000000000000000000000000000006001600160e01b03198316145b92915050565b60606003805461063190612b4f565b80601f016020809104026020016040519081016040528092919081815260200182805461065d90612b4f565b80156106aa5780601f1061067f576101008083540402835291602001916106aa565b820191906000526020600020905b81548152906001019060200180831161068d57829003601f168201915b5050505050905090565b60006106bf826112fb565b6106f5576040517fcf4700e400000000000000000000000000000000000000000000000000000000815260040160405180910390fd5b506000908152600760205260409020546001600160a01b031690565b600061071c82610c14565b9050336001600160a01b0382161461076e576107388133611108565b61076e576040517fcfb3b94200000000000000000000000000000000000000000000000000000000815260040160405180910390fd5b600082815260076020526040808220805473ffffffffffffffffffffffffffffffffffffffff19166001600160a01b0387811691821790925591518593918516917f8c5be1e5ebec7d5bd14f71427d1e84f3dd0314c0f7b2291e5b200ac8c7c3b92591a4505050565b60006107e282611323565b9050836001600160a01b0316816001600160a01b03161461082f576040517fa114810000000000000000000000000000000000000000000000000000000000815260040160405180910390fd5b60008281526007602052604090208054338082146001600160a01b038816909114176108955761085f8633611108565b610895576040517f59c896be00000000000000000000000000000000000000000000000000000000815260040160405180910390fd5b6001600160a01b0385166108d5576040517fea553b3400000000000000000000000000000000000000000000000000000000815260040160405180910390fd5b80156108e057600082555b6001600160a01b038681166000908152600660205260408082208054600019019055918716808252919020805460010190554260a01b17600160e11b17600085815260056020526040902055600160e11b831661096b57600184016000818152600560205260409020546109695760015481146109695760008181526005602052604090208490555b505b83856001600160a01b0316876001600160a01b03167fddf252ad1be2c89b69c2b068fc378daa952ba7f163c4a11628f55a4df523b3ef60405160405180910390a4505050505050565b60006109bf826112fb565b610a365760405162461bcd60e51b815260206004820152602f60248201527f4d6174657269616c546f6b656e2e617373657449644f66546f6b656e3a206e6f60448201527f6e6578697374656e7420746f6b656e000000000000000000000000000000000060648201526084015b60405180910390fd5b60096000610a45600485612ad9565b8152602001908152602001600020549050919050565b610a7683838360405180602001604052806000815250610e39565b505050565b6040517f5b7eea860000000000000000000000000000000000000000000000000000000081526000906001600160a01b037f00000000000000000000000000000000000000000000000000000000000000001690635b7eea8690610ae3908690600401612923565b602060405180830381600087803b158015610afd57600080fd5b505af1158015610b11573d6000803e3d6000fd5b505050506040513d601f19601f82011682018060405250810190610b359190612019565b90506000610b4260015490565b90508160096000610b54600485612ad9565b8152602081019190915260400160002055610b7a33610b7560016004612b0c565b61139d565b600083118015610b8e5750610b8e836114ad565b8015610bab575033610b9f84610c14565b6001600160a01b031614155b15610bc857610bc3610bbc84610c14565b600161139d565b610c0e565b6004610bd48183612ad9565b610bde9190612ba5565b610bf957600b54610bc3906001600160a01b0316600161139d565b610c0e610bbc6000546001600160a01b031690565b50505050565b600061061c82611323565b60006001600160a01b038216610c61576040517f8f4eb60400000000000000000000000000000000000000000000000000000000815260040160405180910390fd5b506001600160a01b031660009081526006602052604090205467ffffffffffffffff1690565b6000546001600160a01b03163314610ce15760405162461bcd60e51b815260206004820181905260248201527f4f776e61626c653a2063616c6c6572206973206e6f7420746865206f776e65726044820152606401610a2d565b610ceb60006114c1565b565b600a8054610cfa90612b4f565b80601f0160208091040260200160405190810160405280929190818152602001828054610d2690612b4f565b8015610d735780601f10610d4857610100808354040283529160200191610d73565b820191906000526020600020905b815481529060010190602001808311610d5657829003601f168201915b505050505081565b60606004805461063190612b4f565b6001600160a01b038216331415610dcd576040517fb06307db00000000000000000000000000000000000000000000000000000000815260040160405180910390fd5b3360008181526008602090815260408083206001600160a01b03871680855290835292819020805460ff191686151590811790915590519081529192917f17307eab39ab6107e8899845ad3d59bd9653f200f220920489ca2b5937696c31910160405180910390a35050565b610e448484846107d7565b6001600160a01b0383163b15610c0e57610e608484848461151e565b610c0e576040516368d2bf6b60e11b815260040160405180910390fd5b6060610e88826112fb565b610efa5760405162461bcd60e51b815260206004820152602960248201527f4d6174657269616c546f6b656e2e746f6b656e5552493a206e6f6e657869737460448201527f656e7420746f6b656e00000000000000000000000000000000000000000000006064820152608401610a2d565b6000610f05836109b4565b6040517f4378a6e3000000000000000000000000000000000000000000000000000000008152600481018290529091506000906001600160a01b037f00000000000000000000000000000000000000000000000000000000000000001690634378a6e39060240160006040518083038186803b158015610f8457600080fd5b505afa158015610f98573d6000803e3d6000fd5b505050506040513d6000823e601f3d908101601f19168201604052610fc09190810190611d6c565b6040517fe3f24f02000000000000000000000000000000000000000000000000000000008152600481018490529091506000906001600160a01b037f0000000000000000000000000000000000000000000000000000000000000000169063e3f24f029060240160006040518083038186803b15801561103f57600080fd5b505afa158015611053573d6000803e3d6000fd5b505050506040513d6000823e601f3d908101601f1916820160405261107b9190810190611cca565b905060006110988261108e600489612ba5565b85606001516103f8565b90506110de8360400151600a6110ae8987611616565b6110b78561171a565b6040516020016110ca94939291906124f1565b60405160208183030381529060405261171a565b6040516020016110ee91906126fe565b604051602081830303815290604052945050505050919050565b6040517fc45527910000000000000000000000000000000000000000000000000000000081526001600160a01b038381166004830152600091818416917f0000000000000000000000000000000000000000000000000000000000000000169063c45527919060240160206040518083038186803b15801561118957600080fd5b505afa15801561119d573d6000803e3d6000fd5b505050506040513d601f19601f820116820180604052508101906111c19190611b2e565b6001600160a01b031614156111d85750600161061c565b6001600160a01b0380841660009081526008602090815260408083209386168352929052205460ff165b9392505050565b600061121460015490565b905090565b6000546001600160a01b031633146112735760405162461bcd60e51b815260206004820181905260248201527f4f776e61626c653a2063616c6c6572206973206e6f7420746865206f776e65726044820152606401610a2d565b6001600160a01b0381166112ef5760405162461bcd60e51b815260206004820152602660248201527f4f776e61626c653a206e6577206f776e657220697320746865207a65726f206160448201527f64647265737300000000000000000000000000000000000000000000000000006064820152608401610a2d565b6112f8816114c1565b50565b60006001548210801561061c575050600090815260056020526040902054600160e01b161590565b60008160015481101561136b57600081815260056020526040902054600160e01b8116611369575b8061120257506000190160008181526005602052604090205461134b565b505b6040517fdf2d9b4200000000000000000000000000000000000000000000000000000000815260040160405180910390fd5b6001546001600160a01b0383166113e0576040517f2e07630000000000000000000000000000000000000000000000000000000000815260040160405180910390fd5b81611417576040517fb562e8dd00000000000000000000000000000000000000000000000000000000815260040160405180910390fd5b6001600160a01b038316600081815260066020526040902080546801000000000000000185020190554260a01b6001841460e11b1717600082815260056020526040902055808281015b6040516001830192906001600160a01b038716906000907fddf252ad1be2c89b69c2b068fc378daa952ba7f163c4a11628f55a4df523b3ef908290a48082106114615760015550505050565b60006114ba600483612ba5565b1592915050565b600080546001600160a01b0383811673ffffffffffffffffffffffffffffffffffffffff19831681178455604051919092169283917f8be0079c531659141344cd1fd0a4f28419497f9722a3daafe3b4186f6b6457e09190a35050565b604051630a85bd0160e11b81526000906001600160a01b0385169063150b7a02906115539033908990889088906004016128d4565b602060405180830381600087803b15801561156d57600080fd5b505af192505050801561159d575060408051601f3d908101601f1916820190925261159a91810190611cad565b60015b6115f8573d8080156115cb576040519150601f19603f3d011682016040523d82523d6000602084013e6115d0565b606091505b5080516115f0576040516368d2bf6b60e11b815260040160405180910390fd5b805181602001fd5b6001600160e01b031916630a85bd0160e11b1490505b949350505050565b6060611621836114ad565b611660576040518060400160405280600281526020017f4e6f000000000000000000000000000000000000000000000000000000000000815250611697565b6040518060400160405280600381526020017f59657300000000000000000000000000000000000000000000000000000000008152505b825160208401516080850151516116e3576040518060400160405280600b81526020017f28616e6f6e796d6f7573290000000000000000000000000000000000000000008152506116f0565b6116f085608001516118b7565b6040516020016117039493929190612743565b604051602081830303815290604052905092915050565b606081516000141561173a57505060408051602081019091526000815290565b6000604051806060016040528060408152602001612c3d60409139905060006003845160026117699190612ac1565b6117739190612ad9565b61177e906004612aed565b9050600061178d826020612ac1565b67ffffffffffffffff8111156117a5576117a5612bfb565b6040519080825280601f01601f1916602001820160405280156117cf576020820181803683370190505b509050818152600183018586518101602084015b8183101561183b576003830192508251603f8160121c168501518253600182019150603f81600c1c168501518253600182019150603f8160061c168501518253600182019150603f81168501518253506001016117e3565b6003895106600181146118555760028114611881576118a9565b7f3d3d0000000000000000000000000000000000000000000000000000000000006001198301526118a9565b7f3d000000000000000000000000000000000000000000000000000000000000006000198301525b509398975050505050505050565b60608060005b83518110156119465760008482815181106118da576118da612be5565b0160209081015160f81c915081108015906118f957508060ff16605c14155b801561190957508060ff16602214155b15611933578281604051602001611921929190612450565b60405160208183030381529060405292505b508061193e81612b8a565b9150506118bd565b5092915050565b803561195881612c11565b919050565b805161195881612c11565b600082601f83011261197957600080fd5b8135602067ffffffffffffffff8083111561199657611996612bfb565b8260051b6119a5838201612a68565b8481528381019087850183890186018a10156119c057600080fd5b600093505b86841015611a57578035858111156119dc57600080fd5b89016040818c03601f19018113156119f357600080fd5b6119fb6129f8565b8883013588811115611a0c57600080fd5b611a1a8e8b83870101611a64565b825250908201359087821115611a2f57600080fd5b611a3d8d8a84860101611a64565b818a015285525050600193909301929185019185016119c5565b5098975050505050505050565b600082601f830112611a7557600080fd5b8135611a88611a8382612a99565b612a68565b818152846020838601011115611a9d57600080fd5b816020850160208301376000918101602001919091529392505050565b600082601f830112611acb57600080fd5b8151611ad9611a8382612a99565b818152846020838601011115611aee57600080fd5b61160e826020830160208701612b23565b805161ffff8116811461195857600080fd5b600060208284031215611b2357600080fd5b813561120281612c11565b600060208284031215611b4057600080fd5b815161120281612c11565b60008060408385031215611b5e57600080fd5b8235611b6981612c11565b91506020830135611b7981612c11565b809150509250929050565b600080600060608486031215611b9957600080fd5b8335611ba481612c11565b92506020840135611bb481612c11565b929592945050506040919091013590565b60008060008060808587031215611bdb57600080fd5b8435611be681612c11565b93506020850135611bf681612c11565b925060408501359150606085013567ffffffffffffffff811115611c1957600080fd5b611c2587828801611a64565b91505092959194509250565b60008060408385031215611c4457600080fd5b8235611c4f81612c11565b915060208301358015158114611b7957600080fd5b60008060408385031215611c7757600080fd5b8235611c8281612c11565b946020939093013593505050565b600060208284031215611ca257600080fd5b813561120281612c26565b600060208284031215611cbf57600080fd5b815161120281612c26565b600060208284031215611cdc57600080fd5b815167ffffffffffffffff811115611cf357600080fd5b61160e84828501611aba565b600080600060608486031215611d1457600080fd5b833567ffffffffffffffff80821115611d2c57600080fd5b611d3887838801611a64565b9450602086013593506040860135915080821115611d5557600080fd5b50611d6286828701611a64565b9150509250925092565b600060208284031215611d7e57600080fd5b815167ffffffffffffffff80821115611d9657600080fd5b908301906101208286031215611dab57600080fd5b611db3612a21565b825182811115611dc257600080fd5b611dce87828601611aba565b825250602083015182811115611de357600080fd5b611def87828601611aba565b602083015250604083015182811115611e0757600080fd5b611e1387828601611aba565b604083015250606083015182811115611e2b57600080fd5b611e3787828601611aba565b606083015250608083015182811115611e4f57600080fd5b611e5b87828601611aba565b608083015250611e6d60a0840161195d565b60a082015260c083015182811115611e8457600080fd5b611e9087828601611aba565b60c083015250611ea260e08401611aff565b60e08201526101009150611eb7828401611aff565b91810191909152949350505050565b60008060408385031215611ed957600080fd5b823567ffffffffffffffff80821115611ef157600080fd5b9084019060e08287031215611f0557600080fd5b611f0d612a45565b823582811115611f1c57600080fd5b611f2888828601611a64565b825250602083013582811115611f3d57600080fd5b611f4988828601611a64565b602083015250604083013582811115611f6157600080fd5b611f6d88828601611a64565b604083015250606083013582811115611f8557600080fd5b611f9188828601611a64565b606083015250611fa36080840161194d565b608082015260a083013582811115611fba57600080fd5b611fc688828601611a64565b60a08301525060c083013582811115611fde57600080fd5b611fea88828601611968565b60c0830152509660209590950135955050505050565b60006020828403121561201257600080fd5b5035919050565b60006020828403121561202b57600080fd5b5051919050565b600081518084526020808501808196508360051b8101915082860160005b858110156120a0578284038952815160408151818752612072828801826120ad565b9150508682015191508581038787015261208c81836120ad565b9a87019a9550505090840190600101612050565b5091979650505050505050565b600081518084526120c5816020860160208601612b23565b601f01601f19169290920160200192915050565b600081516120eb818560208601612b23565b9290920192915050565b60008451612107818460208901612b23565b80830190507f203c75736520687265663d22236261736522202f3e0a203c757365206872656681527f3d2200000000000000000000000000000000000000000000000000000000000060208201528451612168816022840160208901612b23565b7f222066696c6c3d220000000000000000000000000000000000000000000000006022929091019182015283516121a681602a840160208801612b23565b7f22202f3e0a000000000000000000000000000000000000000000000000000000602a9290910191820152602f0195945050505050565b600082516121ef818460208701612b23565b7f3c2f673e0a3c2f7376673e000000000000000000000000000000000000000000920191825250600b01919050565b60008351612230818460208801612b23565b80830190507f203c6d61736b2069643d2261737365744d61736b223e0a20203c75736520687281527f65663d220000000000000000000000000000000000000000000000000000000060208201528351612291816024840160208801612b23565b7f222066696c6c3d22776869746522202f3e0a203c2f6d61736b3e0a203c757365602492909101918201527f20687265663d22236261736522206d61736b3d2275726c282361737365744d6160448201526739b5949110179f0560c11b6064820152606c01949350505050565b60008351612310818460208801612b23565b80830190507f203c6d61736b2069643d2261737365744d61736b2220646573633d224d61746581527f7269616c2049636f6e73202841706163686520322e30292f536f6369616c2f5060208201527f75626c6963223e0a20203c7265637420783d22302220793d223022207769647460408201527f683d223130323422206865696768743d2231303234222066696c6c3d2277686960608201527f746522202f3e0a20203c75736520687265663d22000000000000000000000000608082015283516123e3816094840160208801612b23565b7f222066696c6c3d22626c61636b22202f3e0a203c2f6d61736b3e0a203c757365609492909101918201527f20687265663d22236261736522206d61736b3d2275726c282361737365744d6160b48201526739b5949110179f0560c11b60d482015260dc01949350505050565b60008351612462818460208801612b23565b60f89390931b7fff00000000000000000000000000000000000000000000000000000000000000169190920190815260010192915050565b600083516124ac818460208801612b23565b8351908301906124c0818360208801612b23565b7f3c2f646566733e0a3c672066696c7465723d2275726c2823663129223e0a00009101908152601e01949350505050565b7f7b226e616d65223a220000000000000000000000000000000000000000000000815260008551602061252a8260098601838b01612b23565b7f222c226465736372697074696f6e223a220000000000000000000000000000006009928501928301528654601a90600090600181811c908083168061257157607f831692505b86831081141561258f57634e487b7160e01b85526022600452602485fd5b8080156125a357600181146125b8576125e9565b60ff19851689880152838901870195506125e9565b60008e81526020902060005b858110156125df5781548b82018a01529084019089016125c4565b505086848a010195505b50505050506126ab61268261267c61262d612627857f222c2261747472696275746573223a5b00000000000000000000000000000000815260100190565b8c6120d9565b7f5d2c22696d616765223a22646174613a696d6167652f7376672b786d6c3b626181527f736536342c000000000000000000000000000000000000000000000000000000602082015260250190565b896120d9565b7f227d000000000000000000000000000000000000000000000000000000000000815260020190565b9a9950505050505050505050565b7f23000000000000000000000000000000000000000000000000000000000000008152600082516126f1816001850160208701612b23565b9190910160010192915050565b7f646174613a6170706c69636174696f6e2f6a736f6e3b6261736536342c00000081526000825161273681601d850160208701612b23565b91909101601d0192915050565b7f7b2274726169745f74797065223a225072696d617279222c2276616c7565223a81527f22000000000000000000000000000000000000000000000000000000000000006020820152600085516127a1816021850160208a01612b23565b7f227d2c7b2274726169745f74797065223a2247726f7570222c2276616c7565226021918401918201527f3a2200000000000000000000000000000000000000000000000000000000000060418201528551612804816043840160208a01612b23565b7f227d2c7b2274726169745f74797065223a2243617465676f7279222c2276616c604392909101918201527f7565223a2200000000000000000000000000000000000000000000000000000060638201528451612868816068840160208901612b23565b7f227d2c7b2274726169745f74797065223a224d696e746572222c2276616c7565606892909101918201527f223a22000000000000000000000000000000000000000000000000000000000060888201526128c9612682608b8301866120d9565b979650505050505050565b60006001600160a01b0380871683528086166020840152508360408301526080606083015261290660808301846120ad565b9695505050505050565b60208152600061120260208301846120ad565b602081526000825160e060208401526129406101008401826120ad565b90506020840151601f198085840301604086015261295e83836120ad565b9250604086015191508085840301606086015261297b83836120ad565b9250606086015191508085840301608086015261299883836120ad565b9250608086015191506129b660a08601836001600160a01b03169052565b60a08601519150808584030160c08601526129d183836120ad565b925060c08601519150808584030160e0860152506129ef8282612032565b95945050505050565b6040805190810167ffffffffffffffff81118282101715612a1b57612a1b612bfb565b60405290565b604051610120810167ffffffffffffffff81118282101715612a1b57612a1b612bfb565b60405160e0810167ffffffffffffffff81118282101715612a1b57612a1b612bfb565b604051601f8201601f1916810167ffffffffffffffff81118282101715612a9157612a91612bfb565b604052919050565b600067ffffffffffffffff821115612ab357612ab3612bfb565b50601f01601f191660200190565b60008219821115612ad457612ad4612bb9565b500190565b600082612ae857612ae8612bcf565b500490565b6000816000190483118215151615612b0757612b07612bb9565b500290565b600082821015612b1e57612b1e612bb9565b500390565b60005b83811015612b3e578181015183820152602001612b26565b83811115610c0e5750506000910152565b600181811c90821680612b6357607f821691505b60208210811415612b8457634e487b7160e01b600052602260045260246000fd5b50919050565b6000600019821415612b9e57612b9e612bb9565b5060010190565b600082612bb457612bb4612bcf565b500690565b634e487b7160e01b600052601160045260246000fd5b634e487b7160e01b600052601260045260246000fd5b634e487b7160e01b600052603260045260246000fd5b634e487b7160e01b600052604160045260246000fd5b6001600160a01b03811681146112f857600080fd5b6001600160e01b0319811681146112f857600080fdfe4142434445464748494a4b4c4d4e4f505152535455565758595a6162636465666768696a6b6c6d6e6f707172737475767778797a303132333435363738392b2f3c7376672076696577426f783d2230203020313032342031303234222020786d6c6e733d22687474703a2f2f7777772e77332e6f72672f323030302f737667223e0a3c646566733e0a203c66696c7465722069643d2266312220783d22302220793d2230222077696474683d223230302522206865696768743d2232303025223e0a20203c66654f666673657420726573756c743d226f66664f75742220696e3d22536f75726365416c706861222064783d223234222064793d22333222202f3e0a20203c6665476175737369616e426c757220726573756c743d22626c75724f75742220696e3d226f66664f75742220737464446576696174696f6e3d22313622202f3e0a20203c6665426c656e6420696e3d22536f75726365477261706869632220696e323d22626c75724f757422206d6f64653d226e6f726d616c22202f3e0a203c2f66696c7465723e0a3c672069643d2262617365223e0a203c7265637420783d22302220793d2230222077696474683d2235313222206865696768743d22353132222066696c6c3d222334323835463422202f3e0a203c7265637420783d22302220793d22353132222077696474683d2235313222206865696768743d22353132222066696c6c3d222333344138353322202f3e0a203c7265637420783d223531322220793d2230222077696474683d2235313222206865696768743d22353132222066696c6c3d222346424243303522202f3e0a203c7265637420783d223531322220793d22353132222077696474683d2235313222206865696768743d22353132222066696c6c3d2223454134333335222f3e0a3c2f673ea26469706673582212200becd5ff0d264ea2972325906a9726c53431a7eac4381664fa3ebb8a5bd8add564736f6c6343000806003354686973206973206f6e65206f6620656666747320746f2063726561746520284f6e2d436861696e2041737365742053746f7265295b68747470733a2f2f617373657473746f72652e7774665d2e",
  "linkReferences": {},
  "deployedLinkReferences": {}
}