{
  "_format": "hh-sol-artifact-1",
  "contractName": "MessageBox",
  "sourceName": "contracts/MessageBox.sol",
  "abi": [
    {
      "inputs": [],
      "stateMutability": "nonpayable",
      "type": "constructor"
    },
    {
      "anonymous": false,
      "inputs": [
        {
          "indexed": false,
          "internalType": "uint256",
          "name": "roomId",
          "type": "uint256"
        },
        {
          "indexed": false,
          "internalType": "uint256",
          "name": "_index",
          "type": "uint256"
        }
      ],
      "name": "MessageReceived",
      "type": "event"
    },
    {
      "anonymous": false,
      "inputs": [
        {
          "indexed": true,
          "internalType": "address",
          "name": "previousOwner",
          "type": "address"
        },
        {
          "indexed": true,
          "internalType": "address",
          "name": "newOwner",
          "type": "address"
        }
      ],
      "name": "OwnershipTransferred",
      "type": "event"
    },
    {
      "anonymous": false,
      "inputs": [
        {
          "indexed": false,
          "internalType": "uint256",
          "name": "roomId",
          "type": "uint256"
        }
      ],
      "name": "RoomCreated",
      "type": "event"
    },
    {
      "inputs": [
        {
          "internalType": "uint256",
          "name": "_roomId",
          "type": "uint256"
        }
      ],
      "name": "getMembers",
      "outputs": [
        {
          "internalType": "address[]",
          "name": "",
          "type": "address[]"
        }
      ],
      "stateMutability": "view",
      "type": "function"
    },
    {
      "inputs": [
        {
          "internalType": "uint256",
          "name": "_roomId",
          "type": "uint256"
        },
        {
          "internalType": "uint256",
          "name": "_messageIndex",
          "type": "uint256"
        }
      ],
      "name": "getMessage",
      "outputs": [
        {
          "components": [
            {
              "internalType": "address",
              "name": "sender",
              "type": "address"
            },
            {
              "internalType": "address",
              "name": "receiver",
              "type": "address"
            },
            {
              "internalType": "string",
              "name": "text",
              "type": "string"
            },
            {
              "internalType": "string",
              "name": "imageURL",
              "type": "string"
            },
            {
              "internalType": "address",
              "name": "app",
              "type": "address"
            },
            {
              "internalType": "uint256",
              "name": "messageId",
              "type": "uint256"
            },
            {
              "internalType": "uint256",
              "name": "timestamp",
              "type": "uint256"
            },
            {
              "internalType": "bool",
              "name": "isRead",
              "type": "bool"
            },
            {
              "internalType": "bool",
              "name": "isDeleted",
              "type": "bool"
            }
          ],
          "internalType": "struct IMessageBox.Message",
          "name": "",
          "type": "tuple"
        }
      ],
      "stateMutability": "view",
      "type": "function"
    },
    {
      "inputs": [
        {
          "internalType": "uint256",
          "name": "_roomIndex",
          "type": "uint256"
        }
      ],
      "name": "getRoomId",
      "outputs": [
        {
          "internalType": "uint256",
          "name": "",
          "type": "uint256"
        }
      ],
      "stateMutability": "view",
      "type": "function"
    },
    {
      "inputs": [
        {
          "internalType": "uint256",
          "name": "_roomId",
          "type": "uint256"
        }
      ],
      "name": "messageCount",
      "outputs": [
        {
          "internalType": "uint256",
          "name": "",
          "type": "uint256"
        }
      ],
      "stateMutability": "view",
      "type": "function"
    },
    {
      "inputs": [],
      "name": "owner",
      "outputs": [
        {
          "internalType": "address",
          "name": "",
          "type": "address"
        }
      ],
      "stateMutability": "view",
      "type": "function"
    },
    {
      "inputs": [],
      "name": "renounceOwnership",
      "outputs": [],
      "stateMutability": "nonpayable",
      "type": "function"
    },
    {
      "inputs": [],
      "name": "roomCount",
      "outputs": [
        {
          "internalType": "uint256",
          "name": "",
          "type": "uint256"
        }
      ],
      "stateMutability": "view",
      "type": "function"
    },
    {
      "inputs": [
        {
          "internalType": "address",
          "name": "_to",
          "type": "address"
        },
        {
          "internalType": "string",
          "name": "_text",
          "type": "string"
        },
        {
          "internalType": "string",
          "name": "_imageURL",
          "type": "string"
        },
        {
          "internalType": "address",
          "name": "_app",
          "type": "address"
        },
        {
          "internalType": "uint256",
          "name": "_messageId",
          "type": "uint256"
        }
      ],
      "name": "sendAppMessage",
      "outputs": [
        {
          "internalType": "uint256",
          "name": "",
          "type": "uint256"
        }
      ],
      "stateMutability": "nonpayable",
      "type": "function"
    },
    {
      "inputs": [
        {
          "internalType": "address",
          "name": "_to",
          "type": "address"
        },
        {
          "internalType": "string",
          "name": "_text",
          "type": "string"
        }
      ],
      "name": "sendMessage",
      "outputs": [
        {
          "internalType": "uint256",
          "name": "",
          "type": "uint256"
        }
      ],
      "stateMutability": "nonpayable",
      "type": "function"
    },
    {
      "inputs": [
        {
          "internalType": "address",
          "name": "newOwner",
          "type": "address"
        }
      ],
      "name": "transferOwnership",
      "outputs": [],
      "stateMutability": "nonpayable",
      "type": "function"
    }
  ],
  "bytecode": "0x6080604052600160085534801561001557600080fd5b5061001f33610024565b610074565b600080546001600160a01b038381166001600160a01b0319831681178455604051919092169283917f8be0079c531659141344cd1fd0a4f28419497f9722a3daafe3b4186f6b6457e09190a35050565b6115ab806100836000396000f3fe608060405234801561001057600080fd5b50600436106100be5760003560e01c8063cea97b2911610076578063de6f24bb1161005b578063de6f24bb14610174578063df93a4e314610187578063f2fde38b1461018f57600080fd5b8063cea97b2914610141578063da0632ad1461015457600080fd5b80638da5cb5b116100a75780638da5cb5b146100f3578063c477ecab1461010e578063cc8805ee1461012e57600080fd5b806341b9a2a8146100c3578063715018a6146100e9575b600080fd5b6100d66100d136600461133d565b6101a2565b6040519081526020015b60405180910390f35b6100f16102cf565b005b6000546040516001600160a01b0390911681526020016100e0565b61012161011c36600461133d565b610335565b6040516100e091906113c5565b6100d661013c36600461133d565b6104b4565b6100d661014f3660046112b0565b61057f565b610167610162366004611356565b61060b565b6040516100e09190611412565b6100d6610182366004611262565b610947565b6100d66109ba565b6100f161019d366004611247565b610a1d565b6000336101f65760405162461bcd60e51b815260206004820181905260248201527f6d657373616765436f756e743a206d697373696e67206d73672e73656e64657260448201526064015b60405180910390fd5b600082118015610207575060085482105b6102535760405162461bcd60e51b815260206004820152601d60248201527f6d657373616765436f756e743a20496e76616c6964205f726f6f6d496400000060448201526064016101ed565b600082815260046020908152604080832033845290915290205460ff166102bc5760405162461bcd60e51b815260206004820152601d60248201527f6d657373616765436f756e743a206e6f2061636365737320726967687400000060448201526064016101ed565b5060009081526002602052604090205490565b6000546001600160a01b031633146103295760405162461bcd60e51b815260206004820181905260248201527f4f776e61626c653a2063616c6c6572206973206e6f7420746865206f776e657260448201526064016101ed565b6103336000610aff565b565b6060336103845760405162461bcd60e51b815260206004820152601e60248201527f6765744d656d626572733a206d697373696e67206d73672e73656e646572000060448201526064016101ed565b600082118015610395575060085482105b6103e15760405162461bcd60e51b815260206004820152601b60248201527f6765744d656d626572733a20496e76616c6964205f726f6f6d4964000000000060448201526064016101ed565b600082815260046020908152604080832033845290915290205460ff1661044a5760405162461bcd60e51b815260206004820152601b60248201527f6765744d656d626572733a206e6f20616363657373207269676874000000000060448201526064016101ed565b600082815260036020908152604091829020805483518184028101840190945280845290918301828280156104a857602002820191906000526020600020905b81546001600160a01b0316815260019091019060200180831161048a575b50505050509050919050565b6000336105035760405162461bcd60e51b815260206004820152601d60248201527f676574526f6f6d49643a206d697373696e67206d73672e73656e64657200000060448201526064016101ed565b3360009081526007602052604090205482106105615760405162461bcd60e51b815260206004820152601d60248201527f676574526f6f6d49643a20696e76616c6964205f726f6f6d496e64657800000060448201526064016101ed565b50336000908152600660209081526040808320938352929052205490565b6000336105f45760405162461bcd60e51b815260206004820152602260248201527f73656e644170704d6573736167653a206d697373696e67206d73672e73656e6460448201527f657200000000000000000000000000000000000000000000000000000000000060648201526084016101ed565b6106018686868686610b5c565b9695505050505050565b61067960405180610120016040528060006001600160a01b0316815260200160006001600160a01b03168152602001606081526020016060815260200160006001600160a01b0316815260200160008152602001600081526020016000151581526020016000151581525090565b336106c65760405162461bcd60e51b815260206004820152601e60248201527f6765744d6573736167653a206d697373696e67206d73672e73656e646572000060448201526064016101ed565b6000831180156106d7575060085483105b6107235760405162461bcd60e51b815260206004820152601b60248201527f6765744d6573736167653a20496e76616c6964205f726f6f6d4964000000000060448201526064016101ed565b600083815260046020908152604080832033845290915290205460ff1661078c5760405162461bcd60e51b815260206004820152601b60248201527f6765744d6573736167653a206e6f20616363657373207269676874000000000060448201526064016101ed565b600083815260016020818152604080842086855282529283902083516101208101855281546001600160a01b039081168252938201549093169183019190915260028101805492939192918401916107e3906114f3565b80601f016020809104026020016040519081016040528092919081815260200182805461080f906114f3565b801561085c5780601f106108315761010080835404028352916020019161085c565b820191906000526020600020905b81548152906001019060200180831161083f57829003601f168201915b50505050508152602001600382018054610875906114f3565b80601f01602080910402602001604051908101604052809291908181526020018280546108a1906114f3565b80156108ee5780601f106108c3576101008083540402835291602001916108ee565b820191906000526020600020905b8154815290600101906020018083116108d157829003601f168201915b505050918352505060048201546001600160a01b03166020820152600582015460408201526006820154606082015260079091015460ff8082161515608084015261010090910416151560a09091015290505b92915050565b6000336109965760405162461bcd60e51b815260206004820152601f60248201527f73656e644d6573736167653a206d697373696e67206d73672e73656e6465720060448201526064016101ed565b6109b3838360405180602001604052806000815250600080610b5c565b9392505050565b600033610a095760405162461bcd60e51b815260206004820152601d60248201527f726f6f6d436f756e743a206d697373696e67206d73672e73656e64657200000060448201526064016101ed565b503360009081526007602052604090205490565b6000546001600160a01b03163314610a775760405162461bcd60e51b815260206004820181905260248201527f4f776e61626c653a2063616c6c6572206973206e6f7420746865206f776e657260448201526064016101ed565b6001600160a01b038116610af35760405162461bcd60e51b815260206004820152602660248201527f4f776e61626c653a206e6577206f776e657220697320746865207a65726f206160448201527f646472657373000000000000000000000000000000000000000000000000000060648201526084016101ed565b610afc81610aff565b50565b600080546001600160a01b0383811673ffffffffffffffffffffffffffffffffffffffff19831681178455604051919092169283917f8be0079c531659141344cd1fd0a4f28419497f9722a3daafe3b4186f6b6457e09190a35050565b6040805161012081018252600060e082018190526101008201819052338083526001600160a01b03898116602085015293830188905260608301879052928516608083015260a082018490524260c0830152919082610bbb838a610c12565b90506000610bc98284610e1a565b60408051848152602081018390529192507fbca47e1d916a14bd0baddd22cb153d210a317edbee52cdbb4e070f4445c717d1910160405180910390a19998505050505050505050565b60006001600160a01b038316610c8f5760405162461bcd60e51b8152602060048201526024808201527f5f6a6f696e526f6f6d3a20696e76616c6964206164647265737320666f72205f60448201527f66726f6d0000000000000000000000000000000000000000000000000000000060648201526084016101ed565b6001600160a01b038216610d0b5760405162461bcd60e51b815260206004820152602260248201527f5f6a6f696e526f6f6d3a20696e76616c6964206164647265737320666f72205f60448201527f746f00000000000000000000000000000000000000000000000000000000000060648201526084016101ed565b6001600160a01b038083166000908152600560209081526040808320938716835292905220548015610d3e579050610941565b60088054906000610d4e8361152e565b909155506001600160a01b038086166000818152600560208181526040808420958a16845294815284832086905590815283822092825291909152208190559050610d998482610f5c565b50610da48382610f5c565b506040805180820182526001600160a01b03808716825285166020808301919091526000848152600390915291909120610ddf9160026110a3565b506040518181527ff0cdcb414607ea068cd88e5e8c412a4e8d98bf75a67e0566830055371acda12c9060200160405180910390a19392505050565b6000808311610e2857600080fd5b6000838152600260208181526040808420546001808452828620828752845294829020875181546001600160a01b0391821673ffffffffffffffffffffffffffffffffffffffff1991821617835589860151978301805498909216971696909617909555908601518051919487949093610ea793918501920190611115565b5060608201518051610ec3916003840191602090910190611115565b50608082015160048201805473ffffffffffffffffffffffffffffffffffffffff19166001600160a01b0390921691909117905560a0820151600582015560c0820151600682015560e0820151600790910180546101009384015161ffff1990911692151561ff00191692909217911515909202179055610f458160016114db565b600085815260026020526040902055905092915050565b60006001600160a01b038316610fb45760405162461bcd60e51b815260206004820152601a60248201527f5f6a6f696e526f6f6d3a20696e76616c6964206164647265737300000000000060448201526064016101ed565b6001600160a01b03831660009081526007602090815260408083205460068352818420818552909252909120541561102e5760405162461bcd60e51b815260206004820152601960248201527f5f6a6f696e526f6f6d3a20616c7265616479206a6f696e65640000000000000060448201526064016101ed565b6001600160a01b0384166000908152600660209081526040808320848452909152902083905561105f8160016114db565b6001600160a01b038516600081815260076020908152604080832094909455868252600481528382209282529190915220805460ff19166001179055905092915050565b828054828255906000526020600020908101928215611105579160200282015b82811115611105578251825473ffffffffffffffffffffffffffffffffffffffff19166001600160a01b039091161782556020909201916001909101906110c3565b50611111929150611189565b5090565b828054611121906114f3565b90600052602060002090601f0160209004810192826111435760008555611105565b82601f1061115c57805160ff1916838001178555611105565b82800160010185558215611105579182015b8281111561110557825182559160200191906001019061116e565b5b80821115611111576000815560010161118a565b80356001600160a01b03811681146111b557600080fd5b919050565b600082601f8301126111cb57600080fd5b813567ffffffffffffffff808211156111e6576111e661155f565b604051601f8301601f19908116603f0116810190828211818310171561120e5761120e61155f565b8160405283815286602085880101111561122757600080fd5b836020870160208301376000602085830101528094505050505092915050565b60006020828403121561125957600080fd5b6109b38261119e565b6000806040838503121561127557600080fd5b61127e8361119e565b9150602083013567ffffffffffffffff81111561129a57600080fd5b6112a6858286016111ba565b9150509250929050565b600080600080600060a086880312156112c857600080fd5b6112d18661119e565b9450602086013567ffffffffffffffff808211156112ee57600080fd5b6112fa89838a016111ba565b9550604088013591508082111561131057600080fd5b5061131d888289016111ba565b93505061132c6060870161119e565b949793965091946080013592915050565b60006020828403121561134f57600080fd5b5035919050565b6000806040838503121561136957600080fd5b50508035926020909101359150565b6000815180845260005b8181101561139e57602081850181015186830182015201611382565b818111156113b0576000602083870101525b50601f01601f19169290920160200192915050565b6020808252825182820181905260009190848201906040850190845b818110156114065783516001600160a01b0316835292840192918401916001016113e1565b50909695505050505050565b6020815261142c6020820183516001600160a01b03169052565b6000602083015161144860408401826001600160a01b03169052565b506040830151610120806060850152611465610140850183611378565b91506060850151601f198584030160808601526114828382611378565b925050608085015161149f60a08601826001600160a01b03169052565b5060a085015160c085015260c085015160e085015260e08501516101006114c98187018315159052565b90950151151593019290925250919050565b600082198211156114ee576114ee611549565b500190565b600181811c9082168061150757607f821691505b6020821081141561152857634e487b7160e01b600052602260045260246000fd5b50919050565b600060001982141561154257611542611549565b5060010190565b634e487b7160e01b600052601160045260246000fd5b634e487b7160e01b600052604160045260246000fdfea2646970667358221220782c92625ab3979dfd3f35a460187cf7685580a4422d2e29684bf0365e15a94d64736f6c63430008060033",
  "linkReferences": {},
  "deployedLinkReferences": {}
}