{
  "_format": "hh-sol-artifact-1",
  "contractName": "MessageBox",
  "sourceName": "contracts/MessageBox.sol",
  "abi": [
    {
      "inputs": [],
      "stateMutability": "nonpayable",
      "type": "constructor"
    },
    {
      "anonymous": false,
      "inputs": [
        {
          "indexed": false,
          "internalType": "address",
          "name": "_from",
          "type": "address"
        },
        {
          "indexed": false,
          "internalType": "address",
          "name": "_to",
          "type": "address"
        },
        {
          "indexed": false,
          "internalType": "uint256",
          "name": "_index",
          "type": "uint256"
        }
      ],
      "name": "MessageReceived",
      "type": "event"
    },
    {
      "anonymous": false,
      "inputs": [
        {
          "indexed": true,
          "internalType": "address",
          "name": "previousOwner",
          "type": "address"
        },
        {
          "indexed": true,
          "internalType": "address",
          "name": "newOwner",
          "type": "address"
        }
      ],
      "name": "OwnershipTransferred",
      "type": "event"
    },
    {
      "inputs": [
        {
          "internalType": "uint256",
          "name": "_roomIndex",
          "type": "uint256"
        },
        {
          "internalType": "uint256",
          "name": "_messageIndex",
          "type": "uint256"
        }
      ],
      "name": "getMessage",
      "outputs": [
        {
          "components": [
            {
              "internalType": "address",
              "name": "sender",
              "type": "address"
            },
            {
              "internalType": "address",
              "name": "receiver",
              "type": "address"
            },
            {
              "internalType": "string",
              "name": "text",
              "type": "string"
            },
            {
              "internalType": "string",
              "name": "imageURL",
              "type": "string"
            },
            {
              "internalType": "address",
              "name": "app",
              "type": "address"
            },
            {
              "internalType": "uint256",
              "name": "messageId",
              "type": "uint256"
            },
            {
              "internalType": "uint256",
              "name": "timestamp",
              "type": "uint256"
            },
            {
              "internalType": "bool",
              "name": "isRead",
              "type": "bool"
            },
            {
              "internalType": "bool",
              "name": "isDeleted",
              "type": "bool"
            }
          ],
          "internalType": "struct IMessageBox.Message",
          "name": "",
          "type": "tuple"
        }
      ],
      "stateMutability": "view",
      "type": "function"
    },
    {
      "inputs": [
        {
          "internalType": "uint256",
          "name": "_roomIndex",
          "type": "uint256"
        }
      ],
      "name": "messageCount",
      "outputs": [
        {
          "internalType": "uint256",
          "name": "",
          "type": "uint256"
        }
      ],
      "stateMutability": "view",
      "type": "function"
    },
    {
      "inputs": [],
      "name": "owner",
      "outputs": [
        {
          "internalType": "address",
          "name": "",
          "type": "address"
        }
      ],
      "stateMutability": "view",
      "type": "function"
    },
    {
      "inputs": [],
      "name": "renounceOwnership",
      "outputs": [],
      "stateMutability": "nonpayable",
      "type": "function"
    },
    {
      "inputs": [],
      "name": "roomCount",
      "outputs": [
        {
          "internalType": "uint256",
          "name": "",
          "type": "uint256"
        }
      ],
      "stateMutability": "view",
      "type": "function"
    },
    {
      "inputs": [
        {
          "internalType": "address",
          "name": "_to",
          "type": "address"
        },
        {
          "internalType": "string",
          "name": "_text",
          "type": "string"
        },
        {
          "internalType": "string",
          "name": "_imageURL",
          "type": "string"
        },
        {
          "internalType": "address",
          "name": "_app",
          "type": "address"
        },
        {
          "internalType": "uint256",
          "name": "_messageId",
          "type": "uint256"
        }
      ],
      "name": "sendAppMessage",
      "outputs": [
        {
          "internalType": "uint256",
          "name": "",
          "type": "uint256"
        }
      ],
      "stateMutability": "nonpayable",
      "type": "function"
    },
    {
      "inputs": [
        {
          "internalType": "address",
          "name": "_to",
          "type": "address"
        },
        {
          "internalType": "string",
          "name": "_text",
          "type": "string"
        }
      ],
      "name": "sendMessage",
      "outputs": [
        {
          "internalType": "uint256",
          "name": "",
          "type": "uint256"
        }
      ],
      "stateMutability": "nonpayable",
      "type": "function"
    },
    {
      "inputs": [
        {
          "internalType": "address",
          "name": "newOwner",
          "type": "address"
        }
      ],
      "name": "transferOwnership",
      "outputs": [],
      "stateMutability": "nonpayable",
      "type": "function"
    }
  ],
  "bytecode": "0x6080604052600160075534801561001557600080fd5b5061001f33610024565b610074565b600080546001600160a01b038381166001600160a01b0319831681178455604051919092169283917f8be0079c531659141344cd1fd0a4f28419497f9722a3daafe3b4186f6b6457e09190a35050565b610ffa806100836000396000f3fe608060405234801561001057600080fd5b50600436106100885760003560e01c8063da0632ad1161005b578063da0632ad146100eb578063de6f24bb1461010b578063df93a4e31461011e578063f2fde38b1461012657600080fd5b806341b9a2a81461008d578063715018a6146100b35780638da5cb5b146100bd578063cea97b29146100d8575b600080fd5b6100a061009b366004610dd9565b610139565b6040519081526020015b60405180910390f35b6100bb610216565b005b6000546040516001600160a01b0390911681526020016100aa565b6100a06100e6366004610d4c565b61027c565b6100fe6100f9366004610df2565b610295565b6040516100aa9190610e61565b6100a0610119366004610cfe565b610534565b6100a061055a565b6100bb610134366004610ce3565b6105bd565b60003361018d5760405162461bcd60e51b815260206004820152601d60248201527f726f6f6d436f756e743a206d697373696e67206d73672e73656e64657200000060448201526064015b60405180910390fd5b600082815260036020908152604080832033845290915290205460ff166101b357600080fd5b600082116102035760405162461bcd60e51b815260206004820152601d60248201527f726f6f6d436f756e743a20496e76616c6964205f726f6f6d496e6465780000006044820152606401610184565b5060009081526002602052604090205490565b6000546001600160a01b031633146102705760405162461bcd60e51b815260206004820181905260248201527f4f776e61626c653a2063616c6c6572206973206e6f7420746865206f776e65726044820152606401610184565b61027a600061069f565b565b600061028b86868686866106fc565b9695505050505050565b61030360405180610120016040528060006001600160a01b0316815260200160006001600160a01b03168152602001606081526020016060815260200160006001600160a01b0316815260200160008152602001600081526020016000151581526020016000151581525090565b600083815260036020908152604080832033845290915290205460ff1661032957600080fd5b600083116103795760405162461bcd60e51b815260206004820152601e60248201527f6765744d6573736167653a20696e76616c6964205f726f6f6d496e64657800006044820152606401610184565b600083815260016020818152604080842086855282529283902083516101208101855281546001600160a01b039081168252938201549093169183019190915260028101805492939192918401916103d090610f42565b80601f01602080910402602001604051908101604052809291908181526020018280546103fc90610f42565b80156104495780601f1061041e57610100808354040283529160200191610449565b820191906000526020600020905b81548152906001019060200180831161042c57829003601f168201915b5050505050815260200160038201805461046290610f42565b80601f016020809104026020016040519081016040528092919081815260200182805461048e90610f42565b80156104db5780601f106104b0576101008083540402835291602001916104db565b820191906000526020600020905b8154815290600101906020018083116104be57829003601f168201915b505050918352505060048201546001600160a01b03166020820152600582015460408201526006820154606082015260079091015460ff8082161515608084015261010090910416151560a09091015290505b92915050565b60006105538383604051806020016040528060008152506000806106fc565b9392505050565b6000336105a95760405162461bcd60e51b815260206004820152601d60248201527f726f6f6d436f756e743a206d697373696e67206d73672e73656e6465720000006044820152606401610184565b503360009081526006602052604090205490565b6000546001600160a01b031633146106175760405162461bcd60e51b815260206004820181905260248201527f4f776e61626c653a2063616c6c6572206973206e6f7420746865206f776e65726044820152606401610184565b6001600160a01b0381166106935760405162461bcd60e51b815260206004820152602660248201527f4f776e61626c653a206e6577206f776e657220697320746865207a65726f206160448201527f64647265737300000000000000000000000000000000000000000000000000006064820152608401610184565b61069c8161069f565b50565b600080546001600160a01b0383811673ffffffffffffffffffffffffffffffffffffffff19831681178455604051919092169283917f8be0079c531659141344cd1fd0a4f28419497f9722a3daafe3b4186f6b6457e09190a35050565b6040805161012081018252600060e082018190526101008201819052338083526001600160a01b03898116602085015293830188905260608301879052928516608083015260a082018490524260c083015291829061075b90896107c1565b90506000610769828461095b565b604080513381526001600160a01b038c1660208201529081018290529091507fe355996e2996142ac85dc67216bbb3fc359221d123a11cdfeee89bc680e997089060600160405180910390a198975050505050505050565b60006001600160a01b03831661083f5760405162461bcd60e51b815260206004820152602260248201527f5f6a6f696e526f6f6d3a20696e76616c6964206164647265737320666f72205f60448201527f746f0000000000000000000000000000000000000000000000000000000000006064820152608401610184565b6001600160a01b0382166108ba5760405162461bcd60e51b8152602060048201526024808201527f5f6a6f696e526f6f6d3a20696e76616c6964206164647265737320666f72205f60448201527f66726f6d000000000000000000000000000000000000000000000000000000006064820152608401610184565b6001600160a01b0380841660009081526004602090815260408083209386168352929052205480156108ed57905061052e565b600780549060006108fd83610f7d565b909155506001600160a01b038086166000818152600460208181526040808420958a168452948152848320869055908152838220928252919091522081905590506109488482610a9d565b506109538382610a9d565b509392505050565b600080831161096957600080fd5b6000838152600260208181526040808420546001808452828620828752845294829020875181546001600160a01b0391821673ffffffffffffffffffffffffffffffffffffffff19918216178355898601519783018054989092169716969096179095559086015180519194879490936109e893918501920190610ba1565b5060608201518051610a04916003840191602090910190610ba1565b50608082015160048201805473ffffffffffffffffffffffffffffffffffffffff19166001600160a01b0390921691909117905560a0820151600582015560c0820151600682015560e0820151600790910180546101009384015161ffff1990911692151561ff00191692909217911515909202179055610a86816001610f2a565b600085815260026020526040902055905092915050565b60006001600160a01b038316610af55760405162461bcd60e51b815260206004820152601a60248201527f5f6a6f696e526f6f6d3a20696e76616c696420616464726573730000000000006044820152606401610184565b6001600160a01b038316600090815260066020908152604080832054600583528184208185529092529091205415610b2c57600080fd5b6001600160a01b03841660009081526005602090815260408083208484529091529020839055610b5d816001610f2a565b6001600160a01b038516600081815260066020908152604080832094909455868252600381528382209282529190915220805460ff19166001179055905092915050565b828054610bad90610f42565b90600052602060002090601f016020900481019282610bcf5760008555610c15565b82601f10610be857805160ff1916838001178555610c15565b82800160010185558215610c15579182015b82811115610c15578251825591602001919060010190610bfa565b50610c21929150610c25565b5090565b5b80821115610c215760008155600101610c26565b80356001600160a01b0381168114610c5157600080fd5b919050565b600082601f830112610c6757600080fd5b813567ffffffffffffffff80821115610c8257610c82610fae565b604051601f8301601f19908116603f01168101908282118183101715610caa57610caa610fae565b81604052838152866020858801011115610cc357600080fd5b836020870160208301376000602085830101528094505050505092915050565b600060208284031215610cf557600080fd5b61055382610c3a565b60008060408385031215610d1157600080fd5b610d1a83610c3a565b9150602083013567ffffffffffffffff811115610d3657600080fd5b610d4285828601610c56565b9150509250929050565b600080600080600060a08688031215610d6457600080fd5b610d6d86610c3a565b9450602086013567ffffffffffffffff80821115610d8a57600080fd5b610d9689838a01610c56565b95506040880135915080821115610dac57600080fd5b50610db988828901610c56565b935050610dc860608701610c3a565b949793965091946080013592915050565b600060208284031215610deb57600080fd5b5035919050565b60008060408385031215610e0557600080fd5b50508035926020909101359150565b6000815180845260005b81811015610e3a57602081850181015186830182015201610e1e565b81811115610e4c576000602083870101525b50601f01601f19169290920160200192915050565b60208152610e7b6020820183516001600160a01b03169052565b60006020830151610e9760408401826001600160a01b03169052565b506040830151610120806060850152610eb4610140850183610e14565b91506060850151601f19858403016080860152610ed18382610e14565b9250506080850151610eee60a08601826001600160a01b03169052565b5060a085015160c085015260c085015160e085015260e0850151610100610f188187018315159052565b90950151151593019290925250919050565b60008219821115610f3d57610f3d610f98565b500190565b600181811c90821680610f5657607f821691505b60208210811415610f7757634e487b7160e01b600052602260045260246000fd5b50919050565b6000600019821415610f9157610f91610f98565b5060010190565b634e487b7160e01b600052601160045260246000fd5b634e487b7160e01b600052604160045260246000fdfea2646970667358221220df2039aca7dcd0f6e5702383bd75d9c954ea6d2467ef4a1d7f05c1dcc6f006e264736f6c63430008060033",
  "linkReferences": {},
  "deployedLinkReferences": {}
}