{
  "_format": "hh-sol-artifact-1",
  "contractName": "MessageBox",
  "sourceName": "contracts/MessageBox.sol",
  "abi": [
    {
      "inputs": [],
      "stateMutability": "nonpayable",
      "type": "constructor"
    },
    {
      "anonymous": false,
      "inputs": [
        {
          "indexed": false,
          "internalType": "address",
          "name": "_sender",
          "type": "address"
        },
        {
          "indexed": false,
          "internalType": "uint256",
          "name": "roomId",
          "type": "uint256"
        },
        {
          "indexed": false,
          "internalType": "uint256",
          "name": "_messageIndex",
          "type": "uint256"
        }
      ],
      "name": "MessageReceived",
      "type": "event"
    },
    {
      "anonymous": false,
      "inputs": [
        {
          "indexed": true,
          "internalType": "address",
          "name": "previousOwner",
          "type": "address"
        },
        {
          "indexed": true,
          "internalType": "address",
          "name": "newOwner",
          "type": "address"
        }
      ],
      "name": "OwnershipTransferred",
      "type": "event"
    },
    {
      "anonymous": false,
      "inputs": [
        {
          "indexed": false,
          "internalType": "uint256",
          "name": "roomId",
          "type": "uint256"
        }
      ],
      "name": "RoomCreated",
      "type": "event"
    },
    {
      "inputs": [
        {
          "internalType": "uint256",
          "name": "_roomId",
          "type": "uint256"
        }
      ],
      "name": "getMembers",
      "outputs": [
        {
          "internalType": "address[]",
          "name": "",
          "type": "address[]"
        }
      ],
      "stateMutability": "view",
      "type": "function"
    },
    {
      "inputs": [
        {
          "internalType": "uint256",
          "name": "_roomId",
          "type": "uint256"
        },
        {
          "internalType": "uint256",
          "name": "_messageIndex",
          "type": "uint256"
        }
      ],
      "name": "getMessage",
      "outputs": [
        {
          "components": [
            {
              "internalType": "address",
              "name": "sender",
              "type": "address"
            },
            {
              "internalType": "string",
              "name": "text",
              "type": "string"
            },
            {
              "internalType": "string",
              "name": "imageURL",
              "type": "string"
            },
            {
              "internalType": "address",
              "name": "app",
              "type": "address"
            },
            {
              "internalType": "uint256",
              "name": "messageId",
              "type": "uint256"
            },
            {
              "internalType": "uint256",
              "name": "timestamp",
              "type": "uint256"
            }
          ],
          "internalType": "struct IMessageBox.Message",
          "name": "",
          "type": "tuple"
        }
      ],
      "stateMutability": "view",
      "type": "function"
    },
    {
      "inputs": [
        {
          "internalType": "uint256",
          "name": "_roomIndex",
          "type": "uint256"
        }
      ],
      "name": "getRoomId",
      "outputs": [
        {
          "internalType": "uint256",
          "name": "",
          "type": "uint256"
        }
      ],
      "stateMutability": "view",
      "type": "function"
    },
    {
      "inputs": [
        {
          "internalType": "uint256",
          "name": "_roomId",
          "type": "uint256"
        }
      ],
      "name": "getRoomInfo",
      "outputs": [
        {
          "components": [
            {
              "internalType": "uint256",
              "name": "messageCount",
              "type": "uint256"
            },
            {
              "internalType": "uint256",
              "name": "timestamp",
              "type": "uint256"
            },
            {
              "internalType": "address[]",
              "name": "members",
              "type": "address[]"
            }
          ],
          "internalType": "struct IMessageBox.RoomInfo",
          "name": "",
          "type": "tuple"
        }
      ],
      "stateMutability": "view",
      "type": "function"
    },
    {
      "inputs": [
        {
          "internalType": "uint256",
          "name": "_roomId",
          "type": "uint256"
        }
      ],
      "name": "messageCount",
      "outputs": [
        {
          "internalType": "uint256",
          "name": "",
          "type": "uint256"
        }
      ],
      "stateMutability": "view",
      "type": "function"
    },
    {
      "inputs": [],
      "name": "owner",
      "outputs": [
        {
          "internalType": "address",
          "name": "",
          "type": "address"
        }
      ],
      "stateMutability": "view",
      "type": "function"
    },
    {
      "inputs": [],
      "name": "renounceOwnership",
      "outputs": [],
      "stateMutability": "nonpayable",
      "type": "function"
    },
    {
      "inputs": [],
      "name": "roomCount",
      "outputs": [
        {
          "internalType": "uint256",
          "name": "",
          "type": "uint256"
        }
      ],
      "stateMutability": "view",
      "type": "function"
    },
    {
      "inputs": [
        {
          "internalType": "address",
          "name": "_to",
          "type": "address"
        },
        {
          "internalType": "string",
          "name": "_text",
          "type": "string"
        },
        {
          "internalType": "string",
          "name": "_imageURL",
          "type": "string"
        },
        {
          "internalType": "address",
          "name": "_app",
          "type": "address"
        },
        {
          "internalType": "uint256",
          "name": "_messageId",
          "type": "uint256"
        }
      ],
      "name": "sendAppMessage",
      "outputs": [
        {
          "internalType": "uint256",
          "name": "",
          "type": "uint256"
        }
      ],
      "stateMutability": "nonpayable",
      "type": "function"
    },
    {
      "inputs": [
        {
          "internalType": "uint256",
          "name": "_roomId",
          "type": "uint256"
        },
        {
          "internalType": "string",
          "name": "_text",
          "type": "string"
        },
        {
          "internalType": "string",
          "name": "_imageURL",
          "type": "string"
        },
        {
          "internalType": "address",
          "name": "_app",
          "type": "address"
        },
        {
          "internalType": "uint256",
          "name": "_messageId",
          "type": "uint256"
        }
      ],
      "name": "sendAppMessageToRoom",
      "outputs": [
        {
          "internalType": "uint256",
          "name": "",
          "type": "uint256"
        }
      ],
      "stateMutability": "nonpayable",
      "type": "function"
    },
    {
      "inputs": [
        {
          "internalType": "address",
          "name": "_to",
          "type": "address"
        },
        {
          "internalType": "string",
          "name": "_text",
          "type": "string"
        }
      ],
      "name": "sendMessage",
      "outputs": [
        {
          "internalType": "uint256",
          "name": "",
          "type": "uint256"
        }
      ],
      "stateMutability": "nonpayable",
      "type": "function"
    },
    {
      "inputs": [
        {
          "internalType": "uint256",
          "name": "_roomId",
          "type": "uint256"
        },
        {
          "internalType": "string",
          "name": "_text",
          "type": "string"
        }
      ],
      "name": "sendMessageToRoom",
      "outputs": [
        {
          "internalType": "uint256",
          "name": "",
          "type": "uint256"
        }
      ],
      "stateMutability": "nonpayable",
      "type": "function"
    },
    {
      "inputs": [
        {
          "internalType": "address",
          "name": "newOwner",
          "type": "address"
        }
      ],
      "name": "transferOwnership",
      "outputs": [],
      "stateMutability": "nonpayable",
      "type": "function"
    }
  ],
  "bytecode": "0x6080604052600160085534801561001557600080fd5b5061001f33610024565b610074565b600080546001600160a01b038381166001600160a01b0319831681178455604051919092169283917f8be0079c531659141344cd1fd0a4f28419497f9722a3daafe3b4186f6b6457e09190a35050565b611bf9806100836000396000f3fe608060405234801561001057600080fd5b50600436106100df5760003560e01c8063cc8805ee1161008c578063de6f24bb11610066578063de6f24bb146101c8578063df93a4e3146101db578063f204fc35146101e3578063f2fde38b146101f657600080fd5b8063cc8805ee14610182578063cea97b2914610195578063da0632ad146101a857600080fd5b8063715018a6116100bd578063715018a61461013d5780638da5cb5b14610147578063c477ecab1461016257600080fd5b8063089fe32f146100e457806341b9a2a81461010a5780636790d2b51461011d575b600080fd5b6100f76100f236600461190a565b610209565b6040519081526020015b60405180910390f35b6100f76101183660046118f1565b6103c7565b61013061012b3660046118f1565b610500565b6040516101019190611aa9565b610145610727565b005b6000546040516001600160a01b039091168152602001610101565b6101756101703660046118f1565b61078d565b60405161010191906119e1565b6100f76101903660046118f1565b610919565b6100f76101a3366004611864565b6109e4565b6101bb6101b6366004611972565b610a64565b6040516101019190611a2e565b6100f76101d6366004611816565b610d54565b6100f7610dd4565b6100f76101f136600461193b565b610e37565b6101456102043660046117f4565b610fd8565b600082336102695760405162461bcd60e51b815260206004820152602260248201527f6f6e6c79526f6f6d4d656d6265723a206d697373696e67206d73672e73656e6460448201526132b960f11b60648201526084015b60405180910390fd5b60008111801561027a575060085481105b6102c65760405162461bcd60e51b815260206004820152601f60248201527f6f6e6c79526f6f6d4d656d6265723a20496e76616c6964205f726f6f6d4964006044820152606401610260565b600081815260046020908152604080832033845290915290205460ff1661032f5760405162461bcd60e51b815260206004820152601f60248201527f6f6e6c79526f6f6d4d656d6265723a206e6f20616363657373207269676874006044820152606401610260565b336103a25760405162461bcd60e51b815260206004820152602560248201527f73656e644d657373616765546f526f6f6d3a206d697373696e67206d73672e7360448201527f656e6465720000000000000000000000000000000000000000000000000000006064820152608401610260565b6103bf8484604051806020016040528060008152506000806110ba565b949350505050565b600081336104225760405162461bcd60e51b815260206004820152602260248201527f6f6e6c79526f6f6d4d656d6265723a206d697373696e67206d73672e73656e6460448201526132b960f11b6064820152608401610260565b600081118015610433575060085481105b61047f5760405162461bcd60e51b815260206004820152601f60248201527f6f6e6c79526f6f6d4d656d6265723a20496e76616c6964205f726f6f6d4964006044820152606401610260565b600081815260046020908152604080832033845290915290205460ff166104e85760405162461bcd60e51b815260206004820152601f60248201527f6f6e6c79526f6f6d4d656d6265723a206e6f20616363657373207269676874006044820152606401610260565b60008381526002602052604090205491505b50919050565b61052460405180606001604052806000815260200160008152602001606081525090565b813361057d5760405162461bcd60e51b815260206004820152602260248201527f6f6e6c79526f6f6d4d656d6265723a206d697373696e67206d73672e73656e6460448201526132b960f11b6064820152608401610260565b60008111801561058e575060085481105b6105da5760405162461bcd60e51b815260206004820152601f60248201527f6f6e6c79526f6f6d4d656d6265723a20496e76616c6964205f726f6f6d4964006044820152606401610260565b600081815260046020908152604080832033845290915290205460ff166106435760405162461bcd60e51b815260206004820152601f60248201527f6f6e6c79526f6f6d4d656d6265723a206e6f20616363657373207269676874006044820152606401610260565b61066760405180606001604052806000815260200160008152602001606081525090565b60008481526002602052604090205480825261068257600080fd5b6000848152600160208190526040822083519092916106a091611b30565b8152602080820192909252604090810160009081206005015484840152868152600383528190208054825181850281018501909352808352919290919083018282801561071657602002820191906000526020600020905b81546001600160a01b031681526001909101906020018083116106f8575b505050505060408201529392505050565b6000546001600160a01b031633146107815760405162461bcd60e51b815260206004820181905260248201527f4f776e61626c653a2063616c6c6572206973206e6f7420746865206f776e65726044820152606401610260565b61078b600061118f565b565b606081336107e85760405162461bcd60e51b815260206004820152602260248201527f6f6e6c79526f6f6d4d656d6265723a206d697373696e67206d73672e73656e6460448201526132b960f11b6064820152608401610260565b6000811180156107f9575060085481105b6108455760405162461bcd60e51b815260206004820152601f60248201527f6f6e6c79526f6f6d4d656d6265723a20496e76616c6964205f726f6f6d4964006044820152606401610260565b600081815260046020908152604080832033845290915290205460ff166108ae5760405162461bcd60e51b815260206004820152601f60248201527f6f6e6c79526f6f6d4d656d6265723a206e6f20616363657373207269676874006044820152606401610260565b6000838152600360209081526040918290208054835181840281018401909452808452909183018282801561090c57602002820191906000526020600020905b81546001600160a01b031681526001909101906020018083116108ee575b5050505050915050919050565b6000336109685760405162461bcd60e51b815260206004820152601d60248201527f676574526f6f6d49643a206d697373696e67206d73672e73656e6465720000006044820152606401610260565b3360009081526007602052604090205482106109c65760405162461bcd60e51b815260206004820152601d60248201527f676574526f6f6d49643a20696e76616c6964205f726f6f6d496e6465780000006044820152606401610260565b50336000908152600660209081526040808320938352929052205490565b600033610a3e5760405162461bcd60e51b815260206004820152602260248201527f73656e644170704d6573736167653a206d697373696e67206d73672e73656e6460448201526132b960f11b6064820152608401610260565b6000610a4a33886111ec565b9050610a5981878787876110ba565b979650505050505050565b610aaf6040518060c0016040528060006001600160a01b03168152602001606081526020016060815260200160006001600160a01b0316815260200160008152602001600081525090565b8233610b085760405162461bcd60e51b815260206004820152602260248201527f6f6e6c79526f6f6d4d656d6265723a206d697373696e67206d73672e73656e6460448201526132b960f11b6064820152608401610260565b600081118015610b19575060085481105b610b655760405162461bcd60e51b815260206004820152601f60248201527f6f6e6c79526f6f6d4d656d6265723a20496e76616c6964205f726f6f6d4964006044820152606401610260565b600081815260046020908152604080832033845290915290205460ff16610bce5760405162461bcd60e51b815260206004820152601f60248201527f6f6e6c79526f6f6d4d656d6265723a206e6f20616363657373207269676874006044820152606401610260565b6000848152600160208181526040808420878552825292839020835160c0810190945280546001600160a01b03168452918201805491840191610c1090611b47565b80601f0160208091040260200160405190810160405280929190818152602001828054610c3c90611b47565b8015610c895780601f10610c5e57610100808354040283529160200191610c89565b820191906000526020600020905b815481529060010190602001808311610c6c57829003601f168201915b50505050508152602001600282018054610ca290611b47565b80601f0160208091040260200160405190810160405280929190818152602001828054610cce90611b47565b8015610d1b5780601f10610cf057610100808354040283529160200191610d1b565b820191906000526020600020905b815481529060010190602001808311610cfe57829003601f168201915b505050918352505060038201546001600160a01b0316602082015260048201546040820152600590910154606090910152949350505050565b600033610da35760405162461bcd60e51b815260206004820152601f60248201527f73656e644d6573736167653a206d697373696e67206d73672e73656e646572006044820152606401610260565b6000610daf33856111ec565b90506103bf8184604051806020016040528060008152506000806110ba565b92915050565b600033610e235760405162461bcd60e51b815260206004820152601d60248201527f726f6f6d436f756e743a206d697373696e67206d73672e73656e6465720000006044820152606401610260565b503360009081526007602052604090205490565b60008533610e925760405162461bcd60e51b815260206004820152602260248201527f6f6e6c79526f6f6d4d656d6265723a206d697373696e67206d73672e73656e6460448201526132b960f11b6064820152608401610260565b600081118015610ea3575060085481105b610eef5760405162461bcd60e51b815260206004820152601f60248201527f6f6e6c79526f6f6d4d656d6265723a20496e76616c6964205f726f6f6d4964006044820152606401610260565b600081815260046020908152604080832033845290915290205460ff16610f585760405162461bcd60e51b815260206004820152601f60248201527f6f6e6c79526f6f6d4d656d6265723a206e6f20616363657373207269676874006044820152606401610260565b33610fcb5760405162461bcd60e51b815260206004820152602860248201527f73656e644170704d657373616765546f526f6f6d3a206d697373696e67206d7360448201527f672e73656e6465720000000000000000000000000000000000000000000000006064820152608401610260565b610a5987878787876110ba565b6000546001600160a01b031633146110325760405162461bcd60e51b815260206004820181905260248201527f4f776e61626c653a2063616c6c6572206973206e6f7420746865206f776e65726044820152606401610260565b6001600160a01b0381166110ae5760405162461bcd60e51b815260206004820152602660248201527f4f776e61626c653a206e6577206f776e657220697320746865207a65726f206160448201527f64647265737300000000000000000000000000000000000000000000000000006064820152608401610260565b6110b78161118f565b50565b60006111076040518060c0016040528060006001600160a01b03168152602001606081526020016060815260200160006001600160a01b0316815260200160008152602001600081525090565b33815260208101869052604081018590526001600160a01b0384166060820152608081018390524260a08201526000611140888361140e565b60408051338152602081018b90529081018290529091507fa0710dea945adf87839bda230ecbb319aa3ed42ea2c02ae9dd696b4dc3d5762e9060600160405180910390a1979650505050505050565b600080546001600160a01b0383811673ffffffffffffffffffffffffffffffffffffffff19831681178455604051919092169283917f8be0079c531659141344cd1fd0a4f28419497f9722a3daafe3b4186f6b6457e09190a35050565b60006001600160a01b0383166112695760405162461bcd60e51b8152602060048201526024808201527f5f6a6f696e526f6f6d3a20696e76616c6964206164647265737320666f72205f60448201527f66726f6d000000000000000000000000000000000000000000000000000000006064820152608401610260565b6001600160a01b0382166112e55760405162461bcd60e51b815260206004820152602260248201527f5f6a6f696e526f6f6d3a20696e76616c6964206164647265737320666f72205f60448201527f746f0000000000000000000000000000000000000000000000000000000000006064820152608401610260565b6001600160a01b038083166000908152600560209081526040808320938716835292905220548015611318579050610dce565b6008805490600061132883611b7c565b909155506001600160a01b038086166000818152600560208181526040808420958a168452948152848320869055908152838220928252919091522081905590506113738482611509565b50826001600160a01b0316846001600160a01b031614611399576113978382611509565b505b6040805180820182526001600160a01b038087168252851660208083019190915260008481526003909152919091206113d3916002611650565b506040518181527ff0cdcb414607ea068cd88e5e8c412a4e8d98bf75a67e0566830055371acda12c9060200160405180910390a19392505050565b600080831161141c57600080fd5b60008381526002602090815260408083205460018084528285208286528452919093208551815473ffffffffffffffffffffffffffffffffffffffff19166001600160a01b0390911617815585830151805187949293611481939085019201906116c2565b506040820151805161149d9160028401916020909101906116c2565b50606082015160038201805473ffffffffffffffffffffffffffffffffffffffff19166001600160a01b039092169190911790556080820151600482015560a0909101516005909101556114f2816001611b18565b600085815260026020526040902055905092915050565b60006001600160a01b0383166115615760405162461bcd60e51b815260206004820152601a60248201527f5f6a6f696e526f6f6d3a20696e76616c696420616464726573730000000000006044820152606401610260565b6001600160a01b0383166000908152600760209081526040808320546006835281842081855290925290912054156115db5760405162461bcd60e51b815260206004820152601960248201527f5f6a6f696e526f6f6d3a20616c7265616479206a6f696e6564000000000000006044820152606401610260565b6001600160a01b0384166000908152600660209081526040808320848452909152902083905561160c816001611b18565b6001600160a01b038516600081815260076020908152604080832094909455868252600481528382209282529190915220805460ff19166001179055905092915050565b8280548282559060005260206000209081019282156116b2579160200282015b828111156116b2578251825473ffffffffffffffffffffffffffffffffffffffff19166001600160a01b03909116178255602090920191600190910190611670565b506116be929150611736565b5090565b8280546116ce90611b47565b90600052602060002090601f0160209004810192826116f057600085556116b2565b82601f1061170957805160ff19168380011785556116b2565b828001600101855582156116b2579182015b828111156116b257825182559160200191906001019061171b565b5b808211156116be5760008155600101611737565b80356001600160a01b038116811461176257600080fd5b919050565b600082601f83011261177857600080fd5b813567ffffffffffffffff8082111561179357611793611bad565b604051601f8301601f19908116603f011681019082821181831017156117bb576117bb611bad565b816040528381528660208588010111156117d457600080fd5b836020870160208301376000602085830101528094505050505092915050565b60006020828403121561180657600080fd5b61180f8261174b565b9392505050565b6000806040838503121561182957600080fd5b6118328361174b565b9150602083013567ffffffffffffffff81111561184e57600080fd5b61185a85828601611767565b9150509250929050565b600080600080600060a0868803121561187c57600080fd5b6118858661174b565b9450602086013567ffffffffffffffff808211156118a257600080fd5b6118ae89838a01611767565b955060408801359150808211156118c457600080fd5b506118d188828901611767565b9350506118e06060870161174b565b949793965091946080013592915050565b60006020828403121561190357600080fd5b5035919050565b6000806040838503121561191d57600080fd5b82359150602083013567ffffffffffffffff81111561184e57600080fd5b600080600080600060a0868803121561195357600080fd5b85359450602086013567ffffffffffffffff808211156118a257600080fd5b6000806040838503121561198557600080fd5b50508035926020909101359150565b6000815180845260005b818110156119ba5760208185018101518683018201520161199e565b818111156119cc576000602083870101525b50601f01601f19169290920160200192915050565b6020808252825182820181905260009190848201906040850190845b81811015611a225783516001600160a01b0316835292840192918401916001016119fd565b50909695505050505050565b6020815260006001600160a01b03808451166020840152602084015160c06040850152611a5e60e0850182611994565b90506040850151601f19858303016060860152611a7b8282611994565b915050816060860151166080850152608085015160a085015260a085015160c0850152809250505092915050565b6000602080835260808301845182850152818501516040850152604085015160608086015281815180845260a0870191508483019350600092505b80831015611b0d5783516001600160a01b03168252928401926001929092019190840190611ae4565b509695505050505050565b60008219821115611b2b57611b2b611b97565b500190565b600082821015611b4257611b42611b97565b500390565b600181811c90821680611b5b57607f821691505b602082108114156104fa57634e487b7160e01b600052602260045260246000fd5b6000600019821415611b9057611b90611b97565b5060010190565b634e487b7160e01b600052601160045260246000fd5b634e487b7160e01b600052604160045260246000fdfea26469706673582212204aabdc2178ea679cd774176d4d686aa135c117a02dd224174fd303f629a7e26864736f6c63430008060033",
  "linkReferences": {},
  "deployedLinkReferences": {}
}