{
  "_format": "hh-sol-artifact-1",
  "contractName": "MessageBox",
  "sourceName": "contracts/MessageBox.sol",
  "abi": [
    {
      "inputs": [],
      "stateMutability": "nonpayable",
      "type": "constructor"
    },
    {
      "anonymous": false,
      "inputs": [
        {
          "indexed": false,
          "internalType": "uint256",
          "name": "roomId",
          "type": "uint256"
        },
        {
          "indexed": false,
          "internalType": "uint256",
          "name": "_index",
          "type": "uint256"
        }
      ],
      "name": "MessageReceived",
      "type": "event"
    },
    {
      "anonymous": false,
      "inputs": [
        {
          "indexed": true,
          "internalType": "address",
          "name": "previousOwner",
          "type": "address"
        },
        {
          "indexed": true,
          "internalType": "address",
          "name": "newOwner",
          "type": "address"
        }
      ],
      "name": "OwnershipTransferred",
      "type": "event"
    },
    {
      "anonymous": false,
      "inputs": [
        {
          "indexed": false,
          "internalType": "uint256",
          "name": "roomId",
          "type": "uint256"
        }
      ],
      "name": "RoomCreated",
      "type": "event"
    },
    {
      "inputs": [
        {
          "internalType": "uint256",
          "name": "_roomIndex",
          "type": "uint256"
        }
      ],
      "name": "getMembers",
      "outputs": [
        {
          "internalType": "address[]",
          "name": "",
          "type": "address[]"
        }
      ],
      "stateMutability": "view",
      "type": "function"
    },
    {
      "inputs": [
        {
          "internalType": "uint256",
          "name": "_roomIndex",
          "type": "uint256"
        },
        {
          "internalType": "uint256",
          "name": "_messageIndex",
          "type": "uint256"
        }
      ],
      "name": "getMessage",
      "outputs": [
        {
          "components": [
            {
              "internalType": "address",
              "name": "sender",
              "type": "address"
            },
            {
              "internalType": "address",
              "name": "receiver",
              "type": "address"
            },
            {
              "internalType": "string",
              "name": "text",
              "type": "string"
            },
            {
              "internalType": "string",
              "name": "imageURL",
              "type": "string"
            },
            {
              "internalType": "address",
              "name": "app",
              "type": "address"
            },
            {
              "internalType": "uint256",
              "name": "messageId",
              "type": "uint256"
            },
            {
              "internalType": "uint256",
              "name": "timestamp",
              "type": "uint256"
            },
            {
              "internalType": "bool",
              "name": "isRead",
              "type": "bool"
            },
            {
              "internalType": "bool",
              "name": "isDeleted",
              "type": "bool"
            }
          ],
          "internalType": "struct IMessageBox.Message",
          "name": "",
          "type": "tuple"
        }
      ],
      "stateMutability": "view",
      "type": "function"
    },
    {
      "inputs": [
        {
          "internalType": "uint256",
          "name": "_roomIndex",
          "type": "uint256"
        }
      ],
      "name": "messageCount",
      "outputs": [
        {
          "internalType": "uint256",
          "name": "",
          "type": "uint256"
        }
      ],
      "stateMutability": "view",
      "type": "function"
    },
    {
      "inputs": [],
      "name": "owner",
      "outputs": [
        {
          "internalType": "address",
          "name": "",
          "type": "address"
        }
      ],
      "stateMutability": "view",
      "type": "function"
    },
    {
      "inputs": [],
      "name": "renounceOwnership",
      "outputs": [],
      "stateMutability": "nonpayable",
      "type": "function"
    },
    {
      "inputs": [],
      "name": "roomCount",
      "outputs": [
        {
          "internalType": "uint256",
          "name": "",
          "type": "uint256"
        }
      ],
      "stateMutability": "view",
      "type": "function"
    },
    {
      "inputs": [
        {
          "internalType": "address",
          "name": "_to",
          "type": "address"
        },
        {
          "internalType": "string",
          "name": "_text",
          "type": "string"
        },
        {
          "internalType": "string",
          "name": "_imageURL",
          "type": "string"
        },
        {
          "internalType": "address",
          "name": "_app",
          "type": "address"
        },
        {
          "internalType": "uint256",
          "name": "_messageId",
          "type": "uint256"
        }
      ],
      "name": "sendAppMessage",
      "outputs": [
        {
          "internalType": "uint256",
          "name": "",
          "type": "uint256"
        }
      ],
      "stateMutability": "nonpayable",
      "type": "function"
    },
    {
      "inputs": [
        {
          "internalType": "address",
          "name": "_to",
          "type": "address"
        },
        {
          "internalType": "string",
          "name": "_text",
          "type": "string"
        }
      ],
      "name": "sendMessage",
      "outputs": [
        {
          "internalType": "uint256",
          "name": "",
          "type": "uint256"
        }
      ],
      "stateMutability": "nonpayable",
      "type": "function"
    },
    {
      "inputs": [
        {
          "internalType": "address",
          "name": "newOwner",
          "type": "address"
        }
      ],
      "name": "transferOwnership",
      "outputs": [],
      "stateMutability": "nonpayable",
      "type": "function"
    }
  ],
  "bytecode": "0x6080604052600160085534801561001557600080fd5b5061001f33610024565b610074565b600080546001600160a01b038381166001600160a01b0319831681178455604051919092169283917f8be0079c531659141344cd1fd0a4f28419497f9722a3daafe3b4186f6b6457e09190a35050565b611531806100836000396000f3fe608060405234801561001057600080fd5b50600436106100a35760003560e01c8063cea97b2911610076578063de6f24bb1161005b578063de6f24bb14610146578063df93a4e314610159578063f2fde38b1461016157600080fd5b8063cea97b2914610113578063da0632ad1461012657600080fd5b806341b9a2a8146100a8578063715018a6146100ce5780638da5cb5b146100d8578063c477ecab146100f3575b600080fd5b6100bb6100b63660046112c3565b610174565b6040519081526020015b60405180910390f35b6100d661030c565b005b6000546040516001600160a01b0390911681526020016100c5565b6101066101013660046112c3565b610372565b6040516100c5919061134b565b6100bb610121366004611236565b61055b565b6101396101343660046112dc565b610574565b6040516100c59190611398565b6100bb6101543660046111e8565b61091a565b6100bb610940565b6100d661016f3660046111cd565b6109a3565b6000336101c85760405162461bcd60e51b815260206004820181905260248201527f6d657373616765436f756e743a206d697373696e67206d73672e73656e64657260448201526064015b60405180910390fd5b3360009081526007602052604090205482106102265760405162461bcd60e51b815260206004820152601b60248201527f6d657373616765436f756e743a20696e76616c696420696e646578000000000060448201526064016101bf565b3360009081526006602090815260408083208584529091529020548061028e5760405162461bcd60e51b815260206004820181905260248201527f6d657373616765436f756e743a20496e76616c6964205f726f6f6d496e64657860448201526064016101bf565b600081815260046020908152604080832033845290915290205460ff166102f75760405162461bcd60e51b815260206004820152601d60248201527f6d657373616765436f756e743a206e6f2061636365737320726967687400000060448201526064016101bf565b60009081526002602052604090205492915050565b6000546001600160a01b031633146103665760405162461bcd60e51b815260206004820181905260248201527f4f776e61626c653a2063616c6c6572206973206e6f7420746865206f776e657260448201526064016101bf565b6103706000610a85565b565b6060336103c15760405162461bcd60e51b815260206004820181905260248201527f6d657373616765436f756e743a206d697373696e67206d73672e73656e64657260448201526064016101bf565b33600090815260076020526040902054821061041f5760405162461bcd60e51b815260206004820152601b60248201527f6d657373616765436f756e743a20696e76616c696420696e646578000000000060448201526064016101bf565b336000908152600660209081526040808320858452909152902054806104875760405162461bcd60e51b815260206004820181905260248201527f6d657373616765436f756e743a20496e76616c6964205f726f6f6d496e64657860448201526064016101bf565b600081815260046020908152604080832033845290915290205460ff166104f05760405162461bcd60e51b815260206004820152601d60248201527f6d657373616765436f756e743a206e6f2061636365737320726967687400000060448201526064016101bf565b6000818152600360209081526040918290208054835181840281018401909452808452909183018282801561054e57602002820191906000526020600020905b81546001600160a01b03168152600190910190602001808311610530575b5050505050915050919050565b600061056a8686868686610ae2565b9695505050505050565b6105e260405180610120016040528060006001600160a01b0316815260200160006001600160a01b03168152602001606081526020016060815260200160006001600160a01b0316815260200160008152602001600081526020016000151581526020016000151581525090565b3361062f5760405162461bcd60e51b815260206004820152601d60248201527f726f6f6d436f756e743a206d697373696e67206d73672e73656e64657200000060448201526064016101bf565b33600090815260076020526040902054831061068d5760405162461bcd60e51b815260206004820152601960248201527f6765744d6573736167653a20696e76616c696420696e6465780000000000000060448201526064016101bf565b336000908152600660209081526040808320868452909152902054806106f55760405162461bcd60e51b815260206004820152601e60248201527f6765744d6573736167653a20496e76616c6964205f726f6f6d496e646578000060448201526064016101bf565b600081815260046020908152604080832033845290915290205460ff1661075e5760405162461bcd60e51b815260206004820152601b60248201527f6765744d6573736167653a206e6f20616363657373207269676874000000000060448201526064016101bf565b600081815260016020818152604080842087855282529283902083516101208101855281546001600160a01b039081168252938201549093169183019190915260028101805492939192918401916107b590611479565b80601f01602080910402602001604051908101604052809291908181526020018280546107e190611479565b801561082e5780601f106108035761010080835404028352916020019161082e565b820191906000526020600020905b81548152906001019060200180831161081157829003601f168201915b5050505050815260200160038201805461084790611479565b80601f016020809104026020016040519081016040528092919081815260200182805461087390611479565b80156108c05780601f10610895576101008083540402835291602001916108c0565b820191906000526020600020905b8154815290600101906020018083116108a357829003601f168201915b505050918352505060048201546001600160a01b03166020820152600582015460408201526006820154606082015260079091015460ff8082161515608084015261010090910416151560a0909101529150505b92915050565b6000610939838360405180602001604052806000815250600080610ae2565b9392505050565b60003361098f5760405162461bcd60e51b815260206004820152601d60248201527f726f6f6d436f756e743a206d697373696e67206d73672e73656e64657200000060448201526064016101bf565b503360009081526007602052604090205490565b6000546001600160a01b031633146109fd5760405162461bcd60e51b815260206004820181905260248201527f4f776e61626c653a2063616c6c6572206973206e6f7420746865206f776e657260448201526064016101bf565b6001600160a01b038116610a795760405162461bcd60e51b815260206004820152602660248201527f4f776e61626c653a206e6577206f776e657220697320746865207a65726f206160448201527f646472657373000000000000000000000000000000000000000000000000000060648201526084016101bf565b610a8281610a85565b50565b600080546001600160a01b0383811673ffffffffffffffffffffffffffffffffffffffff19831681178455604051919092169283917f8be0079c531659141344cd1fd0a4f28419497f9722a3daafe3b4186f6b6457e09190a35050565b6040805161012081018252600060e082018190526101008201819052338083526001600160a01b03898116602085015293830188905260608301879052928516608083015260a082018490524260c0830152919082610b41838a610b98565b90506000610b4f8284610da0565b60408051848152602081018390529192507fbca47e1d916a14bd0baddd22cb153d210a317edbee52cdbb4e070f4445c717d1910160405180910390a19998505050505050505050565b60006001600160a01b038316610c155760405162461bcd60e51b8152602060048201526024808201527f5f6a6f696e526f6f6d3a20696e76616c6964206164647265737320666f72205f60448201527f66726f6d0000000000000000000000000000000000000000000000000000000060648201526084016101bf565b6001600160a01b038216610c915760405162461bcd60e51b815260206004820152602260248201527f5f6a6f696e526f6f6d3a20696e76616c6964206164647265737320666f72205f60448201527f746f00000000000000000000000000000000000000000000000000000000000060648201526084016101bf565b6001600160a01b038083166000908152600560209081526040808320938716835292905220548015610cc4579050610914565b60088054906000610cd4836114b4565b909155506001600160a01b038086166000818152600560208181526040808420958a16845294815284832086905590815283822092825291909152208190559050610d1f8482610ee2565b50610d2a8382610ee2565b506040805180820182526001600160a01b03808716825285166020808301919091526000848152600390915291909120610d65916002611029565b506040518181527ff0cdcb414607ea068cd88e5e8c412a4e8d98bf75a67e0566830055371acda12c9060200160405180910390a19392505050565b6000808311610dae57600080fd5b6000838152600260208181526040808420546001808452828620828752845294829020875181546001600160a01b0391821673ffffffffffffffffffffffffffffffffffffffff1991821617835589860151978301805498909216971696909617909555908601518051919487949093610e2d9391850192019061109b565b5060608201518051610e4991600384019160209091019061109b565b50608082015160048201805473ffffffffffffffffffffffffffffffffffffffff19166001600160a01b0390921691909117905560a0820151600582015560c0820151600682015560e0820151600790910180546101009384015161ffff1990911692151561ff00191692909217911515909202179055610ecb816001611461565b600085815260026020526040902055905092915050565b60006001600160a01b038316610f3a5760405162461bcd60e51b815260206004820152601a60248201527f5f6a6f696e526f6f6d3a20696e76616c6964206164647265737300000000000060448201526064016101bf565b6001600160a01b038316600090815260076020908152604080832054600683528184208185529092529091205415610fb45760405162461bcd60e51b815260206004820152601960248201527f5f6a6f696e526f6f6d3a20616c7265616479206a6f696e65640000000000000060448201526064016101bf565b6001600160a01b03841660009081526006602090815260408083208484529091529020839055610fe5816001611461565b6001600160a01b038516600081815260076020908152604080832094909455868252600481528382209282529190915220805460ff19166001179055905092915050565b82805482825590600052602060002090810192821561108b579160200282015b8281111561108b578251825473ffffffffffffffffffffffffffffffffffffffff19166001600160a01b03909116178255602090920191600190910190611049565b5061109792915061110f565b5090565b8280546110a790611479565b90600052602060002090601f0160209004810192826110c9576000855561108b565b82601f106110e257805160ff191683800117855561108b565b8280016001018555821561108b579182015b8281111561108b5782518255916020019190600101906110f4565b5b808211156110975760008155600101611110565b80356001600160a01b038116811461113b57600080fd5b919050565b600082601f83011261115157600080fd5b813567ffffffffffffffff8082111561116c5761116c6114e5565b604051601f8301601f19908116603f01168101908282118183101715611194576111946114e5565b816040528381528660208588010111156111ad57600080fd5b836020870160208301376000602085830101528094505050505092915050565b6000602082840312156111df57600080fd5b61093982611124565b600080604083850312156111fb57600080fd5b61120483611124565b9150602083013567ffffffffffffffff81111561122057600080fd5b61122c85828601611140565b9150509250929050565b600080600080600060a0868803121561124e57600080fd5b61125786611124565b9450602086013567ffffffffffffffff8082111561127457600080fd5b61128089838a01611140565b9550604088013591508082111561129657600080fd5b506112a388828901611140565b9350506112b260608701611124565b949793965091946080013592915050565b6000602082840312156112d557600080fd5b5035919050565b600080604083850312156112ef57600080fd5b50508035926020909101359150565b6000815180845260005b8181101561132457602081850181015186830182015201611308565b81811115611336576000602083870101525b50601f01601f19169290920160200192915050565b6020808252825182820181905260009190848201906040850190845b8181101561138c5783516001600160a01b031683529284019291840191600101611367565b50909695505050505050565b602081526113b26020820183516001600160a01b03169052565b600060208301516113ce60408401826001600160a01b03169052565b5060408301516101208060608501526113eb6101408501836112fe565b91506060850151601f1985840301608086015261140883826112fe565b925050608085015161142560a08601826001600160a01b03169052565b5060a085015160c085015260c085015160e085015260e085015161010061144f8187018315159052565b90950151151593019290925250919050565b60008219821115611474576114746114cf565b500190565b600181811c9082168061148d57607f821691505b602082108114156114ae57634e487b7160e01b600052602260045260246000fd5b50919050565b60006000198214156114c8576114c86114cf565b5060010190565b634e487b7160e01b600052601160045260246000fd5b634e487b7160e01b600052604160045260246000fdfea2646970667358221220c0ab930189c23b18a9c7892912c5cd9bceb006e7eafdc04a6e01212c9b0e7bd264736f6c63430008060033",
  "linkReferences": {},
  "deployedLinkReferences": {}
}