{
  "_format": "hh-sol-artifact-1",
  "contractName": "MessageBox",
  "sourceName": "contracts/MessageBox.sol",
  "abi": [
    {
      "inputs": [],
      "stateMutability": "nonpayable",
      "type": "constructor"
    },
    {
      "anonymous": false,
      "inputs": [
        {
          "indexed": false,
          "internalType": "address",
          "name": "_from",
          "type": "address"
        },
        {
          "indexed": false,
          "internalType": "address",
          "name": "_to",
          "type": "address"
        },
        {
          "indexed": false,
          "internalType": "uint256",
          "name": "_index",
          "type": "uint256"
        }
      ],
      "name": "MessageReceived",
      "type": "event"
    },
    {
      "anonymous": false,
      "inputs": [
        {
          "indexed": true,
          "internalType": "address",
          "name": "previousOwner",
          "type": "address"
        },
        {
          "indexed": true,
          "internalType": "address",
          "name": "newOwner",
          "type": "address"
        }
      ],
      "name": "OwnershipTransferred",
      "type": "event"
    },
    {
      "inputs": [
        {
          "internalType": "uint256",
          "name": "_index",
          "type": "uint256"
        }
      ],
      "name": "getMembers",
      "outputs": [
        {
          "internalType": "address[]",
          "name": "",
          "type": "address[]"
        }
      ],
      "stateMutability": "view",
      "type": "function"
    },
    {
      "inputs": [
        {
          "internalType": "uint256",
          "name": "_index",
          "type": "uint256"
        },
        {
          "internalType": "uint256",
          "name": "_messageIndex",
          "type": "uint256"
        }
      ],
      "name": "getMessage",
      "outputs": [
        {
          "components": [
            {
              "internalType": "address",
              "name": "sender",
              "type": "address"
            },
            {
              "internalType": "address",
              "name": "receiver",
              "type": "address"
            },
            {
              "internalType": "string",
              "name": "text",
              "type": "string"
            },
            {
              "internalType": "string",
              "name": "imageURL",
              "type": "string"
            },
            {
              "internalType": "address",
              "name": "app",
              "type": "address"
            },
            {
              "internalType": "uint256",
              "name": "messageId",
              "type": "uint256"
            },
            {
              "internalType": "uint256",
              "name": "timestamp",
              "type": "uint256"
            },
            {
              "internalType": "bool",
              "name": "isRead",
              "type": "bool"
            },
            {
              "internalType": "bool",
              "name": "isDeleted",
              "type": "bool"
            }
          ],
          "internalType": "struct IMessageBox.Message",
          "name": "",
          "type": "tuple"
        }
      ],
      "stateMutability": "view",
      "type": "function"
    },
    {
      "inputs": [
        {
          "internalType": "uint256",
          "name": "_index",
          "type": "uint256"
        }
      ],
      "name": "messageCount",
      "outputs": [
        {
          "internalType": "uint256",
          "name": "",
          "type": "uint256"
        }
      ],
      "stateMutability": "view",
      "type": "function"
    },
    {
      "inputs": [],
      "name": "owner",
      "outputs": [
        {
          "internalType": "address",
          "name": "",
          "type": "address"
        }
      ],
      "stateMutability": "view",
      "type": "function"
    },
    {
      "inputs": [],
      "name": "renounceOwnership",
      "outputs": [],
      "stateMutability": "nonpayable",
      "type": "function"
    },
    {
      "inputs": [],
      "name": "roomCount",
      "outputs": [
        {
          "internalType": "uint256",
          "name": "",
          "type": "uint256"
        }
      ],
      "stateMutability": "view",
      "type": "function"
    },
    {
      "inputs": [
        {
          "internalType": "address",
          "name": "_to",
          "type": "address"
        },
        {
          "internalType": "string",
          "name": "_text",
          "type": "string"
        },
        {
          "internalType": "string",
          "name": "_imageURL",
          "type": "string"
        },
        {
          "internalType": "address",
          "name": "_app",
          "type": "address"
        },
        {
          "internalType": "uint256",
          "name": "_messageId",
          "type": "uint256"
        }
      ],
      "name": "sendAppMessage",
      "outputs": [
        {
          "internalType": "uint256",
          "name": "",
          "type": "uint256"
        }
      ],
      "stateMutability": "nonpayable",
      "type": "function"
    },
    {
      "inputs": [
        {
          "internalType": "address",
          "name": "_to",
          "type": "address"
        },
        {
          "internalType": "string",
          "name": "_text",
          "type": "string"
        }
      ],
      "name": "sendMessage",
      "outputs": [
        {
          "internalType": "uint256",
          "name": "",
          "type": "uint256"
        }
      ],
      "stateMutability": "nonpayable",
      "type": "function"
    },
    {
      "inputs": [
        {
          "internalType": "address",
          "name": "newOwner",
          "type": "address"
        }
      ],
      "name": "transferOwnership",
      "outputs": [],
      "stateMutability": "nonpayable",
      "type": "function"
    }
  ],
  "bytecode": "0x6080604052600160085534801561001557600080fd5b5061001f33610024565b610074565b600080546001600160a01b038381166001600160a01b0319831681178455604051919092169283917f8be0079c531659141344cd1fd0a4f28419497f9722a3daafe3b4186f6b6457e09190a35050565b61153d806100836000396000f3fe608060405234801561001057600080fd5b50600436106100a35760003560e01c8063cea97b2911610076578063de6f24bb1161005b578063de6f24bb14610146578063df93a4e314610159578063f2fde38b1461016157600080fd5b8063cea97b2914610113578063da0632ad1461012657600080fd5b806341b9a2a8146100a8578063715018a6146100ce5780638da5cb5b146100d8578063c477ecab146100f3575b600080fd5b6100bb6100b63660046112cf565b610174565b6040519081526020015b60405180910390f35b6100d661031b565b005b6000546040516001600160a01b0390911681526020016100c5565b6101066101013660046112cf565b610381565b6040516100c59190611357565b6100bb610121366004611242565b610579565b6101396101343660046112e8565b610592565b6040516100c591906113a4565b6100bb6101543660046111f4565b610947565b6100bb61096d565b6100d661016f3660046111d9565b6109d0565b6000336101c85760405162461bcd60e51b815260206004820181905260248201527f6d657373616765436f756e743a206d697373696e67206d73672e73656e64657260448201526064015b60405180910390fd5b3360009081526007602052604090205482106102265760405162461bcd60e51b815260206004820152601b60248201527f6d657373616765436f756e743a20696e76616c696420696e646578000000000060448201526064016101bf565b3360009081526006602090815260408083208584529091529020548015801590610251575060085481105b61029d5760405162461bcd60e51b815260206004820181905260248201527f6d657373616765436f756e743a20496e76616c6964205f726f6f6d496e64657860448201526064016101bf565b600081815260046020908152604080832033845290915290205460ff166103065760405162461bcd60e51b815260206004820152601d60248201527f6d657373616765436f756e743a206e6f2061636365737320726967687400000060448201526064016101bf565b60009081526002602052604090205492915050565b6000546001600160a01b031633146103755760405162461bcd60e51b815260206004820181905260248201527f4f776e61626c653a2063616c6c6572206973206e6f7420746865206f776e657260448201526064016101bf565b61037f6000610ab2565b565b6060336103d05760405162461bcd60e51b815260206004820181905260248201527f6d657373616765436f756e743a206d697373696e67206d73672e73656e64657260448201526064016101bf565b33600090815260076020526040902054821061042e5760405162461bcd60e51b815260206004820152601b60248201527f6d657373616765436f756e743a20696e76616c696420696e646578000000000060448201526064016101bf565b3360009081526006602090815260408083208584529091529020548015801590610459575060085481105b6104a55760405162461bcd60e51b815260206004820181905260248201527f6d657373616765436f756e743a20496e76616c6964205f726f6f6d496e64657860448201526064016101bf565b600081815260046020908152604080832033845290915290205460ff1661050e5760405162461bcd60e51b815260206004820152601d60248201527f6d657373616765436f756e743a206e6f2061636365737320726967687400000060448201526064016101bf565b6000818152600360209081526040918290208054835181840281018401909452808452909183018282801561056c57602002820191906000526020600020905b81546001600160a01b0316815260019091019060200180831161054e575b5050505050915050919050565b60006105888686868686610b0f565b9695505050505050565b61060060405180610120016040528060006001600160a01b0316815260200160006001600160a01b03168152602001606081526020016060815260200160006001600160a01b0316815260200160008152602001600081526020016000151581526020016000151581525090565b3361064d5760405162461bcd60e51b815260206004820152601d60248201527f726f6f6d436f756e743a206d697373696e67206d73672e73656e64657200000060448201526064016101bf565b3360009081526007602052604090205483106106ab5760405162461bcd60e51b815260206004820152601960248201527f6765744d6573736167653a20696e76616c696420696e6465780000000000000060448201526064016101bf565b33600090815260066020908152604080832086845290915290205480158015906106d6575060085481105b6107225760405162461bcd60e51b815260206004820152601e60248201527f6765744d6573736167653a20496e76616c6964205f726f6f6d496e646578000060448201526064016101bf565b600081815260046020908152604080832033845290915290205460ff1661078b5760405162461bcd60e51b815260206004820152601b60248201527f6765744d6573736167653a206e6f20616363657373207269676874000000000060448201526064016101bf565b600081815260016020818152604080842087855282529283902083516101208101855281546001600160a01b039081168252938201549093169183019190915260028101805492939192918401916107e290611485565b80601f016020809104026020016040519081016040528092919081815260200182805461080e90611485565b801561085b5780601f106108305761010080835404028352916020019161085b565b820191906000526020600020905b81548152906001019060200180831161083e57829003601f168201915b5050505050815260200160038201805461087490611485565b80601f01602080910402602001604051908101604052809291908181526020018280546108a090611485565b80156108ed5780601f106108c2576101008083540402835291602001916108ed565b820191906000526020600020905b8154815290600101906020018083116108d057829003601f168201915b505050918352505060048201546001600160a01b03166020820152600582015460408201526006820154606082015260079091015460ff8082161515608084015261010090910416151560a0909101529150505b92915050565b6000610966838360405180602001604052806000815250600080610b0f565b9392505050565b6000336109bc5760405162461bcd60e51b815260206004820152601d60248201527f726f6f6d436f756e743a206d697373696e67206d73672e73656e64657200000060448201526064016101bf565b503360009081526007602052604090205490565b6000546001600160a01b03163314610a2a5760405162461bcd60e51b815260206004820181905260248201527f4f776e61626c653a2063616c6c6572206973206e6f7420746865206f776e657260448201526064016101bf565b6001600160a01b038116610aa65760405162461bcd60e51b815260206004820152602660248201527f4f776e61626c653a206e6577206f776e657220697320746865207a65726f206160448201527f646472657373000000000000000000000000000000000000000000000000000060648201526084016101bf565b610aaf81610ab2565b50565b600080546001600160a01b0383811673ffffffffffffffffffffffffffffffffffffffff19831681178455604051919092169283917f8be0079c531659141344cd1fd0a4f28419497f9722a3daafe3b4186f6b6457e09190a35050565b6040805161012081018252600060e082018190526101008201819052338083526001600160a01b03898116602085015293830188905260608301879052928516608083015260a082018490524260c0830152919082610b6e838a610bd7565b90506000610b7c8284610dac565b604080516001600160a01b0380881682528d1660208201529081018290529091507fe355996e2996142ac85dc67216bbb3fc359221d123a11cdfeee89bc680e997089060600160405180910390a19998505050505050505050565b60006001600160a01b038316610c545760405162461bcd60e51b8152602060048201526024808201527f5f6a6f696e526f6f6d3a20696e76616c6964206164647265737320666f72205f60448201527f66726f6d0000000000000000000000000000000000000000000000000000000060648201526084016101bf565b6001600160a01b038216610cd05760405162461bcd60e51b815260206004820152602260248201527f5f6a6f696e526f6f6d3a20696e76616c6964206164647265737320666f72205f60448201527f746f00000000000000000000000000000000000000000000000000000000000060648201526084016101bf565b6001600160a01b038083166000908152600560209081526040808320938716835292905220548015610d03579050610941565b60088054906000610d13836114c0565b909155506001600160a01b038086166000818152600560208181526040808420958a16845294815284832086905590815283822092825291909152208190559050610d5e8482610eee565b50610d698382610eee565b506040805180820182526001600160a01b03808716825285166020808301919091526000848152600390915291909120610da4916002611035565b509392505050565b6000808311610dba57600080fd5b6000838152600260208181526040808420546001808452828620828752845294829020875181546001600160a01b0391821673ffffffffffffffffffffffffffffffffffffffff1991821617835589860151978301805498909216971696909617909555908601518051919487949093610e39939185019201906110a7565b5060608201518051610e559160038401916020909101906110a7565b50608082015160048201805473ffffffffffffffffffffffffffffffffffffffff19166001600160a01b0390921691909117905560a0820151600582015560c0820151600682015560e0820151600790910180546101009384015161ffff1990911692151561ff00191692909217911515909202179055610ed781600161146d565b600085815260026020526040902055905092915050565b60006001600160a01b038316610f465760405162461bcd60e51b815260206004820152601a60248201527f5f6a6f696e526f6f6d3a20696e76616c6964206164647265737300000000000060448201526064016101bf565b6001600160a01b038316600090815260076020908152604080832054600683528184208185529092529091205415610fc05760405162461bcd60e51b815260206004820152601960248201527f5f6a6f696e526f6f6d3a20616c7265616479206a6f696e65640000000000000060448201526064016101bf565b6001600160a01b03841660009081526006602090815260408083208484529091529020839055610ff181600161146d565b6001600160a01b038516600081815260076020908152604080832094909455868252600481528382209282529190915220805460ff19166001179055905092915050565b828054828255906000526020600020908101928215611097579160200282015b82811115611097578251825473ffffffffffffffffffffffffffffffffffffffff19166001600160a01b03909116178255602090920191600190910190611055565b506110a392915061111b565b5090565b8280546110b390611485565b90600052602060002090601f0160209004810192826110d55760008555611097565b82601f106110ee57805160ff1916838001178555611097565b82800160010185558215611097579182015b82811115611097578251825591602001919060010190611100565b5b808211156110a3576000815560010161111c565b80356001600160a01b038116811461114757600080fd5b919050565b600082601f83011261115d57600080fd5b813567ffffffffffffffff80821115611178576111786114f1565b604051601f8301601f19908116603f011681019082821181831017156111a0576111a06114f1565b816040528381528660208588010111156111b957600080fd5b836020870160208301376000602085830101528094505050505092915050565b6000602082840312156111eb57600080fd5b61096682611130565b6000806040838503121561120757600080fd5b61121083611130565b9150602083013567ffffffffffffffff81111561122c57600080fd5b6112388582860161114c565b9150509250929050565b600080600080600060a0868803121561125a57600080fd5b61126386611130565b9450602086013567ffffffffffffffff8082111561128057600080fd5b61128c89838a0161114c565b955060408801359150808211156112a257600080fd5b506112af8882890161114c565b9350506112be60608701611130565b949793965091946080013592915050565b6000602082840312156112e157600080fd5b5035919050565b600080604083850312156112fb57600080fd5b50508035926020909101359150565b6000815180845260005b8181101561133057602081850181015186830182015201611314565b81811115611342576000602083870101525b50601f01601f19169290920160200192915050565b6020808252825182820181905260009190848201906040850190845b818110156113985783516001600160a01b031683529284019291840191600101611373565b50909695505050505050565b602081526113be6020820183516001600160a01b03169052565b600060208301516113da60408401826001600160a01b03169052565b5060408301516101208060608501526113f761014085018361130a565b91506060850151601f19858403016080860152611414838261130a565b925050608085015161143160a08601826001600160a01b03169052565b5060a085015160c085015260c085015160e085015260e085015161010061145b8187018315159052565b90950151151593019290925250919050565b60008219821115611480576114806114db565b500190565b600181811c9082168061149957607f821691505b602082108114156114ba57634e487b7160e01b600052602260045260246000fd5b50919050565b60006000198214156114d4576114d46114db565b5060010190565b634e487b7160e01b600052601160045260246000fd5b634e487b7160e01b600052604160045260246000fdfea2646970667358221220e01234d34a5248d5693c17196d354bf5b8f9da4beb5a98c05c619e75bb6d71ca64736f6c63430008060033",
  "linkReferences": {},
  "deployedLinkReferences": {}
}