{
  "_format": "hh-sol-artifact-1",
  "contractName": "MessageBox",
  "sourceName": "contracts/MessageBox.sol",
  "abi": [
    {
      "inputs": [],
      "stateMutability": "nonpayable",
      "type": "constructor"
    },
    {
      "anonymous": false,
      "inputs": [
        {
          "indexed": false,
          "internalType": "uint256",
          "name": "roomId",
          "type": "uint256"
        },
        {
          "indexed": false,
          "internalType": "address",
          "name": "_sender",
          "type": "address"
        },
        {
          "indexed": false,
          "internalType": "uint256",
          "name": "_messageIndex",
          "type": "uint256"
        }
      ],
      "name": "MessageReceived",
      "type": "event"
    },
    {
      "anonymous": false,
      "inputs": [
        {
          "indexed": true,
          "internalType": "address",
          "name": "previousOwner",
          "type": "address"
        },
        {
          "indexed": true,
          "internalType": "address",
          "name": "newOwner",
          "type": "address"
        }
      ],
      "name": "OwnershipTransferred",
      "type": "event"
    },
    {
      "anonymous": false,
      "inputs": [
        {
          "indexed": false,
          "internalType": "uint256",
          "name": "roomId",
          "type": "uint256"
        }
      ],
      "name": "RoomCreated",
      "type": "event"
    },
    {
      "inputs": [
        {
          "internalType": "uint256",
          "name": "_roomId",
          "type": "uint256"
        },
        {
          "internalType": "uint256",
          "name": "_messageIndex",
          "type": "uint256"
        }
      ],
      "name": "getMessage",
      "outputs": [
        {
          "components": [
            {
              "internalType": "address",
              "name": "sender",
              "type": "address"
            },
            {
              "internalType": "string",
              "name": "text",
              "type": "string"
            },
            {
              "internalType": "string",
              "name": "imageURL",
              "type": "string"
            },
            {
              "internalType": "address",
              "name": "app",
              "type": "address"
            },
            {
              "internalType": "uint256",
              "name": "messageId",
              "type": "uint256"
            },
            {
              "internalType": "uint256",
              "name": "timestamp",
              "type": "uint256"
            }
          ],
          "internalType": "struct IMessageBox.Message",
          "name": "",
          "type": "tuple"
        }
      ],
      "stateMutability": "view",
      "type": "function"
    },
    {
      "inputs": [
        {
          "internalType": "uint256",
          "name": "_roomIndex",
          "type": "uint256"
        }
      ],
      "name": "getRoomId",
      "outputs": [
        {
          "internalType": "uint256",
          "name": "",
          "type": "uint256"
        }
      ],
      "stateMutability": "view",
      "type": "function"
    },
    {
      "inputs": [
        {
          "internalType": "uint256",
          "name": "_roomId",
          "type": "uint256"
        }
      ],
      "name": "getRoomInfo",
      "outputs": [
        {
          "components": [
            {
              "internalType": "uint256",
              "name": "messageCount",
              "type": "uint256"
            },
            {
              "internalType": "uint256",
              "name": "timestamp",
              "type": "uint256"
            },
            {
              "internalType": "address[]",
              "name": "members",
              "type": "address[]"
            }
          ],
          "internalType": "struct IMessageBox.RoomInfo",
          "name": "",
          "type": "tuple"
        }
      ],
      "stateMutability": "view",
      "type": "function"
    },
    {
      "inputs": [],
      "name": "owner",
      "outputs": [
        {
          "internalType": "address",
          "name": "",
          "type": "address"
        }
      ],
      "stateMutability": "view",
      "type": "function"
    },
    {
      "inputs": [],
      "name": "renounceOwnership",
      "outputs": [],
      "stateMutability": "nonpayable",
      "type": "function"
    },
    {
      "inputs": [],
      "name": "roomCount",
      "outputs": [
        {
          "internalType": "uint256",
          "name": "",
          "type": "uint256"
        }
      ],
      "stateMutability": "view",
      "type": "function"
    },
    {
      "inputs": [
        {
          "internalType": "address",
          "name": "_to",
          "type": "address"
        },
        {
          "internalType": "string",
          "name": "_text",
          "type": "string"
        },
        {
          "internalType": "string",
          "name": "_imageURL",
          "type": "string"
        },
        {
          "internalType": "address",
          "name": "_app",
          "type": "address"
        },
        {
          "internalType": "uint256",
          "name": "_messageId",
          "type": "uint256"
        }
      ],
      "name": "sendAppMessage",
      "outputs": [
        {
          "internalType": "uint256",
          "name": "",
          "type": "uint256"
        }
      ],
      "stateMutability": "nonpayable",
      "type": "function"
    },
    {
      "inputs": [
        {
          "internalType": "uint256",
          "name": "_roomId",
          "type": "uint256"
        },
        {
          "internalType": "string",
          "name": "_text",
          "type": "string"
        },
        {
          "internalType": "string",
          "name": "_imageURL",
          "type": "string"
        },
        {
          "internalType": "address",
          "name": "_app",
          "type": "address"
        },
        {
          "internalType": "uint256",
          "name": "_messageId",
          "type": "uint256"
        }
      ],
      "name": "sendAppMessageToRoom",
      "outputs": [
        {
          "internalType": "uint256",
          "name": "",
          "type": "uint256"
        }
      ],
      "stateMutability": "nonpayable",
      "type": "function"
    },
    {
      "inputs": [
        {
          "internalType": "address",
          "name": "_to",
          "type": "address"
        },
        {
          "internalType": "string",
          "name": "_text",
          "type": "string"
        }
      ],
      "name": "sendMessage",
      "outputs": [
        {
          "internalType": "uint256",
          "name": "",
          "type": "uint256"
        }
      ],
      "stateMutability": "nonpayable",
      "type": "function"
    },
    {
      "inputs": [
        {
          "internalType": "uint256",
          "name": "_roomId",
          "type": "uint256"
        },
        {
          "internalType": "string",
          "name": "_text",
          "type": "string"
        }
      ],
      "name": "sendMessageToRoom",
      "outputs": [
        {
          "internalType": "uint256",
          "name": "",
          "type": "uint256"
        }
      ],
      "stateMutability": "nonpayable",
      "type": "function"
    },
    {
      "inputs": [
        {
          "internalType": "address",
          "name": "newOwner",
          "type": "address"
        }
      ],
      "name": "transferOwnership",
      "outputs": [],
      "stateMutability": "nonpayable",
      "type": "function"
    }
  ],
  "bytecode": "0x6080604052600160085534801561001557600080fd5b5061001f33610024565b610074565b600080546001600160a01b038381166001600160a01b0319831681178455604051919092169283917f8be0079c531659141344cd1fd0a4f28419497f9722a3daafe3b4186f6b6457e09190a35050565b61189f806100836000396000f3fe608060405234801561001057600080fd5b50600436106100c95760003560e01c8063cea97b2911610081578063df93a4e31161005b578063df93a4e314610192578063f204fc351461019a578063f2fde38b146101ad57600080fd5b8063cea97b291461014c578063da0632ad1461015f578063de6f24bb1461017f57600080fd5b8063715018a6116100b2578063715018a6146101145780638da5cb5b1461011e578063cc8805ee1461013957600080fd5b8063089fe32f146100ce5780636790d2b5146100f4575b600080fd5b6100e16100dc3660046115fd565b6101c0565b6040519081526020015b60405180910390f35b6101076101023660046115e4565b61037e565b6040516100eb919061174f565b61011c6105a7565b005b6000546040516001600160a01b0390911681526020016100eb565b6100e16101473660046115e4565b61060d565b6100e161015a366004611557565b6106d8565b61017261016d366004611665565b610758565b6040516100eb91906116d4565b6100e161018d366004611509565b610a48565b6100e1610ac8565b6100e16101a836600461162e565b610b2b565b61011c6101bb3660046114e7565b610ccc565b600082336102205760405162461bcd60e51b815260206004820152602260248201527f6f6e6c79526f6f6d4d656d6265723a206d697373696e67206d73672e73656e6460448201526132b960f11b60648201526084015b60405180910390fd5b600081118015610231575060085481105b61027d5760405162461bcd60e51b815260206004820152601f60248201527f6f6e6c79526f6f6d4d656d6265723a20496e76616c6964205f726f6f6d4964006044820152606401610217565b600081815260046020908152604080832033845290915290205460ff166102e65760405162461bcd60e51b815260206004820152601f60248201527f6f6e6c79526f6f6d4d656d6265723a206e6f20616363657373207269676874006044820152606401610217565b336103595760405162461bcd60e51b815260206004820152602560248201527f73656e644d657373616765546f526f6f6d3a206d697373696e67206d73672e7360448201527f656e6465720000000000000000000000000000000000000000000000000000006064820152608401610217565b610376848460405180602001604052806000815250600080610dae565b949350505050565b6103a260405180606001604052806000815260200160008152602001606081525090565b81336103fb5760405162461bcd60e51b815260206004820152602260248201527f6f6e6c79526f6f6d4d656d6265723a206d697373696e67206d73672e73656e6460448201526132b960f11b6064820152608401610217565b60008111801561040c575060085481105b6104585760405162461bcd60e51b815260206004820152601f60248201527f6f6e6c79526f6f6d4d656d6265723a20496e76616c6964205f726f6f6d4964006044820152606401610217565b600081815260046020908152604080832033845290915290205460ff166104c15760405162461bcd60e51b815260206004820152601f60248201527f6f6e6c79526f6f6d4d656d6265723a206e6f20616363657373207269676874006044820152606401610217565b6104e560405180606001604052806000815260200160008152602001606081525090565b60008481526002602052604090205480825261050057600080fd5b60008481526001602081905260408220835190929161051e916117d6565b8152602080820192909252604090810160009081206005015484840152868152600383528190208054825181850281018501909352808352919290919083018282801561059457602002820191906000526020600020905b81546001600160a01b03168152600190910190602001808311610576575b5050505050604082015291505b50919050565b6000546001600160a01b031633146106015760405162461bcd60e51b815260206004820181905260248201527f4f776e61626c653a2063616c6c6572206973206e6f7420746865206f776e65726044820152606401610217565b61060b6000610e82565b565b60003361065c5760405162461bcd60e51b815260206004820152601d60248201527f676574526f6f6d49643a206d697373696e67206d73672e73656e6465720000006044820152606401610217565b3360009081526007602052604090205482106106ba5760405162461bcd60e51b815260206004820152601d60248201527f676574526f6f6d49643a20696e76616c6964205f726f6f6d496e6465780000006044820152606401610217565b50336000908152600660209081526040808320938352929052205490565b6000336107325760405162461bcd60e51b815260206004820152602260248201527f73656e644170704d6573736167653a206d697373696e67206d73672e73656e6460448201526132b960f11b6064820152608401610217565b600061073e3388610edf565b905061074d8187878787610dae565b979650505050505050565b6107a36040518060c0016040528060006001600160a01b03168152602001606081526020016060815260200160006001600160a01b0316815260200160008152602001600081525090565b82336107fc5760405162461bcd60e51b815260206004820152602260248201527f6f6e6c79526f6f6d4d656d6265723a206d697373696e67206d73672e73656e6460448201526132b960f11b6064820152608401610217565b60008111801561080d575060085481105b6108595760405162461bcd60e51b815260206004820152601f60248201527f6f6e6c79526f6f6d4d656d6265723a20496e76616c6964205f726f6f6d4964006044820152606401610217565b600081815260046020908152604080832033845290915290205460ff166108c25760405162461bcd60e51b815260206004820152601f60248201527f6f6e6c79526f6f6d4d656d6265723a206e6f20616363657373207269676874006044820152606401610217565b6000848152600160208181526040808420878552825292839020835160c0810190945280546001600160a01b03168452918201805491840191610904906117ed565b80601f0160208091040260200160405190810160405280929190818152602001828054610930906117ed565b801561097d5780601f106109525761010080835404028352916020019161097d565b820191906000526020600020905b81548152906001019060200180831161096057829003601f168201915b50505050508152602001600282018054610996906117ed565b80601f01602080910402602001604051908101604052809291908181526020018280546109c2906117ed565b8015610a0f5780601f106109e457610100808354040283529160200191610a0f565b820191906000526020600020905b8154815290600101906020018083116109f257829003601f168201915b505050918352505060038201546001600160a01b0316602082015260048201546040820152600590910154606090910152949350505050565b600033610a975760405162461bcd60e51b815260206004820152601f60248201527f73656e644d6573736167653a206d697373696e67206d73672e73656e646572006044820152606401610217565b6000610aa33385610edf565b9050610376818460405180602001604052806000815250600080610dae565b92915050565b600033610b175760405162461bcd60e51b815260206004820152601d60248201527f726f6f6d436f756e743a206d697373696e67206d73672e73656e6465720000006044820152606401610217565b503360009081526007602052604090205490565b60008533610b865760405162461bcd60e51b815260206004820152602260248201527f6f6e6c79526f6f6d4d656d6265723a206d697373696e67206d73672e73656e6460448201526132b960f11b6064820152608401610217565b600081118015610b97575060085481105b610be35760405162461bcd60e51b815260206004820152601f60248201527f6f6e6c79526f6f6d4d656d6265723a20496e76616c6964205f726f6f6d4964006044820152606401610217565b600081815260046020908152604080832033845290915290205460ff16610c4c5760405162461bcd60e51b815260206004820152601f60248201527f6f6e6c79526f6f6d4d656d6265723a206e6f20616363657373207269676874006044820152606401610217565b33610cbf5760405162461bcd60e51b815260206004820152602860248201527f73656e644170704d657373616765546f526f6f6d3a206d697373696e67206d7360448201527f672e73656e6465720000000000000000000000000000000000000000000000006064820152608401610217565b61074d8787878787610dae565b6000546001600160a01b03163314610d265760405162461bcd60e51b815260206004820181905260248201527f4f776e61626c653a2063616c6c6572206973206e6f7420746865206f776e65726044820152606401610217565b6001600160a01b038116610da25760405162461bcd60e51b815260206004820152602660248201527f4f776e61626c653a206e6577206f776e657220697320746865207a65726f206160448201527f64647265737300000000000000000000000000000000000000000000000000006064820152608401610217565b610dab81610e82565b50565b6000610dfb6040518060c0016040528060006001600160a01b03168152602001606081526020016060815260200160006001600160a01b0316815260200160008152602001600081525090565b33815260208101869052604081018590526001600160a01b0384166060820152608081018390524260a08201526000610e348883611101565b604080518a81523360208201529081018290529091507f9d7627a25db822580c77289223b7bdcbab158a39b855550b9c0a9fa9e6bdd3449060600160405180910390a1979650505050505050565b600080546001600160a01b0383811673ffffffffffffffffffffffffffffffffffffffff19831681178455604051919092169283917f8be0079c531659141344cd1fd0a4f28419497f9722a3daafe3b4186f6b6457e09190a35050565b60006001600160a01b038316610f5c5760405162461bcd60e51b8152602060048201526024808201527f5f6a6f696e526f6f6d3a20696e76616c6964206164647265737320666f72205f60448201527f66726f6d000000000000000000000000000000000000000000000000000000006064820152608401610217565b6001600160a01b038216610fd85760405162461bcd60e51b815260206004820152602260248201527f5f6a6f696e526f6f6d3a20696e76616c6964206164647265737320666f72205f60448201527f746f0000000000000000000000000000000000000000000000000000000000006064820152608401610217565b6001600160a01b03808316600090815260056020908152604080832093871683529290522054801561100b579050610ac2565b6008805490600061101b83611822565b909155506001600160a01b038086166000818152600560208181526040808420958a1684529481528483208690559081528382209282529190915220819055905061106684826111fc565b50826001600160a01b0316846001600160a01b03161461108c5761108a83826111fc565b505b6040805180820182526001600160a01b038087168252851660208083019190915260008481526003909152919091206110c6916002611343565b506040518181527ff0cdcb414607ea068cd88e5e8c412a4e8d98bf75a67e0566830055371acda12c9060200160405180910390a19392505050565b600080831161110f57600080fd5b60008381526002602090815260408083205460018084528285208286528452919093208551815473ffffffffffffffffffffffffffffffffffffffff19166001600160a01b0390911617815585830151805187949293611174939085019201906113b5565b50604082015180516111909160028401916020909101906113b5565b50606082015160038201805473ffffffffffffffffffffffffffffffffffffffff19166001600160a01b039092169190911790556080820151600482015560a0909101516005909101556111e58160016117be565b600085815260026020526040902055905092915050565b60006001600160a01b0383166112545760405162461bcd60e51b815260206004820152601a60248201527f5f6a6f696e526f6f6d3a20696e76616c696420616464726573730000000000006044820152606401610217565b6001600160a01b0383166000908152600760209081526040808320546006835281842081855290925290912054156112ce5760405162461bcd60e51b815260206004820152601960248201527f5f6a6f696e526f6f6d3a20616c7265616479206a6f696e6564000000000000006044820152606401610217565b6001600160a01b038416600090815260066020908152604080832084845290915290208390556112ff8160016117be565b6001600160a01b038516600081815260076020908152604080832094909455868252600481528382209282529190915220805460ff19166001179055905092915050565b8280548282559060005260206000209081019282156113a5579160200282015b828111156113a5578251825473ffffffffffffffffffffffffffffffffffffffff19166001600160a01b03909116178255602090920191600190910190611363565b506113b1929150611429565b5090565b8280546113c1906117ed565b90600052602060002090601f0160209004810192826113e357600085556113a5565b82601f106113fc57805160ff19168380011785556113a5565b828001600101855582156113a5579182015b828111156113a557825182559160200191906001019061140e565b5b808211156113b1576000815560010161142a565b80356001600160a01b038116811461145557600080fd5b919050565b600082601f83011261146b57600080fd5b813567ffffffffffffffff8082111561148657611486611853565b604051601f8301601f19908116603f011681019082821181831017156114ae576114ae611853565b816040528381528660208588010111156114c757600080fd5b836020870160208301376000602085830101528094505050505092915050565b6000602082840312156114f957600080fd5b6115028261143e565b9392505050565b6000806040838503121561151c57600080fd5b6115258361143e565b9150602083013567ffffffffffffffff81111561154157600080fd5b61154d8582860161145a565b9150509250929050565b600080600080600060a0868803121561156f57600080fd5b6115788661143e565b9450602086013567ffffffffffffffff8082111561159557600080fd5b6115a189838a0161145a565b955060408801359150808211156115b757600080fd5b506115c48882890161145a565b9350506115d36060870161143e565b949793965091946080013592915050565b6000602082840312156115f657600080fd5b5035919050565b6000806040838503121561161057600080fd5b82359150602083013567ffffffffffffffff81111561154157600080fd5b600080600080600060a0868803121561164657600080fd5b85359450602086013567ffffffffffffffff8082111561159557600080fd5b6000806040838503121561167857600080fd5b50508035926020909101359150565b6000815180845260005b818110156116ad57602081850181015186830182015201611691565b818111156116bf576000602083870101525b50601f01601f19169290920160200192915050565b6020815260006001600160a01b03808451166020840152602084015160c0604085015261170460e0850182611687565b90506040850151601f198583030160608601526117218282611687565b915050816060860151166080850152608085015160a085015260a085015160c0850152809250505092915050565b6000602080835260808301845182850152818501516040850152604085015160608086015281815180845260a0870191508483019350600092505b808310156117b35783516001600160a01b0316825292840192600192909201919084019061178a565b509695505050505050565b600082198211156117d1576117d161183d565b500190565b6000828210156117e8576117e861183d565b500390565b600181811c9082168061180157607f821691505b602082108114156105a157634e487b7160e01b600052602260045260246000fd5b60006000198214156118365761183661183d565b5060010190565b634e487b7160e01b600052601160045260246000fd5b634e487b7160e01b600052604160045260246000fdfea2646970667358221220c3d68aa204b77051d1d488e0ca14f22290c3c5f85774f4f28864af6d4835fc0164736f6c63430008060033",
  "linkReferences": {},
  "deployedLinkReferences": {}
}