{
  "_format": "hh-sol-artifact-1",
  "contractName": "MessageBox",
  "sourceName": "contracts/MessageBox.sol",
  "abi": [
    {
      "inputs": [],
      "stateMutability": "nonpayable",
      "type": "constructor"
    },
    {
      "anonymous": false,
      "inputs": [
        {
          "indexed": false,
          "internalType": "address",
          "name": "_sender",
          "type": "address"
        },
        {
          "indexed": false,
          "internalType": "uint256",
          "name": "roomId",
          "type": "uint256"
        },
        {
          "indexed": false,
          "internalType": "uint256",
          "name": "_messageIndex",
          "type": "uint256"
        }
      ],
      "name": "MessageReceived",
      "type": "event"
    },
    {
      "anonymous": false,
      "inputs": [
        {
          "indexed": true,
          "internalType": "address",
          "name": "previousOwner",
          "type": "address"
        },
        {
          "indexed": true,
          "internalType": "address",
          "name": "newOwner",
          "type": "address"
        }
      ],
      "name": "OwnershipTransferred",
      "type": "event"
    },
    {
      "anonymous": false,
      "inputs": [
        {
          "indexed": false,
          "internalType": "uint256",
          "name": "roomId",
          "type": "uint256"
        }
      ],
      "name": "RoomCreated",
      "type": "event"
    },
    {
      "inputs": [
        {
          "internalType": "uint256",
          "name": "_roomId",
          "type": "uint256"
        }
      ],
      "name": "getMembers",
      "outputs": [
        {
          "internalType": "address[]",
          "name": "",
          "type": "address[]"
        }
      ],
      "stateMutability": "view",
      "type": "function"
    },
    {
      "inputs": [
        {
          "internalType": "uint256",
          "name": "_roomId",
          "type": "uint256"
        },
        {
          "internalType": "uint256",
          "name": "_messageIndex",
          "type": "uint256"
        }
      ],
      "name": "getMessage",
      "outputs": [
        {
          "components": [
            {
              "internalType": "address",
              "name": "sender",
              "type": "address"
            },
            {
              "internalType": "string",
              "name": "text",
              "type": "string"
            },
            {
              "internalType": "string",
              "name": "imageURL",
              "type": "string"
            },
            {
              "internalType": "address",
              "name": "app",
              "type": "address"
            },
            {
              "internalType": "uint256",
              "name": "messageId",
              "type": "uint256"
            },
            {
              "internalType": "uint256",
              "name": "timestamp",
              "type": "uint256"
            }
          ],
          "internalType": "struct IMessageBox.Message",
          "name": "",
          "type": "tuple"
        }
      ],
      "stateMutability": "view",
      "type": "function"
    },
    {
      "inputs": [
        {
          "internalType": "uint256",
          "name": "_roomIndex",
          "type": "uint256"
        }
      ],
      "name": "getRoomId",
      "outputs": [
        {
          "internalType": "uint256",
          "name": "",
          "type": "uint256"
        }
      ],
      "stateMutability": "view",
      "type": "function"
    },
    {
      "inputs": [
        {
          "internalType": "uint256",
          "name": "_roomId",
          "type": "uint256"
        }
      ],
      "name": "messageCount",
      "outputs": [
        {
          "internalType": "uint256",
          "name": "",
          "type": "uint256"
        }
      ],
      "stateMutability": "view",
      "type": "function"
    },
    {
      "inputs": [],
      "name": "owner",
      "outputs": [
        {
          "internalType": "address",
          "name": "",
          "type": "address"
        }
      ],
      "stateMutability": "view",
      "type": "function"
    },
    {
      "inputs": [],
      "name": "renounceOwnership",
      "outputs": [],
      "stateMutability": "nonpayable",
      "type": "function"
    },
    {
      "inputs": [],
      "name": "roomCount",
      "outputs": [
        {
          "internalType": "uint256",
          "name": "",
          "type": "uint256"
        }
      ],
      "stateMutability": "view",
      "type": "function"
    },
    {
      "inputs": [
        {
          "internalType": "address",
          "name": "_to",
          "type": "address"
        },
        {
          "internalType": "string",
          "name": "_text",
          "type": "string"
        },
        {
          "internalType": "string",
          "name": "_imageURL",
          "type": "string"
        },
        {
          "internalType": "address",
          "name": "_app",
          "type": "address"
        },
        {
          "internalType": "uint256",
          "name": "_messageId",
          "type": "uint256"
        }
      ],
      "name": "sendAppMessage",
      "outputs": [
        {
          "internalType": "uint256",
          "name": "",
          "type": "uint256"
        }
      ],
      "stateMutability": "nonpayable",
      "type": "function"
    },
    {
      "inputs": [
        {
          "internalType": "uint256",
          "name": "_roomId",
          "type": "uint256"
        },
        {
          "internalType": "string",
          "name": "_text",
          "type": "string"
        },
        {
          "internalType": "string",
          "name": "_imageURL",
          "type": "string"
        },
        {
          "internalType": "address",
          "name": "_app",
          "type": "address"
        },
        {
          "internalType": "uint256",
          "name": "_messageId",
          "type": "uint256"
        }
      ],
      "name": "sendAppMessageToRoom",
      "outputs": [
        {
          "internalType": "uint256",
          "name": "",
          "type": "uint256"
        }
      ],
      "stateMutability": "nonpayable",
      "type": "function"
    },
    {
      "inputs": [
        {
          "internalType": "address",
          "name": "_to",
          "type": "address"
        },
        {
          "internalType": "string",
          "name": "_text",
          "type": "string"
        }
      ],
      "name": "sendMessage",
      "outputs": [
        {
          "internalType": "uint256",
          "name": "",
          "type": "uint256"
        }
      ],
      "stateMutability": "nonpayable",
      "type": "function"
    },
    {
      "inputs": [
        {
          "internalType": "uint256",
          "name": "_roomId",
          "type": "uint256"
        },
        {
          "internalType": "string",
          "name": "_text",
          "type": "string"
        }
      ],
      "name": "sendMessageToRoom",
      "outputs": [
        {
          "internalType": "uint256",
          "name": "",
          "type": "uint256"
        }
      ],
      "stateMutability": "nonpayable",
      "type": "function"
    },
    {
      "inputs": [
        {
          "internalType": "address",
          "name": "newOwner",
          "type": "address"
        }
      ],
      "name": "transferOwnership",
      "outputs": [],
      "stateMutability": "nonpayable",
      "type": "function"
    }
  ],
  "bytecode": "0x6080604052600160085534801561001557600080fd5b5061001f33610024565b610074565b600080546001600160a01b038381166001600160a01b0319831681178455604051919092169283917f8be0079c531659141344cd1fd0a4f28419497f9722a3daafe3b4186f6b6457e09190a35050565b611907806100836000396000f3fe608060405234801561001057600080fd5b50600436106100d45760003560e01c8063cea97b2911610081578063df93a4e31161005b578063df93a4e3146101b0578063f204fc35146101b8578063f2fde38b146101cb57600080fd5b8063cea97b291461016a578063da0632ad1461017d578063de6f24bb1461019d57600080fd5b80638da5cb5b116100b25780638da5cb5b1461011c578063c477ecab14610137578063cc8805ee1461015757600080fd5b8063089fe32f146100d957806341b9a2a8146100ff578063715018a614610112575b600080fd5b6100ec6100e736600461169e565b6101de565b6040519081526020015b60405180910390f35b6100ec61010d366004611685565b61039c565b61011a6104d5565b005b6000546040516001600160a01b0390911681526020016100f6565b61014a610145366004611685565b61053b565b6040516100f69190611775565b6100ec610165366004611685565b6106c7565b6100ec6101783660046115f8565b610792565b61019061018b366004611706565b610812565b6040516100f691906117c2565b6100ec6101ab3660046115aa565b610b02565b6100ec610b82565b6100ec6101c63660046116cf565b610be5565b61011a6101d9366004611588565b610d86565b6000823361023e5760405162461bcd60e51b815260206004820152602260248201527f6f6e6c79526f6f6d4d656d6265723a206d697373696e67206d73672e73656e6460448201526132b960f11b60648201526084015b60405180910390fd5b60008111801561024f575060085481105b61029b5760405162461bcd60e51b815260206004820152601f60248201527f6f6e6c79526f6f6d4d656d6265723a20496e76616c6964205f726f6f6d4964006044820152606401610235565b600081815260046020908152604080832033845290915290205460ff166103045760405162461bcd60e51b815260206004820152601f60248201527f6f6e6c79526f6f6d4d656d6265723a206e6f20616363657373207269676874006044820152606401610235565b336103775760405162461bcd60e51b815260206004820152602560248201527f73656e644d657373616765546f526f6f6d3a206d697373696e67206d73672e7360448201527f656e6465720000000000000000000000000000000000000000000000000000006064820152608401610235565b610394848460405180602001604052806000815250600080610e68565b949350505050565b600081336103f75760405162461bcd60e51b815260206004820152602260248201527f6f6e6c79526f6f6d4d656d6265723a206d697373696e67206d73672e73656e6460448201526132b960f11b6064820152608401610235565b600081118015610408575060085481105b6104545760405162461bcd60e51b815260206004820152601f60248201527f6f6e6c79526f6f6d4d656d6265723a20496e76616c6964205f726f6f6d4964006044820152606401610235565b600081815260046020908152604080832033845290915290205460ff166104bd5760405162461bcd60e51b815260206004820152601f60248201527f6f6e6c79526f6f6d4d656d6265723a206e6f20616363657373207269676874006044820152606401610235565b60008381526002602052604090205491505b50919050565b6000546001600160a01b0316331461052f5760405162461bcd60e51b815260206004820181905260248201527f4f776e61626c653a2063616c6c6572206973206e6f7420746865206f776e65726044820152606401610235565b6105396000610f3d565b565b606081336105965760405162461bcd60e51b815260206004820152602260248201527f6f6e6c79526f6f6d4d656d6265723a206d697373696e67206d73672e73656e6460448201526132b960f11b6064820152608401610235565b6000811180156105a7575060085481105b6105f35760405162461bcd60e51b815260206004820152601f60248201527f6f6e6c79526f6f6d4d656d6265723a20496e76616c6964205f726f6f6d4964006044820152606401610235565b600081815260046020908152604080832033845290915290205460ff1661065c5760405162461bcd60e51b815260206004820152601f60248201527f6f6e6c79526f6f6d4d656d6265723a206e6f20616363657373207269676874006044820152606401610235565b600083815260036020908152604091829020805483518184028101840190945280845290918301828280156106ba57602002820191906000526020600020905b81546001600160a01b0316815260019091019060200180831161069c575b5050505050915050919050565b6000336107165760405162461bcd60e51b815260206004820152601d60248201527f676574526f6f6d49643a206d697373696e67206d73672e73656e6465720000006044820152606401610235565b3360009081526007602052604090205482106107745760405162461bcd60e51b815260206004820152601d60248201527f676574526f6f6d49643a20696e76616c6964205f726f6f6d496e6465780000006044820152606401610235565b50336000908152600660209081526040808320938352929052205490565b6000336107ec5760405162461bcd60e51b815260206004820152602260248201527f73656e644170704d6573736167653a206d697373696e67206d73672e73656e6460448201526132b960f11b6064820152608401610235565b60006107f83388610f9a565b90506108078187878787610e68565b979650505050505050565b61085d6040518060c0016040528060006001600160a01b03168152602001606081526020016060815260200160006001600160a01b0316815260200160008152602001600081525090565b82336108b65760405162461bcd60e51b815260206004820152602260248201527f6f6e6c79526f6f6d4d656d6265723a206d697373696e67206d73672e73656e6460448201526132b960f11b6064820152608401610235565b6000811180156108c7575060085481105b6109135760405162461bcd60e51b815260206004820152601f60248201527f6f6e6c79526f6f6d4d656d6265723a20496e76616c6964205f726f6f6d4964006044820152606401610235565b600081815260046020908152604080832033845290915290205460ff1661097c5760405162461bcd60e51b815260206004820152601f60248201527f6f6e6c79526f6f6d4d656d6265723a206e6f20616363657373207269676874006044820152606401610235565b6000848152600160208181526040808420878552825292839020835160c0810190945280546001600160a01b031684529182018054918401916109be90611855565b80601f01602080910402602001604051908101604052809291908181526020018280546109ea90611855565b8015610a375780601f10610a0c57610100808354040283529160200191610a37565b820191906000526020600020905b815481529060010190602001808311610a1a57829003601f168201915b50505050508152602001600282018054610a5090611855565b80601f0160208091040260200160405190810160405280929190818152602001828054610a7c90611855565b8015610ac95780601f10610a9e57610100808354040283529160200191610ac9565b820191906000526020600020905b815481529060010190602001808311610aac57829003601f168201915b505050918352505060038201546001600160a01b0316602082015260048201546040820152600590910154606090910152949350505050565b600033610b515760405162461bcd60e51b815260206004820152601f60248201527f73656e644d6573736167653a206d697373696e67206d73672e73656e646572006044820152606401610235565b6000610b5d3385610f9a565b9050610394818460405180602001604052806000815250600080610e68565b92915050565b600033610bd15760405162461bcd60e51b815260206004820152601d60248201527f726f6f6d436f756e743a206d697373696e67206d73672e73656e6465720000006044820152606401610235565b503360009081526007602052604090205490565b60008533610c405760405162461bcd60e51b815260206004820152602260248201527f6f6e6c79526f6f6d4d656d6265723a206d697373696e67206d73672e73656e6460448201526132b960f11b6064820152608401610235565b600081118015610c51575060085481105b610c9d5760405162461bcd60e51b815260206004820152601f60248201527f6f6e6c79526f6f6d4d656d6265723a20496e76616c6964205f726f6f6d4964006044820152606401610235565b600081815260046020908152604080832033845290915290205460ff16610d065760405162461bcd60e51b815260206004820152601f60248201527f6f6e6c79526f6f6d4d656d6265723a206e6f20616363657373207269676874006044820152606401610235565b33610d795760405162461bcd60e51b815260206004820152602860248201527f73656e644170704d657373616765546f526f6f6d3a206d697373696e67206d7360448201527f672e73656e6465720000000000000000000000000000000000000000000000006064820152608401610235565b6108078787878787610e68565b6000546001600160a01b03163314610de05760405162461bcd60e51b815260206004820181905260248201527f4f776e61626c653a2063616c6c6572206973206e6f7420746865206f776e65726044820152606401610235565b6001600160a01b038116610e5c5760405162461bcd60e51b815260206004820152602660248201527f4f776e61626c653a206e6577206f776e657220697320746865207a65726f206160448201527f64647265737300000000000000000000000000000000000000000000000000006064820152608401610235565b610e6581610f3d565b50565b6000610eb56040518060c0016040528060006001600160a01b03168152602001606081526020016060815260200160006001600160a01b0316815260200160008152602001600081525090565b33815260208101869052604081018590526001600160a01b0384166060820152608081018390524260a08201526000610eee88836111a2565b60408051338152602081018b90529081018290529091507fa0710dea945adf87839bda230ecbb319aa3ed42ea2c02ae9dd696b4dc3d5762e9060600160405180910390a1979650505050505050565b600080546001600160a01b0383811673ffffffffffffffffffffffffffffffffffffffff19831681178455604051919092169283917f8be0079c531659141344cd1fd0a4f28419497f9722a3daafe3b4186f6b6457e09190a35050565b60006001600160a01b0383166110175760405162461bcd60e51b8152602060048201526024808201527f5f6a6f696e526f6f6d3a20696e76616c6964206164647265737320666f72205f60448201527f66726f6d000000000000000000000000000000000000000000000000000000006064820152608401610235565b6001600160a01b0382166110935760405162461bcd60e51b815260206004820152602260248201527f5f6a6f696e526f6f6d3a20696e76616c6964206164647265737320666f72205f60448201527f746f0000000000000000000000000000000000000000000000000000000000006064820152608401610235565b6001600160a01b0380831660009081526005602090815260408083209387168352929052205480156110c6579050610b7c565b600880549060006110d68361188a565b909155506001600160a01b038086166000818152600560208181526040808420958a16845294815284832086905590815283822092825291909152208190559050611121848261129d565b5061112c838261129d565b506040805180820182526001600160a01b038087168252851660208083019190915260008481526003909152919091206111679160026113e4565b506040518181527ff0cdcb414607ea068cd88e5e8c412a4e8d98bf75a67e0566830055371acda12c9060200160405180910390a19392505050565b60008083116111b057600080fd5b60008381526002602090815260408083205460018084528285208286528452919093208551815473ffffffffffffffffffffffffffffffffffffffff19166001600160a01b039091161781558583015180518794929361121593908501920190611456565b5060408201518051611231916002840191602090910190611456565b50606082015160038201805473ffffffffffffffffffffffffffffffffffffffff19166001600160a01b039092169190911790556080820151600482015560a09091015160059091015561128681600161183d565b600085815260026020526040902055905092915050565b60006001600160a01b0383166112f55760405162461bcd60e51b815260206004820152601a60248201527f5f6a6f696e526f6f6d3a20696e76616c696420616464726573730000000000006044820152606401610235565b6001600160a01b03831660009081526007602090815260408083205460068352818420818552909252909120541561136f5760405162461bcd60e51b815260206004820152601960248201527f5f6a6f696e526f6f6d3a20616c7265616479206a6f696e6564000000000000006044820152606401610235565b6001600160a01b038416600090815260066020908152604080832084845290915290208390556113a081600161183d565b6001600160a01b038516600081815260076020908152604080832094909455868252600481528382209282529190915220805460ff19166001179055905092915050565b828054828255906000526020600020908101928215611446579160200282015b82811115611446578251825473ffffffffffffffffffffffffffffffffffffffff19166001600160a01b03909116178255602090920191600190910190611404565b506114529291506114ca565b5090565b82805461146290611855565b90600052602060002090601f0160209004810192826114845760008555611446565b82601f1061149d57805160ff1916838001178555611446565b82800160010185558215611446579182015b828111156114465782518255916020019190600101906114af565b5b8082111561145257600081556001016114cb565b80356001600160a01b03811681146114f657600080fd5b919050565b600082601f83011261150c57600080fd5b813567ffffffffffffffff80821115611527576115276118bb565b604051601f8301601f19908116603f0116810190828211818310171561154f5761154f6118bb565b8160405283815286602085880101111561156857600080fd5b836020870160208301376000602085830101528094505050505092915050565b60006020828403121561159a57600080fd5b6115a3826114df565b9392505050565b600080604083850312156115bd57600080fd5b6115c6836114df565b9150602083013567ffffffffffffffff8111156115e257600080fd5b6115ee858286016114fb565b9150509250929050565b600080600080600060a0868803121561161057600080fd5b611619866114df565b9450602086013567ffffffffffffffff8082111561163657600080fd5b61164289838a016114fb565b9550604088013591508082111561165857600080fd5b50611665888289016114fb565b935050611674606087016114df565b949793965091946080013592915050565b60006020828403121561169757600080fd5b5035919050565b600080604083850312156116b157600080fd5b82359150602083013567ffffffffffffffff8111156115e257600080fd5b600080600080600060a086880312156116e757600080fd5b85359450602086013567ffffffffffffffff8082111561163657600080fd5b6000806040838503121561171957600080fd5b50508035926020909101359150565b6000815180845260005b8181101561174e57602081850181015186830182015201611732565b81811115611760576000602083870101525b50601f01601f19169290920160200192915050565b6020808252825182820181905260009190848201906040850190845b818110156117b65783516001600160a01b031683529284019291840191600101611791565b50909695505050505050565b6020815260006001600160a01b03808451166020840152602084015160c060408501526117f260e0850182611728565b90506040850151601f1985830301606086015261180f8282611728565b915050816060860151166080850152608085015160a085015260a085015160c0850152809250505092915050565b60008219821115611850576118506118a5565b500190565b600181811c9082168061186957607f821691505b602082108114156104cf57634e487b7160e01b600052602260045260246000fd5b600060001982141561189e5761189e6118a5565b5060010190565b634e487b7160e01b600052601160045260246000fd5b634e487b7160e01b600052604160045260246000fdfea2646970667358221220b41a2a341fb6f98ba61a6228848bf550714451194d2066a309426d5d10d0f26b64736f6c63430008060033",
  "linkReferences": {},
  "deployedLinkReferences": {}
}