{
  "_format": "hh-sol-artifact-1",
  "contractName": "MessageBox",
  "sourceName": "contracts/MessageBox.sol",
  "abi": [
    {
      "inputs": [],
      "stateMutability": "nonpayable",
      "type": "constructor"
    },
    {
      "anonymous": false,
      "inputs": [
        {
          "indexed": false,
          "internalType": "uint256",
          "name": "roomId",
          "type": "uint256"
        },
        {
          "indexed": false,
          "internalType": "address",
          "name": "_sender",
          "type": "address"
        },
        {
          "indexed": false,
          "internalType": "uint256",
          "name": "_messageIndex",
          "type": "uint256"
        }
      ],
      "name": "MessageReceived",
      "type": "event"
    },
    {
      "anonymous": false,
      "inputs": [
        {
          "indexed": true,
          "internalType": "address",
          "name": "previousOwner",
          "type": "address"
        },
        {
          "indexed": true,
          "internalType": "address",
          "name": "newOwner",
          "type": "address"
        }
      ],
      "name": "OwnershipTransferred",
      "type": "event"
    },
    {
      "anonymous": false,
      "inputs": [
        {
          "indexed": false,
          "internalType": "uint256",
          "name": "roomId",
          "type": "uint256"
        }
      ],
      "name": "RoomCreated",
      "type": "event"
    },
    {
      "inputs": [
        {
          "internalType": "uint256",
          "name": "_roomId",
          "type": "uint256"
        },
        {
          "internalType": "uint256",
          "name": "_messageIndex",
          "type": "uint256"
        }
      ],
      "name": "getMessage",
      "outputs": [
        {
          "components": [
            {
              "internalType": "address",
              "name": "sender",
              "type": "address"
            },
            {
              "internalType": "string",
              "name": "text",
              "type": "string"
            },
            {
              "internalType": "string",
              "name": "imageURL",
              "type": "string"
            },
            {
              "internalType": "address",
              "name": "app",
              "type": "address"
            },
            {
              "internalType": "uint256",
              "name": "messageId",
              "type": "uint256"
            },
            {
              "internalType": "uint256",
              "name": "timestamp",
              "type": "uint256"
            }
          ],
          "internalType": "struct IMessageBox.Message",
          "name": "",
          "type": "tuple"
        }
      ],
      "stateMutability": "view",
      "type": "function"
    },
    {
      "inputs": [
        {
          "internalType": "uint256",
          "name": "_roomIndex",
          "type": "uint256"
        }
      ],
      "name": "getRoomId",
      "outputs": [
        {
          "internalType": "uint256",
          "name": "",
          "type": "uint256"
        }
      ],
      "stateMutability": "view",
      "type": "function"
    },
    {
      "inputs": [
        {
          "internalType": "uint256",
          "name": "_roomId",
          "type": "uint256"
        }
      ],
      "name": "getRoomInfo",
      "outputs": [
        {
          "components": [
            {
              "internalType": "uint256",
              "name": "messageCount",
              "type": "uint256"
            },
            {
              "internalType": "uint256",
              "name": "timestamp",
              "type": "uint256"
            },
            {
              "internalType": "address[]",
              "name": "members",
              "type": "address[]"
            }
          ],
          "internalType": "struct IMessageBox.RoomInfo",
          "name": "",
          "type": "tuple"
        }
      ],
      "stateMutability": "view",
      "type": "function"
    },
    {
      "inputs": [],
      "name": "owner",
      "outputs": [
        {
          "internalType": "address",
          "name": "",
          "type": "address"
        }
      ],
      "stateMutability": "view",
      "type": "function"
    },
    {
      "inputs": [],
      "name": "renounceOwnership",
      "outputs": [],
      "stateMutability": "nonpayable",
      "type": "function"
    },
    {
      "inputs": [],
      "name": "roomCount",
      "outputs": [
        {
          "internalType": "uint256",
          "name": "",
          "type": "uint256"
        }
      ],
      "stateMutability": "view",
      "type": "function"
    },
    {
      "inputs": [
        {
          "internalType": "address[]",
          "name": "_members",
          "type": "address[]"
        },
        {
          "internalType": "string",
          "name": "_text",
          "type": "string"
        },
        {
          "internalType": "string",
          "name": "_imageURL",
          "type": "string"
        },
        {
          "internalType": "address",
          "name": "_app",
          "type": "address"
        },
        {
          "internalType": "uint256",
          "name": "_messageId",
          "type": "uint256"
        }
      ],
      "name": "sendAppMessage",
      "outputs": [
        {
          "internalType": "uint256",
          "name": "",
          "type": "uint256"
        }
      ],
      "stateMutability": "nonpayable",
      "type": "function"
    },
    {
      "inputs": [
        {
          "internalType": "uint256",
          "name": "_roomId",
          "type": "uint256"
        },
        {
          "internalType": "string",
          "name": "_text",
          "type": "string"
        },
        {
          "internalType": "string",
          "name": "_imageURL",
          "type": "string"
        },
        {
          "internalType": "address",
          "name": "_app",
          "type": "address"
        },
        {
          "internalType": "uint256",
          "name": "_messageId",
          "type": "uint256"
        }
      ],
      "name": "sendAppMessageToRoom",
      "outputs": [
        {
          "internalType": "uint256",
          "name": "",
          "type": "uint256"
        }
      ],
      "stateMutability": "nonpayable",
      "type": "function"
    },
    {
      "inputs": [
        {
          "internalType": "address[]",
          "name": "_members",
          "type": "address[]"
        },
        {
          "internalType": "string",
          "name": "_text",
          "type": "string"
        }
      ],
      "name": "sendMessage",
      "outputs": [
        {
          "internalType": "uint256",
          "name": "",
          "type": "uint256"
        }
      ],
      "stateMutability": "nonpayable",
      "type": "function"
    },
    {
      "inputs": [
        {
          "internalType": "uint256",
          "name": "_roomId",
          "type": "uint256"
        },
        {
          "internalType": "string",
          "name": "_text",
          "type": "string"
        }
      ],
      "name": "sendMessageToRoom",
      "outputs": [
        {
          "internalType": "uint256",
          "name": "",
          "type": "uint256"
        }
      ],
      "stateMutability": "nonpayable",
      "type": "function"
    },
    {
      "inputs": [
        {
          "internalType": "address",
          "name": "newOwner",
          "type": "address"
        }
      ],
      "name": "transferOwnership",
      "outputs": [],
      "stateMutability": "nonpayable",
      "type": "function"
    }
  ],
  "bytecode": "0x6080604052600160085534801561001557600080fd5b5061001f33610024565b610074565b600080546001600160a01b038381166001600160a01b0319831681178455604051919092169283917f8be0079c531659141344cd1fd0a4f28419497f9722a3daafe3b4186f6b6457e09190a35050565b6119cc806100836000396000f3fe608060405234801561001057600080fd5b50600436106100c95760003560e01c8063cc8805ee11610081578063df93a4e31161005b578063df93a4e314610192578063f204fc351461019a578063f2fde38b146101ad57600080fd5b8063cc8805ee1461014c578063ce6b51341461015f578063da0632ad1461017257600080fd5b80636790d2b5116100b25780636790d2b514610107578063715018a6146101275780638da5cb5b1461013157600080fd5b8063089fe32f146100ce5780631be49dfa146100f4575b600080fd5b6100e16100dc366004611698565b6101c0565b6040519081526020015b60405180910390f35b6100e161010236600461157a565b61037e565b61011a61011536600461167f565b6103a9565b6040516100eb9190611835565b61012f6105d2565b005b6000546040516001600160a01b0390911681526020016100eb565b6100e161015a36600461167f565b610638565b6100e161016d3660046115de565b610703565b61018561018036600461170c565b610729565b6040516100eb91906117ba565b6100e1610a19565b6100e16101a83660046116d5565b610a7c565b61012f6101bb366004611558565b610c08565b600082336102205760405162461bcd60e51b815260206004820152602260248201527f6f6e6c79526f6f6d4d656d6265723a206d697373696e67206d73672e73656e6460448201526132b960f11b60648201526084015b60405180910390fd5b600081118015610231575060085481105b61027d5760405162461bcd60e51b815260206004820152601f60248201527f6f6e6c79526f6f6d4d656d6265723a20496e76616c6964205f726f6f6d4964006044820152606401610217565b600081815260046020908152604080832033845290915290205460ff166102e65760405162461bcd60e51b815260206004820152601f60248201527f6f6e6c79526f6f6d4d656d6265723a206e6f20616363657373207269676874006044820152606401610217565b336103595760405162461bcd60e51b815260206004820152602560248201527f73656e644d657373616765546f526f6f6d3a206d697373696e67206d73672e7360448201527f656e6465720000000000000000000000000000000000000000000000000000006064820152608401610217565b610376848460405180602001604052806000815250600080610cea565b949350505050565b60008061038a84610dbe565b9050610376818460405180602001604052806000815250600080610cea565b6103cd60405180606001604052806000815260200160008152602001606081525090565b81336104265760405162461bcd60e51b815260206004820152602260248201527f6f6e6c79526f6f6d4d656d6265723a206d697373696e67206d73672e73656e6460448201526132b960f11b6064820152608401610217565b600081118015610437575060085481105b6104835760405162461bcd60e51b815260206004820152601f60248201527f6f6e6c79526f6f6d4d656d6265723a20496e76616c6964205f726f6f6d4964006044820152606401610217565b600081815260046020908152604080832033845290915290205460ff166104ec5760405162461bcd60e51b815260206004820152601f60248201527f6f6e6c79526f6f6d4d656d6265723a206e6f20616363657373207269676874006044820152606401610217565b61051060405180606001604052806000815260200160008152602001606081525090565b60008481526002602052604090205480825261052b57600080fd5b600084815260016020819052604082208351909291610549916118ed565b815260208082019290925260409081016000908120600501548484015286815260038352819020805482518185028101850190935280835291929091908301828280156105bf57602002820191906000526020600020905b81546001600160a01b031681526001909101906020018083116105a1575b5050505050604082015291505b50919050565b6000546001600160a01b0316331461062c5760405162461bcd60e51b815260206004820181905260248201527f4f776e61626c653a2063616c6c6572206973206e6f7420746865206f776e65726044820152606401610217565b6106366000611107565b565b6000336106875760405162461bcd60e51b815260206004820152601d60248201527f676574526f6f6d49643a206d697373696e67206d73672e73656e6465720000006044820152606401610217565b3360009081526007602052604090205482106106e55760405162461bcd60e51b815260206004820152601d60248201527f676574526f6f6d49643a20696e76616c6964205f726f6f6d496e6465780000006044820152606401610217565b50336000908152600660209081526040808320938352929052205490565b60008061070f87610dbe565b905061071e8187878787610cea565b979650505050505050565b6107746040518060c0016040528060006001600160a01b03168152602001606081526020016060815260200160006001600160a01b0316815260200160008152602001600081525090565b82336107cd5760405162461bcd60e51b815260206004820152602260248201527f6f6e6c79526f6f6d4d656d6265723a206d697373696e67206d73672e73656e6460448201526132b960f11b6064820152608401610217565b6000811180156107de575060085481105b61082a5760405162461bcd60e51b815260206004820152601f60248201527f6f6e6c79526f6f6d4d656d6265723a20496e76616c6964205f726f6f6d4964006044820152606401610217565b600081815260046020908152604080832033845290915290205460ff166108935760405162461bcd60e51b815260206004820152601f60248201527f6f6e6c79526f6f6d4d656d6265723a206e6f20616363657373207269676874006044820152606401610217565b6000848152600160208181526040808420878552825292839020835160c0810190945280546001600160a01b031684529182018054918401916108d590611904565b80601f016020809104026020016040519081016040528092919081815260200182805461090190611904565b801561094e5780601f106109235761010080835404028352916020019161094e565b820191906000526020600020905b81548152906001019060200180831161093157829003601f168201915b5050505050815260200160028201805461096790611904565b80601f016020809104026020016040519081016040528092919081815260200182805461099390611904565b80156109e05780601f106109b5576101008083540402835291602001916109e0565b820191906000526020600020905b8154815290600101906020018083116109c357829003601f168201915b505050918352505060038201546001600160a01b0316602082015260048201546040820152600590910154606090910152949350505050565b600033610a685760405162461bcd60e51b815260206004820152601d60248201527f726f6f6d436f756e743a206d697373696e67206d73672e73656e6465720000006044820152606401610217565b503360009081526007602052604090205490565b60008533610ad75760405162461bcd60e51b815260206004820152602260248201527f6f6e6c79526f6f6d4d656d6265723a206d697373696e67206d73672e73656e6460448201526132b960f11b6064820152608401610217565b600081118015610ae8575060085481105b610b345760405162461bcd60e51b815260206004820152601f60248201527f6f6e6c79526f6f6d4d656d6265723a20496e76616c6964205f726f6f6d4964006044820152606401610217565b600081815260046020908152604080832033845290915290205460ff16610b9d5760405162461bcd60e51b815260206004820152601f60248201527f6f6e6c79526f6f6d4d656d6265723a206e6f20616363657373207269676874006044820152606401610217565b33610bfb5760405162461bcd60e51b815260206004820152602860248201527f73656e644170704d657373616765546f526f6f6d3a206d697373696e67206d73604482015267339739b2b73232b960c11b6064820152608401610217565b61071e8787878787610cea565b6000546001600160a01b03163314610c625760405162461bcd60e51b815260206004820181905260248201527f4f776e61626c653a2063616c6c6572206973206e6f7420746865206f776e65726044820152606401610217565b6001600160a01b038116610cde5760405162461bcd60e51b815260206004820152602660248201527f4f776e61626c653a206e6577206f776e657220697320746865207a65726f206160448201527f64647265737300000000000000000000000000000000000000000000000000006064820152608401610217565b610ce781611107565b50565b6000610d376040518060c0016040528060006001600160a01b03168152602001606081526020016060815260200160006001600160a01b0316815260200160008152602001600081525090565b33815260208101869052604081018590526001600160a01b0384166060820152608081018390524260a08201526000610d708883611164565b604080518a81523360208201529081018290529091507f9d7627a25db822580c77289223b7bdcbab158a39b855550b9c0a9fa9e6bdd3449060600160405180910390a1979650505050505050565b600033610e1e5760405162461bcd60e51b815260206004820152602860248201527f5f676574526f6f6d4964466f724d656d626572733a206d697373696e67206d73604482015267339739b2b73232b960c11b6064820152608401610217565b6000825111610e955760405162461bcd60e51b815260206004820152602660248201527f5f676574526f6f6d4964466f724d656d626572733a206d656d6265727320697360448201527f20656d70747900000000000000000000000000000000000000000000000000006064820152608401610217565b60008083600081518110610eab57610eab61196a565b60209081029190910101516001925090506001600160a01b03811633145b8451831015610fa3576000858481518110610ee657610ee661196a565b60200260200101519050806001600160a01b0316836001600160a01b031610610f775760405162461bcd60e51b815260206004820152602b60248201527f5f676574526f6f6d4964466f724d656d626572733a206d656d6265727320697360448201527f206e6f7420736f727465640000000000000000000000000000000000000000006064820152608401610217565b9150816001600160a01b038116331415610f9057600191505b5082610f9b81611939565b935050610ec9565b806110165760405162461bcd60e51b815260206004820152603960248201527f5f676574526f6f6d4964466f724d656d626572733a206d656d6265727320646f60448201527f6573206e6f7420636f6e7461696e206d73672e73656e646572000000000000006064820152608401610217565b600085604051602001611029919061177b565b60408051601f198184030181529181528151602092830120600081815260059093529120549091508015611061579695505050505050565b6008805490600061107183611939565b909155506000838152600560205260408120829055955090505b86518510156110ca576110b78786815181106110a9576110a961196a565b60200260200101518261125f565b50846110c281611939565b95505061108b565b6040518181527ff0cdcb414607ea068cd88e5e8c412a4e8d98bf75a67e0566830055371acda12c9060200160405180910390a19695505050505050565b600080546001600160a01b0383811673ffffffffffffffffffffffffffffffffffffffff19831681178455604051919092169283917f8be0079c531659141344cd1fd0a4f28419497f9722a3daafe3b4186f6b6457e09190a35050565b600080831161117257600080fd5b60008381526002602090815260408083205460018084528285208286528452919093208551815473ffffffffffffffffffffffffffffffffffffffff19166001600160a01b03909116178155858301518051879492936111d7939085019201906113a6565b50604082015180516111f39160028401916020909101906113a6565b50606082015160038201805473ffffffffffffffffffffffffffffffffffffffff19166001600160a01b039092169190911790556080820151600482015560a0909101516005909101556112488160016118d5565b600085815260026020526040902055905092915050565b60006001600160a01b0383166112b75760405162461bcd60e51b815260206004820152601a60248201527f5f6a6f696e526f6f6d3a20696e76616c696420616464726573730000000000006044820152606401610217565b6001600160a01b0383166000908152600760209081526040808320546006835281842081855290925290912054156113315760405162461bcd60e51b815260206004820152601960248201527f5f6a6f696e526f6f6d3a20616c7265616479206a6f696e6564000000000000006044820152606401610217565b6001600160a01b038416600090815260066020908152604080832084845290915290208390556113628160016118d5565b6001600160a01b038516600081815260076020908152604080832094909455868252600481528382209282529190915220805460ff19166001179055905092915050565b8280546113b290611904565b90600052602060002090601f0160209004810192826113d4576000855561141a565b82601f106113ed57805160ff191683800117855561141a565b8280016001018555821561141a579182015b8281111561141a5782518255916020019190600101906113ff565b5061142692915061142a565b5090565b5b80821115611426576000815560010161142b565b80356001600160a01b038116811461145657600080fd5b919050565b600082601f83011261146c57600080fd5b8135602067ffffffffffffffff82111561148857611488611980565b8160051b6114978282016118a4565b8381528281019086840183880185018910156114b257600080fd5b600093505b858410156114dc576114c88161143f565b8352600193909301929184019184016114b7565b50979650505050505050565b600082601f8301126114f957600080fd5b813567ffffffffffffffff81111561151357611513611980565b611526601f8201601f19166020016118a4565b81815284602083860101111561153b57600080fd5b816020850160208301376000918101602001919091529392505050565b60006020828403121561156a57600080fd5b6115738261143f565b9392505050565b6000806040838503121561158d57600080fd5b823567ffffffffffffffff808211156115a557600080fd5b6115b18683870161145b565b935060208501359150808211156115c757600080fd5b506115d4858286016114e8565b9150509250929050565b600080600080600060a086880312156115f657600080fd5b853567ffffffffffffffff8082111561160e57600080fd5b61161a89838a0161145b565b9650602088013591508082111561163057600080fd5b61163c89838a016114e8565b9550604088013591508082111561165257600080fd5b5061165f888289016114e8565b93505061166e6060870161143f565b949793965091946080013592915050565b60006020828403121561169157600080fd5b5035919050565b600080604083850312156116ab57600080fd5b82359150602083013567ffffffffffffffff8111156116c957600080fd5b6115d4858286016114e8565b600080600080600060a086880312156116ed57600080fd5b85359450602086013567ffffffffffffffff8082111561163057600080fd5b6000806040838503121561171f57600080fd5b50508035926020909101359150565b6000815180845260005b8181101561175457602081850181015186830182015201611738565b81811115611766576000602083870101525b50601f01601f19169290920160200192915050565b815160009082906020808601845b838110156117ae5781516001600160a01b031685529382019390820190600101611789565b50929695505050505050565b6020815260006001600160a01b03808451166020840152602084015160c060408501526117ea60e085018261172e565b90506040850151601f19858303016060860152611807828261172e565b915050816060860151166080850152608085015160a085015260a085015160c0850152809250505092915050565b6000602080835260808301845182850152818501516040850152604085015160608086015281815180845260a0870191508483019350600092505b808310156118995783516001600160a01b03168252928401926001929092019190840190611870565b509695505050505050565b604051601f8201601f1916810167ffffffffffffffff811182821017156118cd576118cd611980565b604052919050565b600082198211156118e8576118e8611954565b500190565b6000828210156118ff576118ff611954565b500390565b600181811c9082168061191857607f821691505b602082108114156105cc57634e487b7160e01b600052602260045260246000fd5b600060001982141561194d5761194d611954565b5060010190565b634e487b7160e01b600052601160045260246000fd5b634e487b7160e01b600052603260045260246000fd5b634e487b7160e01b600052604160045260246000fdfea2646970667358221220aa062e01abd35b7f93f1917f8aa4bc7447294d90d04d121a4e7dd08dacf9c0be64736f6c63430008060033",
  "linkReferences": {},
  "deployedLinkReferences": {}
}