{
  "_format": "hh-sol-artifact-1",
  "contractName": "NounsvilleToken",
  "sourceName": "contracts/NounsvilleToken.sol",
  "abi": [
    {
      "inputs": [
        {
          "internalType": "contract INounsDescriptor",
          "name": "_descriptor",
          "type": "address"
        },
        {
          "internalType": "contract INounsSeeder",
          "name": "_seeder",
          "type": "address"
        },
        {
          "internalType": "address",
          "name": "_developer",
          "type": "address"
        },
        {
          "internalType": "address",
          "name": "_committee",
          "type": "address"
        },
        {
          "components": [
            {
              "internalType": "uint256",
              "name": "maxPrice",
              "type": "uint256"
            },
            {
              "internalType": "uint256",
              "name": "minPrice",
              "type": "uint256"
            },
            {
              "internalType": "uint256",
              "name": "priceDelta",
              "type": "uint256"
            },
            {
              "internalType": "uint256",
              "name": "timeDelta",
              "type": "uint256"
            },
            {
              "internalType": "uint256",
              "name": "expirationTime",
              "type": "uint256"
            }
          ],
          "internalType": "struct NounsvilleToken.PriceSeed",
          "name": "_priceSeed",
          "type": "tuple"
        },
        {
          "internalType": "contract IProxyRegistry",
          "name": "_proxyRegistry",
          "type": "address"
        }
      ],
      "stateMutability": "nonpayable",
      "type": "constructor"
    },
    {
      "anonymous": false,
      "inputs": [
        {
          "indexed": true,
          "internalType": "address",
          "name": "owner",
          "type": "address"
        },
        {
          "indexed": true,
          "internalType": "address",
          "name": "approved",
          "type": "address"
        },
        {
          "indexed": true,
          "internalType": "uint256",
          "name": "tokenId",
          "type": "uint256"
        }
      ],
      "name": "Approval",
      "type": "event"
    },
    {
      "anonymous": false,
      "inputs": [
        {
          "indexed": true,
          "internalType": "address",
          "name": "owner",
          "type": "address"
        },
        {
          "indexed": true,
          "internalType": "address",
          "name": "operator",
          "type": "address"
        },
        {
          "indexed": false,
          "internalType": "bool",
          "name": "approved",
          "type": "bool"
        }
      ],
      "name": "ApprovalForAll",
      "type": "event"
    },
    {
      "anonymous": false,
      "inputs": [
        {
          "indexed": true,
          "internalType": "address",
          "name": "delegator",
          "type": "address"
        },
        {
          "indexed": true,
          "internalType": "address",
          "name": "fromDelegate",
          "type": "address"
        },
        {
          "indexed": true,
          "internalType": "address",
          "name": "toDelegate",
          "type": "address"
        }
      ],
      "name": "DelegateChanged",
      "type": "event"
    },
    {
      "anonymous": false,
      "inputs": [
        {
          "indexed": true,
          "internalType": "address",
          "name": "delegate",
          "type": "address"
        },
        {
          "indexed": false,
          "internalType": "uint256",
          "name": "previousBalance",
          "type": "uint256"
        },
        {
          "indexed": false,
          "internalType": "uint256",
          "name": "newBalance",
          "type": "uint256"
        }
      ],
      "name": "DelegateVotesChanged",
      "type": "event"
    },
    {
      "anonymous": false,
      "inputs": [
        {
          "indexed": false,
          "internalType": "uint256",
          "name": "mintTime",
          "type": "uint256"
        }
      ],
      "name": "MintTimeUpdated",
      "type": "event"
    },
    {
      "anonymous": false,
      "inputs": [
        {
          "indexed": true,
          "internalType": "uint256",
          "name": "tokenId",
          "type": "uint256"
        },
        {
          "indexed": false,
          "internalType": "address",
          "name": "newOwner",
          "type": "address"
        }
      ],
      "name": "NounBought",
      "type": "event"
    },
    {
      "anonymous": false,
      "inputs": [
        {
          "indexed": true,
          "internalType": "uint256",
          "name": "tokenId",
          "type": "uint256"
        }
      ],
      "name": "NounBurned",
      "type": "event"
    },
    {
      "anonymous": false,
      "inputs": [
        {
          "indexed": true,
          "internalType": "uint256",
          "name": "tokenId",
          "type": "uint256"
        },
        {
          "components": [
            {
              "internalType": "uint48",
              "name": "background",
              "type": "uint48"
            },
            {
              "internalType": "uint48",
              "name": "body",
              "type": "uint48"
            },
            {
              "internalType": "uint48",
              "name": "accessory",
              "type": "uint48"
            },
            {
              "internalType": "uint48",
              "name": "head",
              "type": "uint48"
            },
            {
              "internalType": "uint48",
              "name": "glasses",
              "type": "uint48"
            }
          ],
          "indexed": false,
          "internalType": "struct INounsSeeder.Seed",
          "name": "seed",
          "type": "tuple"
        }
      ],
      "name": "NounCreated",
      "type": "event"
    },
    {
      "anonymous": false,
      "inputs": [
        {
          "indexed": false,
          "internalType": "address",
          "name": "noundersDAO",
          "type": "address"
        }
      ],
      "name": "NoundersDAOUpdated",
      "type": "event"
    },
    {
      "anonymous": false,
      "inputs": [
        {
          "indexed": true,
          "internalType": "address",
          "name": "previousOwner",
          "type": "address"
        },
        {
          "indexed": true,
          "internalType": "address",
          "name": "newOwner",
          "type": "address"
        }
      ],
      "name": "OwnershipTransferred",
      "type": "event"
    },
    {
      "anonymous": false,
      "inputs": [
        {
          "indexed": true,
          "internalType": "address",
          "name": "from",
          "type": "address"
        },
        {
          "indexed": true,
          "internalType": "address",
          "name": "to",
          "type": "address"
        },
        {
          "indexed": true,
          "internalType": "uint256",
          "name": "tokenId",
          "type": "uint256"
        }
      ],
      "name": "Transfer",
      "type": "event"
    },
    {
      "inputs": [],
      "name": "DELEGATION_TYPEHASH",
      "outputs": [
        {
          "internalType": "bytes32",
          "name": "",
          "type": "bytes32"
        }
      ],
      "stateMutability": "view",
      "type": "function"
    },
    {
      "inputs": [],
      "name": "DOMAIN_TYPEHASH",
      "outputs": [
        {
          "internalType": "bytes32",
          "name": "",
          "type": "bytes32"
        }
      ],
      "stateMutability": "view",
      "type": "function"
    },
    {
      "inputs": [
        {
          "internalType": "address",
          "name": "to",
          "type": "address"
        },
        {
          "internalType": "uint256",
          "name": "tokenId",
          "type": "uint256"
        }
      ],
      "name": "approve",
      "outputs": [],
      "stateMutability": "nonpayable",
      "type": "function"
    },
    {
      "inputs": [
        {
          "internalType": "address",
          "name": "owner",
          "type": "address"
        }
      ],
      "name": "balanceOf",
      "outputs": [
        {
          "internalType": "uint256",
          "name": "",
          "type": "uint256"
        }
      ],
      "stateMutability": "view",
      "type": "function"
    },
    {
      "inputs": [
        {
          "internalType": "uint256",
          "name": "nounId",
          "type": "uint256"
        }
      ],
      "name": "burn",
      "outputs": [],
      "stateMutability": "nonpayable",
      "type": "function"
    },
    {
      "inputs": [],
      "name": "burnExpiredToken",
      "outputs": [],
      "stateMutability": "nonpayable",
      "type": "function"
    },
    {
      "inputs": [
        {
          "internalType": "uint256",
          "name": "tokenId",
          "type": "uint256"
        }
      ],
      "name": "buy",
      "outputs": [
        {
          "internalType": "uint256",
          "name": "",
          "type": "uint256"
        }
      ],
      "stateMutability": "payable",
      "type": "function"
    },
    {
      "inputs": [
        {
          "internalType": "address",
          "name": "",
          "type": "address"
        },
        {
          "internalType": "uint32",
          "name": "",
          "type": "uint32"
        }
      ],
      "name": "checkpoints",
      "outputs": [
        {
          "internalType": "uint32",
          "name": "fromBlock",
          "type": "uint32"
        },
        {
          "internalType": "uint96",
          "name": "votes",
          "type": "uint96"
        }
      ],
      "stateMutability": "view",
      "type": "function"
    },
    {
      "inputs": [],
      "name": "committee",
      "outputs": [
        {
          "internalType": "address",
          "name": "",
          "type": "address"
        }
      ],
      "stateMutability": "view",
      "type": "function"
    },
    {
      "inputs": [
        {
          "internalType": "uint256",
          "name": "tokenId",
          "type": "uint256"
        }
      ],
      "name": "dataURI",
      "outputs": [
        {
          "internalType": "string",
          "name": "",
          "type": "string"
        }
      ],
      "stateMutability": "view",
      "type": "function"
    },
    {
      "inputs": [],
      "name": "decimals",
      "outputs": [
        {
          "internalType": "uint8",
          "name": "",
          "type": "uint8"
        }
      ],
      "stateMutability": "view",
      "type": "function"
    },
    {
      "inputs": [
        {
          "internalType": "address",
          "name": "delegatee",
          "type": "address"
        }
      ],
      "name": "delegate",
      "outputs": [],
      "stateMutability": "nonpayable",
      "type": "function"
    },
    {
      "inputs": [
        {
          "internalType": "address",
          "name": "delegatee",
          "type": "address"
        },
        {
          "internalType": "uint256",
          "name": "nonce",
          "type": "uint256"
        },
        {
          "internalType": "uint256",
          "name": "expiry",
          "type": "uint256"
        },
        {
          "internalType": "uint8",
          "name": "v",
          "type": "uint8"
        },
        {
          "internalType": "bytes32",
          "name": "r",
          "type": "bytes32"
        },
        {
          "internalType": "bytes32",
          "name": "s",
          "type": "bytes32"
        }
      ],
      "name": "delegateBySig",
      "outputs": [],
      "stateMutability": "nonpayable",
      "type": "function"
    },
    {
      "inputs": [
        {
          "internalType": "address",
          "name": "delegator",
          "type": "address"
        }
      ],
      "name": "delegates",
      "outputs": [
        {
          "internalType": "address",
          "name": "",
          "type": "address"
        }
      ],
      "stateMutability": "view",
      "type": "function"
    },
    {
      "inputs": [],
      "name": "descriptor",
      "outputs": [
        {
          "internalType": "contract INounsDescriptor",
          "name": "",
          "type": "address"
        }
      ],
      "stateMutability": "view",
      "type": "function"
    },
    {
      "inputs": [],
      "name": "developer",
      "outputs": [
        {
          "internalType": "address",
          "name": "",
          "type": "address"
        }
      ],
      "stateMutability": "view",
      "type": "function"
    },
    {
      "inputs": [
        {
          "internalType": "uint256",
          "name": "tokenId",
          "type": "uint256"
        }
      ],
      "name": "getApproved",
      "outputs": [
        {
          "internalType": "address",
          "name": "",
          "type": "address"
        }
      ],
      "stateMutability": "view",
      "type": "function"
    },
    {
      "inputs": [],
      "name": "getCurrentToken",
      "outputs": [
        {
          "internalType": "uint256",
          "name": "",
          "type": "uint256"
        }
      ],
      "stateMutability": "view",
      "type": "function"
    },
    {
      "inputs": [
        {
          "internalType": "address",
          "name": "account",
          "type": "address"
        }
      ],
      "name": "getCurrentVotes",
      "outputs": [
        {
          "internalType": "uint96",
          "name": "",
          "type": "uint96"
        }
      ],
      "stateMutability": "view",
      "type": "function"
    },
    {
      "inputs": [],
      "name": "getMintTime",
      "outputs": [
        {
          "internalType": "uint256",
          "name": "",
          "type": "uint256"
        }
      ],
      "stateMutability": "view",
      "type": "function"
    },
    {
      "inputs": [],
      "name": "getPriceData",
      "outputs": [
        {
          "components": [
            {
              "internalType": "uint256",
              "name": "maxPrice",
              "type": "uint256"
            },
            {
              "internalType": "uint256",
              "name": "minPrice",
              "type": "uint256"
            },
            {
              "internalType": "uint256",
              "name": "priceDelta",
              "type": "uint256"
            },
            {
              "internalType": "uint256",
              "name": "timeDelta",
              "type": "uint256"
            },
            {
              "internalType": "uint256",
              "name": "expirationTime",
              "type": "uint256"
            }
          ],
          "internalType": "struct NounsvilleToken.PriceSeed",
          "name": "",
          "type": "tuple"
        }
      ],
      "stateMutability": "view",
      "type": "function"
    },
    {
      "inputs": [
        {
          "internalType": "address",
          "name": "account",
          "type": "address"
        },
        {
          "internalType": "uint256",
          "name": "blockNumber",
          "type": "uint256"
        }
      ],
      "name": "getPriorVotes",
      "outputs": [
        {
          "internalType": "uint96",
          "name": "",
          "type": "uint96"
        }
      ],
      "stateMutability": "view",
      "type": "function"
    },
    {
      "inputs": [
        {
          "internalType": "address",
          "name": "owner",
          "type": "address"
        },
        {
          "internalType": "address",
          "name": "operator",
          "type": "address"
        }
      ],
      "name": "isApprovedForAll",
      "outputs": [
        {
          "internalType": "bool",
          "name": "",
          "type": "bool"
        }
      ],
      "stateMutability": "view",
      "type": "function"
    },
    {
      "inputs": [],
      "name": "mint",
      "outputs": [
        {
          "internalType": "uint256",
          "name": "",
          "type": "uint256"
        }
      ],
      "stateMutability": "nonpayable",
      "type": "function"
    },
    {
      "inputs": [],
      "name": "mintTime",
      "outputs": [
        {
          "internalType": "uint256",
          "name": "",
          "type": "uint256"
        }
      ],
      "stateMutability": "view",
      "type": "function"
    },
    {
      "inputs": [],
      "name": "name",
      "outputs": [
        {
          "internalType": "string",
          "name": "",
          "type": "string"
        }
      ],
      "stateMutability": "view",
      "type": "function"
    },
    {
      "inputs": [
        {
          "internalType": "address",
          "name": "",
          "type": "address"
        }
      ],
      "name": "nonces",
      "outputs": [
        {
          "internalType": "uint256",
          "name": "",
          "type": "uint256"
        }
      ],
      "stateMutability": "view",
      "type": "function"
    },
    {
      "inputs": [
        {
          "internalType": "address",
          "name": "",
          "type": "address"
        }
      ],
      "name": "numCheckpoints",
      "outputs": [
        {
          "internalType": "uint32",
          "name": "",
          "type": "uint32"
        }
      ],
      "stateMutability": "view",
      "type": "function"
    },
    {
      "inputs": [],
      "name": "owner",
      "outputs": [
        {
          "internalType": "address",
          "name": "",
          "type": "address"
        }
      ],
      "stateMutability": "view",
      "type": "function"
    },
    {
      "inputs": [
        {
          "internalType": "uint256",
          "name": "tokenId",
          "type": "uint256"
        }
      ],
      "name": "ownerOf",
      "outputs": [
        {
          "internalType": "address",
          "name": "",
          "type": "address"
        }
      ],
      "stateMutability": "view",
      "type": "function"
    },
    {
      "inputs": [],
      "name": "priceSeed",
      "outputs": [
        {
          "internalType": "uint256",
          "name": "maxPrice",
          "type": "uint256"
        },
        {
          "internalType": "uint256",
          "name": "minPrice",
          "type": "uint256"
        },
        {
          "internalType": "uint256",
          "name": "priceDelta",
          "type": "uint256"
        },
        {
          "internalType": "uint256",
          "name": "timeDelta",
          "type": "uint256"
        },
        {
          "internalType": "uint256",
          "name": "expirationTime",
          "type": "uint256"
        }
      ],
      "stateMutability": "view",
      "type": "function"
    },
    {
      "inputs": [],
      "name": "proxyRegistry",
      "outputs": [
        {
          "internalType": "contract IProxyRegistry",
          "name": "",
          "type": "address"
        }
      ],
      "stateMutability": "view",
      "type": "function"
    },
    {
      "inputs": [],
      "name": "renounceOwnership",
      "outputs": [],
      "stateMutability": "nonpayable",
      "type": "function"
    },
    {
      "inputs": [
        {
          "internalType": "address",
          "name": "from",
          "type": "address"
        },
        {
          "internalType": "address",
          "name": "to",
          "type": "address"
        },
        {
          "internalType": "uint256",
          "name": "tokenId",
          "type": "uint256"
        }
      ],
      "name": "safeTransferFrom",
      "outputs": [],
      "stateMutability": "nonpayable",
      "type": "function"
    },
    {
      "inputs": [
        {
          "internalType": "address",
          "name": "from",
          "type": "address"
        },
        {
          "internalType": "address",
          "name": "to",
          "type": "address"
        },
        {
          "internalType": "uint256",
          "name": "tokenId",
          "type": "uint256"
        },
        {
          "internalType": "bytes",
          "name": "_data",
          "type": "bytes"
        }
      ],
      "name": "safeTransferFrom",
      "outputs": [],
      "stateMutability": "nonpayable",
      "type": "function"
    },
    {
      "inputs": [],
      "name": "seeder",
      "outputs": [
        {
          "internalType": "contract INounsSeeder",
          "name": "",
          "type": "address"
        }
      ],
      "stateMutability": "view",
      "type": "function"
    },
    {
      "inputs": [
        {
          "internalType": "uint256",
          "name": "",
          "type": "uint256"
        }
      ],
      "name": "seeds",
      "outputs": [
        {
          "internalType": "uint48",
          "name": "background",
          "type": "uint48"
        },
        {
          "internalType": "uint48",
          "name": "body",
          "type": "uint48"
        },
        {
          "internalType": "uint48",
          "name": "accessory",
          "type": "uint48"
        },
        {
          "internalType": "uint48",
          "name": "head",
          "type": "uint48"
        },
        {
          "internalType": "uint48",
          "name": "glasses",
          "type": "uint48"
        }
      ],
      "stateMutability": "view",
      "type": "function"
    },
    {
      "inputs": [
        {
          "internalType": "address",
          "name": "operator",
          "type": "address"
        },
        {
          "internalType": "bool",
          "name": "approved",
          "type": "bool"
        }
      ],
      "name": "setApprovalForAll",
      "outputs": [],
      "stateMutability": "nonpayable",
      "type": "function"
    },
    {
      "inputs": [
        {
          "internalType": "address",
          "name": "_committee",
          "type": "address"
        }
      ],
      "name": "setCommittee",
      "outputs": [],
      "stateMutability": "nonpayable",
      "type": "function"
    },
    {
      "inputs": [
        {
          "internalType": "address",
          "name": "_developer",
          "type": "address"
        }
      ],
      "name": "setDeveloper",
      "outputs": [],
      "stateMutability": "nonpayable",
      "type": "function"
    },
    {
      "inputs": [
        {
          "components": [
            {
              "internalType": "uint256",
              "name": "maxPrice",
              "type": "uint256"
            },
            {
              "internalType": "uint256",
              "name": "minPrice",
              "type": "uint256"
            },
            {
              "internalType": "uint256",
              "name": "priceDelta",
              "type": "uint256"
            },
            {
              "internalType": "uint256",
              "name": "timeDelta",
              "type": "uint256"
            },
            {
              "internalType": "uint256",
              "name": "expirationTime",
              "type": "uint256"
            }
          ],
          "internalType": "struct NounsvilleToken.PriceSeed",
          "name": "_priceSeed",
          "type": "tuple"
        }
      ],
      "name": "setPriceData",
      "outputs": [],
      "stateMutability": "nonpayable",
      "type": "function"
    },
    {
      "inputs": [
        {
          "internalType": "bytes4",
          "name": "interfaceId",
          "type": "bytes4"
        }
      ],
      "name": "supportsInterface",
      "outputs": [
        {
          "internalType": "bool",
          "name": "",
          "type": "bool"
        }
      ],
      "stateMutability": "view",
      "type": "function"
    },
    {
      "inputs": [],
      "name": "symbol",
      "outputs": [
        {
          "internalType": "string",
          "name": "",
          "type": "string"
        }
      ],
      "stateMutability": "view",
      "type": "function"
    },
    {
      "inputs": [
        {
          "internalType": "uint256",
          "name": "index",
          "type": "uint256"
        }
      ],
      "name": "tokenByIndex",
      "outputs": [
        {
          "internalType": "uint256",
          "name": "",
          "type": "uint256"
        }
      ],
      "stateMutability": "view",
      "type": "function"
    },
    {
      "inputs": [
        {
          "internalType": "address",
          "name": "owner",
          "type": "address"
        },
        {
          "internalType": "uint256",
          "name": "index",
          "type": "uint256"
        }
      ],
      "name": "tokenOfOwnerByIndex",
      "outputs": [
        {
          "internalType": "uint256",
          "name": "",
          "type": "uint256"
        }
      ],
      "stateMutability": "view",
      "type": "function"
    },
    {
      "inputs": [
        {
          "internalType": "uint256",
          "name": "tokenId",
          "type": "uint256"
        }
      ],
      "name": "tokenPrice",
      "outputs": [
        {
          "internalType": "uint256",
          "name": "",
          "type": "uint256"
        }
      ],
      "stateMutability": "view",
      "type": "function"
    },
    {
      "inputs": [
        {
          "internalType": "uint256",
          "name": "tokenId",
          "type": "uint256"
        }
      ],
      "name": "tokenURI",
      "outputs": [
        {
          "internalType": "string",
          "name": "",
          "type": "string"
        }
      ],
      "stateMutability": "view",
      "type": "function"
    },
    {
      "inputs": [],
      "name": "totalSupply",
      "outputs": [
        {
          "internalType": "uint256",
          "name": "",
          "type": "uint256"
        }
      ],
      "stateMutability": "view",
      "type": "function"
    },
    {
      "inputs": [],
      "name": "transfer",
      "outputs": [],
      "stateMutability": "nonpayable",
      "type": "function"
    },
    {
      "inputs": [
        {
          "internalType": "address",
          "name": "from",
          "type": "address"
        },
        {
          "internalType": "address",
          "name": "to",
          "type": "address"
        },
        {
          "internalType": "uint256",
          "name": "tokenId",
          "type": "uint256"
        }
      ],
      "name": "transferFrom",
      "outputs": [],
      "stateMutability": "nonpayable",
      "type": "function"
    },
    {
      "inputs": [
        {
          "internalType": "address",
          "name": "newOwner",
          "type": "address"
        }
      ],
      "name": "transferOwnership",
      "outputs": [],
      "stateMutability": "nonpayable",
      "type": "function"
    },
    {
      "inputs": [
        {
          "internalType": "address",
          "name": "delegator",
          "type": "address"
        }
      ],
      "name": "votesToDelegate",
      "outputs": [
        {
          "internalType": "uint96",
          "name": "",
          "type": "uint96"
        }
      ],
      "stateMutability": "view",
      "type": "function"
    }
  ],
  "bytecode": "0x60a06040523480156200001157600080fd5b50604051620057ae380380620057ae833981016040819052620000349162000e57565b6040518060400160405280600a8152602001694e6f756e7376696c6c6560b01b8152506040518060400160405280600a8152602001694e4f554e5356494c4c4560b01b815250620000946200008e6200017260201b60201c565b62000176565b8151620000a990600190602085019062000d88565b508051620000bf90600290602084019062000d88565b5050601080546001600160a01b03199081166001600160a01b038a811691909117909255601180548216898416179055601a80548216888416179055600f805490911691861691909117905550606081811b6001600160601b03191660809081528351601555602084015160165560408401516017559083015160185582015160195560138054620001659130919060006200015b8362001169565b90915550620001c6565b50505050505050620011e2565b3390565b600080546001600160a01b038381166001600160a01b0319831681178455604051919092169283917f8be0079c531659141344cd1fd0a4f28419497f9722a3daafe3b4186f6b6457e09190a35050565b60115460105460405163422e2e9960e01b8152600481018490526001600160a01b0391821660248201526000928392169063422e2e999060440160a06040518083038186803b1580156200021957600080fd5b505afa1580156200022e573d6000803e3d6000fd5b505050506040513d601f19601f8201168201806040525081019062000254919062000f26565b6000848152601260209081526040918290208351815485840151868601516060808901516080998a015165ffffffffffff9687166001600160601b0319909616959095176601000000000000948716850217600160601b600160c01b0319166c01000000000000000000000000938716840265ffffffffffff60901b191617600160901b91871682021765ffffffffffff60c01b198116600160c01b9688168702908117988990558a5160a081018c529188169088161781529387048616978401979097529085048416968201969096529383048216948401949094529290049091169181019190915290506200035f620003576000546001600160a01b031690565b8585620003e1565b827f1106ee9d020bfbb5ee34cf5535a5fbf024a011bd130078088cbf124ab309247882604051620003d19190815165ffffffffffff9081168252602080840151821690830152604080840151821690830152606080840151821690830152608092830151169181019190915260a00190565b60405180910390a2509092915050565b6001600160a01b0382166200043d5760405162461bcd60e51b815260206004820181905260248201527f4552433732313a206d696e7420746f20746865207a65726f206164647265737360448201526064015b60405180910390fd5b6000818152600360205260409020546001600160a01b031615620004a45760405162461bcd60e51b815260206004820152601c60248201527f4552433732313a20746f6b656e20616c7265616479206d696e74656400000000604482015260640162000434565b620004b26000838362000561565b6001600160a01b0382166000908152600460205260408120805460019290620004dd9084906200105c565b909155505060008181526003602052604080822080546001600160a01b0319166001600160a01b038681169190911790915590518392918616919060008051602062005757833981519152908290a480826001600160a01b0316846001600160a01b03166000805160206200575783398151915260405160405180910390a4505050565b62000579838383620005a060201b620025341760201c565b6200059b62000588846200067c565b62000593846200067c565b6001620006b0565b505050565b620005b88383836200059b60201b62000e091760201c565b6001600160a01b03831662000616576200061081600980546000838152600a60205260408120829055600182018355919091527f6e1540171b6c0c960b71a7020d9f60077f6af931a8bbf590da0223dacf75c7af0155565b6200063c565b816001600160a01b0316836001600160a01b0316146200063c576200063c83826200087c565b6001600160a01b03821662000656576200059b8162000929565b826001600160a01b0316826001600160a01b0316146200059b576200059b8282620009e3565b6001600160a01b038082166000908152600b60205260408120549091168015620006a75780620006a9565b825b9392505050565b816001600160a01b0316836001600160a01b031614158015620006dc57506000816001600160601b0316115b156200059b576001600160a01b03831615620007ad576001600160a01b0383166000908152600d602052604081205463ffffffff169081620007205760006200076f565b6001600160a01b0385166000908152600c602052604081209062000746600185620010e1565b63ffffffff16815260208101919091526040016000205464010000000090046001600160601b03165b90506000620007998285604051806060016040528060378152602001620057776037913962000a34565b9050620007a98684848462000a83565b5050505b6001600160a01b038216156200059b576001600160a01b0382166000908152600d602052604081205463ffffffff169081620007eb5760006200083a565b6001600160a01b0384166000908152600c602052604081209062000811600185620010e1565b63ffffffff16815260208101919091526040016000205464010000000090046001600160601b03165b90506000620008648285604051806060016040528060368152602001620056dd6036913962000c7a565b9050620008748584848462000a83565b505050505050565b60006001620008968462000ccc60201b620014fa1760201c565b620008a29190620010c7565b600083815260086020526040902054909150808214620008f6576001600160a01b03841660009081526007602090815260408083208584528252808320548484528184208190558352600890915290208190555b5060009182526008602090815260408084208490556001600160a01b039094168352600781528383209183525290812055565b6009546000906200093d90600190620010c7565b6000838152600a602052604081205460098054939450909284908110620009685762000968620011b3565b9060005260206000200154905080600983815481106200098c576200098c620011b3565b6000918252602080832090910192909255828152600a90915260408082208490558582528120556009805480620009c757620009c76200119d565b6001900381819060005260206000200160009055905550505050565b6000620009fb8362000ccc60201b620014fa1760201c565b6001600160a01b039093166000908152600760209081526040808320868452825280832085905593825260089052919091209190915550565b6000836001600160601b0316836001600160601b03161115829062000a6e5760405162461bcd60e51b815260040162000434919062000fcd565b5062000a7b838562001109565b949350505050565b600062000aaa43604051806080016040528060448152602001620057136044913962000d55565b905060008463ffffffff1611801562000b0757506001600160a01b0385166000908152600c6020526040812063ffffffff83169162000aeb600188620010e1565b63ffffffff908116825260208201929092526040016000205416145b1562000b7a576001600160a01b0385166000908152600c60205260408120839162000b34600188620010e1565b63ffffffff168152602081019190915260400160002080546001600160601b039290921664010000000002600160201b600160801b031990921691909117905562000c25565b60408051808201825263ffffffff80841682526001600160601b0380861660208085019182526001600160a01b038b166000908152600c82528681208b8616825290915294909420925183549451909116640100000000026001600160801b031990941691161791909117905562000bf484600162001077565b6001600160a01b0386166000908152600d60205260409020805463ffffffff191663ffffffff929092169190911790555b604080516001600160601b038086168252841660208201526001600160a01b038716917fdec2bacdd2f05b59de34da9b523dff8be42e5e38e818c82fdb0bae774387a724910160405180910390a25050505050565b60008062000c898486620010a2565b9050846001600160601b0316816001600160601b03161015839062000cc35760405162461bcd60e51b815260040162000434919062000fcd565b50949350505050565b60006001600160a01b03821662000d395760405162461bcd60e51b815260206004820152602a60248201527f4552433732313a2062616c616e636520717565727920666f7220746865207a65604482015269726f206164647265737360b01b606482015260840162000434565b506001600160a01b031660009081526004602052604090205490565b600081640100000000841062000d805760405162461bcd60e51b815260040162000434919062000fcd565b509192915050565b82805462000d96906200112c565b90600052602060002090601f01602090048101928262000dba576000855562000e05565b82601f1062000dd557805160ff191683800117855562000e05565b8280016001018555821562000e05579182015b8281111562000e0557825182559160200191906001019062000de8565b5062000e1392915062000e17565b5090565b5b8082111562000e13576000815560010162000e18565b805162000e3b81620011c9565b919050565b805165ffffffffffff8116811462000e3b57600080fd5b60008060008060008086880361014081121562000e7357600080fd5b875162000e8081620011c9565b602089015190975062000e9381620011c9565b604089015190965062000ea681620011c9565b606089015190955062000eb981620011c9565b935060a0607f198201121562000ece57600080fd5b5062000ed962001025565b608088810151825260a0890151602083015260c0890151604083015260e0890151606083015261010089015190820152915062000f1a610120880162000e2e565b90509295509295509295565b600060a0828403121562000f3957600080fd5b60405160a081016001600160401b038111828210171562000f6a57634e487b7160e01b600052604160045260246000fd5b60405262000f788362000e40565b815262000f886020840162000e40565b602082015262000f9b6040840162000e40565b604082015262000fae6060840162000e40565b606082015262000fc16080840162000e40565b60808201529392505050565b600060208083528351808285015260005b8181101562000ffc5785810183015185820160400152820162000fde565b818111156200100f576000604083870101525b50601f01601f1916929092016040019392505050565b60405160a081016001600160401b03811182821017156200105657634e487b7160e01b600052604160045260246000fd5b60405290565b6000821982111562001072576200107262001187565b500190565b600063ffffffff80831681851680830382111562001099576200109962001187565b01949350505050565b60006001600160601b0382811684821680830382111562001099576200109962001187565b600082821015620010dc57620010dc62001187565b500390565b600063ffffffff8381169083168181101562001101576200110162001187565b039392505050565b60006001600160601b038381169083168181101562001101576200110162001187565b600181811c908216806200114157607f821691505b602082108114156200116357634e487b7160e01b600052602260045260246000fd5b50919050565b600060001982141562001180576200118062001187565b5060010190565b634e487b7160e01b600052601160045260246000fd5b634e487b7160e01b600052603160045260246000fd5b634e487b7160e01b600052603260045260246000fd5b6001600160a01b0381168114620011df57600080fd5b50565b60805160601c6144d56200120860003960008181610866015261231a01526144d56000f3fe60806040526004361061033f5760003560e01c80637ecebe00116101b0578063c87b56dd116100ec578063e9580e9111610095578063f0503e801161006f578063f0503e8014610a04578063f1127ed814610ab7578063f2fde38b14610b2c578063ff70fa4914610b4c57600080fd5b8063e9580e91146109af578063e985e9c5146109cf578063ef2d1746146109ef57600080fd5b8063d864e740116100c6578063d864e74014610948578063d96a094a14610968578063e7a324dc1461097b57600080fd5b8063c87b56dd146108e8578063ca4b208b14610908578063d4ddce8a1461092857600080fd5b8063a22cb46511610159578063b50cbd9f11610133578063b50cbd9f14610854578063b88d4fde14610888578063bddae40e146108a8578063c3cda520146108c857600080fd5b8063a22cb465146107bd578063a4a28168146107dd578063b4b5ea571461083457600080fd5b80638a4068dd1161018a5780638a4068dd146107755780638da5cb5b1461078a57806395d89b41146107a857600080fd5b80637ecebe0014610712578063864781221461073f578063864a28ec1461075557600080fd5b8063313ce5671161027f5780635c19a95c116102285780636fcfff45116102025780636fcfff451461065d57806370a08231146106a5578063715018a6146106c5578063782d6fe1146106da57600080fd5b80635c19a95c146105fd5780636352211e1461061d578063684931ed1461063d57600080fd5b80634f6ccce7116102595780634f6ccce71461059d578063587cde1e146105bd5780635ac1e3bb146105dd57600080fd5b8063313ce5671461053657806342842e0e1461055d57806342966c681461057d57600080fd5b80631249c58b116102ec57806323b872dd116102c657806323b872dd146104c15780632f745c59146104e1578063303e74df146105015780633053ea2b1461052157600080fd5b80631249c58b1461046357806318160ddd1461047857806320606b701461048d57600080fd5b806306fdde031161031d57806306fdde03146103e7578063081812fc14610409578063095ea7b31461044157600080fd5b806301ffc9a714610344578063026833c71461037957806303e65c96146103c8575b600080fd5b34801561035057600080fd5b5061036461035f366004613dd0565b610b6c565b60405190151581526020015b60405180910390f35b34801561038557600080fd5b506015546016546017546018546019546103a0949392919085565b604080519586526020860194909452928401919091526060830152608082015260a001610370565b3480156103d457600080fd5b506014545b604051908152602001610370565b3480156103f357600080fd5b506103fc610bb0565b604051610370919061406a565b34801561041557600080fd5b50610429610424366004613f38565b610c42565b6040516001600160a01b039091168152602001610370565b34801561044d57600080fd5b5061046161045c366004613d0b565b610cdc565b005b34801561046f57600080fd5b506103d9610e0e565b34801561048457600080fd5b506009546103d9565b34801561049957600080fd5b506103d97f8cad95687ba82c2ce50e74f7b754645e5117c3a5bec8151c0726d5857980a86681565b3480156104cd57600080fd5b506104616104dc366004613be8565b610f46565b3480156104ed57600080fd5b506103d96104fc366004613d0b565b610fcd565b34801561050d57600080fd5b50601054610429906001600160a01b031681565b34801561052d57600080fd5b50610461611075565b34801561054257600080fd5b5061054b600081565b60405160ff9091168152602001610370565b34801561056957600080fd5b50610461610578366004613be8565b6110b1565b34801561058957600080fd5b50610461610598366004613f38565b6110cc565b3480156105a957600080fd5b506103d96105b8366004613f38565b6111f6565b3480156105c957600080fd5b506104296105d8366004613b75565b61129a565b3480156105e957600080fd5b506103fc6105f8366004613f38565b6112cc565b34801561060957600080fd5b50610461610618366004613b75565b611451565b34801561062957600080fd5b50610429610638366004613f38565b61146f565b34801561064957600080fd5b50601154610429906001600160a01b031681565b34801561066957600080fd5b50610690610678366004613b75565b600d6020526000908152604090205463ffffffff1681565b60405163ffffffff9091168152602001610370565b3480156106b157600080fd5b506103d96106c0366004613b75565b6114fa565b3480156106d157600080fd5b50610461611594565b3480156106e657600080fd5b506106fa6106f5366004613d0b565b6115fa565b6040516001600160601b039091168152602001610370565b34801561071e57600080fd5b506103d961072d366004613b75565b600e6020526000908152604090205481565b34801561074b57600080fd5b506103d960145481565b34801561076157600080fd5b50610461610770366004613e78565b61189a565b34801561078157600080fd5b50610461611994565b34801561079657600080fd5b506000546001600160a01b0316610429565b3480156107b457600080fd5b506103fc611a29565b3480156107c957600080fd5b506104616107d8366004613cd8565b611a38565b3480156107e957600080fd5b506107f2611afd565b6040516103709190600060a082019050825182526020830151602083015260408301516040830152606083015160608301526080830151608083015292915050565b34801561084057600080fd5b506106fa61084f366004613b75565b611b64565b34801561086057600080fd5b506104297f000000000000000000000000000000000000000000000000000000000000000081565b34801561089457600080fd5b506104616108a3366004613c29565b611be2565b3480156108b457600080fd5b506104616108c3366004613b75565b611c70565b3480156108d457600080fd5b506104616108e3366004613d37565b611cec565b3480156108f457600080fd5b506103fc610903366004613f38565b61201e565b34801561091457600080fd5b50601a54610429906001600160a01b031681565b34801561093457600080fd5b506103d9610943366004613f38565b6120a2565b34801561095457600080fd5b50600f54610429906001600160a01b031681565b6103d9610976366004613f38565b61212d565b34801561098757600080fd5b506103d97fe48329057bfd03d55e49b547132e39cffd9c1820ad7b9d4c5307691425d15adf81565b3480156109bb57600080fd5b506106fa6109ca366004613b75565b6122af565b3480156109db57600080fd5b506103646109ea366004613baf565b6122db565b3480156109fb57600080fd5b506013546103d9565b348015610a1057600080fd5b50610a7e610a1f366004613f38565b60126020526000908152604090205465ffffffffffff80821691660100000000000081048216916c01000000000000000000000000820481169172010000000000000000000000000000000000008104821691600160c01b9091041685565b6040805165ffffffffffff968716815294861660208601529285169284019290925283166060830152909116608082015260a001610370565b348015610ac357600080fd5b50610b08610ad2366004613d99565b600c60209081526000928352604080842090915290825290205463ffffffff81169064010000000090046001600160601b031682565b6040805163ffffffff90931683526001600160601b03909116602083015201610370565b348015610b3857600080fd5b50610461610b47366004613b75565b6123d9565b348015610b5857600080fd5b50610461610b67366004613b75565b6124b8565b60006001600160e01b031982167f780e9d63000000000000000000000000000000000000000000000000000000001480610baa5750610baa826125ec565b92915050565b606060018054610bbf906142ae565b80601f0160208091040260200160405190810160405280929190818152602001828054610beb906142ae565b8015610c385780601f10610c0d57610100808354040283529160200191610c38565b820191906000526020600020905b815481529060010190602001808311610c1b57829003601f168201915b5050505050905090565b6000818152600360205260408120546001600160a01b0316610cc05760405162461bcd60e51b815260206004820152602c60248201527f4552433732313a20617070726f76656420717565727920666f72206e6f6e657860448201526b34b9ba32b73a103a37b5b2b760a11b60648201526084015b60405180910390fd5b506000908152600560205260409020546001600160a01b031690565b6000610ce78261146f565b9050806001600160a01b0316836001600160a01b03161415610d715760405162461bcd60e51b815260206004820152602160248201527f4552433732313a20617070726f76616c20746f2063757272656e74206f776e6560448201527f72000000000000000000000000000000000000000000000000000000000000006064820152608401610cb7565b336001600160a01b0382161480610d8d5750610d8d81336122db565b610dff5760405162461bcd60e51b815260206004820152603860248201527f4552433732313a20617070726f76652063616c6c6572206973206e6f74206f7760448201527f6e6572206e6f7220617070726f76656420666f7220616c6c00000000000000006064820152608401610cb7565b610e098383612687565b505050565b6000806001601354610e209190614226565b90506000610e2d8261146f565b9050336001600160a01b0382163014610e885760405162461bcd60e51b815260206004820152601960248201527f4f776e6572206973206e6f742074686520636f6e7472616374000000000000006044820152606401610cb7565b610e91336114fa565b15610ede5760405162461bcd60e51b815260206004820152601560248201527f596f7520616c72656164792068617665206f6e652e00000000000000000000006044820152606401610cb7565b6000838152601b6020526040812055610ef733846126f5565b6040516001600160a01b038216815283907ff3919fe9a709ec82fb9fd1c54a2af7cf717bfe52a6c9b1f1ed8ea42d52ba392f9060200160405180910390a2610f3e306128a1565b935050505090565b610f5033826128ff565b610fc25760405162461bcd60e51b815260206004820152603160248201527f4552433732313a207472616e736665722063616c6c6572206973206e6f74206f60448201527f776e6572206e6f7220617070726f7665640000000000000000000000000000006064820152608401610cb7565b610e098383836129d6565b6000610fd8836114fa565b821061104c5760405162461bcd60e51b815260206004820152602b60248201527f455243373231456e756d657261626c653a206f776e657220696e646578206f7560448201527f74206f6620626f756e64730000000000000000000000000000000000000000006064820152608401610cb7565b506001600160a01b03919091166000908152600760209081526040808320938352929052205490565b6000601454426110859190614226565b6019549091508111156110a4576110a460016013546105989190614226565b6110ad306128a1565b5050565b610e0983838360405180602001604052806000815250611be2565b6000546001600160a01b031633146111265760405162461bcd60e51b815260206004820181905260248201527f4f776e61626c653a2063616c6c6572206973206e6f7420746865206f776e65726044820152606401610cb7565b6000818152600360205260409020546001600160a01b031661119e5760405162461bcd60e51b815260206004820152602b60248201527f4e6f756e73546f6b656e3a2055524920717565727920666f72206e6f6e65786960448201526a39ba32b73a103a37b5b2b760a91b6064820152608401610cb7565b8060016013546111ae9190614226565b14156111bf576111bd306128a1565b505b6111c881612b95565b60405181907f806be94a2ac8b92d74e99aa8add5a8e54528a01ec914a9e00d201a6480ed986390600090a250565b600061120160095490565b82106112755760405162461bcd60e51b815260206004820152602c60248201527f455243373231456e756d657261626c653a20676c6f62616c20696e646578206f60448201527f7574206f6620626f756e647300000000000000000000000000000000000000006064820152608401610cb7565b600982815481106112885761128861435a565b90600052602060002001549050919050565b6001600160a01b038082166000908152600b602052604081205490911680156112c357806112c5565b825b9392505050565b6000818152600360205260409020546060906001600160a01b03166113475760405162461bcd60e51b815260206004820152602b60248201527f4e6f756e73546f6b656e3a2055524920717565727920666f72206e6f6e65786960448201526a39ba32b73a103a37b5b2b760a91b6064820152608401610cb7565b600061135283612c3c565b90506000816040516020016113679190613f7d565b604051602081830303815290604052905060008260405160200161138b9190613faf565b60408051601f1981840301815282825260105460008981526012602052929092207f87db11bd0000000000000000000000000000000000000000000000000000000084529093506001600160a01b03909116916387db11bd916113f4918691869160040161407d565b60006040518083038186803b15801561140c57600080fd5b505afa158015611420573d6000803e3d6000fd5b505050506040513d6000823e601f3d908101601f191682016040526114489190810190613e0a565b95945050505050565b6001600160a01b0381166114625750335b61146c3382612d6e565b50565b6000818152600360205260408120546001600160a01b031680610baa5760405162461bcd60e51b815260206004820152602960248201527f4552433732313a206f776e657220717565727920666f72206e6f6e657869737460448201527f656e7420746f6b656e00000000000000000000000000000000000000000000006064820152608401610cb7565b60006001600160a01b0382166115785760405162461bcd60e51b815260206004820152602a60248201527f4552433732313a2062616c616e636520717565727920666f7220746865207a6560448201527f726f2061646472657373000000000000000000000000000000000000000000006064820152608401610cb7565b506001600160a01b031660009081526004602052604090205490565b6000546001600160a01b031633146115ee5760405162461bcd60e51b815260206004820181905260248201527f4f776e61626c653a2063616c6c6572206973206e6f7420746865206f776e65726044820152606401610cb7565b6115f86000612dee565b565b60004382106116715760405162461bcd60e51b815260206004820152603760248201527f455243373231436865636b706f696e7461626c653a3a6765745072696f72566f60448201527f7465733a206e6f74207965742064657465726d696e65640000000000000000006064820152608401610cb7565b6001600160a01b0383166000908152600d602052604090205463ffffffff168061169f576000915050610baa565b6001600160a01b0384166000908152600c6020526040812084916116c460018561423d565b63ffffffff90811682526020820192909252604001600020541611611738576001600160a01b0384166000908152600c602052604081209061170760018461423d565b63ffffffff16815260208101919091526040016000205464010000000090046001600160601b03169150610baa9050565b6001600160a01b0384166000908152600c6020908152604080832083805290915290205463ffffffff16831015611773576000915050610baa565b60008061178160018461423d565b90505b8163ffffffff168163ffffffff16111561185457600060026117a6848461423d565b6117b091906141e4565b6117ba908361423d565b6001600160a01b0388166000908152600c6020908152604080832063ffffffff8581168552908352928190208151808301909252549283168082526401000000009093046001600160601b03169181019190915291925087141561182857602001519450610baa9350505050565b805163ffffffff1687111561183f5781935061184d565b61184a60018361423d565b92505b5050611784565b506001600160a01b0385166000908152600c6020908152604080832063ffffffff909416835292905220546001600160601b036401000000009091041691505092915050565b6000546001600160a01b031633146118f45760405162461bcd60e51b815260206004820181905260248201527f4f776e61626c653a2063616c6c6572206973206e6f7420746865206f776e65726044820152606401610cb7565b602081015181511161196e5760405162461bcd60e51b815260206004820152602760248201527f4d6178207072696365206d757374206265206c6172676572207468616e204d6960448201527f6e205072696365000000000000000000000000000000000000000000000000006064820152608401610cb7565b805160155560208101516016556040810151601755606081015160185560800151601955565b6000546001600160a01b031633146119ee5760405162461bcd60e51b815260206004820181905260248201527f4f776e61626c653a2063616c6c6572206973206e6f7420746865206f776e65726044820152606401610cb7565b600f546040516001600160a01b039091169081904780156108fc02916000818181858888f193505050501580156110ad573d6000803e3d6000fd5b606060028054610bbf906142ae565b6001600160a01b038216331415611a915760405162461bcd60e51b815260206004820152601960248201527f4552433732313a20617070726f766520746f2063616c6c6572000000000000006044820152606401610cb7565b3360008181526006602090815260408083206001600160a01b03871680855290835292819020805460ff191686151590811790915590519081529192917f17307eab39ab6107e8899845ad3d59bd9653f200f220920489ca2b5937696c31910160405180910390a35050565b611b2f6040518060a0016040528060008152602001600081526020016000815260200160008152602001600081525090565b506040805160a08101825260155481526016546020820152601754918101919091526018546060820152601954608082015290565b6001600160a01b0381166000908152600d602052604081205463ffffffff1680611b8f5760006112c5565b6001600160a01b0383166000908152600c6020526040812090611bb360018461423d565b63ffffffff16815260208101919091526040016000205464010000000090046001600160601b03169392505050565b611bec33836128ff565b611c5e5760405162461bcd60e51b815260206004820152603160248201527f4552433732313a207472616e736665722063616c6c6572206973206e6f74206f60448201527f776e6572206e6f7220617070726f7665640000000000000000000000000000006064820152608401610cb7565b611c6a84848484612e3e565b50505050565b6000546001600160a01b03163314611cca5760405162461bcd60e51b815260206004820181905260248201527f4f776e61626c653a2063616c6c6572206973206e6f7420746865206f776e65726044820152606401610cb7565b600f80546001600160a01b0319166001600160a01b0392909216919091179055565b60007f8cad95687ba82c2ce50e74f7b754645e5117c3a5bec8151c0726d5857980a866611d17610bb0565b80519060200120611d254690565b60408051602080820195909552808201939093526060830191909152306080808401919091528151808403909101815260a0830182528051908401207fe48329057bfd03d55e49b547132e39cffd9c1820ad7b9d4c5307691425d15adf60c08401526001600160a01b038b1660e084015261010083018a90526101208084018a9052825180850390910181526101408401909252815191909301207f1901000000000000000000000000000000000000000000000000000000000000610160830152610162820183905261018282018190529192506000906101a20160408051601f198184030181528282528051602091820120600080855291840180845281905260ff8a169284019290925260608301889052608083018790529092509060019060a0016020604051602081039080840390855afa158015611e6c573d6000803e3d6000fd5b5050604051601f1901519150506001600160a01b038116611ef55760405162461bcd60e51b815260206004820152603660248201527f455243373231436865636b706f696e7461626c653a3a64656c6567617465427960448201527f5369673a20696e76616c6964207369676e6174757265000000000000000000006064820152608401610cb7565b6001600160a01b0381166000908152600e60205260408120805491611f19836142e9565b919050558914611f915760405162461bcd60e51b815260206004820152603260248201527f455243373231436865636b706f696e7461626c653a3a64656c6567617465427960448201527f5369673a20696e76616c6964206e6f6e636500000000000000000000000000006064820152608401610cb7565b874211156120075760405162461bcd60e51b815260206004820152603660248201527f455243373231436865636b706f696e7461626c653a3a64656c6567617465427960448201527f5369673a207369676e61747572652065787069726564000000000000000000006064820152608401610cb7565b612011818b612d6e565b505050505b505050505050565b6000818152600360205260409020546060906001600160a01b03166120995760405162461bcd60e51b815260206004820152602b60248201527f4e6f756e73546f6b656e3a2055524920717565727920666f72206e6f6e65786960448201526a39ba32b73a103a37b5b2b760a91b6064820152608401610cb7565b610baa826112cc565b6000818152600360205260408120546001600160a01b031661211a5760405162461bcd60e51b815260206004820152602b60248201527f4e6f756e73546f6b656e3a2055524920717565727920666f72206e6f6e65786960448201526a39ba32b73a103a37b5b2b760a91b6064820152608401610cb7565b506000908152601b602052604090205490565b6000806121398361146f565b9050336000612146612ec7565b90506001600160a01b03831630146121a05760405162461bcd60e51b815260206004820152601960248201527f4f776e6572206973206e6f742074686520636f6e7472616374000000000000006044820152606401610cb7565b60016013546121af9190614226565b85146121fd5760405162461bcd60e51b815260206004820152600f60248201527f4e6f74206c6174657374204e6f756e00000000000000000000000000000000006044820152606401610cb7565b8034101561224d5760405162461bcd60e51b815260206004820152601f60248201527f4d7573742073656e64206174206c656173742063757272656e745072696365006044820152606401610cb7565b6000858152601b6020526040902034905561226882866126f5565b6040516001600160a01b038316815285907ff3919fe9a709ec82fb9fd1c54a2af7cf717bfe52a6c9b1f1ed8ea42d52ba392f9060200160405180910390a2611448306128a1565b6000610baa6122bd836114fa565b6040518060600160405280603d815260200161442c603d9139612f42565b6040517fc45527910000000000000000000000000000000000000000000000000000000081526001600160a01b038381166004830152600091818416917f0000000000000000000000000000000000000000000000000000000000000000169063c45527919060240160206040518083038186803b15801561235c57600080fd5b505afa158015612370573d6000803e3d6000fd5b505050506040513d601f19601f820116820180604052508101906123949190613b92565b6001600160a01b031614156123ab57506001610baa565b6001600160a01b0380841660009081526006602090815260408083209386168352929052205460ff166112c5565b6000546001600160a01b031633146124335760405162461bcd60e51b815260206004820181905260248201527f4f776e61626c653a2063616c6c6572206973206e6f7420746865206f776e65726044820152606401610cb7565b6001600160a01b0381166124af5760405162461bcd60e51b815260206004820152602660248201527f4f776e61626c653a206e6577206f776e657220697320746865207a65726f206160448201527f64647265737300000000000000000000000000000000000000000000000000006064820152608401610cb7565b61146c81612dee565b6000546001600160a01b031633146125125760405162461bcd60e51b815260206004820181905260248201527f4f776e61626c653a2063616c6c6572206973206e6f7420746865206f776e65726044820152606401610cb7565b601a80546001600160a01b0319166001600160a01b0392909216919091179055565b6001600160a01b03831661258f5761258a81600980546000838152600a60205260408120829055600182018355919091527f6e1540171b6c0c960b71a7020d9f60077f6af931a8bbf590da0223dacf75c7af0155565b6125b2565b816001600160a01b0316836001600160a01b0316146125b2576125b28382612f7a565b6001600160a01b0382166125c957610e0981613017565b826001600160a01b0316826001600160a01b031614610e0957610e0982826130c6565b60006001600160e01b031982167f80ac58cd00000000000000000000000000000000000000000000000000000000148061264f57506001600160e01b031982167f5b5e139f00000000000000000000000000000000000000000000000000000000145b80610baa57507f01ffc9a7000000000000000000000000000000000000000000000000000000006001600160e01b0319831614610baa565b600081815260056020526040902080546001600160a01b0319166001600160a01b03841690811790915581906126bc8261146f565b6001600160a01b03167f8c5be1e5ebec7d5bd14f71427d1e84f3dd0314c0f7b2291e5b200ac8c7c3b92560405160405180910390a45050565b30806127008361146f565b6001600160a01b03161461277c5760405162461bcd60e51b815260206004820152602d60248201527f4552433732313a207472616e73666572206f6620746f6b656e2074686174206960448201527f73206e6f742061646472657373000000000000000000000000000000000000006064820152608401610cb7565b6001600160a01b0383166127de5760405162461bcd60e51b8152602060048201526024808201527f4552433732313a207472616e7366657220746f20746865207a65726f206164646044820152637265737360e01b6064820152608401610cb7565b6127e981848461310a565b6001600160a01b0381166000908152600460205260408120805460019290612812908490614226565b90915550506001600160a01b038316600090815260046020526040812080546001929061284090849061416e565b909155505060008281526003602052604080822080546001600160a01b0319166001600160a01b0387811691821790925591518593918516917fddf252ad1be2c89b69c2b068fc378daa952ba7f163c4a11628f55a4df523b3ef91a4505050565b6000600a6013546128b29190614304565b6128e157601a54601380546128df926001600160a01b03169160006128d6836142e9565b91905055613131565b505b6128e96133a9565b60138054610baa9184919060006128d6836142e9565b6000818152600360205260408120546001600160a01b03166129785760405162461bcd60e51b815260206004820152602c60248201527f4552433732313a206f70657261746f7220717565727920666f72206e6f6e657860448201526b34b9ba32b73a103a37b5b2b760a11b6064820152608401610cb7565b60006129838361146f565b9050806001600160a01b0316846001600160a01b031614806129be5750836001600160a01b03166129b384610c42565b6001600160a01b0316145b806129ce57506129ce81856122db565b949350505050565b826001600160a01b03166129e98261146f565b6001600160a01b031614612a655760405162461bcd60e51b815260206004820152602960248201527f4552433732313a207472616e73666572206f6620746f6b656e2074686174206960448201527f73206e6f74206f776e00000000000000000000000000000000000000000000006064820152608401610cb7565b6001600160a01b038216612ac75760405162461bcd60e51b8152602060048201526024808201527f4552433732313a207472616e7366657220746f20746865207a65726f206164646044820152637265737360e01b6064820152608401610cb7565b612ad283838361310a565b612add600082612687565b6001600160a01b0383166000908152600460205260408120805460019290612b06908490614226565b90915550506001600160a01b0382166000908152600460205260408120805460019290612b3490849061416e565b909155505060008181526003602052604080822080546001600160a01b0319166001600160a01b0386811691821790925591518493918716917fddf252ad1be2c89b69c2b068fc378daa952ba7f163c4a11628f55a4df523b3ef91a4505050565b6000612ba08261146f565b9050612bae8160008461310a565b612bb9600083612687565b6001600160a01b0381166000908152600460205260408120805460019290612be2908490614226565b909155505060008281526003602052604080822080546001600160a01b0319169055518391906001600160a01b038416907fddf252ad1be2c89b69c2b068fc378daa952ba7f163c4a11628f55a4df523b3ef908390a45050565b606081612c7c57505060408051808201909152600181527f3000000000000000000000000000000000000000000000000000000000000000602082015290565b8160005b8115612ca65780612c90816142e9565b9150612c9f9050600a836141d0565b9150612c80565b60008167ffffffffffffffff811115612cc157612cc1614370565b6040519080825280601f01601f191660200182016040528015612ceb576020820181803683370190505b5090505b84156129ce57612d00600183614226565b9150612d0d600a86614304565b612d1890603061416e565b60f81b818381518110612d2d57612d2d61435a565b60200101907effffffffffffffffffffffffffffffffffffffffffffffffffffffffffffff1916908160001a905350612d67600a866141d0565b9450612cef565b6000612d798361129a565b6001600160a01b038481166000818152600b602052604080822080546001600160a01b031916888616908117909155905194955093928516927f3134e8a2e6d97e929a7e54011ea5485d7d196dd5f0ba4d4ef95803e8e3fc257f9190a46000612de1846122af565b9050611c6a8284836133e4565b600080546001600160a01b038381166001600160a01b0319831681178455604051919092169283917f8be0079c531659141344cd1fd0a4f28419497f9722a3daafe3b4186f6b6457e09190a35050565b612e498484846129d6565b612e5584848484613592565b611c6a5760405162461bcd60e51b815260206004820152603260248201527f4552433732313a207472616e7366657220746f206e6f6e20455243373231526560448201527f63656976657220696d706c656d656e74657200000000000000000000000000006064820152608401610cb7565b60008060145442612ed89190614226565b601854909150811015612eed57505060155490565b60175460185460009190612f0190846141d0565b612f0b9190614207565b601654601554919250612f1d91614226565b8110612f2d575050601654919050565b601554612f3b908290614226565b9250505090565b6000816c010000000000000000000000008410612f725760405162461bcd60e51b8152600401610cb7919061406a565b509192915050565b60006001612f87846114fa565b612f919190614226565b600083815260086020526040902054909150808214612fe4576001600160a01b03841660009081526007602090815260408083208584528252808320548484528184208190558352600890915290208190555b5060009182526008602090815260408084208490556001600160a01b039094168352600781528383209183525290812055565b60095460009061302990600190614226565b6000838152600a6020526040812054600980549394509092849081106130515761305161435a565b9060005260206000200154905080600983815481106130725761307261435a565b6000918252602080832090910192909255828152600a909152604080822084905585825281205560098054806130aa576130aa614344565b6001900381819060005260206000200160009055905550505050565b60006130d1836114fa565b6001600160a01b039093166000908152600760209081526040808320868452825280832085905593825260089052919091209190915550565b613115838383612534565b610e096131218461129a565b61312a8461129a565b60016133e4565b6011546010546040517f422e2e99000000000000000000000000000000000000000000000000000000008152600481018490526001600160a01b0391821660248201526000928392169063422e2e999060440160a06040518083038186803b15801561319c57600080fd5b505afa1580156131b0573d6000803e3d6000fd5b505050506040513d601f19601f820116820180604052508101906131d49190613ec8565b60008481526012602090815260408083208451815486850151878501516060808a015160809a8b015165ffffffffffff9687166bffffffffffffffffffffffff199096169590951766010000000000009487168502177fffffffffffffffff000000000000000000000000ffffffffffffffffffffffff166c0100000000000000000000000093871684027fffffffffffffffff000000000000ffffffffffffffffffffffffffffffffffff161772010000000000000000000000000000000000009187168202177fffff000000000000ffffffffffffffffffffffffffffffffffffffffffffffff8116600160c01b968816870290811798899055895160a081018b52918816908816178152938704861698840198909852908504841695820195909552948304821693850193909352919004169281019290925254909150613328906001600160a01b031685856136f5565b827f1106ee9d020bfbb5ee34cf5535a5fbf024a011bd130078088cbf124ab3092478826040516133999190815165ffffffffffff9081168252602080840151821690830152604080840151821690830152606080840151821690830152608092830151169181019190915260a00190565b60405180910390a2509092915050565b4260148190556040519081527f821964bd9a1d2293691ad21ae7e91848254493a40c1c13fc88e032e6a14a94c99060200160405180910390a1565b816001600160a01b0316836001600160a01b03161415801561340f57506000816001600160601b0316115b15610e09576001600160a01b038316156134d5576001600160a01b0383166000908152600d602052604081205463ffffffff16908161344f57600061349c565b6001600160a01b0385166000908152600c602052604081209061347360018561423d565b63ffffffff16815260208101919091526040016000205464010000000090046001600160601b03165b905060006134c382856040518060600160405280603781526020016144696037913961388b565b90506134d1868484846138cd565b5050505b6001600160a01b03821615610e09576001600160a01b0382166000908152600d602052604081205463ffffffff16908161351057600061355d565b6001600160a01b0384166000908152600c602052604081209061353460018561423d565b63ffffffff16815260208101919091526040016000205464010000000090046001600160601b03165b9050600061358482856040518060600160405280603681526020016143b260369139613ae5565b9050612016858484846138cd565b60006001600160a01b0384163b156136ea57604051630a85bd0160e11b81526001600160a01b0385169063150b7a02906135d690339089908890889060040161402e565b602060405180830381600087803b1580156135f057600080fd5b505af1925050508015613620575060408051601f3d908101601f1916820190925261361d91810190613ded565b60015b6136d0573d80801561364e576040519150601f19603f3d011682016040523d82523d6000602084013e613653565b606091505b5080516136c85760405162461bcd60e51b815260206004820152603260248201527f4552433732313a207472616e7366657220746f206e6f6e20455243373231526560448201527f63656976657220696d706c656d656e74657200000000000000000000000000006064820152608401610cb7565b805181602001fd5b6001600160e01b031916630a85bd0160e11b1490506129ce565b506001949350505050565b6001600160a01b03821661374b5760405162461bcd60e51b815260206004820181905260248201527f4552433732313a206d696e7420746f20746865207a65726f20616464726573736044820152606401610cb7565b6000818152600360205260409020546001600160a01b0316156137b05760405162461bcd60e51b815260206004820152601c60248201527f4552433732313a20746f6b656e20616c7265616479206d696e746564000000006044820152606401610cb7565b6137bc6000838361310a565b6001600160a01b03821660009081526004602052604081208054600192906137e590849061416e565b909155505060008181526003602052604080822080546001600160a01b0319166001600160a01b03868116919091179091559051839291861691907fddf252ad1be2c89b69c2b068fc378daa952ba7f163c4a11628f55a4df523b3ef908290a480826001600160a01b0316846001600160a01b03167fddf252ad1be2c89b69c2b068fc378daa952ba7f163c4a11628f55a4df523b3ef60405160405180910390a4505050565b6000836001600160601b0316836001600160601b0316111582906138c25760405162461bcd60e51b8152600401610cb7919061406a565b506129ce8385614262565b60006138f1436040518060800160405280604481526020016143e860449139613b32565b905060008463ffffffff1611801561394b57506001600160a01b0385166000908152600c6020526040812063ffffffff83169161392f60018861423d565b63ffffffff908116825260208201929092526040016000205416145b156139cf576001600160a01b0385166000908152600c60205260408120839161397560018861423d565b63ffffffff168152602081019190915260400160002080546001600160601b0392909216640100000000027fffffffffffffffffffffffffffffffff000000000000000000000000ffffffff909216919091179055613a90565b60408051808201825263ffffffff80841682526001600160601b0380861660208085019182526001600160a01b038b166000908152600c82528681208b8616825290915294909420925183549451909116640100000000027fffffffffffffffffffffffffffffffff00000000000000000000000000000000909416911617919091179055613a5f846001614186565b6001600160a01b0386166000908152600d60205260409020805463ffffffff191663ffffffff929092169190911790555b604080516001600160601b038086168252841660208201526001600160a01b038716917fdec2bacdd2f05b59de34da9b523dff8be42e5e38e818c82fdb0bae774387a724910160405180910390a25050505050565b600080613af284866141ae565b9050846001600160601b0316816001600160601b031610158390613b295760405162461bcd60e51b8152600401610cb7919061406a565b50949350505050565b6000816401000000008410612f725760405162461bcd60e51b8152600401610cb7919061406a565b805165ffffffffffff81168114613b7057600080fd5b919050565b600060208284031215613b8757600080fd5b81356112c581614386565b600060208284031215613ba457600080fd5b81516112c581614386565b60008060408385031215613bc257600080fd5b8235613bcd81614386565b91506020830135613bdd81614386565b809150509250929050565b600080600060608486031215613bfd57600080fd5b8335613c0881614386565b92506020840135613c1881614386565b929592945050506040919091013590565b60008060008060808587031215613c3f57600080fd5b8435613c4a81614386565b93506020850135613c5a81614386565b925060408501359150606085013567ffffffffffffffff811115613c7d57600080fd5b8501601f81018713613c8e57600080fd5b8035613ca1613c9c82614146565b614115565b818152886020838501011115613cb657600080fd5b8160208401602083013760006020838301015280935050505092959194509250565b60008060408385031215613ceb57600080fd5b8235613cf681614386565b915060208301358015158114613bdd57600080fd5b60008060408385031215613d1e57600080fd5b8235613d2981614386565b946020939093013593505050565b60008060008060008060c08789031215613d5057600080fd5b8635613d5b81614386565b95506020870135945060408701359350606087013560ff81168114613d7f57600080fd5b9598949750929560808101359460a0909101359350915050565b60008060408385031215613dac57600080fd5b8235613db781614386565b9150602083013563ffffffff81168114613bdd57600080fd5b600060208284031215613de257600080fd5b81356112c58161439b565b600060208284031215613dff57600080fd5b81516112c58161439b565b600060208284031215613e1c57600080fd5b815167ffffffffffffffff811115613e3357600080fd5b8201601f81018413613e4457600080fd5b8051613e52613c9c82614146565b818152856020838501011115613e6757600080fd5b611448826020830160208601614282565b600060a08284031215613e8a57600080fd5b613e926140ec565b82358152602083013560208201526040830135604082015260608301356060820152608083013560808201528091505092915050565b600060a08284031215613eda57600080fd5b613ee26140ec565b613eeb83613b5a565b8152613ef960208401613b5a565b6020820152613f0a60408401613b5a565b6040820152613f1b60608401613b5a565b6060820152613f2c60808401613b5a565b60808201529392505050565b600060208284031215613f4a57600080fd5b5035919050565b60008151808452613f69816020860160208601614282565b601f01601f19169290920160200192915050565b6902737bab73b34b63632960b51b815260008251613fa281600a850160208701614282565b91909101600a0192915050565b6902737bab73b34b63632960b51b815260008251613fd481600a850160208701614282565b7f20697320612066756e206f6620746865204e6f756e732044414f20616e64204e600a9390910192830152507f6f756e732041727420466573746976616c000000000000000000000000000000602a820152603b01919050565b60006001600160a01b038087168352808616602084015250836040830152608060608301526140606080830184613f51565b9695505050505050565b6020815260006112c56020830184613f51565b60e08152600061409060e0830186613f51565b82810360208401526140a28186613f51565b915050825465ffffffffffff8082166040850152808260301c166060850152808260601c166080850152808260901c1660a0850152808260c01c1660c08501525050949350505050565b60405160a0810167ffffffffffffffff8111828210171561410f5761410f614370565b60405290565b604051601f8201601f1916810167ffffffffffffffff8111828210171561413e5761413e614370565b604052919050565b600067ffffffffffffffff82111561416057614160614370565b50601f01601f191660200190565b6000821982111561418157614181614318565b500190565b600063ffffffff8083168185168083038211156141a5576141a5614318565b01949350505050565b60006001600160601b038083168185168083038211156141a5576141a5614318565b6000826141df576141df61432e565b500490565b600063ffffffff808416806141fb576141fb61432e565b92169190910492915050565b600081600019048311821515161561422157614221614318565b500290565b60008282101561423857614238614318565b500390565b600063ffffffff8381169083168181101561425a5761425a614318565b039392505050565b60006001600160601b038381169083168181101561425a5761425a614318565b60005b8381101561429d578181015183820152602001614285565b83811115611c6a5750506000910152565b600181811c908216806142c257607f821691505b602082108114156142e357634e487b7160e01b600052602260045260246000fd5b50919050565b60006000198214156142fd576142fd614318565b5060010190565b6000826143135761431361432e565b500690565b634e487b7160e01b600052601160045260246000fd5b634e487b7160e01b600052601260045260246000fd5b634e487b7160e01b600052603160045260246000fd5b634e487b7160e01b600052603260045260246000fd5b634e487b7160e01b600052604160045260246000fd5b6001600160a01b038116811461146c57600080fd5b6001600160e01b03198116811461146c57600080fdfe455243373231436865636b706f696e7461626c653a3a5f6d6f766544656c6567617465733a20616d6f756e74206f766572666c6f7773455243373231436865636b706f696e7461626c653a3a5f7772697465436865636b706f696e743a20626c6f636b206e756d62657220657863656564732033322062697473455243373231436865636b706f696e7461626c653a3a766f746573546f44656c65676174653a20616d6f756e7420657863656564732039362062697473455243373231436865636b706f696e7461626c653a3a5f6d6f766544656c6567617465733a20616d6f756e7420756e646572666c6f7773a2646970667358221220768288d2ea67d37600018ba2d3894c1ecfa419a1e024e73bacbd86592bac605d64736f6c63430008060033455243373231436865636b706f696e7461626c653a3a5f6d6f766544656c6567617465733a20616d6f756e74206f766572666c6f7773455243373231436865636b706f696e7461626c653a3a5f7772697465436865636b706f696e743a20626c6f636b206e756d62657220657863656564732033322062697473ddf252ad1be2c89b69c2b068fc378daa952ba7f163c4a11628f55a4df523b3ef455243373231436865636b706f696e7461626c653a3a5f6d6f766544656c6567617465733a20616d6f756e7420756e646572666c6f7773",
  "linkReferences": {},
  "deployedLinkReferences": {}
}