{
  "_format": "hh-sol-artifact-1",
  "contractName": "PrideSquiggle",
  "sourceName": "contracts/PrideSquiggle.sol",
  "abi": [
    {
      "inputs": [
        {
          "internalType": "uint256",
          "name": "_limit",
          "type": "uint256"
        },
        {
          "internalType": "address",
          "name": "_developer",
          "type": "address"
        },
        {
          "internalType": "contract IProxyRegistry",
          "name": "_proxyRegistry",
          "type": "address"
        }
      ],
      "stateMutability": "nonpayable",
      "type": "constructor"
    },
    {
      "anonymous": false,
      "inputs": [
        {
          "indexed": true,
          "internalType": "address",
          "name": "owner",
          "type": "address"
        },
        {
          "indexed": true,
          "internalType": "address",
          "name": "approved",
          "type": "address"
        },
        {
          "indexed": true,
          "internalType": "uint256",
          "name": "tokenId",
          "type": "uint256"
        }
      ],
      "name": "Approval",
      "type": "event"
    },
    {
      "anonymous": false,
      "inputs": [
        {
          "indexed": true,
          "internalType": "address",
          "name": "owner",
          "type": "address"
        },
        {
          "indexed": true,
          "internalType": "address",
          "name": "operator",
          "type": "address"
        },
        {
          "indexed": false,
          "internalType": "bool",
          "name": "approved",
          "type": "bool"
        }
      ],
      "name": "ApprovalForAll",
      "type": "event"
    },
    {
      "anonymous": false,
      "inputs": [
        {
          "indexed": false,
          "internalType": "uint256",
          "name": "mintTime",
          "type": "uint256"
        }
      ],
      "name": "MintTimeUpdated",
      "type": "event"
    },
    {
      "anonymous": false,
      "inputs": [
        {
          "indexed": true,
          "internalType": "uint256",
          "name": "tokenId",
          "type": "uint256"
        },
        {
          "indexed": false,
          "internalType": "address",
          "name": "newOwner",
          "type": "address"
        }
      ],
      "name": "NounBought",
      "type": "event"
    },
    {
      "anonymous": false,
      "inputs": [
        {
          "indexed": true,
          "internalType": "uint256",
          "name": "tokenId",
          "type": "uint256"
        }
      ],
      "name": "NounBurned",
      "type": "event"
    },
    {
      "anonymous": false,
      "inputs": [
        {
          "indexed": true,
          "internalType": "uint256",
          "name": "tokenId",
          "type": "uint256"
        },
        {
          "components": [
            {
              "internalType": "uint48",
              "name": "background",
              "type": "uint48"
            },
            {
              "internalType": "uint48",
              "name": "body",
              "type": "uint48"
            },
            {
              "internalType": "uint48",
              "name": "accessory",
              "type": "uint48"
            },
            {
              "internalType": "uint48",
              "name": "head",
              "type": "uint48"
            },
            {
              "internalType": "uint48",
              "name": "glasses",
              "type": "uint48"
            }
          ],
          "indexed": false,
          "internalType": "struct INounsSeeder.Seed",
          "name": "seed",
          "type": "tuple"
        }
      ],
      "name": "NounCreated",
      "type": "event"
    },
    {
      "anonymous": false,
      "inputs": [
        {
          "indexed": false,
          "internalType": "address",
          "name": "noundersDAO",
          "type": "address"
        }
      ],
      "name": "NoundersDAOUpdated",
      "type": "event"
    },
    {
      "anonymous": false,
      "inputs": [
        {
          "indexed": true,
          "internalType": "address",
          "name": "previousOwner",
          "type": "address"
        },
        {
          "indexed": true,
          "internalType": "address",
          "name": "newOwner",
          "type": "address"
        }
      ],
      "name": "OwnershipTransferred",
      "type": "event"
    },
    {
      "anonymous": false,
      "inputs": [
        {
          "indexed": true,
          "internalType": "address",
          "name": "from",
          "type": "address"
        },
        {
          "indexed": true,
          "internalType": "address",
          "name": "to",
          "type": "address"
        },
        {
          "indexed": true,
          "internalType": "uint256",
          "name": "tokenId",
          "type": "uint256"
        }
      ],
      "name": "Transfer",
      "type": "event"
    },
    {
      "inputs": [
        {
          "internalType": "address",
          "name": "to",
          "type": "address"
        },
        {
          "internalType": "uint256",
          "name": "tokenId",
          "type": "uint256"
        }
      ],
      "name": "approve",
      "outputs": [],
      "stateMutability": "nonpayable",
      "type": "function"
    },
    {
      "inputs": [
        {
          "internalType": "address",
          "name": "owner",
          "type": "address"
        }
      ],
      "name": "balanceOf",
      "outputs": [
        {
          "internalType": "uint256",
          "name": "",
          "type": "uint256"
        }
      ],
      "stateMutability": "view",
      "type": "function"
    },
    {
      "inputs": [
        {
          "internalType": "uint256",
          "name": "nounId",
          "type": "uint256"
        }
      ],
      "name": "burn",
      "outputs": [],
      "stateMutability": "nonpayable",
      "type": "function"
    },
    {
      "inputs": [
        {
          "internalType": "uint256",
          "name": "tokenId",
          "type": "uint256"
        }
      ],
      "name": "dataURI",
      "outputs": [
        {
          "internalType": "string",
          "name": "",
          "type": "string"
        }
      ],
      "stateMutability": "view",
      "type": "function"
    },
    {
      "inputs": [],
      "name": "description",
      "outputs": [
        {
          "internalType": "string",
          "name": "",
          "type": "string"
        }
      ],
      "stateMutability": "view",
      "type": "function"
    },
    {
      "inputs": [],
      "name": "developer",
      "outputs": [
        {
          "internalType": "address",
          "name": "",
          "type": "address"
        }
      ],
      "stateMutability": "view",
      "type": "function"
    },
    {
      "inputs": [
        {
          "internalType": "uint256",
          "name": "tokenId",
          "type": "uint256"
        }
      ],
      "name": "generateSVG",
      "outputs": [
        {
          "internalType": "string",
          "name": "",
          "type": "string"
        }
      ],
      "stateMutability": "pure",
      "type": "function"
    },
    {
      "inputs": [
        {
          "internalType": "uint256",
          "name": "tokenId",
          "type": "uint256"
        }
      ],
      "name": "getApproved",
      "outputs": [
        {
          "internalType": "address",
          "name": "",
          "type": "address"
        }
      ],
      "stateMutability": "view",
      "type": "function"
    },
    {
      "inputs": [],
      "name": "getCurrentToken",
      "outputs": [
        {
          "internalType": "uint256",
          "name": "",
          "type": "uint256"
        }
      ],
      "stateMutability": "view",
      "type": "function"
    },
    {
      "inputs": [
        {
          "internalType": "address",
          "name": "owner",
          "type": "address"
        },
        {
          "internalType": "address",
          "name": "operator",
          "type": "address"
        }
      ],
      "name": "isApprovedForAll",
      "outputs": [
        {
          "internalType": "bool",
          "name": "",
          "type": "bool"
        }
      ],
      "stateMutability": "view",
      "type": "function"
    },
    {
      "inputs": [],
      "name": "limit",
      "outputs": [
        {
          "internalType": "uint256",
          "name": "",
          "type": "uint256"
        }
      ],
      "stateMutability": "view",
      "type": "function"
    },
    {
      "inputs": [],
      "name": "mint",
      "outputs": [
        {
          "internalType": "uint256",
          "name": "",
          "type": "uint256"
        }
      ],
      "stateMutability": "nonpayable",
      "type": "function"
    },
    {
      "inputs": [],
      "name": "name",
      "outputs": [
        {
          "internalType": "string",
          "name": "",
          "type": "string"
        }
      ],
      "stateMutability": "view",
      "type": "function"
    },
    {
      "inputs": [],
      "name": "owner",
      "outputs": [
        {
          "internalType": "address",
          "name": "",
          "type": "address"
        }
      ],
      "stateMutability": "view",
      "type": "function"
    },
    {
      "inputs": [
        {
          "internalType": "uint256",
          "name": "tokenId",
          "type": "uint256"
        }
      ],
      "name": "ownerOf",
      "outputs": [
        {
          "internalType": "address",
          "name": "",
          "type": "address"
        }
      ],
      "stateMutability": "view",
      "type": "function"
    },
    {
      "inputs": [],
      "name": "proxyRegistry",
      "outputs": [
        {
          "internalType": "contract IProxyRegistry",
          "name": "",
          "type": "address"
        }
      ],
      "stateMutability": "view",
      "type": "function"
    },
    {
      "inputs": [],
      "name": "renounceOwnership",
      "outputs": [],
      "stateMutability": "nonpayable",
      "type": "function"
    },
    {
      "inputs": [
        {
          "internalType": "address",
          "name": "from",
          "type": "address"
        },
        {
          "internalType": "address",
          "name": "to",
          "type": "address"
        },
        {
          "internalType": "uint256",
          "name": "tokenId",
          "type": "uint256"
        }
      ],
      "name": "safeTransferFrom",
      "outputs": [],
      "stateMutability": "nonpayable",
      "type": "function"
    },
    {
      "inputs": [
        {
          "internalType": "address",
          "name": "from",
          "type": "address"
        },
        {
          "internalType": "address",
          "name": "to",
          "type": "address"
        },
        {
          "internalType": "uint256",
          "name": "tokenId",
          "type": "uint256"
        },
        {
          "internalType": "bytes",
          "name": "_data",
          "type": "bytes"
        }
      ],
      "name": "safeTransferFrom",
      "outputs": [],
      "stateMutability": "nonpayable",
      "type": "function"
    },
    {
      "inputs": [
        {
          "internalType": "address",
          "name": "operator",
          "type": "address"
        },
        {
          "internalType": "bool",
          "name": "approved",
          "type": "bool"
        }
      ],
      "name": "setApprovalForAll",
      "outputs": [],
      "stateMutability": "nonpayable",
      "type": "function"
    },
    {
      "inputs": [
        {
          "internalType": "string",
          "name": "_description",
          "type": "string"
        }
      ],
      "name": "setDescription",
      "outputs": [],
      "stateMutability": "nonpayable",
      "type": "function"
    },
    {
      "inputs": [
        {
          "internalType": "address",
          "name": "_developer",
          "type": "address"
        }
      ],
      "name": "setDeveloper",
      "outputs": [],
      "stateMutability": "nonpayable",
      "type": "function"
    },
    {
      "inputs": [
        {
          "internalType": "uint256",
          "name": "_limit",
          "type": "uint256"
        }
      ],
      "name": "setLimit",
      "outputs": [],
      "stateMutability": "nonpayable",
      "type": "function"
    },
    {
      "inputs": [
        {
          "internalType": "bytes4",
          "name": "interfaceId",
          "type": "bytes4"
        }
      ],
      "name": "supportsInterface",
      "outputs": [
        {
          "internalType": "bool",
          "name": "",
          "type": "bool"
        }
      ],
      "stateMutability": "view",
      "type": "function"
    },
    {
      "inputs": [],
      "name": "symbol",
      "outputs": [
        {
          "internalType": "string",
          "name": "",
          "type": "string"
        }
      ],
      "stateMutability": "view",
      "type": "function"
    },
    {
      "inputs": [
        {
          "internalType": "uint256",
          "name": "index",
          "type": "uint256"
        }
      ],
      "name": "tokenByIndex",
      "outputs": [
        {
          "internalType": "uint256",
          "name": "",
          "type": "uint256"
        }
      ],
      "stateMutability": "view",
      "type": "function"
    },
    {
      "inputs": [
        {
          "internalType": "address",
          "name": "owner",
          "type": "address"
        },
        {
          "internalType": "uint256",
          "name": "index",
          "type": "uint256"
        }
      ],
      "name": "tokenOfOwnerByIndex",
      "outputs": [
        {
          "internalType": "uint256",
          "name": "",
          "type": "uint256"
        }
      ],
      "stateMutability": "view",
      "type": "function"
    },
    {
      "inputs": [
        {
          "internalType": "uint256",
          "name": "tokenId",
          "type": "uint256"
        }
      ],
      "name": "tokenURI",
      "outputs": [
        {
          "internalType": "string",
          "name": "",
          "type": "string"
        }
      ],
      "stateMutability": "view",
      "type": "function"
    },
    {
      "inputs": [],
      "name": "totalSupply",
      "outputs": [
        {
          "internalType": "uint256",
          "name": "",
          "type": "uint256"
        }
      ],
      "stateMutability": "view",
      "type": "function"
    },
    {
      "inputs": [
        {
          "internalType": "address",
          "name": "from",
          "type": "address"
        },
        {
          "internalType": "address",
          "name": "to",
          "type": "address"
        },
        {
          "internalType": "uint256",
          "name": "tokenId",
          "type": "uint256"
        }
      ],
      "name": "transferFrom",
      "outputs": [],
      "stateMutability": "nonpayable",
      "type": "function"
    },
    {
      "inputs": [
        {
          "internalType": "address",
          "name": "newOwner",
          "type": "address"
        }
      ],
      "name": "transferOwnership",
      "outputs": [],
      "stateMutability": "nonpayable",
      "type": "function"
    }
  ],
  "bytecode": "0x60e0604052601c60a08190527f43656c6562726174696e67205072696465204d6f6e746820323032320000000060c09081526200004091600e9190620001a7565b503480156200004e57600080fd5b506040516200383b3803806200383b83398101604081905262000071916200024d565b6040518060400160405280601381526020017f5072696465205371756967676c652032303232000000000000000000000000008152506040518060400160405280600f81526020016e282924a222a9a8aaa4a3a3a622991960891b815250620000e9620000e36200015360201b60201c565b62000157565b8151620000fe906001906020850190620001a7565b50805162000114906002906020840190620001a7565b505050600d92909255600c80546001600160a01b0319166001600160a01b039290921691909117905560601b6001600160601b031916608052620002eb565b3390565b600080546001600160a01b038381166001600160a01b0319831681178455604051919092169283917f8be0079c531659141344cd1fd0a4f28419497f9722a3daafe3b4186f6b6457e09190a35050565b828054620001b59062000295565b90600052602060002090601f016020900481019282620001d9576000855562000224565b82601f10620001f457805160ff191683800117855562000224565b8280016001018555821562000224579182015b828111156200022457825182559160200191906001019062000207565b506200023292915062000236565b5090565b5b8082111562000232576000815560010162000237565b6000806000606084860312156200026357600080fd5b8351925060208401516200027781620002d2565b60408501519092506200028a81620002d2565b809150509250925092565b600181811c90821680620002aa57607f821691505b60208210811415620002cc57634e487b7160e01b600052602260045260246000fd5b50919050565b6001600160a01b0381168114620002e857600080fd5b50565b60805160601c61352a62000311600039600081816103a001526110f6015261352a6000f3fe608060405234801561001057600080fd5b50600436106101e55760003560e01c806370a082311161010f578063b50cbd9f116100a2578063e985e9c511610071578063e985e9c5146103fb578063ef2d17461461040e578063f2fde38b14610416578063ff70fa491461042957600080fd5b8063b50cbd9f1461039b578063b88d4fde146103c2578063c87b56dd146103d5578063ca4b208b146103e857600080fd5b806390c3f38f116100de57806390c3f38f1461036457806395d89b4114610377578063a22cb4651461037f578063a4d66daf1461039257600080fd5b806370a0823114610330578063715018a6146103435780637284e4161461034b5780638da5cb5b1461035357600080fd5b806327ea6f2b116101875780634f6ccce7116101565780634f6ccce7146102e45780635ac1e3bb146102f75780636352211e1461030a5780636dcee4ca1461031d57600080fd5b806327ea6f2b146102985780632f745c59146102ab57806342842e0e146102be57806342966c68146102d157600080fd5b8063095ea7b3116101c3578063095ea7b3146102525780631249c58b1461026757806318160ddd1461027d57806323b872dd1461028557600080fd5b806301ffc9a7146101ea57806306fdde0314610212578063081812fc14610227575b600080fd5b6101fd6101f83660046128a8565b61043c565b60405190151581526020015b60405180910390f35b61021a610480565b6040516102099190613310565b61023a61023536600461292b565b610512565b6040516001600160a01b039091168152602001610209565b61026561026036600461287c565b6105ac565b005b61026f6106de565b604051908152602001610209565b60095461026f565b610265610293366004612788565b61084a565b6102656102a636600461292b565b6108d1565b61026f6102b936600461287c565b610930565b6102656102cc366004612788565b6109d8565b6102656102df36600461292b565b6109f3565b61026f6102f236600461292b565b610ae8565b61021a61030536600461292b565b610b8c565b61023a61031836600461292b565b610cb5565b61021a61032b36600461292b565b610d40565b61026f61033e366004612715565b610d4b565b610265610de5565b61021a610e4b565b6000546001600160a01b031661023a565b6102656103723660046128e2565b610ed9565b61021a610f4a565b61026561038d366004612849565b610f59565b61026f600d5481565b61023a7f000000000000000000000000000000000000000000000000000000000000000081565b6102656103d03660046127c9565b61101e565b61021a6103e336600461292b565b6110ac565b600c5461023a906001600160a01b031681565b6101fd61040936600461274f565b6110b7565b600b5461026f565b610265610424366004612715565b6111b8565b610265610437366004612715565b61129a565b60006001600160e01b031982167f780e9d6300000000000000000000000000000000000000000000000000000000148061047a575061047a82611316565b92915050565b60606001805461048f906133b1565b80601f01602080910402602001604051908101604052809291908181526020018280546104bb906133b1565b80156105085780601f106104dd57610100808354040283529160200191610508565b820191906000526020600020905b8154815290600101906020018083116104eb57829003601f168201915b5050505050905090565b6000818152600360205260408120546001600160a01b03166105905760405162461bcd60e51b815260206004820152602c60248201527f4552433732313a20617070726f76656420717565727920666f72206e6f6e657860448201526b34b9ba32b73a103a37b5b2b760a11b60648201526084015b60405180910390fd5b506000908152600560205260409020546001600160a01b031690565b60006105b782610cb5565b9050806001600160a01b0316836001600160a01b031614156106415760405162461bcd60e51b815260206004820152602160248201527f4552433732313a20617070726f76616c20746f2063757272656e74206f776e6560448201527f72000000000000000000000000000000000000000000000000000000000000006064820152608401610587565b336001600160a01b038216148061065d575061065d81336110b7565b6106cf5760405162461bcd60e51b815260206004820152603860248201527f4552433732313a20617070726f76652063616c6c6572206973206e6f74206f7760448201527f6e6572206e6f7220617070726f76656420666f7220616c6c00000000000000006064820152608401610587565b6106d983836113b1565b505050565b60006106e933610d4b565b156107365760405162461bcd60e51b815260206004820152601560248201527f596f7520616c72656164792068617665206f6e652e00000000000000000000006044820152606401610587565b600d54600b54106107895760405162461bcd60e51b815260206004820152600960248201527f536f6c64206f75742e00000000000000000000000000000000000000000000006044820152606401610587565b6014600b546107989190613407565b600214156107dd576107dd6107b56000546001600160a01b031690565b600c54600b80546001600160a01b03909216919060006107d4836133ec565b9190505561141f565b600b8054600091826107ee836133ec565b9190505590506108106108096000546001600160a01b031690565b338361141f565b60405133815281907ff3919fe9a709ec82fb9fd1c54a2af7cf717bfe52a6c9b1f1ed8ea42d52ba392f9060200160405180910390a2919050565b61085433826115b5565b6108c65760405162461bcd60e51b815260206004820152603160248201527f4552433732313a207472616e736665722063616c6c6572206973206e6f74206f60448201527f776e6572206e6f7220617070726f7665640000000000000000000000000000006064820152608401610587565b6106d983838361168c565b6000546001600160a01b0316331461092b5760405162461bcd60e51b815260206004820181905260248201527f4f776e61626c653a2063616c6c6572206973206e6f7420746865206f776e65726044820152606401610587565b600d55565b600061093b83610d4b565b82106109af5760405162461bcd60e51b815260206004820152602b60248201527f455243373231456e756d657261626c653a206f776e657220696e646578206f7560448201527f74206f6620626f756e64730000000000000000000000000000000000000000006064820152608401610587565b506001600160a01b03919091166000908152600760209081526040808320938352929052205490565b6106d98383836040518060200160405280600081525061101e565b6000546001600160a01b03163314610a4d5760405162461bcd60e51b815260206004820181905260248201527f4f776e61626c653a2063616c6c6572206973206e6f7420746865206f776e65726044820152606401610587565b6000818152600360205260409020546001600160a01b0316610ab15760405162461bcd60e51b815260206004820152601f60248201527f55524920717565727920666f72206e6f6e6578697374656e7420746f6b656e006044820152606401610587565b610aba81611864565b60405181907f806be94a2ac8b92d74e99aa8add5a8e54528a01ec914a9e00d201a6480ed986390600090a250565b6000610af360095490565b8210610b675760405162461bcd60e51b815260206004820152602c60248201527f455243373231456e756d657261626c653a20676c6f62616c20696e646578206f60448201527f7574206f6620626f756e647300000000000000000000000000000000000000006064820152608401610587565b60098281548110610b7a57610b7a61345d565b90600052602060002001549050919050565b6000818152600360205260409020546060906001600160a01b0316610c195760405162461bcd60e51b815260206004820152602b60248201527f4e6f756e73546f6b656e3a2055524920717565727920666f72206e6f6e65786960448201527f7374656e7420746f6b656e0000000000000000000000000000000000000000006064820152608401610587565b6000610c248361190b565b9050600081604051602001610c39919061328f565b60405160208183030381529060405290506000610c5d610c5886611a3d565b611b36565b9050610c8c82600e83604051602001610c7893929190612a4a565b604051602081830303815290604052611b36565b604051602001610c9c919061324a565b6040516020818303038152906040529350505050919050565b6000818152600360205260408120546001600160a01b03168061047a5760405162461bcd60e51b815260206004820152602960248201527f4552433732313a206f776e657220717565727920666f72206e6f6e657869737460448201527f656e7420746f6b656e00000000000000000000000000000000000000000000006064820152608401610587565b606061047a82611a3d565b60006001600160a01b038216610dc95760405162461bcd60e51b815260206004820152602a60248201527f4552433732313a2062616c616e636520717565727920666f7220746865207a6560448201527f726f2061646472657373000000000000000000000000000000000000000000006064820152608401610587565b506001600160a01b031660009081526004602052604090205490565b6000546001600160a01b03163314610e3f5760405162461bcd60e51b815260206004820181905260248201527f4f776e61626c653a2063616c6c6572206973206e6f7420746865206f776e65726044820152606401610587565b610e496000611cd3565b565b600e8054610e58906133b1565b80601f0160208091040260200160405190810160405280929190818152602001828054610e84906133b1565b8015610ed15780601f10610ea657610100808354040283529160200191610ed1565b820191906000526020600020905b815481529060010190602001808311610eb457829003601f168201915b505050505081565b6000546001600160a01b03163314610f335760405162461bcd60e51b815260206004820181905260248201527f4f776e61626c653a2063616c6c6572206973206e6f7420746865206f776e65726044820152606401610587565b8051610f4690600e9060208401906125cc565b5050565b60606002805461048f906133b1565b6001600160a01b038216331415610fb25760405162461bcd60e51b815260206004820152601960248201527f4552433732313a20617070726f766520746f2063616c6c6572000000000000006044820152606401610587565b3360008181526006602090815260408083206001600160a01b03871680855290835292819020805460ff191686151590811790915590519081529192917f17307eab39ab6107e8899845ad3d59bd9653f200f220920489ca2b5937696c31910160405180910390a35050565b61102833836115b5565b61109a5760405162461bcd60e51b815260206004820152603160248201527f4552433732313a207472616e736665722063616c6c6572206973206e6f74206f60448201527f776e6572206e6f7220617070726f7665640000000000000000000000000000006064820152608401610587565b6110a684848484611d23565b50505050565b606061047a82610b8c565b6040517fc45527910000000000000000000000000000000000000000000000000000000081526001600160a01b038381166004830152600091818416917f0000000000000000000000000000000000000000000000000000000000000000169063c45527919060240160206040518083038186803b15801561113857600080fd5b505afa15801561114c573d6000803e3d6000fd5b505050506040513d601f19601f820116820180604052508101906111709190612732565b6001600160a01b031614156111875750600161047a565b6001600160a01b0380841660009081526006602090815260408083209386168352929052205460ff165b9392505050565b6000546001600160a01b031633146112125760405162461bcd60e51b815260206004820181905260248201527f4f776e61626c653a2063616c6c6572206973206e6f7420746865206f776e65726044820152606401610587565b6001600160a01b03811661128e5760405162461bcd60e51b815260206004820152602660248201527f4f776e61626c653a206e6577206f776e657220697320746865207a65726f206160448201527f64647265737300000000000000000000000000000000000000000000000000006064820152608401610587565b61129781611cd3565b50565b6000546001600160a01b031633146112f45760405162461bcd60e51b815260206004820181905260248201527f4f776e61626c653a2063616c6c6572206973206e6f7420746865206f776e65726044820152606401610587565b600c80546001600160a01b0319166001600160a01b0392909216919091179055565b60006001600160e01b031982167f80ac58cd00000000000000000000000000000000000000000000000000000000148061137957506001600160e01b031982167f5b5e139f00000000000000000000000000000000000000000000000000000000145b8061047a57507f01ffc9a7000000000000000000000000000000000000000000000000000000006001600160e01b031983161461047a565b600081815260056020526040902080546001600160a01b0319166001600160a01b03841690811790915581906113e682610cb5565b6001600160a01b03167f8c5be1e5ebec7d5bd14f71427d1e84f3dd0314c0f7b2291e5b200ac8c7c3b92560405160405180910390a45050565b6001600160a01b0382166114755760405162461bcd60e51b815260206004820181905260248201527f4552433732313a206d696e7420746f20746865207a65726f20616464726573736044820152606401610587565b6000818152600360205260409020546001600160a01b0316156114da5760405162461bcd60e51b815260206004820152601c60248201527f4552433732313a20746f6b656e20616c7265616479206d696e746564000000006044820152606401610587565b6114e660008383611dac565b6001600160a01b038216600090815260046020526040812080546001929061150f908490613323565b909155505060008181526003602052604080822080546001600160a01b0319166001600160a01b03868116919091179091559051839291861691907fddf252ad1be2c89b69c2b068fc378daa952ba7f163c4a11628f55a4df523b3ef908290a480826001600160a01b0316846001600160a01b03167fddf252ad1be2c89b69c2b068fc378daa952ba7f163c4a11628f55a4df523b3ef60405160405180910390a4505050565b6000818152600360205260408120546001600160a01b031661162e5760405162461bcd60e51b815260206004820152602c60248201527f4552433732313a206f70657261746f7220717565727920666f72206e6f6e657860448201526b34b9ba32b73a103a37b5b2b760a11b6064820152608401610587565b600061163983610cb5565b9050806001600160a01b0316846001600160a01b031614806116745750836001600160a01b031661166984610512565b6001600160a01b0316145b80611684575061168481856110b7565b949350505050565b826001600160a01b031661169f82610cb5565b6001600160a01b03161461171b5760405162461bcd60e51b815260206004820152602960248201527f4552433732313a207472616e73666572206f6620746f6b656e2074686174206960448201527f73206e6f74206f776e00000000000000000000000000000000000000000000006064820152608401610587565b6001600160a01b0382166117965760405162461bcd60e51b8152602060048201526024808201527f4552433732313a207472616e7366657220746f20746865207a65726f2061646460448201527f72657373000000000000000000000000000000000000000000000000000000006064820152608401610587565b6117a1838383611dac565b6117ac6000826113b1565b6001600160a01b03831660009081526004602052604081208054600192906117d590849061336e565b90915550506001600160a01b0382166000908152600460205260408120805460019290611803908490613323565b909155505060008181526003602052604080822080546001600160a01b0319166001600160a01b0386811691821790925591518493918716917fddf252ad1be2c89b69c2b068fc378daa952ba7f163c4a11628f55a4df523b3ef91a4505050565b600061186f82610cb5565b905061187d81600084611dac565b6118886000836113b1565b6001600160a01b03811660009081526004602052604081208054600192906118b190849061336e565b909155505060008281526003602052604080822080546001600160a01b0319169055518391906001600160a01b038416907fddf252ad1be2c89b69c2b068fc378daa952ba7f163c4a11628f55a4df523b3ef908390a45050565b60608161194b57505060408051808201909152600181527f3000000000000000000000000000000000000000000000000000000000000000602082015290565b8160005b8115611975578061195f816133ec565b915061196e9050600a8361333b565b915061194f565b60008167ffffffffffffffff81111561199057611990613473565b6040519080825280601f01601f1916602001820160405280156119ba576020820181803683370190505b5090505b8415611684576119cf60018361336e565b91506119dc600a86613407565b6119e7906030613323565b60f81b8183815181106119fc576119fc61345d565b60200101907effffffffffffffffffffffffffffffffffffffffffffffffffffffffffffff1916908160001a905350611a36600a8661333b565b94506119be565b60606000611a4a83611e64565b905080604051602001611a5d9190612fec565b60405160208183030381529060405281604051602001611a7d9190613180565b60405160208183030381529060405282604051602001611a9d9190612f22565b60405160208183030381529060405283604051602001611abd9190612e58565b60405160208183030381529060405284604051602001611add91906130b6565b60405160208183030381529060405285604051602001611afd9190612d8e565b60408051601f1981840301815290829052611b1f969594939291602001612be2565b604051602081830303815290604052915050919050565b6060815160001415611b5657505060408051602081019091526000815290565b60006040518060600160405280604081526020016134b56040913990506000600384516002611b859190613323565b611b8f919061333b565b611b9a90600461334f565b90506000611ba9826020613323565b67ffffffffffffffff811115611bc157611bc1613473565b6040519080825280601f01601f191660200182016040528015611beb576020820181803683370190505b509050818152600183018586518101602084015b81831015611c57576003830192508251603f8160121c168501518253600182019150603f81600c1c168501518253600182019150603f8160061c168501518253600182019150603f8116850151825350600101611bff565b600389510660018114611c715760028114611c9d57611cc5565b7f3d3d000000000000000000000000000000000000000000000000000000000000600119830152611cc5565b7f3d000000000000000000000000000000000000000000000000000000000000006000198301525b509398975050505050505050565b600080546001600160a01b038381166001600160a01b0319831681178455604051919092169283917f8be0079c531659141344cd1fd0a4f28419497f9722a3daafe3b4186f6b6457e09190a35050565b611d2e84848461168c565b611d3a848484846122a6565b6110a65760405162461bcd60e51b815260206004820152603260248201527f4552433732313a207472616e7366657220746f206e6f6e20455243373231526560448201527f63656976657220696d706c656d656e74657200000000000000000000000000006064820152608401610587565b6001600160a01b038316611e0757611e0281600980546000838152600a60205260408120829055600182018355919091527f6e1540171b6c0c960b71a7020d9f60077f6af931a8bbf590da0223dacf75c7af0155565b611e2a565b816001600160a01b0316836001600160a01b031614611e2a57611e2a8382612409565b6001600160a01b038216611e41576106d9816124a6565b826001600160a01b0316826001600160a01b0316146106d9576106d98282612555565b60606000611e7183612599565b90506000600a611e7f612650565b60646000611e8e60018561336e565b600a611e9d610400600861334f565b611ea7919061333b565b611eb1919061333b565b90506000611ec060038361333b565b90506000611ecf60028361333b565b6002611edc60018961336e565b611ee6908661334f565b611ef29061040061336e565b611efc919061333b565b611f06919061336e565b9050600096505b8587101561201a576000611f21838a613407565b611f2b858a61334f565b611f359084613323565b611f3f9190613323565b8689600a8110611f5157611f5161345d565b602002015152611f6089612599565b9850610200851015611faa57600a611f7a8661040061336e565b611f8590600861334f565b611f8f919061333b565b611f99908a613407565b611fa39086613323565b9050611fd8565b600a611fb786600861334f565b611fc1919061333b565b611fcb908a613407565b611fd5908661336e565b90505b808689600a8110611feb57611feb61345d565b6020020151602001818152505080945061200489612599565b9850508680612012906133ec565b975050611f0d565b606061204d60028760016020020151518860005b60200201515161203e9190613323565b612048919061333b565b61190b565b6020808801510151612073906002908960005b60200201516020015161203e9190613323565b604051602001612084929190612d29565b6040516020818303038152906040529050600197505b6120a560018861336e565b8810156122985780886001146120d457604051806040016040528060018152602001600b60fa1b81525061210b565b6040518060400160405280600281526020017f20510000000000000000000000000000000000000000000000000000000000008152505b61212b888b600a81106121205761212061345d565b60200201515161190b565b61214e898c600a81106121405761214061345d565b60200201516020015161190b565b604051602001612161949392919061298c565b60408051601f19818403018152919052905061217e60028861336e565b8814156121ec57806121a5876121958b6001613323565b600a81106121205761212061345d565b6121c4886121b48c6001613323565b600a81106121405761214061345d565b6040516020016121d6939291906129f0565b6040516020818303038152906040529050612286565b806122266002886121fe8c6001613323565b600a811061220e5761220e61345d565b602002015151898c600a811061202e5761202e61345d565b6122626002896122378d6001613323565b600a81106122475761224761345d565b6020020151602001518a8d600a81106120605761206061345d565b604051602001612274939291906129f0565b60405160208183030381529060405290505b87612290816133ec565b98505061209a565b9a9950505050505050505050565b60006001600160a01b0384163b156123fe57604051630a85bd0160e11b81526001600160a01b0385169063150b7a02906122ea9033908990889088906004016132d4565b602060405180830381600087803b15801561230457600080fd5b505af1925050508015612334575060408051601f3d908101601f19168201909252612331918101906128c5565b60015b6123e4573d808015612362576040519150601f19603f3d011682016040523d82523d6000602084013e612367565b606091505b5080516123dc5760405162461bcd60e51b815260206004820152603260248201527f4552433732313a207472616e7366657220746f206e6f6e20455243373231526560448201527f63656976657220696d706c656d656e74657200000000000000000000000000006064820152608401610587565b805181602001fd5b6001600160e01b031916630a85bd0160e11b149050611684565b506001949350505050565b6000600161241684610d4b565b612420919061336e565b600083815260086020526040902054909150808214612473576001600160a01b03841660009081526007602090815260408083208584528252808320548484528184208190558352600890915290208190555b5060009182526008602090815260408084208490556001600160a01b039094168352600781528383209183525290812055565b6009546000906124b89060019061336e565b6000838152600a6020526040812054600980549394509092849081106124e0576124e061345d565b9060005260206000200154905080600983815481106125015761250161345d565b6000918252602080832090910192909255828152600a9091526040808220849055858252812055600980548061253957612539613447565b6001900381819060005260206000200160009055905550505050565b600061256083610d4b565b6001600160a01b039093166000908152600760209081526040808320868452825280832085905593825260089052919091209190915550565b6000816040516020016125ae91815260200190565b60408051601f19818403018152919052805160209091012092915050565b8280546125d8906133b1565b90600052602060002090601f0160209004810192826125fa5760008555612640565b82601f1061261357805160ff1916838001178555612640565b82800160010185558215612640579182015b82811115612640578251825591602001919060010190612625565b5061264c92915061268a565b5090565b604051806101400160405280600a905b60408051808201909152600080825260208201528152602001906001900390816126605790505090565b5b8082111561264c576000815560010161268b565b600067ffffffffffffffff808411156126ba576126ba613473565b604051601f8501601f19908116603f011681019082821181831017156126e2576126e2613473565b816040528093508581528686860111156126fb57600080fd5b858560208301376000602087830101525050509392505050565b60006020828403121561272757600080fd5b81356111b181613489565b60006020828403121561274457600080fd5b81516111b181613489565b6000806040838503121561276257600080fd5b823561276d81613489565b9150602083013561277d81613489565b809150509250929050565b60008060006060848603121561279d57600080fd5b83356127a881613489565b925060208401356127b881613489565b929592945050506040919091013590565b600080600080608085870312156127df57600080fd5b84356127ea81613489565b935060208501356127fa81613489565b925060408501359150606085013567ffffffffffffffff81111561281d57600080fd5b8501601f8101871361282e57600080fd5b61283d8782356020840161269f565b91505092959194509250565b6000806040838503121561285c57600080fd5b823561286781613489565b91506020830135801515811461277d57600080fd5b6000806040838503121561288f57600080fd5b823561289a81613489565b946020939093013593505050565b6000602082840312156128ba57600080fd5b81356111b18161349e565b6000602082840312156128d757600080fd5b81516111b18161349e565b6000602082840312156128f457600080fd5b813567ffffffffffffffff81111561290b57600080fd5b8201601f8101841361291c57600080fd5b6116848482356020840161269f565b60006020828403121561293d57600080fd5b5035919050565b6000815180845261295c816020860160208601613385565b601f01601f19169290920160200192915050565b60008151612982818560208601613385565b9290920192915050565b6000855161299e818460208a01613385565b8551908301906129b2818360208a01613385565b85519101906129c5818360208901613385565b600b60fa1b910190815283516129e2816001840160208801613385565b016001019695505050505050565b60008451612a02818460208901613385565b8083019050600b60fa1b8082528551612a22816001850160208a01613385565b60019201918201528351612a3d816002840160208801613385565b0160020195945050505050565b7f7b226e616d65223a2200000000000000000000000000000000000000000000008152600084516020612a838260098601838a01613385565b7f222c20226465736372697074696f6e223a2200000000000000000000000000006009928501928301528554601b90600090600181811c9080831680612aca57607f831692505b868310811415612ae857634e487b7160e01b85526022600452602485fd5b808015612afc5760018114612b1157612b42565b60ff1985168988015283890187019550612b42565b60008d81526020902060005b85811015612b385781548b82018a0152908401908901612b1d565b505086848a010195505b5050505050612bd5612bac612ba6612b7d847f222c2022696d616765223a2022000000000000000000000000000000000000008152600d0190565b7f646174613a696d6167652f7376672b786d6c3b6261736536342c0000000000008152601a0190565b89612970565b7f227d000000000000000000000000000000000000000000000000000000000000815260020190565b9998505050505050505050565b7f3c7376672077696474683d223130323422206865696768743d223130323422208152600060207f76696577426f783d22302030203130323420313032342220786d6c6e733d2268818401527f7474703a2f2f7777772e77332e6f72672f323030302f7376672220736861706560408401527f2d72656e646572696e673d2263726973704564676573223e0a00000000000000606084015260798951612c8d81838701858e01613385565b895190850190612ca281848401868e01613385565b8951910190612cb681848401868d01613385565b8851910190612cca81848401868c01613385565b8751910190612cde81848401868b01613385565b8651910190612cf281848401868a01613385565b7f3c2f7376673e0000000000000000000000000000000000000000000000000000910191820152607f019998505050505050505050565b7f4d00000000000000000000000000000000000000000000000000000000000000815260008351612d61816001850160208801613385565b600b60fa1b6001918401918201528351612d82816002840160208801613385565b01600201949350505050565b681e3830ba3410321e9160b91b815260008251612db2816009850160208701613385565b7f222066696c6c3d227472616e73706172656e7422207374726f6b653d2223373360099390910192830152507f3239383222207374726f6b652d77696474683d22333222207374726f6b652d6c60298201527f696e656361703d22726f756e6422207472616e73666f726d3d227472616e736c60498201527f61746528302c39302922202f3e0a0000000000000000000000000000000000006069820152607701919050565b681e3830ba3410321e9160b91b815260008251612e7c816009850160208701613385565b7f222066696c6c3d227472616e73706172656e7422207374726f6b653d2223303060099390910192830152507f3739343022207374726f6b652d77696474683d22333222207374726f6b652d6c60298201527f696e656361703d22726f756e6422207472616e73666f726d3d227472616e736c60498201527f61746528302c33302922202f3e0a0000000000000000000000000000000000006069820152607701919050565b681e3830ba3410321e9160b91b815260008251612f46816009850160208701613385565b7f222066696c6c3d227472616e73706172656e7422207374726f6b653d2223464460099390910192830152507f4530314122207374726f6b652d77696474683d22333222207374726f6b652d6c60298201527f696e656361703d22726f756e6422207472616e73666f726d3d227472616e736c60498201527f61746528302c302922202f3e0a000000000000000000000000000000000000006069820152607601919050565b681e3830ba3410321e9160b91b815260008251613010816009850160208701613385565b7f222066696c6c3d227472616e73706172656e7422207374726f6b653d2223443160099390910192830152507f3232323922207374726f6b652d77696474683d22333222207374726f6b652d6c60298201527f696e656361703d22726f756e6422207472616e73666f726d3d227472616e736c60498201527f61746528302c2d363029222f3e0a0000000000000000000000000000000000006069820152607701919050565b681e3830ba3410321e9160b91b8152600082516130da816009850160208701613385565b7f222066696c6c3d227472616e73706172656e7422207374726f6b653d2223323460099390910192830152507f3430384522207374726f6b652d77696474683d22333222207374726f6b652d6c60298201527f696e656361703d22726f756e6422207472616e73666f726d3d227472616e736c60498201527f61746528302c36302922202f3e0a0000000000000000000000000000000000006069820152607701919050565b681e3830ba3410321e9160b91b8152600082516131a4816009850160208701613385565b7f222066696c6c3d227472616e73706172656e7422207374726f6b653d2223463660099390910192830152507f3841314522207374726f6b652d77696474683d22333222207374726f6b652d6c60298201527f696e656361703d22726f756e6422207472616e73666f726d3d227472616e736c60498201527f61746528302c2d33302922202f3e0a00000000000000000000000000000000006069820152607801919050565b7f646174613a6170706c69636174696f6e2f6a736f6e3b6261736536342c00000081526000825161328281601d850160208701613385565b91909101601d0192915050565b7f5072696465205371756967676c652023000000000000000000000000000000008152600082516132c7816010850160208701613385565b9190910160100192915050565b60006001600160a01b038087168352808616602084015250836040830152608060608301526133066080830184612944565b9695505050505050565b6020815260006111b16020830184612944565b600082198211156133365761333661341b565b500190565b60008261334a5761334a613431565b500490565b60008160001904831182151516156133695761336961341b565b500290565b6000828210156133805761338061341b565b500390565b60005b838110156133a0578181015183820152602001613388565b838111156110a65750506000910152565b600181811c908216806133c557607f821691505b602082108114156133e657634e487b7160e01b600052602260045260246000fd5b50919050565b60006000198214156134005761340061341b565b5060010190565b60008261341657613416613431565b500690565b634e487b7160e01b600052601160045260246000fd5b634e487b7160e01b600052601260045260246000fd5b634e487b7160e01b600052603160045260246000fd5b634e487b7160e01b600052603260045260246000fd5b634e487b7160e01b600052604160045260246000fd5b6001600160a01b038116811461129757600080fd5b6001600160e01b03198116811461129757600080fdfe4142434445464748494a4b4c4d4e4f505152535455565758595a6162636465666768696a6b6c6d6e6f707172737475767778797a303132333435363738392b2fa26469706673582212206bb2a2b6bc9902caa9a7f44f83f2efda8a18d90380e5c9cefab9d6f9905bfe9d64736f6c63430008060033",
  "linkReferences": {},
  "deployedLinkReferences": {}
}