{
  "_format": "hh-sol-artifact-1",
  "contractName": "PrideSquiggle",
  "sourceName": "contracts/PrideSquiggle.sol",
  "abi": [
    {
      "inputs": [
        {
          "internalType": "uint256",
          "name": "_limit",
          "type": "uint256"
        },
        {
          "internalType": "address",
          "name": "_developer",
          "type": "address"
        },
        {
          "internalType": "contract IProxyRegistry",
          "name": "_proxyRegistry",
          "type": "address"
        }
      ],
      "stateMutability": "nonpayable",
      "type": "constructor"
    },
    {
      "anonymous": false,
      "inputs": [
        {
          "indexed": true,
          "internalType": "address",
          "name": "owner",
          "type": "address"
        },
        {
          "indexed": true,
          "internalType": "address",
          "name": "approved",
          "type": "address"
        },
        {
          "indexed": true,
          "internalType": "uint256",
          "name": "tokenId",
          "type": "uint256"
        }
      ],
      "name": "Approval",
      "type": "event"
    },
    {
      "anonymous": false,
      "inputs": [
        {
          "indexed": true,
          "internalType": "address",
          "name": "owner",
          "type": "address"
        },
        {
          "indexed": true,
          "internalType": "address",
          "name": "operator",
          "type": "address"
        },
        {
          "indexed": false,
          "internalType": "bool",
          "name": "approved",
          "type": "bool"
        }
      ],
      "name": "ApprovalForAll",
      "type": "event"
    },
    {
      "anonymous": false,
      "inputs": [
        {
          "indexed": false,
          "internalType": "uint256",
          "name": "mintTime",
          "type": "uint256"
        }
      ],
      "name": "MintTimeUpdated",
      "type": "event"
    },
    {
      "anonymous": false,
      "inputs": [
        {
          "indexed": true,
          "internalType": "uint256",
          "name": "tokenId",
          "type": "uint256"
        },
        {
          "indexed": false,
          "internalType": "address",
          "name": "newOwner",
          "type": "address"
        }
      ],
      "name": "NounBought",
      "type": "event"
    },
    {
      "anonymous": false,
      "inputs": [
        {
          "indexed": true,
          "internalType": "uint256",
          "name": "tokenId",
          "type": "uint256"
        }
      ],
      "name": "NounBurned",
      "type": "event"
    },
    {
      "anonymous": false,
      "inputs": [
        {
          "indexed": true,
          "internalType": "uint256",
          "name": "tokenId",
          "type": "uint256"
        },
        {
          "components": [
            {
              "internalType": "uint48",
              "name": "background",
              "type": "uint48"
            },
            {
              "internalType": "uint48",
              "name": "body",
              "type": "uint48"
            },
            {
              "internalType": "uint48",
              "name": "accessory",
              "type": "uint48"
            },
            {
              "internalType": "uint48",
              "name": "head",
              "type": "uint48"
            },
            {
              "internalType": "uint48",
              "name": "glasses",
              "type": "uint48"
            }
          ],
          "indexed": false,
          "internalType": "struct INounsSeeder.Seed",
          "name": "seed",
          "type": "tuple"
        }
      ],
      "name": "NounCreated",
      "type": "event"
    },
    {
      "anonymous": false,
      "inputs": [
        {
          "indexed": false,
          "internalType": "address",
          "name": "noundersDAO",
          "type": "address"
        }
      ],
      "name": "NoundersDAOUpdated",
      "type": "event"
    },
    {
      "anonymous": false,
      "inputs": [
        {
          "indexed": true,
          "internalType": "address",
          "name": "previousOwner",
          "type": "address"
        },
        {
          "indexed": true,
          "internalType": "address",
          "name": "newOwner",
          "type": "address"
        }
      ],
      "name": "OwnershipTransferred",
      "type": "event"
    },
    {
      "anonymous": false,
      "inputs": [
        {
          "indexed": true,
          "internalType": "address",
          "name": "from",
          "type": "address"
        },
        {
          "indexed": true,
          "internalType": "address",
          "name": "to",
          "type": "address"
        },
        {
          "indexed": true,
          "internalType": "uint256",
          "name": "tokenId",
          "type": "uint256"
        }
      ],
      "name": "Transfer",
      "type": "event"
    },
    {
      "inputs": [
        {
          "internalType": "address",
          "name": "to",
          "type": "address"
        },
        {
          "internalType": "uint256",
          "name": "tokenId",
          "type": "uint256"
        }
      ],
      "name": "approve",
      "outputs": [],
      "stateMutability": "nonpayable",
      "type": "function"
    },
    {
      "inputs": [
        {
          "internalType": "address",
          "name": "owner",
          "type": "address"
        }
      ],
      "name": "balanceOf",
      "outputs": [
        {
          "internalType": "uint256",
          "name": "",
          "type": "uint256"
        }
      ],
      "stateMutability": "view",
      "type": "function"
    },
    {
      "inputs": [
        {
          "internalType": "uint256",
          "name": "nounId",
          "type": "uint256"
        }
      ],
      "name": "burn",
      "outputs": [],
      "stateMutability": "nonpayable",
      "type": "function"
    },
    {
      "inputs": [
        {
          "internalType": "uint256",
          "name": "tokenId",
          "type": "uint256"
        }
      ],
      "name": "dataURI",
      "outputs": [
        {
          "internalType": "string",
          "name": "",
          "type": "string"
        }
      ],
      "stateMutability": "view",
      "type": "function"
    },
    {
      "inputs": [],
      "name": "developer",
      "outputs": [
        {
          "internalType": "address",
          "name": "",
          "type": "address"
        }
      ],
      "stateMutability": "view",
      "type": "function"
    },
    {
      "inputs": [
        {
          "internalType": "uint256",
          "name": "tokenId",
          "type": "uint256"
        }
      ],
      "name": "generateSVG",
      "outputs": [
        {
          "internalType": "string",
          "name": "",
          "type": "string"
        }
      ],
      "stateMutability": "pure",
      "type": "function"
    },
    {
      "inputs": [
        {
          "internalType": "uint256",
          "name": "tokenId",
          "type": "uint256"
        }
      ],
      "name": "getApproved",
      "outputs": [
        {
          "internalType": "address",
          "name": "",
          "type": "address"
        }
      ],
      "stateMutability": "view",
      "type": "function"
    },
    {
      "inputs": [],
      "name": "getCurrentToken",
      "outputs": [
        {
          "internalType": "uint256",
          "name": "",
          "type": "uint256"
        }
      ],
      "stateMutability": "view",
      "type": "function"
    },
    {
      "inputs": [
        {
          "internalType": "address",
          "name": "owner",
          "type": "address"
        },
        {
          "internalType": "address",
          "name": "operator",
          "type": "address"
        }
      ],
      "name": "isApprovedForAll",
      "outputs": [
        {
          "internalType": "bool",
          "name": "",
          "type": "bool"
        }
      ],
      "stateMutability": "view",
      "type": "function"
    },
    {
      "inputs": [],
      "name": "limit",
      "outputs": [
        {
          "internalType": "uint256",
          "name": "",
          "type": "uint256"
        }
      ],
      "stateMutability": "view",
      "type": "function"
    },
    {
      "inputs": [],
      "name": "mint",
      "outputs": [
        {
          "internalType": "uint256",
          "name": "",
          "type": "uint256"
        }
      ],
      "stateMutability": "nonpayable",
      "type": "function"
    },
    {
      "inputs": [],
      "name": "name",
      "outputs": [
        {
          "internalType": "string",
          "name": "",
          "type": "string"
        }
      ],
      "stateMutability": "view",
      "type": "function"
    },
    {
      "inputs": [],
      "name": "owner",
      "outputs": [
        {
          "internalType": "address",
          "name": "",
          "type": "address"
        }
      ],
      "stateMutability": "view",
      "type": "function"
    },
    {
      "inputs": [
        {
          "internalType": "uint256",
          "name": "tokenId",
          "type": "uint256"
        }
      ],
      "name": "ownerOf",
      "outputs": [
        {
          "internalType": "address",
          "name": "",
          "type": "address"
        }
      ],
      "stateMutability": "view",
      "type": "function"
    },
    {
      "inputs": [],
      "name": "proxyRegistry",
      "outputs": [
        {
          "internalType": "contract IProxyRegistry",
          "name": "",
          "type": "address"
        }
      ],
      "stateMutability": "view",
      "type": "function"
    },
    {
      "inputs": [],
      "name": "renounceOwnership",
      "outputs": [],
      "stateMutability": "nonpayable",
      "type": "function"
    },
    {
      "inputs": [
        {
          "internalType": "address",
          "name": "from",
          "type": "address"
        },
        {
          "internalType": "address",
          "name": "to",
          "type": "address"
        },
        {
          "internalType": "uint256",
          "name": "tokenId",
          "type": "uint256"
        }
      ],
      "name": "safeTransferFrom",
      "outputs": [],
      "stateMutability": "nonpayable",
      "type": "function"
    },
    {
      "inputs": [
        {
          "internalType": "address",
          "name": "from",
          "type": "address"
        },
        {
          "internalType": "address",
          "name": "to",
          "type": "address"
        },
        {
          "internalType": "uint256",
          "name": "tokenId",
          "type": "uint256"
        },
        {
          "internalType": "bytes",
          "name": "_data",
          "type": "bytes"
        }
      ],
      "name": "safeTransferFrom",
      "outputs": [],
      "stateMutability": "nonpayable",
      "type": "function"
    },
    {
      "inputs": [
        {
          "internalType": "address",
          "name": "operator",
          "type": "address"
        },
        {
          "internalType": "bool",
          "name": "approved",
          "type": "bool"
        }
      ],
      "name": "setApprovalForAll",
      "outputs": [],
      "stateMutability": "nonpayable",
      "type": "function"
    },
    {
      "inputs": [
        {
          "internalType": "address",
          "name": "_developer",
          "type": "address"
        }
      ],
      "name": "setDeveloper",
      "outputs": [],
      "stateMutability": "nonpayable",
      "type": "function"
    },
    {
      "inputs": [
        {
          "internalType": "uint256",
          "name": "_limit",
          "type": "uint256"
        }
      ],
      "name": "setLimit",
      "outputs": [],
      "stateMutability": "nonpayable",
      "type": "function"
    },
    {
      "inputs": [
        {
          "internalType": "bytes4",
          "name": "interfaceId",
          "type": "bytes4"
        }
      ],
      "name": "supportsInterface",
      "outputs": [
        {
          "internalType": "bool",
          "name": "",
          "type": "bool"
        }
      ],
      "stateMutability": "view",
      "type": "function"
    },
    {
      "inputs": [],
      "name": "symbol",
      "outputs": [
        {
          "internalType": "string",
          "name": "",
          "type": "string"
        }
      ],
      "stateMutability": "view",
      "type": "function"
    },
    {
      "inputs": [
        {
          "internalType": "uint256",
          "name": "index",
          "type": "uint256"
        }
      ],
      "name": "tokenByIndex",
      "outputs": [
        {
          "internalType": "uint256",
          "name": "",
          "type": "uint256"
        }
      ],
      "stateMutability": "view",
      "type": "function"
    },
    {
      "inputs": [
        {
          "internalType": "address",
          "name": "owner",
          "type": "address"
        },
        {
          "internalType": "uint256",
          "name": "index",
          "type": "uint256"
        }
      ],
      "name": "tokenOfOwnerByIndex",
      "outputs": [
        {
          "internalType": "uint256",
          "name": "",
          "type": "uint256"
        }
      ],
      "stateMutability": "view",
      "type": "function"
    },
    {
      "inputs": [
        {
          "internalType": "uint256",
          "name": "tokenId",
          "type": "uint256"
        }
      ],
      "name": "tokenURI",
      "outputs": [
        {
          "internalType": "string",
          "name": "",
          "type": "string"
        }
      ],
      "stateMutability": "view",
      "type": "function"
    },
    {
      "inputs": [],
      "name": "totalSupply",
      "outputs": [
        {
          "internalType": "uint256",
          "name": "",
          "type": "uint256"
        }
      ],
      "stateMutability": "view",
      "type": "function"
    },
    {
      "inputs": [
        {
          "internalType": "address",
          "name": "from",
          "type": "address"
        },
        {
          "internalType": "address",
          "name": "to",
          "type": "address"
        },
        {
          "internalType": "uint256",
          "name": "tokenId",
          "type": "uint256"
        }
      ],
      "name": "transferFrom",
      "outputs": [],
      "stateMutability": "nonpayable",
      "type": "function"
    },
    {
      "inputs": [
        {
          "internalType": "address",
          "name": "newOwner",
          "type": "address"
        }
      ],
      "name": "transferOwnership",
      "outputs": [],
      "stateMutability": "nonpayable",
      "type": "function"
    }
  ],
  "bytecode": "0x60a06040523480156200001157600080fd5b50604051620035b0380380620035b08339810160408190526200003491620001fa565b6040518060400160405280600b81526020016a2b32b1ba37b92a37b5b2b760a91b8152506040518060400160405280600b81526020016a2b22a1aa27a92a27a5a2a760a91b81525062000096620000906200010060201b60201c565b62000104565b8151620000ab90600190602085019062000154565b508051620000c190600290602084019062000154565b505050600d92909255600c80546001600160a01b0319166001600160a01b039290921691909117905560601b6001600160601b03191660805262000298565b3390565b600080546001600160a01b038381166001600160a01b0319831681178455604051919092169283917f8be0079c531659141344cd1fd0a4f28419497f9722a3daafe3b4186f6b6457e09190a35050565b828054620001629062000242565b90600052602060002090601f016020900481019282620001865760008555620001d1565b82601f10620001a157805160ff1916838001178555620001d1565b82800160010185558215620001d1579182015b82811115620001d1578251825591602001919060010190620001b4565b50620001df929150620001e3565b5090565b5b80821115620001df5760008155600101620001e4565b6000806000606084860312156200021057600080fd5b83519250602084015162000224816200027f565b604085015190925062000237816200027f565b809150509250925092565b600181811c908216806200025757607f821691505b602082108114156200027957634e487b7160e01b600052602260045260246000fd5b50919050565b6001600160a01b03811681146200029557600080fd5b50565b60805160601c6132f2620002be6000396000818161036f0152610fea01526132f26000f3fe608060405234801561001057600080fd5b50600436106101cf5760003560e01c80636dcee4ca11610104578063b50cbd9f116100a2578063e985e9c511610071578063e985e9c5146103ca578063ef2d1746146103dd578063f2fde38b146103e5578063ff70fa49146103f857600080fd5b8063b50cbd9f1461036a578063b88d4fde14610391578063c87b56dd146103a4578063ca4b208b146103b757600080fd5b80638da5cb5b116100de5780638da5cb5b1461033557806395d89b4114610346578063a22cb4651461034e578063a4d66daf1461036157600080fd5b80636dcee4ca1461030757806370a082311461031a578063715018a61461032d57600080fd5b806327ea6f2b1161017157806342966c681161014b57806342966c68146102bb5780634f6ccce7146102ce5780635ac1e3bb146102e15780636352211e146102f457600080fd5b806327ea6f2b146102825780632f745c591461029557806342842e0e146102a857600080fd5b8063095ea7b3116101ad578063095ea7b31461023c5780631249c58b1461025157806318160ddd1461026757806323b872dd1461026f57600080fd5b806301ffc9a7146101d457806306fdde03146101fc578063081812fc14610211575b600080fd5b6101e76101e23660046126ed565b61040b565b60405190151581526020015b60405180910390f35b61020461044f565b6040516101f391906130d8565b61022461021f366004612727565b6104e1565b6040516001600160a01b0390911681526020016101f3565b61024f61024a3660046126c1565b61057b565b005b6102596106ad565b6040519081526020016101f3565b600954610259565b61024f61027d36600461256d565b610819565b61024f610290366004612727565b6108a0565b6102596102a33660046126c1565b6108ff565b61024f6102b636600461256d565b6109a7565b61024f6102c9366004612727565b6109c2565b6102596102dc366004612727565b610ab7565b6102046102ef366004612727565b610b5b565b610224610302366004612727565b610ca8565b610204610315366004612727565b610d33565b6102596103283660046124fa565b610d3e565b61024f610dd8565b6000546001600160a01b0316610224565b610204610e3e565b61024f61035c36600461268e565b610e4d565b610259600d5481565b6102247f000000000000000000000000000000000000000000000000000000000000000081565b61024f61039f3660046125ae565b610f12565b6102046103b2366004612727565b610fa0565b600c54610224906001600160a01b031681565b6101e76103d8366004612534565b610fab565b600b54610259565b61024f6103f33660046124fa565b6110ac565b61024f6104063660046124fa565b61118e565b60006001600160e01b031982167f780e9d6300000000000000000000000000000000000000000000000000000000148061044957506104498261120a565b92915050565b60606001805461045e90613179565b80601f016020809104026020016040519081016040528092919081815260200182805461048a90613179565b80156104d75780601f106104ac576101008083540402835291602001916104d7565b820191906000526020600020905b8154815290600101906020018083116104ba57829003601f168201915b5050505050905090565b6000818152600360205260408120546001600160a01b031661055f5760405162461bcd60e51b815260206004820152602c60248201527f4552433732313a20617070726f76656420717565727920666f72206e6f6e657860448201526b34b9ba32b73a103a37b5b2b760a11b60648201526084015b60405180910390fd5b506000908152600560205260409020546001600160a01b031690565b600061058682610ca8565b9050806001600160a01b0316836001600160a01b031614156106105760405162461bcd60e51b815260206004820152602160248201527f4552433732313a20617070726f76616c20746f2063757272656e74206f776e6560448201527f72000000000000000000000000000000000000000000000000000000000000006064820152608401610556565b336001600160a01b038216148061062c575061062c8133610fab565b61069e5760405162461bcd60e51b815260206004820152603860248201527f4552433732313a20617070726f76652063616c6c6572206973206e6f74206f7760448201527f6e6572206e6f7220617070726f76656420666f7220616c6c00000000000000006064820152608401610556565b6106a883836112a5565b505050565b60006106b833610d3e565b156107055760405162461bcd60e51b815260206004820152601560248201527f596f7520616c72656164792068617665206f6e652e00000000000000000000006044820152606401610556565b600d54600b54106107585760405162461bcd60e51b815260206004820152600960248201527f536f6c64206f75742e00000000000000000000000000000000000000000000006044820152606401610556565b6014600b5461076791906131cf565b600214156107ac576107ac6107846000546001600160a01b031690565b600c54600b80546001600160a01b03909216919060006107a3836131b4565b91905055611313565b600b8054600091826107bd836131b4565b9190505590506107df6107d86000546001600160a01b031690565b3383611313565b60405133815281907ff3919fe9a709ec82fb9fd1c54a2af7cf717bfe52a6c9b1f1ed8ea42d52ba392f9060200160405180910390a2919050565b61082333826114a9565b6108955760405162461bcd60e51b815260206004820152603160248201527f4552433732313a207472616e736665722063616c6c6572206973206e6f74206f60448201527f776e6572206e6f7220617070726f7665640000000000000000000000000000006064820152608401610556565b6106a8838383611580565b6000546001600160a01b031633146108fa5760405162461bcd60e51b815260206004820181905260248201527f4f776e61626c653a2063616c6c6572206973206e6f7420746865206f776e65726044820152606401610556565b600d55565b600061090a83610d3e565b821061097e5760405162461bcd60e51b815260206004820152602b60248201527f455243373231456e756d657261626c653a206f776e657220696e646578206f7560448201527f74206f6620626f756e64730000000000000000000000000000000000000000006064820152608401610556565b506001600160a01b03919091166000908152600760209081526040808320938352929052205490565b6106a883838360405180602001604052806000815250610f12565b6000546001600160a01b03163314610a1c5760405162461bcd60e51b815260206004820181905260248201527f4f776e61626c653a2063616c6c6572206973206e6f7420746865206f776e65726044820152606401610556565b6000818152600360205260409020546001600160a01b0316610a805760405162461bcd60e51b815260206004820152601f60248201527f55524920717565727920666f72206e6f6e6578697374656e7420746f6b656e006044820152606401610556565b610a8981611758565b60405181907f806be94a2ac8b92d74e99aa8add5a8e54528a01ec914a9e00d201a6480ed986390600090a250565b6000610ac260095490565b8210610b365760405162461bcd60e51b815260206004820152602c60248201527f455243373231456e756d657261626c653a20676c6f62616c20696e646578206f60448201527f7574206f6620626f756e647300000000000000000000000000000000000000006064820152608401610556565b60098281548110610b4957610b49613225565b90600052602060002001549050919050565b6000818152600360205260409020546060906001600160a01b0316610be85760405162461bcd60e51b815260206004820152602b60248201527f4e6f756e73546f6b656e3a2055524920717565727920666f72206e6f6e65786960448201527f7374656e7420746f6b656e0000000000000000000000000000000000000000006064820152608401610556565b6000610bf3836117ff565b9050600081604051602001610c089190612fe7565b6040516020818303038152906040529050600082604051602001610c2c919061301b565b60405160208183030381529060405290506000610c50610c4b87611931565b611a2a565b9050610c7e838383604051602001610c6a9392919061282a565b604051602081830303815290604052611a2a565b604051602001610c8e9190612fa2565b604051602081830303815290604052945050505050919050565b6000818152600360205260408120546001600160a01b0316806104495760405162461bcd60e51b815260206004820152602960248201527f4552433732313a206f776e657220717565727920666f72206e6f6e657869737460448201527f656e7420746f6b656e00000000000000000000000000000000000000000000006064820152608401610556565b606061044982611931565b60006001600160a01b038216610dbc5760405162461bcd60e51b815260206004820152602a60248201527f4552433732313a2062616c616e636520717565727920666f7220746865207a6560448201527f726f2061646472657373000000000000000000000000000000000000000000006064820152608401610556565b506001600160a01b031660009081526004602052604090205490565b6000546001600160a01b03163314610e325760405162461bcd60e51b815260206004820181905260248201527f4f776e61626c653a2063616c6c6572206973206e6f7420746865206f776e65726044820152606401610556565b610e3c6000611bc7565b565b60606002805461045e90613179565b6001600160a01b038216331415610ea65760405162461bcd60e51b815260206004820152601960248201527f4552433732313a20617070726f766520746f2063616c6c6572000000000000006044820152606401610556565b3360008181526006602090815260408083206001600160a01b03871680855290835292819020805460ff191686151590811790915590519081529192917f17307eab39ab6107e8899845ad3d59bd9653f200f220920489ca2b5937696c31910160405180910390a35050565b610f1c33836114a9565b610f8e5760405162461bcd60e51b815260206004820152603160248201527f4552433732313a207472616e736665722063616c6c6572206973206e6f74206f60448201527f776e6572206e6f7220617070726f7665640000000000000000000000000000006064820152608401610556565b610f9a84848484611c17565b50505050565b606061044982610b5b565b6040517fc45527910000000000000000000000000000000000000000000000000000000081526001600160a01b038381166004830152600091818416917f0000000000000000000000000000000000000000000000000000000000000000169063c45527919060240160206040518083038186803b15801561102c57600080fd5b505afa158015611040573d6000803e3d6000fd5b505050506040513d601f19601f820116820180604052508101906110649190612517565b6001600160a01b0316141561107b57506001610449565b6001600160a01b0380841660009081526006602090815260408083209386168352929052205460ff165b9392505050565b6000546001600160a01b031633146111065760405162461bcd60e51b815260206004820181905260248201527f4f776e61626c653a2063616c6c6572206973206e6f7420746865206f776e65726044820152606401610556565b6001600160a01b0381166111825760405162461bcd60e51b815260206004820152602660248201527f4f776e61626c653a206e6577206f776e657220697320746865207a65726f206160448201527f64647265737300000000000000000000000000000000000000000000000000006064820152608401610556565b61118b81611bc7565b50565b6000546001600160a01b031633146111e85760405162461bcd60e51b815260206004820181905260248201527f4f776e61626c653a2063616c6c6572206973206e6f7420746865206f776e65726044820152606401610556565b600c80546001600160a01b0319166001600160a01b0392909216919091179055565b60006001600160e01b031982167f80ac58cd00000000000000000000000000000000000000000000000000000000148061126d57506001600160e01b031982167f5b5e139f00000000000000000000000000000000000000000000000000000000145b8061044957507f01ffc9a7000000000000000000000000000000000000000000000000000000006001600160e01b0319831614610449565b600081815260056020526040902080546001600160a01b0319166001600160a01b03841690811790915581906112da82610ca8565b6001600160a01b03167f8c5be1e5ebec7d5bd14f71427d1e84f3dd0314c0f7b2291e5b200ac8c7c3b92560405160405180910390a45050565b6001600160a01b0382166113695760405162461bcd60e51b815260206004820181905260248201527f4552433732313a206d696e7420746f20746865207a65726f20616464726573736044820152606401610556565b6000818152600360205260409020546001600160a01b0316156113ce5760405162461bcd60e51b815260206004820152601c60248201527f4552433732313a20746f6b656e20616c7265616479206d696e746564000000006044820152606401610556565b6113da60008383611ca0565b6001600160a01b03821660009081526004602052604081208054600192906114039084906130eb565b909155505060008181526003602052604080822080546001600160a01b0319166001600160a01b03868116919091179091559051839291861691907fddf252ad1be2c89b69c2b068fc378daa952ba7f163c4a11628f55a4df523b3ef908290a480826001600160a01b0316846001600160a01b03167fddf252ad1be2c89b69c2b068fc378daa952ba7f163c4a11628f55a4df523b3ef60405160405180910390a4505050565b6000818152600360205260408120546001600160a01b03166115225760405162461bcd60e51b815260206004820152602c60248201527f4552433732313a206f70657261746f7220717565727920666f72206e6f6e657860448201526b34b9ba32b73a103a37b5b2b760a11b6064820152608401610556565b600061152d83610ca8565b9050806001600160a01b0316846001600160a01b031614806115685750836001600160a01b031661155d846104e1565b6001600160a01b0316145b8061157857506115788185610fab565b949350505050565b826001600160a01b031661159382610ca8565b6001600160a01b03161461160f5760405162461bcd60e51b815260206004820152602960248201527f4552433732313a207472616e73666572206f6620746f6b656e2074686174206960448201527f73206e6f74206f776e00000000000000000000000000000000000000000000006064820152608401610556565b6001600160a01b03821661168a5760405162461bcd60e51b8152602060048201526024808201527f4552433732313a207472616e7366657220746f20746865207a65726f2061646460448201527f72657373000000000000000000000000000000000000000000000000000000006064820152608401610556565b611695838383611ca0565b6116a06000826112a5565b6001600160a01b03831660009081526004602052604081208054600192906116c9908490613136565b90915550506001600160a01b03821660009081526004602052604081208054600192906116f79084906130eb565b909155505060008181526003602052604080822080546001600160a01b0319166001600160a01b0386811691821790925591518493918716917fddf252ad1be2c89b69c2b068fc378daa952ba7f163c4a11628f55a4df523b3ef91a4505050565b600061176382610ca8565b905061177181600084611ca0565b61177c6000836112a5565b6001600160a01b03811660009081526004602052604081208054600192906117a5908490613136565b909155505060008281526003602052604080822080546001600160a01b0319169055518391906001600160a01b038416907fddf252ad1be2c89b69c2b068fc378daa952ba7f163c4a11628f55a4df523b3ef908390a45050565b60608161183f57505060408051808201909152600181527f3000000000000000000000000000000000000000000000000000000000000000602082015290565b8160005b81156118695780611853816131b4565b91506118629050600a83613103565b9150611843565b60008167ffffffffffffffff8111156118845761188461323b565b6040519080825280601f01601f1916602001820160405280156118ae576020820181803683370190505b5090505b8415611578576118c3600183613136565b91506118d0600a866131cf565b6118db9060306130eb565b60f81b8183815181106118f0576118f0613225565b60200101907effffffffffffffffffffffffffffffffffffffffffffffffffffffffffffff1916908160001a90535061192a600a86613103565b94506118b2565b6060600061193e83611d58565b9050806040516020016119519190612d44565b604051602081830303815290604052816040516020016119719190612ed8565b604051602081830303815290604052826040516020016119919190612c7a565b604051602081830303815290604052836040516020016119b19190612bb0565b604051602081830303815290604052846040516020016119d19190612e0e565b604051602081830303815290604052856040516020016119f19190612ae6565b60408051601f1981840301815290829052611a1396959493929160200161293a565b604051602081830303815290604052915050919050565b6060815160001415611a4a57505060408051602081019091526000815290565b600060405180606001604052806040815260200161327d6040913990506000600384516002611a7991906130eb565b611a839190613103565b611a8e906004613117565b90506000611a9d8260206130eb565b67ffffffffffffffff811115611ab557611ab561323b565b6040519080825280601f01601f191660200182016040528015611adf576020820181803683370190505b509050818152600183018586518101602084015b81831015611b4b576003830192508251603f8160121c168501518253600182019150603f81600c1c168501518253600182019150603f8160061c168501518253600182019150603f8116850151825350600101611af3565b600389510660018114611b655760028114611b9157611bb9565b7f3d3d000000000000000000000000000000000000000000000000000000000000600119830152611bb9565b7f3d000000000000000000000000000000000000000000000000000000000000006000198301525b509398975050505050505050565b600080546001600160a01b038381166001600160a01b0319831681178455604051919092169283917f8be0079c531659141344cd1fd0a4f28419497f9722a3daafe3b4186f6b6457e09190a35050565b611c22848484611580565b611c2e8484848461219a565b610f9a5760405162461bcd60e51b815260206004820152603260248201527f4552433732313a207472616e7366657220746f206e6f6e20455243373231526560448201527f63656976657220696d706c656d656e74657200000000000000000000000000006064820152608401610556565b6001600160a01b038316611cfb57611cf681600980546000838152600a60205260408120829055600182018355919091527f6e1540171b6c0c960b71a7020d9f60077f6af931a8bbf590da0223dacf75c7af0155565b611d1e565b816001600160a01b0316836001600160a01b031614611d1e57611d1e83826122fd565b6001600160a01b038216611d35576106a88161239a565b826001600160a01b0316826001600160a01b0316146106a8576106a88282612449565b60606000611d658361248d565b90506000600a611d736124c0565b60646000611d82600185613136565b600a611d916104006008613117565b611d9b9190613103565b611da59190613103565b90506000611db4600383613103565b90506000611dc3600283613103565b6002611dd0600189613136565b611dda9086613117565b611de690610400613136565b611df09190613103565b611dfa9190613136565b9050600096505b85871015611f0e576000611e15838a6131cf565b611e1f858a613117565b611e2990846130eb565b611e3391906130eb565b8689600a8110611e4557611e45613225565b602002015152611e548961248d565b9850610200851015611e9e57600a611e6e86610400613136565b611e79906008613117565b611e839190613103565b611e8d908a6131cf565b611e9790866130eb565b9050611ecc565b600a611eab866008613117565b611eb59190613103565b611ebf908a6131cf565b611ec99086613136565b90505b808689600a8110611edf57611edf613225565b60200201516020018181525050809450611ef88961248d565b9850508680611f06906131b4565b975050611e01565b6060611f4160028760016020020151518860005b602002015151611f3291906130eb565b611f3c9190613103565b6117ff565b6020808801510151611f67906002908960005b602002015160200151611f3291906130eb565b604051602001611f78929190612a81565b6040516020818303038152906040529050600197505b611f99600188613136565b88101561218c578088600114611fc857604051806040016040528060018152602001600b60fa1b815250611fff565b6040518060400160405280600281526020017f20510000000000000000000000000000000000000000000000000000000000008152505b61201f888b600a811061201457612014613225565b6020020151516117ff565b612042898c600a811061203457612034613225565b6020020151602001516117ff565b604051602001612055949392919061276c565b60408051601f198184030181529190529050612072600288613136565b8814156120e05780612099876120898b60016130eb565b600a811061201457612014613225565b6120b8886120a88c60016130eb565b600a811061203457612034613225565b6040516020016120ca939291906127d0565b604051602081830303815290604052905061217a565b8061211a6002886120f28c60016130eb565b600a811061210257612102613225565b602002015151898c600a8110611f2257611f22613225565b61215660028961212b8d60016130eb565b600a811061213b5761213b613225565b6020020151602001518a8d600a8110611f5457611f54613225565b604051602001612168939291906127d0565b60405160208183030381529060405290505b87612184816131b4565b985050611f8e565b9a9950505050505050505050565b60006001600160a01b0384163b156122f257604051630a85bd0160e11b81526001600160a01b0385169063150b7a02906121de90339089908890889060040161309c565b602060405180830381600087803b1580156121f857600080fd5b505af1925050508015612228575060408051601f3d908101601f191682019092526122259181019061270a565b60015b6122d8573d808015612256576040519150601f19603f3d011682016040523d82523d6000602084013e61225b565b606091505b5080516122d05760405162461bcd60e51b815260206004820152603260248201527f4552433732313a207472616e7366657220746f206e6f6e20455243373231526560448201527f63656976657220696d706c656d656e74657200000000000000000000000000006064820152608401610556565b805181602001fd5b6001600160e01b031916630a85bd0160e11b149050611578565b506001949350505050565b6000600161230a84610d3e565b6123149190613136565b600083815260086020526040902054909150808214612367576001600160a01b03841660009081526007602090815260408083208584528252808320548484528184208190558352600890915290208190555b5060009182526008602090815260408084208490556001600160a01b039094168352600781528383209183525290812055565b6009546000906123ac90600190613136565b6000838152600a6020526040812054600980549394509092849081106123d4576123d4613225565b9060005260206000200154905080600983815481106123f5576123f5613225565b6000918252602080832090910192909255828152600a9091526040808220849055858252812055600980548061242d5761242d61320f565b6001900381819060005260206000200160009055905550505050565b600061245483610d3e565b6001600160a01b039093166000908152600760209081526040808320868452825280832085905593825260089052919091209190915550565b6000816040516020016124a291815260200190565b60408051601f19818403018152919052805160209091012092915050565b604051806101400160405280600a905b60408051808201909152600080825260208201528152602001906001900390816124d05790505090565b60006020828403121561250c57600080fd5b81356110a581613251565b60006020828403121561252957600080fd5b81516110a581613251565b6000806040838503121561254757600080fd5b823561255281613251565b9150602083013561256281613251565b809150509250929050565b60008060006060848603121561258257600080fd5b833561258d81613251565b9250602084013561259d81613251565b929592945050506040919091013590565b600080600080608085870312156125c457600080fd5b84356125cf81613251565b935060208501356125df81613251565b925060408501359150606085013567ffffffffffffffff8082111561260357600080fd5b818701915087601f83011261261757600080fd5b8135818111156126295761262961323b565b604051601f8201601f19908116603f011681019083821181831017156126515761265161323b565b816040528281528a602084870101111561266a57600080fd5b82602086016020830137600060208483010152809550505050505092959194509250565b600080604083850312156126a157600080fd5b82356126ac81613251565b91506020830135801515811461256257600080fd5b600080604083850312156126d457600080fd5b82356126df81613251565b946020939093013593505050565b6000602082840312156126ff57600080fd5b81356110a581613266565b60006020828403121561271c57600080fd5b81516110a581613266565b60006020828403121561273957600080fd5b5035919050565b6000815180845261275881602086016020860161314d565b601f01601f19169290920160200192915050565b6000855161277e818460208a0161314d565b855190830190612792818360208a0161314d565b85519101906127a581836020890161314d565b600b60fa1b910190815283516127c281600184016020880161314d565b016001019695505050505050565b600084516127e281846020890161314d565b8083019050600b60fa1b8082528551612802816001850160208a0161314d565b6001920191820152835161281d81600284016020880161314d565b0160020195945050505050565b7f7b226e616d65223a22000000000000000000000000000000000000000000000081526000845161286281600985016020890161314d565b7f222c20226465736372697074696f6e223a220000000000000000000000000000600991840191820152845161289f81601b84016020890161314d565b7f222c2022696d616765223a202200000000000000000000000000000000000000601b92909101918201527f646174613a696d6167652f7376672b786d6c3b6261736536342c0000000000006028820152835161290381604284016020880161314d565b7f227d0000000000000000000000000000000000000000000000000000000000006042929091019182015260440195945050505050565b7f3c7376672077696474683d223130323422206865696768743d223130323422208152600060207f76696577426f783d22302030203130323420313032342220786d6c6e733d2268818401527f7474703a2f2f7777772e77332e6f72672f323030302f7376672220736861706560408401527f2d72656e646572696e673d2263726973704564676573223e0a000000000000006060840152607989516129e581838701858e0161314d565b8951908501906129fa81848401868e0161314d565b8951910190612a0e81848401868d0161314d565b8851910190612a2281848401868c0161314d565b8751910190612a3681848401868b0161314d565b8651910190910190612a4b818385890161314d565b7f3c2f7376673e000000000000000000000000000000000000000000000000000091019081526006019998505050505050505050565b7f4d00000000000000000000000000000000000000000000000000000000000000815260008351612ab981600185016020880161314d565b600b60fa1b6001918401918201528351612ada81600284016020880161314d565b01600201949350505050565b681e3830ba3410321e9160b91b815260008251612b0a81600985016020870161314d565b7f222066696c6c3d227472616e73706172656e7422207374726f6b653d2223373360099390910192830152507f3239383222207374726f6b652d77696474683d22333222207374726f6b652d6c60298201527f696e656361703d22726f756e6422207472616e73666f726d3d227472616e736c60498201527f61746528302c39302922202f3e0a0000000000000000000000000000000000006069820152607701919050565b681e3830ba3410321e9160b91b815260008251612bd481600985016020870161314d565b7f222066696c6c3d227472616e73706172656e7422207374726f6b653d2223303060099390910192830152507f3739343022207374726f6b652d77696474683d22333222207374726f6b652d6c60298201527f696e656361703d22726f756e6422207472616e73666f726d3d227472616e736c60498201527f61746528302c33302922202f3e0a0000000000000000000000000000000000006069820152607701919050565b681e3830ba3410321e9160b91b815260008251612c9e81600985016020870161314d565b7f222066696c6c3d227472616e73706172656e7422207374726f6b653d2223464460099390910192830152507f4530314122207374726f6b652d77696474683d22333222207374726f6b652d6c60298201527f696e656361703d22726f756e6422207472616e73666f726d3d227472616e736c60498201527f61746528302c302922202f3e0a000000000000000000000000000000000000006069820152607601919050565b681e3830ba3410321e9160b91b815260008251612d6881600985016020870161314d565b7f222066696c6c3d227472616e73706172656e7422207374726f6b653d2223443160099390910192830152507f3232323922207374726f6b652d77696474683d22333222207374726f6b652d6c60298201527f696e656361703d22726f756e6422207472616e73666f726d3d227472616e736c60498201527f61746528302c2d363029222f3e0a0000000000000000000000000000000000006069820152607701919050565b681e3830ba3410321e9160b91b815260008251612e3281600985016020870161314d565b7f222066696c6c3d227472616e73706172656e7422207374726f6b653d2223323460099390910192830152507f3430384522207374726f6b652d77696474683d22333222207374726f6b652d6c60298201527f696e656361703d22726f756e6422207472616e73666f726d3d227472616e736c60498201527f61746528302c36302922202f3e0a0000000000000000000000000000000000006069820152607701919050565b681e3830ba3410321e9160b91b815260008251612efc81600985016020870161314d565b7f222066696c6c3d227472616e73706172656e7422207374726f6b653d2223463660099390910192830152507f3841314522207374726f6b652d77696474683d22333222207374726f6b652d6c60298201527f696e656361703d22726f756e6422207472616e73666f726d3d227472616e736c60498201527f61746528302c2d33302922202f3e0a00000000000000000000000000000000006069820152607801919050565b7f646174613a6170706c69636174696f6e2f6a736f6e3b6261736536342c000000815260008251612fda81601d85016020870161314d565b91909101601d0192915050565b6b02b32b1ba37b92a37b5b2b7160a51b81526000825161300e81600c85016020870161314d565b91909101600c0192915050565b6b02b32b1ba37b92a37b5b2b7160a51b81526000825161304281600c85016020870161314d565b7f20697320612066756e206f6620746865204e6f756e732044414f20616e64204e600c9390910192830152507f6f756e732041727420466573746976616c000000000000000000000000000000602c820152603d01919050565b60006001600160a01b038087168352808616602084015250836040830152608060608301526130ce6080830184612740565b9695505050505050565b6020815260006110a56020830184612740565b600082198211156130fe576130fe6131e3565b500190565b600082613112576131126131f9565b500490565b6000816000190483118215151615613131576131316131e3565b500290565b600082821015613148576131486131e3565b500390565b60005b83811015613168578181015183820152602001613150565b83811115610f9a5750506000910152565b600181811c9082168061318d57607f821691505b602082108114156131ae57634e487b7160e01b600052602260045260246000fd5b50919050565b60006000198214156131c8576131c86131e3565b5060010190565b6000826131de576131de6131f9565b500690565b634e487b7160e01b600052601160045260246000fd5b634e487b7160e01b600052601260045260246000fd5b634e487b7160e01b600052603160045260246000fd5b634e487b7160e01b600052603260045260246000fd5b634e487b7160e01b600052604160045260246000fd5b6001600160a01b038116811461118b57600080fd5b6001600160e01b03198116811461118b57600080fdfe4142434445464748494a4b4c4d4e4f505152535455565758595a6162636465666768696a6b6c6d6e6f707172737475767778797a303132333435363738392b2fa2646970667358221220bc51cb17856c53af880248934e62609d75eabb432203871dd48161e9b02a579364736f6c63430008060033",
  "linkReferences": {},
  "deployedLinkReferences": {}
}