{
  "_format": "hh-sol-artifact-1",
  "contractName": "PrideSquiggle",
  "sourceName": "contracts/PrideSquiggle.sol",
  "abi": [
    {
      "inputs": [],
      "stateMutability": "nonpayable",
      "type": "constructor"
    },
    {
      "anonymous": false,
      "inputs": [
        {
          "indexed": true,
          "internalType": "address",
          "name": "owner",
          "type": "address"
        },
        {
          "indexed": true,
          "internalType": "address",
          "name": "approved",
          "type": "address"
        },
        {
          "indexed": true,
          "internalType": "uint256",
          "name": "tokenId",
          "type": "uint256"
        }
      ],
      "name": "Approval",
      "type": "event"
    },
    {
      "anonymous": false,
      "inputs": [
        {
          "indexed": true,
          "internalType": "address",
          "name": "owner",
          "type": "address"
        },
        {
          "indexed": true,
          "internalType": "address",
          "name": "operator",
          "type": "address"
        },
        {
          "indexed": false,
          "internalType": "bool",
          "name": "approved",
          "type": "bool"
        }
      ],
      "name": "ApprovalForAll",
      "type": "event"
    },
    {
      "anonymous": false,
      "inputs": [
        {
          "indexed": false,
          "internalType": "uint256",
          "name": "mintTime",
          "type": "uint256"
        }
      ],
      "name": "MintTimeUpdated",
      "type": "event"
    },
    {
      "anonymous": false,
      "inputs": [
        {
          "indexed": true,
          "internalType": "uint256",
          "name": "tokenId",
          "type": "uint256"
        },
        {
          "indexed": false,
          "internalType": "address",
          "name": "newOwner",
          "type": "address"
        }
      ],
      "name": "NounBought",
      "type": "event"
    },
    {
      "anonymous": false,
      "inputs": [
        {
          "indexed": true,
          "internalType": "uint256",
          "name": "tokenId",
          "type": "uint256"
        }
      ],
      "name": "NounBurned",
      "type": "event"
    },
    {
      "anonymous": false,
      "inputs": [
        {
          "indexed": true,
          "internalType": "uint256",
          "name": "tokenId",
          "type": "uint256"
        },
        {
          "components": [
            {
              "internalType": "uint48",
              "name": "background",
              "type": "uint48"
            },
            {
              "internalType": "uint48",
              "name": "body",
              "type": "uint48"
            },
            {
              "internalType": "uint48",
              "name": "accessory",
              "type": "uint48"
            },
            {
              "internalType": "uint48",
              "name": "head",
              "type": "uint48"
            },
            {
              "internalType": "uint48",
              "name": "glasses",
              "type": "uint48"
            }
          ],
          "indexed": false,
          "internalType": "struct INounsSeeder.Seed",
          "name": "seed",
          "type": "tuple"
        }
      ],
      "name": "NounCreated",
      "type": "event"
    },
    {
      "anonymous": false,
      "inputs": [
        {
          "indexed": false,
          "internalType": "address",
          "name": "noundersDAO",
          "type": "address"
        }
      ],
      "name": "NoundersDAOUpdated",
      "type": "event"
    },
    {
      "anonymous": false,
      "inputs": [
        {
          "indexed": true,
          "internalType": "address",
          "name": "previousOwner",
          "type": "address"
        },
        {
          "indexed": true,
          "internalType": "address",
          "name": "newOwner",
          "type": "address"
        }
      ],
      "name": "OwnershipTransferred",
      "type": "event"
    },
    {
      "anonymous": false,
      "inputs": [
        {
          "indexed": true,
          "internalType": "address",
          "name": "from",
          "type": "address"
        },
        {
          "indexed": true,
          "internalType": "address",
          "name": "to",
          "type": "address"
        },
        {
          "indexed": true,
          "internalType": "uint256",
          "name": "tokenId",
          "type": "uint256"
        }
      ],
      "name": "Transfer",
      "type": "event"
    },
    {
      "inputs": [
        {
          "internalType": "address",
          "name": "to",
          "type": "address"
        },
        {
          "internalType": "uint256",
          "name": "tokenId",
          "type": "uint256"
        }
      ],
      "name": "approve",
      "outputs": [],
      "stateMutability": "nonpayable",
      "type": "function"
    },
    {
      "inputs": [
        {
          "internalType": "address",
          "name": "owner",
          "type": "address"
        }
      ],
      "name": "balanceOf",
      "outputs": [
        {
          "internalType": "uint256",
          "name": "",
          "type": "uint256"
        }
      ],
      "stateMutability": "view",
      "type": "function"
    },
    {
      "inputs": [
        {
          "internalType": "uint256",
          "name": "nounId",
          "type": "uint256"
        }
      ],
      "name": "burn",
      "outputs": [],
      "stateMutability": "nonpayable",
      "type": "function"
    },
    {
      "inputs": [
        {
          "internalType": "uint256",
          "name": "tokenId",
          "type": "uint256"
        }
      ],
      "name": "dataURI",
      "outputs": [
        {
          "internalType": "string",
          "name": "",
          "type": "string"
        }
      ],
      "stateMutability": "view",
      "type": "function"
    },
    {
      "inputs": [
        {
          "internalType": "uint256",
          "name": "tokenId",
          "type": "uint256"
        }
      ],
      "name": "generateSVG",
      "outputs": [
        {
          "internalType": "string",
          "name": "",
          "type": "string"
        }
      ],
      "stateMutability": "pure",
      "type": "function"
    },
    {
      "inputs": [
        {
          "internalType": "uint256",
          "name": "tokenId",
          "type": "uint256"
        }
      ],
      "name": "getApproved",
      "outputs": [
        {
          "internalType": "address",
          "name": "",
          "type": "address"
        }
      ],
      "stateMutability": "view",
      "type": "function"
    },
    {
      "inputs": [
        {
          "internalType": "address",
          "name": "owner",
          "type": "address"
        },
        {
          "internalType": "address",
          "name": "operator",
          "type": "address"
        }
      ],
      "name": "isApprovedForAll",
      "outputs": [
        {
          "internalType": "bool",
          "name": "",
          "type": "bool"
        }
      ],
      "stateMutability": "view",
      "type": "function"
    },
    {
      "inputs": [],
      "name": "mint",
      "outputs": [
        {
          "internalType": "uint256",
          "name": "",
          "type": "uint256"
        }
      ],
      "stateMutability": "nonpayable",
      "type": "function"
    },
    {
      "inputs": [],
      "name": "name",
      "outputs": [
        {
          "internalType": "string",
          "name": "",
          "type": "string"
        }
      ],
      "stateMutability": "view",
      "type": "function"
    },
    {
      "inputs": [],
      "name": "owner",
      "outputs": [
        {
          "internalType": "address",
          "name": "",
          "type": "address"
        }
      ],
      "stateMutability": "view",
      "type": "function"
    },
    {
      "inputs": [
        {
          "internalType": "uint256",
          "name": "tokenId",
          "type": "uint256"
        }
      ],
      "name": "ownerOf",
      "outputs": [
        {
          "internalType": "address",
          "name": "",
          "type": "address"
        }
      ],
      "stateMutability": "view",
      "type": "function"
    },
    {
      "inputs": [],
      "name": "renounceOwnership",
      "outputs": [],
      "stateMutability": "nonpayable",
      "type": "function"
    },
    {
      "inputs": [
        {
          "internalType": "address",
          "name": "from",
          "type": "address"
        },
        {
          "internalType": "address",
          "name": "to",
          "type": "address"
        },
        {
          "internalType": "uint256",
          "name": "tokenId",
          "type": "uint256"
        }
      ],
      "name": "safeTransferFrom",
      "outputs": [],
      "stateMutability": "nonpayable",
      "type": "function"
    },
    {
      "inputs": [
        {
          "internalType": "address",
          "name": "from",
          "type": "address"
        },
        {
          "internalType": "address",
          "name": "to",
          "type": "address"
        },
        {
          "internalType": "uint256",
          "name": "tokenId",
          "type": "uint256"
        },
        {
          "internalType": "bytes",
          "name": "_data",
          "type": "bytes"
        }
      ],
      "name": "safeTransferFrom",
      "outputs": [],
      "stateMutability": "nonpayable",
      "type": "function"
    },
    {
      "inputs": [
        {
          "internalType": "address",
          "name": "operator",
          "type": "address"
        },
        {
          "internalType": "bool",
          "name": "approved",
          "type": "bool"
        }
      ],
      "name": "setApprovalForAll",
      "outputs": [],
      "stateMutability": "nonpayable",
      "type": "function"
    },
    {
      "inputs": [
        {
          "internalType": "bytes4",
          "name": "interfaceId",
          "type": "bytes4"
        }
      ],
      "name": "supportsInterface",
      "outputs": [
        {
          "internalType": "bool",
          "name": "",
          "type": "bool"
        }
      ],
      "stateMutability": "view",
      "type": "function"
    },
    {
      "inputs": [],
      "name": "symbol",
      "outputs": [
        {
          "internalType": "string",
          "name": "",
          "type": "string"
        }
      ],
      "stateMutability": "view",
      "type": "function"
    },
    {
      "inputs": [
        {
          "internalType": "uint256",
          "name": "index",
          "type": "uint256"
        }
      ],
      "name": "tokenByIndex",
      "outputs": [
        {
          "internalType": "uint256",
          "name": "",
          "type": "uint256"
        }
      ],
      "stateMutability": "view",
      "type": "function"
    },
    {
      "inputs": [
        {
          "internalType": "address",
          "name": "owner",
          "type": "address"
        },
        {
          "internalType": "uint256",
          "name": "index",
          "type": "uint256"
        }
      ],
      "name": "tokenOfOwnerByIndex",
      "outputs": [
        {
          "internalType": "uint256",
          "name": "",
          "type": "uint256"
        }
      ],
      "stateMutability": "view",
      "type": "function"
    },
    {
      "inputs": [
        {
          "internalType": "uint256",
          "name": "tokenId",
          "type": "uint256"
        }
      ],
      "name": "tokenURI",
      "outputs": [
        {
          "internalType": "string",
          "name": "",
          "type": "string"
        }
      ],
      "stateMutability": "view",
      "type": "function"
    },
    {
      "inputs": [],
      "name": "totalSupply",
      "outputs": [
        {
          "internalType": "uint256",
          "name": "",
          "type": "uint256"
        }
      ],
      "stateMutability": "view",
      "type": "function"
    },
    {
      "inputs": [
        {
          "internalType": "address",
          "name": "from",
          "type": "address"
        },
        {
          "internalType": "address",
          "name": "to",
          "type": "address"
        },
        {
          "internalType": "uint256",
          "name": "tokenId",
          "type": "uint256"
        }
      ],
      "name": "transferFrom",
      "outputs": [],
      "stateMutability": "nonpayable",
      "type": "function"
    },
    {
      "inputs": [
        {
          "internalType": "address",
          "name": "newOwner",
          "type": "address"
        }
      ],
      "name": "transferOwnership",
      "outputs": [],
      "stateMutability": "nonpayable",
      "type": "function"
    }
  ],
  "bytecode": "0x60806040523480156200001157600080fd5b506040518060400160405280600b81526020016a2b32b1ba37b92a37b5b2b760a91b8152506040518060400160405280600b81526020016a2b22a1aa27a92a27a5a2a760a91b815250620000746200006e620000a860201b60201c565b620000ac565b815162000089906001906020850190620000fc565b5080516200009f906002906020840190620000fc565b505050620001df565b3390565b600080546001600160a01b038381166001600160a01b0319831681178455604051919092169283917f8be0079c531659141344cd1fd0a4f28419497f9722a3daafe3b4186f6b6457e09190a35050565b8280546200010a90620001a2565b90600052602060002090601f0160209004810192826200012e576000855562000179565b82601f106200014957805160ff191683800117855562000179565b8280016001018555821562000179579182015b82811115620001795782518255916020019190600101906200015c565b50620001879291506200018b565b5090565b5b808211156200018757600081556001016200018c565b600181811c90821680620001b757607f821691505b60208210811415620001d957634e487b7160e01b600052602260045260246000fd5b50919050565b612fec80620001ef6000396000f3fe608060405234801561001057600080fd5b506004361061018d5760003560e01c80635ac1e3bb116100e357806395d89b411161008c578063c87b56dd11610066578063c87b56dd1461031f578063e985e9c514610332578063f2fde38b1461036e57600080fd5b806395d89b41146102f1578063a22cb465146102f9578063b88d4fde1461030c57600080fd5b806370a08231116100bd57806370a08231146102c5578063715018a6146102d85780638da5cb5b146102e057600080fd5b80635ac1e3bb1461028c5780636352211e1461029f5780636dcee4ca146102b257600080fd5b806318160ddd1161014557806342842e0e1161011f57806342842e0e1461025357806342966c68146102665780634f6ccce71461027957600080fd5b806318160ddd1461022557806323b872dd1461022d5780632f745c591461024057600080fd5b8063081812fc11610176578063081812fc146101cf578063095ea7b3146101fa5780631249c58b1461020f57600080fd5b806301ffc9a71461019257806306fdde03146101ba575b600080fd5b6101a56101a03660046123fc565b610381565b60405190151581526020015b60405180910390f35b6101c26103c5565b6040516101b19190612de7565b6101e26101dd366004612436565b610457565b6040516001600160a01b0390911681526020016101b1565b61020d6102083660046123d2565b6104f1565b005b610217610623565b6040519081526020016101b1565b600954610217565b61020d61023b36600461227e565b6106e8565b61021761024e3660046123d2565b61076f565b61020d61026136600461227e565b610817565b61020d610274366004612436565b610832565b610217610287366004612436565b610927565b6101c261029a366004612436565b6109cb565b6101e26102ad366004612436565b610b18565b6101c26102c0366004612436565b610ba3565b6102176102d3366004612229565b610bae565b61020d610c48565b6000546001600160a01b03166101e2565b6101c2610cae565b61020d610307366004612396565b610cbd565b61020d61031a3660046122ba565b610d82565b6101c261032d366004612436565b610e10565b6101a561034036600461224b565b6001600160a01b03918216600090815260066020908152604080832093909416825291909152205460ff1690565b61020d61037c366004612229565b610e1b565b60006001600160e01b031982167f780e9d630000000000000000000000000000000000000000000000000000000014806103bf57506103bf82610efd565b92915050565b6060600180546103d490612e88565b80601f016020809104026020016040519081016040528092919081815260200182805461040090612e88565b801561044d5780601f106104225761010080835404028352916020019161044d565b820191906000526020600020905b81548152906001019060200180831161043057829003601f168201915b5050505050905090565b6000818152600360205260408120546001600160a01b03166104d55760405162461bcd60e51b815260206004820152602c60248201527f4552433732313a20617070726f76656420717565727920666f72206e6f6e657860448201526b34b9ba32b73a103a37b5b2b760a11b60648201526084015b60405180910390fd5b506000908152600560205260409020546001600160a01b031690565b60006104fc82610b18565b9050806001600160a01b0316836001600160a01b031614156105865760405162461bcd60e51b815260206004820152602160248201527f4552433732313a20617070726f76616c20746f2063757272656e74206f776e6560448201527f720000000000000000000000000000000000000000000000000000000000000060648201526084016104cc565b336001600160a01b03821614806105a257506105a28133610340565b6106145760405162461bcd60e51b815260206004820152603860248201527f4552433732313a20617070726f76652063616c6c6572206973206e6f74206f7760448201527f6e6572206e6f7220617070726f76656420666f7220616c6c000000000000000060648201526084016104cc565b61061e8383610f98565b505050565b600061062e33610bae565b1561067b5760405162461bcd60e51b815260206004820152601560248201527f596f7520616c72656164792068617665206f6e652e000000000000000000000060448201526064016104cc565b600b80546000918261068c83612ec3565b9190505590506106ae6106a76000546001600160a01b031690565b3383611006565b60405133815281907ff3919fe9a709ec82fb9fd1c54a2af7cf717bfe52a6c9b1f1ed8ea42d52ba392f9060200160405180910390a2919050565b6106f2338261119c565b6107645760405162461bcd60e51b815260206004820152603160248201527f4552433732313a207472616e736665722063616c6c6572206973206e6f74206f60448201527f776e6572206e6f7220617070726f76656400000000000000000000000000000060648201526084016104cc565b61061e838383611293565b600061077a83610bae565b82106107ee5760405162461bcd60e51b815260206004820152602b60248201527f455243373231456e756d657261626c653a206f776e657220696e646578206f7560448201527f74206f6620626f756e647300000000000000000000000000000000000000000060648201526084016104cc565b506001600160a01b03919091166000908152600760209081526040808320938352929052205490565b61061e83838360405180602001604052806000815250610d82565b6000546001600160a01b0316331461088c5760405162461bcd60e51b815260206004820181905260248201527f4f776e61626c653a2063616c6c6572206973206e6f7420746865206f776e657260448201526064016104cc565b6000818152600360205260409020546001600160a01b03166108f05760405162461bcd60e51b815260206004820152601f60248201527f55524920717565727920666f72206e6f6e6578697374656e7420746f6b656e0060448201526064016104cc565b6108f98161146b565b60405181907f806be94a2ac8b92d74e99aa8add5a8e54528a01ec914a9e00d201a6480ed986390600090a250565b600061093260095490565b82106109a65760405162461bcd60e51b815260206004820152602c60248201527f455243373231456e756d657261626c653a20676c6f62616c20696e646578206f60448201527f7574206f6620626f756e6473000000000000000000000000000000000000000060648201526084016104cc565b600982815481106109b9576109b9612f34565b90600052602060002001549050919050565b6000818152600360205260409020546060906001600160a01b0316610a585760405162461bcd60e51b815260206004820152602b60248201527f4e6f756e73546f6b656e3a2055524920717565727920666f72206e6f6e65786960448201527f7374656e7420746f6b656e00000000000000000000000000000000000000000060648201526084016104cc565b6000610a6383611512565b9050600081604051602001610a789190612cf6565b6040516020818303038152906040529050600082604051602001610a9c9190612d2a565b60405160208183030381529060405290506000610ac0610abb87611644565b61173d565b9050610aee838383604051602001610ada93929190612539565b60405160208183030381529060405261173d565b604051602001610afe9190612cb1565b604051602081830303815290604052945050505050919050565b6000818152600360205260408120546001600160a01b0316806103bf5760405162461bcd60e51b815260206004820152602960248201527f4552433732313a206f776e657220717565727920666f72206e6f6e657869737460448201527f656e7420746f6b656e000000000000000000000000000000000000000000000060648201526084016104cc565b60606103bf82611644565b60006001600160a01b038216610c2c5760405162461bcd60e51b815260206004820152602a60248201527f4552433732313a2062616c616e636520717565727920666f7220746865207a6560448201527f726f20616464726573730000000000000000000000000000000000000000000060648201526084016104cc565b506001600160a01b031660009081526004602052604090205490565b6000546001600160a01b03163314610ca25760405162461bcd60e51b815260206004820181905260248201527f4f776e61626c653a2063616c6c6572206973206e6f7420746865206f776e657260448201526064016104cc565b610cac60006118da565b565b6060600280546103d490612e88565b6001600160a01b038216331415610d165760405162461bcd60e51b815260206004820152601960248201527f4552433732313a20617070726f766520746f2063616c6c65720000000000000060448201526064016104cc565b3360008181526006602090815260408083206001600160a01b03871680855290835292819020805460ff191686151590811790915590519081529192917f17307eab39ab6107e8899845ad3d59bd9653f200f220920489ca2b5937696c31910160405180910390a35050565b610d8c338361119c565b610dfe5760405162461bcd60e51b815260206004820152603160248201527f4552433732313a207472616e736665722063616c6c6572206973206e6f74206f60448201527f776e6572206e6f7220617070726f76656400000000000000000000000000000060648201526084016104cc565b610e0a8484848461192a565b50505050565b60606103bf826109cb565b6000546001600160a01b03163314610e755760405162461bcd60e51b815260206004820181905260248201527f4f776e61626c653a2063616c6c6572206973206e6f7420746865206f776e657260448201526064016104cc565b6001600160a01b038116610ef15760405162461bcd60e51b815260206004820152602660248201527f4f776e61626c653a206e6577206f776e657220697320746865207a65726f206160448201527f646472657373000000000000000000000000000000000000000000000000000060648201526084016104cc565b610efa816118da565b50565b60006001600160e01b031982167f80ac58cd000000000000000000000000000000000000000000000000000000001480610f6057506001600160e01b031982167f5b5e139f00000000000000000000000000000000000000000000000000000000145b806103bf57507f01ffc9a7000000000000000000000000000000000000000000000000000000006001600160e01b03198316146103bf565b600081815260056020526040902080546001600160a01b0319166001600160a01b0384169081179091558190610fcd82610b18565b6001600160a01b03167f8c5be1e5ebec7d5bd14f71427d1e84f3dd0314c0f7b2291e5b200ac8c7c3b92560405160405180910390a45050565b6001600160a01b03821661105c5760405162461bcd60e51b815260206004820181905260248201527f4552433732313a206d696e7420746f20746865207a65726f206164647265737360448201526064016104cc565b6000818152600360205260409020546001600160a01b0316156110c15760405162461bcd60e51b815260206004820152601c60248201527f4552433732313a20746f6b656e20616c7265616479206d696e7465640000000060448201526064016104cc565b6110cd600083836119b3565b6001600160a01b03821660009081526004602052604081208054600192906110f6908490612dfa565b909155505060008181526003602052604080822080546001600160a01b0319166001600160a01b03868116919091179091559051839291861691907fddf252ad1be2c89b69c2b068fc378daa952ba7f163c4a11628f55a4df523b3ef908290a480826001600160a01b0316846001600160a01b03167fddf252ad1be2c89b69c2b068fc378daa952ba7f163c4a11628f55a4df523b3ef60405160405180910390a4505050565b6000818152600360205260408120546001600160a01b03166112155760405162461bcd60e51b815260206004820152602c60248201527f4552433732313a206f70657261746f7220717565727920666f72206e6f6e657860448201526b34b9ba32b73a103a37b5b2b760a11b60648201526084016104cc565b600061122083610b18565b9050806001600160a01b0316846001600160a01b0316148061125b5750836001600160a01b031661125084610457565b6001600160a01b0316145b8061128b57506001600160a01b0380821660009081526006602090815260408083209388168352929052205460ff165b949350505050565b826001600160a01b03166112a682610b18565b6001600160a01b0316146113225760405162461bcd60e51b815260206004820152602960248201527f4552433732313a207472616e73666572206f6620746f6b656e2074686174206960448201527f73206e6f74206f776e000000000000000000000000000000000000000000000060648201526084016104cc565b6001600160a01b03821661139d5760405162461bcd60e51b8152602060048201526024808201527f4552433732313a207472616e7366657220746f20746865207a65726f2061646460448201527f726573730000000000000000000000000000000000000000000000000000000060648201526084016104cc565b6113a88383836119b3565b6113b3600082610f98565b6001600160a01b03831660009081526004602052604081208054600192906113dc908490612e45565b90915550506001600160a01b038216600090815260046020526040812080546001929061140a908490612dfa565b909155505060008181526003602052604080822080546001600160a01b0319166001600160a01b0386811691821790925591518493918716917fddf252ad1be2c89b69c2b068fc378daa952ba7f163c4a11628f55a4df523b3ef91a4505050565b600061147682610b18565b9050611484816000846119b3565b61148f600083610f98565b6001600160a01b03811660009081526004602052604081208054600192906114b8908490612e45565b909155505060008281526003602052604080822080546001600160a01b0319169055518391906001600160a01b038416907fddf252ad1be2c89b69c2b068fc378daa952ba7f163c4a11628f55a4df523b3ef908390a45050565b60608161155257505060408051808201909152600181527f3000000000000000000000000000000000000000000000000000000000000000602082015290565b8160005b811561157c578061156681612ec3565b91506115759050600a83612e12565b9150611556565b60008167ffffffffffffffff81111561159757611597612f4a565b6040519080825280601f01601f1916602001820160405280156115c1576020820181803683370190505b5090505b841561128b576115d6600183612e45565b91506115e3600a86612ede565b6115ee906030612dfa565b60f81b81838151811061160357611603612f34565b60200101907effffffffffffffffffffffffffffffffffffffffffffffffffffffffffffff1916908160001a90535061163d600a86612e12565b94506115c5565b6060600061165183611a6b565b9050806040516020016116649190612a53565b604051602081830303815290604052816040516020016116849190612be7565b604051602081830303815290604052826040516020016116a49190612989565b604051602081830303815290604052836040516020016116c491906128bf565b604051602081830303815290604052846040516020016116e49190612b1d565b6040516020818303038152906040528560405160200161170491906127f5565b60408051601f1981840301815290829052611726969594939291602001612649565b604051602081830303815290604052915050919050565b606081516000141561175d57505060408051602081019091526000815290565b6000604051806060016040528060408152602001612f77604091399050600060038451600261178c9190612dfa565b6117969190612e12565b6117a1906004612e26565b905060006117b0826020612dfa565b67ffffffffffffffff8111156117c8576117c8612f4a565b6040519080825280601f01601f1916602001820160405280156117f2576020820181803683370190505b509050818152600183018586518101602084015b8183101561185e576003830192508251603f8160121c168501518253600182019150603f81600c1c168501518253600182019150603f8160061c168501518253600182019150603f8116850151825350600101611806565b60038951066001811461187857600281146118a4576118cc565b7f3d3d0000000000000000000000000000000000000000000000000000000000006001198301526118cc565b7f3d000000000000000000000000000000000000000000000000000000000000006000198301525b509398975050505050505050565b600080546001600160a01b038381166001600160a01b0319831681178455604051919092169283917f8be0079c531659141344cd1fd0a4f28419497f9722a3daafe3b4186f6b6457e09190a35050565b611935848484611293565b61194184848484611ead565b610e0a5760405162461bcd60e51b815260206004820152603260248201527f4552433732313a207472616e7366657220746f206e6f6e20455243373231526560448201527f63656976657220696d706c656d656e746572000000000000000000000000000060648201526084016104cc565b6001600160a01b038316611a0e57611a0981600980546000838152600a60205260408120829055600182018355919091527f6e1540171b6c0c960b71a7020d9f60077f6af931a8bbf590da0223dacf75c7af0155565b611a31565b816001600160a01b0316836001600160a01b031614611a3157611a318382612010565b6001600160a01b038216611a485761061e816120ad565b826001600160a01b0316826001600160a01b03161461061e5761061e828261215c565b60606000611a78836121a0565b90506000600a611a866121d3565b60646000611a95600185612e45565b600a611aa46104006008612e26565b611aae9190612e12565b611ab89190612e12565b90506000611ac7600383612e12565b90506000611ad6600283612e12565b6002611ae3600189612e45565b611aed9086612e26565b611af990610400612e45565b611b039190612e12565b611b0d9190612e45565b9050600096505b85871015611c21576000611b28838a612ede565b611b32858a612e26565b611b3c9084612dfa565b611b469190612dfa565b8689600a8110611b5857611b58612f34565b602002015152611b67896121a0565b9850610200851015611bb157600a611b8186610400612e45565b611b8c906008612e26565b611b969190612e12565b611ba0908a612ede565b611baa9086612dfa565b9050611bdf565b600a611bbe866008612e26565b611bc89190612e12565b611bd2908a612ede565b611bdc9086612e45565b90505b808689600a8110611bf257611bf2612f34565b60200201516020018181525050809450611c0b896121a0565b9850508680611c1990612ec3565b975050611b14565b6060611c5460028760016020020151518860005b602002015151611c459190612dfa565b611c4f9190612e12565b611512565b6020808801510151611c7a906002908960005b602002015160200151611c459190612dfa565b604051602001611c8b929190612790565b6040516020818303038152906040529050600197505b611cac600188612e45565b881015611e9f578088600114611cdb57604051806040016040528060018152602001600b60fa1b815250611d12565b6040518060400160405280600281526020017f20510000000000000000000000000000000000000000000000000000000000008152505b611d32888b600a8110611d2757611d27612f34565b602002015151611512565b611d55898c600a8110611d4757611d47612f34565b602002015160200151611512565b604051602001611d68949392919061247b565b60408051601f198184030181529190529050611d85600288612e45565b881415611df35780611dac87611d9c8b6001612dfa565b600a8110611d2757611d27612f34565b611dcb88611dbb8c6001612dfa565b600a8110611d4757611d47612f34565b604051602001611ddd939291906124df565b6040516020818303038152906040529050611e8d565b80611e2d600288611e058c6001612dfa565b600a8110611e1557611e15612f34565b602002015151898c600a8110611c3557611c35612f34565b611e69600289611e3e8d6001612dfa565b600a8110611e4e57611e4e612f34565b6020020151602001518a8d600a8110611c6757611c67612f34565b604051602001611e7b939291906124df565b60405160208183030381529060405290505b87611e9781612ec3565b985050611ca1565b9a9950505050505050505050565b60006001600160a01b0384163b1561200557604051630a85bd0160e11b81526001600160a01b0385169063150b7a0290611ef1903390899088908890600401612dab565b602060405180830381600087803b158015611f0b57600080fd5b505af1925050508015611f3b575060408051601f3d908101601f19168201909252611f3891810190612419565b60015b611feb573d808015611f69576040519150601f19603f3d011682016040523d82523d6000602084013e611f6e565b606091505b508051611fe35760405162461bcd60e51b815260206004820152603260248201527f4552433732313a207472616e7366657220746f206e6f6e20455243373231526560448201527f63656976657220696d706c656d656e746572000000000000000000000000000060648201526084016104cc565b805181602001fd5b6001600160e01b031916630a85bd0160e11b14905061128b565b506001949350505050565b6000600161201d84610bae565b6120279190612e45565b60008381526008602052604090205490915080821461207a576001600160a01b03841660009081526007602090815260408083208584528252808320548484528184208190558352600890915290208190555b5060009182526008602090815260408084208490556001600160a01b039094168352600781528383209183525290812055565b6009546000906120bf90600190612e45565b6000838152600a6020526040812054600980549394509092849081106120e7576120e7612f34565b90600052602060002001549050806009838154811061210857612108612f34565b6000918252602080832090910192909255828152600a9091526040808220849055858252812055600980548061214057612140612f1e565b6001900381819060005260206000200160009055905550505050565b600061216783610bae565b6001600160a01b039093166000908152600760209081526040808320868452825280832085905593825260089052919091209190915550565b6000816040516020016121b591815260200190565b60408051601f19818403018152919052805160209091012092915050565b604051806101400160405280600a905b60408051808201909152600080825260208201528152602001906001900390816121e35790505090565b80356001600160a01b038116811461222457600080fd5b919050565b60006020828403121561223b57600080fd5b6122448261220d565b9392505050565b6000806040838503121561225e57600080fd5b6122678361220d565b91506122756020840161220d565b90509250929050565b60008060006060848603121561229357600080fd5b61229c8461220d565b92506122aa6020850161220d565b9150604084013590509250925092565b600080600080608085870312156122d057600080fd5b6122d98561220d565b93506122e76020860161220d565b925060408501359150606085013567ffffffffffffffff8082111561230b57600080fd5b818701915087601f83011261231f57600080fd5b81358181111561233157612331612f4a565b604051601f8201601f19908116603f0116810190838211818310171561235957612359612f4a565b816040528281528a602084870101111561237257600080fd5b82602086016020830137600060208483010152809550505050505092959194509250565b600080604083850312156123a957600080fd5b6123b28361220d565b9150602083013580151581146123c757600080fd5b809150509250929050565b600080604083850312156123e557600080fd5b6123ee8361220d565b946020939093013593505050565b60006020828403121561240e57600080fd5b813561224481612f60565b60006020828403121561242b57600080fd5b815161224481612f60565b60006020828403121561244857600080fd5b5035919050565b60008151808452612467816020860160208601612e5c565b601f01601f19169290920160200192915050565b6000855161248d818460208a01612e5c565b8551908301906124a1818360208a01612e5c565b85519101906124b4818360208901612e5c565b600b60fa1b910190815283516124d1816001840160208801612e5c565b016001019695505050505050565b600084516124f1818460208901612e5c565b8083019050600b60fa1b8082528551612511816001850160208a01612e5c565b6001920191820152835161252c816002840160208801612e5c565b0160020195945050505050565b7f7b226e616d65223a220000000000000000000000000000000000000000000000815260008451612571816009850160208901612e5c565b7f222c20226465736372697074696f6e223a22000000000000000000000000000060099184019182015284516125ae81601b840160208901612e5c565b7f222c2022696d616765223a202200000000000000000000000000000000000000601b92909101918201527f646174613a696d6167652f7376672b786d6c3b6261736536342c00000000000060288201528351612612816042840160208801612e5c565b7f227d0000000000000000000000000000000000000000000000000000000000006042929091019182015260440195945050505050565b7f3c7376672077696474683d223130323422206865696768743d223130323422208152600060207f76696577426f783d22302030203130323420313032342220786d6c6e733d2268818401527f7474703a2f2f7777772e77332e6f72672f323030302f7376672220736861706560408401527f2d72656e646572696e673d2263726973704564676573223e0a000000000000006060840152607989516126f481838701858e01612e5c565b89519085019061270981848401868e01612e5c565b895191019061271d81848401868d01612e5c565b885191019061273181848401868c01612e5c565b875191019061274581848401868b01612e5c565b865191019091019061275a8183858901612e5c565b7f3c2f7376673e000000000000000000000000000000000000000000000000000091019081526006019998505050505050505050565b7f4d000000000000000000000000000000000000000000000000000000000000008152600083516127c8816001850160208801612e5c565b600b60fa1b60019184019182015283516127e9816002840160208801612e5c565b01600201949350505050565b681e3830ba3410321e9160b91b815260008251612819816009850160208701612e5c565b7f222066696c6c3d227472616e73706172656e7422207374726f6b653d2223373360099390910192830152507f3239383222207374726f6b652d77696474683d22333222207374726f6b652d6c60298201527f696e656361703d22726f756e6422207472616e73666f726d3d227472616e736c60498201527f61746528302c39302922202f3e0a0000000000000000000000000000000000006069820152607701919050565b681e3830ba3410321e9160b91b8152600082516128e3816009850160208701612e5c565b7f222066696c6c3d227472616e73706172656e7422207374726f6b653d2223303060099390910192830152507f3739343022207374726f6b652d77696474683d22333222207374726f6b652d6c60298201527f696e656361703d22726f756e6422207472616e73666f726d3d227472616e736c60498201527f61746528302c33302922202f3e0a0000000000000000000000000000000000006069820152607701919050565b681e3830ba3410321e9160b91b8152600082516129ad816009850160208701612e5c565b7f222066696c6c3d227472616e73706172656e7422207374726f6b653d2223464460099390910192830152507f4530314122207374726f6b652d77696474683d22333222207374726f6b652d6c60298201527f696e656361703d22726f756e6422207472616e73666f726d3d227472616e736c60498201527f61746528302c302922202f3e0a000000000000000000000000000000000000006069820152607601919050565b681e3830ba3410321e9160b91b815260008251612a77816009850160208701612e5c565b7f222066696c6c3d227472616e73706172656e7422207374726f6b653d2223443160099390910192830152507f3232323922207374726f6b652d77696474683d22333222207374726f6b652d6c60298201527f696e656361703d22726f756e6422207472616e73666f726d3d227472616e736c60498201527f61746528302c2d363029222f3e0a0000000000000000000000000000000000006069820152607701919050565b681e3830ba3410321e9160b91b815260008251612b41816009850160208701612e5c565b7f222066696c6c3d227472616e73706172656e7422207374726f6b653d2223323460099390910192830152507f3430384522207374726f6b652d77696474683d22333222207374726f6b652d6c60298201527f696e656361703d22726f756e6422207472616e73666f726d3d227472616e736c60498201527f61746528302c36302922202f3e0a0000000000000000000000000000000000006069820152607701919050565b681e3830ba3410321e9160b91b815260008251612c0b816009850160208701612e5c565b7f222066696c6c3d227472616e73706172656e7422207374726f6b653d2223463660099390910192830152507f3841314522207374726f6b652d77696474683d22333222207374726f6b652d6c60298201527f696e656361703d22726f756e6422207472616e73666f726d3d227472616e736c60498201527f61746528302c2d33302922202f3e0a00000000000000000000000000000000006069820152607801919050565b7f646174613a6170706c69636174696f6e2f6a736f6e3b6261736536342c000000815260008251612ce981601d850160208701612e5c565b91909101601d0192915050565b6b02b32b1ba37b92a37b5b2b7160a51b815260008251612d1d81600c850160208701612e5c565b91909101600c0192915050565b6b02b32b1ba37b92a37b5b2b7160a51b815260008251612d5181600c850160208701612e5c565b7f20697320612066756e206f6620746865204e6f756e732044414f20616e64204e600c9390910192830152507f6f756e732041727420466573746976616c000000000000000000000000000000602c820152603d01919050565b60006001600160a01b03808716835280861660208401525083604083015260806060830152612ddd608083018461244f565b9695505050505050565b602081526000612244602083018461244f565b60008219821115612e0d57612e0d612ef2565b500190565b600082612e2157612e21612f08565b500490565b6000816000190483118215151615612e4057612e40612ef2565b500290565b600082821015612e5757612e57612ef2565b500390565b60005b83811015612e77578181015183820152602001612e5f565b83811115610e0a5750506000910152565b600181811c90821680612e9c57607f821691505b60208210811415612ebd57634e487b7160e01b600052602260045260246000fd5b50919050565b6000600019821415612ed757612ed7612ef2565b5060010190565b600082612eed57612eed612f08565b500690565b634e487b7160e01b600052601160045260246000fd5b634e487b7160e01b600052601260045260246000fd5b634e487b7160e01b600052603160045260246000fd5b634e487b7160e01b600052603260045260246000fd5b634e487b7160e01b600052604160045260246000fd5b6001600160e01b031981168114610efa57600080fdfe4142434445464748494a4b4c4d4e4f505152535455565758595a6162636465666768696a6b6c6d6e6f707172737475767778797a303132333435363738392b2fa26469706673582212201bede3888e08378cb7cba54af0224f6e906f0ed532dfb6309f02c387b7956db264736f6c63430008060033",
  "linkReferences": {},
  "deployedLinkReferences": {}
}