{
  "_format": "hh-sol-artifact-1",
  "contractName": "VectorToken",
  "sourceName": "contracts/VectorToken.sol",
  "abi": [
    {
      "inputs": [],
      "stateMutability": "nonpayable",
      "type": "constructor"
    },
    {
      "anonymous": false,
      "inputs": [
        {
          "indexed": true,
          "internalType": "address",
          "name": "owner",
          "type": "address"
        },
        {
          "indexed": true,
          "internalType": "address",
          "name": "approved",
          "type": "address"
        },
        {
          "indexed": true,
          "internalType": "uint256",
          "name": "tokenId",
          "type": "uint256"
        }
      ],
      "name": "Approval",
      "type": "event"
    },
    {
      "anonymous": false,
      "inputs": [
        {
          "indexed": true,
          "internalType": "address",
          "name": "owner",
          "type": "address"
        },
        {
          "indexed": true,
          "internalType": "address",
          "name": "operator",
          "type": "address"
        },
        {
          "indexed": false,
          "internalType": "bool",
          "name": "approved",
          "type": "bool"
        }
      ],
      "name": "ApprovalForAll",
      "type": "event"
    },
    {
      "anonymous": false,
      "inputs": [
        {
          "indexed": false,
          "internalType": "uint256",
          "name": "mintTime",
          "type": "uint256"
        }
      ],
      "name": "MintTimeUpdated",
      "type": "event"
    },
    {
      "anonymous": false,
      "inputs": [
        {
          "indexed": true,
          "internalType": "uint256",
          "name": "tokenId",
          "type": "uint256"
        },
        {
          "indexed": false,
          "internalType": "address",
          "name": "newOwner",
          "type": "address"
        }
      ],
      "name": "NounBought",
      "type": "event"
    },
    {
      "anonymous": false,
      "inputs": [
        {
          "indexed": true,
          "internalType": "uint256",
          "name": "tokenId",
          "type": "uint256"
        }
      ],
      "name": "NounBurned",
      "type": "event"
    },
    {
      "anonymous": false,
      "inputs": [
        {
          "indexed": true,
          "internalType": "uint256",
          "name": "tokenId",
          "type": "uint256"
        },
        {
          "components": [
            {
              "internalType": "uint48",
              "name": "background",
              "type": "uint48"
            },
            {
              "internalType": "uint48",
              "name": "body",
              "type": "uint48"
            },
            {
              "internalType": "uint48",
              "name": "accessory",
              "type": "uint48"
            },
            {
              "internalType": "uint48",
              "name": "head",
              "type": "uint48"
            },
            {
              "internalType": "uint48",
              "name": "glasses",
              "type": "uint48"
            }
          ],
          "indexed": false,
          "internalType": "struct INounsSeeder.Seed",
          "name": "seed",
          "type": "tuple"
        }
      ],
      "name": "NounCreated",
      "type": "event"
    },
    {
      "anonymous": false,
      "inputs": [
        {
          "indexed": false,
          "internalType": "address",
          "name": "noundersDAO",
          "type": "address"
        }
      ],
      "name": "NoundersDAOUpdated",
      "type": "event"
    },
    {
      "anonymous": false,
      "inputs": [
        {
          "indexed": true,
          "internalType": "address",
          "name": "previousOwner",
          "type": "address"
        },
        {
          "indexed": true,
          "internalType": "address",
          "name": "newOwner",
          "type": "address"
        }
      ],
      "name": "OwnershipTransferred",
      "type": "event"
    },
    {
      "anonymous": false,
      "inputs": [
        {
          "indexed": true,
          "internalType": "address",
          "name": "from",
          "type": "address"
        },
        {
          "indexed": true,
          "internalType": "address",
          "name": "to",
          "type": "address"
        },
        {
          "indexed": true,
          "internalType": "uint256",
          "name": "tokenId",
          "type": "uint256"
        }
      ],
      "name": "Transfer",
      "type": "event"
    },
    {
      "inputs": [
        {
          "internalType": "address",
          "name": "to",
          "type": "address"
        },
        {
          "internalType": "uint256",
          "name": "tokenId",
          "type": "uint256"
        }
      ],
      "name": "approve",
      "outputs": [],
      "stateMutability": "nonpayable",
      "type": "function"
    },
    {
      "inputs": [
        {
          "internalType": "address",
          "name": "owner",
          "type": "address"
        }
      ],
      "name": "balanceOf",
      "outputs": [
        {
          "internalType": "uint256",
          "name": "",
          "type": "uint256"
        }
      ],
      "stateMutability": "view",
      "type": "function"
    },
    {
      "inputs": [
        {
          "internalType": "uint256",
          "name": "nounId",
          "type": "uint256"
        }
      ],
      "name": "burn",
      "outputs": [],
      "stateMutability": "nonpayable",
      "type": "function"
    },
    {
      "inputs": [
        {
          "internalType": "uint256",
          "name": "tokenId",
          "type": "uint256"
        }
      ],
      "name": "dataURI",
      "outputs": [
        {
          "internalType": "string",
          "name": "",
          "type": "string"
        }
      ],
      "stateMutability": "view",
      "type": "function"
    },
    {
      "inputs": [
        {
          "internalType": "uint256",
          "name": "tokenId",
          "type": "uint256"
        }
      ],
      "name": "generateSVG",
      "outputs": [
        {
          "internalType": "string",
          "name": "",
          "type": "string"
        }
      ],
      "stateMutability": "view",
      "type": "function"
    },
    {
      "inputs": [
        {
          "internalType": "uint256",
          "name": "tokenId",
          "type": "uint256"
        }
      ],
      "name": "getApproved",
      "outputs": [
        {
          "internalType": "address",
          "name": "",
          "type": "address"
        }
      ],
      "stateMutability": "view",
      "type": "function"
    },
    {
      "inputs": [
        {
          "internalType": "address",
          "name": "owner",
          "type": "address"
        },
        {
          "internalType": "address",
          "name": "operator",
          "type": "address"
        }
      ],
      "name": "isApprovedForAll",
      "outputs": [
        {
          "internalType": "bool",
          "name": "",
          "type": "bool"
        }
      ],
      "stateMutability": "view",
      "type": "function"
    },
    {
      "inputs": [],
      "name": "mint",
      "outputs": [
        {
          "internalType": "uint256",
          "name": "",
          "type": "uint256"
        }
      ],
      "stateMutability": "nonpayable",
      "type": "function"
    },
    {
      "inputs": [],
      "name": "name",
      "outputs": [
        {
          "internalType": "string",
          "name": "",
          "type": "string"
        }
      ],
      "stateMutability": "view",
      "type": "function"
    },
    {
      "inputs": [],
      "name": "owner",
      "outputs": [
        {
          "internalType": "address",
          "name": "",
          "type": "address"
        }
      ],
      "stateMutability": "view",
      "type": "function"
    },
    {
      "inputs": [
        {
          "internalType": "uint256",
          "name": "tokenId",
          "type": "uint256"
        }
      ],
      "name": "ownerOf",
      "outputs": [
        {
          "internalType": "address",
          "name": "",
          "type": "address"
        }
      ],
      "stateMutability": "view",
      "type": "function"
    },
    {
      "inputs": [],
      "name": "renounceOwnership",
      "outputs": [],
      "stateMutability": "nonpayable",
      "type": "function"
    },
    {
      "inputs": [
        {
          "internalType": "address",
          "name": "from",
          "type": "address"
        },
        {
          "internalType": "address",
          "name": "to",
          "type": "address"
        },
        {
          "internalType": "uint256",
          "name": "tokenId",
          "type": "uint256"
        }
      ],
      "name": "safeTransferFrom",
      "outputs": [],
      "stateMutability": "nonpayable",
      "type": "function"
    },
    {
      "inputs": [
        {
          "internalType": "address",
          "name": "from",
          "type": "address"
        },
        {
          "internalType": "address",
          "name": "to",
          "type": "address"
        },
        {
          "internalType": "uint256",
          "name": "tokenId",
          "type": "uint256"
        },
        {
          "internalType": "bytes",
          "name": "_data",
          "type": "bytes"
        }
      ],
      "name": "safeTransferFrom",
      "outputs": [],
      "stateMutability": "nonpayable",
      "type": "function"
    },
    {
      "inputs": [
        {
          "internalType": "address",
          "name": "operator",
          "type": "address"
        },
        {
          "internalType": "bool",
          "name": "approved",
          "type": "bool"
        }
      ],
      "name": "setApprovalForAll",
      "outputs": [],
      "stateMutability": "nonpayable",
      "type": "function"
    },
    {
      "inputs": [
        {
          "internalType": "bytes4",
          "name": "interfaceId",
          "type": "bytes4"
        }
      ],
      "name": "supportsInterface",
      "outputs": [
        {
          "internalType": "bool",
          "name": "",
          "type": "bool"
        }
      ],
      "stateMutability": "view",
      "type": "function"
    },
    {
      "inputs": [],
      "name": "symbol",
      "outputs": [
        {
          "internalType": "string",
          "name": "",
          "type": "string"
        }
      ],
      "stateMutability": "view",
      "type": "function"
    },
    {
      "inputs": [
        {
          "internalType": "uint256",
          "name": "index",
          "type": "uint256"
        }
      ],
      "name": "tokenByIndex",
      "outputs": [
        {
          "internalType": "uint256",
          "name": "",
          "type": "uint256"
        }
      ],
      "stateMutability": "view",
      "type": "function"
    },
    {
      "inputs": [
        {
          "internalType": "address",
          "name": "owner",
          "type": "address"
        },
        {
          "internalType": "uint256",
          "name": "index",
          "type": "uint256"
        }
      ],
      "name": "tokenOfOwnerByIndex",
      "outputs": [
        {
          "internalType": "uint256",
          "name": "",
          "type": "uint256"
        }
      ],
      "stateMutability": "view",
      "type": "function"
    },
    {
      "inputs": [
        {
          "internalType": "uint256",
          "name": "tokenId",
          "type": "uint256"
        }
      ],
      "name": "tokenURI",
      "outputs": [
        {
          "internalType": "string",
          "name": "",
          "type": "string"
        }
      ],
      "stateMutability": "view",
      "type": "function"
    },
    {
      "inputs": [],
      "name": "totalSupply",
      "outputs": [
        {
          "internalType": "uint256",
          "name": "",
          "type": "uint256"
        }
      ],
      "stateMutability": "view",
      "type": "function"
    },
    {
      "inputs": [
        {
          "internalType": "address",
          "name": "from",
          "type": "address"
        },
        {
          "internalType": "address",
          "name": "to",
          "type": "address"
        },
        {
          "internalType": "uint256",
          "name": "tokenId",
          "type": "uint256"
        }
      ],
      "name": "transferFrom",
      "outputs": [],
      "stateMutability": "nonpayable",
      "type": "function"
    },
    {
      "inputs": [
        {
          "internalType": "address",
          "name": "newOwner",
          "type": "address"
        }
      ],
      "name": "transferOwnership",
      "outputs": [],
      "stateMutability": "nonpayable",
      "type": "function"
    }
  ],
  "bytecode": "0x60806040523480156200001157600080fd5b506040518060400160405280600b81526020016a2b32b1ba37b92a37b5b2b760a91b8152506040518060400160405280600b81526020016a2b22a1aa27a92a27a5a2a760a91b815250620000746200006e620000a860201b60201c565b620000ac565b815162000089906001906020850190620000fc565b5080516200009f906002906020840190620000fc565b505050620001df565b3390565b600080546001600160a01b038381166001600160a01b0319831681178455604051919092169283917f8be0079c531659141344cd1fd0a4f28419497f9722a3daafe3b4186f6b6457e09190a35050565b8280546200010a90620001a2565b90600052602060002090601f0160209004810192826200012e576000855562000179565b82601f106200014957805160ff191683800117855562000179565b8280016001018555821562000179579182015b82811115620001795782518255916020019190600101906200015c565b50620001879291506200018b565b5090565b5b808211156200018757600081556001016200018c565b600181811c90821680620001b757607f821691505b60208210811415620001d957634e487b7160e01b600052602260045260246000fd5b50919050565b612d7f80620001ef6000396000f3fe608060405234801561001057600080fd5b506004361061018d5760003560e01c80635ac1e3bb116100e357806395d89b411161008c578063c87b56dd11610066578063c87b56dd1461031f578063e985e9c514610332578063f2fde38b1461036e57600080fd5b806395d89b41146102f1578063a22cb465146102f9578063b88d4fde1461030c57600080fd5b806370a08231116100bd57806370a08231146102c5578063715018a6146102d85780638da5cb5b146102e057600080fd5b80635ac1e3bb1461028c5780636352211e1461029f5780636dcee4ca146102b257600080fd5b806318160ddd1161014557806342842e0e1161011f57806342842e0e1461025357806342966c68146102665780634f6ccce71461027957600080fd5b806318160ddd1461022557806323b872dd1461022d5780632f745c591461024057600080fd5b8063081812fc11610176578063081812fc146101cf578063095ea7b3146101fa5780631249c58b1461020f57600080fd5b806301ffc9a71461019257806306fdde03146101ba575b600080fd5b6101a56101a03660046122a3565b610381565b60405190151581526020015b60405180910390f35b6101c26103c5565b6040516101b19190612b7a565b6101e26101dd3660046122dd565b610457565b6040516001600160a01b0390911681526020016101b1565b61020d610208366004612279565b6104f1565b005b610217610623565b6040519081526020016101b1565b600954610217565b61020d61023b366004612125565b6106e8565b61021761024e366004612279565b61076f565b61020d610261366004612125565b610817565b61020d6102743660046122dd565b610832565b6102176102873660046122dd565b610927565b6101c261029a3660046122dd565b6109cb565b6101e26102ad3660046122dd565b610b18565b6101c26102c03660046122dd565b610ba3565b6102176102d33660046120d0565b610bae565b61020d610c48565b6000546001600160a01b03166101e2565b6101c2610cae565b61020d61030736600461223d565b610cbd565b61020d61031a366004612161565b610d82565b6101c261032d3660046122dd565b610e10565b6101a56103403660046120f2565b6001600160a01b03918216600090815260066020908152604080832093909416825291909152205460ff1690565b61020d61037c3660046120d0565b610e1b565b60006001600160e01b031982167f780e9d630000000000000000000000000000000000000000000000000000000014806103bf57506103bf82610efd565b92915050565b6060600180546103d490612c1b565b80601f016020809104026020016040519081016040528092919081815260200182805461040090612c1b565b801561044d5780601f106104225761010080835404028352916020019161044d565b820191906000526020600020905b81548152906001019060200180831161043057829003601f168201915b5050505050905090565b6000818152600360205260408120546001600160a01b03166104d55760405162461bcd60e51b815260206004820152602c60248201527f4552433732313a20617070726f76656420717565727920666f72206e6f6e657860448201526b34b9ba32b73a103a37b5b2b760a11b60648201526084015b60405180910390fd5b506000908152600560205260409020546001600160a01b031690565b60006104fc82610b18565b9050806001600160a01b0316836001600160a01b031614156105865760405162461bcd60e51b815260206004820152602160248201527f4552433732313a20617070726f76616c20746f2063757272656e74206f776e6560448201527f720000000000000000000000000000000000000000000000000000000000000060648201526084016104cc565b336001600160a01b03821614806105a257506105a28133610340565b6106145760405162461bcd60e51b815260206004820152603860248201527f4552433732313a20617070726f76652063616c6c6572206973206e6f74206f7760448201527f6e6572206e6f7220617070726f76656420666f7220616c6c000000000000000060648201526084016104cc565b61061e8383610f98565b505050565b600061062e33610bae565b1561067b5760405162461bcd60e51b815260206004820152601560248201527f596f7520616c72656164792068617665206f6e652e000000000000000000000060448201526064016104cc565b600b80546000918261068c83612c56565b9190505590506106ae6106a76000546001600160a01b031690565b3383611006565b60405133815281907ff3919fe9a709ec82fb9fd1c54a2af7cf717bfe52a6c9b1f1ed8ea42d52ba392f9060200160405180910390a2919050565b6106f2338261119c565b6107645760405162461bcd60e51b815260206004820152603160248201527f4552433732313a207472616e736665722063616c6c6572206973206e6f74206f60448201527f776e6572206e6f7220617070726f76656400000000000000000000000000000060648201526084016104cc565b61061e838383611293565b600061077a83610bae565b82106107ee5760405162461bcd60e51b815260206004820152602b60248201527f455243373231456e756d657261626c653a206f776e657220696e646578206f7560448201527f74206f6620626f756e647300000000000000000000000000000000000000000060648201526084016104cc565b506001600160a01b03919091166000908152600760209081526040808320938352929052205490565b61061e83838360405180602001604052806000815250610d82565b6000546001600160a01b0316331461088c5760405162461bcd60e51b815260206004820181905260248201527f4f776e61626c653a2063616c6c6572206973206e6f7420746865206f776e657260448201526064016104cc565b6000818152600360205260409020546001600160a01b03166108f05760405162461bcd60e51b815260206004820152601f60248201527f55524920717565727920666f72206e6f6e6578697374656e7420746f6b656e0060448201526064016104cc565b6108f98161146b565b60405181907f806be94a2ac8b92d74e99aa8add5a8e54528a01ec914a9e00d201a6480ed986390600090a250565b600061093260095490565b82106109a65760405162461bcd60e51b815260206004820152602c60248201527f455243373231456e756d657261626c653a20676c6f62616c20696e646578206f60448201527f7574206f6620626f756e6473000000000000000000000000000000000000000060648201526084016104cc565b600982815481106109b9576109b9612cc7565b90600052602060002001549050919050565b6000818152600360205260409020546060906001600160a01b0316610a585760405162461bcd60e51b815260206004820152602b60248201527f4e6f756e73546f6b656e3a2055524920717565727920666f72206e6f6e65786960448201527f7374656e7420746f6b656e00000000000000000000000000000000000000000060648201526084016104cc565b6000610a6383611512565b9050600081604051602001610a789190612a93565b6040516020818303038152906040529050600082604051602001610a9c9190612ac7565b60405160208183030381529060405290506000610ac0610abb87611644565b61173d565b9050610aee838383604051602001610ada939291906123e0565b60405160208183030381529060405261173d565b604051602001610afe9190612a4e565b604051602081830303815290604052945050505050919050565b6000818152600360205260408120546001600160a01b0316806103bf5760405162461bcd60e51b815260206004820152602960248201527f4552433732313a206f776e657220717565727920666f72206e6f6e657869737460448201527f656e7420746f6b656e000000000000000000000000000000000000000000000060648201526084016104cc565b60606103bf82611644565b60006001600160a01b038216610c2c5760405162461bcd60e51b815260206004820152602a60248201527f4552433732313a2062616c616e636520717565727920666f7220746865207a6560448201527f726f20616464726573730000000000000000000000000000000000000000000060648201526084016104cc565b506001600160a01b031660009081526004602052604090205490565b6000546001600160a01b03163314610ca25760405162461bcd60e51b815260206004820181905260248201527f4f776e61626c653a2063616c6c6572206973206e6f7420746865206f776e657260448201526064016104cc565b610cac60006118da565b565b6060600280546103d490612c1b565b6001600160a01b038216331415610d165760405162461bcd60e51b815260206004820152601960248201527f4552433732313a20617070726f766520746f2063616c6c65720000000000000060448201526064016104cc565b3360008181526006602090815260408083206001600160a01b03871680855290835292819020805460ff191686151590811790915590519081529192917f17307eab39ab6107e8899845ad3d59bd9653f200f220920489ca2b5937696c31910160405180910390a35050565b610d8c338361119c565b610dfe5760405162461bcd60e51b815260206004820152603160248201527f4552433732313a207472616e736665722063616c6c6572206973206e6f74206f60448201527f776e6572206e6f7220617070726f76656400000000000000000000000000000060648201526084016104cc565b610e0a8484848461192a565b50505050565b60606103bf826109cb565b6000546001600160a01b03163314610e755760405162461bcd60e51b815260206004820181905260248201527f4f776e61626c653a2063616c6c6572206973206e6f7420746865206f776e657260448201526064016104cc565b6001600160a01b038116610ef15760405162461bcd60e51b815260206004820152602660248201527f4f776e61626c653a206e6577206f776e657220697320746865207a65726f206160448201527f646472657373000000000000000000000000000000000000000000000000000060648201526084016104cc565b610efa816118da565b50565b60006001600160e01b031982167f80ac58cd000000000000000000000000000000000000000000000000000000001480610f6057506001600160e01b031982167f5b5e139f00000000000000000000000000000000000000000000000000000000145b806103bf57507f01ffc9a7000000000000000000000000000000000000000000000000000000006001600160e01b03198316146103bf565b600081815260056020526040902080546001600160a01b0319166001600160a01b0384169081179091558190610fcd82610b18565b6001600160a01b03167f8c5be1e5ebec7d5bd14f71427d1e84f3dd0314c0f7b2291e5b200ac8c7c3b92560405160405180910390a45050565b6001600160a01b03821661105c5760405162461bcd60e51b815260206004820181905260248201527f4552433732313a206d696e7420746f20746865207a65726f206164647265737360448201526064016104cc565b6000818152600360205260409020546001600160a01b0316156110c15760405162461bcd60e51b815260206004820152601c60248201527f4552433732313a20746f6b656e20616c7265616479206d696e7465640000000060448201526064016104cc565b6110cd600083836119b3565b6001600160a01b03821660009081526004602052604081208054600192906110f6908490612b8d565b909155505060008181526003602052604080822080546001600160a01b0319166001600160a01b03868116919091179091559051839291861691907fddf252ad1be2c89b69c2b068fc378daa952ba7f163c4a11628f55a4df523b3ef908290a480826001600160a01b0316846001600160a01b03167fddf252ad1be2c89b69c2b068fc378daa952ba7f163c4a11628f55a4df523b3ef60405160405180910390a4505050565b6000818152600360205260408120546001600160a01b03166112155760405162461bcd60e51b815260206004820152602c60248201527f4552433732313a206f70657261746f7220717565727920666f72206e6f6e657860448201526b34b9ba32b73a103a37b5b2b760a11b60648201526084016104cc565b600061122083610b18565b9050806001600160a01b0316846001600160a01b0316148061125b5750836001600160a01b031661125084610457565b6001600160a01b0316145b8061128b57506001600160a01b0380821660009081526006602090815260408083209388168352929052205460ff165b949350505050565b826001600160a01b03166112a682610b18565b6001600160a01b0316146113225760405162461bcd60e51b815260206004820152602960248201527f4552433732313a207472616e73666572206f6620746f6b656e2074686174206960448201527f73206e6f74206f776e000000000000000000000000000000000000000000000060648201526084016104cc565b6001600160a01b03821661139d5760405162461bcd60e51b8152602060048201526024808201527f4552433732313a207472616e7366657220746f20746865207a65726f2061646460448201527f726573730000000000000000000000000000000000000000000000000000000060648201526084016104cc565b6113a88383836119b3565b6113b3600082610f98565b6001600160a01b03831660009081526004602052604081208054600192906113dc908490612bd8565b90915550506001600160a01b038216600090815260046020526040812080546001929061140a908490612b8d565b909155505060008181526003602052604080822080546001600160a01b0319166001600160a01b0386811691821790925591518493918716917fddf252ad1be2c89b69c2b068fc378daa952ba7f163c4a11628f55a4df523b3ef91a4505050565b600061147682610b18565b9050611484816000846119b3565b61148f600083610f98565b6001600160a01b03811660009081526004602052604081208054600192906114b8908490612bd8565b909155505060008281526003602052604080822080546001600160a01b0319169055518391906001600160a01b038416907fddf252ad1be2c89b69c2b068fc378daa952ba7f163c4a11628f55a4df523b3ef908390a45050565b60608161155257505060408051808201909152600181527f3000000000000000000000000000000000000000000000000000000000000000602082015290565b8160005b811561157c578061156681612c56565b91506115759050600a83612ba5565b9150611556565b60008167ffffffffffffffff81111561159757611597612cdd565b6040519080825280601f01601f1916602001820160405280156115c1576020820181803683370190505b5090505b841561128b576115d6600183612bd8565b91506115e3600a86612c71565b6115ee906030612b8d565b60f81b81838151811061160357611603612cc7565b60200101907effffffffffffffffffffffffffffffffffffffffffffffffffffffffffffff1916908160001a90535061163d600a86612ba5565b94506115c5565b6060600061165183611a6b565b90508060405160200161166491906127e4565b604051602081830303815290604052816040516020016116849190612906565b604051602081830303815290604052826040516020016116a49190612862565b604051602081830303815290604052836040516020016116c49190612740565b604051602081830303815290604052846040516020016116e491906129aa565b60405160208183030381529060405285604051602001611704919061269c565b60408051601f19818403018152908290526117269695949392916020016124f0565b604051602081830303815290604052915050919050565b606081516000141561175d57505060408051602081019091526000815290565b6000604051806060016040528060408152602001612d0a604091399050600060038451600261178c9190612b8d565b6117969190612ba5565b6117a1906004612bb9565b905060006117b0826020612b8d565b67ffffffffffffffff8111156117c8576117c8612cdd565b6040519080825280601f01601f1916602001820160405280156117f2576020820181803683370190505b509050818152600183018586518101602084015b8183101561185e576003830192508251603f8160121c168501518253600182019150603f81600c1c168501518253600182019150603f8160061c168501518253600182019150603f8116850151825350600101611806565b60038951066001811461187857600281146118a4576118cc565b7f3d3d0000000000000000000000000000000000000000000000000000000000006001198301526118cc565b7f3d000000000000000000000000000000000000000000000000000000000000006000198301525b509398975050505050505050565b600080546001600160a01b038381166001600160a01b0319831681178455604051919092169283917f8be0079c531659141344cd1fd0a4f28419497f9722a3daafe3b4186f6b6457e09190a35050565b611935848484611293565b61194184848484611d54565b610e0a5760405162461bcd60e51b815260206004820152603260248201527f4552433732313a207472616e7366657220746f206e6f6e20455243373231526560448201527f63656976657220696d706c656d656e746572000000000000000000000000000060648201526084016104cc565b6001600160a01b038316611a0e57611a0981600980546000838152600a60205260408120829055600182018355919091527f6e1540171b6c0c960b71a7020d9f60077f6af931a8bbf590da0223dacf75c7af0155565b611a31565b816001600160a01b0316836001600160a01b031614611a3157611a318382611eb7565b6001600160a01b038216611a485761061e81611f54565b826001600160a01b0316826001600160a01b03161461061e5761061e8282612003565b60606000611a7842612047565b905060006008611a8661207a565b600092505b81831015611b2057611a9f6103e085612c71565b611aaa906010612b8d565b818460088110611abc57611abc612cc7565b602002015152611acb84612047565b9350611ad961037c85612c71565b611ae4906010612b8d565b818460088110611af657611af6612cc7565b60200201516020018181525050611b0c84612047565b935082611b1881612c56565b935050611a8b565b6060611b5360028360016020020151518460005b602002015151611b449190612b8d565b611b4e9190612ba5565b611512565b6020808401510151611b79906002908560005b602002015160200151611b449190612b8d565b604051602001611b8a929190612637565b6040516020818303038152906040529050600193505b611bab836001612b8d565b841015611d4a576000611bbe8486612c71565b90508185600114611be857604051806040016040528060018152602001600b60fa1b815250611c1f565b6040518060400160405280600281526020017f20510000000000000000000000000000000000000000000000000000000000008152505b611c3f858460088110611c3457611c34612cc7565b602002015151611512565b611c62868560088110611c5457611c54612cc7565b602002015160200151611512565b604051602001611c759493929190612322565b60408051601f19818403018152919052915081611ccc60028587611c9a866001612b8d565b611ca49190612c71565b60088110611cb457611cb4612cc7565b602002015151868560088110611b3457611b34612cc7565b611d1360028688611cde876001612b8d565b611ce89190612c71565b60088110611cf857611cf8612cc7565b602002015160200151878660088110611b6657611b66612cc7565b604051602001611d2593929190612386565b6040516020818303038152906040529150508380611d4290612c56565b945050611ba0565b9695505050505050565b60006001600160a01b0384163b15611eac57604051630a85bd0160e11b81526001600160a01b0385169063150b7a0290611d98903390899088908890600401612b48565b602060405180830381600087803b158015611db257600080fd5b505af1925050508015611de2575060408051601f3d908101601f19168201909252611ddf918101906122c0565b60015b611e92573d808015611e10576040519150601f19603f3d011682016040523d82523d6000602084013e611e15565b606091505b508051611e8a5760405162461bcd60e51b815260206004820152603260248201527f4552433732313a207472616e7366657220746f206e6f6e20455243373231526560448201527f63656976657220696d706c656d656e746572000000000000000000000000000060648201526084016104cc565b805181602001fd5b6001600160e01b031916630a85bd0160e11b14905061128b565b506001949350505050565b60006001611ec484610bae565b611ece9190612bd8565b600083815260086020526040902054909150808214611f21576001600160a01b03841660009081526007602090815260408083208584528252808320548484528184208190558352600890915290208190555b5060009182526008602090815260408084208490556001600160a01b039094168352600781528383209183525290812055565b600954600090611f6690600190612bd8565b6000838152600a602052604081205460098054939450909284908110611f8e57611f8e612cc7565b906000526020600020015490508060098381548110611faf57611faf612cc7565b6000918252602080832090910192909255828152600a90915260408082208490558582528120556009805480611fe757611fe7612cb1565b6001900381819060005260206000200160009055905550505050565b600061200e83610bae565b6001600160a01b039093166000908152600760209081526040808320868452825280832085905593825260089052919091209190915550565b60008160405160200161205c91815260200190565b60408051601f19818403018152919052805160209091012092915050565b6040518061010001604052806008905b604080518082019091526000808252602082015281526020019060019003908161208a5790505090565b80356001600160a01b03811681146120cb57600080fd5b919050565b6000602082840312156120e257600080fd5b6120eb826120b4565b9392505050565b6000806040838503121561210557600080fd5b61210e836120b4565b915061211c602084016120b4565b90509250929050565b60008060006060848603121561213a57600080fd5b612143846120b4565b9250612151602085016120b4565b9150604084013590509250925092565b6000806000806080858703121561217757600080fd5b612180856120b4565b935061218e602086016120b4565b925060408501359150606085013567ffffffffffffffff808211156121b257600080fd5b818701915087601f8301126121c657600080fd5b8135818111156121d8576121d8612cdd565b604051601f8201601f19908116603f0116810190838211818310171561220057612200612cdd565b816040528281528a602084870101111561221957600080fd5b82602086016020830137600060208483010152809550505050505092959194509250565b6000806040838503121561225057600080fd5b612259836120b4565b91506020830135801515811461226e57600080fd5b809150509250929050565b6000806040838503121561228c57600080fd5b612295836120b4565b946020939093013593505050565b6000602082840312156122b557600080fd5b81356120eb81612cf3565b6000602082840312156122d257600080fd5b81516120eb81612cf3565b6000602082840312156122ef57600080fd5b5035919050565b6000815180845261230e816020860160208601612bef565b601f01601f19169290920160200192915050565b60008551612334818460208a01612bef565b855190830190612348818360208a01612bef565b855191019061235b818360208901612bef565b600b60fa1b91019081528351612378816001840160208801612bef565b016001019695505050505050565b60008451612398818460208901612bef565b8083019050600b60fa1b80825285516123b8816001850160208a01612bef565b600192019182015283516123d3816002840160208801612bef565b0160020195945050505050565b7f7b226e616d65223a220000000000000000000000000000000000000000000000815260008451612418816009850160208901612bef565b7f222c20226465736372697074696f6e223a220000000000000000000000000000600991840191820152845161245581601b840160208901612bef565b7f222c2022696d616765223a202200000000000000000000000000000000000000601b92909101918201527f646174613a696d6167652f7376672b786d6c3b6261736536342c000000000000602882015283516124b9816042840160208801612bef565b7f227d0000000000000000000000000000000000000000000000000000000000006042929091019182015260440195945050505050565b7f3c7376672077696474683d223130323422206865696768743d223130323422208152600060207f76696577426f783d22302030203130323420313032342220786d6c6e733d2268818401527f7474703a2f2f7777772e77332e6f72672f323030302f7376672220736861706560408401527f2d72656e646572696e673d2263726973704564676573223e0a0000000000000060608401526079895161259b81838701858e01612bef565b8951908501906125b081848401868e01612bef565b89519101906125c481848401868d01612bef565b88519101906125d881848401868c01612bef565b87519101906125ec81848401868b01612bef565b86519101909101906126018183858901612bef565b7f3c2f7376673e000000000000000000000000000000000000000000000000000091019081526006019998505050505050505050565b7f4d0000000000000000000000000000000000000000000000000000000000000081526000835161266f816001850160208801612bef565b600b60fa1b6001918401918201528351612690816002840160208801612bef565b01600201949350505050565b681e3830ba3410321e9160b91b8152600082516126c0816009850160208701612bef565b7f222066696c6c3d227472616e73706172656e7422207374726f6b653d2223373360099390910192830152507f3239383222207374726f6b652d77696474683d22333222207472616e73666f7260298201527f6d3d227472616e736c61746528302c3130302922202f3e0a00000000000000006049820152606101919050565b681e3830ba3410321e9160b91b815260008251612764816009850160208701612bef565b7f222066696c6c3d227472616e73706172656e7422207374726f6b653d2223303060099390910192830152507f3739343022207374726f6b652d77696474683d22333222207472616e73666f7260298201527f6d3d227472616e736c61746528302c36302922202f3e0a0000000000000000006049820152606001919050565b681e3830ba3410321e9160b91b815260008251612808816009850160208701612bef565b7f222066696c6c3d227472616e73706172656e7422207374726f6b653d2223443160099390910192830152507f3232323922207374726f6b652d77696474683d22333222202f3e0a00000000006029820152604401919050565b681e3830ba3410321e9160b91b815260008251612886816009850160208701612bef565b7f222066696c6c3d227472616e73706172656e7422207374726f6b653d2223464460099390910192830152507f4530314122207374726f6b652d77696474683d22333222207472616e73666f7260298201527f6d3d227472616e736c61746528302c34302922202f3e0a0000000000000000006049820152606001919050565b681e3830ba3410321e9160b91b81526000825161292a816009850160208701612bef565b7f222066696c6c3d227472616e73706172656e7422207374726f6b653d2223463660099390910192830152507f3841314522207374726f6b652d77696474683d22333222207472616e73666f7260298201527f6d3d227472616e736c61746528302c32302922202f3e0a0000000000000000006049820152606001919050565b681e3830ba3410321e9160b91b8152600082516129ce816009850160208701612bef565b7f222066696c6c3d227472616e73706172656e7422207374726f6b653d2223323460099390910192830152507f3430384522207374726f6b652d77696474683d22333222207472616e73666f7260298201527f6d3d227472616e736c61746528302c38302922202f3e0a0000000000000000006049820152606001919050565b7f646174613a6170706c69636174696f6e2f6a736f6e3b6261736536342c000000815260008251612a8681601d850160208701612bef565b91909101601d0192915050565b6b02b32b1ba37b92a37b5b2b7160a51b815260008251612aba81600c850160208701612bef565b91909101600c0192915050565b6b02b32b1ba37b92a37b5b2b7160a51b815260008251612aee81600c850160208701612bef565b7f20697320612066756e206f6620746865204e6f756e732044414f20616e64204e600c9390910192830152507f6f756e732041727420466573746976616c000000000000000000000000000000602c820152603d01919050565b60006001600160a01b03808716835280861660208401525083604083015260806060830152611d4a60808301846122f6565b6020815260006120eb60208301846122f6565b60008219821115612ba057612ba0612c85565b500190565b600082612bb457612bb4612c9b565b500490565b6000816000190483118215151615612bd357612bd3612c85565b500290565b600082821015612bea57612bea612c85565b500390565b60005b83811015612c0a578181015183820152602001612bf2565b83811115610e0a5750506000910152565b600181811c90821680612c2f57607f821691505b60208210811415612c5057634e487b7160e01b600052602260045260246000fd5b50919050565b6000600019821415612c6a57612c6a612c85565b5060010190565b600082612c8057612c80612c9b565b500690565b634e487b7160e01b600052601160045260246000fd5b634e487b7160e01b600052601260045260246000fd5b634e487b7160e01b600052603160045260246000fd5b634e487b7160e01b600052603260045260246000fd5b634e487b7160e01b600052604160045260246000fd5b6001600160e01b031981168114610efa57600080fdfe4142434445464748494a4b4c4d4e4f505152535455565758595a6162636465666768696a6b6c6d6e6f707172737475767778797a303132333435363738392b2fa2646970667358221220ee88307fa709f65d67ec64d8455216f6088cc07f6d7fae1aff6ad53a294ddb8064736f6c63430008060033",
  "linkReferences": {},
  "deployedLinkReferences": {}
}